{
  "_format": "hh-sol-artifact-1",
  "contractName": "HyperliquidPrivacySystemV5Debug",
  "sourceName": "contracts/HyperliquidPrivacySystemV5Debug.sol",
  "abi": [
    {
      "inputs": [
        {
          "internalType": "address",
          "name": "_sp1Verifier",
          "type": "address"
        },
        {
          "internalType": "address",
          "name": "_complianceAuthority",
          "type": "address"
        }
      ],
      "stateMutability": "nonpayable",
      "type": "constructor"
    },
    {
      "anonymous": false,
      "inputs": [
        {
          "indexed": true,
          "internalType": "address",
          "name": "newAuthority",
          "type": "address"
        }
      ],
      "name": "ComplianceAuthorityUpdated",
      "type": "event"
    },
    {
      "anonymous": false,
      "inputs": [
        {
          "indexed": false,
          "internalType": "address",
          "name": "recipient",
          "type": "address"
        },
        {
          "indexed": false,
          "internalType": "uint64",
          "name": "token",
          "type": "uint64"
        },
        {
          "indexed": false,
          "internalType": "uint64",
          "name": "amount",
          "type": "uint64"
        }
      ],
      "name": "DebugSendSpotCall",
      "type": "event"
    },
    {
      "anonymous": false,
      "inputs": [
        {
          "indexed": false,
          "internalType": "string",
          "name": "step",
          "type": "string"
        },
        {
          "indexed": false,
          "internalType": "bytes32",
          "name": "nullifier",
          "type": "bytes32"
        },
        {
          "indexed": false,
          "internalType": "uint64",
          "name": "amount",
          "type": "uint64"
        }
      ],
      "name": "DebugWithdrawStep",
      "type": "event"
    },
    {
      "anonymous": false,
      "inputs": [
        {
          "indexed": true,
          "internalType": "address",
          "name": "user",
          "type": "address"
        },
        {
          "indexed": false,
          "internalType": "uint64",
          "name": "token",
          "type": "uint64"
        },
        {
          "indexed": false,
          "internalType": "uint64",
          "name": "amount",
          "type": "uint64"
        }
      ],
      "name": "DepositPrepared",
      "type": "event"
    },
    {
      "anonymous": false,
      "inputs": [
        {
          "indexed": true,
          "internalType": "bytes32",
          "name": "commitment",
          "type": "bytes32"
        },
        {
          "indexed": false,
          "internalType": "uint256",
          "name": "timestamp",
          "type": "uint256"
        }
      ],
      "name": "PrivateDeposit",
      "type": "event"
    },
    {
      "anonymous": false,
      "inputs": [
        {
          "indexed": true,
          "internalType": "bytes32",
          "name": "commitment",
          "type": "bytes32"
        },
        {
          "indexed": false,
          "internalType": "uint256",
          "name": "timestamp",
          "type": "uint256"
        }
      ],
      "name": "PrivateTrade",
      "type": "event"
    },
    {
      "anonymous": false,
      "inputs": [
        {
          "indexed": true,
          "internalType": "bytes32",
          "name": "nullifier",
          "type": "bytes32"
        },
        {
          "indexed": false,
          "internalType": "uint256",
          "name": "timestamp",
          "type": "uint256"
        }
      ],
      "name": "PrivateWithdraw",
      "type": "event"
    },
    {
      "inputs": [
        {
          "internalType": "address",
          "name": "user",
          "type": "address"
        }
      ],
      "name": "canCompleteDeposit",
      "outputs": [
        {
          "internalType": "bool",
          "name": "",
          "type": "bool"
        }
      ],
      "stateMutability": "view",
      "type": "function"
    },
    {
      "inputs": [
        {
          "internalType": "bytes32",
          "name": "",
          "type": "bytes32"
        }
      ],
      "name": "commitmentIndex",
      "outputs": [
        {
          "internalType": "uint256",
          "name": "",
          "type": "uint256"
        }
      ],
      "stateMutability": "view",
      "type": "function"
    },
    {
      "inputs": [
        {
          "internalType": "uint256",
          "name": "",
          "type": "uint256"
        }
      ],
      "name": "commitmentMerkleTree",
      "outputs": [
        {
          "internalType": "bytes32",
          "name": "",
          "type": "bytes32"
        }
      ],
      "stateMutability": "view",
      "type": "function"
    },
    {
      "inputs": [
        {
          "internalType": "bytes32",
          "name": "",
          "type": "bytes32"
        }
      ],
      "name": "commitments",
      "outputs": [
        {
          "internalType": "bool",
          "name": "",
          "type": "bool"
        }
      ],
      "stateMutability": "view",
      "type": "function"
    },
    {
      "inputs": [
        {
          "internalType": "bytes32",
          "name": "commitment",
          "type": "bytes32"
        },
        {
          "internalType": "bytes",
          "name": "complianceProof",
          "type": "bytes"
        },
        {
          "internalType": "bytes",
          "name": "publicValues",
          "type": "bytes"
        }
      ],
      "name": "completeDeposit",
      "outputs": [],
      "stateMutability": "nonpayable",
      "type": "function"
    },
    {
      "inputs": [],
      "name": "complianceAuthority",
      "outputs": [
        {
          "internalType": "address",
          "name": "",
          "type": "address"
        }
      ],
      "stateMutability": "view",
      "type": "function"
    },
    {
      "inputs": [
        {
          "internalType": "bytes32",
          "name": "nullifier",
          "type": "bytes32"
        },
        {
          "internalType": "address",
          "name": "recipient",
          "type": "address"
        },
        {
          "internalType": "uint64",
          "name": "token",
          "type": "uint64"
        },
        {
          "internalType": "uint64",
          "name": "amount",
          "type": "uint64"
        },
        {
          "internalType": "bytes",
          "name": "balanceProof",
          "type": "bytes"
        },
        {
          "internalType": "bytes",
          "name": "publicValues",
          "type": "bytes"
        },
        {
          "internalType": "bool",
          "name": "skipSendSpot",
          "type": "bool"
        }
      ],
      "name": "debugWithdraw",
      "outputs": [],
      "stateMutability": "nonpayable",
      "type": "function"
    },
    {
      "inputs": [
        {
          "internalType": "bytes32",
          "name": "commitment",
          "type": "bytes32"
        },
        {
          "internalType": "uint64",
          "name": "token",
          "type": "uint64"
        },
        {
          "internalType": "uint64",
          "name": "amount",
          "type": "uint64"
        },
        {
          "internalType": "bytes",
          "name": "complianceProof",
          "type": "bytes"
        },
        {
          "internalType": "bytes",
          "name": "publicValues",
          "type": "bytes"
        }
      ],
      "name": "deposit",
      "outputs": [],
      "stateMutability": "nonpayable",
      "type": "function"
    },
    {
      "inputs": [
        {
          "internalType": "uint64",
          "name": "token",
          "type": "uint64"
        },
        {
          "internalType": "uint64",
          "name": "amount",
          "type": "uint64"
        },
        {
          "internalType": "address",
          "name": "recipient",
          "type": "address"
        }
      ],
      "name": "emergencyWithdraw",
      "outputs": [],
      "stateMutability": "nonpayable",
      "type": "function"
    },
    {
      "inputs": [],
      "name": "getMerkleRoot",
      "outputs": [
        {
          "internalType": "bytes32",
          "name": "",
          "type": "bytes32"
        }
      ],
      "stateMutability": "view",
      "type": "function"
    },
    {
      "inputs": [
        {
          "internalType": "address",
          "name": "user",
          "type": "address"
        },
        {
          "internalType": "uint64",
          "name": "token",
          "type": "uint64"
        }
      ],
      "name": "getUserSpotBalance",
      "outputs": [
        {
          "internalType": "uint64",
          "name": "",
          "type": "uint64"
        }
      ],
      "stateMutability": "view",
      "type": "function"
    },
    {
      "inputs": [
        {
          "internalType": "bytes32",
          "name": "",
          "type": "bytes32"
        }
      ],
      "name": "nullifiers",
      "outputs": [
        {
          "internalType": "bool",
          "name": "",
          "type": "bool"
        }
      ],
      "stateMutability": "view",
      "type": "function"
    },
    {
      "inputs": [
        {
          "internalType": "address",
          "name": "",
          "type": "address"
        }
      ],
      "name": "pendingDeposits",
      "outputs": [
        {
          "internalType": "uint64",
          "name": "token",
          "type": "uint64"
        },
        {
          "internalType": "uint64",
          "name": "amount",
          "type": "uint64"
        },
        {
          "internalType": "uint64",
          "name": "contractBalanceBefore",
          "type": "uint64"
        },
        {
          "internalType": "uint256",
          "name": "timestamp",
          "type": "uint256"
        },
        {
          "internalType": "bool",
          "name": "completed",
          "type": "bool"
        }
      ],
      "stateMutability": "view",
      "type": "function"
    },
    {
      "inputs": [
        {
          "internalType": "uint64",
          "name": "token",
          "type": "uint64"
        },
        {
          "internalType": "uint64",
          "name": "amount",
          "type": "uint64"
        }
      ],
      "name": "prepareDeposit",
      "outputs": [],
      "stateMutability": "nonpayable",
      "type": "function"
    },
    {
      "inputs": [
        {
          "internalType": "bytes32",
          "name": "commitment",
          "type": "bytes32"
        },
        {
          "internalType": "bytes",
          "name": "ownershipProof",
          "type": "bytes"
        },
        {
          "internalType": "bytes",
          "name": "ownershipPublicValues",
          "type": "bytes"
        },
        {
          "internalType": "uint32",
          "name": "asset",
          "type": "uint32"
        },
        {
          "internalType": "bool",
          "name": "isBuy",
          "type": "bool"
        },
        {
          "internalType": "uint64",
          "name": "limitPx",
          "type": "uint64"
        },
        {
          "internalType": "uint64",
          "name": "sz",
          "type": "uint64"
        }
      ],
      "name": "privatePerpsPosition",
      "outputs": [],
      "stateMutability": "nonpayable",
      "type": "function"
    },
    {
      "inputs": [
        {
          "internalType": "bytes",
          "name": "tradeProof",
          "type": "bytes"
        },
        {
          "internalType": "bytes",
          "name": "publicValues",
          "type": "bytes"
        }
      ],
      "name": "privateSpotTrade",
      "outputs": [],
      "stateMutability": "nonpayable",
      "type": "function"
    },
    {
      "inputs": [],
      "name": "sp1Verifier",
      "outputs": [
        {
          "internalType": "contract ISP1Verifier",
          "name": "",
          "type": "address"
        }
      ],
      "stateMutability": "view",
      "type": "function"
    },
    {
      "inputs": [
        {
          "internalType": "uint64",
          "name": "token",
          "type": "uint64"
        },
        {
          "internalType": "uint64",
          "name": "amount",
          "type": "uint64"
        }
      ],
      "name": "transferToContract",
      "outputs": [],
      "stateMutability": "nonpayable",
      "type": "function"
    },
    {
      "inputs": [
        {
          "internalType": "address",
          "name": "newAuthority",
          "type": "address"
        }
      ],
      "name": "updateComplianceAuthority",
      "outputs": [],
      "stateMutability": "nonpayable",
      "type": "function"
    },
    {
      "inputs": [
        {
          "internalType": "bytes32",
          "name": "nullifier",
          "type": "bytes32"
        },
        {
          "internalType": "address",
          "name": "recipient",
          "type": "address"
        },
        {
          "internalType": "uint64",
          "name": "token",
          "type": "uint64"
        },
        {
          "internalType": "uint64",
          "name": "amount",
          "type": "uint64"
        },
        {
          "internalType": "bytes",
          "name": "balanceProof",
          "type": "bytes"
        },
        {
          "internalType": "bytes",
          "name": "publicValues",
          "type": "bytes"
        }
      ],
      "name": "withdraw",
      "outputs": [],
      "stateMutability": "nonpayable",
      "type": "function"
    }
  ],
  "bytecode": "0x60a06040523480156200001157600080fd5b5060405162002a5a38038062002a5a83398101604081905262000034916200007a565b6001600160a01b03918216608052600380546001600160a01b03191691909216179055620000b2565b80516001600160a01b03811681146200007557600080fd5b919050565b600080604083850312156200008e57600080fd5b62000099836200005d565b9150620000a9602084016200005d565b90509250929050565b608051612969620000f1600039600081816101f70152818161082501528181610ee301528181611354015281816119ee0152611d5801526129696000f3fe608060405234801561001057600080fd5b506004361061012c5760003560e01c8063839df945116100ad578063d4a82dc511610071578063d4a82dc5146102c1578063dac90aeb146102d4578063e5ea7be2146102e7578063eb3349b9146102fa578063fdb87ec71461038357600080fd5b8063839df9451461025257806394137c9014610275578063b54fcff914610288578063ca29a4051461029b578063d43ffa2f146102ae57600080fd5b806349590657116100f457806349590657146101ea57806352a07fa3146101f25780635eda69b1146102195780636f3bcf671461022c5780637318754d1461023f57600080fd5b8063012d09b51461013157806318afae2c1461016457806327868e38146101795780632997e86b1461018c578063309f477a146101bf575b600080fd5b61015161013f366004611fff565b60056020526000908152604090205481565b6040519081526020015b60405180910390f35b610177610172366004612057565b6103ae565b005b6101776101873660046120f6565b61047b565b6101af61019a366004611fff565b60026020526000908152604090205460ff1681565b604051901515815260200161015b565b6003546101d2906001600160a01b031681565b6040516001600160a01b03909116815260200161015b565b610151610ba5565b6101d27f000000000000000000000000000000000000000000000000000000000000000081565b6101776102273660046121b4565b610c52565b61017761023a3660046121ed565b610e1d565b61017761024d3660046121b4565b6110fe565b6101af610260366004611fff565b60016020526000908152604090205460ff1681565b6101af6102833660046122a4565b61116f565b6101776102963660046122c6565b61125f565b6101776102a9366004612331565b6114dc565b6101776102bc3660046123cf565b6116bc565b6101516102cf366004611fff565b611bb5565b6101776102e2366004612448565b611bd6565b6101776102f53660046122a4565b611e9c565b61034a6103083660046122a4565b6006602052600090815260409020805460018201546002909201546001600160401b0380831693600160401b8404821693600160801b90049091169160ff1685565b604080516001600160401b039687168152948616602086015292909416918301919091526060820152901515608082015260a00161015b565b6103966103913660046124f6565b611f3c565b6040516001600160401b03909116815260200161015b565b6003546001600160a01b031633146104095760405162461bcd60e51b81526020600482015260196024820152784f6e6c7920636f6d706c69616e636520617574686f7269747960381b60448201526064015b60405180910390fd5b604051630b0ac0ab60e01b815273333333333333333333333333333333333333333390630b0ac0ab9061044490849087908790600401612512565b600060405180830381600087803b15801561045e57600080fd5b505af1158015610472573d6000803e3d6000fd5b50505050505050565b604080516060808252600590820152641cdd185c9d60da1b6080820152602081018b90526001600160401b0388168183015290516000805160206129148339815191529181900360a00190a160008981526002602052604090205460ff161561051f5760405162461bcd60e51b8152602060048201526016602482015275139d5b1b1a599a595c88185b1c9958591e481d5cd95960521b6044820152606401610400565b604080516060808252601690820152751b9d5b1b1a599a595c97d8da1958dad7dc185cdcd95960521b6080820152602081018b90526001600160401b0388168183015290516000805160206129148339815191529181900360a00190a1600061058a83850185612572565b90506000805160206129148339815191528a886040516105eb9291906060808252601590820152746465636f6465645f7075626c69635f76616c75657360581b608082015260208101929092526001600160401b0316604082015260a00190565b60405180910390a16105fb610ba5565b8160200151146106435760405162461bcd60e51b8152602060048201526013602482015272125b9d985b1a59081b595c9adb19481c9bdbdd606a1b6044820152606401610400565b6040805160608082526018908201527f6d65726b6c655f726f6f745f636865636b5f70617373656400000000000000006080820152602081018c90526001600160401b0389168183015290516000805160206129148339815191529181900360a00190a1866001600160401b0316816040015110156107045760405162461bcd60e51b815260206004820152601b60248201527f496e73756666696369656e742070726f76656e2062616c616e636500000000006044820152606401610400565b6040805160608082526014908201527318985b185b98d957d8da1958dad7dc185cdcd95960621b6080820152602081018c90526001600160401b0389168183015290516000805160206129148339815191529181900360a00190a1876001600160401b031681606001516001600160401b0316146107b55760405162461bcd60e51b815260206004820152600e60248201526d082e6e6cae840dad2e6dac2e8c6d60931b6044820152606401610400565b60408051606080825260129082015271185cdcd95d17d8da1958dad7dc185cdcd95960721b6080820152602081018c90526001600160401b0389168183015290516000805160206129148339815191529181900360a00190a160405163020a49e360e51b81526001600160a01b037f000000000000000000000000000000000000000000000000000000000000000016906341493c6090610881907e9c22b4f95fb710070dc80cfce7526c4cc7780834ab328bd769ff58934e6d0590889088908c908c906004016125e7565b60006040518083038186803b15801561089957600080fd5b505afa1580156108ad573d6000803e3d6000fd5b505050506000805160206129148339815191528a8860405161091892919060608082526019908201527f70726f6f665f766572696669636174696f6e5f70617373656400000000000000608082015260208101929092526001600160401b0316604082015260a00190565b60405180910390a160008a81526002602052604090819020805460ff191660011790555160008051602061291483398151915290610999908c908a906060808252601590820152741b9d5b1b1a599a595c97db585c9ad95917dd5cd959605a1b608082015260208101929092526001600160401b0316604082015260a00190565b60405180910390a181610ab7577f8444bf1c29a1ac42def92a78a66796f5bbf8f605a08b82f43d9d8c8d8973abb78989896040516109d993929190612512565b60405180910390a1604051630b0ac0ab60e01b815273333333333333333333333333333333333333333390630b0ac0ab90610a1c908c908c908c90600401612512565b600060405180830381600087803b158015610a3657600080fd5b505af1158015610a4a573d6000803e3d6000fd5b505050506000805160206129148339815191528a88604051610aaa9291906060808252601290820152711cd95b991cdc1bdd17d8dbdb5c1b195d195960721b608082015260208101929092526001600160401b0316604082015260a00190565b60405180910390a1610b0f565b6040805160608082526010908201526f1cd95b991cdc1bdd17dcdada5c1c195960821b6080820152602081018c90526001600160401b0389168183015290516000805160206129148339815191529181900360a00190a15b897fcc9580996e4c53ac7e73439f181e208ab15831ea2d2429dd12ee742c1c475b6f42604051610b4191815260200190565b60405180910390a26040805160608082526009908201526818dbdb5c1b195d195960ba1b6080820152602081018c90526001600160401b0389168183015290516000805160206129148339815191529181900360a00190a150505050505050505050565b6004546000908103610bb75750600090565b60006004600081548110610bcd57610bcd612620565b600091825260209091200154905060015b600454811015610c4c578160048281548110610bfc57610bfc612620565b9060005260206000200154604051602001610c21929190918252602082015260400190565b6040516020818303038152906040528051906020012091508080610c449061264c565b915050610bde565b50919050565b6000816001600160401b031611610cab5760405162461bcd60e51b815260206004820152601d60248201527f416d6f756e74206d7573742062652067726561746572207468616e20300000006044820152606401610400565b6000610cb73384611f3c565b9050816001600160401b0316816001600160401b03161015610d1b5760405162461bcd60e51b815260206004820152601960248201527f496e73756666696369656e742073706f742062616c616e6365000000000000006044820152606401610400565b6000610d273085611f3c565b6040805160a0810182526001600160401b03878116808352878216602080850182815287851686880190815242606088019081526000608089018181523380835260068752918b902099518a54955194518a16600160801b0267ffffffffffffffff60801b19958b16600160401b026fffffffffffffffffffffffffffffffff1990971691909a1617949094179290921696909617875594516001870155516002909501805495151560ff19909616959095179094558451918252928101929092529293507fac44786729a70fd941b7584083b7454cfc1720db49dd28841b8caec86f6adb25910160405180910390a250505050565b6000610e2b86880188612665565b80519091508a14610e745760405162461bcd60e51b8152602060048201526013602482015272086dedadad2e8dacadce840dad2e6dac2e8c6d606b1b6044820152606401610400565b60008a81526020819052604090206002015460ff16610ecc5760405162461bcd60e51b815260206004820152601460248201527315985d5b1d08191bd95cc81b9bdd08195e1a5cdd60621b6044820152606401610400565b60405163020a49e360e51b81526001600160a01b037f000000000000000000000000000000000000000000000000000000000000000016906341493c6090610f3f907e6bf06179a19e1575731cbb10c5b9cc955cae6f0a5de98cf8baf3c7c416131a908b908b908f908f906004016125e7565b60006040518083038186803b158015610f5757600080fd5b505afa158015610f6b573d6000803e3d6000fd5b5050604051634e4719ab60e01b815263ffffffff8816600482015286151560248201526001600160401b038087166044830152851660648201527333333333333333333333333333333333333333339250634e4719ab9150608401600060405180830381600087803b158015610fe057600080fd5b505af1158015610ff4573d6000803e3d6000fd5b50505050831561105d5760008a81526020818152604080832063ffffffff891684526001019091528120805484929061103190849060070b6126c1565b92506101000a8154816001600160401b03021916908360070b6001600160401b031602179055506110b8565b60008a81526020818152604080832063ffffffff891684526001019091528120805484929061109090849060070b6126f0565b92506101000a8154816001600160401b03021916908360070b6001600160401b031602179055505b897f8f3dba1073f4b750e9392983cbbdd0d9b7e8380008bdda0e7683e3c3aa5c5189426040516110ea91815260200190565b60405180910390a250505050505050505050565b604051630b0ac0ab60e01b815273333333333333333333333333333333333333333390630b0ac0ab9061113990309086908690600401612512565b600060405180830381600087803b15801561115357600080fd5b505af1158015611167573d6000803e3d6000fd5b505050505050565b6001600160a01b0381166000908152600660209081526040808320815160a08101835281546001600160401b038082168352600160401b82048116958301869052600160801b9091041692810192909252600181015460608301526002015460ff16151560808201529015806111e6575080608001515b156111f45750600092915050565b606081015161120590610e1061271f565b4211156112155750600092915050565b6000611225308360000151611f3c565b905060008260400151826112399190612732565b905082602001516001600160401b0316816001600160401b031610159350505050919050565b600061126d82840184612759565b805160009081526020819052604090206002015490915060ff166112ca5760405162461bcd60e51b815260206004820152601460248201527315985d5b1d08191bd95cc81b9bdd08195e1a5cdd60621b6044820152606401610400565b60608101518151600090815260208181526040808320828601516001600160401b03908116855292529091205416101561133d5760405162461bcd60e51b8152602060048201526014602482015273496e73756666696369656e742062616c616e636560601b6044820152606401610400565b60405163020a49e360e51b81526001600160a01b037f000000000000000000000000000000000000000000000000000000000000000016906341493c60906113b0907e8484840d42565b9589f5c37253789d3731407964b1537fb5cf9d6064226b1c90879087908b908b906004016125e7565b60006040518083038186803b1580156113c857600080fd5b505afa1580156113dc573d6000803e3d6000fd5b50505060608201518251600090815260208181526040808320828701516001600160401b0390811685529252822080549394509261141c91859116612732565b82546101009290920a6001600160401b0381810219909316918316021790915560808301518351600090815260208181526040808320818801518616845290915281208054929450929091611473918591166127e5565b92506101000a8154816001600160401b0302191690836001600160401b0316021790555080600001517f8f3dba1073f4b750e9392983cbbdd0d9b7e8380008bdda0e7683e3c3aa5c5189426040516114cd91815260200190565b60405180910390a25050505050565b60008781526001602052604090205460ff16156115355760405162461bcd60e51b815260206004820152601760248201527610dbdb5b5a5d1b595b9d08185b1c9958591e481d5cd959604a1b6044820152606401610400565b604051630b0ac0ab60e01b815273333333333333333333333333333333333333333390630b0ac0ab906115709030908a908a90600401612512565b600060405180830381600087803b15801561158a57600080fd5b505af115801561159e573d6000803e3d6000fd5b5050506000888152600160208181526040808420805460ff19169093179092558281528183206001600160401b03808c168552915290822080548994509092916115ea918591166127e5565b82546001600160401b039182166101009390930a9283029190920219909116179055506000878152602081905260408120600201805460ff19166001908117909155600480548083018255928190527f8a35acfbc15ff81a39ae7d344fd709f28e8600b4aa8c65c6b64bfe7fe36bd19b909201899055905461166c9190612805565b600088815260056020908152604091829020929092555142815288917f02d0beb141922199e99106aa1e9e523add96e905baf9299bfb1042acd145bf5c910160405180910390a250505050505050565b60008581526001602052604090205460ff16156117155760405162461bcd60e51b815260206004820152601760248201527610dbdb5b5a5d1b595b9d08185b1c9958591e481d5cd959604a1b6044820152606401610400565b33600090815260066020908152604091829020825160a08101845281546001600160401b038082168352600160401b82048116948301859052600160801b9091041693810193909352600181015460608401526002015460ff16151560808301526117b75760405162461bcd60e51b8152602060048201526012602482015271139bc81c195b991a5b99c819195c1bdcda5d60721b6044820152606401610400565b8060800151156118095760405162461bcd60e51b815260206004820152601960248201527f4465706f73697420616c726561647920636f6d706c65746564000000000000006044820152606401610400565b606081015161181a90610e1061271f565b42111561185b5760405162461bcd60e51b815260206004820152600f60248201526e11195c1bdcda5d08195e1c1a5c9959608a1b6044820152606401610400565b600061186b308360000151611f3c565b9050600082604001518261187f9190612732565b905082602001516001600160401b0316816001600160401b031610156118e05760405162461bcd60e51b8152602060048201526016602482015275151bdad95b9cc81b9bdd081d1c985b9cd9995c9c995960521b6044820152606401610400565b60006118ee85870187612818565b805190915089146119375760405162461bcd60e51b8152602060048201526013602482015272086dedadad2e8dacadce840dad2e6dac2e8c6d606b1b6044820152606401610400565b60035460208201516001600160a01b0390811691161461198d5760405162461bcd60e51b8152602060048201526011602482015270496e76616c696420617574686f7269747960781b6044820152606401610400565b42816040015110156119d75760405162461bcd60e51b815260206004820152601360248201527210d95c9d1a599a58d85d1948195e1c1a5c9959606a1b6044820152606401610400565b60405163020a49e360e51b81526001600160a01b037f000000000000000000000000000000000000000000000000000000000000000016906341493c6090611a4a907eed1611619b8f2866de7be17d81a9d42a869b4c5959629708f125ae34a2f9ee908a908a908e908e906004016125e7565b60006040518083038186803b158015611a6257600080fd5b505afa158015611a76573d6000803e3d6000fd5b50503360009081526006602090815260408083206002018054600160ff1991821681179092558f855281845282852080549091169091179055888201518383528184208a516001600160401b039081168652935290832080549195509350611ae0918591166127e5565b82546001600160401b039182166101009390930a9283029190920219909116179055506000898152602081905260408120600201805460ff19166001908117909155600480548083018255928190527f8a35acfbc15ff81a39ae7d344fd709f28e8600b4aa8c65c6b64bfe7fe36bd19b9092018b90559054611b629190612805565b60008a81526005602090815260409182902092909255514281528a917f02d0beb141922199e99106aa1e9e523add96e905baf9299bfb1042acd145bf5c91015b60405180910390a2505050505050505050565b60048181548110611bc557600080fd5b600091825260209091200154905081565b60008881526002602052604090205460ff1615611c2e5760405162461bcd60e51b8152602060048201526016602482015275139d5b1b1a599a595c88185b1c9958591e481d5cd95960521b6044820152606401610400565b6000611c3c82840184612572565b9050611c46610ba5565b816020015114611c8e5760405162461bcd60e51b8152602060048201526013602482015272125b9d985b1a59081b595c9adb19481c9bdbdd606a1b6044820152606401610400565b856001600160401b031681604001511015611ceb5760405162461bcd60e51b815260206004820152601b60248201527f496e73756666696369656e742070726f76656e2062616c616e636500000000006044820152606401610400565b866001600160401b031681606001516001600160401b031614611d415760405162461bcd60e51b815260206004820152600e60248201526d082e6e6cae840dad2e6dac2e8c6d60931b6044820152606401610400565b60405163020a49e360e51b81526001600160a01b037f000000000000000000000000000000000000000000000000000000000000000016906341493c6090611db4907e9c22b4f95fb710070dc80cfce7526c4cc7780834ab328bd769ff58934e6d0590879087908b908b906004016125e7565b60006040518083038186803b158015611dcc57600080fd5b505afa158015611de0573d6000803e3d6000fd5b50505060008a81526002602052604090819020805460ff1916600117905551630b0ac0ab60e01b81527333333333333333333333333333333333333333339150630b0ac0ab90611e38908b908b908b90600401612512565b600060405180830381600087803b158015611e5257600080fd5b505af1158015611e66573d6000803e3d6000fd5b50505050887fcc9580996e4c53ac7e73439f181e208ab15831ea2d2429dd12ee742c1c475b6f42604051611ba291815260200190565b6003546001600160a01b03163314611ef25760405162461bcd60e51b81526020600482015260196024820152784f6e6c7920636f6d706c69616e636520617574686f7269747960381b6044820152606401610400565b600380546001600160a01b0319166001600160a01b0383169081179091556040517f829c4ef70a1fb0edb9daa0db5c77d61190e746db94bce7dc78fee99d04fb409990600090a250565b604080516001600160a01b03841660208201526001600160401b038316818301528151808203830181526060909101918290526000918290819061080190611f85908590612865565b600060405180830381855afa9150503d8060008114611fc0576040519150601f19603f3d011682016040523d82523d6000602084013e611fc5565b606091505b509150915081611fdb5760009350505050611ff9565b600081806020019051810190611ff19190612894565b519450505050505b92915050565b60006020828403121561201157600080fd5b5035919050565b6001600160401b038116811461202d57600080fd5b50565b803561203b81612018565b919050565b80356001600160a01b038116811461203b57600080fd5b60008060006060848603121561206c57600080fd5b833561207781612018565b9250602084013561208781612018565b915061209560408501612040565b90509250925092565b60008083601f8401126120b057600080fd5b5081356001600160401b038111156120c757600080fd5b6020830191508360208285010111156120df57600080fd5b9250929050565b8035801515811461203b57600080fd5b600080600080600080600080600060e08a8c03121561211457600080fd5b8935985061212460208b01612040565b975060408a013561213481612018565b965060608a013561214481612018565b955060808a01356001600160401b038082111561216057600080fd5b61216c8d838e0161209e565b909750955060a08c013591508082111561218557600080fd5b506121928c828d0161209e565b90945092506121a5905060c08b016120e6565b90509295985092959850929598565b600080604083850312156121c757600080fd5b82356121d281612018565b915060208301356121e281612018565b809150509250929050565b600080600080600080600080600060e08a8c03121561220b57600080fd5b8935985060208a01356001600160401b038082111561222957600080fd5b6122358d838e0161209e565b909a50985060408c013591508082111561224e57600080fd5b5061225b8c828d0161209e565b90975095505060608a013563ffffffff8116811461227857600080fd5b935061228660808b016120e6565b925060a08a013561229681612018565b91506121a560c08b01612030565b6000602082840312156122b657600080fd5b6122bf82612040565b9392505050565b600080600080604085870312156122dc57600080fd5b84356001600160401b03808211156122f357600080fd5b6122ff8883890161209e565b9096509450602087013591508082111561231857600080fd5b506123258782880161209e565b95989497509550505050565b600080600080600080600060a0888a03121561234c57600080fd5b87359650602088013561235e81612018565b9550604088013561236e81612018565b945060608801356001600160401b038082111561238a57600080fd5b6123968b838c0161209e565b909650945060808a01359150808211156123af57600080fd5b506123bc8a828b0161209e565b989b979a50959850939692959293505050565b6000806000806000606086880312156123e757600080fd5b8535945060208601356001600160401b038082111561240557600080fd5b61241189838a0161209e565b9096509450604088013591508082111561242a57600080fd5b506124378882890161209e565b969995985093965092949392505050565b60008060008060008060008060c0898b03121561246457600080fd5b8835975061247460208a01612040565b9650604089013561248481612018565b9550606089013561249481612018565b945060808901356001600160401b03808211156124b057600080fd5b6124bc8c838d0161209e565b909650945060a08b01359150808211156124d557600080fd5b506124e28b828c0161209e565b999c989b5096995094979396929594505050565b6000806040838503121561250957600080fd5b6121d283612040565b6001600160a01b039390931683526001600160401b03918216602084015216604082015260600190565b604051608081016001600160401b038111828210171561256c57634e487b7160e01b600052604160045260246000fd5b60405290565b60006080828403121561258457600080fd5b61258c61253c565b82358152602083013560208201526040830135604082015260608301356125b281612018565b60608201529392505050565b81835281816020850137506000828201602090810191909152601f909101601f19169091010190565b8581526060602082015260006126016060830186886125be565b82810360408401526126148185876125be565b98975050505050505050565b634e487b7160e01b600052603260045260246000fd5b634e487b7160e01b600052601160045260246000fd5b60006001820161265e5761265e612636565b5060010190565b60006040828403121561267757600080fd5b604051604081018181106001600160401b03821117156126a757634e487b7160e01b600052604160045260246000fd5b604052823581526020928301359281019290925250919050565b600781810b9083900b01677fffffffffffffff8113677fffffffffffffff1982121715611ff957611ff9612636565b600782810b9082900b03677fffffffffffffff198112677fffffffffffffff82131715611ff957611ff9612636565b80820180821115611ff957611ff9612636565b6001600160401b0382811682821603908082111561275257612752612636565b5092915050565b600060a0828403121561276b57600080fd5b60405160a081018181106001600160401b038211171561279b57634e487b7160e01b600052604160045260246000fd5b6040528235815260208301356127b081612018565b602082015260408301356127c381612018565b6040820152606083810135908201526080928301359281019290925250919050565b6001600160401b0381811683821601908082111561275257612752612636565b81810381811115611ff957611ff9612636565b60006080828403121561282a57600080fd5b61283261253c565b8235815261284260208401612040565b602082015260408301356040820152606083013560608201528091505092915050565b6000825160005b81811015612886576020818601810151858301520161286c565b506000920191825250919050565b6000606082840312156128a657600080fd5b604051606081018181106001600160401b03821117156128d657634e487b7160e01b600052604160045260246000fd5b60405282516128e481612018565b815260208301516128f481612018565b6020820152604083015161290781612018565b6040820152939250505056fece395e6ead50d4ec0bce014acc26dd95b62fc9d9c9083f2e08a2cda45c331cd8a26469706673582212201f81af71087f8dd7330c9ede96a7c2f1d343c7ecfee7fe94214ecf0dc87d00b664736f6c63430008130033",
  "linkReferences": {},
  "deployedLinkReferences": {}
}