{
  "_format": "hh-sol-artifact-1",
  "contractName": "InnocenceVerificationKeys",
  "sourceName": "contracts/InnocenceVerificationKeys.sol",
  "abi": [
    {
      "inputs": [],
      "name": "BALANCE_VKEY",
      "outputs": [
        {
          "internalType": "bytes32",
          "name": "",
          "type": "bytes32"
        }
      ],
      "stateMutability": "view",
      "type": "function"
    },
    {
      "inputs": [],
      "name": "COMPLIANCE_VKEY",
      "outputs": [
        {
          "internalType": "bytes32",
          "name": "",
          "type": "bytes32"
        }
      ],
      "stateMutability": "view",
      "type": "function"
    },
    {
      "inputs": [],
      "name": "OWNERSHIP_VKEY",
      "outputs": [
        {
          "internalType": "bytes32",
          "name": "",
          "type": "bytes32"
        }
      ],
      "stateMutability": "view",
      "type": "function"
    },
    {
      "inputs": [],
      "name": "TRADE_VKEY",
      "outputs": [
        {
          "internalType": "bytes32",
          "name": "",
          "type": "bytes32"
        }
      ],
      "stateMutability": "view",
      "type": "function"
    }
  ],
  "bytecode": "0x61013261003a600b82828239805160001a60731461002d57634e487b7160e01b600052600060045260246000fd5b30600052607381538281f3fe730000000000000000000000000000000000000000301460806040526004361060515760003560e01c806317c50ac5146056578063263ce78514608d578063c74778601460b2578063f989e7241460d7575b600080fd5b607b7eed1611619b8f2866de7be17d81a9d42a869b4c5959629708f125ae34a2f9ee81565b60405190815260200160405180910390f35b607b7e8484840d42565b9589f5c37253789d3731407964b1537fb5cf9d6064226b1c81565b607b7e6bf06179a19e1575731cbb10c5b9cc955cae6f0a5de98cf8baf3c7c416131a81565b607b7e9c22b4f95fb710070dc80cfce7526c4cc7780834ab328bd769ff58934e6d058156fea2646970667358221220429cb23d8de9fa904357103dcf7a24890a2ea05bcf1a1df1c59c61ad7254ac2364736f6c63430008130033",
  "linkReferences": {},
  "deployedLinkReferences": {}
}