{
  "_format": "hh-sol-artifact-1",
  "contractName": "InnocenceVerificationKeys",
  "sourceName": "contracts/InnocenceVerificationKeys.sol",
  "abi": [
    {
      "inputs": [],
      "name": "BALANCE_VKEY",
      "outputs": [
        {
          "internalType": "bytes32",
          "name": "",
          "type": "bytes32"
        }
      ],
      "stateMutability": "view",
      "type": "function"
    },
    {
      "inputs": [],
      "name": "COMPLIANCE_VKEY",
      "outputs": [
        {
          "internalType": "bytes32",
          "name": "",
          "type": "bytes32"
        }
      ],
      "stateMutability": "view",
      "type": "function"
    },
    {
      "inputs": [],
      "name": "INNOCENCE_VKEY",
      "outputs": [
        {
          "internalType": "bytes32",
          "name": "",
          "type": "bytes32"
        }
      ],
      "stateMutability": "view",
      "type": "function"
    },
    {
      "inputs": [],
      "name": "OWNERSHIP_VKEY",
      "outputs": [
        {
          "internalType": "bytes32",
          "name": "",
          "type": "bytes32"
        }
      ],
      "stateMutability": "view",
      "type": "function"
    },
    {
      "inputs": [],
      "name": "TRADE_VKEY",
      "outputs": [
        {
          "internalType": "bytes32",
          "name": "",
          "type": "bytes32"
        }
      ],
      "stateMutability": "view",
      "type": "function"
    }
  ],
  "bytecode": "0x61014e61003a600b82828239805160001a60731461002d57634e487b7160e01b600052600060045260246000fd5b30600052607381538281f3fe73000000000000000000000000000000000000000030146080604052600436106100615760003560e01c806317c50ac514610066578063263ce7851461009e57806332ab62a5146100c4578063c7477860146100cc578063f989e724146100f2575b600080fd5b61008c7eed1611619b8f2866de7be17d81a9d42a869b4c5959629708f125ae34a2f9ee81565b60405190815260200160405180910390f35b61008c7e8484840d42565b9589f5c37253789d3731407964b1537fb5cf9d6064226b1c81565b61008c600581565b61008c7e6bf06179a19e1575731cbb10c5b9cc955cae6f0a5de98cf8baf3c7c416131a81565b61008c7e9c22b4f95fb710070dc80cfce7526c4cc7780834ab328bd769ff58934e6d058156fea2646970667358221220064d503d91e01fa586a78e3c23a8f94a47167e0c79bf16d97a392089df1e96a864736f6c63430008140033",
  "linkReferences": {},
  "deployedLinkReferences": {}
}