{
  "_format": "hh-sol-artifact-1",
  "contractName": "HyperliquidPrivacySystemInnocence",
  "sourceName": "contracts/HyperliquidPrivacySystemInnocence.sol",
  "abi": [
    {
      "inputs": [
        {
          "internalType": "address",
          "name": "_sp1Verifier",
          "type": "address"
        },
        {
          "internalType": "address",
          "name": "_sanctionsOracle",
          "type": "address"
        }
      ],
      "stateMutability": "nonpayable",
      "type": "constructor"
    },
    {
      "anonymous": false,
      "inputs": [
        {
          "indexed": true,
          "internalType": "address",
          "name": "depositor",
          "type": "address"
        },
        {
          "indexed": false,
          "internalType": "uint256",
          "name": "expiryTime",
          "type": "uint256"
        }
      ],
      "name": "InnocenceProven",
      "type": "event"
    },
    {
      "anonymous": false,
      "inputs": [
        {
          "indexed": true,
          "internalType": "bytes32",
          "name": "commitment",
          "type": "bytes32"
        },
        {
          "indexed": true,
          "internalType": "address",
          "name": "depositor",
          "type": "address"
        },
        {
          "indexed": false,
          "internalType": "uint256",
          "name": "timestamp",
          "type": "uint256"
        }
      ],
      "name": "PrivateDeposit",
      "type": "event"
    },
    {
      "anonymous": false,
      "inputs": [
        {
          "indexed": true,
          "internalType": "bytes32",
          "name": "nullifier",
          "type": "bytes32"
        },
        {
          "indexed": false,
          "internalType": "address",
          "name": "recipient",
          "type": "address"
        },
        {
          "indexed": false,
          "internalType": "uint256",
          "name": "amount",
          "type": "uint256"
        },
        {
          "indexed": false,
          "internalType": "uint256",
          "name": "timestamp",
          "type": "uint256"
        }
      ],
      "name": "PrivateWithdraw",
      "type": "event"
    },
    {
      "anonymous": false,
      "inputs": [
        {
          "indexed": false,
          "internalType": "bytes32",
          "name": "newRoot",
          "type": "bytes32"
        }
      ],
      "name": "SanctionsRootUpdated",
      "type": "event"
    },
    {
      "inputs": [
        {
          "internalType": "bytes32",
          "name": "",
          "type": "bytes32"
        }
      ],
      "name": "commitments",
      "outputs": [
        {
          "internalType": "bool",
          "name": "",
          "type": "bool"
        }
      ],
      "stateMutability": "view",
      "type": "function"
    },
    {
      "inputs": [
        {
          "internalType": "bytes32",
          "name": "commitment",
          "type": "bytes32"
        }
      ],
      "name": "completeDeposit",
      "outputs": [],
      "stateMutability": "nonpayable",
      "type": "function"
    },
    {
      "inputs": [],
      "name": "currentSanctionsRoot",
      "outputs": [
        {
          "internalType": "bytes32",
          "name": "",
          "type": "bytes32"
        }
      ],
      "stateMutability": "view",
      "type": "function"
    },
    {
      "inputs": [
        {
          "internalType": "address",
          "name": "",
          "type": "address"
        }
      ],
      "name": "hasProvenInnocence",
      "outputs": [
        {
          "internalType": "bool",
          "name": "",
          "type": "bool"
        }
      ],
      "stateMutability": "view",
      "type": "function"
    },
    {
      "inputs": [
        {
          "internalType": "address",
          "name": "",
          "type": "address"
        }
      ],
      "name": "innocenceProofExpiry",
      "outputs": [
        {
          "internalType": "uint256",
          "name": "",
          "type": "uint256"
        }
      ],
      "stateMutability": "view",
      "type": "function"
    },
    {
      "inputs": [
        {
          "internalType": "address",
          "name": "user",
          "type": "address"
        }
      ],
      "name": "isInnocent",
      "outputs": [
        {
          "internalType": "bool",
          "name": "",
          "type": "bool"
        }
      ],
      "stateMutability": "view",
      "type": "function"
    },
    {
      "inputs": [
        {
          "internalType": "bytes32",
          "name": "",
          "type": "bytes32"
        }
      ],
      "name": "nullifiers",
      "outputs": [
        {
          "internalType": "bool",
          "name": "",
          "type": "bool"
        }
      ],
      "stateMutability": "view",
      "type": "function"
    },
    {
      "inputs": [
        {
          "internalType": "address",
          "name": "",
          "type": "address"
        }
      ],
      "name": "pendingDeposits",
      "outputs": [
        {
          "internalType": "uint64",
          "name": "token",
          "type": "uint64"
        },
        {
          "internalType": "uint256",
          "name": "amount",
          "type": "uint256"
        },
        {
          "internalType": "uint256",
          "name": "timestamp",
          "type": "uint256"
        },
        {
          "internalType": "bool",
          "name": "completed",
          "type": "bool"
        }
      ],
      "stateMutability": "view",
      "type": "function"
    },
    {
      "inputs": [
        {
          "internalType": "uint64",
          "name": "token",
          "type": "uint64"
        },
        {
          "internalType": "uint256",
          "name": "amount",
          "type": "uint256"
        }
      ],
      "name": "prepareDeposit",
      "outputs": [],
      "stateMutability": "payable",
      "type": "function"
    },
    {
      "inputs": [
        {
          "internalType": "bytes",
          "name": "innocenceProof",
          "type": "bytes"
        },
        {
          "internalType": "bytes",
          "name": "publicValues",
          "type": "bytes"
        }
      ],
      "name": "proveInnocence",
      "outputs": [],
      "stateMutability": "nonpayable",
      "type": "function"
    },
    {
      "inputs": [],
      "name": "sanctionsOracle",
      "outputs": [
        {
          "internalType": "address",
          "name": "",
          "type": "address"
        }
      ],
      "stateMutability": "view",
      "type": "function"
    },
    {
      "inputs": [],
      "name": "sp1Verifier",
      "outputs": [
        {
          "internalType": "contract ISP1Verifier",
          "name": "",
          "type": "address"
        }
      ],
      "stateMutability": "view",
      "type": "function"
    },
    {
      "inputs": [
        {
          "internalType": "uint64",
          "name": "",
          "type": "uint64"
        }
      ],
      "name": "tokenAddresses",
      "outputs": [
        {
          "internalType": "address",
          "name": "",
          "type": "address"
        }
      ],
      "stateMutability": "view",
      "type": "function"
    },
    {
      "inputs": [
        {
          "internalType": "bytes32",
          "name": "newRoot",
          "type": "bytes32"
        }
      ],
      "name": "updateSanctionsRoot",
      "outputs": [],
      "stateMutability": "nonpayable",
      "type": "function"
    },
    {
      "inputs": [
        {
          "internalType": "bytes32",
          "name": "nullifier",
          "type": "bytes32"
        },
        {
          "internalType": "address",
          "name": "recipient",
          "type": "address"
        },
        {
          "internalType": "uint64",
          "name": "token",
          "type": "uint64"
        },
        {
          "internalType": "uint256",
          "name": "amount",
          "type": "uint256"
        },
        {
          "internalType": "bytes",
          "name": "balanceProof",
          "type": "bytes"
        },
        {
          "internalType": "bytes",
          "name": "publicValues",
          "type": "bytes"
        }
      ],
      "name": "withdraw",
      "outputs": [],
      "stateMutability": "nonpayable",
      "type": "function"
    }
  ],
  "bytecode": "0x608060405234801561001057600080fd5b506040516112d73803806112d783398101604081905261002f916100af565b600080546001600160a01b03199081166001600160a01b03948516178255600180548216939094169290921790925590805260036020527f3617319a054d772f909f7c479a2cebe5066e836a939412e32403c99029b92eff805490911690556100e2565b80516001600160a01b03811681146100aa57600080fd5b919050565b600080604083850312156100c257600080fd5b6100cb83610093565b91506100d960208401610093565b90509250929050565b6111e6806100f16000396000f3fe6080604052600436106100e85760003560e01c80638c503dc41161008a578063eb3349b911610059578063eb3349b9146102bd578063f1f258fa14610338578063f382affa14610358578063ffc21d5e1461036b57600080fd5b80638c503dc41461023d578063929f9a381461025d578063a9a8a9f31461027d578063b3df4df91461029d57600080fd5b806347a591f8116100c657806347a591f81461018657806352a07fa3146101b3578063557c9d94146101eb578063839df9451461020d57600080fd5b806311bb2367146100ed5780632997e86b14610116578063400cee6a14610156575b600080fd5b3480156100f957600080fd5b5061010360025481565b6040519081526020015b60405180910390f35b34801561012257600080fd5b50610146610131366004610e2f565b60056020526000908152604090205460ff1681565b604051901515815260200161010d565b34801561016257600080fd5b50610146610171366004610e64565b60066020526000908152604090205460ff1681565b34801561019257600080fd5b506101036101a1366004610e64565b60076020526000908152604090205481565b3480156101bf57600080fd5b506000546101d3906001600160a01b031681565b6040516001600160a01b03909116815260200161010d565b3480156101f757600080fd5b5061020b610206366004610e2f565b6103a1565b005b34801561021957600080fd5b50610146610228366004610e2f565b60046020526000908152604090205460ff1681565b34801561024957600080fd5b5061020b610258366004610e2f565b610433565b34801561026957600080fd5b5061020b610278366004610ee5565b6105e1565b34801561028957600080fd5b50610146610298366004610e64565b6108c6565b3480156102a957600080fd5b506001546101d3906001600160a01b031681565b3480156102c957600080fd5b5061030c6102d8366004610e64565b60086020526000908152604090208054600182015460028301546003909301546001600160401b0390921692909160ff1684565b604080516001600160401b0390951685526020850193909352918301521515606082015260800161010d565b34801561034457600080fd5b5061020b610353366004610f88565b61090b565b61020b610366366004610ff3565b610aef565b34801561037757600080fd5b506101d361038636600461101d565b6003602052600090815260409020546001600160a01b031681565b6001546001600160a01b031633146103f85760405162461bcd60e51b81526020600482015260156024820152744f6e6c792073616e6374696f6e73206f7261636c6560581b60448201526064015b60405180910390fd5b60028190556040518181527f25e38f1df829c89e6ef4242381d4f689f9c00e11a6b28c36b3b2e2f42dbaf4a19060200160405180910390a150565b33600090815260086020908152604091829020825160808101845281546001600160401b0316815260018201549281019290925260028101549282018390526003015460ff1615156060820152906104c25760405162461bcd60e51b8152602060048201526012602482015271139bc81c195b991a5b99c819195c1bdcda5d60721b60448201526064016103ef565b8060600151156105145760405162461bcd60e51b815260206004820152601960248201527f4465706f73697420616c726561647920636f6d706c657465640000000000000060448201526064016103ef565b60008281526004602052604090205460ff16156105735760405162461bcd60e51b815260206004820152601760248201527f436f6d6d69746d656e7420616c7265616479207573656400000000000000000060448201526064016103ef565b60008281526004602090815260408083208054600160ff199182168117909255338086526008855294839020600301805490911690911790555142815284917f110db47da53602e5d9a844c42336284ebfe5e72ff8946669f8d913ca352e8799910160405180910390a35050565b60008881526005602052604090205460ff16156106395760405162461bcd60e51b8152602060048201526016602482015275139d5b1b1a599a595c88185b1c9958591e481d5cd95960521b60448201526064016103ef565b60006106478284018461106e565b9050858160400151101561069d5760405162461bcd60e51b815260206004820152601b60248201527f496e73756666696369656e742070726f76656e2062616c616e6365000000000060448201526064016103ef565b866001600160401b031681606001516001600160401b0316146106f35760405162461bcd60e51b815260206004820152600e60248201526d082e6e6cae840dad2e6dac2e8c6d60931b60448201526064016103ef565b60005460405163020a49e360e51b81526001600160a01b03909116906341493c609061074a907e9c22b4f95fb710070dc80cfce7526c4cc7780834ab328bd769ff58934e6d0590879087908b908b906004016110e1565b60006040518083038186803b15801561076257600080fd5b505afa158015610776573d6000803e3d6000fd5b50505060008a8152600560205260408120805460ff191660011790556001600160401b038916900390506107e0576040516001600160a01b0389169087156108fc029088906000818181858888f193505050501580156107da573d6000803e3d6000fd5b50610870565b6001600160401b0387166000908152600360205260409081902054905163a9059cbb60e01b81526001600160a01b038a81166004830152602482018990529091169063a9059cbb906044016020604051808303816000875af115801561084a573d6000803e3d6000fd5b505050506040513d601f19601f8201168201806040525081019061086e919061112b565b505b604080516001600160a01b038a16815260208101889052428183015290518a917fd072131301af0b66a2bc28404b16a352e954ca74baae3e1189bfa5ef332b3d02919081900360600190a2505050505050505050565b6001600160a01b03811660009081526006602052604081205460ff16801561090557506001600160a01b03821660009081526007602052604090205442105b92915050565b600061091982840184611148565b80519091506001600160a01b0316331461096c5760405162461bcd60e51b8152602060048201526014602482015273283937b7b3103737ba103337b91031b0b63632b960611b60448201526064016103ef565b6002548160200151146109c15760405162461bcd60e51b815260206004820152601760248201527f4f757464617465642073616e6374696f6e7320726f6f7400000000000000000060448201526064016103ef565b8060600151610a0a5760405162461bcd60e51b81526020600482015260156024820152741059191c995cdcc81a5cc81cd85b98dd1a5bdb9959605a1b60448201526064016103ef565b60005460405163020a49e360e51b81526001600160a01b03909116906341493c6090610a4390600590879087908b908b906004016110e1565b60006040518083038186803b158015610a5b57600080fd5b505afa158015610a6f573d6000803e3d6000fd5b5050336000908152600660205260409020805460ff1916600117905550610a9b90504262278d0061118f565b33600081815260076020526040908190208390555190917f1fa96beb8dddcb7d4484dd00c4059e872439f7a474a2ecf49c430fc6e86c9e1f91610ae091815260200190565b60405180910390a25050505050565b3360009081526006602052604090205460ff16610b4e5760405162461bcd60e51b815260206004820152601a60248201527f4d7573742070726f766520696e6e6f63656e636520666972737400000000000060448201526064016103ef565b336000908152600760205260409020544210610bac5760405162461bcd60e51b815260206004820152601760248201527f496e6e6f63656e63652070726f6f66206578706972656400000000000000000060448201526064016103ef565b3360009081526008602052604090206002015415610c0c5760405162461bcd60e51b815260206004820152601760248201527f4465706f73697420616c72656164792070656e64696e6700000000000000000060448201526064016103ef565b816001600160401b0316600003610c6857803414610c635760405162461bcd60e51b8152602060048201526014602482015273125b98dbdc9c9958dd0811551208185b5bdd5b9d60621b60448201526064016103ef565b610db8565b3415610cc05760405162461bcd60e51b815260206004820152602160248201527f446f6e27742073656e642045544820666f7220746f6b656e206465706f7369746044820152607360f81b60648201526084016103ef565b6001600160401b0382166000908152600360205260409020546001600160a01b0316610d245760405162461bcd60e51b8152602060048201526013602482015272151bdad95b881b9bdd081cdd5c1c1bdc9d1959606a1b60448201526064016103ef565b6001600160401b038216600090815260036020526040908190205490516323b872dd60e01b8152336004820152306024820152604481018390526001600160a01b03909116906323b872dd906064016020604051808303816000875af1158015610d92573d6000803e3d6000fd5b505050506040513d601f19601f82011682018060405250810190610db6919061112b565b505b604080516080810182526001600160401b0393841681526020808201938452428284019081526000606084018181523382526008909352939093209151825467ffffffffffffffff191695169490941781559151600183015551600282015590516003909101805460ff1916911515919091179055565b600060208284031215610e4157600080fd5b5035919050565b80356001600160a01b0381168114610e5f57600080fd5b919050565b600060208284031215610e7657600080fd5b610e7f82610e48565b9392505050565b80356001600160401b0381168114610e5f57600080fd5b60008083601f840112610eaf57600080fd5b5081356001600160401b03811115610ec657600080fd5b602083019150836020828501011115610ede57600080fd5b9250929050565b60008060008060008060008060c0898b031215610f0157600080fd5b88359750610f1160208a01610e48565b9650610f1f60408a01610e86565b95506060890135945060808901356001600160401b0380821115610f4257600080fd5b610f4e8c838d01610e9d565b909650945060a08b0135915080821115610f6757600080fd5b50610f748b828c01610e9d565b999c989b5096995094979396929594505050565b60008060008060408587031215610f9e57600080fd5b84356001600160401b0380821115610fb557600080fd5b610fc188838901610e9d565b90965094506020870135915080821115610fda57600080fd5b50610fe787828801610e9d565b95989497509550505050565b6000806040838503121561100657600080fd5b61100f83610e86565b946020939093013593505050565b60006020828403121561102f57600080fd5b610e7f82610e86565b604051608081016001600160401b038111828210171561106857634e487b7160e01b600052604160045260246000fd5b60405290565b60006080828403121561108057600080fd5b611088611038565b8235815260208301356020820152604083013560408201526110ac60608401610e86565b60608201529392505050565b81835281816020850137506000828201602090810191909152601f909101601f19169091010190565b8581526060602082015260006110fb6060830186886110b8565b828103604084015261110e8185876110b8565b98975050505050505050565b801515811461112857600080fd5b50565b60006020828403121561113d57600080fd5b8151610e7f8161111a565b60006080828403121561115a57600080fd5b611162611038565b61116b83610e48565b8152602083013560208201526040830135604082015260608301356110ac8161111a565b8082018082111561090557634e487b7160e01b600052601160045260246000fdfea2646970667358221220571b029820db4f82853f1728b72c83e82d31d3907721c2701f13f8c35318b55a64736f6c63430008140033",
  "linkReferences": {},
  "deployedLinkReferences": {}
}