{
  "_format": "hh-sol-artifact-1",
  "contractName": "HyperliquidPrivacySystemEVMWithRecovery",
  "sourceName": "contracts/HyperliquidPrivacySystemEVMWithRecovery.sol",
  "abi": [
    {
      "inputs": [
        {
          "internalType": "address",
          "name": "_sp1Verifier",
          "type": "address"
        },
        {
          "internalType": "address",
          "name": "_complianceAuthority",
          "type": "address"
        }
      ],
      "stateMutability": "nonpayable",
      "type": "constructor"
    },
    {
      "anonymous": false,
      "inputs": [
        {
          "indexed": true,
          "internalType": "address",
          "name": "recipient",
          "type": "address"
        },
        {
          "indexed": false,
          "internalType": "uint256",
          "name": "amount",
          "type": "uint256"
        },
        {
          "indexed": false,
          "internalType": "string",
          "name": "reason",
          "type": "string"
        }
      ],
      "name": "EmergencyWithdraw",
      "type": "event"
    },
    {
      "anonymous": false,
      "inputs": [
        {
          "indexed": true,
          "internalType": "bytes32",
          "name": "commitment",
          "type": "bytes32"
        },
        {
          "indexed": false,
          "internalType": "uint256",
          "name": "timestamp",
          "type": "uint256"
        }
      ],
      "name": "PrivateDeposit",
      "type": "event"
    },
    {
      "anonymous": false,
      "inputs": [
        {
          "indexed": true,
          "internalType": "bytes32",
          "name": "nullifier",
          "type": "bytes32"
        },
        {
          "indexed": false,
          "internalType": "uint256",
          "name": "timestamp",
          "type": "uint256"
        }
      ],
      "name": "PrivateWithdraw",
      "type": "event"
    },
    {
      "anonymous": false,
      "inputs": [
        {
          "indexed": true,
          "internalType": "uint64",
          "name": "tokenId",
          "type": "uint64"
        },
        {
          "indexed": false,
          "internalType": "address",
          "name": "tokenAddress",
          "type": "address"
        }
      ],
      "name": "TokenAdded",
      "type": "event"
    },
    {
      "stateMutability": "payable",
      "type": "fallback"
    },
    {
      "inputs": [
        {
          "internalType": "uint64",
          "name": "tokenId",
          "type": "uint64"
        },
        {
          "internalType": "address",
          "name": "tokenAddress",
          "type": "address"
        }
      ],
      "name": "addToken",
      "outputs": [],
      "stateMutability": "nonpayable",
      "type": "function"
    },
    {
      "inputs": [
        {
          "internalType": "address",
          "name": "user",
          "type": "address"
        }
      ],
      "name": "canCompleteDeposit",
      "outputs": [
        {
          "internalType": "bool",
          "name": "",
          "type": "bool"
        }
      ],
      "stateMutability": "view",
      "type": "function"
    },
    {
      "inputs": [
        {
          "internalType": "uint256",
          "name": "",
          "type": "uint256"
        }
      ],
      "name": "commitmentMerkleTree",
      "outputs": [
        {
          "internalType": "bytes32",
          "name": "",
          "type": "bytes32"
        }
      ],
      "stateMutability": "view",
      "type": "function"
    },
    {
      "inputs": [
        {
          "internalType": "bytes32",
          "name": "",
          "type": "bytes32"
        }
      ],
      "name": "commitments",
      "outputs": [
        {
          "internalType": "bool",
          "name": "",
          "type": "bool"
        }
      ],
      "stateMutability": "view",
      "type": "function"
    },
    {
      "inputs": [
        {
          "internalType": "bytes32",
          "name": "commitment",
          "type": "bytes32"
        },
        {
          "internalType": "bytes",
          "name": "complianceProof",
          "type": "bytes"
        },
        {
          "internalType": "bytes",
          "name": "publicValues",
          "type": "bytes"
        }
      ],
      "name": "completeDeposit",
      "outputs": [],
      "stateMutability": "nonpayable",
      "type": "function"
    },
    {
      "inputs": [],
      "name": "complianceAuthority",
      "outputs": [
        {
          "internalType": "address",
          "name": "",
          "type": "address"
        }
      ],
      "stateMutability": "view",
      "type": "function"
    },
    {
      "inputs": [
        {
          "internalType": "address",
          "name": "recipient",
          "type": "address"
        },
        {
          "internalType": "uint64",
          "name": "token",
          "type": "uint64"
        },
        {
          "internalType": "uint256",
          "name": "amount",
          "type": "uint256"
        },
        {
          "internalType": "string",
          "name": "reason",
          "type": "string"
        }
      ],
      "name": "emergencyWithdraw",
      "outputs": [],
      "stateMutability": "nonpayable",
      "type": "function"
    },
    {
      "inputs": [
        {
          "internalType": "address",
          "name": "recipient",
          "type": "address"
        },
        {
          "internalType": "string",
          "name": "reason",
          "type": "string"
        }
      ],
      "name": "emergencyWithdrawAll",
      "outputs": [],
      "stateMutability": "nonpayable",
      "type": "function"
    },
    {
      "inputs": [],
      "name": "getMerkleRoot",
      "outputs": [
        {
          "internalType": "bytes32",
          "name": "",
          "type": "bytes32"
        }
      ],
      "stateMutability": "view",
      "type": "function"
    },
    {
      "inputs": [
        {
          "internalType": "address",
          "name": "user",
          "type": "address"
        }
      ],
      "name": "getPendingDeposit",
      "outputs": [
        {
          "components": [
            {
              "internalType": "uint64",
              "name": "token",
              "type": "uint64"
            },
            {
              "internalType": "uint256",
              "name": "amount",
              "type": "uint256"
            },
            {
              "internalType": "uint256",
              "name": "contractBalanceBefore",
              "type": "uint256"
            },
            {
              "internalType": "uint256",
              "name": "timestamp",
              "type": "uint256"
            },
            {
              "internalType": "bool",
              "name": "completed",
              "type": "bool"
            }
          ],
          "internalType": "struct HyperliquidPrivacySystemEVMWithRecovery.PendingDeposit",
          "name": "",
          "type": "tuple"
        }
      ],
      "stateMutability": "view",
      "type": "function"
    },
    {
      "inputs": [
        {
          "internalType": "bytes32",
          "name": "",
          "type": "bytes32"
        }
      ],
      "name": "nullifiers",
      "outputs": [
        {
          "internalType": "bool",
          "name": "",
          "type": "bool"
        }
      ],
      "stateMutability": "view",
      "type": "function"
    },
    {
      "inputs": [
        {
          "internalType": "address",
          "name": "",
          "type": "address"
        }
      ],
      "name": "pendingDeposits",
      "outputs": [
        {
          "internalType": "uint64",
          "name": "token",
          "type": "uint64"
        },
        {
          "internalType": "uint256",
          "name": "amount",
          "type": "uint256"
        },
        {
          "internalType": "uint256",
          "name": "contractBalanceBefore",
          "type": "uint256"
        },
        {
          "internalType": "uint256",
          "name": "timestamp",
          "type": "uint256"
        },
        {
          "internalType": "bool",
          "name": "completed",
          "type": "bool"
        }
      ],
      "stateMutability": "view",
      "type": "function"
    },
    {
      "inputs": [
        {
          "internalType": "uint64",
          "name": "token",
          "type": "uint64"
        },
        {
          "internalType": "uint256",
          "name": "amount",
          "type": "uint256"
        }
      ],
      "name": "prepareDeposit",
      "outputs": [],
      "stateMutability": "nonpayable",
      "type": "function"
    },
    {
      "inputs": [],
      "name": "sp1Verifier",
      "outputs": [
        {
          "internalType": "contract ISP1Verifier",
          "name": "",
          "type": "address"
        }
      ],
      "stateMutability": "view",
      "type": "function"
    },
    {
      "inputs": [
        {
          "internalType": "uint64",
          "name": "",
          "type": "uint64"
        }
      ],
      "name": "tokenAddresses",
      "outputs": [
        {
          "internalType": "address",
          "name": "",
          "type": "address"
        }
      ],
      "stateMutability": "view",
      "type": "function"
    },
    {
      "inputs": [
        {
          "internalType": "bytes32",
          "name": "nullifier",
          "type": "bytes32"
        },
        {
          "internalType": "address",
          "name": "recipient",
          "type": "address"
        },
        {
          "internalType": "uint64",
          "name": "token",
          "type": "uint64"
        },
        {
          "internalType": "uint256",
          "name": "amount",
          "type": "uint256"
        },
        {
          "internalType": "bytes",
          "name": "balanceProof",
          "type": "bytes"
        },
        {
          "internalType": "bytes",
          "name": "publicValues",
          "type": "bytes"
        }
      ],
      "name": "withdraw",
      "outputs": [],
      "stateMutability": "nonpayable",
      "type": "function"
    },
    {
      "stateMutability": "payable",
      "type": "receive"
    }
  ],
  "bytecode": "0x60806040523480156200001157600080fd5b5060405162001972380380620019728339810160408190526200003491620000b6565b600080546001600160a01b03199081166001600160a01b03948516178255600180548216939094169290921790925590805260026020527fac33ff75c19e70fe83507db0d683fd3465c996598dc972688b7ace676c89077b80549091169055620000ee565b80516001600160a01b0381168114620000b157600080fd5b919050565b60008060408385031215620000ca57600080fd5b620000d58362000099565b9150620000e56020840162000099565b90509250929050565b61187480620000fe6000396000f3fe6080604052600436106100eb5760003560e01c806398ffd55011610084578063d7a73abd11610056578063d7a73abd14610311578063eb3349b914610331578063f382affa146103bc578063ffc21d5e146103dc57005b806398ffd55014610244578063b70773c014610264578063d43ffa2f146102d1578063d4a82dc5146102f157005b806352a07fa3116100bd57806352a07fa3146101b4578063839df945146101d4578063929f9a381461020457806394137c901461022457005b806310c9a543146100f45780632997e86b14610114578063309f477a14610159578063495906571461019157005b366100f257005b005b34801561010057600080fd5b506100f261010f36600461133a565b610412565b34801561012057600080fd5b5061014461012f36600461138c565b60046020526000908152604090205460ff1681565b60405190151581526020015b60405180910390f35b34801561016557600080fd5b50600154610179906001600160a01b031681565b6040516001600160a01b039091168152602001610150565b34801561019d57600080fd5b506101a6610554565b604051908152602001610150565b3480156101c057600080fd5b50600054610179906001600160a01b031681565b3480156101e057600080fd5b506101446101ef36600461138c565b60036020526000908152604090205460ff1681565b34801561021057600080fd5b506100f261021f3660046113bc565b610601565b34801561023057600080fd5b5061014461023f36600461145f565b6108a5565b34801561025057600080fd5b506100f261025f366004611481565b6108b6565b34801561027057600080fd5b5061028461027f36600461145f565b61094c565b6040516101509190600060a0820190506001600160401b03835116825260208301516020830152604083015160408301526060830151606083015260808301511515608083015292915050565b3480156102dd57600080fd5b506100f26102ec3660046114b4565b6109ef565b3480156102fd57600080fd5b506101a661030c36600461138c565b610cc0565b34801561031d57600080fd5b506100f261032c36600461152d565b610ce1565b34801561033d57600080fd5b5061038861034c36600461145f565b600660205260009081526040902080546001820154600283015460038401546004909401546001600160401b0390931693919290919060ff1685565b604080516001600160401b03909616865260208601949094529284019190915260608301521515608082015260a001610150565b3480156103c857600080fd5b506100f26103d736600461158a565b610df6565b3480156103e857600080fd5b506101796103f73660046115b4565b6002602052600090815260409020546001600160a01b031681565b6001546001600160a01b031633146104455760405162461bcd60e51b815260040161043c906115cf565b60405180910390fd5b6001600160a01b03831661048f5760405162461bcd60e51b8152602060048201526011602482015270125b9d985b1a59081c9958da5c1a595b9d607a1b604482015260640161043c565b47806104d25760405162461bcd60e51b81526020600482015260126024820152714e6f2045544820746f20776974686472617760701b604482015260640161043c565b6040516001600160a01b0385169082156108fc029083906000818181858888f19350505050158015610508573d6000803e3d6000fd5b50836001600160a01b03167fef54a8695b775b4a66c170f0254145106f13fc15a44c91c05f42bc59982de99d8285856040516105469392919061162f565b60405180910390a250505050565b60055460009081036105665750600090565b6000600560008154811061057c5761057c611649565b600091825260209091200154905060015b6005548110156105fb5781600582815481106105ab576105ab611649565b90600052602060002001546040516020016105d0929190918252602082015260400190565b60405160208183030381529060405280519060200120915080806105f390611675565b91505061058d565b50919050565b60008881526004602052604090205460ff16156106595760405162461bcd60e51b8152602060048201526016602482015275139d5b1b1a599a595c88185b1c9958591e481d5cd95960521b604482015260640161043c565b6001600160401b0386166000908152600260205260409020546001600160a01b031615158061068f57506001600160401b038616155b6106ab5760405162461bcd60e51b815260040161043c9061168e565b60006106b9828401846116f1565b90506106c3610554565b81602001511461070b5760405162461bcd60e51b8152602060048201526013602482015272125b9d985b1a59081b595c9adb19481c9bdbdd606a1b604482015260640161043c565b858160400151101561075f5760405162461bcd60e51b815260206004820152601b60248201527f496e73756666696369656e742070726f76656e2062616c616e63650000000000604482015260640161043c565b866001600160401b031681606001516001600160401b0316146107b55760405162461bcd60e51b815260206004820152600e60248201526d082e6e6cae840dad2e6dac2e8c6d60931b604482015260640161043c565b60005460405163020a49e360e51b81526001600160a01b03909116906341493c609061080c907e9c22b4f95fb710070dc80cfce7526c4cc7780834ab328bd769ff58934e6d0590879087908b908b9060040161173b565b60006040518083038186803b15801561082457600080fd5b505afa158015610838573d6000803e3d6000fd5b50505060008a8152600460205260409020805460ff1916600117905550610860878988610f23565b887fcc9580996e4c53ac7e73439f181e208ab15831ea2d2429dd12ee742c1c475b6f4260405161089291815260200190565b60405180910390a2505050505050505050565b60006108b0826110ea565b92915050565b6001546001600160a01b031633146108e05760405162461bcd60e51b815260040161043c906115cf565b6001600160401b03821660008181526002602090815260409182902080546001600160a01b0319166001600160a01b03861690811790915591519182527f4c033c7cff3d5550ac33240c2f1c3e0956d087b14191141d9eb5ff40beb54722910160405180910390a25050565b6109896040518060a0016040528060006001600160401b031681526020016000815260200160008152602001600081526020016000151581525090565b506001600160a01b0316600090815260066020908152604091829020825160a08101845281546001600160401b031681526001820154928101929092526002810154928201929092526003820154606082015260049091015460ff161515608082015290565b6109f8336110ea565b610a445760405162461bcd60e51b815260206004820152601860248201527f4e6f2076616c69642070656e64696e67206465706f7369740000000000000000604482015260640161043c565b60008581526003602052604090205460ff1615610aa35760405162461bcd60e51b815260206004820152601760248201527f436f6d6d69746d656e7420616c72656164792075736564000000000000000000604482015260640161043c565b6000610ab182840184611774565b80519091508614610afa5760405162461bcd60e51b8152602060048201526013602482015272086dedadad2e8dacadce840dad2e6dac2e8c6d606b1b604482015260640161043c565b60015460208201516001600160a01b03908116911614610b505760405162461bcd60e51b8152602060048201526011602482015270496e76616c696420617574686f7269747960781b604482015260640161043c565b42816040015111610b995760405162461bcd60e51b815260206004820152601360248201527210d95c9d1a599a58d85d1948195e1c1a5c9959606a1b604482015260640161043c565b60005460405163020a49e360e51b81526001600160a01b03909116906341493c6090610bf0907eed1611619b8f2866de7be17d81a9d42a869b4c5959629708f125ae34a2f9ee90879087908b908b9060040161173b565b60006040518083038186803b158015610c0857600080fd5b505afa158015610c1c573d6000803e3d6000fd5b50505060008781526003602090815260408083208054600160ff199182168117909255600580548084019091557f036b6384b5eca791c62761152d0c79bb0604c104a5fb6f4eb0703f3154bb3db0018c9055338552600684529382902060040180549094161790925590514281528892507f02d0beb141922199e99106aa1e9e523add96e905baf9299bfb1042acd145bf5c910160405180910390a2505050505050565b60058181548110610cd057600080fd5b600091825260209091200154905081565b6001546001600160a01b03163314610d0b5760405162461bcd60e51b815260040161043c906115cf565b6001600160a01b038516610d555760405162461bcd60e51b8152602060048201526011602482015270125b9d985b1a59081c9958da5c1a595b9d607a1b604482015260640161043c565b60008311610d9f5760405162461bcd60e51b8152602060048201526017602482015276416d6f756e74206d75737420626520706f73697469766560481b604482015260640161043c565b610daa848685610f23565b846001600160a01b03167fef54a8695b775b4a66c170f0254145106f13fc15a44c91c05f42bc59982de99d848484604051610de79392919061162f565b60405180910390a25050505050565b6001600160401b0382166000908152600260205260409020546001600160a01b0316151580610e2c57506001600160401b038216155b610e485760405162461bcd60e51b815260040161043c9061168e565b60008111610e925760405162461bcd60e51b8152602060048201526017602482015276416d6f756e74206d75737420626520706f73697469766560481b604482015260640161043c565b6000610e9d836111ba565b6040805160a0810182526001600160401b039586168152602080820195865281830193845242606083019081526000608084018181523382526006909352939093209151825467ffffffffffffffff1916971696909617815593516001850155905160028401555160038301555090516004909101805460ff1916911515919091179055565b826001600160401b0316600003610fc05780471015610f845760405162461bcd60e51b815260206004820152601860248201527f496e73756666696369656e74204554482062616c616e63650000000000000000604482015260640161043c565b6040516001600160a01b0383169082156108fc029083906000818181858888f19350505050158015610fba573d6000803e3d6000fd5b50505050565b6001600160401b0383166000908152600260205260409020546001600160a01b031680610fff5760405162461bcd60e51b815260040161043c9061168e565b6040516001600160a01b038481166024830152604482018490526000919083169060640160408051601f198184030181529181526020820180516001600160e01b031663a9059cbb60e01b1790525161105891906117c1565b6000604051808303816000865af19150503d8060008114611095576040519150601f19603f3d011682016040523d82523d6000602084013e61109a565b606091505b50509050806110e35760405162461bcd60e51b8152602060048201526015602482015274151bdad95b881d1c985b9cd9995c8819985a5b1959605a1b604482015260640161043c565b5050505050565b6001600160a01b0381166000908152600660209081526040808320815160a08101835281546001600160401b03168152600182015493810193909352600281015491830191909152600381015460608301526004015460ff161515608082018190528061115957506060810151155b156111675750600092915050565b600061117682600001516111ba565b602083015160408401519192509060009061119190846117f0565b905060006111a0606484611803565b90506111ac81846117f0565b909110159695505050505050565b6000816001600160401b03166000036111d4575047919050565b6001600160401b0382166000908152600260205260409020546001600160a01b0316806112045750600092915050565b60405130602482015260009081906001600160a01b0384169060440160408051601f198184030181529181526020820180516001600160e01b03166370a0823160e01b1790525161125591906117c1565b600060405180830381855afa9150503d8060008114611290576040519150601f19603f3d011682016040523d82523d6000602084013e611295565b606091505b50915091508180156112a957506020815110155b156112cb57808060200190518101906112c29190611825565b95945050505050565b506000949350505050565b919050565b80356001600160a01b03811681146112d657600080fd5b60008083601f84011261130457600080fd5b5081356001600160401b0381111561131b57600080fd5b60208301915083602082850101111561133357600080fd5b9250929050565b60008060006040848603121561134f57600080fd5b611358846112db565b925060208401356001600160401b0381111561137357600080fd5b61137f868287016112f2565b9497909650939450505050565b60006020828403121561139e57600080fd5b5035919050565b80356001600160401b03811681146112d657600080fd5b60008060008060008060008060c0898b0312156113d857600080fd5b883597506113e860208a016112db565b96506113f660408a016113a5565b95506060890135945060808901356001600160401b038082111561141957600080fd5b6114258c838d016112f2565b909650945060a08b013591508082111561143e57600080fd5b5061144b8b828c016112f2565b999c989b5096995094979396929594505050565b60006020828403121561147157600080fd5b61147a826112db565b9392505050565b6000806040838503121561149457600080fd5b61149d836113a5565b91506114ab602084016112db565b90509250929050565b6000806000806000606086880312156114cc57600080fd5b8535945060208601356001600160401b03808211156114ea57600080fd5b6114f689838a016112f2565b9096509450604088013591508082111561150f57600080fd5b5061151c888289016112f2565b969995985093965092949392505050565b60008060008060006080868803121561154557600080fd5b61154e866112db565b945061155c602087016113a5565b93506040860135925060608601356001600160401b0381111561157e57600080fd5b61151c888289016112f2565b6000806040838503121561159d57600080fd5b6115a6836113a5565b946020939093013593505050565b6000602082840312156115c657600080fd5b61147a826113a5565b60208082526019908201527f4f6e6c7920636f6d706c69616e636520617574686f7269747900000000000000604082015260600190565b81835281816020850137506000828201602090810191909152601f909101601f19169091010190565b8381526040602082015260006112c2604083018486611606565b634e487b7160e01b600052603260045260246000fd5b634e487b7160e01b600052601160045260246000fd5b6000600182016116875761168761165f565b5060010190565b602080825260139082015272151bdad95b881b9bdd081cdd5c1c1bdc9d1959606a1b604082015260600190565b604051608081016001600160401b03811182821017156116eb57634e487b7160e01b600052604160045260246000fd5b60405290565b60006080828403121561170357600080fd5b61170b6116bb565b82358152602083013560208201526040830135604082015261172f606084016113a5565b60608201529392505050565b858152606060208201526000611755606083018688611606565b8281036040840152611768818587611606565b98975050505050505050565b60006080828403121561178657600080fd5b61178e6116bb565b8235815261179e602084016112db565b602082015260408301356040820152606083013560608201528091505092915050565b6000825160005b818110156117e257602081860181015185830152016117c8565b506000920191825250919050565b818103818111156108b0576108b061165f565b60008261182057634e487b7160e01b600052601260045260246000fd5b500490565b60006020828403121561183757600080fd5b505191905056fea2646970667358221220a1bdd8db98804d9de3b1da4aca21a17d7e23bb513e66805f1758a44310a2111c64736f6c63430008140033",
  "linkReferences": {},
  "deployedLinkReferences": {}
}