{
  "_format": "hh-sol-artifact-1",
  "contractName": "MockHyperCoreRead",
  "sourceName": "contracts/MockHyperCore.sol",
  "abi": [
    {
      "inputs": [],
      "stateMutability": "nonpayable",
      "type": "constructor"
    },
    {
      "inputs": [
        {
          "internalType": "uint256",
          "name": "asset",
          "type": "uint256"
        }
      ],
      "name": "getOraclePrice",
      "outputs": [
        {
          "internalType": "uint256",
          "name": "",
          "type": "uint256"
        }
      ],
      "stateMutability": "view",
      "type": "function"
    },
    {
      "inputs": [
        {
          "internalType": "address",
          "name": "user",
          "type": "address"
        },
        {
          "internalType": "uint256",
          "name": "asset",
          "type": "uint256"
        }
      ],
      "name": "getPerpsPosition",
      "outputs": [
        {
          "internalType": "int256",
          "name": "size",
          "type": "int256"
        },
        {
          "internalType": "uint256",
          "name": "entryPrice",
          "type": "uint256"
        }
      ],
      "stateMutability": "pure",
      "type": "function"
    },
    {
      "inputs": [
        {
          "internalType": "address",
          "name": "user",
          "type": "address"
        },
        {
          "internalType": "uint256",
          "name": "asset",
          "type": "uint256"
        }
      ],
      "name": "getSpotBalance",
      "outputs": [
        {
          "internalType": "uint256",
          "name": "",
          "type": "uint256"
        }
      ],
      "stateMutability": "pure",
      "type": "function"
    },
    {
      "inputs": [
        {
          "internalType": "address",
          "name": "vault",
          "type": "address"
        }
      ],
      "name": "getVaultEquity",
      "outputs": [
        {
          "internalType": "uint256",
          "name": "",
          "type": "uint256"
        }
      ],
      "stateMutability": "pure",
      "type": "function"
    },
    {
      "inputs": [
        {
          "internalType": "uint256",
          "name": "",
          "type": "uint256"
        }
      ],
      "name": "prices",
      "outputs": [
        {
          "internalType": "uint256",
          "name": "",
          "type": "uint256"
        }
      ],
      "stateMutability": "view",
      "type": "function"
    }
  ],
  "bytecode": "0x608060405234801561001057600080fd5b506000602081905265048c273950007fada5013122d395ba3c54772283fb069b10426056ef8ca54750cb9bb552a59e7d556445d964b8007fabbb5caa7dda850e60932de0934eb1f9d0f59695050f761dc64e443e5030a56955600390526402540be4007f101e368776582e57ab3d116ffe2517c0a585cd5b23174b01e275c2d8329c3d83556101e3806100a46000396000f3fe608060405234801561001057600080fd5b50600436106100575760003560e01c8063509758951461005c5780637687a4b01461008557806384a07dcb1461009957806391cc833c146100ac578063bc31c1c1146100d8575b600080fd5b61007261006a366004610148565b600092915050565b6040519081526020015b60405180910390f35b610072610093366004610172565b50600090565b6100726100a7366004610194565b6100f8565b6100c36100ba366004610148565b50600091829150565b6040805192835260208301919091520161007c565b6100726100e6366004610194565b60006020819052908152604090205481565b600081815260208190526040812054610116576402540be400610126565b6000828152602081905260409020545b92915050565b80356001600160a01b038116811461014357600080fd5b919050565b6000806040838503121561015b57600080fd5b6101648361012c565b946020939093013593505050565b60006020828403121561018457600080fd5b61018d8261012c565b9392505050565b6000602082840312156101a657600080fd5b503591905056fea264697066735822122047fca48872efcc9d0cb1dc3fce1a5f440cd9a1375686d6c63225fc23ebed6b6b64736f6c63430008130033",
  "linkReferences": {},
  "deployedLinkReferences": {}
}