{
  "_format": "hh-sol-artifact-1",
  "contractName": "HyperliquidTransferHelper",
  "sourceName": "contracts/HyperliquidTransferHelper.sol",
  "abi": [
    {
      "anonymous": false,
      "inputs": [
        {
          "indexed": true,
          "internalType": "address",
          "name": "from",
          "type": "address"
        },
        {
          "indexed": true,
          "internalType": "address",
          "name": "to",
          "type": "address"
        },
        {
          "indexed": false,
          "internalType": "uint64",
          "name": "token",
          "type": "uint64"
        },
        {
          "indexed": false,
          "internalType": "uint64",
          "name": "amount",
          "type": "uint64"
        }
      ],
      "name": "TokensTransferred",
      "type": "event"
    },
    {
      "inputs": [
        {
          "internalType": "address[]",
          "name": "destinations",
          "type": "address[]"
        },
        {
          "internalType": "uint64[]",
          "name": "tokens",
          "type": "uint64[]"
        },
        {
          "internalType": "uint64[]",
          "name": "amounts",
          "type": "uint64[]"
        }
      ],
      "name": "batchTransfer",
      "outputs": [],
      "stateMutability": "nonpayable",
      "type": "function"
    },
    {
      "inputs": [
        {
          "internalType": "address",
          "name": "destination",
          "type": "address"
        },
        {
          "internalType": "uint64",
          "name": "token",
          "type": "uint64"
        },
        {
          "internalType": "uint64",
          "name": "amount",
          "type": "uint64"
        }
      ],
      "name": "transferTokens",
      "outputs": [],
      "stateMutability": "nonpayable",
      "type": "function"
    }
  ],
  "bytecode": "0x608060405234801561001057600080fd5b5061058a806100206000396000f3fe608060405234801561001057600080fd5b50600436106100365760003560e01c806364ac10401461003b578063f7aa387b14610050575b600080fd5b61004e6100493660046103b1565b610063565b005b61004e61005e366004610440565b61013e565b604051630b0ac0ab60e01b81526001600160a01b038416600482015267ffffffffffffffff80841660248301528216604482015273333333333333333333333333333333333333333390630b0ac0ab90606401600060405180830381600087803b1580156100d057600080fd5b505af11580156100e4573d6000803e3d6000fd5b50506040805167ffffffffffffffff8087168252851660208201526001600160a01b03871693503392507f9b1f84f26dd3f3774d2a187a8e85be9bcf086253f669b744797ad02f851ae2d6910160405180910390a3505050565b848314801561014c57508281145b6101945760405162461bcd60e51b8152602060048201526015602482015274082e4e4c2f240d8cadccee8d040dad2e6dac2e8c6d605b1b604482015260640160405180910390fd5b60005b8581101561037457733333333333333333333333333333333333333333630b0ac0ab8888848181106101cb576101cb6104da565b90506020020160208101906101e091906104f0565b8787858181106101f2576101f26104da565b90506020020160208101906102079190610512565b868686818110610219576102196104da565b905060200201602081019061022e9190610512565b6040516001600160e01b031960e086901b1681526001600160a01b03909316600484015267ffffffffffffffff9182166024840152166044820152606401600060405180830381600087803b15801561028657600080fd5b505af115801561029a573d6000803e3d6000fd5b505050508686828181106102b0576102b06104da565b90506020020160208101906102c591906104f0565b6001600160a01b0316337f9b1f84f26dd3f3774d2a187a8e85be9bcf086253f669b744797ad02f851ae2d6878785818110610302576103026104da565b90506020020160208101906103179190610512565b868686818110610329576103296104da565b905060200201602081019061033e9190610512565b6040805167ffffffffffffffff93841681529290911660208301520160405180910390a38061036c8161052d565b915050610197565b50505050505050565b80356001600160a01b038116811461039457600080fd5b919050565b803567ffffffffffffffff8116811461039457600080fd5b6000806000606084860312156103c657600080fd5b6103cf8461037d565b92506103dd60208501610399565b91506103eb60408501610399565b90509250925092565b60008083601f84011261040657600080fd5b50813567ffffffffffffffff81111561041e57600080fd5b6020830191508360208260051b850101111561043957600080fd5b9250929050565b6000806000806000806060878903121561045957600080fd5b863567ffffffffffffffff8082111561047157600080fd5b61047d8a838b016103f4565b9098509650602089013591508082111561049657600080fd5b6104a28a838b016103f4565b909650945060408901359150808211156104bb57600080fd5b506104c889828a016103f4565b979a9699509497509295939492505050565b634e487b7160e01b600052603260045260246000fd5b60006020828403121561050257600080fd5b61050b8261037d565b9392505050565b60006020828403121561052457600080fd5b61050b82610399565b60006001820161054d57634e487b7160e01b600052601160045260246000fd5b506001019056fea2646970667358221220bb261da3dbd131c5da16ed428cc6f5c23ac8e68b375b46983b8d5ef468a930a064736f6c63430008130033",
  "linkReferences": {},
  "deployedLinkReferences": {}
}