{
  "_format": "hh-sol-artifact-1",
  "contractName": "HyperliquidPrivacySystemV3",
  "sourceName": "contracts/HyperliquidPrivacySystemV3.sol",
  "abi": [
    {
      "inputs": [
        {
          "internalType": "address",
          "name": "_complianceAuthority",
          "type": "address"
        }
      ],
      "stateMutability": "nonpayable",
      "type": "constructor"
    },
    {
      "anonymous": false,
      "inputs": [
        {
          "indexed": true,
          "internalType": "address",
          "name": "user",
          "type": "address"
        },
        {
          "indexed": false,
          "internalType": "bool",
          "name": "isValid",
          "type": "bool"
        }
      ],
      "name": "CertificateValidated",
      "type": "event"
    },
    {
      "anonymous": false,
      "inputs": [
        {
          "indexed": true,
          "internalType": "address",
          "name": "newAuthority",
          "type": "address"
        }
      ],
      "name": "ComplianceAuthorityUpdated",
      "type": "event"
    },
    {
      "anonymous": false,
      "inputs": [
        {
          "indexed": true,
          "internalType": "bytes32",
          "name": "commitment",
          "type": "bytes32"
        },
        {
          "indexed": false,
          "internalType": "uint256",
          "name": "timestamp",
          "type": "uint256"
        }
      ],
      "name": "PrivateDeposit",
      "type": "event"
    },
    {
      "anonymous": false,
      "inputs": [
        {
          "indexed": true,
          "internalType": "bytes32",
          "name": "commitment",
          "type": "bytes32"
        },
        {
          "indexed": false,
          "internalType": "uint256",
          "name": "timestamp",
          "type": "uint256"
        }
      ],
      "name": "PrivateTrade",
      "type": "event"
    },
    {
      "anonymous": false,
      "inputs": [
        {
          "indexed": true,
          "internalType": "bytes32",
          "name": "nullifier",
          "type": "bytes32"
        },
        {
          "indexed": false,
          "internalType": "uint256",
          "name": "timestamp",
          "type": "uint256"
        }
      ],
      "name": "PrivateWithdraw",
      "type": "event"
    },
    {
      "inputs": [
        {
          "internalType": "bytes32",
          "name": "",
          "type": "bytes32"
        }
      ],
      "name": "commitmentIndex",
      "outputs": [
        {
          "internalType": "uint256",
          "name": "",
          "type": "uint256"
        }
      ],
      "stateMutability": "view",
      "type": "function"
    },
    {
      "inputs": [
        {
          "internalType": "uint256",
          "name": "",
          "type": "uint256"
        }
      ],
      "name": "commitmentMerkleTree",
      "outputs": [
        {
          "internalType": "bytes32",
          "name": "",
          "type": "bytes32"
        }
      ],
      "stateMutability": "view",
      "type": "function"
    },
    {
      "inputs": [
        {
          "internalType": "bytes32",
          "name": "",
          "type": "bytes32"
        }
      ],
      "name": "commitments",
      "outputs": [
        {
          "internalType": "bool",
          "name": "",
          "type": "bool"
        }
      ],
      "stateMutability": "view",
      "type": "function"
    },
    {
      "inputs": [],
      "name": "complianceAuthority",
      "outputs": [
        {
          "internalType": "address",
          "name": "",
          "type": "address"
        }
      ],
      "stateMutability": "view",
      "type": "function"
    },
    {
      "inputs": [
        {
          "internalType": "bytes32",
          "name": "commitment",
          "type": "bytes32"
        },
        {
          "internalType": "uint64",
          "name": "token",
          "type": "uint64"
        },
        {
          "internalType": "uint64",
          "name": "amount",
          "type": "uint64"
        },
        {
          "internalType": "bytes",
          "name": "certificate",
          "type": "bytes"
        },
        {
          "internalType": "bytes",
          "name": "signature",
          "type": "bytes"
        }
      ],
      "name": "deposit",
      "outputs": [],
      "stateMutability": "nonpayable",
      "type": "function"
    },
    {
      "inputs": [
        {
          "internalType": "uint64",
          "name": "token",
          "type": "uint64"
        },
        {
          "internalType": "uint64",
          "name": "amount",
          "type": "uint64"
        },
        {
          "internalType": "address",
          "name": "recipient",
          "type": "address"
        }
      ],
      "name": "emergencyWithdraw",
      "outputs": [],
      "stateMutability": "nonpayable",
      "type": "function"
    },
    {
      "inputs": [],
      "name": "getMerkleRoot",
      "outputs": [
        {
          "internalType": "bytes32",
          "name": "",
          "type": "bytes32"
        }
      ],
      "stateMutability": "view",
      "type": "function"
    },
    {
      "inputs": [
        {
          "internalType": "bytes32",
          "name": "",
          "type": "bytes32"
        }
      ],
      "name": "nullifiers",
      "outputs": [
        {
          "internalType": "bool",
          "name": "",
          "type": "bool"
        }
      ],
      "stateMutability": "view",
      "type": "function"
    },
    {
      "inputs": [
        {
          "internalType": "bytes32",
          "name": "commitment",
          "type": "bytes32"
        },
        {
          "internalType": "bytes",
          "name": "proof",
          "type": "bytes"
        },
        {
          "internalType": "uint32",
          "name": "asset",
          "type": "uint32"
        },
        {
          "internalType": "bool",
          "name": "isBuy",
          "type": "bool"
        },
        {
          "internalType": "uint64",
          "name": "limitPx",
          "type": "uint64"
        },
        {
          "internalType": "uint64",
          "name": "sz",
          "type": "uint64"
        }
      ],
      "name": "privatePerpsPosition",
      "outputs": [],
      "stateMutability": "nonpayable",
      "type": "function"
    },
    {
      "inputs": [
        {
          "internalType": "bytes32",
          "name": "commitment",
          "type": "bytes32"
        },
        {
          "internalType": "bytes",
          "name": "proof",
          "type": "bytes"
        },
        {
          "internalType": "uint64",
          "name": "fromToken",
          "type": "uint64"
        },
        {
          "internalType": "uint64",
          "name": "toToken",
          "type": "uint64"
        },
        {
          "internalType": "uint64",
          "name": "amount",
          "type": "uint64"
        },
        {
          "internalType": "uint64",
          "name": "minReceived",
          "type": "uint64"
        }
      ],
      "name": "privateSpotTrade",
      "outputs": [],
      "stateMutability": "nonpayable",
      "type": "function"
    },
    {
      "inputs": [
        {
          "internalType": "address",
          "name": "newAuthority",
          "type": "address"
        }
      ],
      "name": "updateComplianceAuthority",
      "outputs": [],
      "stateMutability": "nonpayable",
      "type": "function"
    },
    {
      "inputs": [
        {
          "internalType": "address",
          "name": "",
          "type": "address"
        }
      ],
      "name": "validCertificates",
      "outputs": [
        {
          "internalType": "bool",
          "name": "",
          "type": "bool"
        }
      ],
      "stateMutability": "view",
      "type": "function"
    },
    {
      "inputs": [
        {
          "internalType": "address",
          "name": "user",
          "type": "address"
        },
        {
          "internalType": "bytes",
          "name": "certificate",
          "type": "bytes"
        },
        {
          "internalType": "bytes",
          "name": "signature",
          "type": "bytes"
        }
      ],
      "name": "validateCertificate",
      "outputs": [],
      "stateMutability": "nonpayable",
      "type": "function"
    },
    {
      "inputs": [
        {
          "internalType": "bytes32",
          "name": "nullifier",
          "type": "bytes32"
        },
        {
          "internalType": "address",
          "name": "recipient",
          "type": "address"
        },
        {
          "internalType": "uint64",
          "name": "token",
          "type": "uint64"
        },
        {
          "internalType": "uint64",
          "name": "amount",
          "type": "uint64"
        },
        {
          "internalType": "bytes",
          "name": "proof",
          "type": "bytes"
        }
      ],
      "name": "withdraw",
      "outputs": [],
      "stateMutability": "nonpayable",
      "type": "function"
    }
  ],
  "bytecode": "0x608060405234801561001057600080fd5b506040516112c43803806112c483398101604081905261002f91610054565b600480546001600160a01b0319166001600160a01b0392909216919091179055610084565b60006020828403121561006657600080fd5b81516001600160a01b038116811461007d57600080fd5b9392505050565b611231806100936000396000f3fe608060405234801561001057600080fd5b50600436106100ea5760003560e01c8063a3278f791161008c578063d4a82dc511610066578063d4a82dc51461021c578063e02382341461022f578063e5ea7be214610242578063e6053d0b1461025557600080fd5b8063a3278f79146101d3578063b48efcfe146101f6578063ca29a4051461020957600080fd5b8063309f477a116100c8578063309f477a1461016a5780634959065714610195578063839df9451461019d578063984c3e56146101c057600080fd5b8063012d09b5146100ef57806318afae2c146101225780632997e86b14610137575b600080fd5b61010f6100fd366004610ced565b60066020526000908152604090205481565b6040519081526020015b60405180910390f35b610135610130366004610d39565b610268565b005b61015a610145366004610ced565b60026020526000908152604090205460ff1681565b6040519015158152602001610119565b60045461017d906001600160a01b031681565b6040516001600160a01b039091168152602001610119565b61010f61030d565b61015a6101ab366004610ced565b60016020526000908152604090205460ff1681565b6101356101ce366004610e1e565b6103ba565b61015a6101e1366004610e91565b60036020526000908152604090205460ff1681565b610135610204366004610eac565b610443565b610135610217366004610f45565b61066c565b61010f61022a366004610ced565b6108a5565b61013561023d366004610fd3565b6108c6565b610135610250366004610e91565b610aa4565b610135610263366004611032565b610b18565b6004546001600160a01b0316331461029b5760405162461bcd60e51b81526004016102929061109d565b60405180910390fd5b604051630b0ac0ab60e01b815273333333333333333333333333333333333333333390630b0ac0ab906102d6908490879087906004016110d4565b600060405180830381600087803b1580156102f057600080fd5b505af1158015610304573d6000803e3d6000fd5b50505050505050565b600554600090810361031f5750600090565b60006005600081548110610335576103356110fe565b600091825260209091200154905060015b6005548110156103b4578160058281548110610364576103646110fe565b9060005260206000200154604051602001610389929190918252602082015260400190565b60405160208183030381529060405280519060200120915080806103ac9061112a565b915050610346565b50919050565b6004546001600160a01b031633146103e45760405162461bcd60e51b81526004016102929061109d565b6001600160a01b038316600081815260036020908152604091829020805460ff1916600190811790915591519182527f0c1dcc7403a9d518716ddd7c0d97e08e0ce57a8600970f46d6f8500d83b6c5ea910160405180910390a2505050565b61044d8587610c8f565b6104895760405162461bcd60e51b815260206004820152600d60248201526c24b73b30b634b210383937b7b360991b6044820152606401610292565b60008681526020819052604090206002015460ff166104e15760405162461bcd60e51b815260206004820152601460248201527315985d5b1d08191bd95cc81b9bdd08195e1a5cdd60621b6044820152606401610292565b604051634e4719ab60e01b815263ffffffff8516600482015283151560248201526001600160401b0380841660448301528216606482015273333333333333333333333333333333333333333390634e4719ab90608401600060405180830381600087803b15801561055257600080fd5b505af1158015610566573d6000803e3d6000fd5b5050505082156105cf5760008681526020818152604080832063ffffffff88168452600101909152812080548392906105a390849060070b611143565b92506101000a8154816001600160401b03021916908360070b6001600160401b0316021790555061062a565b60008681526020818152604080832063ffffffff881684526001019091528120805483929061060290849060070b611172565b92506101000a8154816001600160401b03021916908360070b6001600160401b031602179055505b857f8f3dba1073f4b750e9392983cbbdd0d9b7e8380008bdda0e7683e3c3aa5c51894260405161065c91815260200190565b60405180910390a2505050505050565b3360008181526003602052604090205460ff166106cb5760405162461bcd60e51b815260206004820152601e60248201527f496e76616c696420636f6d706c69616e636520636572746966696361746500006044820152606401610292565b60008681526001602052604090205460ff161561072a5760405162461bcd60e51b815260206004820152601760248201527f436f6d6d69746d656e7420616c726561647920757365640000000000000000006044820152606401610292565b604051630b0ac0ab60e01b815273333333333333333333333333333333333333333390630b0ac0ab90610765903090899089906004016110d4565b600060405180830381600087803b15801561077f57600080fd5b505af1158015610793573d6000803e3d6000fd5b5050506000878152600160208181526040808420805460ff19169093179092558281528183206001600160401b03808b168552915290822080548894509092916107df918591166111a1565b82546001600160401b039182166101009390930a9283029190920219909116179055506000868152602081905260408120600201805460ff19166001908117909155600580548083018255928190527f036b6384b5eca791c62761152d0c79bb0604c104a5fb6f4eb0703f3154bb3db0909201889055905461086191906111c8565b600087815260066020908152604091829020929092555142815287917f02d0beb141922199e99106aa1e9e523add96e905baf9299bfb1042acd145bf5c910161065c565b600581815481106108b557600080fd5b600091825260209091200154905081565b6108d08587610c8f565b61090c5760405162461bcd60e51b815260206004820152600d60248201526c24b73b30b634b210383937b7b360991b6044820152606401610292565b60008681526020819052604090206002015460ff166109645760405162461bcd60e51b815260206004820152601460248201527315985d5b1d08191bd95cc81b9bdd08195e1a5cdd60621b6044820152606401610292565b6000868152602081815260408083206001600160401b038881168552925290912054818416911610156109d05760405162461bcd60e51b8152602060048201526014602482015273496e73756666696369656e742062616c616e636560601b6044820152606401610292565b6000868152602081815260408083206001600160401b03808916855292528220805485939192610a02918591166111db565b82546101009290920a6001600160401b038181021990931691831602179091556000888152602081815260408083208885168452909152812080548594509092610a4e918591166111a1565b92506101000a8154816001600160401b0302191690836001600160401b03160217905550857f8f3dba1073f4b750e9392983cbbdd0d9b7e8380008bdda0e7683e3c3aa5c51894260405161065c91815260200190565b6004546001600160a01b03163314610ace5760405162461bcd60e51b81526004016102929061109d565b600480546001600160a01b0319166001600160a01b0383169081179091556040517f829c4ef70a1fb0edb9daa0db5c77d61190e746db94bce7dc78fee99d04fb409990600090a250565b60008581526002602052604090205460ff1615610b705760405162461bcd60e51b8152602060048201526016602482015275139d5b1b1a599a595c88185b1c9958591e481d5cd95960521b6044820152606401610292565b610b7c81868585610ca9565b610bc85760405162461bcd60e51b815260206004820152601860248201527f496e76616c6964207769746864726177616c2070726f6f6600000000000000006044820152606401610292565b60008581526002602052604090819020805460ff1916600117905551630b0ac0ab60e01b815273333333333333333333333333333333333333333390630b0ac0ab90610c1c908790879087906004016110d4565b600060405180830381600087803b158015610c3657600080fd5b505af1158015610c4a573d6000803e3d6000fd5b50505050847fcc9580996e4c53ac7e73439f181e208ab15831ea2d2429dd12ee742c1c475b6f42604051610c8091815260200190565b60405180910390a25050505050565b6000808351118015610ca057508115155b90505b92915050565b6000808551118015610cba57508315155b8015610ccf57506000836001600160401b0316115b8015610ce457506000826001600160401b0316115b95945050505050565b600060208284031215610cff57600080fd5b5035919050565b80356001600160401b0381168114610d1d57600080fd5b919050565b80356001600160a01b0381168114610d1d57600080fd5b600080600060608486031215610d4e57600080fd5b610d5784610d06565b9250610d6560208501610d06565b9150610d7360408501610d22565b90509250925092565b634e487b7160e01b600052604160045260246000fd5b600082601f830112610da357600080fd5b81356001600160401b0380821115610dbd57610dbd610d7c565b604051601f8301601f19908116603f01168101908282118183101715610de557610de5610d7c565b81604052838152866020858801011115610dfe57600080fd5b836020870160208301376000602085830101528094505050505092915050565b600080600060608486031215610e3357600080fd5b610e3c84610d22565b925060208401356001600160401b0380821115610e5857600080fd5b610e6487838801610d92565b93506040860135915080821115610e7a57600080fd5b50610e8786828701610d92565b9150509250925092565b600060208284031215610ea357600080fd5b610ca082610d22565b60008060008060008060c08789031215610ec557600080fd5b8635955060208701356001600160401b03811115610ee257600080fd5b610eee89828a01610d92565b955050604087013563ffffffff81168114610f0857600080fd5b935060608701358015158114610f1d57600080fd5b9250610f2b60808801610d06565b9150610f3960a08801610d06565b90509295509295509295565b600080600080600060a08688031215610f5d57600080fd5b85359450610f6d60208701610d06565b9350610f7b60408701610d06565b925060608601356001600160401b0380821115610f9757600080fd5b610fa389838a01610d92565b93506080880135915080821115610fb957600080fd5b50610fc688828901610d92565b9150509295509295909350565b60008060008060008060c08789031215610fec57600080fd5b8635955060208701356001600160401b0381111561100957600080fd5b61101589828a01610d92565b95505061102460408801610d06565b9350610f1d60608801610d06565b600080600080600060a0868803121561104a57600080fd5b8535945061105a60208701610d22565b935061106860408701610d06565b925061107660608701610d06565b915060808601356001600160401b0381111561109157600080fd5b610fc688828901610d92565b60208082526019908201527f4f6e6c7920636f6d706c69616e636520617574686f7269747900000000000000604082015260600190565b6001600160a01b039390931683526001600160401b03918216602084015216604082015260600190565b634e487b7160e01b600052603260045260246000fd5b634e487b7160e01b600052601160045260246000fd5b60006001820161113c5761113c611114565b5060010190565b600781810b9083900b01677fffffffffffffff8113677fffffffffffffff1982121715610ca357610ca3611114565b600782810b9082900b03677fffffffffffffff198112677fffffffffffffff82131715610ca357610ca3611114565b6001600160401b038181168382160190808211156111c1576111c1611114565b5092915050565b81810381811115610ca357610ca3611114565b6001600160401b038281168282160390808211156111c1576111c161111456fea264697066735822122010162b4809cfcf9c5eee05187ad63fe01075a9326a410f6afaeb0dd7a9c219fc64736f6c63430008130033",
  "linkReferences": {},
  "deployedLinkReferences": {}
}