{
  "_format": "hh-sol-artifact-1",
  "contractName": "PrivateDEXExtension",
  "sourceName": "contracts/PrivateDEXExtension.sol",
  "abi": [
    {
      "inputs": [
        {
          "internalType": "address",
          "name": "_privacySystem",
          "type": "address"
        }
      ],
      "stateMutability": "nonpayable",
      "type": "constructor"
    },
    {
      "inputs": [
        {
          "internalType": "address",
          "name": "token",
          "type": "address"
        }
      ],
      "name": "SafeERC20FailedOperation",
      "type": "error"
    },
    {
      "anonymous": false,
      "inputs": [
        {
          "indexed": true,
          "internalType": "bytes32",
          "name": "nullifier",
          "type": "bytes32"
        },
        {
          "indexed": true,
          "internalType": "bytes32",
          "name": "commitment",
          "type": "bytes32"
        },
        {
          "indexed": false,
          "internalType": "uint64",
          "name": "tokenIn",
          "type": "uint64"
        },
        {
          "indexed": false,
          "internalType": "uint64",
          "name": "tokenOut",
          "type": "uint64"
        },
        {
          "indexed": false,
          "internalType": "uint256",
          "name": "amountIn",
          "type": "uint256"
        },
        {
          "indexed": false,
          "internalType": "uint256",
          "name": "amountOut",
          "type": "uint256"
        }
      ],
      "name": "PrivateSwap",
      "type": "event"
    },
    {
      "inputs": [],
      "name": "SWAP_ROUTER",
      "outputs": [
        {
          "internalType": "contract ISwapRouter",
          "name": "",
          "type": "address"
        }
      ],
      "stateMutability": "view",
      "type": "function"
    },
    {
      "inputs": [],
      "name": "UBTC",
      "outputs": [
        {
          "internalType": "address",
          "name": "",
          "type": "address"
        }
      ],
      "stateMutability": "view",
      "type": "function"
    },
    {
      "inputs": [],
      "name": "UETH",
      "outputs": [
        {
          "internalType": "address",
          "name": "",
          "type": "address"
        }
      ],
      "stateMutability": "view",
      "type": "function"
    },
    {
      "inputs": [],
      "name": "USDE",
      "outputs": [
        {
          "internalType": "address",
          "name": "",
          "type": "address"
        }
      ],
      "stateMutability": "view",
      "type": "function"
    },
    {
      "inputs": [],
      "name": "WHYPE",
      "outputs": [
        {
          "internalType": "address",
          "name": "",
          "type": "address"
        }
      ],
      "stateMutability": "view",
      "type": "function"
    },
    {
      "inputs": [
        {
          "internalType": "bytes32",
          "name": "",
          "type": "bytes32"
        },
        {
          "internalType": "uint64",
          "name": "",
          "type": "uint64"
        }
      ],
      "name": "commitmentBalances",
      "outputs": [
        {
          "internalType": "uint256",
          "name": "",
          "type": "uint256"
        }
      ],
      "stateMutability": "view",
      "type": "function"
    },
    {
      "inputs": [
        {
          "internalType": "bytes32",
          "name": "commitment",
          "type": "bytes32"
        }
      ],
      "name": "getBalances",
      "outputs": [
        {
          "internalType": "uint64[]",
          "name": "tokenIds",
          "type": "uint64[]"
        },
        {
          "internalType": "uint256[]",
          "name": "balances",
          "type": "uint256[]"
        }
      ],
      "stateMutability": "view",
      "type": "function"
    },
    {
      "inputs": [
        {
          "internalType": "bytes32",
          "name": "commitment",
          "type": "bytes32"
        },
        {
          "internalType": "uint64",
          "name": "tokenId",
          "type": "uint64"
        },
        {
          "internalType": "uint256",
          "name": "amount",
          "type": "uint256"
        }
      ],
      "name": "initializeBalance",
      "outputs": [],
      "stateMutability": "nonpayable",
      "type": "function"
    },
    {
      "inputs": [],
      "name": "privacySystem",
      "outputs": [
        {
          "internalType": "contract IPrivacySystem",
          "name": "",
          "type": "address"
        }
      ],
      "stateMutability": "view",
      "type": "function"
    },
    {
      "inputs": [
        {
          "internalType": "bytes32",
          "name": "nullifier",
          "type": "bytes32"
        },
        {
          "internalType": "bytes",
          "name": "proof",
          "type": "bytes"
        },
        {
          "internalType": "bytes",
          "name": "publicValues",
          "type": "bytes"
        },
        {
          "internalType": "uint24",
          "name": "fee",
          "type": "uint24"
        }
      ],
      "name": "privateSwap",
      "outputs": [
        {
          "internalType": "uint256",
          "name": "amountOut",
          "type": "uint256"
        }
      ],
      "stateMutability": "nonpayable",
      "type": "function"
    },
    {
      "inputs": [
        {
          "internalType": "bytes32",
          "name": "",
          "type": "bytes32"
        }
      ],
      "name": "swapNullifiers",
      "outputs": [
        {
          "internalType": "bool",
          "name": "",
          "type": "bool"
        }
      ],
      "stateMutability": "view",
      "type": "function"
    },
    {
      "inputs": [
        {
          "internalType": "uint64",
          "name": "",
          "type": "uint64"
        }
      ],
      "name": "tokenAddresses",
      "outputs": [
        {
          "internalType": "address",
          "name": "",
          "type": "address"
        }
      ],
      "stateMutability": "view",
      "type": "function"
    },
    {
      "inputs": [
        {
          "internalType": "bytes32",
          "name": "commitment",
          "type": "bytes32"
        },
        {
          "internalType": "uint64",
          "name": "tokenId",
          "type": "uint64"
        },
        {
          "internalType": "uint256",
          "name": "amount",
          "type": "uint256"
        },
        {
          "internalType": "address",
          "name": "recipient",
          "type": "address"
        }
      ],
      "name": "withdrawFromSwap",
      "outputs": [],
      "stateMutability": "nonpayable",
      "type": "function"
    },
    {
      "stateMutability": "payable",
      "type": "receive"
    }
  ],
  "bytecode": "0x60a060405234801561001057600080fd5b506040516114a63803806114a683398101604081905261002f9161014c565b6001600160a01b0316608052600060208190527fad3228b676f7d3cd4284a5443f17f1962b36e491b30a40b2405849e597ba5fb580546001600160a01b0319908116735555555555555555555555555555555555555555179091557fada5013122d395ba3c54772283fb069b10426056ef8ca54750cb9bb552a59e7d80548216739fdbda0a5e284c32744d2f17ee5c74b2849934631790557fabbb5caa7dda850e60932de0934eb1f9d0f59695050f761dc64e443e5030a5698054821673be6727b535545c67d5caa73dea54865b92cf790717905560039091527f101e368776582e57ab3d116ffe2517c0a585cd5b23174b01e275c2d8329c3d838054909116735d3a1ff2b6bab83b63cd9ad0787074081a52ef3417905561017c565b60006020828403121561015e57600080fd5b81516001600160a01b038116811461017557600080fd5b9392505050565b6080516112ec6101ba600039600081816101d101528181610342015281816103db015281816106e9015281816107a401526108e201526112ec6000f3fe6080604052600436106100c65760003560e01c806361a9231d1161007f5780638743de81116100595780638743de811461028b578063a8ebbae6146102b9578063c6005893146102d9578063ffc21d5e1461030157600080fd5b806361a9231d1461021b57806382d2dcfb1461023b57806386d4c4231461026357600080fd5b806322af7c24146100d25780632b96f7db146100f457806342de081b1461013f5780634727f6061461017f57806351a259f3146101bf57806359f613a4146101f357600080fd5b366100cd57005b600080fd5b3480156100de57600080fd5b506100f26100ed366004610e8a565b610337565b005b34801561010057600080fd5b5061012c61010f366004610ebf565b600160209081526000928352604080842090915290825290205481565b6040519081526020015b60405180910390f35b34801561014b57600080fd5b50610167735d3a1ff2b6bab83b63cd9ad0787074081a52ef3481565b6040516001600160a01b039091168152602001610136565b34801561018b57600080fd5b506101af61019a366004610eeb565b60026020526000908152604090205460ff1681565b6040519015158152602001610136565b3480156101cb57600080fd5b506101677f000000000000000000000000000000000000000000000000000000000000000081565b3480156101ff57600080fd5b5061016773555555555555555555555555555555555555555581565b34801561022757600080fd5b506100f2610236366004610f1c565b6103d0565b34801561024757600080fd5b5061016773be6727b535545c67d5caa73dea54865b92cf790781565b34801561026f57600080fd5b50610167739fdbda0a5e284c32744d2f17ee5c74b28499346381565b34801561029757600080fd5b506102ab6102a6366004610eeb565b610573565b604051610136929190610f64565b3480156102c557600080fd5b5061012c6102d4366004611030565b610660565b3480156102e557600080fd5b5061016773ebd14cdf290185cc4d0b5ec73a0e095d780e5d2f81565b34801561030d57600080fd5b5061016761031c3660046110c3565b6000602081905290815260409020546001600160a01b031681565b336001600160a01b037f000000000000000000000000000000000000000000000000000000000000000016146103aa5760405162461bcd60e51b81526020600482015260136024820152724f6e6c7920707269766163792073797374656d60681b60448201526064015b60405180910390fd5b60009283526001602090815260408085206001600160401b039094168552929052912055565b336001600160a01b037f0000000000000000000000000000000000000000000000000000000000000000161461043e5760405162461bcd60e51b81526020600482015260136024820152724f6e6c7920707269766163792073797374656d60681b60448201526064016103a1565b60008481526001602090815260408083206001600160401b03871684529091529020548211156104a75760405162461bcd60e51b8152602060048201526014602482015273496e73756666696369656e742062616c616e636560601b60448201526064016103a1565b60008481526001602090815260408083206001600160401b0387168452909152812080548492906104d99084906110fb565b90915550506001600160401b0383166000908152602081905260409020546001600160a01b0316735555555555555555555555555555555555555554198101610558576040516001600160a01b0383169084156108fc029085906000818181858888f19350505050158015610552573d6000803e3d6000fd5b5061056c565b61056c6001600160a01b0382168385610cb2565b5050505050565b60408051600480825260a08201909252606091829160009160208201608080368337505060408051600480825260a0820190925292935060009291506020820160808036833701905050905060005b6004816001600160401b03161015610655578083826001600160401b0316815181106105f0576105f061110e565b6001600160401b03928316602091820292909201810191909152600088815260018252604080822093851680835293909252205483519091849181106106385761063861110e565b60209081029190910101528061064d81611124565b9150506105c2565b509094909350915050565b60008681526002602052604081205460ff16156106bf5760405162461bcd60e51b815260206004820152601b60248201527f53776170206e756c6c696669657220616c72656164792075736564000000000060448201526064016103a1565b60006106cd8486018661114a565b805160405163839df94560e01b81529192506001600160a01b037f0000000000000000000000000000000000000000000000000000000000000000169163839df945916107209160040190815260200190565b602060405180830381865afa15801561073d573d6000803e3d6000fd5b505050506040513d601f19601f8201168201806040525081019061076191906111e9565b6107a25760405162461bcd60e51b8152602060048201526012602482015271125b9d985b1a590818dbdb5b5a5d1b595b9d60721b60448201526064016103a1565b7f00000000000000000000000000000000000000000000000000000000000000006001600160a01b031663495906576040518163ffffffff1660e01b8152600401602060405180830381865afa158015610800573d6000803e3d6000fd5b505050506040513d601f19601f82011682018060405250810190610824919061120b565b8160c001511461086c5760405162461bcd60e51b8152602060048201526013602482015272125b9d985b1a59081b595c9adb19481c9bdbdd606a1b60448201526064016103a1565b608081015181516000908152600160209081526040808320818601516001600160401b0316845290915290205410156108de5760405162461bcd60e51b8152602060048201526014602482015273496e73756666696369656e742062616c616e636560601b60448201526064016103a1565b60007f00000000000000000000000000000000000000000000000000000000000000006001600160a01b03166352a07fa36040518163ffffffff1660e01b8152600401602060405180830381865afa15801561093e573d6000803e3d6000fd5b505050506040513d601f19601f820116820180604052508101906109629190611224565b60405163020a49e360e51b81529091506001600160a01b038216906341493c60906109b8907e8484840d42565b9589f5c37253789d3731407964b1537fb5cf9d6064226b1c908a908a908e908e9060040161126a565b60006040518083038186803b1580156109d057600080fd5b505afa1580156109e4573d6000803e3d6000fd5b50505060008a8152600260209081526040808320805460ff19166001908117909155608087015187518552908352818420878301516001600160401b03168552909252822080549193509190610a3b9084906110fb565b90915550506040808301516001600160401b0390811660009081526020819052828120546060860151909216815291909120546001600160a01b0391821691168115801590610a9257506001600160a01b03811615155b610ace5760405162461bcd60e51b815260206004820152600d60248201526c24b73b30b634b2103a37b5b2b760991b60448201526064016103a1565b610af18273ebd14cdf290185cc4d0b5ec73a0e095d780e5d2f8660800151610d16565b60408051610100810182526001600160a01b0384811682528381166020830190815262ffffff8a811684860190815230606086019081524260808088019182528c015160a08089019182528d015160c08901908152600060e08a01908152995163414bf38960e01b815289518916600482015296518816602488015293519094166044860152905185166064850152516084840152905160a48301525160c482015292511660e48301529073ebd14cdf290185cc4d0b5ec73a0e095d780e5d2f9063414bf38990610104016020604051808303816000875af1158015610bdb573d6000803e3d6000fd5b505050506040513d601f19601f82011682018060405250810190610bff919061120b565b8551600090815260016020908152604080832060608a01516001600160401b03168452909152812080549298508892909190610c3c9084906112a3565b909155505084516040808701516060808901516080808b015185516001600160401b0395861681529490921660208501529383015281018990528e917f0f4d8f4a9d01f7fbfdec4da17e052db5780ba4be9d71e52e9b80461e36177c4c910160405180910390a350505050509695505050505050565b6040516001600160a01b03838116602483015260448201839052610d1191859182169063a9059cbb906064015b604051602081830303815290604052915060e01b6020820180516001600160e01b038381831617835250505050610dac565b505050565b604080516001600160a01b038416602482015260448082018490528251808303909101815260649091019091526020810180516001600160e01b031663095ea7b360e01b179052610d678482610e1d565b610da6576040516001600160a01b03848116602483015260006044830152610d9c91869182169063095ea7b390606401610cdf565b610da68482610dac565b50505050565b600080602060008451602086016000885af180610dcf576040513d6000823e3d81fd5b50506000513d91508115610de7578060011415610df4565b6001600160a01b0384163b155b15610da657604051635274afe760e01b81526001600160a01b03851660048201526024016103a1565b6000806000806020600086516020880160008a5af192503d91506000519050828015610e6257508115610e535780600114610e62565b6000866001600160a01b03163b115b93505050505b92915050565b80356001600160401b0381168114610e8557600080fd5b919050565b600080600060608486031215610e9f57600080fd5b83359250610eaf60208501610e6e565b9150604084013590509250925092565b60008060408385031215610ed257600080fd5b82359150610ee260208401610e6e565b90509250929050565b600060208284031215610efd57600080fd5b5035919050565b6001600160a01b0381168114610f1957600080fd5b50565b60008060008060808587031215610f3257600080fd5b84359350610f4260208601610e6e565b9250604085013591506060850135610f5981610f04565b939692955090935050565b604080825283519082018190526000906020906060840190828701845b82811015610fa65781516001600160401b031684529284019290840190600101610f81565b5050508381038285015284518082528583019183019060005b81811015610fdb57835183529284019291840191600101610fbf565b5090979650505050505050565b60008083601f840112610ffa57600080fd5b5081356001600160401b0381111561101157600080fd5b60208301915083602082850101111561102957600080fd5b9250929050565b6000806000806000806080878903121561104957600080fd5b8635955060208701356001600160401b038082111561106757600080fd5b6110738a838b01610fe8565b9097509550604089013591508082111561108c57600080fd5b5061109989828a01610fe8565b909450925050606087013562ffffff811681146110b557600080fd5b809150509295509295509295565b6000602082840312156110d557600080fd5b6110de82610e6e565b9392505050565b634e487b7160e01b600052601160045260246000fd5b81810381811115610e6857610e686110e5565b634e487b7160e01b600052603260045260246000fd5b60006001600160401b03808316818103611140576111406110e5565b6001019392505050565b600060e0828403121561115c57600080fd5b60405160e081018181106001600160401b038211171561118c57634e487b7160e01b600052604160045260246000fd5b806040525082358152602083013560208201526111ab60408401610e6e565b60408201526111bc60608401610e6e565b60608201526080830135608082015260a083013560a082015260c083013560c08201528091505092915050565b6000602082840312156111fb57600080fd5b815180151581146110de57600080fd5b60006020828403121561121d57600080fd5b5051919050565b60006020828403121561123657600080fd5b81516110de81610f04565b81835281816020850137506000828201602090810191909152601f909101601f19169091010190565b858152606060208201526000611284606083018688611241565b8281036040840152611297818587611241565b98975050505050505050565b80820180821115610e6857610e686110e556fea2646970667358221220015797e9c1954743a9cdc78b3443f3bb42dd1ee8f529145ad28aa3291c13533464736f6c63430008140033",
  "linkReferences": {},
  "deployedLinkReferences": {}
}