{
  "_format": "hh-sol-artifact-1",
  "contractName": "MockSP1Verifier",
  "sourceName": "contracts/MockSP1Verifier.sol",
  "abi": [
    {
      "anonymous": false,
      "inputs": [
        {
          "indexed": false,
          "internalType": "bytes32",
          "name": "vkey",
          "type": "bytes32"
        },
        {
          "indexed": false,
          "internalType": "bytes32",
          "name": "publicValuesHash",
          "type": "bytes32"
        },
        {
          "indexed": false,
          "internalType": "bytes32",
          "name": "proofHash",
          "type": "bytes32"
        }
      ],
      "name": "ProofVerified",
      "type": "event"
    },
    {
      "inputs": [],
      "name": "alwaysValid",
      "outputs": [
        {
          "internalType": "bool",
          "name": "",
          "type": "bool"
        }
      ],
      "stateMutability": "view",
      "type": "function"
    },
    {
      "inputs": [
        {
          "internalType": "bool",
          "name": "_alwaysValid",
          "type": "bool"
        }
      ],
      "name": "setAlwaysValid",
      "outputs": [],
      "stateMutability": "nonpayable",
      "type": "function"
    },
    {
      "inputs": [
        {
          "internalType": "bytes32",
          "name": "proofHash",
          "type": "bytes32"
        },
        {
          "internalType": "bool",
          "name": "valid",
          "type": "bool"
        }
      ],
      "name": "setValidProof",
      "outputs": [],
      "stateMutability": "nonpayable",
      "type": "function"
    },
    {
      "inputs": [
        {
          "internalType": "bytes32",
          "name": "",
          "type": "bytes32"
        }
      ],
      "name": "validProofs",
      "outputs": [
        {
          "internalType": "bool",
          "name": "",
          "type": "bool"
        }
      ],
      "stateMutability": "view",
      "type": "function"
    },
    {
      "inputs": [
        {
          "internalType": "bytes32",
          "name": "vkey",
          "type": "bytes32"
        },
        {
          "internalType": "bytes",
          "name": "publicValues",
          "type": "bytes"
        },
        {
          "internalType": "bytes",
          "name": "proofBytes",
          "type": "bytes"
        }
      ],
      "name": "verifyProof",
      "outputs": [],
      "stateMutability": "view",
      "type": "function"
    }
  ],
  "bytecode": "0x60806040526001805460ff19168117905534801561001c57600080fd5b506103448061002c6000396000f3fe608060405234801561001057600080fd5b50600436106100575760003560e01c8063070a85401461005c578063160d6c39146100935780633b4b1a3e146100c357806341493c60146100d0578063c6080222146100e3575b600080fd5b61007f61006a36600461019e565b60006020819052908152604090205460ff1681565b604051901515815260200160405180910390f35b6100c16100a13660046101cc565b600091825260208290526040909120805460ff1916911515919091179055565b005b60015461007f9060ff1681565b6100c16100de366004610241565b610104565b6100c16100f13660046102bb565b6001805460ff1916911515919091179055565b6000858585858560405160200161011f9594939291906102dd565b60408051601f19818403018152919052805160209091012060015490915060ff166101965760008181526020819052604090205460ff166101965760405162461bcd60e51b815260206004820152600d60248201526c24b73b30b634b210383937b7b360991b604482015260640160405180910390fd5b505050505050565b6000602082840312156101b057600080fd5b5035919050565b803580151581146101c757600080fd5b919050565b600080604083850312156101df57600080fd5b823591506101ef602084016101b7565b90509250929050565b60008083601f84011261020a57600080fd5b50813567ffffffffffffffff81111561022257600080fd5b60208301915083602082850101111561023a57600080fd5b9250929050565b60008060008060006060868803121561025957600080fd5b85359450602086013567ffffffffffffffff8082111561027857600080fd5b61028489838a016101f8565b9096509450604088013591508082111561029d57600080fd5b506102aa888289016101f8565b969995985093965092949392505050565b6000602082840312156102cd57600080fd5b6102d6826101b7565b9392505050565b858152838560208301376000848201602081016000815284868237506000930160200192835250909594505050505056fea2646970667358221220745a7094ba49cb8838c53a65521564c23e732c87beed218af810573f5d3923ba64736f6c63430008140033",
  "linkReferences": {},
  "deployedLinkReferences": {}
}