{
  "_format": "hh-sol-artifact-1",
  "contractName": "TestPrecompile",
  "sourceName": "contracts/TestPrecompile.sol",
  "abi": [
    {
      "anonymous": false,
      "inputs": [
        {
          "indexed": false,
          "internalType": "string",
          "name": "test",
          "type": "string"
        },
        {
          "indexed": false,
          "internalType": "bool",
          "name": "success",
          "type": "bool"
        },
        {
          "indexed": false,
          "internalType": "string",
          "name": "data",
          "type": "string"
        }
      ],
      "name": "TestResult",
      "type": "event"
    },
    {
      "inputs": [],
      "name": "testPrecompileCode",
      "outputs": [
        {
          "internalType": "bool",
          "name": "readHasCode",
          "type": "bool"
        },
        {
          "internalType": "bool",
          "name": "writeHasCode",
          "type": "bool"
        }
      ],
      "stateMutability": "view",
      "type": "function"
    },
    {
      "inputs": [],
      "name": "testReadPrecompile",
      "outputs": [],
      "stateMutability": "nonpayable",
      "type": "function"
    },
    {
      "inputs": [],
      "name": "testWritePrecompile",
      "outputs": [],
      "stateMutability": "nonpayable",
      "type": "function"
    }
  ],
  "bytecode": "0x608060405234801561001057600080fd5b50610abb806100206000396000f3fe608060405234801561001057600080fd5b50600436106100415760003560e01c8063178d0fba146100465780638df8a14a14610050578063a08d0b8814610058575b600080fd5b61004e61008d565b005b61004e610199565b604080516108003b151581527333333333333333333333333333333333333333333b1515602082015281519081900390910190f35b60405163cdb0116360e01b8152600160048201526305f5e10060248201523060448201527333333333333333333333333333333333333333339063cdb0116390606401600060405180830381600087803b1580156100ea57600080fd5b505af19250505080156100fb575060015b61017b57610107610555565b806308c379a003610151575061011b6105b4565b806101265750610153565b600080516020610a6683398151915260008260405161014692919061068e565b60405180910390a150565b505b600080516020610a66833981519152600060405161017191906106d9565b60405180910390a1565b600080516020610a668339815191526001604051610171919061073d565b604051632594adc160e01b81526001600482015230602482015261080090632594adc190604401602060405180830381865afa9250505080156101f9575060408051601f3d908101601f191682019092526101f691810190610792565b60015b61027f57610205610555565b806308c379a00361025257506102196105b4565b806102245750610254565b600080516020610a668339815191526000826040516102449291906107ab565b60405180910390a1506102ce565b505b600080516020610a66833981519152600060405161027291906107d9565b60405180910390a16102ce565b600080516020610a66833981519152600161029983610429565b6040516020016102a99190610807565b60408051601f19818403018152908290526102c492916107ab565b60405180910390a1505b604051630f637d9560e41b8152600160048201526108009063f637d95090602401600060405180830381865afa92505050801561032d57506040513d6000823e601f3d908101601f1916820160405261032a9190810190610838565b60015b61039857610339610555565b806308c379a003610378575061034d6105b4565b80610358575061037a565b600080516020610a66833981519152600082604051610146929190610904565b505b600080516020610a6683398151915260006040516101719190610930565b600080516020610a668339815191526001846103d1576040518060400160405280600581526020016466616c736560d81b8152506103ef565b604051806040016040528060048152602001637472756560e01b8152505b8360405160200161040192919061095c565b60408051601f198184030181529082905261041c9291610904565b60405180910390a1505050565b6060816000036104505750506040805180820190915260018152600360fc1b602082015290565b8160005b811561047a5780610464816109cb565b91506104739050600a836109e4565b9150610454565b60008167ffffffffffffffff81111561049557610495610571565b6040519080825280601f01601f1916602001820160405280156104bf576020820181803683370190505b509050815b851561054c576104d5600182610a06565b905060006104e4600a886109e4565b6104ef90600a610a1f565b6104f99088610a06565b610504906030610a36565b905060008160f81b90508084848151811061052157610521610a4f565b60200101906001600160f81b031916908160001a905350610543600a896109e4565b975050506104c4565b50949350505050565b600060033d111561056e5760046000803e5060005160e01c5b90565b634e487b7160e01b600052604160045260246000fd5b601f8201601f1916810167ffffffffffffffff811182821017156105ad576105ad610571565b6040525050565b600060443d10156105c25790565b6040516003193d81016004833e81513d67ffffffffffffffff81602484011181841117156105f257505050505090565b828501915081518181111561060a5750505050505090565b843d87010160208285010111156106245750505050505090565b61063360208286010187610587565b509095945050505050565b60005b83811015610659578181015183820152602001610641565b50506000910152565b6000815180845261067a81602086016020860161063e565b601f01601f19169290920160200192915050565b6060815260006106b66060830160088152671cd95b9914dc1bdd60c21b602082015260400190565b841515602084015282810360408401526106d08185610662565b95945050505050565b6060815260006107016060830160088152671cd95b9914dc1bdd60c21b602082015260400190565b8315156020840152828103604084015261073581600d81526c2ab735b737bbb71032b93937b960991b602082015260400190565b949350505050565b6060815260006107656060830160088152671cd95b9914dc1bdd60c21b602082015260400190565b92151560208381019190915282840360409384015260078452665375636365737360c81b90840152500190565b6000602082840312156107a457600080fd5b5051919050565b6060815260006106b660608301600e81526d67657453706f7442616c616e636560901b602082015260400190565b60608152600061070160608301600e81526d67657453706f7442616c616e636560901b602082015260400190565b6802130b630b731b29d160bd1b81526000825161082b81600985016020870161063e565b9190910160090192915050565b60008060006060848603121561084d57600080fd5b8351801515811461085d57600080fd5b602085015190935060ff8116811461087457600080fd5b604085015190925067ffffffffffffffff8082111561089257600080fd5b818601915086601f8301126108a657600080fd5b8151818111156108b8576108b8610571565b60405191506108d1601f8201601f191660200183610587565b8082528760208285010111156108e657600080fd5b6108f781602084016020860161063e565b5080925050509250925092565b6060815260006106b660608301600c81526b6765744173736574496e666f60a01b602082015260400190565b60608152600061070160608301600c81526b6765744173736574496e666f60a01b602082015260400190565b67022bc34b9ba399d160c51b81526000835161097f81600885016020880161063e565b690161029bcb6b137b61d160b51b60089184019182015283516109a981601284016020880161063e565b01601201949350505050565b634e487b7160e01b600052601160045260246000fd5b6000600182016109dd576109dd6109b5565b5060010190565b600082610a0157634e487b7160e01b600052601260045260246000fd5b500490565b81810381811115610a1957610a196109b5565b92915050565b8082028115828204841417610a1957610a196109b5565b60ff8181168382160190811115610a1957610a196109b5565b634e487b7160e01b600052603260045260246000fdfe8ded0018aee3555da4abd779e14b4af76bd1dd7caf6ac46b76386b28db137e4ea2646970667358221220dfc58a11560e017f736339801cb0a093006ceb652f39bd5f7d3fde00e2dc830964736f6c63430008130033",
  "linkReferences": {},
  "deployedLinkReferences": {}
}