{
  "_format": "hh-sol-artifact-1",
  "contractName": "HyperliquidPrivacySystemTestnet",
  "sourceName": "contracts/HyperliquidPrivacySystemTestnet.sol",
  "abi": [
    {
      "inputs": [
        {
          "internalType": "address",
          "name": "_complianceAuthority",
          "type": "address"
        }
      ],
      "stateMutability": "nonpayable",
      "type": "constructor"
    },
    {
      "anonymous": false,
      "inputs": [
        {
          "indexed": true,
          "internalType": "address",
          "name": "user",
          "type": "address"
        },
        {
          "indexed": false,
          "internalType": "bool",
          "name": "valid",
          "type": "bool"
        }
      ],
      "name": "CertificateValidated",
      "type": "event"
    },
    {
      "anonymous": false,
      "inputs": [
        {
          "indexed": true,
          "internalType": "address",
          "name": "newAuthority",
          "type": "address"
        }
      ],
      "name": "ComplianceAuthorityUpdated",
      "type": "event"
    },
    {
      "anonymous": false,
      "inputs": [
        {
          "indexed": true,
          "internalType": "bytes32",
          "name": "commitment",
          "type": "bytes32"
        },
        {
          "indexed": false,
          "internalType": "uint256",
          "name": "timestamp",
          "type": "uint256"
        }
      ],
      "name": "PrivateDeposit",
      "type": "event"
    },
    {
      "anonymous": false,
      "inputs": [
        {
          "indexed": true,
          "internalType": "bytes32",
          "name": "commitment",
          "type": "bytes32"
        },
        {
          "indexed": false,
          "internalType": "uint256",
          "name": "timestamp",
          "type": "uint256"
        }
      ],
      "name": "PrivateTrade",
      "type": "event"
    },
    {
      "anonymous": false,
      "inputs": [
        {
          "indexed": true,
          "internalType": "bytes32",
          "name": "nullifier",
          "type": "bytes32"
        },
        {
          "indexed": false,
          "internalType": "address",
          "name": "recipient",
          "type": "address"
        },
        {
          "indexed": false,
          "internalType": "uint256",
          "name": "asset",
          "type": "uint256"
        },
        {
          "indexed": false,
          "internalType": "uint256",
          "name": "amount",
          "type": "uint256"
        }
      ],
      "name": "PrivateWithdrawal",
      "type": "event"
    },
    {
      "inputs": [
        {
          "internalType": "bytes32",
          "name": "",
          "type": "bytes32"
        }
      ],
      "name": "commitmentIndex",
      "outputs": [
        {
          "internalType": "uint256",
          "name": "",
          "type": "uint256"
        }
      ],
      "stateMutability": "view",
      "type": "function"
    },
    {
      "inputs": [
        {
          "internalType": "uint256",
          "name": "",
          "type": "uint256"
        }
      ],
      "name": "commitmentMerkleTree",
      "outputs": [
        {
          "internalType": "bytes32",
          "name": "",
          "type": "bytes32"
        }
      ],
      "stateMutability": "view",
      "type": "function"
    },
    {
      "inputs": [
        {
          "internalType": "bytes32",
          "name": "",
          "type": "bytes32"
        }
      ],
      "name": "commitments",
      "outputs": [
        {
          "internalType": "bool",
          "name": "",
          "type": "bool"
        }
      ],
      "stateMutability": "view",
      "type": "function"
    },
    {
      "inputs": [],
      "name": "complianceAuthority",
      "outputs": [
        {
          "internalType": "address",
          "name": "",
          "type": "address"
        }
      ],
      "stateMutability": "view",
      "type": "function"
    },
    {
      "inputs": [
        {
          "internalType": "bytes32",
          "name": "commitment",
          "type": "bytes32"
        },
        {
          "internalType": "uint256",
          "name": "asset",
          "type": "uint256"
        },
        {
          "internalType": "uint256",
          "name": "amount",
          "type": "uint256"
        },
        {
          "internalType": "bytes",
          "name": "certificate",
          "type": "bytes"
        },
        {
          "internalType": "bytes",
          "name": "signature",
          "type": "bytes"
        }
      ],
      "name": "deposit",
      "outputs": [],
      "stateMutability": "payable",
      "type": "function"
    },
    {
      "inputs": [],
      "name": "getMerkleRoot",
      "outputs": [
        {
          "internalType": "bytes32",
          "name": "",
          "type": "bytes32"
        }
      ],
      "stateMutability": "view",
      "type": "function"
    },
    {
      "inputs": [
        {
          "internalType": "bytes32",
          "name": "",
          "type": "bytes32"
        }
      ],
      "name": "nullifiers",
      "outputs": [
        {
          "internalType": "bool",
          "name": "",
          "type": "bool"
        }
      ],
      "stateMutability": "view",
      "type": "function"
    },
    {
      "inputs": [
        {
          "internalType": "bytes32",
          "name": "commitment",
          "type": "bytes32"
        },
        {
          "internalType": "bytes",
          "name": "proof",
          "type": "bytes"
        },
        {
          "internalType": "uint256",
          "name": "fromAsset",
          "type": "uint256"
        },
        {
          "internalType": "uint256",
          "name": "toAsset",
          "type": "uint256"
        },
        {
          "internalType": "uint256",
          "name": "amount",
          "type": "uint256"
        },
        {
          "internalType": "uint256",
          "name": "minReceived",
          "type": "uint256"
        }
      ],
      "name": "privateSpotTrade",
      "outputs": [],
      "stateMutability": "nonpayable",
      "type": "function"
    },
    {
      "inputs": [
        {
          "internalType": "address",
          "name": "newAuthority",
          "type": "address"
        }
      ],
      "name": "updateComplianceAuthority",
      "outputs": [],
      "stateMutability": "nonpayable",
      "type": "function"
    },
    {
      "inputs": [
        {
          "internalType": "address",
          "name": "",
          "type": "address"
        }
      ],
      "name": "validCertificates",
      "outputs": [
        {
          "internalType": "bool",
          "name": "",
          "type": "bool"
        }
      ],
      "stateMutability": "view",
      "type": "function"
    },
    {
      "inputs": [
        {
          "internalType": "address",
          "name": "user",
          "type": "address"
        },
        {
          "internalType": "bytes",
          "name": "certificate",
          "type": "bytes"
        },
        {
          "internalType": "bytes",
          "name": "signature",
          "type": "bytes"
        }
      ],
      "name": "validateCertificate",
      "outputs": [],
      "stateMutability": "nonpayable",
      "type": "function"
    },
    {
      "inputs": [
        {
          "internalType": "bytes32",
          "name": "nullifier",
          "type": "bytes32"
        },
        {
          "internalType": "address",
          "name": "recipient",
          "type": "address"
        },
        {
          "internalType": "uint256",
          "name": "asset",
          "type": "uint256"
        },
        {
          "internalType": "uint256",
          "name": "amount",
          "type": "uint256"
        },
        {
          "internalType": "bytes",
          "name": "proof",
          "type": "bytes"
        }
      ],
      "name": "withdraw",
      "outputs": [],
      "stateMutability": "nonpayable",
      "type": "function"
    }
  ],
  "bytecode": "0x608060405234801561001057600080fd5b50604051610dc4380380610dc483398101604081905261002f91610054565b600480546001600160a01b0319166001600160a01b0392909216919091179055610084565b60006020828403121561006657600080fd5b81516001600160a01b038116811461007d57600080fd5b9392505050565b610d31806100936000396000f3fe6080604052600436106100a75760003560e01c8063839df94511610064578063839df945146101bb578063984c3e56146101eb578063a3278f791461020b578063a474542f1461023b578063d4a82dc51461024e578063e5ea7be21461026e57600080fd5b8063012d09b5146100ac57806328fa0a25146100ec5780632997e86b1461010e578063309f477a1461014e5780633382c1b21461018657806349590657146101a6575b600080fd5b3480156100b857600080fd5b506100d96100c73660046109c5565b60066020526000908152604090205481565b6040519081526020015b60405180910390f35b3480156100f857600080fd5b5061010c610107366004610a81565b61028e565b005b34801561011a57600080fd5b5061013e6101293660046109c5565b60016020526000908152604090205460ff1681565b60405190151581526020016100e3565b34801561015a57600080fd5b5060045461016e906001600160a01b031681565b6040516001600160a01b0390911681526020016100e3565b34801561019257600080fd5b5061010c6101a1366004610b07565b610477565b3480156101b257600080fd5b506100d9610620565b3480156101c757600080fd5b5061013e6101d63660046109c5565b60006020819052908152604090205460ff1681565b3480156101f757600080fd5b5061010c610206366004610b72565b61065f565b34801561021757600080fd5b5061013e610226366004610be6565b60036020526000908152604090205460ff1681565b61010c610249366004610c08565b610714565b34801561025a57600080fd5b506100d96102693660046109c5565b6108b3565b34801561027a57600080fd5b5061010c610289366004610be6565b6108d4565b60008681526020819052604090205460ff166102e65760405162461bcd60e51b8152602060048201526012602482015271125b9d985b1a590818dbdb5b5a5d1b595b9d60721b60448201526064015b60405180910390fd5b6000868152600260208190526040909120015460ff1661033f5760405162461bcd60e51b815260206004820152601460248201527315985d5b1d08191bd95cc81b9bdd08195e1a5cdd60621b60448201526064016102dd565b845161037d5760405162461bcd60e51b815260206004820152600d60248201526c24b73b30b634b210383937b7b360991b60448201526064016102dd565b60008681526002602090815260408083208784529091529020548211156103dd5760405162461bcd60e51b8152602060048201526014602482015273496e73756666696369656e742062616c616e636560601b60448201526064016102dd565b600086815260026020908152604080832087845290915281208054849290610406908490610c92565b9091555050600086815260026020908152604080832086845290915281208054849290610434908490610cab565b909155505060405142815286907f8f3dba1073f4b750e9392983cbbdd0d9b7e8380008bdda0e7683e3c3aa5c5189906020015b60405180910390a2505050505050565b60008581526001602052604090205460ff16156104cf5760405162461bcd60e51b8152602060048201526016602482015275139d5b1b1a599a595c88185b1c9958591e481d5cd95960521b60448201526064016102dd565b60006104de8686868686610974565b60008181526020819052604090205490915060ff166105345760405162461bcd60e51b8152602060048201526012602482015271125b9d985b1a590818dbdb5b5a5d1b595b9d60721b60448201526064016102dd565b60008181526002602090815260408083208784529091529020548311156105945760405162461bcd60e51b8152602060048201526014602482015273496e73756666696369656e742062616c616e636560601b60448201526064016102dd565b6000868152600160208181526040808420805460ff1916909317909255838352600281528183208784529052812080548592906105d2908490610c92565b9091555050604080516001600160a01b03871681526020810186905290810184905286907f6928a2a6f045977f49c7e8bf1e30a9b1cdac779a942eb55bc2166895b9c7788890606001610467565b60055460009081036106325750600090565b60056040516020016106449190610cbe565b60405160208183030381529060405280519060200120905090565b6004546001600160a01b031633146106b55760405162461bcd60e51b81526020600482015260196024820152784f6e6c7920636f6d706c69616e636520617574686f7269747960381b60448201526064016102dd565b6001600160a01b038316600081815260036020908152604091829020805460ff1916600190811790915591519182527f0c1dcc7403a9d518716ddd7c0d97e08e0ce57a8600970f46d6f8500d83b6c5ea910160405180910390a2505050565b3360008181526003602052604090205460ff166107735760405162461bcd60e51b815260206004820152601e60248201527f496e76616c696420636f6d706c69616e6365206365727469666963617465000060448201526064016102dd565b60008681526020819052604090205460ff16156107d25760405162461bcd60e51b815260206004820152601760248201527f436f6d6d69746d656e7420616c7265616479207573656400000000000000000060448201526064016102dd565b600086815260208181526040808320805460ff19166001179055600282528083208884529091528120805486929061080b908490610cab565b90915550506000868152600260208190526040822001805460ff19166001908117909155600580548083018255928190527f036b6384b5eca791c62761152d0c79bb0604c104a5fb6f4eb0703f3154bb3db0909201889055905461086f9190610c92565b600087815260066020908152604091829020929092555142815287917f02d0beb141922199e99106aa1e9e523add96e905baf9299bfb1042acd145bf5c9101610467565b600581815481106108c357600080fd5b600091825260209091200154905081565b6004546001600160a01b0316331461092a5760405162461bcd60e51b81526020600482015260196024820152784f6e6c7920636f6d706c69616e636520617574686f7269747960381b60448201526064016102dd565b600480546001600160a01b0319166001600160a01b0383169081179091556040517f829c4ef70a1fb0edb9daa0db5c77d61190e746db94bce7dc78fee99d04fb409990600090a250565b60006020825110156109b85760405162461bcd60e51b815260206004820152600d60248201526c24b73b30b634b210383937b7b360991b60448201526064016102dd565b5060200151949350505050565b6000602082840312156109d757600080fd5b5035919050565b634e487b7160e01b600052604160045260246000fd5b600082601f830112610a0557600080fd5b813567ffffffffffffffff80821115610a2057610a206109de565b604051601f8301601f19908116603f01168101908282118183101715610a4857610a486109de565b81604052838152866020858801011115610a6157600080fd5b836020870160208301376000602085830101528094505050505092915050565b60008060008060008060c08789031215610a9a57600080fd5b86359550602087013567ffffffffffffffff811115610ab857600080fd5b610ac489828a016109f4565b96999698505050506040850135946060810135946080820135945060a09091013592509050565b80356001600160a01b0381168114610b0257600080fd5b919050565b600080600080600060a08688031215610b1f57600080fd5b85359450610b2f60208701610aeb565b93506040860135925060608601359150608086013567ffffffffffffffff811115610b5957600080fd5b610b65888289016109f4565b9150509295509295909350565b600080600060608486031215610b8757600080fd5b610b9084610aeb565b9250602084013567ffffffffffffffff80821115610bad57600080fd5b610bb9878388016109f4565b93506040860135915080821115610bcf57600080fd5b50610bdc868287016109f4565b9150509250925092565b600060208284031215610bf857600080fd5b610c0182610aeb565b9392505050565b600080600080600060a08688031215610c2057600080fd5b853594506020860135935060408601359250606086013567ffffffffffffffff80821115610c4d57600080fd5b610c5989838a016109f4565b93506080880135915080821115610c6f57600080fd5b50610b65888289016109f4565b634e487b7160e01b600052601160045260246000fd5b81810381811115610ca557610ca5610c7c565b92915050565b80820180821115610ca557610ca5610c7c565b60008183548391508460005260208060002060005b83811015610cef57815485529382019360019182019101610cd3565b5092969550505050505056fea2646970667358221220896e6318b1896141f28e87f250eacc33a69efd93a058b8410ccb9c97c41d966864736f6c63430008130033",
  "linkReferences": {},
  "deployedLinkReferences": {}
}