{
  "_format": "hh-sol-artifact-1",
  "contractName": "HyperliquidEVMTrading",
  "sourceName": "contracts/HyperliquidEVMTrading.sol",
  "abi": [
    {
      "inputs": [
        {
          "internalType": "address",
          "name": "_sp1Verifier",
          "type": "address"
        },
        {
          "internalType": "address",
          "name": "_depositContract",
          "type": "address"
        }
      ],
      "stateMutability": "nonpayable",
      "type": "constructor"
    },
    {
      "anonymous": false,
      "inputs": [
        {
          "indexed": true,
          "internalType": "bytes32",
          "name": "commitment",
          "type": "bytes32"
        },
        {
          "indexed": true,
          "internalType": "address",
          "name": "user",
          "type": "address"
        },
        {
          "indexed": false,
          "internalType": "uint32",
          "name": "fromAsset",
          "type": "uint32"
        },
        {
          "indexed": false,
          "internalType": "uint32",
          "name": "toAsset",
          "type": "uint32"
        },
        {
          "indexed": false,
          "internalType": "uint256",
          "name": "fromAmount",
          "type": "uint256"
        },
        {
          "indexed": false,
          "internalType": "uint256",
          "name": "toAmount",
          "type": "uint256"
        },
        {
          "indexed": false,
          "internalType": "uint256",
          "name": "tradeId",
          "type": "uint256"
        },
        {
          "indexed": false,
          "internalType": "uint256",
          "name": "timestamp",
          "type": "uint256"
        }
      ],
      "name": "PrivateEVMTrade",
      "type": "event"
    },
    {
      "inputs": [
        {
          "internalType": "bytes32",
          "name": "",
          "type": "bytes32"
        },
        {
          "internalType": "uint32",
          "name": "",
          "type": "uint32"
        }
      ],
      "name": "commitmentBalances",
      "outputs": [
        {
          "internalType": "uint256",
          "name": "",
          "type": "uint256"
        }
      ],
      "stateMutability": "view",
      "type": "function"
    },
    {
      "inputs": [],
      "name": "depositContract",
      "outputs": [
        {
          "internalType": "contract IDepositContract",
          "name": "",
          "type": "address"
        }
      ],
      "stateMutability": "view",
      "type": "function"
    },
    {
      "inputs": [],
      "name": "emergencyWithdraw",
      "outputs": [],
      "stateMutability": "nonpayable",
      "type": "function"
    },
    {
      "inputs": [
        {
          "internalType": "bytes32",
          "name": "commitment",
          "type": "bytes32"
        },
        {
          "internalType": "uint32",
          "name": "asset",
          "type": "uint32"
        }
      ],
      "name": "getCommitmentBalance",
      "outputs": [
        {
          "internalType": "uint256",
          "name": "balance",
          "type": "uint256"
        }
      ],
      "stateMutability": "view",
      "type": "function"
    },
    {
      "inputs": [],
      "name": "getMerkleRoot",
      "outputs": [
        {
          "internalType": "bytes32",
          "name": "root",
          "type": "bytes32"
        }
      ],
      "stateMutability": "view",
      "type": "function"
    },
    {
      "inputs": [
        {
          "internalType": "bytes32",
          "name": "commitment",
          "type": "bytes32"
        },
        {
          "internalType": "uint32",
          "name": "asset",
          "type": "uint32"
        },
        {
          "internalType": "uint256",
          "name": "amount",
          "type": "uint256"
        }
      ],
      "name": "initializeCommitmentBalance",
      "outputs": [],
      "stateMutability": "nonpayable",
      "type": "function"
    },
    {
      "inputs": [
        {
          "internalType": "bytes32",
          "name": "commitment",
          "type": "bytes32"
        }
      ],
      "name": "isCommitmentValid",
      "outputs": [
        {
          "internalType": "bool",
          "name": "valid",
          "type": "bool"
        }
      ],
      "stateMutability": "view",
      "type": "function"
    },
    {
      "inputs": [],
      "name": "owner",
      "outputs": [
        {
          "internalType": "address",
          "name": "",
          "type": "address"
        }
      ],
      "stateMutability": "view",
      "type": "function"
    },
    {
      "inputs": [
        {
          "internalType": "bytes",
          "name": "tradeProof",
          "type": "bytes"
        },
        {
          "internalType": "bytes",
          "name": "publicValues",
          "type": "bytes"
        }
      ],
      "name": "privateEVMTrade",
      "outputs": [
        {
          "internalType": "uint256",
          "name": "tradeId",
          "type": "uint256"
        }
      ],
      "stateMutability": "nonpayable",
      "type": "function"
    },
    {
      "inputs": [],
      "name": "sp1Verifier",
      "outputs": [
        {
          "internalType": "contract ISP1Verifier",
          "name": "",
          "type": "address"
        }
      ],
      "stateMutability": "view",
      "type": "function"
    },
    {
      "inputs": [],
      "name": "tradeCounter",
      "outputs": [
        {
          "internalType": "uint256",
          "name": "",
          "type": "uint256"
        }
      ],
      "stateMutability": "view",
      "type": "function"
    },
    {
      "inputs": [
        {
          "internalType": "address",
          "name": "newOwner",
          "type": "address"
        }
      ],
      "name": "transferOwnership",
      "outputs": [],
      "stateMutability": "nonpayable",
      "type": "function"
    },
    {
      "inputs": [
        {
          "internalType": "bytes32",
          "name": "",
          "type": "bytes32"
        }
      ],
      "name": "usedCommitments",
      "outputs": [
        {
          "internalType": "bool",
          "name": "",
          "type": "bool"
        }
      ],
      "stateMutability": "view",
      "type": "function"
    }
  ],
  "bytecode": "0x60c060405234801561001057600080fd5b50604051610f9c380380610f9c83398101604081905261002f91610079565b6001600160a01b039182166080521660a052600280546001600160a01b0319163317905560016003556100ac565b80516001600160a01b038116811461007457600080fd5b919050565b6000806040838503121561008c57600080fd5b6100958361005d565b91506100a36020840161005d565b90509250929050565b60805160a051610ea16100fb6000396000818161021e01528181610269015281816103bb015281816104380152818161053301526105e901526000818161012c01526106c80152610ea16000f3fe608060405234801561001057600080fd5b50600436106100cf5760003560e01c80636fea68cd1161008c5780639247a8b6116100665780639247a8b6146101fe578063db2e21bc14610211578063e94ad65b14610219578063f2fde38b1461024057600080fd5b80636fea68cd146101975780638da5cb5b146101c857806391402039146101db57600080fd5b806326c67d81146100d457806342ffdb99146100e9578063495906571461011157806352a07fa31461012757806359c55de414610166578063660d15b51461018e575b600080fd5b6100e76100e2366004610b3a565b610253565b005b6100fc6100f7366004610b6f565b6103a2565b60405190151581526020015b60405180910390f35b610119610434565b604051908152602001610108565b61014e7f000000000000000000000000000000000000000000000000000000000000000081565b6040516001600160a01b039091168152602001610108565b610119610174366004610b88565b600060208181529281526040808220909352908152205481565b61011960035481565b6101196101a5366004610b88565b60009182526020828152604080842063ffffffff93909316845291905290205490565b60025461014e906001600160a01b031681565b6100fc6101e9366004610b6f565b60016020526000908152604090205460ff1681565b61011961020c366004610bfd565b6104bd565b6100e7610960565b61014e7f000000000000000000000000000000000000000000000000000000000000000081565b6100e761024e366004610c80565b6109ee565b60405163839df94560e01b8152600481018490527f00000000000000000000000000000000000000000000000000000000000000006001600160a01b03169063839df94590602401602060405180830381865afa1580156102b8573d6000803e3d6000fd5b505050506040513d601f19601f820116820180604052508101906102dc9190610c9b565b6103225760405162461bcd60e51b8152602060048201526012602482015271125b9d985b1a590818dbdb5b5a5d1b595b9d60721b60448201526064015b60405180910390fd5b60008381526001602052604090205460ff16156103815760405162461bcd60e51b815260206004820152601760248201527f436f6d6d69746d656e7420616c726561647920757365640000000000000000006044820152606401610319565b60009283526020838152604080852063ffffffff9094168552929052912055565b60405163839df94560e01b8152600481018290526000907f00000000000000000000000000000000000000000000000000000000000000006001600160a01b03169063839df94590602401602060405180830381865afa15801561040a573d6000803e3d6000fd5b505050506040513d601f19601f8201168201806040525081019061042e9190610c9b565b92915050565b60007f00000000000000000000000000000000000000000000000000000000000000006001600160a01b031663495906576040518163ffffffff1660e01b8152600401602060405180830381865afa158015610494573d6000803e3d6000fd5b505050506040513d601f19601f820116820180604052508101906104b89190610cbd565b905090565b6000806104cc83850185610cd6565b60208101519091506001600160a01b0316331461051a5760405162461bcd60e51b815260206004820152600c60248201526b24b73b30b634b2103ab9b2b960a11b6044820152606401610319565b805160405163839df94560e01b815260048101919091527f00000000000000000000000000000000000000000000000000000000000000006001600160a01b03169063839df94590602401602060405180830381865afa158015610582573d6000803e3d6000fd5b505050506040513d601f19601f820116820180604052508101906105a69190610c9b565b6105e75760405162461bcd60e51b8152602060048201526012602482015271125b9d985b1a590818dbdb5b5a5d1b595b9d60721b6044820152606401610319565b7f00000000000000000000000000000000000000000000000000000000000000006001600160a01b031663495906576040518163ffffffff1660e01b8152600401602060405180830381865afa158015610645573d6000803e3d6000fd5b505050506040513d601f19601f820116820180604052508101906106699190610cbd565b8160c00151146106b15760405162461bcd60e51b8152602060048201526013602482015272125b9d985b1a59081b595c9adb19481c9bdbdd606a1b6044820152606401610319565b60405163020a49e360e51b81526001600160a01b037f000000000000000000000000000000000000000000000000000000000000000016906341493c6090610724907e8484840d42565b9589f5c37253789d3731407964b1537fb5cf9d6064226b1c90889088908c908c90600401610da4565b60006040518083038186803b15801561073c57600080fd5b505afa158015610750573d6000803e3d6000fd5b505082516000908152602081815260408083208187015163ffffffff168452909152902054608084015190925082101590506107ce5760405162461bcd60e51b815260206004820152601f60248201527f496e73756666696369656e7420636f6d6d69746d656e742062616c616e6365006044820152606401610319565b60006107e7836040015184606001518560800151610a9e565b90508260a0015181101561083d5760405162461bcd60e51b815260206004820152601a60248201527f496e73756666696369656e74206f757470757420616d6f756e740000000000006044820152606401610319565b608083015183516000908152602081815260408083208188015163ffffffff16845290915281208054909190610874908490610df3565b90915550508251600090815260208181526040808320606087015163ffffffff168452909152812080548392906108ac908490610e06565b9091555050600380549060006108c183610e19565b91905055935082602001516001600160a01b031683600001517f6601a363df1fe982c04bc27bb7ba9ef36b958bc96184b6e7d687c765844171f0856040015186606001518760800151868a4260405161094d9695949392919063ffffffff968716815294909516602085015260408401929092526060830152608082015260a081019190915260c00190565b60405180910390a3505050949350505050565b6002546001600160a01b031633146109a65760405162461bcd60e51b81526020600482015260096024820152682737ba1037bbb732b960b91b6044820152606401610319565b60405162461bcd60e51b815260206004820152601b60248201527f4e6f20656d657267656e637920616374696f6e20646566696e656400000000006044820152606401610319565b6002546001600160a01b03163314610a345760405162461bcd60e51b81526020600482015260096024820152682737ba1037bbb732b960b91b6044820152606401610319565b6001600160a01b038116610a7c5760405162461bcd60e51b815260206004820152600f60248201526e496e76616c6964206164647265737360881b6044820152606401610319565b600280546001600160a01b0319166001600160a01b0392909216919091179055565b60008263ffffffff168463ffffffff1603610aba575080610b1a565b8363ffffffff166001148015610ad4575063ffffffff8316155b15610aec57610ae582610bb8610e32565b9050610b1a565b63ffffffff8416158015610b0657508263ffffffff166001145b15610b1757610ae5610bb883610e49565b50805b9392505050565b803563ffffffff81168114610b3557600080fd5b919050565b600080600060608486031215610b4f57600080fd5b83359250610b5f60208501610b21565b9150604084013590509250925092565b600060208284031215610b8157600080fd5b5035919050565b60008060408385031215610b9b57600080fd5b82359150610bab60208401610b21565b90509250929050565b60008083601f840112610bc657600080fd5b50813567ffffffffffffffff811115610bde57600080fd5b602083019150836020828501011115610bf657600080fd5b9250929050565b60008060008060408587031215610c1357600080fd5b843567ffffffffffffffff80821115610c2b57600080fd5b610c3788838901610bb4565b90965094506020870135915080821115610c5057600080fd5b50610c5d87828801610bb4565b95989497509550505050565b80356001600160a01b0381168114610b3557600080fd5b600060208284031215610c9257600080fd5b610b1a82610c69565b600060208284031215610cad57600080fd5b81518015158114610b1a57600080fd5b600060208284031215610ccf57600080fd5b5051919050565b600060e08284031215610ce857600080fd5b60405160e0810181811067ffffffffffffffff82111715610d1957634e487b7160e01b600052604160045260246000fd5b60405282358152610d2c60208401610c69565b6020820152610d3d60408401610b21565b6040820152610d4e60608401610b21565b60608201526080830135608082015260a083013560a082015260c083013560c08201528091505092915050565b81835281816020850137506000828201602090810191909152601f909101601f19169091010190565b858152606060208201526000610dbe606083018688610d7b565b8281036040840152610dd1818587610d7b565b98975050505050505050565b634e487b7160e01b600052601160045260246000fd5b8181038181111561042e5761042e610ddd565b8082018082111561042e5761042e610ddd565b600060018201610e2b57610e2b610ddd565b5060010190565b808202811582820484141761042e5761042e610ddd565b600082610e6657634e487b7160e01b600052601260045260246000fd5b50049056fea2646970667358221220b32f998a5b90943d087a996e04832f853b4366c2f8547c4e236bbb8c0ebe05fe64736f6c63430008140033",
  "linkReferences": {},
  "deployedLinkReferences": {}
}