{
  "_format": "hh-sol-artifact-1",
  "contractName": "HyperliquidPrivacySystemEVM",
  "sourceName": "contracts/HyperliquidPrivacySystemEVM.sol",
  "abi": [
    {
      "inputs": [
        {
          "internalType": "address",
          "name": "_sp1Verifier",
          "type": "address"
        },
        {
          "internalType": "address",
          "name": "_complianceAuthority",
          "type": "address"
        }
      ],
      "stateMutability": "nonpayable",
      "type": "constructor"
    },
    {
      "anonymous": false,
      "inputs": [
        {
          "indexed": true,
          "internalType": "bytes32",
          "name": "commitment",
          "type": "bytes32"
        },
        {
          "indexed": false,
          "internalType": "uint256",
          "name": "timestamp",
          "type": "uint256"
        }
      ],
      "name": "PrivateDeposit",
      "type": "event"
    },
    {
      "anonymous": false,
      "inputs": [
        {
          "indexed": true,
          "internalType": "address",
          "name": "user",
          "type": "address"
        },
        {
          "indexed": false,
          "internalType": "uint32",
          "name": "coin",
          "type": "uint32"
        },
        {
          "indexed": false,
          "internalType": "bool",
          "name": "isBuy",
          "type": "bool"
        },
        {
          "indexed": false,
          "internalType": "uint64",
          "name": "sz",
          "type": "uint64"
        },
        {
          "indexed": false,
          "internalType": "uint256",
          "name": "timestamp",
          "type": "uint256"
        }
      ],
      "name": "PrivateSpotTrade",
      "type": "event"
    },
    {
      "anonymous": false,
      "inputs": [
        {
          "indexed": true,
          "internalType": "bytes32",
          "name": "nullifier",
          "type": "bytes32"
        },
        {
          "indexed": false,
          "internalType": "uint256",
          "name": "timestamp",
          "type": "uint256"
        }
      ],
      "name": "PrivateWithdraw",
      "type": "event"
    },
    {
      "anonymous": false,
      "inputs": [
        {
          "indexed": true,
          "internalType": "uint64",
          "name": "tokenId",
          "type": "uint64"
        },
        {
          "indexed": false,
          "internalType": "address",
          "name": "tokenAddress",
          "type": "address"
        }
      ],
      "name": "TokenAdded",
      "type": "event"
    },
    {
      "stateMutability": "payable",
      "type": "fallback"
    },
    {
      "inputs": [
        {
          "internalType": "uint64",
          "name": "tokenId",
          "type": "uint64"
        },
        {
          "internalType": "address",
          "name": "tokenAddress",
          "type": "address"
        }
      ],
      "name": "addToken",
      "outputs": [],
      "stateMutability": "nonpayable",
      "type": "function"
    },
    {
      "inputs": [
        {
          "internalType": "address[]",
          "name": "tokens",
          "type": "address[]"
        }
      ],
      "name": "approveDexForTokens",
      "outputs": [],
      "stateMutability": "nonpayable",
      "type": "function"
    },
    {
      "inputs": [
        {
          "internalType": "address",
          "name": "user",
          "type": "address"
        }
      ],
      "name": "canCompleteDeposit",
      "outputs": [
        {
          "internalType": "bool",
          "name": "",
          "type": "bool"
        }
      ],
      "stateMutability": "view",
      "type": "function"
    },
    {
      "inputs": [
        {
          "internalType": "uint256",
          "name": "",
          "type": "uint256"
        }
      ],
      "name": "commitmentMerkleTree",
      "outputs": [
        {
          "internalType": "bytes32",
          "name": "",
          "type": "bytes32"
        }
      ],
      "stateMutability": "view",
      "type": "function"
    },
    {
      "inputs": [
        {
          "internalType": "bytes32",
          "name": "",
          "type": "bytes32"
        }
      ],
      "name": "commitments",
      "outputs": [
        {
          "internalType": "bool",
          "name": "",
          "type": "bool"
        }
      ],
      "stateMutability": "view",
      "type": "function"
    },
    {
      "inputs": [
        {
          "internalType": "bytes32",
          "name": "commitment",
          "type": "bytes32"
        },
        {
          "internalType": "bytes",
          "name": "complianceProof",
          "type": "bytes"
        },
        {
          "internalType": "bytes",
          "name": "publicValues",
          "type": "bytes"
        }
      ],
      "name": "completeDeposit",
      "outputs": [],
      "stateMutability": "nonpayable",
      "type": "function"
    },
    {
      "inputs": [],
      "name": "complianceAuthority",
      "outputs": [
        {
          "internalType": "address",
          "name": "",
          "type": "address"
        }
      ],
      "stateMutability": "view",
      "type": "function"
    },
    {
      "inputs": [],
      "name": "dexExtension",
      "outputs": [
        {
          "internalType": "address",
          "name": "",
          "type": "address"
        }
      ],
      "stateMutability": "view",
      "type": "function"
    },
    {
      "inputs": [],
      "name": "getMerkleRoot",
      "outputs": [
        {
          "internalType": "bytes32",
          "name": "",
          "type": "bytes32"
        }
      ],
      "stateMutability": "view",
      "type": "function"
    },
    {
      "inputs": [
        {
          "internalType": "address",
          "name": "user",
          "type": "address"
        }
      ],
      "name": "getPendingDeposit",
      "outputs": [
        {
          "components": [
            {
              "internalType": "uint64",
              "name": "token",
              "type": "uint64"
            },
            {
              "internalType": "uint256",
              "name": "amount",
              "type": "uint256"
            },
            {
              "internalType": "uint256",
              "name": "contractBalanceBefore",
              "type": "uint256"
            },
            {
              "internalType": "uint256",
              "name": "timestamp",
              "type": "uint256"
            },
            {
              "internalType": "bool",
              "name": "completed",
              "type": "bool"
            }
          ],
          "internalType": "struct HyperliquidPrivacySystemEVM.PendingDeposit",
          "name": "",
          "type": "tuple"
        }
      ],
      "stateMutability": "view",
      "type": "function"
    },
    {
      "inputs": [
        {
          "internalType": "bytes32",
          "name": "",
          "type": "bytes32"
        }
      ],
      "name": "nullifiers",
      "outputs": [
        {
          "internalType": "bool",
          "name": "",
          "type": "bool"
        }
      ],
      "stateMutability": "view",
      "type": "function"
    },
    {
      "inputs": [],
      "name": "owner",
      "outputs": [
        {
          "internalType": "address",
          "name": "",
          "type": "address"
        }
      ],
      "stateMutability": "view",
      "type": "function"
    },
    {
      "inputs": [
        {
          "internalType": "address",
          "name": "",
          "type": "address"
        }
      ],
      "name": "pendingDeposits",
      "outputs": [
        {
          "internalType": "uint64",
          "name": "token",
          "type": "uint64"
        },
        {
          "internalType": "uint256",
          "name": "amount",
          "type": "uint256"
        },
        {
          "internalType": "uint256",
          "name": "contractBalanceBefore",
          "type": "uint256"
        },
        {
          "internalType": "uint256",
          "name": "timestamp",
          "type": "uint256"
        },
        {
          "internalType": "bool",
          "name": "completed",
          "type": "bool"
        }
      ],
      "stateMutability": "view",
      "type": "function"
    },
    {
      "inputs": [
        {
          "internalType": "uint64",
          "name": "token",
          "type": "uint64"
        },
        {
          "internalType": "uint256",
          "name": "amount",
          "type": "uint256"
        }
      ],
      "name": "prepareDeposit",
      "outputs": [],
      "stateMutability": "nonpayable",
      "type": "function"
    },
    {
      "inputs": [
        {
          "internalType": "bytes",
          "name": "tradeProof",
          "type": "bytes"
        },
        {
          "internalType": "bytes",
          "name": "publicValues",
          "type": "bytes"
        }
      ],
      "name": "privateSpotTrade",
      "outputs": [],
      "stateMutability": "nonpayable",
      "type": "function"
    },
    {
      "inputs": [
        {
          "internalType": "address",
          "name": "_dexExtension",
          "type": "address"
        }
      ],
      "name": "setDexExtension",
      "outputs": [],
      "stateMutability": "nonpayable",
      "type": "function"
    },
    {
      "inputs": [],
      "name": "sp1Verifier",
      "outputs": [
        {
          "internalType": "contract ISP1Verifier",
          "name": "",
          "type": "address"
        }
      ],
      "stateMutability": "view",
      "type": "function"
    },
    {
      "inputs": [
        {
          "internalType": "uint64",
          "name": "",
          "type": "uint64"
        }
      ],
      "name": "tokenAddresses",
      "outputs": [
        {
          "internalType": "address",
          "name": "",
          "type": "address"
        }
      ],
      "stateMutability": "view",
      "type": "function"
    },
    {
      "inputs": [
        {
          "internalType": "bytes32",
          "name": "nullifier",
          "type": "bytes32"
        },
        {
          "internalType": "address",
          "name": "recipient",
          "type": "address"
        },
        {
          "internalType": "uint64",
          "name": "token",
          "type": "uint64"
        },
        {
          "internalType": "uint256",
          "name": "amount",
          "type": "uint256"
        },
        {
          "internalType": "bytes",
          "name": "balanceProof",
          "type": "bytes"
        },
        {
          "internalType": "bytes",
          "name": "publicValues",
          "type": "bytes"
        }
      ],
      "name": "withdraw",
      "outputs": [],
      "stateMutability": "nonpayable",
      "type": "function"
    },
    {
      "stateMutability": "payable",
      "type": "receive"
    }
  ],
  "bytecode": "0x60806040523480156200001157600080fd5b5060405162001eb738038062001eb7833981016040819052620000349162000093565b600080546001600160a01b039384166001600160a01b0319918216179091556001805492909316918116919091179091556002805490911633179055620000cb565b80516001600160a01b03811681146200008e57600080fd5b919050565b60008060408385031215620000a757600080fd5b620000b28362000076565b9150620000c26020840162000076565b90509250929050565b611ddc80620000db6000396000f3fe60806040526004361061010c5760003560e01c806394137c901161009a578063d43ffa2f11610061578063d43ffa2f14610372578063d4a82dc514610392578063eb3349b9146103b2578063f382affa1461043d578063ffc21d5e1461045d57005b806394137c901461028557806398ffd550146102a5578063b54fcff9146102c5578063b70773c0146102e5578063c76cfd051461035257005b806352a07fa3116100de57806352a07fa3146101d557806380b4a153146101f5578063839df945146102155780638da5cb5b14610245578063929f9a381461026557005b80632997e86b14610115578063309f477a1461015a5780633cf4835f1461019257806349590657146101b257005b3661011357005b005b34801561012157600080fd5b5061014561013036600461172d565b60066020526000908152604090205460ff1681565b60405190151581526020015b60405180910390f35b34801561016657600080fd5b5060015461017a906001600160a01b031681565b6040516001600160a01b039091168152602001610151565b34801561019e57600080fd5b506101136101ad366004611762565b610493565b3480156101be57600080fd5b506101c7610501565b604051908152602001610151565b3480156101e157600080fd5b5060005461017a906001600160a01b031681565b34801561020157600080fd5b50610113610210366004611784565b6105ae565b34801561022157600080fd5b5061014561023036600461172d565b60056020526000908152604090205460ff1681565b34801561025157600080fd5b5060025461017a906001600160a01b031681565b34801561027157600080fd5b50610113610280366004611863565b61073e565b34801561029157600080fd5b506101456102a0366004611762565b6109e2565b3480156102b157600080fd5b506101136102c0366004611908565b6109f3565b3480156102d157600080fd5b506101136102e036600461193d565b610ab9565b3480156102f157600080fd5b50610305610300366004611762565b610f69565b6040516101519190600060a0820190506001600160401b03835116825260208301516020830152604083015160408301526060830151606083015260808301511515608083015292915050565b34801561035e57600080fd5b5060035461017a906001600160a01b031681565b34801561037e57600080fd5b5061011361038d3660046119a8565b61100c565b34801561039e57600080fd5b506101c76103ad36600461172d565b6112dd565b3480156103be57600080fd5b506104096103cd366004611762565b600860205260009081526040902080546001820154600283015460038401546004909401546001600160401b0390931693919290919060ff1685565b604080516001600160401b03909616865260208601949094529284019190915260608301521515608082015260a001610151565b34801561044957600080fd5b50610113610458366004611a21565b6112fe565b34801561046957600080fd5b5061017a610478366004611a4d565b6004602052600090815260409020546001600160a01b031681565b6002546001600160a01b031633146104df5760405162461bcd60e51b815260206004820152600a60248201526927b7363c9037bbb732b960b11b60448201526064015b60405180910390fd5b600380546001600160a01b0319166001600160a01b0392909216919091179055565b60075460009081036105135750600090565b6000600760008154811061052957610529611a6a565b600091825260209091200154905060015b6007548110156105a857816007828154811061055857610558611a6a565b906000526020600020015460405160200161057d929190918252602082015260400190565b60405160208183030381529060405280519060200120915080806105a090611a96565b91505061053a565b50919050565b6002546001600160a01b031633146105f55760405162461bcd60e51b815260206004820152600a60248201526927b7363c9037bbb732b960b11b60448201526064016104d6565b6003546001600160a01b03166106455760405162461bcd60e51b815260206004820152601560248201527411115608195e1d195b9cda5bdb881b9bdd081cd95d605a1b60448201526064016104d6565b60005b8181101561073957600083838381811061066457610664611a6a565b90506020020160208101906106799190611762565b6001600160a01b0316146107275782828281811061069957610699611a6a565b90506020020160208101906106ae9190611762565b60035460405163095ea7b360e01b81526001600160a01b039182166004820152600019602482015291169063095ea7b3906044016020604051808303816000875af1158015610701573d6000803e3d6000fd5b505050506040513d601f19601f820116820180604052508101906107259190611abd565b505b8061073181611a96565b915050610648565b505050565b60008881526006602052604090205460ff16156107965760405162461bcd60e51b8152602060048201526016602482015275139d5b1b1a599a595c88185b1c9958591e481d5cd95960521b60448201526064016104d6565b6001600160401b0386166000908152600460205260409020546001600160a01b03161515806107cc57506001600160401b038616155b6107e85760405162461bcd60e51b81526004016104d690611ada565b60006107f682840184611b6d565b9050610800610501565b8160200151146108485760405162461bcd60e51b8152602060048201526013602482015272125b9d985b1a59081b595c9adb19481c9bdbdd606a1b60448201526064016104d6565b858160400151101561089c5760405162461bcd60e51b815260206004820152601b60248201527f496e73756666696369656e742070726f76656e2062616c616e6365000000000060448201526064016104d6565b866001600160401b031681606001516001600160401b0316146108f25760405162461bcd60e51b815260206004820152600e60248201526d082e6e6cae840dad2e6dac2e8c6d60931b60448201526064016104d6565b60005460405163020a49e360e51b81526001600160a01b03909116906341493c6090610949907e9c22b4f95fb710070dc80cfce7526c4cc7780834ab328bd769ff58934e6d0590879087908b908b90600401611be2565b60006040518083038186803b15801561096157600080fd5b505afa158015610975573d6000803e3d6000fd5b50505060008a8152600660205260409020805460ff191660011790555061099d878988611431565b887fcc9580996e4c53ac7e73439f181e208ab15831ea2d2429dd12ee742c1c475b6f426040516109cf91815260200190565b60405180910390a2505050505050505050565b60006109ed8261155b565b92915050565b6001546001600160a01b03163314610a4d5760405162461bcd60e51b815260206004820152601960248201527f4f6e6c7920636f6d706c69616e636520617574686f726974790000000000000060448201526064016104d6565b6001600160401b03821660008181526004602090815260409182902080546001600160a01b0319166001600160a01b03861690811790915591519182527f4c033c7cff3d5550ac33240c2f1c3e0956d087b14191141d9eb5ff40beb54722910160405180910390a25050565b6000610ac782840184611c26565b80519091506001600160a01b03163314610b125760405162461bcd60e51b815260206004820152600c60248201526b24b73b30b634b2103ab9b2b960a11b60448201526064016104d6565b610b1a610501565b8160c0015114610b625760405162461bcd60e51b8152602060048201526013602482015272125b9d985b1a59081b595c9adb19481c9bdbdd606a1b60448201526064016104d6565b60005460405163020a49e360e51b81526001600160a01b03909116906341493c6090610bb9907e9c22b4f95fb710070dc80cfce7526c4cc7780834ab328bd769ff58934e6d0590879087908b908b90600401611be2565b60006040518083038186803b158015610bd157600080fd5b505afa158015610be5573d6000803e3d6000fd5b505050506020810151604051630aa337a160e11b815233600482015263ffffffff9091166024820152600090610801906315466f4290604401602060405180830381865afa158015610c3b573d6000803e3d6000fd5b505050506040513d601f19601f82011682018060405250810190610c5f9190611cbf565b90508160a001516001600160401b0316816001600160401b03161015610cc75760405162461bcd60e51b815260206004820152601e60248201527f496e73756666696369656e742062616c616e636520666f72207472616465000060448201526064016104d6565b602082015160405163c0f0f5ef60e01b815263ffffffff90911660048201526000906108079063c0f0f5ef90602401602060405180830381865afa158015610d13573d6000803e3d6000fd5b505050506040513d601f19601f82011682018060405250810190610d379190611cbf565b90506000816001600160401b031611610d895760405162461bcd60e51b8152602060048201526014602482015273496e76616c6964206f7261636c6520707269636560601b60448201526064016104d6565b600042338560200151604051602001610dd49392919092835260609190911b6bffffffffffffffffffffffff1916602083015260e01b6001600160e01b031916603482015260380190565b60408051808303601f19018152828252805160209182012090870151918701516060880151608089015163643da8c960e11b865263ffffffff909416600486015290151560248501526001600160401b0390811660448501529182166064840152908116608483015291506000907333333333333333333333333333333333333333339063c87b51929060a4016020604051808303816000875af1158015610e80573d6000803e3d6000fd5b505050506040513d601f19601f82011682018060405250810190610ea49190611abd565b905080610ef35760405162461bcd60e51b815260206004820152601b60248201527f53706f7420747261646520657865637574696f6e206661696c6564000000000060448201526064016104d6565b84600001516001600160a01b03167fcab583235985ee4b47d2aac25644214206ffe47f9dbb8c53cc22adf78bc9dfbf866020015187604001518860800151426040516109cf949392919063ffffffff94909416845291151560208401526001600160401b03166040830152606082015260800190565b610fa66040518060a0016040528060006001600160401b031681526020016000815260200160008152602001600081526020016000151581525090565b506001600160a01b0316600090815260086020908152604091829020825160a08101845281546001600160401b031681526001820154928101929092526002810154928201929092526003820154606082015260049091015460ff161515608082015290565b6110153361155b565b6110615760405162461bcd60e51b815260206004820152601860248201527f4e6f2076616c69642070656e64696e67206465706f736974000000000000000060448201526064016104d6565b60008581526005602052604090205460ff16156110c05760405162461bcd60e51b815260206004820152601760248201527f436f6d6d69746d656e7420616c7265616479207573656400000000000000000060448201526064016104d6565b60006110ce82840184611cdc565b805190915086146111175760405162461bcd60e51b8152602060048201526013602482015272086dedadad2e8dacadce840dad2e6dac2e8c6d606b1b60448201526064016104d6565b60015460208201516001600160a01b0390811691161461116d5760405162461bcd60e51b8152602060048201526011602482015270496e76616c696420617574686f7269747960781b60448201526064016104d6565b428160400151116111b65760405162461bcd60e51b815260206004820152601360248201527210d95c9d1a599a58d85d1948195e1c1a5c9959606a1b60448201526064016104d6565b60005460405163020a49e360e51b81526001600160a01b03909116906341493c609061120d907eed1611619b8f2866de7be17d81a9d42a869b4c5959629708f125ae34a2f9ee90879087908b908b90600401611be2565b60006040518083038186803b15801561122557600080fd5b505afa158015611239573d6000803e3d6000fd5b50505060008781526005602090815260408083208054600160ff199182168117909255600780548084019091557fa66cc928b5edb82af9bd49922954155ab7b0942694bea4ce44661d9a8736c688018c9055338552600884529382902060040180549094161790925590514281528892507f02d0beb141922199e99106aa1e9e523add96e905baf9299bfb1042acd145bf5c910160405180910390a2505050505050565b600781815481106112ed57600080fd5b600091825260209091200154905081565b6001600160401b0382166000908152600460205260409020546001600160a01b031615158061133457506001600160401b038216155b6113505760405162461bcd60e51b81526004016104d690611ada565b600081116113a05760405162461bcd60e51b815260206004820152601760248201527f416d6f756e74206d75737420626520706f73697469766500000000000000000060448201526064016104d6565b60006113ab8361162b565b6040805160a0810182526001600160401b039586168152602080820195865281830193845242606083019081526000608084018181523382526008909352939093209151825467ffffffffffffffff1916971696909617815593516001850155905160028401555160038301555090516004909101805460ff1916911515919091179055565b6001600160401b0383166000908152600460205260409020546001600160a01b0316806114705760405162461bcd60e51b81526004016104d690611ada565b6040516001600160a01b038481166024830152604482018490526000919083169060640160408051601f198184030181529181526020820180516001600160e01b031663a9059cbb60e01b179052516114c99190611d29565b6000604051808303816000865af19150503d8060008114611506576040519150601f19603f3d011682016040523d82523d6000602084013e61150b565b606091505b50509050806115545760405162461bcd60e51b8152602060048201526015602482015274151bdad95b881d1c985b9cd9995c8819985a5b1959605a1b60448201526064016104d6565b5050505050565b6001600160a01b0381166000908152600860209081526040808320815160a08101835281546001600160401b03168152600182015493810193909352600281015491830191909152600381015460608301526004015460ff16151560808201819052806115ca57506060810151155b156115d85750600092915050565b60006115e7826000015161162b565b60208301516040840151919250906000906116029084611d58565b90506000611611606484611d6b565b905061161d8184611d58565b909110159695505050505050565b6001600160401b0381166000908152600460205260408120546001600160a01b03168061165b5750600092915050565b60405130602482015260009081906001600160a01b0384169060440160408051601f198184030181529181526020820180516001600160e01b03166370a0823160e01b179052516116ac9190611d29565b600060405180830381855afa9150503d80600081146116e7576040519150601f19603f3d011682016040523d82523d6000602084013e6116ec565b606091505b509150915081801561170057506020815110155b1561172257808060200190518101906117199190611d8d565b95945050505050565b506000949350505050565b60006020828403121561173f57600080fd5b5035919050565b80356001600160a01b038116811461175d57600080fd5b919050565b60006020828403121561177457600080fd5b61177d82611746565b9392505050565b6000806020838503121561179757600080fd5b82356001600160401b03808211156117ae57600080fd5b818501915085601f8301126117c257600080fd5b8135818111156117d157600080fd5b8660208260051b85010111156117e657600080fd5b60209290920196919550909350505050565b6001600160401b038116811461180d57600080fd5b50565b803561175d816117f8565b60008083601f84011261182d57600080fd5b5081356001600160401b0381111561184457600080fd5b60208301915083602082850101111561185c57600080fd5b9250929050565b60008060008060008060008060c0898b03121561187f57600080fd5b8835975061188f60208a01611746565b9650604089013561189f816117f8565b95506060890135945060808901356001600160401b03808211156118c257600080fd5b6118ce8c838d0161181b565b909650945060a08b01359150808211156118e757600080fd5b506118f48b828c0161181b565b999c989b5096995094979396929594505050565b6000806040838503121561191b57600080fd5b8235611926816117f8565b915061193460208401611746565b90509250929050565b6000806000806040858703121561195357600080fd5b84356001600160401b038082111561196a57600080fd5b6119768883890161181b565b9096509450602087013591508082111561198f57600080fd5b5061199c8782880161181b565b95989497509550505050565b6000806000806000606086880312156119c057600080fd5b8535945060208601356001600160401b03808211156119de57600080fd5b6119ea89838a0161181b565b90965094506040880135915080821115611a0357600080fd5b50611a108882890161181b565b969995985093965092949392505050565b60008060408385031215611a3457600080fd5b8235611a3f816117f8565b946020939093013593505050565b600060208284031215611a5f57600080fd5b813561177d816117f8565b634e487b7160e01b600052603260045260246000fd5b634e487b7160e01b600052601160045260246000fd5b600060018201611aa857611aa8611a80565b5060010190565b801515811461180d57600080fd5b600060208284031215611acf57600080fd5b815161177d81611aaf565b602080825260139082015272151bdad95b881b9bdd081cdd5c1c1bdc9d1959606a1b604082015260600190565b604051608081016001600160401b0381118282101715611b3757634e487b7160e01b600052604160045260246000fd5b60405290565b60405160e081016001600160401b0381118282101715611b3757634e487b7160e01b600052604160045260246000fd5b600060808284031215611b7f57600080fd5b611b87611b07565b8235815260208301356020820152604083013560408201526060830135611bad816117f8565b60608201529392505050565b81835281816020850137506000828201602090810191909152601f909101601f19169091010190565b858152606060208201526000611bfc606083018688611bb9565b8281036040840152611c0f818587611bb9565b98975050505050505050565b803561175d81611aaf565b600060e08284031215611c3857600080fd5b611c40611b3d565b611c4983611746565b8152602083013563ffffffff81168114611c6257600080fd5b6020820152611c7360408401611c1b565b6040820152611c8460608401611810565b6060820152611c9560808401611810565b6080820152611ca660a08401611810565b60a082015260c083013560c08201528091505092915050565b600060208284031215611cd157600080fd5b815161177d816117f8565b600060808284031215611cee57600080fd5b611cf6611b07565b82358152611d0660208401611746565b602082015260408301356040820152606083013560608201528091505092915050565b6000825160005b81811015611d4a5760208186018101518583015201611d30565b506000920191825250919050565b818103818111156109ed576109ed611a80565b600082611d8857634e487b7160e01b600052601260045260246000fd5b500490565b600060208284031215611d9f57600080fd5b505191905056fea26469706673582212203d2c521d287a214d07a1d33781dd7dce63efc064bbba046f72addb17bec13fa664736f6c63430008140033",
  "linkReferences": {},
  "deployedLinkReferences": {}
}