{
  "_format": "hh-sol-artifact-1",
  "contractName": "HyperliquidPrivacySystemEVM",
  "sourceName": "contracts/HyperliquidPrivacySystemEVM.sol",
  "abi": [
    {
      "inputs": [
        {
          "internalType": "address",
          "name": "_sp1Verifier",
          "type": "address"
        },
        {
          "internalType": "address",
          "name": "_complianceAuthority",
          "type": "address"
        }
      ],
      "stateMutability": "nonpayable",
      "type": "constructor"
    },
    {
      "anonymous": false,
      "inputs": [
        {
          "indexed": true,
          "internalType": "bytes32",
          "name": "commitment",
          "type": "bytes32"
        },
        {
          "indexed": false,
          "internalType": "uint256",
          "name": "timestamp",
          "type": "uint256"
        }
      ],
      "name": "PrivateDeposit",
      "type": "event"
    },
    {
      "anonymous": false,
      "inputs": [
        {
          "indexed": true,
          "internalType": "bytes32",
          "name": "nullifier",
          "type": "bytes32"
        },
        {
          "indexed": false,
          "internalType": "uint256",
          "name": "timestamp",
          "type": "uint256"
        }
      ],
      "name": "PrivateWithdraw",
      "type": "event"
    },
    {
      "anonymous": false,
      "inputs": [
        {
          "indexed": true,
          "internalType": "uint64",
          "name": "tokenId",
          "type": "uint64"
        },
        {
          "indexed": false,
          "internalType": "address",
          "name": "tokenAddress",
          "type": "address"
        }
      ],
      "name": "TokenAdded",
      "type": "event"
    },
    {
      "stateMutability": "payable",
      "type": "fallback"
    },
    {
      "inputs": [
        {
          "internalType": "uint64",
          "name": "tokenId",
          "type": "uint64"
        },
        {
          "internalType": "address",
          "name": "tokenAddress",
          "type": "address"
        }
      ],
      "name": "addToken",
      "outputs": [],
      "stateMutability": "nonpayable",
      "type": "function"
    },
    {
      "inputs": [
        {
          "internalType": "address",
          "name": "user",
          "type": "address"
        }
      ],
      "name": "canCompleteDeposit",
      "outputs": [
        {
          "internalType": "bool",
          "name": "",
          "type": "bool"
        }
      ],
      "stateMutability": "view",
      "type": "function"
    },
    {
      "inputs": [
        {
          "internalType": "uint256",
          "name": "",
          "type": "uint256"
        }
      ],
      "name": "commitmentMerkleTree",
      "outputs": [
        {
          "internalType": "bytes32",
          "name": "",
          "type": "bytes32"
        }
      ],
      "stateMutability": "view",
      "type": "function"
    },
    {
      "inputs": [
        {
          "internalType": "bytes32",
          "name": "",
          "type": "bytes32"
        }
      ],
      "name": "commitments",
      "outputs": [
        {
          "internalType": "bool",
          "name": "",
          "type": "bool"
        }
      ],
      "stateMutability": "view",
      "type": "function"
    },
    {
      "inputs": [
        {
          "internalType": "bytes32",
          "name": "commitment",
          "type": "bytes32"
        },
        {
          "internalType": "bytes",
          "name": "complianceProof",
          "type": "bytes"
        },
        {
          "internalType": "bytes",
          "name": "publicValues",
          "type": "bytes"
        }
      ],
      "name": "completeDeposit",
      "outputs": [],
      "stateMutability": "nonpayable",
      "type": "function"
    },
    {
      "inputs": [],
      "name": "complianceAuthority",
      "outputs": [
        {
          "internalType": "address",
          "name": "",
          "type": "address"
        }
      ],
      "stateMutability": "view",
      "type": "function"
    },
    {
      "inputs": [],
      "name": "getMerkleRoot",
      "outputs": [
        {
          "internalType": "bytes32",
          "name": "",
          "type": "bytes32"
        }
      ],
      "stateMutability": "view",
      "type": "function"
    },
    {
      "inputs": [
        {
          "internalType": "address",
          "name": "user",
          "type": "address"
        }
      ],
      "name": "getPendingDeposit",
      "outputs": [
        {
          "components": [
            {
              "internalType": "uint64",
              "name": "token",
              "type": "uint64"
            },
            {
              "internalType": "uint256",
              "name": "amount",
              "type": "uint256"
            },
            {
              "internalType": "uint256",
              "name": "contractBalanceBefore",
              "type": "uint256"
            },
            {
              "internalType": "uint256",
              "name": "timestamp",
              "type": "uint256"
            },
            {
              "internalType": "bool",
              "name": "completed",
              "type": "bool"
            }
          ],
          "internalType": "struct HyperliquidPrivacySystemEVM.PendingDeposit",
          "name": "",
          "type": "tuple"
        }
      ],
      "stateMutability": "view",
      "type": "function"
    },
    {
      "inputs": [
        {
          "internalType": "bytes32",
          "name": "",
          "type": "bytes32"
        }
      ],
      "name": "nullifiers",
      "outputs": [
        {
          "internalType": "bool",
          "name": "",
          "type": "bool"
        }
      ],
      "stateMutability": "view",
      "type": "function"
    },
    {
      "inputs": [
        {
          "internalType": "address",
          "name": "",
          "type": "address"
        }
      ],
      "name": "pendingDeposits",
      "outputs": [
        {
          "internalType": "uint64",
          "name": "token",
          "type": "uint64"
        },
        {
          "internalType": "uint256",
          "name": "amount",
          "type": "uint256"
        },
        {
          "internalType": "uint256",
          "name": "contractBalanceBefore",
          "type": "uint256"
        },
        {
          "internalType": "uint256",
          "name": "timestamp",
          "type": "uint256"
        },
        {
          "internalType": "bool",
          "name": "completed",
          "type": "bool"
        }
      ],
      "stateMutability": "view",
      "type": "function"
    },
    {
      "inputs": [
        {
          "internalType": "uint64",
          "name": "token",
          "type": "uint64"
        },
        {
          "internalType": "uint256",
          "name": "amount",
          "type": "uint256"
        }
      ],
      "name": "prepareDeposit",
      "outputs": [],
      "stateMutability": "nonpayable",
      "type": "function"
    },
    {
      "inputs": [],
      "name": "sp1Verifier",
      "outputs": [
        {
          "internalType": "contract ISP1Verifier",
          "name": "",
          "type": "address"
        }
      ],
      "stateMutability": "view",
      "type": "function"
    },
    {
      "inputs": [
        {
          "internalType": "uint64",
          "name": "",
          "type": "uint64"
        }
      ],
      "name": "tokenAddresses",
      "outputs": [
        {
          "internalType": "address",
          "name": "",
          "type": "address"
        }
      ],
      "stateMutability": "view",
      "type": "function"
    },
    {
      "inputs": [
        {
          "internalType": "bytes32",
          "name": "nullifier",
          "type": "bytes32"
        },
        {
          "internalType": "address",
          "name": "recipient",
          "type": "address"
        },
        {
          "internalType": "uint64",
          "name": "token",
          "type": "uint64"
        },
        {
          "internalType": "uint256",
          "name": "amount",
          "type": "uint256"
        },
        {
          "internalType": "bytes",
          "name": "balanceProof",
          "type": "bytes"
        },
        {
          "internalType": "bytes",
          "name": "publicValues",
          "type": "bytes"
        }
      ],
      "name": "withdraw",
      "outputs": [],
      "stateMutability": "nonpayable",
      "type": "function"
    },
    {
      "stateMutability": "payable",
      "type": "receive"
    }
  ],
  "bytecode": "0x608060405234801561001057600080fd5b506040516115f33803806115f383398101604081905261002f916100af565b600080546001600160a01b03199081166001600160a01b03948516178255600180548216939094169290921790925590805260026020527fac33ff75c19e70fe83507db0d683fd3465c996598dc972688b7ace676c89077b805490911690556100e2565b80516001600160a01b03811681146100aa57600080fd5b919050565b600080604083850312156100c257600080fd5b6100cb83610093565b91506100d960208401610093565b90509250929050565b611502806100f16000396000f3fe6080604052600436106100d55760003560e01c806398ffd55011610079578063d4a82dc511610056578063d4a82dc5146102bb578063eb3349b9146102db578063f382affa14610366578063ffc21d5e1461038657005b806398ffd5501461020e578063b70773c01461022e578063d43ffa2f1461029b57005b806352a07fa3116100b257806352a07fa31461017e578063839df9451461019e578063929f9a38146101ce57806394137c90146101ee57005b80632997e86b146100de578063309f477a14610123578063495906571461015b57005b366100dc57005b005b3480156100ea57600080fd5b5061010e6100f9366004611069565b60046020526000908152604090205460ff1681565b60405190151581526020015b60405180910390f35b34801561012f57600080fd5b50600154610143906001600160a01b031681565b6040516001600160a01b03909116815260200161011a565b34801561016757600080fd5b506101706103bc565b60405190815260200161011a565b34801561018a57600080fd5b50600054610143906001600160a01b031681565b3480156101aa57600080fd5b5061010e6101b9366004611069565b60036020526000908152604090205460ff1681565b3480156101da57600080fd5b506100dc6101e93660046110f8565b610469565b3480156101fa57600080fd5b5061010e61020936600461119b565b610712565b34801561021a57600080fd5b506100dc6102293660046111bd565b610723565b34801561023a57600080fd5b5061024e61024936600461119b565b6107e9565b60405161011a9190600060a0820190506001600160401b03835116825260208301516020830152604083015160408301526060830151606083015260808301511515608083015292915050565b3480156102a757600080fd5b506100dc6102b63660046111f0565b61088c565b3480156102c757600080fd5b506101706102d6366004611069565b610b5d565b3480156102e757600080fd5b506103326102f636600461119b565b600660205260009081526040902080546001820154600283015460038401546004909401546001600160401b0390931693919290919060ff1685565b604080516001600160401b03909616865260208601949094529284019190915260608301521515608082015260a00161011a565b34801561037257600080fd5b506100dc610381366004611269565b610b7e565b34801561039257600080fd5b506101436103a1366004611293565b6002602052600090815260409020546001600160a01b031681565b60055460009081036103ce5750600090565b600060056000815481106103e4576103e46112ae565b600091825260209091200154905060015b600554811015610463578160058281548110610413576104136112ae565b9060005260206000200154604051602001610438929190918252602082015260400190565b604051602081830303815290604052805190602001209150808061045b906112da565b9150506103f5565b50919050565b60008881526004602052604090205460ff16156104c65760405162461bcd60e51b8152602060048201526016602482015275139d5b1b1a599a595c88185b1c9958591e481d5cd95960521b60448201526064015b60405180910390fd5b6001600160401b0386166000908152600260205260409020546001600160a01b03161515806104fc57506001600160401b038616155b6105185760405162461bcd60e51b81526004016104bd906112f3565b600061052682840184611356565b90506105306103bc565b8160200151146105785760405162461bcd60e51b8152602060048201526013602482015272125b9d985b1a59081b595c9adb19481c9bdbdd606a1b60448201526064016104bd565b85816040015110156105cc5760405162461bcd60e51b815260206004820152601b60248201527f496e73756666696369656e742070726f76656e2062616c616e6365000000000060448201526064016104bd565b866001600160401b031681606001516001600160401b0316146106225760405162461bcd60e51b815260206004820152600e60248201526d082e6e6cae840dad2e6dac2e8c6d60931b60448201526064016104bd565b60005460405163020a49e360e51b81526001600160a01b03909116906341493c6090610679907e9c22b4f95fb710070dc80cfce7526c4cc7780834ab328bd769ff58934e6d0590879087908b908b906004016113c9565b60006040518083038186803b15801561069157600080fd5b505afa1580156106a5573d6000803e3d6000fd5b50505060008a8152600460205260409020805460ff19166001179055506106cd878988610cb1565b887fcc9580996e4c53ac7e73439f181e208ab15831ea2d2429dd12ee742c1c475b6f426040516106ff91815260200190565b60405180910390a2505050505050505050565b600061071d82610e78565b92915050565b6001546001600160a01b0316331461077d5760405162461bcd60e51b815260206004820152601960248201527f4f6e6c7920636f6d706c69616e636520617574686f726974790000000000000060448201526064016104bd565b6001600160401b03821660008181526002602090815260409182902080546001600160a01b0319166001600160a01b03861690811790915591519182527f4c033c7cff3d5550ac33240c2f1c3e0956d087b14191141d9eb5ff40beb54722910160405180910390a25050565b6108266040518060a0016040528060006001600160401b031681526020016000815260200160008152602001600081526020016000151581525090565b506001600160a01b0316600090815260066020908152604091829020825160a08101845281546001600160401b031681526001820154928101929092526002810154928201929092526003820154606082015260049091015460ff161515608082015290565b61089533610e78565b6108e15760405162461bcd60e51b815260206004820152601860248201527f4e6f2076616c69642070656e64696e67206465706f736974000000000000000060448201526064016104bd565b60008581526003602052604090205460ff16156109405760405162461bcd60e51b815260206004820152601760248201527f436f6d6d69746d656e7420616c7265616479207573656400000000000000000060448201526064016104bd565b600061094e82840184611402565b805190915086146109975760405162461bcd60e51b8152602060048201526013602482015272086dedadad2e8dacadce840dad2e6dac2e8c6d606b1b60448201526064016104bd565b60015460208201516001600160a01b039081169116146109ed5760405162461bcd60e51b8152602060048201526011602482015270496e76616c696420617574686f7269747960781b60448201526064016104bd565b42816040015111610a365760405162461bcd60e51b815260206004820152601360248201527210d95c9d1a599a58d85d1948195e1c1a5c9959606a1b60448201526064016104bd565b60005460405163020a49e360e51b81526001600160a01b03909116906341493c6090610a8d907eed1611619b8f2866de7be17d81a9d42a869b4c5959629708f125ae34a2f9ee90879087908b908b906004016113c9565b60006040518083038186803b158015610aa557600080fd5b505afa158015610ab9573d6000803e3d6000fd5b50505060008781526003602090815260408083208054600160ff199182168117909255600580548084019091557f036b6384b5eca791c62761152d0c79bb0604c104a5fb6f4eb0703f3154bb3db0018c9055338552600684529382902060040180549094161790925590514281528892507f02d0beb141922199e99106aa1e9e523add96e905baf9299bfb1042acd145bf5c910160405180910390a2505050505050565b60058181548110610b6d57600080fd5b600091825260209091200154905081565b6001600160401b0382166000908152600260205260409020546001600160a01b0316151580610bb457506001600160401b038216155b610bd05760405162461bcd60e51b81526004016104bd906112f3565b60008111610c205760405162461bcd60e51b815260206004820152601760248201527f416d6f756e74206d75737420626520706f73697469766500000000000000000060448201526064016104bd565b6000610c2b83610f48565b6040805160a0810182526001600160401b039586168152602080820195865281830193845242606083019081526000608084018181523382526006909352939093209151825467ffffffffffffffff1916971696909617815593516001850155905160028401555160038301555090516004909101805460ff1916911515919091179055565b826001600160401b0316600003610d4e5780471015610d125760405162461bcd60e51b815260206004820152601860248201527f496e73756666696369656e74204554482062616c616e6365000000000000000060448201526064016104bd565b6040516001600160a01b0383169082156108fc029083906000818181858888f19350505050158015610d48573d6000803e3d6000fd5b50505050565b6001600160401b0383166000908152600260205260409020546001600160a01b031680610d8d5760405162461bcd60e51b81526004016104bd906112f3565b6040516001600160a01b038481166024830152604482018490526000919083169060640160408051601f198184030181529181526020820180516001600160e01b031663a9059cbb60e01b17905251610de6919061144f565b6000604051808303816000865af19150503d8060008114610e23576040519150601f19603f3d011682016040523d82523d6000602084013e610e28565b606091505b5050905080610e715760405162461bcd60e51b8152602060048201526015602482015274151bdad95b881d1c985b9cd9995c8819985a5b1959605a1b60448201526064016104bd565b5050505050565b6001600160a01b0381166000908152600660209081526040808320815160a08101835281546001600160401b03168152600182015493810193909352600281015491830191909152600381015460608301526004015460ff1615156080820181905280610ee757506060810151155b15610ef55750600092915050565b6000610f048260000151610f48565b6020830151604084015191925090600090610f1f908461147e565b90506000610f2e606484611491565b9050610f3a818461147e565b909110159695505050505050565b6000816001600160401b0316600003610f62575047919050565b6001600160401b0382166000908152600260205260409020546001600160a01b031680610f925750600092915050565b60405130602482015260009081906001600160a01b0384169060440160408051601f198184030181529181526020820180516001600160e01b03166370a0823160e01b17905251610fe3919061144f565b600060405180830381855afa9150503d806000811461101e576040519150601f19603f3d011682016040523d82523d6000602084013e611023565b606091505b509150915081801561103757506020815110155b15611059578080602001905181019061105091906114b3565b95945050505050565b506000949350505050565b919050565b60006020828403121561107b57600080fd5b5035919050565b80356001600160a01b038116811461106457600080fd5b80356001600160401b038116811461106457600080fd5b60008083601f8401126110c257600080fd5b5081356001600160401b038111156110d957600080fd5b6020830191508360208285010111156110f157600080fd5b9250929050565b60008060008060008060008060c0898b03121561111457600080fd5b8835975061112460208a01611082565b965061113260408a01611099565b95506060890135945060808901356001600160401b038082111561115557600080fd5b6111618c838d016110b0565b909650945060a08b013591508082111561117a57600080fd5b506111878b828c016110b0565b999c989b5096995094979396929594505050565b6000602082840312156111ad57600080fd5b6111b682611082565b9392505050565b600080604083850312156111d057600080fd5b6111d983611099565b91506111e760208401611082565b90509250929050565b60008060008060006060868803121561120857600080fd5b8535945060208601356001600160401b038082111561122657600080fd5b61123289838a016110b0565b9096509450604088013591508082111561124b57600080fd5b50611258888289016110b0565b969995985093965092949392505050565b6000806040838503121561127c57600080fd5b61128583611099565b946020939093013593505050565b6000602082840312156112a557600080fd5b6111b682611099565b634e487b7160e01b600052603260045260246000fd5b634e487b7160e01b600052601160045260246000fd5b6000600182016112ec576112ec6112c4565b5060010190565b602080825260139082015272151bdad95b881b9bdd081cdd5c1c1bdc9d1959606a1b604082015260600190565b604051608081016001600160401b038111828210171561135057634e487b7160e01b600052604160045260246000fd5b60405290565b60006080828403121561136857600080fd5b611370611320565b82358152602083013560208201526040830135604082015261139460608401611099565b60608201529392505050565b81835281816020850137506000828201602090810191909152601f909101601f19169091010190565b8581526060602082015260006113e36060830186886113a0565b82810360408401526113f68185876113a0565b98975050505050505050565b60006080828403121561141457600080fd5b61141c611320565b8235815261142c60208401611082565b602082015260408301356040820152606083013560608201528091505092915050565b6000825160005b818110156114705760208186018101518583015201611456565b506000920191825250919050565b8181038181111561071d5761071d6112c4565b6000826114ae57634e487b7160e01b600052601260045260246000fd5b500490565b6000602082840312156114c557600080fd5b505191905056fea26469706673582212207cfb47dee4e664eea6c7a466083c999744c7698a62b79a5b66d8d53c60f8273664736f6c63430008130033",
  "linkReferences": {},
  "deployedLinkReferences": {}
}