{
  "_format": "hh-sol-artifact-1",
  "contractName": "HyperliquidPrivacySystemEVM",
  "sourceName": "contracts/HyperliquidPrivacySystemEVM.sol",
  "abi": [
    {
      "inputs": [
        {
          "internalType": "address",
          "name": "_sp1Verifier",
          "type": "address"
        },
        {
          "internalType": "address",
          "name": "_complianceAuthority",
          "type": "address"
        }
      ],
      "stateMutability": "nonpayable",
      "type": "constructor"
    },
    {
      "anonymous": false,
      "inputs": [
        {
          "indexed": true,
          "internalType": "bytes32",
          "name": "commitment",
          "type": "bytes32"
        },
        {
          "indexed": false,
          "internalType": "uint256",
          "name": "timestamp",
          "type": "uint256"
        }
      ],
      "name": "PrivateDeposit",
      "type": "event"
    },
    {
      "anonymous": false,
      "inputs": [
        {
          "indexed": true,
          "internalType": "address",
          "name": "user",
          "type": "address"
        },
        {
          "indexed": false,
          "internalType": "uint32",
          "name": "coin",
          "type": "uint32"
        },
        {
          "indexed": false,
          "internalType": "bool",
          "name": "isBuy",
          "type": "bool"
        },
        {
          "indexed": false,
          "internalType": "uint64",
          "name": "sz",
          "type": "uint64"
        },
        {
          "indexed": false,
          "internalType": "uint256",
          "name": "timestamp",
          "type": "uint256"
        }
      ],
      "name": "PrivateSpotTrade",
      "type": "event"
    },
    {
      "anonymous": false,
      "inputs": [
        {
          "indexed": true,
          "internalType": "bytes32",
          "name": "nullifier",
          "type": "bytes32"
        },
        {
          "indexed": false,
          "internalType": "uint256",
          "name": "timestamp",
          "type": "uint256"
        }
      ],
      "name": "PrivateWithdraw",
      "type": "event"
    },
    {
      "anonymous": false,
      "inputs": [
        {
          "indexed": true,
          "internalType": "uint64",
          "name": "tokenId",
          "type": "uint64"
        },
        {
          "indexed": false,
          "internalType": "address",
          "name": "tokenAddress",
          "type": "address"
        }
      ],
      "name": "TokenAdded",
      "type": "event"
    },
    {
      "stateMutability": "payable",
      "type": "fallback"
    },
    {
      "inputs": [
        {
          "internalType": "uint64",
          "name": "tokenId",
          "type": "uint64"
        },
        {
          "internalType": "address",
          "name": "tokenAddress",
          "type": "address"
        }
      ],
      "name": "addToken",
      "outputs": [],
      "stateMutability": "nonpayable",
      "type": "function"
    },
    {
      "inputs": [
        {
          "internalType": "address",
          "name": "user",
          "type": "address"
        }
      ],
      "name": "canCompleteDeposit",
      "outputs": [
        {
          "internalType": "bool",
          "name": "",
          "type": "bool"
        }
      ],
      "stateMutability": "view",
      "type": "function"
    },
    {
      "inputs": [
        {
          "internalType": "uint256",
          "name": "",
          "type": "uint256"
        }
      ],
      "name": "commitmentMerkleTree",
      "outputs": [
        {
          "internalType": "bytes32",
          "name": "",
          "type": "bytes32"
        }
      ],
      "stateMutability": "view",
      "type": "function"
    },
    {
      "inputs": [
        {
          "internalType": "bytes32",
          "name": "",
          "type": "bytes32"
        }
      ],
      "name": "commitments",
      "outputs": [
        {
          "internalType": "bool",
          "name": "",
          "type": "bool"
        }
      ],
      "stateMutability": "view",
      "type": "function"
    },
    {
      "inputs": [
        {
          "internalType": "bytes32",
          "name": "commitment",
          "type": "bytes32"
        },
        {
          "internalType": "bytes",
          "name": "complianceProof",
          "type": "bytes"
        },
        {
          "internalType": "bytes",
          "name": "publicValues",
          "type": "bytes"
        }
      ],
      "name": "completeDeposit",
      "outputs": [],
      "stateMutability": "nonpayable",
      "type": "function"
    },
    {
      "inputs": [],
      "name": "complianceAuthority",
      "outputs": [
        {
          "internalType": "address",
          "name": "",
          "type": "address"
        }
      ],
      "stateMutability": "view",
      "type": "function"
    },
    {
      "inputs": [],
      "name": "getMerkleRoot",
      "outputs": [
        {
          "internalType": "bytes32",
          "name": "",
          "type": "bytes32"
        }
      ],
      "stateMutability": "view",
      "type": "function"
    },
    {
      "inputs": [
        {
          "internalType": "address",
          "name": "user",
          "type": "address"
        }
      ],
      "name": "getPendingDeposit",
      "outputs": [
        {
          "components": [
            {
              "internalType": "uint64",
              "name": "token",
              "type": "uint64"
            },
            {
              "internalType": "uint256",
              "name": "amount",
              "type": "uint256"
            },
            {
              "internalType": "uint256",
              "name": "contractBalanceBefore",
              "type": "uint256"
            },
            {
              "internalType": "uint256",
              "name": "timestamp",
              "type": "uint256"
            },
            {
              "internalType": "bool",
              "name": "completed",
              "type": "bool"
            }
          ],
          "internalType": "struct HyperliquidPrivacySystemEVM.PendingDeposit",
          "name": "",
          "type": "tuple"
        }
      ],
      "stateMutability": "view",
      "type": "function"
    },
    {
      "inputs": [
        {
          "internalType": "bytes32",
          "name": "",
          "type": "bytes32"
        }
      ],
      "name": "nullifiers",
      "outputs": [
        {
          "internalType": "bool",
          "name": "",
          "type": "bool"
        }
      ],
      "stateMutability": "view",
      "type": "function"
    },
    {
      "inputs": [
        {
          "internalType": "address",
          "name": "",
          "type": "address"
        }
      ],
      "name": "pendingDeposits",
      "outputs": [
        {
          "internalType": "uint64",
          "name": "token",
          "type": "uint64"
        },
        {
          "internalType": "uint256",
          "name": "amount",
          "type": "uint256"
        },
        {
          "internalType": "uint256",
          "name": "contractBalanceBefore",
          "type": "uint256"
        },
        {
          "internalType": "uint256",
          "name": "timestamp",
          "type": "uint256"
        },
        {
          "internalType": "bool",
          "name": "completed",
          "type": "bool"
        }
      ],
      "stateMutability": "view",
      "type": "function"
    },
    {
      "inputs": [
        {
          "internalType": "uint64",
          "name": "token",
          "type": "uint64"
        },
        {
          "internalType": "uint256",
          "name": "amount",
          "type": "uint256"
        }
      ],
      "name": "prepareDeposit",
      "outputs": [],
      "stateMutability": "nonpayable",
      "type": "function"
    },
    {
      "inputs": [
        {
          "internalType": "bytes",
          "name": "tradeProof",
          "type": "bytes"
        },
        {
          "internalType": "bytes",
          "name": "publicValues",
          "type": "bytes"
        }
      ],
      "name": "privateSpotTrade",
      "outputs": [],
      "stateMutability": "nonpayable",
      "type": "function"
    },
    {
      "inputs": [],
      "name": "sp1Verifier",
      "outputs": [
        {
          "internalType": "contract ISP1Verifier",
          "name": "",
          "type": "address"
        }
      ],
      "stateMutability": "view",
      "type": "function"
    },
    {
      "inputs": [
        {
          "internalType": "uint64",
          "name": "",
          "type": "uint64"
        }
      ],
      "name": "tokenAddresses",
      "outputs": [
        {
          "internalType": "address",
          "name": "",
          "type": "address"
        }
      ],
      "stateMutability": "view",
      "type": "function"
    },
    {
      "inputs": [
        {
          "internalType": "bytes32",
          "name": "nullifier",
          "type": "bytes32"
        },
        {
          "internalType": "address",
          "name": "recipient",
          "type": "address"
        },
        {
          "internalType": "uint64",
          "name": "token",
          "type": "uint64"
        },
        {
          "internalType": "uint256",
          "name": "amount",
          "type": "uint256"
        },
        {
          "internalType": "bytes",
          "name": "balanceProof",
          "type": "bytes"
        },
        {
          "internalType": "bytes",
          "name": "publicValues",
          "type": "bytes"
        }
      ],
      "name": "withdraw",
      "outputs": [],
      "stateMutability": "nonpayable",
      "type": "function"
    },
    {
      "stateMutability": "payable",
      "type": "receive"
    }
  ],
  "bytecode": "0x60806040523480156200001157600080fd5b5060405162001c7838038062001c788339810160408190526200003491620000b6565b600080546001600160a01b03199081166001600160a01b03948516178255600180548216939094169290921790925590805260026020527fac33ff75c19e70fe83507db0d683fd3465c996598dc972688b7ace676c89077b80549091169055620000ee565b80516001600160a01b0381168114620000b157600080fd5b919050565b60008060408385031215620000ca57600080fd5b620000d58362000099565b9150620000e56020840162000099565b90509250929050565b611b7a80620000fe6000396000f3fe6080604052600436106100e05760003560e01c806398ffd55011610084578063d4a82dc511610056578063d4a82dc5146102e6578063eb3349b914610306578063f382affa14610391578063ffc21d5e146103b157005b806398ffd55014610219578063b54fcff914610239578063b70773c014610259578063d43ffa2f146102c657005b806352a07fa3116100bd57806352a07fa314610189578063839df945146101a9578063929f9a38146101d957806394137c90146101f957005b80632997e86b146100e9578063309f477a1461012e578063495906571461016657005b366100e757005b005b3480156100f557600080fd5b50610119610104366004611544565b60046020526000908152604090205460ff1681565b60405190151581526020015b60405180910390f35b34801561013a57600080fd5b5060015461014e906001600160a01b031681565b6040516001600160a01b039091168152602001610125565b34801561017257600080fd5b5061017b6103e7565b604051908152602001610125565b34801561019557600080fd5b5060005461014e906001600160a01b031681565b3480156101b557600080fd5b506101196101c4366004611544565b60036020526000908152604090205460ff1681565b3480156101e557600080fd5b506100e76101f43660046115df565b610494565b34801561020557600080fd5b50610119610214366004611684565b61073d565b34801561022557600080fd5b506100e76102343660046116a6565b61074e565b34801561024557600080fd5b506100e76102543660046116db565b610814565b34801561026557600080fd5b50610279610274366004611684565b610cc4565b6040516101259190600060a0820190506001600160401b03835116825260208301516020830152604083015160408301526060830151606083015260808301511515608083015292915050565b3480156102d257600080fd5b506100e76102e1366004611746565b610d67565b3480156102f257600080fd5b5061017b610301366004611544565b611038565b34801561031257600080fd5b5061035d610321366004611684565b600660205260009081526040902080546001820154600283015460038401546004909401546001600160401b0390931693919290919060ff1685565b604080516001600160401b03909616865260208601949094529284019190915260608301521515608082015260a001610125565b34801561039d57600080fd5b506100e76103ac3660046117bf565b611059565b3480156103bd57600080fd5b5061014e6103cc3660046117eb565b6002602052600090815260409020546001600160a01b031681565b60055460009081036103f95750600090565b6000600560008154811061040f5761040f611808565b600091825260209091200154905060015b60055481101561048e57816005828154811061043e5761043e611808565b9060005260206000200154604051602001610463929190918252602082015260400190565b604051602081830303815290604052805190602001209150808061048690611834565b915050610420565b50919050565b60008881526004602052604090205460ff16156104f15760405162461bcd60e51b8152602060048201526016602482015275139d5b1b1a599a595c88185b1c9958591e481d5cd95960521b60448201526064015b60405180910390fd5b6001600160401b0386166000908152600260205260409020546001600160a01b031615158061052757506001600160401b038616155b6105435760405162461bcd60e51b81526004016104e89061184d565b6000610551828401846118e0565b905061055b6103e7565b8160200151146105a35760405162461bcd60e51b8152602060048201526013602482015272125b9d985b1a59081b595c9adb19481c9bdbdd606a1b60448201526064016104e8565b85816040015110156105f75760405162461bcd60e51b815260206004820152601b60248201527f496e73756666696369656e742070726f76656e2062616c616e6365000000000060448201526064016104e8565b866001600160401b031681606001516001600160401b03161461064d5760405162461bcd60e51b815260206004820152600e60248201526d082e6e6cae840dad2e6dac2e8c6d60931b60448201526064016104e8565b60005460405163020a49e360e51b81526001600160a01b03909116906341493c60906106a4907e9c22b4f95fb710070dc80cfce7526c4cc7780834ab328bd769ff58934e6d0590879087908b908b90600401611955565b60006040518083038186803b1580156106bc57600080fd5b505afa1580156106d0573d6000803e3d6000fd5b50505060008a8152600460205260409020805460ff19166001179055506106f887898861118c565b887fcc9580996e4c53ac7e73439f181e208ab15831ea2d2429dd12ee742c1c475b6f4260405161072a91815260200190565b60405180910390a2505050505050505050565b600061074882611353565b92915050565b6001546001600160a01b031633146107a85760405162461bcd60e51b815260206004820152601960248201527f4f6e6c7920636f6d706c69616e636520617574686f726974790000000000000060448201526064016104e8565b6001600160401b03821660008181526002602090815260409182902080546001600160a01b0319166001600160a01b03861690811790915591519182527f4c033c7cff3d5550ac33240c2f1c3e0956d087b14191141d9eb5ff40beb54722910160405180910390a25050565b6000610822828401846119a7565b80519091506001600160a01b0316331461086d5760405162461bcd60e51b815260206004820152600c60248201526b24b73b30b634b2103ab9b2b960a11b60448201526064016104e8565b6108756103e7565b8160c00151146108bd5760405162461bcd60e51b8152602060048201526013602482015272125b9d985b1a59081b595c9adb19481c9bdbdd606a1b60448201526064016104e8565b60005460405163020a49e360e51b81526001600160a01b03909116906341493c6090610914907e9c22b4f95fb710070dc80cfce7526c4cc7780834ab328bd769ff58934e6d0590879087908b908b90600401611955565b60006040518083038186803b15801561092c57600080fd5b505afa158015610940573d6000803e3d6000fd5b505050506020810151604051630aa337a160e11b815233600482015263ffffffff9091166024820152600090610801906315466f4290604401602060405180830381865afa158015610996573d6000803e3d6000fd5b505050506040513d601f19601f820116820180604052508101906109ba9190611a40565b90508160a001516001600160401b0316816001600160401b03161015610a225760405162461bcd60e51b815260206004820152601e60248201527f496e73756666696369656e742062616c616e636520666f72207472616465000060448201526064016104e8565b602082015160405163c0f0f5ef60e01b815263ffffffff90911660048201526000906108079063c0f0f5ef90602401602060405180830381865afa158015610a6e573d6000803e3d6000fd5b505050506040513d601f19601f82011682018060405250810190610a929190611a40565b90506000816001600160401b031611610ae45760405162461bcd60e51b8152602060048201526014602482015273496e76616c6964206f7261636c6520707269636560601b60448201526064016104e8565b600042338560200151604051602001610b2f9392919092835260609190911b6bffffffffffffffffffffffff1916602083015260e01b6001600160e01b031916603482015260380190565b60408051808303601f19018152828252805160209182012090870151918701516060880151608089015163643da8c960e11b865263ffffffff909416600486015290151560248501526001600160401b0390811660448501529182166064840152908116608483015291506000907333333333333333333333333333333333333333339063c87b51929060a4016020604051808303816000875af1158015610bdb573d6000803e3d6000fd5b505050506040513d601f19601f82011682018060405250810190610bff9190611a5d565b905080610c4e5760405162461bcd60e51b815260206004820152601b60248201527f53706f7420747261646520657865637574696f6e206661696c6564000000000060448201526064016104e8565b84600001516001600160a01b03167fcab583235985ee4b47d2aac25644214206ffe47f9dbb8c53cc22adf78bc9dfbf8660200151876040015188608001514260405161072a949392919063ffffffff94909416845291151560208401526001600160401b03166040830152606082015260800190565b610d016040518060a0016040528060006001600160401b031681526020016000815260200160008152602001600081526020016000151581525090565b506001600160a01b0316600090815260066020908152604091829020825160a08101845281546001600160401b031681526001820154928101929092526002810154928201929092526003820154606082015260049091015460ff161515608082015290565b610d7033611353565b610dbc5760405162461bcd60e51b815260206004820152601860248201527f4e6f2076616c69642070656e64696e67206465706f736974000000000000000060448201526064016104e8565b60008581526003602052604090205460ff1615610e1b5760405162461bcd60e51b815260206004820152601760248201527f436f6d6d69746d656e7420616c7265616479207573656400000000000000000060448201526064016104e8565b6000610e2982840184611a7a565b80519091508614610e725760405162461bcd60e51b8152602060048201526013602482015272086dedadad2e8dacadce840dad2e6dac2e8c6d606b1b60448201526064016104e8565b60015460208201516001600160a01b03908116911614610ec85760405162461bcd60e51b8152602060048201526011602482015270496e76616c696420617574686f7269747960781b60448201526064016104e8565b42816040015111610f115760405162461bcd60e51b815260206004820152601360248201527210d95c9d1a599a58d85d1948195e1c1a5c9959606a1b60448201526064016104e8565b60005460405163020a49e360e51b81526001600160a01b03909116906341493c6090610f68907eed1611619b8f2866de7be17d81a9d42a869b4c5959629708f125ae34a2f9ee90879087908b908b90600401611955565b60006040518083038186803b158015610f8057600080fd5b505afa158015610f94573d6000803e3d6000fd5b50505060008781526003602090815260408083208054600160ff199182168117909255600580548084019091557f036b6384b5eca791c62761152d0c79bb0604c104a5fb6f4eb0703f3154bb3db0018c9055338552600684529382902060040180549094161790925590514281528892507f02d0beb141922199e99106aa1e9e523add96e905baf9299bfb1042acd145bf5c910160405180910390a2505050505050565b6005818154811061104857600080fd5b600091825260209091200154905081565b6001600160401b0382166000908152600260205260409020546001600160a01b031615158061108f57506001600160401b038216155b6110ab5760405162461bcd60e51b81526004016104e89061184d565b600081116110fb5760405162461bcd60e51b815260206004820152601760248201527f416d6f756e74206d75737420626520706f73697469766500000000000000000060448201526064016104e8565b600061110683611423565b6040805160a0810182526001600160401b039586168152602080820195865281830193845242606083019081526000608084018181523382526006909352939093209151825467ffffffffffffffff1916971696909617815593516001850155905160028401555160038301555090516004909101805460ff1916911515919091179055565b826001600160401b031660000361122957804710156111ed5760405162461bcd60e51b815260206004820152601860248201527f496e73756666696369656e74204554482062616c616e6365000000000000000060448201526064016104e8565b6040516001600160a01b0383169082156108fc029083906000818181858888f19350505050158015611223573d6000803e3d6000fd5b50505050565b6001600160401b0383166000908152600260205260409020546001600160a01b0316806112685760405162461bcd60e51b81526004016104e89061184d565b6040516001600160a01b038481166024830152604482018490526000919083169060640160408051601f198184030181529181526020820180516001600160e01b031663a9059cbb60e01b179052516112c19190611ac7565b6000604051808303816000865af19150503d80600081146112fe576040519150601f19603f3d011682016040523d82523d6000602084013e611303565b606091505b505090508061134c5760405162461bcd60e51b8152602060048201526015602482015274151bdad95b881d1c985b9cd9995c8819985a5b1959605a1b60448201526064016104e8565b5050505050565b6001600160a01b0381166000908152600660209081526040808320815160a08101835281546001600160401b03168152600182015493810193909352600281015491830191909152600381015460608301526004015460ff16151560808201819052806113c257506060810151155b156113d05750600092915050565b60006113df8260000151611423565b60208301516040840151919250906000906113fa9084611af6565b90506000611409606484611b09565b90506114158184611af6565b909110159695505050505050565b6000816001600160401b031660000361143d575047919050565b6001600160401b0382166000908152600260205260409020546001600160a01b03168061146d5750600092915050565b60405130602482015260009081906001600160a01b0384169060440160408051601f198184030181529181526020820180516001600160e01b03166370a0823160e01b179052516114be9190611ac7565b600060405180830381855afa9150503d80600081146114f9576040519150601f19603f3d011682016040523d82523d6000602084013e6114fe565b606091505b509150915081801561151257506020815110155b15611534578080602001905181019061152b9190611b2b565b95945050505050565b506000949350505050565b919050565b60006020828403121561155657600080fd5b5035919050565b80356001600160a01b038116811461153f57600080fd5b6001600160401b038116811461158957600080fd5b50565b803561153f81611574565b60008083601f8401126115a957600080fd5b5081356001600160401b038111156115c057600080fd5b6020830191508360208285010111156115d857600080fd5b9250929050565b60008060008060008060008060c0898b0312156115fb57600080fd5b8835975061160b60208a0161155d565b9650604089013561161b81611574565b95506060890135945060808901356001600160401b038082111561163e57600080fd5b61164a8c838d01611597565b909650945060a08b013591508082111561166357600080fd5b506116708b828c01611597565b999c989b5096995094979396929594505050565b60006020828403121561169657600080fd5b61169f8261155d565b9392505050565b600080604083850312156116b957600080fd5b82356116c481611574565b91506116d26020840161155d565b90509250929050565b600080600080604085870312156116f157600080fd5b84356001600160401b038082111561170857600080fd5b61171488838901611597565b9096509450602087013591508082111561172d57600080fd5b5061173a87828801611597565b95989497509550505050565b60008060008060006060868803121561175e57600080fd5b8535945060208601356001600160401b038082111561177c57600080fd5b61178889838a01611597565b909650945060408801359150808211156117a157600080fd5b506117ae88828901611597565b969995985093965092949392505050565b600080604083850312156117d257600080fd5b82356117dd81611574565b946020939093013593505050565b6000602082840312156117fd57600080fd5b813561169f81611574565b634e487b7160e01b600052603260045260246000fd5b634e487b7160e01b600052601160045260246000fd5b6000600182016118465761184661181e565b5060010190565b602080825260139082015272151bdad95b881b9bdd081cdd5c1c1bdc9d1959606a1b604082015260600190565b604051608081016001600160401b03811182821017156118aa57634e487b7160e01b600052604160045260246000fd5b60405290565b60405160e081016001600160401b03811182821017156118aa57634e487b7160e01b600052604160045260246000fd5b6000608082840312156118f257600080fd5b6118fa61187a565b823581526020830135602082015260408301356040820152606083013561192081611574565b60608201529392505050565b81835281816020850137506000828201602090810191909152601f909101601f19169091010190565b85815260606020820152600061196f60608301868861192c565b828103604084015261198281858761192c565b98975050505050505050565b801515811461158957600080fd5b803561153f8161198e565b600060e082840312156119b957600080fd5b6119c16118b0565b6119ca8361155d565b8152602083013563ffffffff811681146119e357600080fd5b60208201526119f46040840161199c565b6040820152611a056060840161158c565b6060820152611a166080840161158c565b6080820152611a2760a0840161158c565b60a082015260c083013560c08201528091505092915050565b600060208284031215611a5257600080fd5b815161169f81611574565b600060208284031215611a6f57600080fd5b815161169f8161198e565b600060808284031215611a8c57600080fd5b611a9461187a565b82358152611aa46020840161155d565b602082015260408301356040820152606083013560608201528091505092915050565b6000825160005b81811015611ae85760208186018101518583015201611ace565b506000920191825250919050565b818103818111156107485761074861181e565b600082611b2657634e487b7160e01b600052601260045260246000fd5b500490565b600060208284031215611b3d57600080fd5b505191905056fea2646970667358221220b83bacba40cf9be67add46e725e0446a3488f00445b0bfbd25c50685c23e32c064736f6c63430008140033",
  "linkReferences": {},
  "deployedLinkReferences": {}
}