{"contracts/HyperliquidTransferHelper.sol":{"HyperliquidTransferHelper":{"abi":[{"anonymous":false,"inputs":[{"indexed":true,"internalType":"address","name":"from","type":"address"},{"indexed":true,"internalType":"address","name":"to","type":"address"},{"indexed":false,"internalType":"uint64","name":"token","type":"uint64"},{"indexed":false,"internalType":"uint64","name":"amount","type":"uint64"}],"name":"TokensTransferred","type":"event"},{"inputs":[{"internalType":"address[]","name":"destinations","type":"address[]"},{"internalType":"uint64[]","name":"tokens","type":"uint64[]"},{"internalType":"uint64[]","name":"amounts","type":"uint64[]"}],"name":"batchTransfer","outputs":[],"stateMutability":"nonpayable","type":"function"},{"inputs":[{"internalType":"address","name":"destination","type":"address"},{"internalType":"uint64","name":"token","type":"uint64"},{"internalType":"uint64","name":"amount","type":"uint64"}],"name":"transferTokens","outputs":[],"stateMutability":"nonpayable","type":"function"}],"evm":{"bytecode":{"linkReferences":{},"object":"608060405234801561001057600080fd5b5061058a806100206000396000f3fe608060405234801561001057600080fd5b50600436106100365760003560e01c806364ac10401461003b578063f7aa387b14610050575b600080fd5b61004e6100493660046103b1565b610063565b005b61004e61005e366004610440565b61013e565b604051630b0ac0ab60e01b81526001600160a01b038416600482015267ffffffffffffffff80841660248301528216604482015273333333333333333333333333333333333333333390630b0ac0ab90606401600060405180830381600087803b1580156100d057600080fd5b505af11580156100e4573d6000803e3d6000fd5b50506040805167ffffffffffffffff8087168252851660208201526001600160a01b03871693503392507f9b1f84f26dd3f3774d2a187a8e85be9bcf086253f669b744797ad02f851ae2d6910160405180910390a3505050565b848314801561014c57508281145b6101945760405162461bcd60e51b8152602060048201526015602482015274082e4e4c2f240d8cadccee8d040dad2e6dac2e8c6d605b1b604482015260640160405180910390fd5b60005b8581101561037457733333333333333333333333333333333333333333630b0ac0ab8888848181106101cb576101cb6104da565b90506020020160208101906101e091906104f0565b8787858181106101f2576101f26104da565b90506020020160208101906102079190610512565b868686818110610219576102196104da565b905060200201602081019061022e9190610512565b6040516001600160e01b031960e086901b1681526001600160a01b03909316600484015267ffffffffffffffff9182166024840152166044820152606401600060405180830381600087803b15801561028657600080fd5b505af115801561029a573d6000803e3d6000fd5b505050508686828181106102b0576102b06104da565b90506020020160208101906102c591906104f0565b6001600160a01b0316337f9b1f84f26dd3f3774d2a187a8e85be9bcf086253f669b744797ad02f851ae2d6878785818110610302576103026104da565b90506020020160208101906103179190610512565b868686818110610329576103296104da565b905060200201602081019061033e9190610512565b6040805167ffffffffffffffff93841681529290911660208301520160405180910390a38061036c8161052d565b915050610197565b50505050505050565b80356001600160a01b038116811461039457600080fd5b919050565b803567ffffffffffffffff8116811461039457600080fd5b6000806000606084860312156103c657600080fd5b6103cf8461037d565b92506103dd60208501610399565b91506103eb60408501610399565b90509250925092565b60008083601f84011261040657600080fd5b50813567ffffffffffffffff81111561041e57600080fd5b6020830191508360208260051b850101111561043957600080fd5b9250929050565b6000806000806000806060878903121561045957600080fd5b863567ffffffffffffffff8082111561047157600080fd5b61047d8a838b016103f4565b9098509650602089013591508082111561049657600080fd5b6104a28a838b016103f4565b909650945060408901359150808211156104bb57600080fd5b506104c889828a016103f4565b979a9699509497509295939492505050565b634e487b7160e01b600052603260045260246000fd5b60006020828403121561050257600080fd5b61050b8261037d565b9392505050565b60006020828403121561052457600080fd5b61050b82610399565b60006001820161054d57634e487b7160e01b600052601160045260246000fd5b506001019056fea2646970667358221220bb261da3dbd131c5da16ed428cc6f5c23ac8e68b375b46983b8d5ef468a930a064736f6c63430008130033","opcodes":"PUSH1 0x80 PUSH1 0x40 MSTORE CALLVALUE DUP1 ISZERO PUSH2 0x10 JUMPI PUSH1 0x0 DUP1 REVERT JUMPDEST POP PUSH2 0x58A DUP1 PUSH2 0x20 PUSH1 0x0 CODECOPY PUSH1 0x0 RETURN INVALID PUSH1 0x80 PUSH1 0x40 MSTORE CALLVALUE DUP1 ISZERO PUSH2 0x10 JUMPI PUSH1 0x0 DUP1 REVERT JUMPDEST POP PUSH1 0x4 CALLDATASIZE LT PUSH2 0x36 JUMPI PUSH1 0x0 CALLDATALOAD PUSH1 0xE0 SHR DUP1 PUSH4 0x64AC1040 EQ PUSH2 0x3B JUMPI DUP1 PUSH4 0xF7AA387B EQ PUSH2 0x50 JUMPI JUMPDEST PUSH1 0x0 DUP1 REVERT JUMPDEST PUSH2 0x4E PUSH2 0x49 CALLDATASIZE PUSH1 0x4 PUSH2 0x3B1 JUMP JUMPDEST PUSH2 0x63 JUMP JUMPDEST STOP JUMPDEST PUSH2 0x4E PUSH2 0x5E CALLDATASIZE PUSH1 0x4 PUSH2 0x440 JUMP JUMPDEST PUSH2 0x13E JUMP JUMPDEST PUSH1 0x40 MLOAD PUSH4 0xB0AC0AB PUSH1 0xE0 SHL DUP2 MSTORE PUSH1 0x1 PUSH1 0x1 PUSH1 0xA0 SHL SUB DUP5 AND PUSH1 0x4 DUP3 ADD MSTORE PUSH8 0xFFFFFFFFFFFFFFFF DUP1 DUP5 AND PUSH1 0x24 DUP4 ADD MSTORE DUP3 AND PUSH1 0x44 DUP3 ADD MSTORE PUSH20 0x3333333333333333333333333333333333333333 SWAP1 PUSH4 0xB0AC0AB SWAP1 PUSH1 0x64 ADD PUSH1 0x0 PUSH1 0x40 MLOAD DUP1 DUP4 SUB DUP2 PUSH1 0x0 DUP8 DUP1 EXTCODESIZE ISZERO DUP1 ISZERO PUSH2 0xD0 JUMPI PUSH1 0x0 DUP1 REVERT JUMPDEST POP GAS CALL ISZERO DUP1 ISZERO PUSH2 0xE4 JUMPI RETURNDATASIZE PUSH1 0x0 DUP1 RETURNDATACOPY RETURNDATASIZE PUSH1 0x0 REVERT JUMPDEST POP POP PUSH1 0x40 DUP1 MLOAD PUSH8 0xFFFFFFFFFFFFFFFF DUP1 DUP8 AND DUP3 MSTORE DUP6 AND PUSH1 0x20 DUP3 ADD MSTORE PUSH1 0x1 PUSH1 0x1 PUSH1 0xA0 SHL SUB DUP8 AND SWAP4 POP CALLER SWAP3 POP PUSH32 0x9B1F84F26DD3F3774D2A187A8E85BE9BCF086253F669B744797AD02F851AE2D6 SWAP2 ADD PUSH1 0x40 MLOAD DUP1 SWAP2 SUB SWAP1 LOG3 POP POP POP JUMP JUMPDEST DUP5 DUP4 EQ DUP1 ISZERO PUSH2 0x14C JUMPI POP DUP3 DUP2 EQ JUMPDEST PUSH2 0x194 JUMPI PUSH1 0x40 MLOAD PUSH3 0x461BCD PUSH1 0xE5 SHL DUP2 MSTORE PUSH1 0x20 PUSH1 0x4 DUP3 ADD MSTORE PUSH1 0x15 PUSH1 0x24 DUP3 ADD MSTORE PUSH21 0x82E4E4C2F240D8CADCCEE8D040DAD2E6DAC2E8C6D PUSH1 0x5B SHL PUSH1 0x44 DUP3 ADD MSTORE PUSH1 0x64 ADD PUSH1 0x40 MLOAD DUP1 SWAP2 SUB SWAP1 REVERT JUMPDEST PUSH1 0x0 JUMPDEST DUP6 DUP2 LT ISZERO PUSH2 0x374 JUMPI PUSH20 0x3333333333333333333333333333333333333333 PUSH4 0xB0AC0AB DUP9 DUP9 DUP5 DUP2 DUP2 LT PUSH2 0x1CB JUMPI PUSH2 0x1CB PUSH2 0x4DA JUMP JUMPDEST SWAP1 POP PUSH1 0x20 MUL ADD PUSH1 0x20 DUP2 ADD SWAP1 PUSH2 0x1E0 SWAP2 SWAP1 PUSH2 0x4F0 JUMP JUMPDEST DUP8 DUP8 DUP6 DUP2 DUP2 LT PUSH2 0x1F2 JUMPI PUSH2 0x1F2 PUSH2 0x4DA JUMP JUMPDEST SWAP1 POP PUSH1 0x20 MUL ADD PUSH1 0x20 DUP2 ADD SWAP1 PUSH2 0x207 SWAP2 SWAP1 PUSH2 0x512 JUMP JUMPDEST DUP7 DUP7 DUP7 DUP2 DUP2 LT PUSH2 0x219 JUMPI PUSH2 0x219 PUSH2 0x4DA JUMP JUMPDEST SWAP1 POP PUSH1 0x20 MUL ADD PUSH1 0x20 DUP2 ADD SWAP1 PUSH2 0x22E SWAP2 SWAP1 PUSH2 0x512 JUMP JUMPDEST PUSH1 0x40 MLOAD PUSH1 0x1 PUSH1 0x1 PUSH1 0xE0 SHL SUB NOT PUSH1 0xE0 DUP7 SWAP1 SHL AND DUP2 MSTORE PUSH1 0x1 PUSH1 0x1 PUSH1 0xA0 SHL SUB SWAP1 SWAP4 AND PUSH1 0x4 DUP5 ADD MSTORE PUSH8 0xFFFFFFFFFFFFFFFF SWAP2 DUP3 AND PUSH1 0x24 DUP5 ADD MSTORE AND PUSH1 0x44 DUP3 ADD MSTORE PUSH1 0x64 ADD PUSH1 0x0 PUSH1 0x40 MLOAD DUP1 DUP4 SUB DUP2 PUSH1 0x0 DUP8 DUP1 EXTCODESIZE ISZERO DUP1 ISZERO PUSH2 0x286 JUMPI PUSH1 0x0 DUP1 REVERT JUMPDEST POP GAS CALL ISZERO DUP1 ISZERO PUSH2 0x29A JUMPI RETURNDATASIZE PUSH1 0x0 DUP1 RETURNDATACOPY RETURNDATASIZE PUSH1 0x0 REVERT JUMPDEST POP POP POP POP DUP7 DUP7 DUP3 DUP2 DUP2 LT PUSH2 0x2B0 JUMPI PUSH2 0x2B0 PUSH2 0x4DA JUMP JUMPDEST SWAP1 POP PUSH1 0x20 MUL ADD PUSH1 0x20 DUP2 ADD SWAP1 PUSH2 0x2C5 SWAP2 SWAP1 PUSH2 0x4F0 JUMP JUMPDEST PUSH1 0x1 PUSH1 0x1 PUSH1 0xA0 SHL SUB AND CALLER PUSH32 0x9B1F84F26DD3F3774D2A187A8E85BE9BCF086253F669B744797AD02F851AE2D6 DUP8 DUP8 DUP6 DUP2 DUP2 LT PUSH2 0x302 JUMPI PUSH2 0x302 PUSH2 0x4DA JUMP JUMPDEST SWAP1 POP PUSH1 0x20 MUL ADD PUSH1 0x20 DUP2 ADD SWAP1 PUSH2 0x317 SWAP2 SWAP1 PUSH2 0x512 JUMP JUMPDEST DUP7 DUP7 DUP7 DUP2 DUP2 LT PUSH2 0x329 JUMPI PUSH2 0x329 PUSH2 0x4DA JUMP JUMPDEST SWAP1 POP PUSH1 0x20 MUL ADD PUSH1 0x20 DUP2 ADD SWAP1 PUSH2 0x33E SWAP2 SWAP1 PUSH2 0x512 JUMP JUMPDEST PUSH1 0x40 DUP1 MLOAD PUSH8 0xFFFFFFFFFFFFFFFF SWAP4 DUP5 AND DUP2 MSTORE SWAP3 SWAP1 SWAP2 AND PUSH1 0x20 DUP4 ADD MSTORE ADD PUSH1 0x40 MLOAD DUP1 SWAP2 SUB SWAP1 LOG3 DUP1 PUSH2 0x36C DUP2 PUSH2 0x52D JUMP JUMPDEST SWAP2 POP POP PUSH2 0x197 JUMP JUMPDEST POP POP POP POP POP POP POP JUMP JUMPDEST DUP1 CALLDATALOAD PUSH1 0x1 PUSH1 0x1 PUSH1 0xA0 SHL SUB DUP2 AND DUP2 EQ PUSH2 0x394 JUMPI PUSH1 0x0 DUP1 REVERT JUMPDEST SWAP2 SWAP1 POP JUMP JUMPDEST DUP1 CALLDATALOAD PUSH8 0xFFFFFFFFFFFFFFFF DUP2 AND DUP2 EQ PUSH2 0x394 JUMPI PUSH1 0x0 DUP1 REVERT JUMPDEST PUSH1 0x0 DUP1 PUSH1 0x0 PUSH1 0x60 DUP5 DUP7 SUB SLT ISZERO PUSH2 0x3C6 JUMPI PUSH1 0x0 DUP1 REVERT JUMPDEST PUSH2 0x3CF DUP5 PUSH2 0x37D JUMP JUMPDEST SWAP3 POP PUSH2 0x3DD PUSH1 0x20 DUP6 ADD PUSH2 0x399 JUMP JUMPDEST SWAP2 POP PUSH2 0x3EB PUSH1 0x40 DUP6 ADD PUSH2 0x399 JUMP JUMPDEST SWAP1 POP SWAP3 POP SWAP3 POP SWAP3 JUMP JUMPDEST PUSH1 0x0 DUP1 DUP4 PUSH1 0x1F DUP5 ADD SLT PUSH2 0x406 JUMPI PUSH1 0x0 DUP1 REVERT JUMPDEST POP DUP2 CALLDATALOAD PUSH8 0xFFFFFFFFFFFFFFFF DUP2 GT ISZERO PUSH2 0x41E JUMPI PUSH1 0x0 DUP1 REVERT JUMPDEST PUSH1 0x20 DUP4 ADD SWAP2 POP DUP4 PUSH1 0x20 DUP3 PUSH1 0x5 SHL DUP6 ADD ADD GT ISZERO PUSH2 0x439 JUMPI PUSH1 0x0 DUP1 REVERT JUMPDEST SWAP3 POP SWAP3 SWAP1 POP JUMP JUMPDEST PUSH1 0x0 DUP1 PUSH1 0x0 DUP1 PUSH1 0x0 DUP1 PUSH1 0x60 DUP8 DUP10 SUB SLT ISZERO PUSH2 0x459 JUMPI PUSH1 0x0 DUP1 REVERT JUMPDEST DUP7 CALLDATALOAD PUSH8 0xFFFFFFFFFFFFFFFF DUP1 DUP3 GT ISZERO PUSH2 0x471 JUMPI PUSH1 0x0 DUP1 REVERT JUMPDEST PUSH2 0x47D DUP11 DUP4 DUP12 ADD PUSH2 0x3F4 JUMP JUMPDEST SWAP1 SWAP9 POP SWAP7 POP PUSH1 0x20 DUP10 ADD CALLDATALOAD SWAP2 POP DUP1 DUP3 GT ISZERO PUSH2 0x496 JUMPI PUSH1 0x0 DUP1 REVERT JUMPDEST PUSH2 0x4A2 DUP11 DUP4 DUP12 ADD PUSH2 0x3F4 JUMP JUMPDEST SWAP1 SWAP7 POP SWAP5 POP PUSH1 0x40 DUP10 ADD CALLDATALOAD SWAP2 POP DUP1 DUP3 GT ISZERO PUSH2 0x4BB JUMPI PUSH1 0x0 DUP1 REVERT JUMPDEST POP PUSH2 0x4C8 DUP10 DUP3 DUP11 ADD PUSH2 0x3F4 JUMP JUMPDEST SWAP8 SWAP11 SWAP7 SWAP10 POP SWAP5 SWAP8 POP SWAP3 SWAP6 SWAP4 SWAP5 SWAP3 POP POP POP JUMP JUMPDEST PUSH4 0x4E487B71 PUSH1 0xE0 SHL PUSH1 0x0 MSTORE PUSH1 0x32 PUSH1 0x4 MSTORE PUSH1 0x24 PUSH1 0x0 REVERT JUMPDEST PUSH1 0x0 PUSH1 0x20 DUP3 DUP5 SUB SLT ISZERO PUSH2 0x502 JUMPI PUSH1 0x0 DUP1 REVERT JUMPDEST PUSH2 0x50B DUP3 PUSH2 0x37D JUMP JUMPDEST SWAP4 SWAP3 POP POP POP JUMP JUMPDEST PUSH1 0x0 PUSH1 0x20 DUP3 DUP5 SUB SLT ISZERO PUSH2 0x524 JUMPI PUSH1 0x0 DUP1 REVERT JUMPDEST PUSH2 0x50B DUP3 PUSH2 0x399 JUMP JUMPDEST PUSH1 0x0 PUSH1 0x1 DUP3 ADD PUSH2 0x54D JUMPI PUSH4 0x4E487B71 PUSH1 0xE0 SHL PUSH1 0x0 MSTORE PUSH1 0x11 PUSH1 0x4 MSTORE PUSH1 0x24 PUSH1 0x0 REVERT JUMPDEST POP PUSH1 0x1 ADD SWAP1 JUMP INVALID LOG2 PUSH5 0x6970667358 0x22 SLT KECCAK256 0xBB 0x26 SAR LOG3 0xDB 0xD1 BALANCE 0xC5 0xDA AND 0xED TIMESTAMP DUP13 0xC6 CREATE2 0xC2 GASPRICE 0xC8 0xE6 DUP12 CALLDATACOPY JUMPDEST CHAINID SWAP9 EXTCODESIZE DUP14 0x5E DELEGATECALL PUSH9 0xA930A064736F6C6343 STOP ADDMOD SGT STOP CALLER "},"methodIdentifiers":{"batchTransfer(address[],uint64[],uint64[])":"f7aa387b","transferTokens(address,uint64,uint64)":"64ac1040"}}}}}