{"contracts/TestPrecompile.sol":{"TestPrecompile":{"abi":[{"anonymous":false,"inputs":[{"indexed":false,"internalType":"string","name":"test","type":"string"},{"indexed":false,"internalType":"bool","name":"success","type":"bool"},{"indexed":false,"internalType":"string","name":"data","type":"string"}],"name":"TestResult","type":"event"},{"inputs":[],"name":"testPrecompileCode","outputs":[{"internalType":"bool","name":"readHasCode","type":"bool"},{"internalType":"bool","name":"writeHasCode","type":"bool"}],"stateMutability":"view","type":"function"},{"inputs":[],"name":"testReadPrecompile","outputs":[],"stateMutability":"nonpayable","type":"function"},{"inputs":[],"name":"testWritePrecompile","outputs":[],"stateMutability":"nonpayable","type":"function"}],"evm":{"bytecode":{"linkReferences":{},"object":"608060405234801561001057600080fd5b50610abb806100206000396000f3fe608060405234801561001057600080fd5b50600436106100415760003560e01c8063178d0fba146100465780638df8a14a14610050578063a08d0b8814610058575b600080fd5b61004e61008d565b005b61004e610199565b604080516108003b151581527333333333333333333333333333333333333333333b1515602082015281519081900390910190f35b60405163cdb0116360e01b8152600160048201526305f5e10060248201523060448201527333333333333333333333333333333333333333339063cdb0116390606401600060405180830381600087803b1580156100ea57600080fd5b505af19250505080156100fb575060015b61017b57610107610555565b806308c379a003610151575061011b6105b4565b806101265750610153565b600080516020610a6683398151915260008260405161014692919061068e565b60405180910390a150565b505b600080516020610a66833981519152600060405161017191906106d9565b60405180910390a1565b600080516020610a668339815191526001604051610171919061073d565b604051632594adc160e01b81526001600482015230602482015261080090632594adc190604401602060405180830381865afa9250505080156101f9575060408051601f3d908101601f191682019092526101f691810190610792565b60015b61027f57610205610555565b806308c379a00361025257506102196105b4565b806102245750610254565b600080516020610a668339815191526000826040516102449291906107ab565b60405180910390a1506102ce565b505b600080516020610a66833981519152600060405161027291906107d9565b60405180910390a16102ce565b600080516020610a66833981519152600161029983610429565b6040516020016102a99190610807565b60408051601f19818403018152908290526102c492916107ab565b60405180910390a1505b604051630f637d9560e41b8152600160048201526108009063f637d95090602401600060405180830381865afa92505050801561032d57506040513d6000823e601f3d908101601f1916820160405261032a9190810190610838565b60015b61039857610339610555565b806308c379a003610378575061034d6105b4565b80610358575061037a565b600080516020610a66833981519152600082604051610146929190610904565b505b600080516020610a6683398151915260006040516101719190610930565b600080516020610a668339815191526001846103d1576040518060400160405280600581526020016466616c736560d81b8152506103ef565b604051806040016040528060048152602001637472756560e01b8152505b8360405160200161040192919061095c565b60408051601f198184030181529082905261041c9291610904565b60405180910390a1505050565b6060816000036104505750506040805180820190915260018152600360fc1b602082015290565b8160005b811561047a5780610464816109cb565b91506104739050600a836109e4565b9150610454565b60008167ffffffffffffffff81111561049557610495610571565b6040519080825280601f01601f1916602001820160405280156104bf576020820181803683370190505b509050815b851561054c576104d5600182610a06565b905060006104e4600a886109e4565b6104ef90600a610a1f565b6104f99088610a06565b610504906030610a36565b905060008160f81b90508084848151811061052157610521610a4f565b60200101906001600160f81b031916908160001a905350610543600a896109e4565b975050506104c4565b50949350505050565b600060033d111561056e5760046000803e5060005160e01c5b90565b634e487b7160e01b600052604160045260246000fd5b601f8201601f1916810167ffffffffffffffff811182821017156105ad576105ad610571565b6040525050565b600060443d10156105c25790565b6040516003193d81016004833e81513d67ffffffffffffffff81602484011181841117156105f257505050505090565b828501915081518181111561060a5750505050505090565b843d87010160208285010111156106245750505050505090565b61063360208286010187610587565b509095945050505050565b60005b83811015610659578181015183820152602001610641565b50506000910152565b6000815180845261067a81602086016020860161063e565b601f01601f19169290920160200192915050565b6060815260006106b66060830160088152671cd95b9914dc1bdd60c21b602082015260400190565b841515602084015282810360408401526106d08185610662565b95945050505050565b6060815260006107016060830160088152671cd95b9914dc1bdd60c21b602082015260400190565b8315156020840152828103604084015261073581600d81526c2ab735b737bbb71032b93937b960991b602082015260400190565b949350505050565b6060815260006107656060830160088152671cd95b9914dc1bdd60c21b602082015260400190565b92151560208381019190915282840360409384015260078452665375636365737360c81b90840152500190565b6000602082840312156107a457600080fd5b5051919050565b6060815260006106b660608301600e81526d67657453706f7442616c616e636560901b602082015260400190565b60608152600061070160608301600e81526d67657453706f7442616c616e636560901b602082015260400190565b6802130b630b731b29d160bd1b81526000825161082b81600985016020870161063e565b9190910160090192915050565b60008060006060848603121561084d57600080fd5b8351801515811461085d57600080fd5b602085015190935060ff8116811461087457600080fd5b604085015190925067ffffffffffffffff8082111561089257600080fd5b818601915086601f8301126108a657600080fd5b8151818111156108b8576108b8610571565b60405191506108d1601f8201601f191660200183610587565b8082528760208285010111156108e657600080fd5b6108f781602084016020860161063e565b5080925050509250925092565b6060815260006106b660608301600c81526b6765744173736574496e666f60a01b602082015260400190565b60608152600061070160608301600c81526b6765744173736574496e666f60a01b602082015260400190565b67022bc34b9ba399d160c51b81526000835161097f81600885016020880161063e565b690161029bcb6b137b61d160b51b60089184019182015283516109a981601284016020880161063e565b01601201949350505050565b634e487b7160e01b600052601160045260246000fd5b6000600182016109dd576109dd6109b5565b5060010190565b600082610a0157634e487b7160e01b600052601260045260246000fd5b500490565b81810381811115610a1957610a196109b5565b92915050565b8082028115828204841417610a1957610a196109b5565b60ff8181168382160190811115610a1957610a196109b5565b634e487b7160e01b600052603260045260246000fdfe8ded0018aee3555da4abd779e14b4af76bd1dd7caf6ac46b76386b28db137e4ea2646970667358221220dfc58a11560e017f736339801cb0a093006ceb652f39bd5f7d3fde00e2dc830964736f6c63430008130033","opcodes":"PUSH1 0x80 PUSH1 0x40 MSTORE CALLVALUE DUP1 ISZERO PUSH2 0x10 JUMPI PUSH1 0x0 DUP1 REVERT JUMPDEST POP PUSH2 0xABB DUP1 PUSH2 0x20 PUSH1 0x0 CODECOPY PUSH1 0x0 RETURN INVALID PUSH1 0x80 PUSH1 0x40 MSTORE CALLVALUE DUP1 ISZERO PUSH2 0x10 JUMPI PUSH1 0x0 DUP1 REVERT JUMPDEST POP PUSH1 0x4 CALLDATASIZE LT PUSH2 0x41 JUMPI PUSH1 0x0 CALLDATALOAD PUSH1 0xE0 SHR DUP1 PUSH4 0x178D0FBA EQ PUSH2 0x46 JUMPI DUP1 PUSH4 0x8DF8A14A EQ PUSH2 0x50 JUMPI DUP1 PUSH4 0xA08D0B88 EQ PUSH2 0x58 JUMPI JUMPDEST PUSH1 0x0 DUP1 REVERT JUMPDEST PUSH2 0x4E PUSH2 0x8D JUMP JUMPDEST STOP JUMPDEST PUSH2 0x4E PUSH2 0x199 JUMP JUMPDEST PUSH1 0x40 DUP1 MLOAD PUSH2 0x800 EXTCODESIZE ISZERO ISZERO DUP2 MSTORE PUSH20 0x3333333333333333333333333333333333333333 EXTCODESIZE ISZERO ISZERO PUSH1 0x20 DUP3 ADD MSTORE DUP2 MLOAD SWAP1 DUP2 SWAP1 SUB SWAP1 SWAP2 ADD SWAP1 RETURN JUMPDEST PUSH1 0x40 MLOAD PUSH4 0xCDB01163 PUSH1 0xE0 SHL DUP2 MSTORE PUSH1 0x1 PUSH1 0x4 DUP3 ADD MSTORE PUSH4 0x5F5E100 PUSH1 0x24 DUP3 ADD MSTORE ADDRESS PUSH1 0x44 DUP3 ADD MSTORE PUSH20 0x3333333333333333333333333333333333333333 SWAP1 PUSH4 0xCDB01163 SWAP1 PUSH1 0x64 ADD PUSH1 0x0 PUSH1 0x40 MLOAD DUP1 DUP4 SUB DUP2 PUSH1 0x0 DUP8 DUP1 EXTCODESIZE ISZERO DUP1 ISZERO PUSH2 0xEA JUMPI PUSH1 0x0 DUP1 REVERT JUMPDEST POP GAS CALL SWAP3 POP POP POP DUP1 ISZERO PUSH2 0xFB JUMPI POP PUSH1 0x1 JUMPDEST PUSH2 0x17B JUMPI PUSH2 0x107 PUSH2 0x555 JUMP JUMPDEST DUP1 PUSH4 0x8C379A0 SUB PUSH2 0x151 JUMPI POP PUSH2 0x11B PUSH2 0x5B4 JUMP JUMPDEST DUP1 PUSH2 0x126 JUMPI POP PUSH2 0x153 JUMP JUMPDEST PUSH1 0x0 DUP1 MLOAD PUSH1 0x20 PUSH2 0xA66 DUP4 CODECOPY DUP2 MLOAD SWAP2 MSTORE PUSH1 0x0 DUP3 PUSH1 0x40 MLOAD PUSH2 0x146 SWAP3 SWAP2 SWAP1 PUSH2 0x68E JUMP JUMPDEST PUSH1 0x40 MLOAD DUP1 SWAP2 SUB SWAP1 LOG1 POP JUMP JUMPDEST POP JUMPDEST PUSH1 0x0 DUP1 MLOAD PUSH1 0x20 PUSH2 0xA66 DUP4 CODECOPY DUP2 MLOAD SWAP2 MSTORE PUSH1 0x0 PUSH1 0x40 MLOAD PUSH2 0x171 SWAP2 SWAP1 PUSH2 0x6D9 JUMP JUMPDEST PUSH1 0x40 MLOAD DUP1 SWAP2 SUB SWAP1 LOG1 JUMP JUMPDEST PUSH1 0x0 DUP1 MLOAD PUSH1 0x20 PUSH2 0xA66 DUP4 CODECOPY DUP2 MLOAD SWAP2 MSTORE PUSH1 0x1 PUSH1 0x40 MLOAD PUSH2 0x171 SWAP2 SWAP1 PUSH2 0x73D JUMP JUMPDEST PUSH1 0x40 MLOAD PUSH4 0x2594ADC1 PUSH1 0xE0 SHL DUP2 MSTORE PUSH1 0x1 PUSH1 0x4 DUP3 ADD MSTORE ADDRESS PUSH1 0x24 DUP3 ADD MSTORE PUSH2 0x800 SWAP1 PUSH4 0x2594ADC1 SWAP1 PUSH1 0x44 ADD PUSH1 0x20 PUSH1 0x40 MLOAD DUP1 DUP4 SUB DUP2 DUP7 GAS STATICCALL SWAP3 POP POP POP DUP1 ISZERO PUSH2 0x1F9 JUMPI POP PUSH1 0x40 DUP1 MLOAD PUSH1 0x1F RETURNDATASIZE SWAP1 DUP2 ADD PUSH1 0x1F NOT AND DUP3 ADD SWAP1 SWAP3 MSTORE PUSH2 0x1F6 SWAP2 DUP2 ADD SWAP1 PUSH2 0x792 JUMP JUMPDEST PUSH1 0x1 JUMPDEST PUSH2 0x27F JUMPI PUSH2 0x205 PUSH2 0x555 JUMP JUMPDEST DUP1 PUSH4 0x8C379A0 SUB PUSH2 0x252 JUMPI POP PUSH2 0x219 PUSH2 0x5B4 JUMP JUMPDEST DUP1 PUSH2 0x224 JUMPI POP PUSH2 0x254 JUMP JUMPDEST PUSH1 0x0 DUP1 MLOAD PUSH1 0x20 PUSH2 0xA66 DUP4 CODECOPY DUP2 MLOAD SWAP2 MSTORE PUSH1 0x0 DUP3 PUSH1 0x40 MLOAD PUSH2 0x244 SWAP3 SWAP2 SWAP1 PUSH2 0x7AB JUMP JUMPDEST PUSH1 0x40 MLOAD DUP1 SWAP2 SUB SWAP1 LOG1 POP PUSH2 0x2CE JUMP JUMPDEST POP JUMPDEST PUSH1 0x0 DUP1 MLOAD PUSH1 0x20 PUSH2 0xA66 DUP4 CODECOPY DUP2 MLOAD SWAP2 MSTORE PUSH1 0x0 PUSH1 0x40 MLOAD PUSH2 0x272 SWAP2 SWAP1 PUSH2 0x7D9 JUMP JUMPDEST PUSH1 0x40 MLOAD DUP1 SWAP2 SUB SWAP1 LOG1 PUSH2 0x2CE JUMP JUMPDEST PUSH1 0x0 DUP1 MLOAD PUSH1 0x20 PUSH2 0xA66 DUP4 CODECOPY DUP2 MLOAD SWAP2 MSTORE PUSH1 0x1 PUSH2 0x299 DUP4 PUSH2 0x429 JUMP JUMPDEST PUSH1 0x40 MLOAD PUSH1 0x20 ADD PUSH2 0x2A9 SWAP2 SWAP1 PUSH2 0x807 JUMP JUMPDEST PUSH1 0x40 DUP1 MLOAD PUSH1 0x1F NOT DUP2 DUP5 SUB ADD DUP2 MSTORE SWAP1 DUP3 SWAP1 MSTORE PUSH2 0x2C4 SWAP3 SWAP2 PUSH2 0x7AB JUMP JUMPDEST PUSH1 0x40 MLOAD DUP1 SWAP2 SUB SWAP1 LOG1 POP JUMPDEST PUSH1 0x40 MLOAD PUSH4 0xF637D95 PUSH1 0xE4 SHL DUP2 MSTORE PUSH1 0x1 PUSH1 0x4 DUP3 ADD MSTORE PUSH2 0x800 SWAP1 PUSH4 0xF637D950 SWAP1 PUSH1 0x24 ADD PUSH1 0x0 PUSH1 0x40 MLOAD DUP1 DUP4 SUB DUP2 DUP7 GAS STATICCALL SWAP3 POP POP POP DUP1 ISZERO PUSH2 0x32D JUMPI POP PUSH1 0x40 MLOAD RETURNDATASIZE PUSH1 0x0 DUP3 RETURNDATACOPY PUSH1 0x1F RETURNDATASIZE SWAP1 DUP2 ADD PUSH1 0x1F NOT AND DUP3 ADD PUSH1 0x40 MSTORE PUSH2 0x32A SWAP2 SWAP1 DUP2 ADD SWAP1 PUSH2 0x838 JUMP JUMPDEST PUSH1 0x1 JUMPDEST PUSH2 0x398 JUMPI PUSH2 0x339 PUSH2 0x555 JUMP JUMPDEST DUP1 PUSH4 0x8C379A0 SUB PUSH2 0x378 JUMPI POP PUSH2 0x34D PUSH2 0x5B4 JUMP JUMPDEST DUP1 PUSH2 0x358 JUMPI POP PUSH2 0x37A JUMP JUMPDEST PUSH1 0x0 DUP1 MLOAD PUSH1 0x20 PUSH2 0xA66 DUP4 CODECOPY DUP2 MLOAD SWAP2 MSTORE PUSH1 0x0 DUP3 PUSH1 0x40 MLOAD PUSH2 0x146 SWAP3 SWAP2 SWAP1 PUSH2 0x904 JUMP JUMPDEST POP JUMPDEST PUSH1 0x0 DUP1 MLOAD PUSH1 0x20 PUSH2 0xA66 DUP4 CODECOPY DUP2 MLOAD SWAP2 MSTORE PUSH1 0x0 PUSH1 0x40 MLOAD PUSH2 0x171 SWAP2 SWAP1 PUSH2 0x930 JUMP JUMPDEST PUSH1 0x0 DUP1 MLOAD PUSH1 0x20 PUSH2 0xA66 DUP4 CODECOPY DUP2 MLOAD SWAP2 MSTORE PUSH1 0x1 DUP5 PUSH2 0x3D1 JUMPI PUSH1 0x40 MLOAD DUP1 PUSH1 0x40 ADD PUSH1 0x40 MSTORE DUP1 PUSH1 0x5 DUP2 MSTORE PUSH1 0x20 ADD PUSH5 0x66616C7365 PUSH1 0xD8 SHL DUP2 MSTORE POP PUSH2 0x3EF JUMP JUMPDEST PUSH1 0x40 MLOAD DUP1 PUSH1 0x40 ADD PUSH1 0x40 MSTORE DUP1 PUSH1 0x4 DUP2 MSTORE PUSH1 0x20 ADD PUSH4 0x74727565 PUSH1 0xE0 SHL DUP2 MSTORE POP JUMPDEST DUP4 PUSH1 0x40 MLOAD PUSH1 0x20 ADD PUSH2 0x401 SWAP3 SWAP2 SWAP1 PUSH2 0x95C JUMP JUMPDEST PUSH1 0x40 DUP1 MLOAD PUSH1 0x1F NOT DUP2 DUP5 SUB ADD DUP2 MSTORE SWAP1 DUP3 SWAP1 MSTORE PUSH2 0x41C SWAP3 SWAP2 PUSH2 0x904 JUMP JUMPDEST PUSH1 0x40 MLOAD DUP1 SWAP2 SUB SWAP1 LOG1 POP POP POP JUMP JUMPDEST PUSH1 0x60 DUP2 PUSH1 0x0 SUB PUSH2 0x450 JUMPI POP POP PUSH1 0x40 DUP1 MLOAD DUP1 DUP3 ADD SWAP1 SWAP2 MSTORE PUSH1 0x1 DUP2 MSTORE PUSH1 0x3 PUSH1 0xFC SHL PUSH1 0x20 DUP3 ADD MSTORE SWAP1 JUMP JUMPDEST DUP2 PUSH1 0x0 JUMPDEST DUP2 ISZERO PUSH2 0x47A JUMPI DUP1 PUSH2 0x464 DUP2 PUSH2 0x9CB JUMP JUMPDEST SWAP2 POP PUSH2 0x473 SWAP1 POP PUSH1 0xA DUP4 PUSH2 0x9E4 JUMP JUMPDEST SWAP2 POP PUSH2 0x454 JUMP JUMPDEST PUSH1 0x0 DUP2 PUSH8 0xFFFFFFFFFFFFFFFF DUP2 GT ISZERO PUSH2 0x495 JUMPI PUSH2 0x495 PUSH2 0x571 JUMP JUMPDEST PUSH1 0x40 MLOAD SWAP1 DUP1 DUP3 MSTORE DUP1 PUSH1 0x1F ADD PUSH1 0x1F NOT AND PUSH1 0x20 ADD DUP3 ADD PUSH1 0x40 MSTORE DUP1 ISZERO PUSH2 0x4BF JUMPI PUSH1 0x20 DUP3 ADD DUP2 DUP1 CALLDATASIZE DUP4 CALLDATACOPY ADD SWAP1 POP JUMPDEST POP SWAP1 POP DUP2 JUMPDEST DUP6 ISZERO PUSH2 0x54C JUMPI PUSH2 0x4D5 PUSH1 0x1 DUP3 PUSH2 0xA06 JUMP JUMPDEST SWAP1 POP PUSH1 0x0 PUSH2 0x4E4 PUSH1 0xA DUP9 PUSH2 0x9E4 JUMP JUMPDEST PUSH2 0x4EF SWAP1 PUSH1 0xA PUSH2 0xA1F JUMP JUMPDEST PUSH2 0x4F9 SWAP1 DUP9 PUSH2 0xA06 JUMP JUMPDEST PUSH2 0x504 SWAP1 PUSH1 0x30 PUSH2 0xA36 JUMP JUMPDEST SWAP1 POP PUSH1 0x0 DUP2 PUSH1 0xF8 SHL SWAP1 POP DUP1 DUP5 DUP5 DUP2 MLOAD DUP2 LT PUSH2 0x521 JUMPI PUSH2 0x521 PUSH2 0xA4F JUMP JUMPDEST PUSH1 0x20 ADD ADD SWAP1 PUSH1 0x1 PUSH1 0x1 PUSH1 0xF8 SHL SUB NOT AND SWAP1 DUP2 PUSH1 0x0 BYTE SWAP1 MSTORE8 POP PUSH2 0x543 PUSH1 0xA DUP10 PUSH2 0x9E4 JUMP JUMPDEST SWAP8 POP POP POP PUSH2 0x4C4 JUMP JUMPDEST POP SWAP5 SWAP4 POP POP POP POP JUMP JUMPDEST PUSH1 0x0 PUSH1 0x3 RETURNDATASIZE GT ISZERO PUSH2 0x56E JUMPI PUSH1 0x4 PUSH1 0x0 DUP1 RETURNDATACOPY POP PUSH1 0x0 MLOAD PUSH1 0xE0 SHR JUMPDEST SWAP1 JUMP JUMPDEST PUSH4 0x4E487B71 PUSH1 0xE0 SHL PUSH1 0x0 MSTORE PUSH1 0x41 PUSH1 0x4 MSTORE PUSH1 0x24 PUSH1 0x0 REVERT JUMPDEST PUSH1 0x1F DUP3 ADD PUSH1 0x1F NOT AND DUP2 ADD PUSH8 0xFFFFFFFFFFFFFFFF DUP2 GT DUP3 DUP3 LT OR ISZERO PUSH2 0x5AD JUMPI PUSH2 0x5AD PUSH2 0x571 JUMP JUMPDEST PUSH1 0x40 MSTORE POP POP JUMP JUMPDEST PUSH1 0x0 PUSH1 0x44 RETURNDATASIZE LT ISZERO PUSH2 0x5C2 JUMPI SWAP1 JUMP JUMPDEST PUSH1 0x40 MLOAD PUSH1 0x3 NOT RETURNDATASIZE DUP2 ADD PUSH1 0x4 DUP4 RETURNDATACOPY DUP2 MLOAD RETURNDATASIZE PUSH8 0xFFFFFFFFFFFFFFFF DUP2 PUSH1 0x24 DUP5 ADD GT DUP2 DUP5 GT OR ISZERO PUSH2 0x5F2 JUMPI POP POP POP POP POP SWAP1 JUMP JUMPDEST DUP3 DUP6 ADD SWAP2 POP DUP2 MLOAD DUP2 DUP2 GT ISZERO PUSH2 0x60A JUMPI POP POP POP POP POP POP SWAP1 JUMP JUMPDEST DUP5 RETURNDATASIZE DUP8 ADD ADD PUSH1 0x20 DUP3 DUP6 ADD ADD GT ISZERO PUSH2 0x624 JUMPI POP POP POP POP POP POP SWAP1 JUMP JUMPDEST PUSH2 0x633 PUSH1 0x20 DUP3 DUP7 ADD ADD DUP8 PUSH2 0x587 JUMP JUMPDEST POP SWAP1 SWAP6 SWAP5 POP POP POP POP POP JUMP JUMPDEST PUSH1 0x0 JUMPDEST DUP4 DUP2 LT ISZERO PUSH2 0x659 JUMPI DUP2 DUP2 ADD MLOAD DUP4 DUP3 ADD MSTORE PUSH1 0x20 ADD PUSH2 0x641 JUMP JUMPDEST POP POP PUSH1 0x0 SWAP2 ADD MSTORE JUMP JUMPDEST PUSH1 0x0 DUP2 MLOAD DUP1 DUP5 MSTORE PUSH2 0x67A DUP2 PUSH1 0x20 DUP7 ADD PUSH1 0x20 DUP7 ADD PUSH2 0x63E JUMP JUMPDEST PUSH1 0x1F ADD PUSH1 0x1F NOT AND SWAP3 SWAP1 SWAP3 ADD PUSH1 0x20 ADD SWAP3 SWAP2 POP POP JUMP JUMPDEST PUSH1 0x60 DUP2 MSTORE PUSH1 0x0 PUSH2 0x6B6 PUSH1 0x60 DUP4 ADD PUSH1 0x8 DUP2 MSTORE PUSH8 0x1CD95B9914DC1BDD PUSH1 0xC2 SHL PUSH1 0x20 DUP3 ADD MSTORE PUSH1 0x40 ADD SWAP1 JUMP JUMPDEST DUP5 ISZERO ISZERO PUSH1 0x20 DUP5 ADD MSTORE DUP3 DUP2 SUB PUSH1 0x40 DUP5 ADD MSTORE PUSH2 0x6D0 DUP2 DUP6 PUSH2 0x662 JUMP JUMPDEST SWAP6 SWAP5 POP POP POP POP POP JUMP JUMPDEST PUSH1 0x60 DUP2 MSTORE PUSH1 0x0 PUSH2 0x701 PUSH1 0x60 DUP4 ADD PUSH1 0x8 DUP2 MSTORE PUSH8 0x1CD95B9914DC1BDD PUSH1 0xC2 SHL PUSH1 0x20 DUP3 ADD MSTORE PUSH1 0x40 ADD SWAP1 JUMP JUMPDEST DUP4 ISZERO ISZERO PUSH1 0x20 DUP5 ADD MSTORE DUP3 DUP2 SUB PUSH1 0x40 DUP5 ADD MSTORE PUSH2 0x735 DUP2 PUSH1 0xD DUP2 MSTORE PUSH13 0x2AB735B737BBB71032B93937B9 PUSH1 0x99 SHL PUSH1 0x20 DUP3 ADD MSTORE PUSH1 0x40 ADD SWAP1 JUMP JUMPDEST SWAP5 SWAP4 POP POP POP POP JUMP JUMPDEST PUSH1 0x60 DUP2 MSTORE PUSH1 0x0 PUSH2 0x765 PUSH1 0x60 DUP4 ADD PUSH1 0x8 DUP2 MSTORE PUSH8 0x1CD95B9914DC1BDD PUSH1 0xC2 SHL PUSH1 0x20 DUP3 ADD MSTORE PUSH1 0x40 ADD SWAP1 JUMP JUMPDEST SWAP3 ISZERO ISZERO PUSH1 0x20 DUP4 DUP2 ADD SWAP2 SWAP1 SWAP2 MSTORE DUP3 DUP5 SUB PUSH1 0x40 SWAP4 DUP5 ADD MSTORE PUSH1 0x7 DUP5 MSTORE PUSH7 0x53756363657373 PUSH1 0xC8 SHL SWAP1 DUP5 ADD MSTORE POP ADD SWAP1 JUMP JUMPDEST PUSH1 0x0 PUSH1 0x20 DUP3 DUP5 SUB SLT ISZERO PUSH2 0x7A4 JUMPI PUSH1 0x0 DUP1 REVERT JUMPDEST POP MLOAD SWAP2 SWAP1 POP JUMP JUMPDEST PUSH1 0x60 DUP2 MSTORE PUSH1 0x0 PUSH2 0x6B6 PUSH1 0x60 DUP4 ADD PUSH1 0xE DUP2 MSTORE PUSH14 0x67657453706F7442616C616E6365 PUSH1 0x90 SHL PUSH1 0x20 DUP3 ADD MSTORE PUSH1 0x40 ADD SWAP1 JUMP JUMPDEST PUSH1 0x60 DUP2 MSTORE PUSH1 0x0 PUSH2 0x701 PUSH1 0x60 DUP4 ADD PUSH1 0xE DUP2 MSTORE PUSH14 0x67657453706F7442616C616E6365 PUSH1 0x90 SHL PUSH1 0x20 DUP3 ADD MSTORE PUSH1 0x40 ADD SWAP1 JUMP JUMPDEST PUSH9 0x2130B630B731B29D1 PUSH1 0xBD SHL DUP2 MSTORE PUSH1 0x0 DUP3 MLOAD PUSH2 0x82B DUP2 PUSH1 0x9 DUP6 ADD PUSH1 0x20 DUP8 ADD PUSH2 0x63E JUMP JUMPDEST SWAP2 SWAP1 SWAP2 ADD PUSH1 0x9 ADD SWAP3 SWAP2 POP POP JUMP JUMPDEST PUSH1 0x0 DUP1 PUSH1 0x0 PUSH1 0x60 DUP5 DUP7 SUB SLT ISZERO PUSH2 0x84D JUMPI PUSH1 0x0 DUP1 REVERT JUMPDEST DUP4 MLOAD DUP1 ISZERO ISZERO DUP2 EQ PUSH2 0x85D JUMPI PUSH1 0x0 DUP1 REVERT JUMPDEST PUSH1 0x20 DUP6 ADD MLOAD SWAP1 SWAP4 POP PUSH1 0xFF DUP2 AND DUP2 EQ PUSH2 0x874 JUMPI PUSH1 0x0 DUP1 REVERT JUMPDEST PUSH1 0x40 DUP6 ADD MLOAD SWAP1 SWAP3 POP PUSH8 0xFFFFFFFFFFFFFFFF DUP1 DUP3 GT ISZERO PUSH2 0x892 JUMPI PUSH1 0x0 DUP1 REVERT JUMPDEST DUP2 DUP7 ADD SWAP2 POP DUP7 PUSH1 0x1F DUP4 ADD SLT PUSH2 0x8A6 JUMPI PUSH1 0x0 DUP1 REVERT JUMPDEST DUP2 MLOAD DUP2 DUP2 GT ISZERO PUSH2 0x8B8 JUMPI PUSH2 0x8B8 PUSH2 0x571 JUMP JUMPDEST PUSH1 0x40 MLOAD SWAP2 POP PUSH2 0x8D1 PUSH1 0x1F DUP3 ADD PUSH1 0x1F NOT AND PUSH1 0x20 ADD DUP4 PUSH2 0x587 JUMP JUMPDEST DUP1 DUP3 MSTORE DUP8 PUSH1 0x20 DUP3 DUP6 ADD ADD GT ISZERO PUSH2 0x8E6 JUMPI PUSH1 0x0 DUP1 REVERT JUMPDEST PUSH2 0x8F7 DUP2 PUSH1 0x20 DUP5 ADD PUSH1 0x20 DUP7 ADD PUSH2 0x63E JUMP JUMPDEST POP DUP1 SWAP3 POP POP POP SWAP3 POP SWAP3 POP SWAP3 JUMP JUMPDEST PUSH1 0x60 DUP2 MSTORE PUSH1 0x0 PUSH2 0x6B6 PUSH1 0x60 DUP4 ADD PUSH1 0xC DUP2 MSTORE PUSH12 0x6765744173736574496E666F PUSH1 0xA0 SHL PUSH1 0x20 DUP3 ADD MSTORE PUSH1 0x40 ADD SWAP1 JUMP JUMPDEST PUSH1 0x60 DUP2 MSTORE PUSH1 0x0 PUSH2 0x701 PUSH1 0x60 DUP4 ADD PUSH1 0xC DUP2 MSTORE PUSH12 0x6765744173736574496E666F PUSH1 0xA0 SHL PUSH1 0x20 DUP3 ADD MSTORE PUSH1 0x40 ADD SWAP1 JUMP JUMPDEST PUSH8 0x22BC34B9BA399D1 PUSH1 0xC5 SHL DUP2 MSTORE PUSH1 0x0 DUP4 MLOAD PUSH2 0x97F DUP2 PUSH1 0x8 DUP6 ADD PUSH1 0x20 DUP9 ADD PUSH2 0x63E JUMP JUMPDEST PUSH10 0x161029BCB6B137B61D1 PUSH1 0xB5 SHL PUSH1 0x8 SWAP2 DUP5 ADD SWAP2 DUP3 ADD MSTORE DUP4 MLOAD PUSH2 0x9A9 DUP2 PUSH1 0x12 DUP5 ADD PUSH1 0x20 DUP9 ADD PUSH2 0x63E JUMP JUMPDEST ADD PUSH1 0x12 ADD SWAP5 SWAP4 POP POP POP POP JUMP JUMPDEST PUSH4 0x4E487B71 PUSH1 0xE0 SHL PUSH1 0x0 MSTORE PUSH1 0x11 PUSH1 0x4 MSTORE PUSH1 0x24 PUSH1 0x0 REVERT JUMPDEST PUSH1 0x0 PUSH1 0x1 DUP3 ADD PUSH2 0x9DD JUMPI PUSH2 0x9DD PUSH2 0x9B5 JUMP JUMPDEST POP PUSH1 0x1 ADD SWAP1 JUMP JUMPDEST PUSH1 0x0 DUP3 PUSH2 0xA01 JUMPI PUSH4 0x4E487B71 PUSH1 0xE0 SHL PUSH1 0x0 MSTORE PUSH1 0x12 PUSH1 0x4 MSTORE PUSH1 0x24 PUSH1 0x0 REVERT JUMPDEST POP DIV SWAP1 JUMP JUMPDEST DUP2 DUP2 SUB DUP2 DUP2 GT ISZERO PUSH2 0xA19 JUMPI PUSH2 0xA19 PUSH2 0x9B5 JUMP JUMPDEST SWAP3 SWAP2 POP POP JUMP JUMPDEST DUP1 DUP3 MUL DUP2 ISZERO DUP3 DUP3 DIV DUP5 EQ OR PUSH2 0xA19 JUMPI PUSH2 0xA19 PUSH2 0x9B5 JUMP JUMPDEST PUSH1 0xFF DUP2 DUP2 AND DUP4 DUP3 AND ADD SWAP1 DUP2 GT ISZERO PUSH2 0xA19 JUMPI PUSH2 0xA19 PUSH2 0x9B5 JUMP JUMPDEST PUSH4 0x4E487B71 PUSH1 0xE0 SHL PUSH1 0x0 MSTORE PUSH1 0x32 PUSH1 0x4 MSTORE PUSH1 0x24 PUSH1 0x0 REVERT INVALID DUP14 0xED STOP XOR 0xAE 0xE3 SSTORE 0x5D LOG4 0xAB 0xD7 PUSH26 0xE14B4AF76BD1DD7CAF6AC46B76386B28DB137E4EA26469706673 PC 0x22 SLT KECCAK256 0xDF 0xC5 DUP11 GT JUMP 0xE ADD PUSH32 0x736339801CB0A093006CEB652F39BD5F7D3FDE00E2DC830964736F6C63430008 SGT STOP CALLER "},"methodIdentifiers":{"testPrecompileCode()":"a08d0b88","testReadPrecompile()":"8df8a14a","testWritePrecompile()":"178d0fba"}}}}}