{"contracts/InnocenceVerificationKeys.sol":{"InnocenceVerificationKeys":{"abi":[{"inputs":[],"name":"BALANCE_VKEY","outputs":[{"internalType":"bytes32","name":"","type":"bytes32"}],"stateMutability":"view","type":"function"},{"inputs":[],"name":"COMPLIANCE_VKEY","outputs":[{"internalType":"bytes32","name":"","type":"bytes32"}],"stateMutability":"view","type":"function"},{"inputs":[],"name":"OWNERSHIP_VKEY","outputs":[{"internalType":"bytes32","name":"","type":"bytes32"}],"stateMutability":"view","type":"function"},{"inputs":[],"name":"TRADE_VKEY","outputs":[{"internalType":"bytes32","name":"","type":"bytes32"}],"stateMutability":"view","type":"function"}],"evm":{"bytecode":{"linkReferences":{},"object":"61013261003a600b82828239805160001a60731461002d57634e487b7160e01b600052600060045260246000fd5b30600052607381538281f3fe730000000000000000000000000000000000000000301460806040526004361060515760003560e01c806317c50ac5146056578063263ce78514608d578063c74778601460b2578063f989e7241460d7575b600080fd5b607b7eed1611619b8f2866de7be17d81a9d42a869b4c5959629708f125ae34a2f9ee81565b60405190815260200160405180910390f35b607b7e8484840d42565b9589f5c37253789d3731407964b1537fb5cf9d6064226b1c81565b607b7e6bf06179a19e1575731cbb10c5b9cc955cae6f0a5de98cf8baf3c7c416131a81565b607b7e9c22b4f95fb710070dc80cfce7526c4cc7780834ab328bd769ff58934e6d058156fea2646970667358221220429cb23d8de9fa904357103dcf7a24890a2ea05bcf1a1df1c59c61ad7254ac2364736f6c63430008130033","opcodes":"PUSH2 0x132 PUSH2 0x3A PUSH1 0xB DUP3 DUP3 DUP3 CODECOPY DUP1 MLOAD PUSH1 0x0 BYTE PUSH1 0x73 EQ PUSH2 0x2D JUMPI PUSH4 0x4E487B71 PUSH1 0xE0 SHL PUSH1 0x0 MSTORE PUSH1 0x0 PUSH1 0x4 MSTORE PUSH1 0x24 PUSH1 0x0 REVERT JUMPDEST ADDRESS PUSH1 0x0 MSTORE PUSH1 0x73 DUP2 MSTORE8 DUP3 DUP2 RETURN INVALID PUSH20 0x0 ADDRESS EQ PUSH1 0x80 PUSH1 0x40 MSTORE PUSH1 0x4 CALLDATASIZE LT PUSH1 0x51 JUMPI PUSH1 0x0 CALLDATALOAD PUSH1 0xE0 SHR DUP1 PUSH4 0x17C50AC5 EQ PUSH1 0x56 JUMPI DUP1 PUSH4 0x263CE785 EQ PUSH1 0x8D JUMPI DUP1 PUSH4 0xC7477860 EQ PUSH1 0xB2 JUMPI DUP1 PUSH4 0xF989E724 EQ PUSH1 0xD7 JUMPI JUMPDEST PUSH1 0x0 DUP1 REVERT JUMPDEST PUSH1 0x7B PUSH31 0xED1611619B8F2866DE7BE17D81A9D42A869B4C5959629708F125AE34A2F9EE DUP2 JUMP JUMPDEST PUSH1 0x40 MLOAD SWAP1 DUP2 MSTORE PUSH1 0x20 ADD PUSH1 0x40 MLOAD DUP1 SWAP2 SUB SWAP1 RETURN JUMPDEST PUSH1 0x7B PUSH31 0x8484840D42565B9589F5C37253789D3731407964B1537FB5CF9D6064226B1C DUP2 JUMP JUMPDEST PUSH1 0x7B PUSH31 0x6BF06179A19E1575731CBB10C5B9CC955CAE6F0A5DE98CF8BAF3C7C416131A DUP2 JUMP JUMPDEST PUSH1 0x7B PUSH31 0x9C22B4F95FB710070DC80CFCE7526C4CC7780834AB328BD769FF58934E6D05 DUP2 JUMP INVALID LOG2 PUSH5 0x6970667358 0x22 SLT KECCAK256 TIMESTAMP SWAP13 0xB2 RETURNDATASIZE DUP14 0xE9 STATICCALL SWAP1 NUMBER JUMPI LT RETURNDATASIZE 0xCF PUSH27 0x24890A2EA05BCF1A1DF1C59C61AD7254AC2364736F6C6343000813 STOP CALLER "},"methodIdentifiers":{"BALANCE_VKEY()":"f989e724","COMPLIANCE_VKEY()":"17c50ac5","OWNERSHIP_VKEY()":"c7477860","TRADE_VKEY()":"263ce785"}}}}}