{"contracts/HyperliquidPrivacySystem.sol":{"HyperliquidPrivacySystem":{"abi":[{"inputs":[{"internalType":"address","name":"_complianceAuthority","type":"address"}],"stateMutability":"nonpayable","type":"constructor"},{"anonymous":false,"inputs":[{"indexed":true,"internalType":"address","name":"user","type":"address"},{"indexed":false,"internalType":"bool","name":"isValid","type":"bool"}],"name":"CertificateValidated","type":"event"},{"anonymous":false,"inputs":[{"indexed":true,"internalType":"address","name":"newAuthority","type":"address"}],"name":"ComplianceAuthorityUpdated","type":"event"},{"anonymous":false,"inputs":[{"indexed":true,"internalType":"bytes32","name":"commitment","type":"bytes32"},{"indexed":false,"internalType":"uint256","name":"timestamp","type":"uint256"}],"name":"PrivateDeposit","type":"event"},{"anonymous":false,"inputs":[{"indexed":true,"internalType":"bytes32","name":"commitment","type":"bytes32"},{"indexed":false,"internalType":"uint256","name":"timestamp","type":"uint256"}],"name":"PrivateTrade","type":"event"},{"anonymous":false,"inputs":[{"indexed":true,"internalType":"bytes32","name":"nullifier","type":"bytes32"},{"indexed":false,"internalType":"uint256","name":"timestamp","type":"uint256"}],"name":"PrivateWithdraw","type":"event"},{"inputs":[{"internalType":"bytes32","name":"","type":"bytes32"}],"name":"commitmentIndex","outputs":[{"internalType":"uint256","name":"","type":"uint256"}],"stateMutability":"view","type":"function"},{"inputs":[{"internalType":"uint256","name":"","type":"uint256"}],"name":"commitmentMerkleTree","outputs":[{"internalType":"bytes32","name":"","type":"bytes32"}],"stateMutability":"view","type":"function"},{"inputs":[{"internalType":"bytes32","name":"","type":"bytes32"}],"name":"commitments","outputs":[{"internalType":"bool","name":"","type":"bool"}],"stateMutability":"view","type":"function"},{"inputs":[],"name":"complianceAuthority","outputs":[{"internalType":"address","name":"","type":"address"}],"stateMutability":"view","type":"function"},{"inputs":[{"internalType":"bytes32","name":"commitment","type":"bytes32"},{"internalType":"uint256","name":"asset","type":"uint256"},{"internalType":"uint256","name":"amount","type":"uint256"},{"internalType":"bytes","name":"certificate","type":"bytes"},{"internalType":"bytes","name":"signature","type":"bytes"}],"name":"deposit","outputs":[],"stateMutability":"nonpayable","type":"function"},{"inputs":[{"internalType":"uint256","name":"asset","type":"uint256"},{"internalType":"uint256","name":"amount","type":"uint256"},{"internalType":"address","name":"recipient","type":"address"}],"name":"emergencyWithdraw","outputs":[],"stateMutability":"nonpayable","type":"function"},{"inputs":[],"name":"getMerkleRoot","outputs":[{"internalType":"bytes32","name":"","type":"bytes32"}],"stateMutability":"view","type":"function"},{"inputs":[{"internalType":"bytes32","name":"commitment","type":"bytes32"}],"name":"getPrivatePortfolioHealth","outputs":[{"internalType":"uint256","name":"","type":"uint256"}],"stateMutability":"view","type":"function"},{"inputs":[{"internalType":"bytes32","name":"","type":"bytes32"}],"name":"nullifiers","outputs":[{"internalType":"bool","name":"","type":"bool"}],"stateMutability":"view","type":"function"},{"inputs":[{"internalType":"bytes32","name":"commitment","type":"bytes32"},{"internalType":"bytes","name":"proof","type":"bytes"},{"internalType":"uint256","name":"asset","type":"uint256"},{"internalType":"int256","name":"sizeChange","type":"int256"},{"internalType":"uint256","name":"maxSlippage","type":"uint256"}],"name":"privatePerpsPosition","outputs":[],"stateMutability":"nonpayable","type":"function"},{"inputs":[{"internalType":"bytes32","name":"commitment","type":"bytes32"},{"internalType":"bytes","name":"proof","type":"bytes"},{"internalType":"uint256","name":"fromAsset","type":"uint256"},{"internalType":"uint256","name":"toAsset","type":"uint256"},{"internalType":"uint256","name":"amount","type":"uint256"},{"internalType":"uint256","name":"minReceived","type":"uint256"}],"name":"privateSpotTrade","outputs":[],"stateMutability":"nonpayable","type":"function"},{"inputs":[{"internalType":"address","name":"newAuthority","type":"address"}],"name":"updateComplianceAuthority","outputs":[],"stateMutability":"nonpayable","type":"function"},{"inputs":[{"internalType":"address","name":"","type":"address"}],"name":"validCertificates","outputs":[{"internalType":"bool","name":"","type":"bool"}],"stateMutability":"view","type":"function"},{"inputs":[{"internalType":"address","name":"user","type":"address"},{"internalType":"bytes","name":"certificate","type":"bytes"},{"internalType":"bytes","name":"signature","type":"bytes"}],"name":"validateCertificate","outputs":[],"stateMutability":"nonpayable","type":"function"},{"inputs":[{"internalType":"bytes32","name":"nullifier","type":"bytes32"},{"internalType":"address","name":"recipient","type":"address"},{"internalType":"uint256","name":"asset","type":"uint256"},{"internalType":"uint256","name":"amount","type":"uint256"},{"internalType":"bytes","name":"proof","type":"bytes"}],"name":"withdraw","outputs":[],"stateMutability":"nonpayable","type":"function"}],"evm":{"bytecode":{"linkReferences":{},"object":"608060405234801561001057600080fd5b5060405161138f38038061138f83398101604081905261002f91610054565b600480546001600160a01b0319166001600160a01b0392909216919091179055610084565b60006020828403121561006657600080fd5b81516001600160a01b038116811461007d57600080fd5b9392505050565b6112fc806100936000396000f3fe608060405234801561001057600080fd5b50600436106100f55760003560e01c8063839df94511610097578063a474542f11610066578063a474542f1461023a578063d4a82dc51461024d578063e5ea7be214610260578063f72b2a4c1461027357600080fd5b8063839df945146101ce5780638f0ca81a146101f1578063984c3e5614610204578063a3278f791461021757600080fd5b80632997e86b116100d35780632997e86b14610155578063309f477a146101885780633382c1b2146101b357806349590657146101c657600080fd5b8063012d09b5146100fa5780631409f3121461012d57806328fa0a2514610142575b600080fd5b61011a610108366004610e19565b60066020526000908152604090205481565b6040519081526020015b60405180910390f35b61014061013b366004610ed5565b610286565b005b610140610150366004610f37565b6103ec565b610178610163366004610e19565b60026020526000908152604090205460ff1681565b6040519015158152602001610124565b60045461019b906001600160a01b031681565b6040516001600160a01b039091168152602001610124565b6101406101c1366004610fbd565b610789565b61011a6108ff565b6101786101dc366004610e19565b60016020526000908152604090205460ff1681565b61011a6101ff366004610e19565b6109ac565b610140610212366004611028565b6109e6565b61017861022536600461109c565b60036020526000908152604090205460ff1681565b6101406102483660046110b7565b610a6f565b61011a61025b366004610e19565b610c8e565b61014061026e36600461109c565b610caf565b61014061028136600461112b565b610d23565b6102908486610dcd565b6102d15760405162461bcd60e51b815260206004820152600d60248201526c24b73b30b634b210383937b7b360991b60448201526064015b60405180910390fd5b60008581526020819052604090206002015460ff166103025760405162461bcd60e51b81526004016102c890611160565b60405163212a676d60e01b81526004810184905260248101839052600083136044820152606481018290527333333333333333333333333333333333333333339063212a676d90608401600060405180830381600087803b15801561036657600080fd5b505af115801561037a573d6000803e3d6000fd5b505050600086815260208181526040808320878452600101909152812080548593509091906103aa9084906111a4565b909155505060405142815285907f8f3dba1073f4b750e9392983cbbdd0d9b7e8380008bdda0e7683e3c3aa5c5189906020015b60405180910390a25050505050565b6103f68587610dcd565b6104325760405162461bcd60e51b815260206004820152600d60248201526c24b73b30b634b210383937b7b360991b60448201526064016102c8565b60008681526020819052604090206002015460ff166104635760405162461bcd60e51b81526004016102c890611160565b6000868152602081815260408083208784529091529020548211156104c15760405162461bcd60e51b8152602060048201526014602482015273496e73756666696369656e742062616c616e636560601b60448201526064016102c8565b6040516384a07dcb60e01b815260048101859052600090610800906384a07dcb90602401602060405180830381865afa158015610502573d6000803e3d6000fd5b505050506040513d601f19601f8201168201806040525081019061052691906111cc565b6040516384a07dcb60e01b815260048101869052909150600090610800906384a07dcb90602401602060405180830381865afa15801561056a573d6000803e3d6000fd5b505050506040513d601f19601f8201168201806040525081019061058e91906111cc565b905060008161059d84876111e5565b6105a791906111fc565b9050838110156105ed5760405162461bcd60e51b81526020600482015260116024820152700a6d8d2e0e0c2ceca40e8dede40d0d2ced607b1b60448201526064016102c8565b73333333333333333333333333333333333333333363212a676d886106118861121e565b6040516001600160e01b031960e085901b168152600481019290925260248201526000604482018190526064820152608401600060405180830381600087803b15801561065d57600080fd5b505af1158015610671573d6000803e3d6000fd5b505060405163212a676d60e01b815260048101899052602481018490526001604482015260006064820152733333333333333333333333333333333333333333925063212a676d9150608401600060405180830381600087803b1580156106d757600080fd5b505af11580156106eb573d6000803e3d6000fd5b50505060008a8152602081815260408083208b84529091528120805488935090919061071890849061123a565b90915550506000898152602081815260408083208984529091528120805483929061074490849061124d565b909155505060405142815289907f8f3dba1073f4b750e9392983cbbdd0d9b7e8380008bdda0e7683e3c3aa5c51899060200160405180910390a2505050505050505050565b60008581526002602052604090205460ff16156107e15760405162461bcd60e51b8152602060048201526016602482015275139d5b1b1a599a595c88185b1c9958591e481d5cd95960521b60448201526064016102c8565b6107ed81868585610de7565b6108395760405162461bcd60e51b815260206004820152601860248201527f496e76616c6964207769746864726177616c2070726f6f66000000000000000060448201526064016102c8565b60008581526002602052604090819020805460ff191660011790555163cdb0116360e01b815260048101849052602481018390526001600160a01b03851660448201527333333333333333333333333333333333333333339063cdb0116390606401600060405180830381600087803b1580156108b557600080fd5b505af11580156108c9573d6000803e3d6000fd5b50505050847fcc9580996e4c53ac7e73439f181e208ab15831ea2d2429dd12ee742c1c475b6f426040516103dd91815260200190565b60055460009081036109115750600090565b6000600560008154811061092757610927611260565b600091825260209091200154905060015b6005548110156109a657816005828154811061095657610956611260565b906000526020600020015460405160200161097b929190918252602082015260400190565b604051602081830303815290604052805190602001209150808061099e90611276565b915050610938565b50919050565b60008181526020819052604081206002015460ff166109dd5760405162461bcd60e51b81526004016102c890611160565b506103e8919050565b6004546001600160a01b03163314610a105760405162461bcd60e51b81526004016102c89061128f565b6001600160a01b038316600081815260036020908152604091829020805460ff1916600190811790915591519182527f0c1dcc7403a9d518716ddd7c0d97e08e0ce57a8600970f46d6f8500d83b6c5ea910160405180910390a2505050565b3360008181526003602052604090205460ff16610ace5760405162461bcd60e51b815260206004820152601e60248201527f496e76616c696420636f6d706c69616e6365206365727469666963617465000060448201526064016102c8565b60008681526001602052604090205460ff1615610b2d5760405162461bcd60e51b815260206004820152601760248201527f436f6d6d69746d656e7420616c7265616479207573656400000000000000000060448201526064016102c8565b60405163cdb0116360e01b815260048101869052602481018590523060448201527333333333333333333333333333333333333333339063cdb0116390606401600060405180830381600087803b158015610b8757600080fd5b505af1158015610b9b573d6000803e3d6000fd5b5050506000878152600160208181526040808420805460ff1916909317909255828152818320898452905281208054879350909190610bdb90849061124d565b90915550506000868152602081905260408120600201805460ff19166001908117909155600580548083018255928190527f036b6384b5eca791c62761152d0c79bb0604c104a5fb6f4eb0703f3154bb3db09092018890559054610c3f919061123a565b600087815260066020908152604091829020929092555142815287917f02d0beb141922199e99106aa1e9e523add96e905baf9299bfb1042acd145bf5c910160405180910390a2505050505050565b60058181548110610c9e57600080fd5b600091825260209091200154905081565b6004546001600160a01b03163314610cd95760405162461bcd60e51b81526004016102c89061128f565b600480546001600160a01b0319166001600160a01b0383169081179091556040517f829c4ef70a1fb0edb9daa0db5c77d61190e746db94bce7dc78fee99d04fb409990600090a250565b6004546001600160a01b03163314610d4d5760405162461bcd60e51b81526004016102c89061128f565b60405163cdb0116360e01b815260048101849052602481018390526001600160a01b03821660448201527333333333333333333333333333333333333333339063cdb0116390606401600060405180830381600087803b158015610db057600080fd5b505af1158015610dc4573d6000803e3d6000fd5b50505050505050565b6000808351118015610dde57508115155b90505b92915050565b6000808551118015610df857508315155b8015610e045750600083115b8015610e105750600082115b95945050505050565b600060208284031215610e2b57600080fd5b5035919050565b634e487b7160e01b600052604160045260246000fd5b600082601f830112610e5957600080fd5b813567ffffffffffffffff80821115610e7457610e74610e32565b604051601f8301601f19908116603f01168101908282118183101715610e9c57610e9c610e32565b81604052838152866020858801011115610eb557600080fd5b836020870160208301376000602085830101528094505050505092915050565b600080600080600060a08688031215610eed57600080fd5b85359450602086013567ffffffffffffffff811115610f0b57600080fd5b610f1788828901610e48565b959895975050505060408401359360608101359360809091013592509050565b60008060008060008060c08789031215610f5057600080fd5b86359550602087013567ffffffffffffffff811115610f6e57600080fd5b610f7a89828a01610e48565b96999698505050506040850135946060810135946080820135945060a09091013592509050565b80356001600160a01b0381168114610fb857600080fd5b919050565b600080600080600060a08688031215610fd557600080fd5b85359450610fe560208701610fa1565b93506040860135925060608601359150608086013567ffffffffffffffff81111561100f57600080fd5b61101b88828901610e48565b9150509295509295909350565b60008060006060848603121561103d57600080fd5b61104684610fa1565b9250602084013567ffffffffffffffff8082111561106357600080fd5b61106f87838801610e48565b9350604086013591508082111561108557600080fd5b5061109286828701610e48565b9150509250925092565b6000602082840312156110ae57600080fd5b610dde82610fa1565b600080600080600060a086880312156110cf57600080fd5b853594506020860135935060408601359250606086013567ffffffffffffffff808211156110fc57600080fd5b61110889838a01610e48565b9350608088013591508082111561111e57600080fd5b5061101b88828901610e48565b60008060006060848603121561114057600080fd5b833592506020840135915061115760408501610fa1565b90509250925092565b60208082526014908201527315985d5b1d08191bd95cc81b9bdd08195e1a5cdd60621b604082015260600190565b634e487b7160e01b600052601160045260246000fd5b80820182811260008312801582168215821617156111c4576111c461118e565b505092915050565b6000602082840312156111de57600080fd5b5051919050565b8082028115828204841417610de157610de161118e565b60008261121957634e487b7160e01b600052601260045260246000fd5b500490565b6000600160ff1b82016112335761123361118e565b5060000390565b81810381811115610de157610de161118e565b80820180821115610de157610de161118e565b634e487b7160e01b600052603260045260246000fd5b6000600182016112885761128861118e565b5060010190565b60208082526019908201527f4f6e6c7920636f6d706c69616e636520617574686f726974790000000000000060408201526060019056fea2646970667358221220a867fac9fe89b478632804970b1c5f2f119d6aaff62b1ce8623f4ca6d1f288c364736f6c63430008130033","opcodes":"PUSH1 0x80 PUSH1 0x40 MSTORE CALLVALUE DUP1 ISZERO PUSH2 0x10 JUMPI PUSH1 0x0 DUP1 REVERT JUMPDEST POP PUSH1 0x40 MLOAD PUSH2 0x138F CODESIZE SUB DUP1 PUSH2 0x138F DUP4 CODECOPY DUP2 ADD PUSH1 0x40 DUP2 SWAP1 MSTORE PUSH2 0x2F SWAP2 PUSH2 0x54 JUMP JUMPDEST PUSH1 0x4 DUP1 SLOAD PUSH1 0x1 PUSH1 0x1 PUSH1 0xA0 SHL SUB NOT AND PUSH1 0x1 PUSH1 0x1 PUSH1 0xA0 SHL SUB SWAP3 SWAP1 SWAP3 AND SWAP2 SWAP1 SWAP2 OR SWAP1 SSTORE PUSH2 0x84 JUMP JUMPDEST PUSH1 0x0 PUSH1 0x20 DUP3 DUP5 SUB SLT ISZERO PUSH2 0x66 JUMPI PUSH1 0x0 DUP1 REVERT JUMPDEST DUP2 MLOAD PUSH1 0x1 PUSH1 0x1 PUSH1 0xA0 SHL SUB DUP2 AND DUP2 EQ PUSH2 0x7D JUMPI PUSH1 0x0 DUP1 REVERT JUMPDEST SWAP4 SWAP3 POP POP POP JUMP JUMPDEST PUSH2 0x12FC DUP1 PUSH2 0x93 PUSH1 0x0 CODECOPY PUSH1 0x0 RETURN INVALID PUSH1 0x80 PUSH1 0x40 MSTORE CALLVALUE DUP1 ISZERO PUSH2 0x10 JUMPI PUSH1 0x0 DUP1 REVERT JUMPDEST POP PUSH1 0x4 CALLDATASIZE LT PUSH2 0xF5 JUMPI PUSH1 0x0 CALLDATALOAD PUSH1 0xE0 SHR DUP1 PUSH4 0x839DF945 GT PUSH2 0x97 JUMPI DUP1 PUSH4 0xA474542F GT PUSH2 0x66 JUMPI DUP1 PUSH4 0xA474542F EQ PUSH2 0x23A JUMPI DUP1 PUSH4 0xD4A82DC5 EQ PUSH2 0x24D JUMPI DUP1 PUSH4 0xE5EA7BE2 EQ PUSH2 0x260 JUMPI DUP1 PUSH4 0xF72B2A4C EQ PUSH2 0x273 JUMPI PUSH1 0x0 DUP1 REVERT JUMPDEST DUP1 PUSH4 0x839DF945 EQ PUSH2 0x1CE JUMPI DUP1 PUSH4 0x8F0CA81A EQ PUSH2 0x1F1 JUMPI DUP1 PUSH4 0x984C3E56 EQ PUSH2 0x204 JUMPI DUP1 PUSH4 0xA3278F79 EQ PUSH2 0x217 JUMPI PUSH1 0x0 DUP1 REVERT JUMPDEST DUP1 PUSH4 0x2997E86B GT PUSH2 0xD3 JUMPI DUP1 PUSH4 0x2997E86B EQ PUSH2 0x155 JUMPI DUP1 PUSH4 0x309F477A EQ PUSH2 0x188 JUMPI DUP1 PUSH4 0x3382C1B2 EQ PUSH2 0x1B3 JUMPI DUP1 PUSH4 0x49590657 EQ PUSH2 0x1C6 JUMPI PUSH1 0x0 DUP1 REVERT JUMPDEST DUP1 PUSH4 0x12D09B5 EQ PUSH2 0xFA JUMPI DUP1 PUSH4 0x1409F312 EQ PUSH2 0x12D JUMPI DUP1 PUSH4 0x28FA0A25 EQ PUSH2 0x142 JUMPI JUMPDEST PUSH1 0x0 DUP1 REVERT JUMPDEST PUSH2 0x11A PUSH2 0x108 CALLDATASIZE PUSH1 0x4 PUSH2 0xE19 JUMP JUMPDEST PUSH1 0x6 PUSH1 0x20 MSTORE PUSH1 0x0 SWAP1 DUP2 MSTORE PUSH1 0x40 SWAP1 KECCAK256 SLOAD DUP2 JUMP JUMPDEST PUSH1 0x40 MLOAD SWAP1 DUP2 MSTORE PUSH1 0x20 ADD JUMPDEST PUSH1 0x40 MLOAD DUP1 SWAP2 SUB SWAP1 RETURN JUMPDEST PUSH2 0x140 PUSH2 0x13B CALLDATASIZE PUSH1 0x4 PUSH2 0xED5 JUMP JUMPDEST PUSH2 0x286 JUMP JUMPDEST STOP JUMPDEST PUSH2 0x140 PUSH2 0x150 CALLDATASIZE PUSH1 0x4 PUSH2 0xF37 JUMP JUMPDEST PUSH2 0x3EC JUMP JUMPDEST PUSH2 0x178 PUSH2 0x163 CALLDATASIZE PUSH1 0x4 PUSH2 0xE19 JUMP JUMPDEST PUSH1 0x2 PUSH1 0x20 MSTORE PUSH1 0x0 SWAP1 DUP2 MSTORE PUSH1 0x40 SWAP1 KECCAK256 SLOAD PUSH1 0xFF AND DUP2 JUMP JUMPDEST PUSH1 0x40 MLOAD SWAP1 ISZERO ISZERO DUP2 MSTORE PUSH1 0x20 ADD PUSH2 0x124 JUMP JUMPDEST PUSH1 0x4 SLOAD PUSH2 0x19B SWAP1 PUSH1 0x1 PUSH1 0x1 PUSH1 0xA0 SHL SUB AND DUP2 JUMP JUMPDEST PUSH1 0x40 MLOAD PUSH1 0x1 PUSH1 0x1 PUSH1 0xA0 SHL SUB SWAP1 SWAP2 AND DUP2 MSTORE PUSH1 0x20 ADD PUSH2 0x124 JUMP JUMPDEST PUSH2 0x140 PUSH2 0x1C1 CALLDATASIZE PUSH1 0x4 PUSH2 0xFBD JUMP JUMPDEST PUSH2 0x789 JUMP JUMPDEST PUSH2 0x11A PUSH2 0x8FF JUMP JUMPDEST PUSH2 0x178 PUSH2 0x1DC CALLDATASIZE PUSH1 0x4 PUSH2 0xE19 JUMP JUMPDEST PUSH1 0x1 PUSH1 0x20 MSTORE PUSH1 0x0 SWAP1 DUP2 MSTORE PUSH1 0x40 SWAP1 KECCAK256 SLOAD PUSH1 0xFF AND DUP2 JUMP JUMPDEST PUSH2 0x11A PUSH2 0x1FF CALLDATASIZE PUSH1 0x4 PUSH2 0xE19 JUMP JUMPDEST PUSH2 0x9AC JUMP JUMPDEST PUSH2 0x140 PUSH2 0x212 CALLDATASIZE PUSH1 0x4 PUSH2 0x1028 JUMP JUMPDEST PUSH2 0x9E6 JUMP JUMPDEST PUSH2 0x178 PUSH2 0x225 CALLDATASIZE PUSH1 0x4 PUSH2 0x109C JUMP JUMPDEST PUSH1 0x3 PUSH1 0x20 MSTORE PUSH1 0x0 SWAP1 DUP2 MSTORE PUSH1 0x40 SWAP1 KECCAK256 SLOAD PUSH1 0xFF AND DUP2 JUMP JUMPDEST PUSH2 0x140 PUSH2 0x248 CALLDATASIZE PUSH1 0x4 PUSH2 0x10B7 JUMP JUMPDEST PUSH2 0xA6F JUMP JUMPDEST PUSH2 0x11A PUSH2 0x25B CALLDATASIZE PUSH1 0x4 PUSH2 0xE19 JUMP JUMPDEST PUSH2 0xC8E JUMP JUMPDEST PUSH2 0x140 PUSH2 0x26E CALLDATASIZE PUSH1 0x4 PUSH2 0x109C JUMP JUMPDEST PUSH2 0xCAF JUMP JUMPDEST PUSH2 0x140 PUSH2 0x281 CALLDATASIZE PUSH1 0x4 PUSH2 0x112B JUMP JUMPDEST PUSH2 0xD23 JUMP JUMPDEST PUSH2 0x290 DUP5 DUP7 PUSH2 0xDCD JUMP JUMPDEST PUSH2 0x2D1 JUMPI PUSH1 0x40 MLOAD PUSH3 0x461BCD PUSH1 0xE5 SHL DUP2 MSTORE PUSH1 0x20 PUSH1 0x4 DUP3 ADD MSTORE PUSH1 0xD PUSH1 0x24 DUP3 ADD MSTORE PUSH13 0x24B73B30B634B210383937B7B3 PUSH1 0x99 SHL PUSH1 0x44 DUP3 ADD MSTORE PUSH1 0x64 ADD JUMPDEST PUSH1 0x40 MLOAD DUP1 SWAP2 SUB SWAP1 REVERT JUMPDEST PUSH1 0x0 DUP6 DUP2 MSTORE PUSH1 0x20 DUP2 SWAP1 MSTORE PUSH1 0x40 SWAP1 KECCAK256 PUSH1 0x2 ADD SLOAD PUSH1 0xFF AND PUSH2 0x302 JUMPI PUSH1 0x40 MLOAD PUSH3 0x461BCD PUSH1 0xE5 SHL DUP2 MSTORE PUSH1 0x4 ADD PUSH2 0x2C8 SWAP1 PUSH2 0x1160 JUMP JUMPDEST PUSH1 0x40 MLOAD PUSH4 0x212A676D PUSH1 0xE0 SHL DUP2 MSTORE PUSH1 0x4 DUP2 ADD DUP5 SWAP1 MSTORE PUSH1 0x24 DUP2 ADD DUP4 SWAP1 MSTORE PUSH1 0x0 DUP4 SGT PUSH1 0x44 DUP3 ADD MSTORE PUSH1 0x64 DUP2 ADD DUP3 SWAP1 MSTORE PUSH20 0x3333333333333333333333333333333333333333 SWAP1 PUSH4 0x212A676D SWAP1 PUSH1 0x84 ADD PUSH1 0x0 PUSH1 0x40 MLOAD DUP1 DUP4 SUB DUP2 PUSH1 0x0 DUP8 DUP1 EXTCODESIZE ISZERO DUP1 ISZERO PUSH2 0x366 JUMPI PUSH1 0x0 DUP1 REVERT JUMPDEST POP GAS CALL ISZERO DUP1 ISZERO PUSH2 0x37A JUMPI RETURNDATASIZE PUSH1 0x0 DUP1 RETURNDATACOPY RETURNDATASIZE PUSH1 0x0 REVERT JUMPDEST POP POP POP PUSH1 0x0 DUP7 DUP2 MSTORE PUSH1 0x20 DUP2 DUP2 MSTORE PUSH1 0x40 DUP1 DUP4 KECCAK256 DUP8 DUP5 MSTORE PUSH1 0x1 ADD SWAP1 SWAP2 MSTORE DUP2 KECCAK256 DUP1 SLOAD DUP6 SWAP4 POP SWAP1 SWAP2 SWAP1 PUSH2 0x3AA SWAP1 DUP5 SWAP1 PUSH2 0x11A4 JUMP JUMPDEST SWAP1 SWAP2 SSTORE POP POP PUSH1 0x40 MLOAD TIMESTAMP DUP2 MSTORE DUP6 SWAP1 PUSH32 0x8F3DBA1073F4B750E9392983CBBDD0D9B7E8380008BDDA0E7683E3C3AA5C5189 SWAP1 PUSH1 0x20 ADD JUMPDEST PUSH1 0x40 MLOAD DUP1 SWAP2 SUB SWAP1 LOG2 POP POP POP POP POP JUMP JUMPDEST PUSH2 0x3F6 DUP6 DUP8 PUSH2 0xDCD JUMP JUMPDEST PUSH2 0x432 JUMPI PUSH1 0x40 MLOAD PUSH3 0x461BCD PUSH1 0xE5 SHL DUP2 MSTORE PUSH1 0x20 PUSH1 0x4 DUP3 ADD MSTORE PUSH1 0xD PUSH1 0x24 DUP3 ADD MSTORE PUSH13 0x24B73B30B634B210383937B7B3 PUSH1 0x99 SHL PUSH1 0x44 DUP3 ADD MSTORE PUSH1 0x64 ADD PUSH2 0x2C8 JUMP JUMPDEST PUSH1 0x0 DUP7 DUP2 MSTORE PUSH1 0x20 DUP2 SWAP1 MSTORE PUSH1 0x40 SWAP1 KECCAK256 PUSH1 0x2 ADD SLOAD PUSH1 0xFF AND PUSH2 0x463 JUMPI PUSH1 0x40 MLOAD PUSH3 0x461BCD PUSH1 0xE5 SHL DUP2 MSTORE PUSH1 0x4 ADD PUSH2 0x2C8 SWAP1 PUSH2 0x1160 JUMP JUMPDEST PUSH1 0x0 DUP7 DUP2 MSTORE PUSH1 0x20 DUP2 DUP2 MSTORE PUSH1 0x40 DUP1 DUP4 KECCAK256 DUP8 DUP5 MSTORE SWAP1 SWAP2 MSTORE SWAP1 KECCAK256 SLOAD DUP3 GT ISZERO PUSH2 0x4C1 JUMPI PUSH1 0x40 MLOAD PUSH3 0x461BCD PUSH1 0xE5 SHL DUP2 MSTORE PUSH1 0x20 PUSH1 0x4 DUP3 ADD MSTORE PUSH1 0x14 PUSH1 0x24 DUP3 ADD MSTORE PUSH20 0x496E73756666696369656E742062616C616E6365 PUSH1 0x60 SHL PUSH1 0x44 DUP3 ADD MSTORE PUSH1 0x64 ADD PUSH2 0x2C8 JUMP JUMPDEST PUSH1 0x40 MLOAD PUSH4 0x84A07DCB PUSH1 0xE0 SHL DUP2 MSTORE PUSH1 0x4 DUP2 ADD DUP6 SWAP1 MSTORE PUSH1 0x0 SWAP1 PUSH2 0x800 SWAP1 PUSH4 0x84A07DCB SWAP1 PUSH1 0x24 ADD PUSH1 0x20 PUSH1 0x40 MLOAD DUP1 DUP4 SUB DUP2 DUP7 GAS STATICCALL ISZERO DUP1 ISZERO PUSH2 0x502 JUMPI RETURNDATASIZE PUSH1 0x0 DUP1 RETURNDATACOPY RETURNDATASIZE PUSH1 0x0 REVERT JUMPDEST POP POP POP POP PUSH1 0x40 MLOAD RETURNDATASIZE PUSH1 0x1F NOT PUSH1 0x1F DUP3 ADD AND DUP3 ADD DUP1 PUSH1 0x40 MSTORE POP DUP2 ADD SWAP1 PUSH2 0x526 SWAP2 SWAP1 PUSH2 0x11CC JUMP JUMPDEST PUSH1 0x40 MLOAD PUSH4 0x84A07DCB PUSH1 0xE0 SHL DUP2 MSTORE PUSH1 0x4 DUP2 ADD DUP7 SWAP1 MSTORE SWAP1 SWAP2 POP PUSH1 0x0 SWAP1 PUSH2 0x800 SWAP1 PUSH4 0x84A07DCB SWAP1 PUSH1 0x24 ADD PUSH1 0x20 PUSH1 0x40 MLOAD DUP1 DUP4 SUB DUP2 DUP7 GAS STATICCALL ISZERO DUP1 ISZERO PUSH2 0x56A JUMPI RETURNDATASIZE PUSH1 0x0 DUP1 RETURNDATACOPY RETURNDATASIZE PUSH1 0x0 REVERT JUMPDEST POP POP POP POP PUSH1 0x40 MLOAD RETURNDATASIZE PUSH1 0x1F NOT PUSH1 0x1F DUP3 ADD AND DUP3 ADD DUP1 PUSH1 0x40 MSTORE POP DUP2 ADD SWAP1 PUSH2 0x58E SWAP2 SWAP1 PUSH2 0x11CC JUMP JUMPDEST SWAP1 POP PUSH1 0x0 DUP2 PUSH2 0x59D DUP5 DUP8 PUSH2 0x11E5 JUMP JUMPDEST PUSH2 0x5A7 SWAP2 SWAP1 PUSH2 0x11FC JUMP JUMPDEST SWAP1 POP DUP4 DUP2 LT ISZERO PUSH2 0x5ED JUMPI PUSH1 0x40 MLOAD PUSH3 0x461BCD PUSH1 0xE5 SHL DUP2 MSTORE PUSH1 0x20 PUSH1 0x4 DUP3 ADD MSTORE PUSH1 0x11 PUSH1 0x24 DUP3 ADD MSTORE PUSH17 0xA6D8D2E0E0C2CECA40E8DEDE40D0D2CED PUSH1 0x7B SHL PUSH1 0x44 DUP3 ADD MSTORE PUSH1 0x64 ADD PUSH2 0x2C8 JUMP JUMPDEST PUSH20 0x3333333333333333333333333333333333333333 PUSH4 0x212A676D DUP9 PUSH2 0x611 DUP9 PUSH2 0x121E JUMP JUMPDEST PUSH1 0x40 MLOAD PUSH1 0x1 PUSH1 0x1 PUSH1 0xE0 SHL SUB NOT PUSH1 0xE0 DUP6 SWAP1 SHL AND DUP2 MSTORE PUSH1 0x4 DUP2 ADD SWAP3 SWAP1 SWAP3 MSTORE PUSH1 0x24 DUP3 ADD MSTORE PUSH1 0x0 PUSH1 0x44 DUP3 ADD DUP2 SWAP1 MSTORE PUSH1 0x64 DUP3 ADD MSTORE PUSH1 0x84 ADD PUSH1 0x0 PUSH1 0x40 MLOAD DUP1 DUP4 SUB DUP2 PUSH1 0x0 DUP8 DUP1 EXTCODESIZE ISZERO DUP1 ISZERO PUSH2 0x65D JUMPI PUSH1 0x0 DUP1 REVERT JUMPDEST POP GAS CALL ISZERO DUP1 ISZERO PUSH2 0x671 JUMPI RETURNDATASIZE PUSH1 0x0 DUP1 RETURNDATACOPY RETURNDATASIZE PUSH1 0x0 REVERT JUMPDEST POP POP PUSH1 0x40 MLOAD PUSH4 0x212A676D PUSH1 0xE0 SHL DUP2 MSTORE PUSH1 0x4 DUP2 ADD DUP10 SWAP1 MSTORE PUSH1 0x24 DUP2 ADD DUP5 SWAP1 MSTORE PUSH1 0x1 PUSH1 0x44 DUP3 ADD MSTORE PUSH1 0x0 PUSH1 0x64 DUP3 ADD MSTORE PUSH20 0x3333333333333333333333333333333333333333 SWAP3 POP PUSH4 0x212A676D SWAP2 POP PUSH1 0x84 ADD PUSH1 0x0 PUSH1 0x40 MLOAD DUP1 DUP4 SUB DUP2 PUSH1 0x0 DUP8 DUP1 EXTCODESIZE ISZERO DUP1 ISZERO PUSH2 0x6D7 JUMPI PUSH1 0x0 DUP1 REVERT JUMPDEST POP GAS CALL ISZERO DUP1 ISZERO PUSH2 0x6EB JUMPI RETURNDATASIZE PUSH1 0x0 DUP1 RETURNDATACOPY RETURNDATASIZE PUSH1 0x0 REVERT JUMPDEST POP POP POP PUSH1 0x0 DUP11 DUP2 MSTORE PUSH1 0x20 DUP2 DUP2 MSTORE PUSH1 0x40 DUP1 DUP4 KECCAK256 DUP12 DUP5 MSTORE SWAP1 SWAP2 MSTORE DUP2 KECCAK256 DUP1 SLOAD DUP9 SWAP4 POP SWAP1 SWAP2 SWAP1 PUSH2 0x718 SWAP1 DUP5 SWAP1 PUSH2 0x123A JUMP JUMPDEST SWAP1 SWAP2 SSTORE POP POP PUSH1 0x0 DUP10 DUP2 MSTORE PUSH1 0x20 DUP2 DUP2 MSTORE PUSH1 0x40 DUP1 DUP4 KECCAK256 DUP10 DUP5 MSTORE SWAP1 SWAP2 MSTORE DUP2 KECCAK256 DUP1 SLOAD DUP4 SWAP3 SWAP1 PUSH2 0x744 SWAP1 DUP5 SWAP1 PUSH2 0x124D JUMP JUMPDEST SWAP1 SWAP2 SSTORE POP POP PUSH1 0x40 MLOAD TIMESTAMP DUP2 MSTORE DUP10 SWAP1 PUSH32 0x8F3DBA1073F4B750E9392983CBBDD0D9B7E8380008BDDA0E7683E3C3AA5C5189 SWAP1 PUSH1 0x20 ADD PUSH1 0x40 MLOAD DUP1 SWAP2 SUB SWAP1 LOG2 POP POP POP POP POP POP POP POP POP JUMP JUMPDEST PUSH1 0x0 DUP6 DUP2 MSTORE PUSH1 0x2 PUSH1 0x20 MSTORE PUSH1 0x40 SWAP1 KECCAK256 SLOAD PUSH1 0xFF AND ISZERO PUSH2 0x7E1 JUMPI PUSH1 0x40 MLOAD PUSH3 0x461BCD PUSH1 0xE5 SHL DUP2 MSTORE PUSH1 0x20 PUSH1 0x4 DUP3 ADD MSTORE PUSH1 0x16 PUSH1 0x24 DUP3 ADD MSTORE PUSH22 0x139D5B1B1A599A595C88185B1C9958591E481D5CD959 PUSH1 0x52 SHL PUSH1 0x44 DUP3 ADD MSTORE PUSH1 0x64 ADD PUSH2 0x2C8 JUMP JUMPDEST PUSH2 0x7ED DUP2 DUP7 DUP6 DUP6 PUSH2 0xDE7 JUMP JUMPDEST PUSH2 0x839 JUMPI PUSH1 0x40 MLOAD PUSH3 0x461BCD PUSH1 0xE5 SHL DUP2 MSTORE PUSH1 0x20 PUSH1 0x4 DUP3 ADD MSTORE PUSH1 0x18 PUSH1 0x24 DUP3 ADD MSTORE PUSH32 0x496E76616C6964207769746864726177616C2070726F6F660000000000000000 PUSH1 0x44 DUP3 ADD MSTORE PUSH1 0x64 ADD PUSH2 0x2C8 JUMP JUMPDEST PUSH1 0x0 DUP6 DUP2 MSTORE PUSH1 0x2 PUSH1 0x20 MSTORE PUSH1 0x40 SWAP1 DUP2 SWAP1 KECCAK256 DUP1 SLOAD PUSH1 0xFF NOT AND PUSH1 0x1 OR SWAP1 SSTORE MLOAD PUSH4 0xCDB01163 PUSH1 0xE0 SHL DUP2 MSTORE PUSH1 0x4 DUP2 ADD DUP5 SWAP1 MSTORE PUSH1 0x24 DUP2 ADD DUP4 SWAP1 MSTORE PUSH1 0x1 PUSH1 0x1 PUSH1 0xA0 SHL SUB DUP6 AND PUSH1 0x44 DUP3 ADD MSTORE PUSH20 0x3333333333333333333333333333333333333333 SWAP1 PUSH4 0xCDB01163 SWAP1 PUSH1 0x64 ADD PUSH1 0x0 PUSH1 0x40 MLOAD DUP1 DUP4 SUB DUP2 PUSH1 0x0 DUP8 DUP1 EXTCODESIZE ISZERO DUP1 ISZERO PUSH2 0x8B5 JUMPI PUSH1 0x0 DUP1 REVERT JUMPDEST POP GAS CALL ISZERO DUP1 ISZERO PUSH2 0x8C9 JUMPI RETURNDATASIZE PUSH1 0x0 DUP1 RETURNDATACOPY RETURNDATASIZE PUSH1 0x0 REVERT JUMPDEST POP POP POP POP DUP5 PUSH32 0xCC9580996E4C53AC7E73439F181E208AB15831EA2D2429DD12EE742C1C475B6F TIMESTAMP PUSH1 0x40 MLOAD PUSH2 0x3DD SWAP2 DUP2 MSTORE PUSH1 0x20 ADD SWAP1 JUMP JUMPDEST PUSH1 0x5 SLOAD PUSH1 0x0 SWAP1 DUP2 SUB PUSH2 0x911 JUMPI POP PUSH1 0x0 SWAP1 JUMP JUMPDEST PUSH1 0x0 PUSH1 0x5 PUSH1 0x0 DUP2 SLOAD DUP2 LT PUSH2 0x927 JUMPI PUSH2 0x927 PUSH2 0x1260 JUMP JUMPDEST PUSH1 0x0 SWAP2 DUP3 MSTORE PUSH1 0x20 SWAP1 SWAP2 KECCAK256 ADD SLOAD SWAP1 POP PUSH1 0x1 JUMPDEST PUSH1 0x5 SLOAD DUP2 LT ISZERO PUSH2 0x9A6 JUMPI DUP2 PUSH1 0x5 DUP3 DUP2 SLOAD DUP2 LT PUSH2 0x956 JUMPI PUSH2 0x956 PUSH2 0x1260 JUMP JUMPDEST SWAP1 PUSH1 0x0 MSTORE PUSH1 0x20 PUSH1 0x0 KECCAK256 ADD SLOAD PUSH1 0x40 MLOAD PUSH1 0x20 ADD PUSH2 0x97B SWAP3 SWAP2 SWAP1 SWAP2 DUP3 MSTORE PUSH1 0x20 DUP3 ADD MSTORE PUSH1 0x40 ADD SWAP1 JUMP JUMPDEST PUSH1 0x40 MLOAD PUSH1 0x20 DUP2 DUP4 SUB SUB DUP2 MSTORE SWAP1 PUSH1 0x40 MSTORE DUP1 MLOAD SWAP1 PUSH1 0x20 ADD KECCAK256 SWAP2 POP DUP1 DUP1 PUSH2 0x99E SWAP1 PUSH2 0x1276 JUMP JUMPDEST SWAP2 POP POP PUSH2 0x938 JUMP JUMPDEST POP SWAP2 SWAP1 POP JUMP JUMPDEST PUSH1 0x0 DUP2 DUP2 MSTORE PUSH1 0x20 DUP2 SWAP1 MSTORE PUSH1 0x40 DUP2 KECCAK256 PUSH1 0x2 ADD SLOAD PUSH1 0xFF AND PUSH2 0x9DD JUMPI PUSH1 0x40 MLOAD PUSH3 0x461BCD PUSH1 0xE5 SHL DUP2 MSTORE PUSH1 0x4 ADD PUSH2 0x2C8 SWAP1 PUSH2 0x1160 JUMP JUMPDEST POP PUSH2 0x3E8 SWAP2 SWAP1 POP JUMP JUMPDEST PUSH1 0x4 SLOAD PUSH1 0x1 PUSH1 0x1 PUSH1 0xA0 SHL SUB AND CALLER EQ PUSH2 0xA10 JUMPI PUSH1 0x40 MLOAD PUSH3 0x461BCD PUSH1 0xE5 SHL DUP2 MSTORE PUSH1 0x4 ADD PUSH2 0x2C8 SWAP1 PUSH2 0x128F JUMP JUMPDEST PUSH1 0x1 PUSH1 0x1 PUSH1 0xA0 SHL SUB DUP4 AND PUSH1 0x0 DUP2 DUP2 MSTORE PUSH1 0x3 PUSH1 0x20 SWAP1 DUP2 MSTORE PUSH1 0x40 SWAP2 DUP3 SWAP1 KECCAK256 DUP1 SLOAD PUSH1 0xFF NOT AND PUSH1 0x1 SWAP1 DUP2 OR SWAP1 SWAP2 SSTORE SWAP2 MLOAD SWAP2 DUP3 MSTORE PUSH32 0xC1DCC7403A9D518716DDD7C0D97E08E0CE57A8600970F46D6F8500D83B6C5EA SWAP2 ADD PUSH1 0x40 MLOAD DUP1 SWAP2 SUB SWAP1 LOG2 POP POP POP JUMP JUMPDEST CALLER PUSH1 0x0 DUP2 DUP2 MSTORE PUSH1 0x3 PUSH1 0x20 MSTORE PUSH1 0x40 SWAP1 KECCAK256 SLOAD PUSH1 0xFF AND PUSH2 0xACE JUMPI PUSH1 0x40 MLOAD PUSH3 0x461BCD PUSH1 0xE5 SHL DUP2 MSTORE PUSH1 0x20 PUSH1 0x4 DUP3 ADD MSTORE PUSH1 0x1E PUSH1 0x24 DUP3 ADD MSTORE PUSH32 0x496E76616C696420636F6D706C69616E63652063657274696669636174650000 PUSH1 0x44 DUP3 ADD MSTORE PUSH1 0x64 ADD PUSH2 0x2C8 JUMP JUMPDEST PUSH1 0x0 DUP7 DUP2 MSTORE PUSH1 0x1 PUSH1 0x20 MSTORE PUSH1 0x40 SWAP1 KECCAK256 SLOAD PUSH1 0xFF AND ISZERO PUSH2 0xB2D JUMPI PUSH1 0x40 MLOAD PUSH3 0x461BCD PUSH1 0xE5 SHL DUP2 MSTORE PUSH1 0x20 PUSH1 0x4 DUP3 ADD MSTORE PUSH1 0x17 PUSH1 0x24 DUP3 ADD MSTORE PUSH32 0x436F6D6D69746D656E7420616C72656164792075736564000000000000000000 PUSH1 0x44 DUP3 ADD MSTORE PUSH1 0x64 ADD PUSH2 0x2C8 JUMP JUMPDEST PUSH1 0x40 MLOAD PUSH4 0xCDB01163 PUSH1 0xE0 SHL DUP2 MSTORE PUSH1 0x4 DUP2 ADD DUP7 SWAP1 MSTORE PUSH1 0x24 DUP2 ADD DUP6 SWAP1 MSTORE ADDRESS PUSH1 0x44 DUP3 ADD MSTORE PUSH20 0x3333333333333333333333333333333333333333 SWAP1 PUSH4 0xCDB01163 SWAP1 PUSH1 0x64 ADD PUSH1 0x0 PUSH1 0x40 MLOAD DUP1 DUP4 SUB DUP2 PUSH1 0x0 DUP8 DUP1 EXTCODESIZE ISZERO DUP1 ISZERO PUSH2 0xB87 JUMPI PUSH1 0x0 DUP1 REVERT JUMPDEST POP GAS CALL ISZERO DUP1 ISZERO PUSH2 0xB9B JUMPI RETURNDATASIZE PUSH1 0x0 DUP1 RETURNDATACOPY RETURNDATASIZE PUSH1 0x0 REVERT JUMPDEST POP POP POP PUSH1 0x0 DUP8 DUP2 MSTORE PUSH1 0x1 PUSH1 0x20 DUP2 DUP2 MSTORE PUSH1 0x40 DUP1 DUP5 KECCAK256 DUP1 SLOAD PUSH1 0xFF NOT AND SWAP1 SWAP4 OR SWAP1 SWAP3 SSTORE DUP3 DUP2 MSTORE DUP2 DUP4 KECCAK256 DUP10 DUP5 MSTORE SWAP1 MSTORE DUP2 KECCAK256 DUP1 SLOAD DUP8 SWAP4 POP SWAP1 SWAP2 SWAP1 PUSH2 0xBDB SWAP1 DUP5 SWAP1 PUSH2 0x124D JUMP JUMPDEST SWAP1 SWAP2 SSTORE POP POP PUSH1 0x0 DUP7 DUP2 MSTORE PUSH1 0x20 DUP2 SWAP1 MSTORE PUSH1 0x40 DUP2 KECCAK256 PUSH1 0x2 ADD DUP1 SLOAD PUSH1 0xFF NOT AND PUSH1 0x1 SWAP1 DUP2 OR SWAP1 SWAP2 SSTORE PUSH1 0x5 DUP1 SLOAD DUP1 DUP4 ADD DUP3 SSTORE SWAP3 DUP2 SWAP1 MSTORE PUSH32 0x36B6384B5ECA791C62761152D0C79BB0604C104A5FB6F4EB0703F3154BB3DB0 SWAP1 SWAP3 ADD DUP9 SWAP1 SSTORE SWAP1 SLOAD PUSH2 0xC3F SWAP2 SWAP1 PUSH2 0x123A JUMP JUMPDEST PUSH1 0x0 DUP8 DUP2 MSTORE PUSH1 0x6 PUSH1 0x20 SWAP1 DUP2 MSTORE PUSH1 0x40 SWAP2 DUP3 SWAP1 KECCAK256 SWAP3 SWAP1 SWAP3 SSTORE MLOAD TIMESTAMP DUP2 MSTORE DUP8 SWAP2 PUSH32 0x2D0BEB141922199E99106AA1E9E523ADD96E905BAF9299BFB1042ACD145BF5C SWAP2 ADD PUSH1 0x40 MLOAD DUP1 SWAP2 SUB SWAP1 LOG2 POP POP POP POP POP POP JUMP JUMPDEST PUSH1 0x5 DUP2 DUP2 SLOAD DUP2 LT PUSH2 0xC9E JUMPI PUSH1 0x0 DUP1 REVERT JUMPDEST PUSH1 0x0 SWAP2 DUP3 MSTORE PUSH1 0x20 SWAP1 SWAP2 KECCAK256 ADD SLOAD SWAP1 POP DUP2 JUMP JUMPDEST PUSH1 0x4 SLOAD PUSH1 0x1 PUSH1 0x1 PUSH1 0xA0 SHL SUB AND CALLER EQ PUSH2 0xCD9 JUMPI PUSH1 0x40 MLOAD PUSH3 0x461BCD PUSH1 0xE5 SHL DUP2 MSTORE PUSH1 0x4 ADD PUSH2 0x2C8 SWAP1 PUSH2 0x128F JUMP JUMPDEST PUSH1 0x4 DUP1 SLOAD PUSH1 0x1 PUSH1 0x1 PUSH1 0xA0 SHL SUB NOT AND PUSH1 0x1 PUSH1 0x1 PUSH1 0xA0 SHL SUB DUP4 AND SWAP1 DUP2 OR SWAP1 SWAP2 SSTORE PUSH1 0x40 MLOAD PUSH32 0x829C4EF70A1FB0EDB9DAA0DB5C77D61190E746DB94BCE7DC78FEE99D04FB4099 SWAP1 PUSH1 0x0 SWAP1 LOG2 POP JUMP JUMPDEST PUSH1 0x4 SLOAD PUSH1 0x1 PUSH1 0x1 PUSH1 0xA0 SHL SUB AND CALLER EQ PUSH2 0xD4D JUMPI PUSH1 0x40 MLOAD PUSH3 0x461BCD PUSH1 0xE5 SHL DUP2 MSTORE PUSH1 0x4 ADD PUSH2 0x2C8 SWAP1 PUSH2 0x128F JUMP JUMPDEST PUSH1 0x40 MLOAD PUSH4 0xCDB01163 PUSH1 0xE0 SHL DUP2 MSTORE PUSH1 0x4 DUP2 ADD DUP5 SWAP1 MSTORE PUSH1 0x24 DUP2 ADD DUP4 SWAP1 MSTORE PUSH1 0x1 PUSH1 0x1 PUSH1 0xA0 SHL SUB DUP3 AND PUSH1 0x44 DUP3 ADD MSTORE PUSH20 0x3333333333333333333333333333333333333333 SWAP1 PUSH4 0xCDB01163 SWAP1 PUSH1 0x64 ADD PUSH1 0x0 PUSH1 0x40 MLOAD DUP1 DUP4 SUB DUP2 PUSH1 0x0 DUP8 DUP1 EXTCODESIZE ISZERO DUP1 ISZERO PUSH2 0xDB0 JUMPI PUSH1 0x0 DUP1 REVERT JUMPDEST POP GAS CALL ISZERO DUP1 ISZERO PUSH2 0xDC4 JUMPI RETURNDATASIZE PUSH1 0x0 DUP1 RETURNDATACOPY RETURNDATASIZE PUSH1 0x0 REVERT JUMPDEST POP POP POP POP POP POP POP JUMP JUMPDEST PUSH1 0x0 DUP1 DUP4 MLOAD GT DUP1 ISZERO PUSH2 0xDDE JUMPI POP DUP2 ISZERO ISZERO JUMPDEST SWAP1 POP JUMPDEST SWAP3 SWAP2 POP POP JUMP JUMPDEST PUSH1 0x0 DUP1 DUP6 MLOAD GT DUP1 ISZERO PUSH2 0xDF8 JUMPI POP DUP4 ISZERO ISZERO JUMPDEST DUP1 ISZERO PUSH2 0xE04 JUMPI POP PUSH1 0x0 DUP4 GT JUMPDEST DUP1 ISZERO PUSH2 0xE10 JUMPI POP PUSH1 0x0 DUP3 GT JUMPDEST SWAP6 SWAP5 POP POP POP POP POP JUMP JUMPDEST PUSH1 0x0 PUSH1 0x20 DUP3 DUP5 SUB SLT ISZERO PUSH2 0xE2B JUMPI PUSH1 0x0 DUP1 REVERT JUMPDEST POP CALLDATALOAD SWAP2 SWAP1 POP JUMP JUMPDEST PUSH4 0x4E487B71 PUSH1 0xE0 SHL PUSH1 0x0 MSTORE PUSH1 0x41 PUSH1 0x4 MSTORE PUSH1 0x24 PUSH1 0x0 REVERT JUMPDEST PUSH1 0x0 DUP3 PUSH1 0x1F DUP4 ADD SLT PUSH2 0xE59 JUMPI PUSH1 0x0 DUP1 REVERT JUMPDEST DUP2 CALLDATALOAD PUSH8 0xFFFFFFFFFFFFFFFF DUP1 DUP3 GT ISZERO PUSH2 0xE74 JUMPI PUSH2 0xE74 PUSH2 0xE32 JUMP JUMPDEST PUSH1 0x40 MLOAD PUSH1 0x1F DUP4 ADD PUSH1 0x1F NOT SWAP1 DUP2 AND PUSH1 0x3F ADD AND DUP2 ADD SWAP1 DUP3 DUP3 GT DUP2 DUP4 LT OR ISZERO PUSH2 0xE9C JUMPI PUSH2 0xE9C PUSH2 0xE32 JUMP JUMPDEST DUP2 PUSH1 0x40 MSTORE DUP4 DUP2 MSTORE DUP7 PUSH1 0x20 DUP6 DUP9 ADD ADD GT ISZERO PUSH2 0xEB5 JUMPI PUSH1 0x0 DUP1 REVERT JUMPDEST DUP4 PUSH1 0x20 DUP8 ADD PUSH1 0x20 DUP4 ADD CALLDATACOPY PUSH1 0x0 PUSH1 0x20 DUP6 DUP4 ADD ADD MSTORE DUP1 SWAP5 POP POP POP POP POP SWAP3 SWAP2 POP POP JUMP JUMPDEST PUSH1 0x0 DUP1 PUSH1 0x0 DUP1 PUSH1 0x0 PUSH1 0xA0 DUP7 DUP9 SUB SLT ISZERO PUSH2 0xEED JUMPI PUSH1 0x0 DUP1 REVERT JUMPDEST DUP6 CALLDATALOAD SWAP5 POP PUSH1 0x20 DUP7 ADD CALLDATALOAD PUSH8 0xFFFFFFFFFFFFFFFF DUP2 GT ISZERO PUSH2 0xF0B JUMPI PUSH1 0x0 DUP1 REVERT JUMPDEST PUSH2 0xF17 DUP9 DUP3 DUP10 ADD PUSH2 0xE48 JUMP JUMPDEST SWAP6 SWAP9 SWAP6 SWAP8 POP POP POP POP PUSH1 0x40 DUP5 ADD CALLDATALOAD SWAP4 PUSH1 0x60 DUP2 ADD CALLDATALOAD SWAP4 PUSH1 0x80 SWAP1 SWAP2 ADD CALLDATALOAD SWAP3 POP SWAP1 POP JUMP JUMPDEST PUSH1 0x0 DUP1 PUSH1 0x0 DUP1 PUSH1 0x0 DUP1 PUSH1 0xC0 DUP8 DUP10 SUB SLT ISZERO PUSH2 0xF50 JUMPI PUSH1 0x0 DUP1 REVERT JUMPDEST DUP7 CALLDATALOAD SWAP6 POP PUSH1 0x20 DUP8 ADD CALLDATALOAD PUSH8 0xFFFFFFFFFFFFFFFF DUP2 GT ISZERO PUSH2 0xF6E JUMPI PUSH1 0x0 DUP1 REVERT JUMPDEST PUSH2 0xF7A DUP10 DUP3 DUP11 ADD PUSH2 0xE48 JUMP JUMPDEST SWAP7 SWAP10 SWAP7 SWAP9 POP POP POP POP PUSH1 0x40 DUP6 ADD CALLDATALOAD SWAP5 PUSH1 0x60 DUP2 ADD CALLDATALOAD SWAP5 PUSH1 0x80 DUP3 ADD CALLDATALOAD SWAP5 POP PUSH1 0xA0 SWAP1 SWAP2 ADD CALLDATALOAD SWAP3 POP SWAP1 POP JUMP JUMPDEST DUP1 CALLDATALOAD PUSH1 0x1 PUSH1 0x1 PUSH1 0xA0 SHL SUB DUP2 AND DUP2 EQ PUSH2 0xFB8 JUMPI PUSH1 0x0 DUP1 REVERT JUMPDEST SWAP2 SWAP1 POP JUMP JUMPDEST PUSH1 0x0 DUP1 PUSH1 0x0 DUP1 PUSH1 0x0 PUSH1 0xA0 DUP7 DUP9 SUB SLT ISZERO PUSH2 0xFD5 JUMPI PUSH1 0x0 DUP1 REVERT JUMPDEST DUP6 CALLDATALOAD SWAP5 POP PUSH2 0xFE5 PUSH1 0x20 DUP8 ADD PUSH2 0xFA1 JUMP JUMPDEST SWAP4 POP PUSH1 0x40 DUP7 ADD CALLDATALOAD SWAP3 POP PUSH1 0x60 DUP7 ADD CALLDATALOAD SWAP2 POP PUSH1 0x80 DUP7 ADD CALLDATALOAD PUSH8 0xFFFFFFFFFFFFFFFF DUP2 GT ISZERO PUSH2 0x100F JUMPI PUSH1 0x0 DUP1 REVERT JUMPDEST PUSH2 0x101B DUP9 DUP3 DUP10 ADD PUSH2 0xE48 JUMP JUMPDEST SWAP2 POP POP SWAP3 SWAP6 POP SWAP3 SWAP6 SWAP1 SWAP4 POP JUMP JUMPDEST PUSH1 0x0 DUP1 PUSH1 0x0 PUSH1 0x60 DUP5 DUP7 SUB SLT ISZERO PUSH2 0x103D JUMPI PUSH1 0x0 DUP1 REVERT JUMPDEST PUSH2 0x1046 DUP5 PUSH2 0xFA1 JUMP JUMPDEST SWAP3 POP PUSH1 0x20 DUP5 ADD CALLDATALOAD PUSH8 0xFFFFFFFFFFFFFFFF DUP1 DUP3 GT ISZERO PUSH2 0x1063 JUMPI PUSH1 0x0 DUP1 REVERT JUMPDEST PUSH2 0x106F DUP8 DUP4 DUP9 ADD PUSH2 0xE48 JUMP JUMPDEST SWAP4 POP PUSH1 0x40 DUP7 ADD CALLDATALOAD SWAP2 POP DUP1 DUP3 GT ISZERO PUSH2 0x1085 JUMPI PUSH1 0x0 DUP1 REVERT JUMPDEST POP PUSH2 0x1092 DUP7 DUP3 DUP8 ADD PUSH2 0xE48 JUMP JUMPDEST SWAP2 POP POP SWAP3 POP SWAP3 POP SWAP3 JUMP JUMPDEST PUSH1 0x0 PUSH1 0x20 DUP3 DUP5 SUB SLT ISZERO PUSH2 0x10AE JUMPI PUSH1 0x0 DUP1 REVERT JUMPDEST PUSH2 0xDDE DUP3 PUSH2 0xFA1 JUMP JUMPDEST PUSH1 0x0 DUP1 PUSH1 0x0 DUP1 PUSH1 0x0 PUSH1 0xA0 DUP7 DUP9 SUB SLT ISZERO PUSH2 0x10CF JUMPI PUSH1 0x0 DUP1 REVERT JUMPDEST DUP6 CALLDATALOAD SWAP5 POP PUSH1 0x20 DUP7 ADD CALLDATALOAD SWAP4 POP PUSH1 0x40 DUP7 ADD CALLDATALOAD SWAP3 POP PUSH1 0x60 DUP7 ADD CALLDATALOAD PUSH8 0xFFFFFFFFFFFFFFFF DUP1 DUP3 GT ISZERO PUSH2 0x10FC JUMPI PUSH1 0x0 DUP1 REVERT JUMPDEST PUSH2 0x1108 DUP10 DUP4 DUP11 ADD PUSH2 0xE48 JUMP JUMPDEST SWAP4 POP PUSH1 0x80 DUP9 ADD CALLDATALOAD SWAP2 POP DUP1 DUP3 GT ISZERO PUSH2 0x111E JUMPI PUSH1 0x0 DUP1 REVERT JUMPDEST POP PUSH2 0x101B DUP9 DUP3 DUP10 ADD PUSH2 0xE48 JUMP JUMPDEST PUSH1 0x0 DUP1 PUSH1 0x0 PUSH1 0x60 DUP5 DUP7 SUB SLT ISZERO PUSH2 0x1140 JUMPI PUSH1 0x0 DUP1 REVERT JUMPDEST DUP4 CALLDATALOAD SWAP3 POP PUSH1 0x20 DUP5 ADD CALLDATALOAD SWAP2 POP PUSH2 0x1157 PUSH1 0x40 DUP6 ADD PUSH2 0xFA1 JUMP JUMPDEST SWAP1 POP SWAP3 POP SWAP3 POP SWAP3 JUMP JUMPDEST PUSH1 0x20 DUP1 DUP3 MSTORE PUSH1 0x14 SWAP1 DUP3 ADD MSTORE PUSH20 0x15985D5B1D08191BD95CC81B9BDD08195E1A5CDD PUSH1 0x62 SHL PUSH1 0x40 DUP3 ADD MSTORE PUSH1 0x60 ADD SWAP1 JUMP JUMPDEST PUSH4 0x4E487B71 PUSH1 0xE0 SHL PUSH1 0x0 MSTORE PUSH1 0x11 PUSH1 0x4 MSTORE PUSH1 0x24 PUSH1 0x0 REVERT JUMPDEST DUP1 DUP3 ADD DUP3 DUP2 SLT PUSH1 0x0 DUP4 SLT DUP1 ISZERO DUP3 AND DUP3 ISZERO DUP3 AND OR ISZERO PUSH2 0x11C4 JUMPI PUSH2 0x11C4 PUSH2 0x118E JUMP JUMPDEST POP POP SWAP3 SWAP2 POP POP JUMP JUMPDEST PUSH1 0x0 PUSH1 0x20 DUP3 DUP5 SUB SLT ISZERO PUSH2 0x11DE JUMPI PUSH1 0x0 DUP1 REVERT JUMPDEST POP MLOAD SWAP2 SWAP1 POP JUMP JUMPDEST DUP1 DUP3 MUL DUP2 ISZERO DUP3 DUP3 DIV DUP5 EQ OR PUSH2 0xDE1 JUMPI PUSH2 0xDE1 PUSH2 0x118E JUMP JUMPDEST PUSH1 0x0 DUP3 PUSH2 0x1219 JUMPI PUSH4 0x4E487B71 PUSH1 0xE0 SHL PUSH1 0x0 MSTORE PUSH1 0x12 PUSH1 0x4 MSTORE PUSH1 0x24 PUSH1 0x0 REVERT JUMPDEST POP DIV SWAP1 JUMP JUMPDEST PUSH1 0x0 PUSH1 0x1 PUSH1 0xFF SHL DUP3 ADD PUSH2 0x1233 JUMPI PUSH2 0x1233 PUSH2 0x118E JUMP JUMPDEST POP PUSH1 0x0 SUB SWAP1 JUMP JUMPDEST DUP2 DUP2 SUB DUP2 DUP2 GT ISZERO PUSH2 0xDE1 JUMPI PUSH2 0xDE1 PUSH2 0x118E JUMP JUMPDEST DUP1 DUP3 ADD DUP1 DUP3 GT ISZERO PUSH2 0xDE1 JUMPI PUSH2 0xDE1 PUSH2 0x118E JUMP JUMPDEST PUSH4 0x4E487B71 PUSH1 0xE0 SHL PUSH1 0x0 MSTORE PUSH1 0x32 PUSH1 0x4 MSTORE PUSH1 0x24 PUSH1 0x0 REVERT JUMPDEST PUSH1 0x0 PUSH1 0x1 DUP3 ADD PUSH2 0x1288 JUMPI PUSH2 0x1288 PUSH2 0x118E JUMP JUMPDEST POP PUSH1 0x1 ADD SWAP1 JUMP JUMPDEST PUSH1 0x20 DUP1 DUP3 MSTORE PUSH1 0x19 SWAP1 DUP3 ADD MSTORE PUSH32 0x4F6E6C7920636F6D706C69616E636520617574686F7269747900000000000000 PUSH1 0x40 DUP3 ADD MSTORE PUSH1 0x60 ADD SWAP1 JUMP INVALID LOG2 PUSH5 0x6970667358 0x22 SLT KECCAK256 0xA8 PUSH8 0xFAC9FE89B4786328 DIV SWAP8 SIGNEXTEND SHR 0x5F 0x2F GT SWAP14 PUSH11 0xAFF62B1CE8623F4CA6D1F2 DUP9 0xC3 PUSH5 0x736F6C6343 STOP ADDMOD SGT STOP CALLER "},"methodIdentifiers":{"commitmentIndex(bytes32)":"012d09b5","commitmentMerkleTree(uint256)":"d4a82dc5","commitments(bytes32)":"839df945","complianceAuthority()":"309f477a","deposit(bytes32,uint256,uint256,bytes,bytes)":"a474542f","emergencyWithdraw(uint256,uint256,address)":"f72b2a4c","getMerkleRoot()":"49590657","getPrivatePortfolioHealth(bytes32)":"8f0ca81a","nullifiers(bytes32)":"2997e86b","privatePerpsPosition(bytes32,bytes,uint256,int256,uint256)":"1409f312","privateSpotTrade(bytes32,bytes,uint256,uint256,uint256,uint256)":"28fa0a25","updateComplianceAuthority(address)":"e5ea7be2","validCertificates(address)":"a3278f79","validateCertificate(address,bytes,bytes)":"984c3e56","withdraw(bytes32,address,uint256,uint256,bytes)":"3382c1b2"}}}}}