{"contracts/MockSP1Verifier.sol":{"MockSP1Verifier":{"abi":[{"anonymous":false,"inputs":[{"indexed":false,"internalType":"bytes32","name":"vkey","type":"bytes32"},{"indexed":false,"internalType":"bytes32","name":"publicValuesHash","type":"bytes32"},{"indexed":false,"internalType":"bytes32","name":"proofHash","type":"bytes32"}],"name":"ProofVerified","type":"event"},{"inputs":[],"name":"alwaysValid","outputs":[{"internalType":"bool","name":"","type":"bool"}],"stateMutability":"view","type":"function"},{"inputs":[{"internalType":"bool","name":"_alwaysValid","type":"bool"}],"name":"setAlwaysValid","outputs":[],"stateMutability":"nonpayable","type":"function"},{"inputs":[{"internalType":"bytes32","name":"proofHash","type":"bytes32"},{"internalType":"bool","name":"valid","type":"bool"}],"name":"setValidProof","outputs":[],"stateMutability":"nonpayable","type":"function"},{"inputs":[{"internalType":"bytes32","name":"","type":"bytes32"}],"name":"validProofs","outputs":[{"internalType":"bool","name":"","type":"bool"}],"stateMutability":"view","type":"function"},{"inputs":[{"internalType":"bytes32","name":"vkey","type":"bytes32"},{"internalType":"bytes","name":"publicValues","type":"bytes"},{"internalType":"bytes","name":"proofBytes","type":"bytes"}],"name":"verifyProof","outputs":[],"stateMutability":"view","type":"function"}],"evm":{"bytecode":{"linkReferences":{},"object":"60806040526001805460ff19168117905534801561001c57600080fd5b506103448061002c6000396000f3fe608060405234801561001057600080fd5b50600436106100575760003560e01c8063070a85401461005c578063160d6c39146100935780633b4b1a3e146100c357806341493c60146100d0578063c6080222146100e3575b600080fd5b61007f61006a36600461019e565b60006020819052908152604090205460ff1681565b604051901515815260200160405180910390f35b6100c16100a13660046101cc565b600091825260208290526040909120805460ff1916911515919091179055565b005b60015461007f9060ff1681565b6100c16100de366004610241565b610104565b6100c16100f13660046102bb565b6001805460ff1916911515919091179055565b6000858585858560405160200161011f9594939291906102dd565b60408051601f19818403018152919052805160209091012060015490915060ff166101965760008181526020819052604090205460ff166101965760405162461bcd60e51b815260206004820152600d60248201526c24b73b30b634b210383937b7b360991b604482015260640160405180910390fd5b505050505050565b6000602082840312156101b057600080fd5b5035919050565b803580151581146101c757600080fd5b919050565b600080604083850312156101df57600080fd5b823591506101ef602084016101b7565b90509250929050565b60008083601f84011261020a57600080fd5b50813567ffffffffffffffff81111561022257600080fd5b60208301915083602082850101111561023a57600080fd5b9250929050565b60008060008060006060868803121561025957600080fd5b85359450602086013567ffffffffffffffff8082111561027857600080fd5b61028489838a016101f8565b9096509450604088013591508082111561029d57600080fd5b506102aa888289016101f8565b969995985093965092949392505050565b6000602082840312156102cd57600080fd5b6102d6826101b7565b9392505050565b858152838560208301376000848201602081016000815284868237506000930160200192835250909594505050505056fea26469706673582212208cbe261692b7fe1f4f594ebbaac98d8337ac4edbb07111a2ce20baec62986edf64736f6c63430008130033","opcodes":"PUSH1 0x80 PUSH1 0x40 MSTORE PUSH1 0x1 DUP1 SLOAD PUSH1 0xFF NOT AND DUP2 OR SWAP1 SSTORE CALLVALUE DUP1 ISZERO PUSH2 0x1C JUMPI PUSH1 0x0 DUP1 REVERT JUMPDEST POP PUSH2 0x344 DUP1 PUSH2 0x2C PUSH1 0x0 CODECOPY PUSH1 0x0 RETURN INVALID PUSH1 0x80 PUSH1 0x40 MSTORE CALLVALUE DUP1 ISZERO PUSH2 0x10 JUMPI PUSH1 0x0 DUP1 REVERT JUMPDEST POP PUSH1 0x4 CALLDATASIZE LT PUSH2 0x57 JUMPI PUSH1 0x0 CALLDATALOAD PUSH1 0xE0 SHR DUP1 PUSH4 0x70A8540 EQ PUSH2 0x5C JUMPI DUP1 PUSH4 0x160D6C39 EQ PUSH2 0x93 JUMPI DUP1 PUSH4 0x3B4B1A3E EQ PUSH2 0xC3 JUMPI DUP1 PUSH4 0x41493C60 EQ PUSH2 0xD0 JUMPI DUP1 PUSH4 0xC6080222 EQ PUSH2 0xE3 JUMPI JUMPDEST PUSH1 0x0 DUP1 REVERT JUMPDEST PUSH2 0x7F PUSH2 0x6A CALLDATASIZE PUSH1 0x4 PUSH2 0x19E JUMP JUMPDEST PUSH1 0x0 PUSH1 0x20 DUP2 SWAP1 MSTORE SWAP1 DUP2 MSTORE PUSH1 0x40 SWAP1 KECCAK256 SLOAD PUSH1 0xFF AND DUP2 JUMP JUMPDEST PUSH1 0x40 MLOAD SWAP1 ISZERO ISZERO DUP2 MSTORE PUSH1 0x20 ADD PUSH1 0x40 MLOAD DUP1 SWAP2 SUB SWAP1 RETURN JUMPDEST PUSH2 0xC1 PUSH2 0xA1 CALLDATASIZE PUSH1 0x4 PUSH2 0x1CC JUMP JUMPDEST PUSH1 0x0 SWAP2 DUP3 MSTORE PUSH1 0x20 DUP3 SWAP1 MSTORE PUSH1 0x40 SWAP1 SWAP2 KECCAK256 DUP1 SLOAD PUSH1 0xFF NOT AND SWAP2 ISZERO ISZERO SWAP2 SWAP1 SWAP2 OR SWAP1 SSTORE JUMP JUMPDEST STOP JUMPDEST PUSH1 0x1 SLOAD PUSH2 0x7F SWAP1 PUSH1 0xFF AND DUP2 JUMP JUMPDEST PUSH2 0xC1 PUSH2 0xDE CALLDATASIZE PUSH1 0x4 PUSH2 0x241 JUMP JUMPDEST PUSH2 0x104 JUMP JUMPDEST PUSH2 0xC1 PUSH2 0xF1 CALLDATASIZE PUSH1 0x4 PUSH2 0x2BB JUMP JUMPDEST PUSH1 0x1 DUP1 SLOAD PUSH1 0xFF NOT AND SWAP2 ISZERO ISZERO SWAP2 SWAP1 SWAP2 OR SWAP1 SSTORE JUMP JUMPDEST PUSH1 0x0 DUP6 DUP6 DUP6 DUP6 DUP6 PUSH1 0x40 MLOAD PUSH1 0x20 ADD PUSH2 0x11F SWAP6 SWAP5 SWAP4 SWAP3 SWAP2 SWAP1 PUSH2 0x2DD JUMP JUMPDEST PUSH1 0x40 DUP1 MLOAD PUSH1 0x1F NOT DUP2 DUP5 SUB ADD DUP2 MSTORE SWAP2 SWAP1 MSTORE DUP1 MLOAD PUSH1 0x20 SWAP1 SWAP2 ADD KECCAK256 PUSH1 0x1 SLOAD SWAP1 SWAP2 POP PUSH1 0xFF AND PUSH2 0x196 JUMPI PUSH1 0x0 DUP2 DUP2 MSTORE PUSH1 0x20 DUP2 SWAP1 MSTORE PUSH1 0x40 SWAP1 KECCAK256 SLOAD PUSH1 0xFF AND PUSH2 0x196 JUMPI PUSH1 0x40 MLOAD PUSH3 0x461BCD PUSH1 0xE5 SHL DUP2 MSTORE PUSH1 0x20 PUSH1 0x4 DUP3 ADD MSTORE PUSH1 0xD PUSH1 0x24 DUP3 ADD MSTORE PUSH13 0x24B73B30B634B210383937B7B3 PUSH1 0x99 SHL PUSH1 0x44 DUP3 ADD MSTORE PUSH1 0x64 ADD PUSH1 0x40 MLOAD DUP1 SWAP2 SUB SWAP1 REVERT JUMPDEST POP POP POP POP POP POP JUMP JUMPDEST PUSH1 0x0 PUSH1 0x20 DUP3 DUP5 SUB SLT ISZERO PUSH2 0x1B0 JUMPI PUSH1 0x0 DUP1 REVERT JUMPDEST POP CALLDATALOAD SWAP2 SWAP1 POP JUMP JUMPDEST DUP1 CALLDATALOAD DUP1 ISZERO ISZERO DUP2 EQ PUSH2 0x1C7 JUMPI PUSH1 0x0 DUP1 REVERT JUMPDEST SWAP2 SWAP1 POP JUMP JUMPDEST PUSH1 0x0 DUP1 PUSH1 0x40 DUP4 DUP6 SUB SLT ISZERO PUSH2 0x1DF JUMPI PUSH1 0x0 DUP1 REVERT JUMPDEST DUP3 CALLDATALOAD SWAP2 POP PUSH2 0x1EF PUSH1 0x20 DUP5 ADD PUSH2 0x1B7 JUMP JUMPDEST SWAP1 POP SWAP3 POP SWAP3 SWAP1 POP JUMP JUMPDEST PUSH1 0x0 DUP1 DUP4 PUSH1 0x1F DUP5 ADD SLT PUSH2 0x20A JUMPI PUSH1 0x0 DUP1 REVERT JUMPDEST POP DUP2 CALLDATALOAD PUSH8 0xFFFFFFFFFFFFFFFF DUP2 GT ISZERO PUSH2 0x222 JUMPI PUSH1 0x0 DUP1 REVERT JUMPDEST PUSH1 0x20 DUP4 ADD SWAP2 POP DUP4 PUSH1 0x20 DUP3 DUP6 ADD ADD GT ISZERO PUSH2 0x23A JUMPI PUSH1 0x0 DUP1 REVERT JUMPDEST SWAP3 POP SWAP3 SWAP1 POP JUMP JUMPDEST PUSH1 0x0 DUP1 PUSH1 0x0 DUP1 PUSH1 0x0 PUSH1 0x60 DUP7 DUP9 SUB SLT ISZERO PUSH2 0x259 JUMPI PUSH1 0x0 DUP1 REVERT JUMPDEST DUP6 CALLDATALOAD SWAP5 POP PUSH1 0x20 DUP7 ADD CALLDATALOAD PUSH8 0xFFFFFFFFFFFFFFFF DUP1 DUP3 GT ISZERO PUSH2 0x278 JUMPI PUSH1 0x0 DUP1 REVERT JUMPDEST PUSH2 0x284 DUP10 DUP4 DUP11 ADD PUSH2 0x1F8 JUMP JUMPDEST SWAP1 SWAP7 POP SWAP5 POP PUSH1 0x40 DUP9 ADD CALLDATALOAD SWAP2 POP DUP1 DUP3 GT ISZERO PUSH2 0x29D JUMPI PUSH1 0x0 DUP1 REVERT JUMPDEST POP PUSH2 0x2AA DUP9 DUP3 DUP10 ADD PUSH2 0x1F8 JUMP JUMPDEST SWAP7 SWAP10 SWAP6 SWAP9 POP SWAP4 SWAP7 POP SWAP3 SWAP5 SWAP4 SWAP3 POP POP POP JUMP JUMPDEST PUSH1 0x0 PUSH1 0x20 DUP3 DUP5 SUB SLT ISZERO PUSH2 0x2CD JUMPI PUSH1 0x0 DUP1 REVERT JUMPDEST PUSH2 0x2D6 DUP3 PUSH2 0x1B7 JUMP JUMPDEST SWAP4 SWAP3 POP POP POP JUMP JUMPDEST DUP6 DUP2 MSTORE DUP4 DUP6 PUSH1 0x20 DUP4 ADD CALLDATACOPY PUSH1 0x0 DUP5 DUP3 ADD PUSH1 0x20 DUP2 ADD PUSH1 0x0 DUP2 MSTORE DUP5 DUP7 DUP3 CALLDATACOPY POP PUSH1 0x0 SWAP4 ADD PUSH1 0x20 ADD SWAP3 DUP4 MSTORE POP SWAP1 SWAP6 SWAP5 POP POP POP POP POP JUMP INVALID LOG2 PUSH5 0x6970667358 0x22 SLT KECCAK256 DUP13 0xBE 0x26 AND SWAP3 0xB7 INVALID 0x1F 0x4F MSIZE 0x4E 0xBB 0xAA 0xC9 DUP14 DUP4 CALLDATACOPY 0xAC 0x4E 0xDB 0xB0 PUSH18 0x11A2CE20BAEC62986EDF64736F6C63430008 SGT STOP CALLER "},"methodIdentifiers":{"alwaysValid()":"3b4b1a3e","setAlwaysValid(bool)":"c6080222","setValidProof(bytes32,bool)":"160d6c39","validProofs(bytes32)":"070a8540","verifyProof(bytes32,bytes,bytes)":"41493c60"}}}}}