{"contracts/HyperliquidPrivacySystemV5Debug.sol":{"HyperliquidPrivacySystemV5Debug":{"abi":[{"inputs":[{"internalType":"address","name":"_sp1Verifier","type":"address"},{"internalType":"address","name":"_complianceAuthority","type":"address"}],"stateMutability":"nonpayable","type":"constructor"},{"anonymous":false,"inputs":[{"indexed":true,"internalType":"address","name":"newAuthority","type":"address"}],"name":"ComplianceAuthorityUpdated","type":"event"},{"anonymous":false,"inputs":[{"indexed":false,"internalType":"address","name":"recipient","type":"address"},{"indexed":false,"internalType":"uint64","name":"token","type":"uint64"},{"indexed":false,"internalType":"uint64","name":"amount","type":"uint64"}],"name":"DebugSendSpotCall","type":"event"},{"anonymous":false,"inputs":[{"indexed":false,"internalType":"string","name":"step","type":"string"},{"indexed":false,"internalType":"bytes32","name":"nullifier","type":"bytes32"},{"indexed":false,"internalType":"uint64","name":"amount","type":"uint64"}],"name":"DebugWithdrawStep","type":"event"},{"anonymous":false,"inputs":[{"indexed":true,"internalType":"address","name":"user","type":"address"},{"indexed":false,"internalType":"uint64","name":"token","type":"uint64"},{"indexed":false,"internalType":"uint64","name":"amount","type":"uint64"}],"name":"DepositPrepared","type":"event"},{"anonymous":false,"inputs":[{"indexed":true,"internalType":"bytes32","name":"commitment","type":"bytes32"},{"indexed":false,"internalType":"uint256","name":"timestamp","type":"uint256"}],"name":"PrivateDeposit","type":"event"},{"anonymous":false,"inputs":[{"indexed":true,"internalType":"bytes32","name":"commitment","type":"bytes32"},{"indexed":false,"internalType":"uint256","name":"timestamp","type":"uint256"}],"name":"PrivateTrade","type":"event"},{"anonymous":false,"inputs":[{"indexed":true,"internalType":"bytes32","name":"nullifier","type":"bytes32"},{"indexed":false,"internalType":"uint256","name":"timestamp","type":"uint256"}],"name":"PrivateWithdraw","type":"event"},{"inputs":[{"internalType":"address","name":"user","type":"address"}],"name":"canCompleteDeposit","outputs":[{"internalType":"bool","name":"","type":"bool"}],"stateMutability":"view","type":"function"},{"inputs":[{"internalType":"bytes32","name":"","type":"bytes32"}],"name":"commitmentIndex","outputs":[{"internalType":"uint256","name":"","type":"uint256"}],"stateMutability":"view","type":"function"},{"inputs":[{"internalType":"uint256","name":"","type":"uint256"}],"name":"commitmentMerkleTree","outputs":[{"internalType":"bytes32","name":"","type":"bytes32"}],"stateMutability":"view","type":"function"},{"inputs":[{"internalType":"bytes32","name":"","type":"bytes32"}],"name":"commitments","outputs":[{"internalType":"bool","name":"","type":"bool"}],"stateMutability":"view","type":"function"},{"inputs":[{"internalType":"bytes32","name":"commitment","type":"bytes32"},{"internalType":"bytes","name":"complianceProof","type":"bytes"},{"internalType":"bytes","name":"publicValues","type":"bytes"}],"name":"completeDeposit","outputs":[],"stateMutability":"nonpayable","type":"function"},{"inputs":[],"name":"complianceAuthority","outputs":[{"internalType":"address","name":"","type":"address"}],"stateMutability":"view","type":"function"},{"inputs":[{"internalType":"bytes32","name":"nullifier","type":"bytes32"},{"internalType":"address","name":"recipient","type":"address"},{"internalType":"uint64","name":"token","type":"uint64"},{"internalType":"uint64","name":"amount","type":"uint64"},{"internalType":"bytes","name":"balanceProof","type":"bytes"},{"internalType":"bytes","name":"publicValues","type":"bytes"},{"internalType":"bool","name":"skipSendSpot","type":"bool"}],"name":"debugWithdraw","outputs":[],"stateMutability":"nonpayable","type":"function"},{"inputs":[{"internalType":"bytes32","name":"commitment","type":"bytes32"},{"internalType":"uint64","name":"token","type":"uint64"},{"internalType":"uint64","name":"amount","type":"uint64"},{"internalType":"bytes","name":"complianceProof","type":"bytes"},{"internalType":"bytes","name":"publicValues","type":"bytes"}],"name":"deposit","outputs":[],"stateMutability":"nonpayable","type":"function"},{"inputs":[{"internalType":"uint64","name":"token","type":"uint64"},{"internalType":"uint64","name":"amount","type":"uint64"},{"internalType":"address","name":"recipient","type":"address"}],"name":"emergencyWithdraw","outputs":[],"stateMutability":"nonpayable","type":"function"},{"inputs":[],"name":"getMerkleRoot","outputs":[{"internalType":"bytes32","name":"","type":"bytes32"}],"stateMutability":"view","type":"function"},{"inputs":[{"internalType":"address","name":"user","type":"address"},{"internalType":"uint64","name":"token","type":"uint64"}],"name":"getUserSpotBalance","outputs":[{"internalType":"uint64","name":"","type":"uint64"}],"stateMutability":"view","type":"function"},{"inputs":[{"internalType":"bytes32","name":"","type":"bytes32"}],"name":"nullifiers","outputs":[{"internalType":"bool","name":"","type":"bool"}],"stateMutability":"view","type":"function"},{"inputs":[{"internalType":"address","name":"","type":"address"}],"name":"pendingDeposits","outputs":[{"internalType":"uint64","name":"token","type":"uint64"},{"internalType":"uint64","name":"amount","type":"uint64"},{"internalType":"uint64","name":"contractBalanceBefore","type":"uint64"},{"internalType":"uint256","name":"timestamp","type":"uint256"},{"internalType":"bool","name":"completed","type":"bool"}],"stateMutability":"view","type":"function"},{"inputs":[{"internalType":"uint64","name":"token","type":"uint64"},{"internalType":"uint64","name":"amount","type":"uint64"}],"name":"prepareDeposit","outputs":[],"stateMutability":"nonpayable","type":"function"},{"inputs":[{"internalType":"bytes32","name":"commitment","type":"bytes32"},{"internalType":"bytes","name":"ownershipProof","type":"bytes"},{"internalType":"bytes","name":"ownershipPublicValues","type":"bytes"},{"internalType":"uint32","name":"asset","type":"uint32"},{"internalType":"bool","name":"isBuy","type":"bool"},{"internalType":"uint64","name":"limitPx","type":"uint64"},{"internalType":"uint64","name":"sz","type":"uint64"}],"name":"privatePerpsPosition","outputs":[],"stateMutability":"nonpayable","type":"function"},{"inputs":[{"internalType":"bytes","name":"tradeProof","type":"bytes"},{"internalType":"bytes","name":"publicValues","type":"bytes"}],"name":"privateSpotTrade","outputs":[],"stateMutability":"nonpayable","type":"function"},{"inputs":[],"name":"sp1Verifier","outputs":[{"internalType":"contract ISP1Verifier","name":"","type":"address"}],"stateMutability":"view","type":"function"},{"inputs":[{"internalType":"uint64","name":"token","type":"uint64"},{"internalType":"uint64","name":"amount","type":"uint64"}],"name":"transferToContract","outputs":[],"stateMutability":"nonpayable","type":"function"},{"inputs":[{"internalType":"address","name":"newAuthority","type":"address"}],"name":"updateComplianceAuthority","outputs":[],"stateMutability":"nonpayable","type":"function"},{"inputs":[{"internalType":"bytes32","name":"nullifier","type":"bytes32"},{"internalType":"address","name":"recipient","type":"address"},{"internalType":"uint64","name":"token","type":"uint64"},{"internalType":"uint64","name":"amount","type":"uint64"},{"internalType":"bytes","name":"balanceProof","type":"bytes"},{"internalType":"bytes","name":"publicValues","type":"bytes"}],"name":"withdraw","outputs":[],"stateMutability":"nonpayable","type":"function"}],"evm":{"bytecode":{"linkReferences":{},"object":"60a06040523480156200001157600080fd5b5060405162002a5a38038062002a5a83398101604081905262000034916200007a565b6001600160a01b03918216608052600380546001600160a01b03191691909216179055620000b2565b80516001600160a01b03811681146200007557600080fd5b919050565b600080604083850312156200008e57600080fd5b62000099836200005d565b9150620000a9602084016200005d565b90509250929050565b608051612969620000f1600039600081816101f70152818161082501528181610ee301528181611354015281816119ee0152611d5801526129696000f3fe608060405234801561001057600080fd5b506004361061012c5760003560e01c8063839df945116100ad578063d4a82dc511610071578063d4a82dc5146102c1578063dac90aeb146102d4578063e5ea7be2146102e7578063eb3349b9146102fa578063fdb87ec71461038357600080fd5b8063839df9451461025257806394137c9014610275578063b54fcff914610288578063ca29a4051461029b578063d43ffa2f146102ae57600080fd5b806349590657116100f457806349590657146101ea57806352a07fa3146101f25780635eda69b1146102195780636f3bcf671461022c5780637318754d1461023f57600080fd5b8063012d09b51461013157806318afae2c1461016457806327868e38146101795780632997e86b1461018c578063309f477a146101bf575b600080fd5b61015161013f366004611fff565b60056020526000908152604090205481565b6040519081526020015b60405180910390f35b610177610172366004612057565b6103ae565b005b6101776101873660046120f6565b61047b565b6101af61019a366004611fff565b60026020526000908152604090205460ff1681565b604051901515815260200161015b565b6003546101d2906001600160a01b031681565b6040516001600160a01b03909116815260200161015b565b610151610ba5565b6101d27f000000000000000000000000000000000000000000000000000000000000000081565b6101776102273660046121b4565b610c52565b61017761023a3660046121ed565b610e1d565b61017761024d3660046121b4565b6110fe565b6101af610260366004611fff565b60016020526000908152604090205460ff1681565b6101af6102833660046122a4565b61116f565b6101776102963660046122c6565b61125f565b6101776102a9366004612331565b6114dc565b6101776102bc3660046123cf565b6116bc565b6101516102cf366004611fff565b611bb5565b6101776102e2366004612448565b611bd6565b6101776102f53660046122a4565b611e9c565b61034a6103083660046122a4565b6006602052600090815260409020805460018201546002909201546001600160401b0380831693600160401b8404821693600160801b90049091169160ff1685565b604080516001600160401b039687168152948616602086015292909416918301919091526060820152901515608082015260a00161015b565b6103966103913660046124f6565b611f3c565b6040516001600160401b03909116815260200161015b565b6003546001600160a01b031633146104095760405162461bcd60e51b81526020600482015260196024820152784f6e6c7920636f6d706c69616e636520617574686f7269747960381b60448201526064015b60405180910390fd5b604051630b0ac0ab60e01b815273333333333333333333333333333333333333333390630b0ac0ab9061044490849087908790600401612512565b600060405180830381600087803b15801561045e57600080fd5b505af1158015610472573d6000803e3d6000fd5b50505050505050565b604080516060808252600590820152641cdd185c9d60da1b6080820152602081018b90526001600160401b0388168183015290516000805160206129148339815191529181900360a00190a160008981526002602052604090205460ff161561051f5760405162461bcd60e51b8152602060048201526016602482015275139d5b1b1a599a595c88185b1c9958591e481d5cd95960521b6044820152606401610400565b604080516060808252601690820152751b9d5b1b1a599a595c97d8da1958dad7dc185cdcd95960521b6080820152602081018b90526001600160401b0388168183015290516000805160206129148339815191529181900360a00190a1600061058a83850185612572565b90506000805160206129148339815191528a886040516105eb9291906060808252601590820152746465636f6465645f7075626c69635f76616c75657360581b608082015260208101929092526001600160401b0316604082015260a00190565b60405180910390a16105fb610ba5565b8160200151146106435760405162461bcd60e51b8152602060048201526013602482015272125b9d985b1a59081b595c9adb19481c9bdbdd606a1b6044820152606401610400565b6040805160608082526018908201527f6d65726b6c655f726f6f745f636865636b5f70617373656400000000000000006080820152602081018c90526001600160401b0389168183015290516000805160206129148339815191529181900360a00190a1866001600160401b0316816040015110156107045760405162461bcd60e51b815260206004820152601b60248201527f496e73756666696369656e742070726f76656e2062616c616e636500000000006044820152606401610400565b6040805160608082526014908201527318985b185b98d957d8da1958dad7dc185cdcd95960621b6080820152602081018c90526001600160401b0389168183015290516000805160206129148339815191529181900360a00190a1876001600160401b031681606001516001600160401b0316146107b55760405162461bcd60e51b815260206004820152600e60248201526d082e6e6cae840dad2e6dac2e8c6d60931b6044820152606401610400565b60408051606080825260129082015271185cdcd95d17d8da1958dad7dc185cdcd95960721b6080820152602081018c90526001600160401b0389168183015290516000805160206129148339815191529181900360a00190a160405163020a49e360e51b81526001600160a01b037f000000000000000000000000000000000000000000000000000000000000000016906341493c6090610881907e9c22b4f95fb710070dc80cfce7526c4cc7780834ab328bd769ff58934e6d0590889088908c908c906004016125e7565b60006040518083038186803b15801561089957600080fd5b505afa1580156108ad573d6000803e3d6000fd5b505050506000805160206129148339815191528a8860405161091892919060608082526019908201527f70726f6f665f766572696669636174696f6e5f70617373656400000000000000608082015260208101929092526001600160401b0316604082015260a00190565b60405180910390a160008a81526002602052604090819020805460ff191660011790555160008051602061291483398151915290610999908c908a906060808252601590820152741b9d5b1b1a599a595c97db585c9ad95917dd5cd959605a1b608082015260208101929092526001600160401b0316604082015260a00190565b60405180910390a181610ab7577f8444bf1c29a1ac42def92a78a66796f5bbf8f605a08b82f43d9d8c8d8973abb78989896040516109d993929190612512565b60405180910390a1604051630b0ac0ab60e01b815273333333333333333333333333333333333333333390630b0ac0ab90610a1c908c908c908c90600401612512565b600060405180830381600087803b158015610a3657600080fd5b505af1158015610a4a573d6000803e3d6000fd5b505050506000805160206129148339815191528a88604051610aaa9291906060808252601290820152711cd95b991cdc1bdd17d8dbdb5c1b195d195960721b608082015260208101929092526001600160401b0316604082015260a00190565b60405180910390a1610b0f565b6040805160608082526010908201526f1cd95b991cdc1bdd17dcdada5c1c195960821b6080820152602081018c90526001600160401b0389168183015290516000805160206129148339815191529181900360a00190a15b897fcc9580996e4c53ac7e73439f181e208ab15831ea2d2429dd12ee742c1c475b6f42604051610b4191815260200190565b60405180910390a26040805160608082526009908201526818dbdb5c1b195d195960ba1b6080820152602081018c90526001600160401b0389168183015290516000805160206129148339815191529181900360a00190a150505050505050505050565b6004546000908103610bb75750600090565b60006004600081548110610bcd57610bcd612620565b600091825260209091200154905060015b600454811015610c4c578160048281548110610bfc57610bfc612620565b9060005260206000200154604051602001610c21929190918252602082015260400190565b6040516020818303038152906040528051906020012091508080610c449061264c565b915050610bde565b50919050565b6000816001600160401b031611610cab5760405162461bcd60e51b815260206004820152601d60248201527f416d6f756e74206d7573742062652067726561746572207468616e20300000006044820152606401610400565b6000610cb73384611f3c565b9050816001600160401b0316816001600160401b03161015610d1b5760405162461bcd60e51b815260206004820152601960248201527f496e73756666696369656e742073706f742062616c616e6365000000000000006044820152606401610400565b6000610d273085611f3c565b6040805160a0810182526001600160401b03878116808352878216602080850182815287851686880190815242606088019081526000608089018181523380835260068752918b902099518a54955194518a16600160801b0267ffffffffffffffff60801b19958b16600160401b026fffffffffffffffffffffffffffffffff1990971691909a1617949094179290921696909617875594516001870155516002909501805495151560ff19909616959095179094558451918252928101929092529293507fac44786729a70fd941b7584083b7454cfc1720db49dd28841b8caec86f6adb25910160405180910390a250505050565b6000610e2b86880188612665565b80519091508a14610e745760405162461bcd60e51b8152602060048201526013602482015272086dedadad2e8dacadce840dad2e6dac2e8c6d606b1b6044820152606401610400565b60008a81526020819052604090206002015460ff16610ecc5760405162461bcd60e51b815260206004820152601460248201527315985d5b1d08191bd95cc81b9bdd08195e1a5cdd60621b6044820152606401610400565b60405163020a49e360e51b81526001600160a01b037f000000000000000000000000000000000000000000000000000000000000000016906341493c6090610f3f907e6bf06179a19e1575731cbb10c5b9cc955cae6f0a5de98cf8baf3c7c416131a908b908b908f908f906004016125e7565b60006040518083038186803b158015610f5757600080fd5b505afa158015610f6b573d6000803e3d6000fd5b5050604051634e4719ab60e01b815263ffffffff8816600482015286151560248201526001600160401b038087166044830152851660648201527333333333333333333333333333333333333333339250634e4719ab9150608401600060405180830381600087803b158015610fe057600080fd5b505af1158015610ff4573d6000803e3d6000fd5b50505050831561105d5760008a81526020818152604080832063ffffffff891684526001019091528120805484929061103190849060070b6126c1565b92506101000a8154816001600160401b03021916908360070b6001600160401b031602179055506110b8565b60008a81526020818152604080832063ffffffff891684526001019091528120805484929061109090849060070b6126f0565b92506101000a8154816001600160401b03021916908360070b6001600160401b031602179055505b897f8f3dba1073f4b750e9392983cbbdd0d9b7e8380008bdda0e7683e3c3aa5c5189426040516110ea91815260200190565b60405180910390a250505050505050505050565b604051630b0ac0ab60e01b815273333333333333333333333333333333333333333390630b0ac0ab9061113990309086908690600401612512565b600060405180830381600087803b15801561115357600080fd5b505af1158015611167573d6000803e3d6000fd5b505050505050565b6001600160a01b0381166000908152600660209081526040808320815160a08101835281546001600160401b038082168352600160401b82048116958301869052600160801b9091041692810192909252600181015460608301526002015460ff16151560808201529015806111e6575080608001515b156111f45750600092915050565b606081015161120590610e1061271f565b4211156112155750600092915050565b6000611225308360000151611f3c565b905060008260400151826112399190612732565b905082602001516001600160401b0316816001600160401b031610159350505050919050565b600061126d82840184612759565b805160009081526020819052604090206002015490915060ff166112ca5760405162461bcd60e51b815260206004820152601460248201527315985d5b1d08191bd95cc81b9bdd08195e1a5cdd60621b6044820152606401610400565b60608101518151600090815260208181526040808320828601516001600160401b03908116855292529091205416101561133d5760405162461bcd60e51b8152602060048201526014602482015273496e73756666696369656e742062616c616e636560601b6044820152606401610400565b60405163020a49e360e51b81526001600160a01b037f000000000000000000000000000000000000000000000000000000000000000016906341493c60906113b0907e8484840d42565b9589f5c37253789d3731407964b1537fb5cf9d6064226b1c90879087908b908b906004016125e7565b60006040518083038186803b1580156113c857600080fd5b505afa1580156113dc573d6000803e3d6000fd5b50505060608201518251600090815260208181526040808320828701516001600160401b0390811685529252822080549394509261141c91859116612732565b82546101009290920a6001600160401b0381810219909316918316021790915560808301518351600090815260208181526040808320818801518616845290915281208054929450929091611473918591166127e5565b92506101000a8154816001600160401b0302191690836001600160401b0316021790555080600001517f8f3dba1073f4b750e9392983cbbdd0d9b7e8380008bdda0e7683e3c3aa5c5189426040516114cd91815260200190565b60405180910390a25050505050565b60008781526001602052604090205460ff16156115355760405162461bcd60e51b815260206004820152601760248201527610dbdb5b5a5d1b595b9d08185b1c9958591e481d5cd959604a1b6044820152606401610400565b604051630b0ac0ab60e01b815273333333333333333333333333333333333333333390630b0ac0ab906115709030908a908a90600401612512565b600060405180830381600087803b15801561158a57600080fd5b505af115801561159e573d6000803e3d6000fd5b5050506000888152600160208181526040808420805460ff19169093179092558281528183206001600160401b03808c168552915290822080548994509092916115ea918591166127e5565b82546001600160401b039182166101009390930a9283029190920219909116179055506000878152602081905260408120600201805460ff19166001908117909155600480548083018255928190527f8a35acfbc15ff81a39ae7d344fd709f28e8600b4aa8c65c6b64bfe7fe36bd19b909201899055905461166c9190612805565b600088815260056020908152604091829020929092555142815288917f02d0beb141922199e99106aa1e9e523add96e905baf9299bfb1042acd145bf5c910160405180910390a250505050505050565b60008581526001602052604090205460ff16156117155760405162461bcd60e51b815260206004820152601760248201527610dbdb5b5a5d1b595b9d08185b1c9958591e481d5cd959604a1b6044820152606401610400565b33600090815260066020908152604091829020825160a08101845281546001600160401b038082168352600160401b82048116948301859052600160801b9091041693810193909352600181015460608401526002015460ff16151560808301526117b75760405162461bcd60e51b8152602060048201526012602482015271139bc81c195b991a5b99c819195c1bdcda5d60721b6044820152606401610400565b8060800151156118095760405162461bcd60e51b815260206004820152601960248201527f4465706f73697420616c726561647920636f6d706c65746564000000000000006044820152606401610400565b606081015161181a90610e1061271f565b42111561185b5760405162461bcd60e51b815260206004820152600f60248201526e11195c1bdcda5d08195e1c1a5c9959608a1b6044820152606401610400565b600061186b308360000151611f3c565b9050600082604001518261187f9190612732565b905082602001516001600160401b0316816001600160401b031610156118e05760405162461bcd60e51b8152602060048201526016602482015275151bdad95b9cc81b9bdd081d1c985b9cd9995c9c995960521b6044820152606401610400565b60006118ee85870187612818565b805190915089146119375760405162461bcd60e51b8152602060048201526013602482015272086dedadad2e8dacadce840dad2e6dac2e8c6d606b1b6044820152606401610400565b60035460208201516001600160a01b0390811691161461198d5760405162461bcd60e51b8152602060048201526011602482015270496e76616c696420617574686f7269747960781b6044820152606401610400565b42816040015110156119d75760405162461bcd60e51b815260206004820152601360248201527210d95c9d1a599a58d85d1948195e1c1a5c9959606a1b6044820152606401610400565b60405163020a49e360e51b81526001600160a01b037f000000000000000000000000000000000000000000000000000000000000000016906341493c6090611a4a907eed1611619b8f2866de7be17d81a9d42a869b4c5959629708f125ae34a2f9ee908a908a908e908e906004016125e7565b60006040518083038186803b158015611a6257600080fd5b505afa158015611a76573d6000803e3d6000fd5b50503360009081526006602090815260408083206002018054600160ff1991821681179092558f855281845282852080549091169091179055888201518383528184208a516001600160401b039081168652935290832080549195509350611ae0918591166127e5565b82546001600160401b039182166101009390930a9283029190920219909116179055506000898152602081905260408120600201805460ff19166001908117909155600480548083018255928190527f8a35acfbc15ff81a39ae7d344fd709f28e8600b4aa8c65c6b64bfe7fe36bd19b9092018b90559054611b629190612805565b60008a81526005602090815260409182902092909255514281528a917f02d0beb141922199e99106aa1e9e523add96e905baf9299bfb1042acd145bf5c91015b60405180910390a2505050505050505050565b60048181548110611bc557600080fd5b600091825260209091200154905081565b60008881526002602052604090205460ff1615611c2e5760405162461bcd60e51b8152602060048201526016602482015275139d5b1b1a599a595c88185b1c9958591e481d5cd95960521b6044820152606401610400565b6000611c3c82840184612572565b9050611c46610ba5565b816020015114611c8e5760405162461bcd60e51b8152602060048201526013602482015272125b9d985b1a59081b595c9adb19481c9bdbdd606a1b6044820152606401610400565b856001600160401b031681604001511015611ceb5760405162461bcd60e51b815260206004820152601b60248201527f496e73756666696369656e742070726f76656e2062616c616e636500000000006044820152606401610400565b866001600160401b031681606001516001600160401b031614611d415760405162461bcd60e51b815260206004820152600e60248201526d082e6e6cae840dad2e6dac2e8c6d60931b6044820152606401610400565b60405163020a49e360e51b81526001600160a01b037f000000000000000000000000000000000000000000000000000000000000000016906341493c6090611db4907e9c22b4f95fb710070dc80cfce7526c4cc7780834ab328bd769ff58934e6d0590879087908b908b906004016125e7565b60006040518083038186803b158015611dcc57600080fd5b505afa158015611de0573d6000803e3d6000fd5b50505060008a81526002602052604090819020805460ff1916600117905551630b0ac0ab60e01b81527333333333333333333333333333333333333333339150630b0ac0ab90611e38908b908b908b90600401612512565b600060405180830381600087803b158015611e5257600080fd5b505af1158015611e66573d6000803e3d6000fd5b50505050887fcc9580996e4c53ac7e73439f181e208ab15831ea2d2429dd12ee742c1c475b6f42604051611ba291815260200190565b6003546001600160a01b03163314611ef25760405162461bcd60e51b81526020600482015260196024820152784f6e6c7920636f6d706c69616e636520617574686f7269747960381b6044820152606401610400565b600380546001600160a01b0319166001600160a01b0383169081179091556040517f829c4ef70a1fb0edb9daa0db5c77d61190e746db94bce7dc78fee99d04fb409990600090a250565b604080516001600160a01b03841660208201526001600160401b038316818301528151808203830181526060909101918290526000918290819061080190611f85908590612865565b600060405180830381855afa9150503d8060008114611fc0576040519150601f19603f3d011682016040523d82523d6000602084013e611fc5565b606091505b509150915081611fdb5760009350505050611ff9565b600081806020019051810190611ff19190612894565b519450505050505b92915050565b60006020828403121561201157600080fd5b5035919050565b6001600160401b038116811461202d57600080fd5b50565b803561203b81612018565b919050565b80356001600160a01b038116811461203b57600080fd5b60008060006060848603121561206c57600080fd5b833561207781612018565b9250602084013561208781612018565b915061209560408501612040565b90509250925092565b60008083601f8401126120b057600080fd5b5081356001600160401b038111156120c757600080fd5b6020830191508360208285010111156120df57600080fd5b9250929050565b8035801515811461203b57600080fd5b600080600080600080600080600060e08a8c03121561211457600080fd5b8935985061212460208b01612040565b975060408a013561213481612018565b965060608a013561214481612018565b955060808a01356001600160401b038082111561216057600080fd5b61216c8d838e0161209e565b909750955060a08c013591508082111561218557600080fd5b506121928c828d0161209e565b90945092506121a5905060c08b016120e6565b90509295985092959850929598565b600080604083850312156121c757600080fd5b82356121d281612018565b915060208301356121e281612018565b809150509250929050565b600080600080600080600080600060e08a8c03121561220b57600080fd5b8935985060208a01356001600160401b038082111561222957600080fd5b6122358d838e0161209e565b909a50985060408c013591508082111561224e57600080fd5b5061225b8c828d0161209e565b90975095505060608a013563ffffffff8116811461227857600080fd5b935061228660808b016120e6565b925060a08a013561229681612018565b91506121a560c08b01612030565b6000602082840312156122b657600080fd5b6122bf82612040565b9392505050565b600080600080604085870312156122dc57600080fd5b84356001600160401b03808211156122f357600080fd5b6122ff8883890161209e565b9096509450602087013591508082111561231857600080fd5b506123258782880161209e565b95989497509550505050565b600080600080600080600060a0888a03121561234c57600080fd5b87359650602088013561235e81612018565b9550604088013561236e81612018565b945060608801356001600160401b038082111561238a57600080fd5b6123968b838c0161209e565b909650945060808a01359150808211156123af57600080fd5b506123bc8a828b0161209e565b989b979a50959850939692959293505050565b6000806000806000606086880312156123e757600080fd5b8535945060208601356001600160401b038082111561240557600080fd5b61241189838a0161209e565b9096509450604088013591508082111561242a57600080fd5b506124378882890161209e565b969995985093965092949392505050565b60008060008060008060008060c0898b03121561246457600080fd5b8835975061247460208a01612040565b9650604089013561248481612018565b9550606089013561249481612018565b945060808901356001600160401b03808211156124b057600080fd5b6124bc8c838d0161209e565b909650945060a08b01359150808211156124d557600080fd5b506124e28b828c0161209e565b999c989b5096995094979396929594505050565b6000806040838503121561250957600080fd5b6121d283612040565b6001600160a01b039390931683526001600160401b03918216602084015216604082015260600190565b604051608081016001600160401b038111828210171561256c57634e487b7160e01b600052604160045260246000fd5b60405290565b60006080828403121561258457600080fd5b61258c61253c565b82358152602083013560208201526040830135604082015260608301356125b281612018565b60608201529392505050565b81835281816020850137506000828201602090810191909152601f909101601f19169091010190565b8581526060602082015260006126016060830186886125be565b82810360408401526126148185876125be565b98975050505050505050565b634e487b7160e01b600052603260045260246000fd5b634e487b7160e01b600052601160045260246000fd5b60006001820161265e5761265e612636565b5060010190565b60006040828403121561267757600080fd5b604051604081018181106001600160401b03821117156126a757634e487b7160e01b600052604160045260246000fd5b604052823581526020928301359281019290925250919050565b600781810b9083900b01677fffffffffffffff8113677fffffffffffffff1982121715611ff957611ff9612636565b600782810b9082900b03677fffffffffffffff198112677fffffffffffffff82131715611ff957611ff9612636565b80820180821115611ff957611ff9612636565b6001600160401b0382811682821603908082111561275257612752612636565b5092915050565b600060a0828403121561276b57600080fd5b60405160a081018181106001600160401b038211171561279b57634e487b7160e01b600052604160045260246000fd5b6040528235815260208301356127b081612018565b602082015260408301356127c381612018565b6040820152606083810135908201526080928301359281019290925250919050565b6001600160401b0381811683821601908082111561275257612752612636565b81810381811115611ff957611ff9612636565b60006080828403121561282a57600080fd5b61283261253c565b8235815261284260208401612040565b602082015260408301356040820152606083013560608201528091505092915050565b6000825160005b81811015612886576020818601810151858301520161286c565b506000920191825250919050565b6000606082840312156128a657600080fd5b604051606081018181106001600160401b03821117156128d657634e487b7160e01b600052604160045260246000fd5b60405282516128e481612018565b815260208301516128f481612018565b6020820152604083015161290781612018565b6040820152939250505056fece395e6ead50d4ec0bce014acc26dd95b62fc9d9c9083f2e08a2cda45c331cd8a26469706673582212201f81af71087f8dd7330c9ede96a7c2f1d343c7ecfee7fe94214ecf0dc87d00b664736f6c63430008130033","opcodes":"PUSH1 0xA0 PUSH1 0x40 MSTORE CALLVALUE DUP1 ISZERO PUSH3 0x11 JUMPI PUSH1 0x0 DUP1 REVERT JUMPDEST POP PUSH1 0x40 MLOAD PUSH3 0x2A5A CODESIZE SUB DUP1 PUSH3 0x2A5A DUP4 CODECOPY DUP2 ADD PUSH1 0x40 DUP2 SWAP1 MSTORE PUSH3 0x34 SWAP2 PUSH3 0x7A JUMP JUMPDEST PUSH1 0x1 PUSH1 0x1 PUSH1 0xA0 SHL SUB SWAP2 DUP3 AND PUSH1 0x80 MSTORE PUSH1 0x3 DUP1 SLOAD PUSH1 0x1 PUSH1 0x1 PUSH1 0xA0 SHL SUB NOT AND SWAP2 SWAP1 SWAP3 AND OR SWAP1 SSTORE PUSH3 0xB2 JUMP JUMPDEST DUP1 MLOAD PUSH1 0x1 PUSH1 0x1 PUSH1 0xA0 SHL SUB DUP2 AND DUP2 EQ PUSH3 0x75 JUMPI PUSH1 0x0 DUP1 REVERT JUMPDEST SWAP2 SWAP1 POP JUMP JUMPDEST PUSH1 0x0 DUP1 PUSH1 0x40 DUP4 DUP6 SUB SLT ISZERO PUSH3 0x8E JUMPI PUSH1 0x0 DUP1 REVERT JUMPDEST PUSH3 0x99 DUP4 PUSH3 0x5D JUMP JUMPDEST SWAP2 POP PUSH3 0xA9 PUSH1 0x20 DUP5 ADD PUSH3 0x5D JUMP JUMPDEST SWAP1 POP SWAP3 POP SWAP3 SWAP1 POP JUMP JUMPDEST PUSH1 0x80 MLOAD PUSH2 0x2969 PUSH3 0xF1 PUSH1 0x0 CODECOPY PUSH1 0x0 DUP2 DUP2 PUSH2 0x1F7 ADD MSTORE DUP2 DUP2 PUSH2 0x825 ADD MSTORE DUP2 DUP2 PUSH2 0xEE3 ADD MSTORE DUP2 DUP2 PUSH2 0x1354 ADD MSTORE DUP2 DUP2 PUSH2 0x19EE ADD MSTORE PUSH2 0x1D58 ADD MSTORE PUSH2 0x2969 PUSH1 0x0 RETURN INVALID PUSH1 0x80 PUSH1 0x40 MSTORE CALLVALUE DUP1 ISZERO PUSH2 0x10 JUMPI PUSH1 0x0 DUP1 REVERT JUMPDEST POP PUSH1 0x4 CALLDATASIZE LT PUSH2 0x12C JUMPI PUSH1 0x0 CALLDATALOAD PUSH1 0xE0 SHR DUP1 PUSH4 0x839DF945 GT PUSH2 0xAD JUMPI DUP1 PUSH4 0xD4A82DC5 GT PUSH2 0x71 JUMPI DUP1 PUSH4 0xD4A82DC5 EQ PUSH2 0x2C1 JUMPI DUP1 PUSH4 0xDAC90AEB EQ PUSH2 0x2D4 JUMPI DUP1 PUSH4 0xE5EA7BE2 EQ PUSH2 0x2E7 JUMPI DUP1 PUSH4 0xEB3349B9 EQ PUSH2 0x2FA JUMPI DUP1 PUSH4 0xFDB87EC7 EQ PUSH2 0x383 JUMPI PUSH1 0x0 DUP1 REVERT JUMPDEST DUP1 PUSH4 0x839DF945 EQ PUSH2 0x252 JUMPI DUP1 PUSH4 0x94137C90 EQ PUSH2 0x275 JUMPI DUP1 PUSH4 0xB54FCFF9 EQ PUSH2 0x288 JUMPI DUP1 PUSH4 0xCA29A405 EQ PUSH2 0x29B JUMPI DUP1 PUSH4 0xD43FFA2F EQ PUSH2 0x2AE JUMPI PUSH1 0x0 DUP1 REVERT JUMPDEST DUP1 PUSH4 0x49590657 GT PUSH2 0xF4 JUMPI DUP1 PUSH4 0x49590657 EQ PUSH2 0x1EA JUMPI DUP1 PUSH4 0x52A07FA3 EQ PUSH2 0x1F2 JUMPI DUP1 PUSH4 0x5EDA69B1 EQ PUSH2 0x219 JUMPI DUP1 PUSH4 0x6F3BCF67 EQ PUSH2 0x22C JUMPI DUP1 PUSH4 0x7318754D EQ PUSH2 0x23F JUMPI PUSH1 0x0 DUP1 REVERT JUMPDEST DUP1 PUSH4 0x12D09B5 EQ PUSH2 0x131 JUMPI DUP1 PUSH4 0x18AFAE2C EQ PUSH2 0x164 JUMPI DUP1 PUSH4 0x27868E38 EQ PUSH2 0x179 JUMPI DUP1 PUSH4 0x2997E86B EQ PUSH2 0x18C JUMPI DUP1 PUSH4 0x309F477A EQ PUSH2 0x1BF JUMPI JUMPDEST PUSH1 0x0 DUP1 REVERT JUMPDEST PUSH2 0x151 PUSH2 0x13F CALLDATASIZE PUSH1 0x4 PUSH2 0x1FFF JUMP JUMPDEST PUSH1 0x5 PUSH1 0x20 MSTORE PUSH1 0x0 SWAP1 DUP2 MSTORE PUSH1 0x40 SWAP1 KECCAK256 SLOAD DUP2 JUMP JUMPDEST PUSH1 0x40 MLOAD SWAP1 DUP2 MSTORE PUSH1 0x20 ADD JUMPDEST PUSH1 0x40 MLOAD DUP1 SWAP2 SUB SWAP1 RETURN JUMPDEST PUSH2 0x177 PUSH2 0x172 CALLDATASIZE PUSH1 0x4 PUSH2 0x2057 JUMP JUMPDEST PUSH2 0x3AE JUMP JUMPDEST STOP JUMPDEST PUSH2 0x177 PUSH2 0x187 CALLDATASIZE PUSH1 0x4 PUSH2 0x20F6 JUMP JUMPDEST PUSH2 0x47B JUMP JUMPDEST PUSH2 0x1AF PUSH2 0x19A CALLDATASIZE PUSH1 0x4 PUSH2 0x1FFF JUMP JUMPDEST PUSH1 0x2 PUSH1 0x20 MSTORE PUSH1 0x0 SWAP1 DUP2 MSTORE PUSH1 0x40 SWAP1 KECCAK256 SLOAD PUSH1 0xFF AND DUP2 JUMP JUMPDEST PUSH1 0x40 MLOAD SWAP1 ISZERO ISZERO DUP2 MSTORE PUSH1 0x20 ADD PUSH2 0x15B JUMP JUMPDEST PUSH1 0x3 SLOAD PUSH2 0x1D2 SWAP1 PUSH1 0x1 PUSH1 0x1 PUSH1 0xA0 SHL SUB AND DUP2 JUMP JUMPDEST PUSH1 0x40 MLOAD PUSH1 0x1 PUSH1 0x1 PUSH1 0xA0 SHL SUB SWAP1 SWAP2 AND DUP2 MSTORE PUSH1 0x20 ADD PUSH2 0x15B JUMP JUMPDEST PUSH2 0x151 PUSH2 0xBA5 JUMP JUMPDEST PUSH2 0x1D2 PUSH32 0x0 DUP2 JUMP JUMPDEST PUSH2 0x177 PUSH2 0x227 CALLDATASIZE PUSH1 0x4 PUSH2 0x21B4 JUMP JUMPDEST PUSH2 0xC52 JUMP JUMPDEST PUSH2 0x177 PUSH2 0x23A CALLDATASIZE PUSH1 0x4 PUSH2 0x21ED JUMP JUMPDEST PUSH2 0xE1D JUMP JUMPDEST PUSH2 0x177 PUSH2 0x24D CALLDATASIZE PUSH1 0x4 PUSH2 0x21B4 JUMP JUMPDEST PUSH2 0x10FE JUMP JUMPDEST PUSH2 0x1AF PUSH2 0x260 CALLDATASIZE PUSH1 0x4 PUSH2 0x1FFF JUMP JUMPDEST PUSH1 0x1 PUSH1 0x20 MSTORE PUSH1 0x0 SWAP1 DUP2 MSTORE PUSH1 0x40 SWAP1 KECCAK256 SLOAD PUSH1 0xFF AND DUP2 JUMP JUMPDEST PUSH2 0x1AF PUSH2 0x283 CALLDATASIZE PUSH1 0x4 PUSH2 0x22A4 JUMP JUMPDEST PUSH2 0x116F JUMP JUMPDEST PUSH2 0x177 PUSH2 0x296 CALLDATASIZE PUSH1 0x4 PUSH2 0x22C6 JUMP JUMPDEST PUSH2 0x125F JUMP JUMPDEST PUSH2 0x177 PUSH2 0x2A9 CALLDATASIZE PUSH1 0x4 PUSH2 0x2331 JUMP JUMPDEST PUSH2 0x14DC JUMP JUMPDEST PUSH2 0x177 PUSH2 0x2BC CALLDATASIZE PUSH1 0x4 PUSH2 0x23CF JUMP JUMPDEST PUSH2 0x16BC JUMP JUMPDEST PUSH2 0x151 PUSH2 0x2CF CALLDATASIZE PUSH1 0x4 PUSH2 0x1FFF JUMP JUMPDEST PUSH2 0x1BB5 JUMP JUMPDEST PUSH2 0x177 PUSH2 0x2E2 CALLDATASIZE PUSH1 0x4 PUSH2 0x2448 JUMP JUMPDEST PUSH2 0x1BD6 JUMP JUMPDEST PUSH2 0x177 PUSH2 0x2F5 CALLDATASIZE PUSH1 0x4 PUSH2 0x22A4 JUMP JUMPDEST PUSH2 0x1E9C JUMP JUMPDEST PUSH2 0x34A PUSH2 0x308 CALLDATASIZE PUSH1 0x4 PUSH2 0x22A4 JUMP JUMPDEST PUSH1 0x6 PUSH1 0x20 MSTORE PUSH1 0x0 SWAP1 DUP2 MSTORE PUSH1 0x40 SWAP1 KECCAK256 DUP1 SLOAD PUSH1 0x1 DUP3 ADD SLOAD PUSH1 0x2 SWAP1 SWAP3 ADD SLOAD PUSH1 0x1 PUSH1 0x1 PUSH1 0x40 SHL SUB DUP1 DUP4 AND SWAP4 PUSH1 0x1 PUSH1 0x40 SHL DUP5 DIV DUP3 AND SWAP4 PUSH1 0x1 PUSH1 0x80 SHL SWAP1 DIV SWAP1 SWAP2 AND SWAP2 PUSH1 0xFF AND DUP6 JUMP JUMPDEST PUSH1 0x40 DUP1 MLOAD PUSH1 0x1 PUSH1 0x1 PUSH1 0x40 SHL SUB SWAP7 DUP8 AND DUP2 MSTORE SWAP5 DUP7 AND PUSH1 0x20 DUP7 ADD MSTORE SWAP3 SWAP1 SWAP5 AND SWAP2 DUP4 ADD SWAP2 SWAP1 SWAP2 MSTORE PUSH1 0x60 DUP3 ADD MSTORE SWAP1 ISZERO ISZERO PUSH1 0x80 DUP3 ADD MSTORE PUSH1 0xA0 ADD PUSH2 0x15B JUMP JUMPDEST PUSH2 0x396 PUSH2 0x391 CALLDATASIZE PUSH1 0x4 PUSH2 0x24F6 JUMP JUMPDEST PUSH2 0x1F3C JUMP JUMPDEST PUSH1 0x40 MLOAD PUSH1 0x1 PUSH1 0x1 PUSH1 0x40 SHL SUB SWAP1 SWAP2 AND DUP2 MSTORE PUSH1 0x20 ADD PUSH2 0x15B JUMP JUMPDEST PUSH1 0x3 SLOAD PUSH1 0x1 PUSH1 0x1 PUSH1 0xA0 SHL SUB AND CALLER EQ PUSH2 0x409 JUMPI PUSH1 0x40 MLOAD PUSH3 0x461BCD PUSH1 0xE5 SHL DUP2 MSTORE PUSH1 0x20 PUSH1 0x4 DUP3 ADD MSTORE PUSH1 0x19 PUSH1 0x24 DUP3 ADD MSTORE PUSH25 0x4F6E6C7920636F6D706C69616E636520617574686F72697479 PUSH1 0x38 SHL PUSH1 0x44 DUP3 ADD MSTORE PUSH1 0x64 ADD JUMPDEST PUSH1 0x40 MLOAD DUP1 SWAP2 SUB SWAP1 REVERT JUMPDEST PUSH1 0x40 MLOAD PUSH4 0xB0AC0AB PUSH1 0xE0 SHL DUP2 MSTORE PUSH20 0x3333333333333333333333333333333333333333 SWAP1 PUSH4 0xB0AC0AB SWAP1 PUSH2 0x444 SWAP1 DUP5 SWAP1 DUP8 SWAP1 DUP8 SWAP1 PUSH1 0x4 ADD PUSH2 0x2512 JUMP JUMPDEST PUSH1 0x0 PUSH1 0x40 MLOAD DUP1 DUP4 SUB DUP2 PUSH1 0x0 DUP8 DUP1 EXTCODESIZE ISZERO DUP1 ISZERO PUSH2 0x45E JUMPI PUSH1 0x0 DUP1 REVERT JUMPDEST POP GAS CALL ISZERO DUP1 ISZERO PUSH2 0x472 JUMPI RETURNDATASIZE PUSH1 0x0 DUP1 RETURNDATACOPY RETURNDATASIZE PUSH1 0x0 REVERT JUMPDEST POP POP POP POP POP POP POP JUMP JUMPDEST PUSH1 0x40 DUP1 MLOAD PUSH1 0x60 DUP1 DUP3 MSTORE PUSH1 0x5 SWAP1 DUP3 ADD MSTORE PUSH5 0x1CDD185C9D PUSH1 0xDA SHL PUSH1 0x80 DUP3 ADD MSTORE PUSH1 0x20 DUP2 ADD DUP12 SWAP1 MSTORE PUSH1 0x1 PUSH1 0x1 PUSH1 0x40 SHL SUB DUP9 AND DUP2 DUP4 ADD MSTORE SWAP1 MLOAD PUSH1 0x0 DUP1 MLOAD PUSH1 0x20 PUSH2 0x2914 DUP4 CODECOPY DUP2 MLOAD SWAP2 MSTORE SWAP2 DUP2 SWAP1 SUB PUSH1 0xA0 ADD SWAP1 LOG1 PUSH1 0x0 DUP10 DUP2 MSTORE PUSH1 0x2 PUSH1 0x20 MSTORE PUSH1 0x40 SWAP1 KECCAK256 SLOAD PUSH1 0xFF AND ISZERO PUSH2 0x51F JUMPI PUSH1 0x40 MLOAD PUSH3 0x461BCD PUSH1 0xE5 SHL DUP2 MSTORE PUSH1 0x20 PUSH1 0x4 DUP3 ADD MSTORE PUSH1 0x16 PUSH1 0x24 DUP3 ADD MSTORE PUSH22 0x139D5B1B1A599A595C88185B1C9958591E481D5CD959 PUSH1 0x52 SHL PUSH1 0x44 DUP3 ADD MSTORE PUSH1 0x64 ADD PUSH2 0x400 JUMP JUMPDEST PUSH1 0x40 DUP1 MLOAD PUSH1 0x60 DUP1 DUP3 MSTORE PUSH1 0x16 SWAP1 DUP3 ADD MSTORE PUSH22 0x1B9D5B1B1A599A595C97D8DA1958DAD7DC185CDCD959 PUSH1 0x52 SHL PUSH1 0x80 DUP3 ADD MSTORE PUSH1 0x20 DUP2 ADD DUP12 SWAP1 MSTORE PUSH1 0x1 PUSH1 0x1 PUSH1 0x40 SHL SUB DUP9 AND DUP2 DUP4 ADD MSTORE SWAP1 MLOAD PUSH1 0x0 DUP1 MLOAD PUSH1 0x20 PUSH2 0x2914 DUP4 CODECOPY DUP2 MLOAD SWAP2 MSTORE SWAP2 DUP2 SWAP1 SUB PUSH1 0xA0 ADD SWAP1 LOG1 PUSH1 0x0 PUSH2 0x58A DUP4 DUP6 ADD DUP6 PUSH2 0x2572 JUMP JUMPDEST SWAP1 POP PUSH1 0x0 DUP1 MLOAD PUSH1 0x20 PUSH2 0x2914 DUP4 CODECOPY DUP2 MLOAD SWAP2 MSTORE DUP11 DUP9 PUSH1 0x40 MLOAD PUSH2 0x5EB SWAP3 SWAP2 SWAP1 PUSH1 0x60 DUP1 DUP3 MSTORE PUSH1 0x15 SWAP1 DUP3 ADD MSTORE PUSH21 0x6465636F6465645F7075626C69635F76616C756573 PUSH1 0x58 SHL PUSH1 0x80 DUP3 ADD MSTORE PUSH1 0x20 DUP2 ADD SWAP3 SWAP1 SWAP3 MSTORE PUSH1 0x1 PUSH1 0x1 PUSH1 0x40 SHL SUB AND PUSH1 0x40 DUP3 ADD MSTORE PUSH1 0xA0 ADD SWAP1 JUMP JUMPDEST PUSH1 0x40 MLOAD DUP1 SWAP2 SUB SWAP1 LOG1 PUSH2 0x5FB PUSH2 0xBA5 JUMP JUMPDEST DUP2 PUSH1 0x20 ADD MLOAD EQ PUSH2 0x643 JUMPI PUSH1 0x40 MLOAD PUSH3 0x461BCD PUSH1 0xE5 SHL DUP2 MSTORE PUSH1 0x20 PUSH1 0x4 DUP3 ADD MSTORE PUSH1 0x13 PUSH1 0x24 DUP3 ADD MSTORE PUSH19 0x125B9D985B1A59081B595C9ADB19481C9BDBDD PUSH1 0x6A SHL PUSH1 0x44 DUP3 ADD MSTORE PUSH1 0x64 ADD PUSH2 0x400 JUMP JUMPDEST PUSH1 0x40 DUP1 MLOAD PUSH1 0x60 DUP1 DUP3 MSTORE PUSH1 0x18 SWAP1 DUP3 ADD MSTORE PUSH32 0x6D65726B6C655F726F6F745F636865636B5F7061737365640000000000000000 PUSH1 0x80 DUP3 ADD MSTORE PUSH1 0x20 DUP2 ADD DUP13 SWAP1 MSTORE PUSH1 0x1 PUSH1 0x1 PUSH1 0x40 SHL SUB DUP10 AND DUP2 DUP4 ADD MSTORE SWAP1 MLOAD PUSH1 0x0 DUP1 MLOAD PUSH1 0x20 PUSH2 0x2914 DUP4 CODECOPY DUP2 MLOAD SWAP2 MSTORE SWAP2 DUP2 SWAP1 SUB PUSH1 0xA0 ADD SWAP1 LOG1 DUP7 PUSH1 0x1 PUSH1 0x1 PUSH1 0x40 SHL SUB AND DUP2 PUSH1 0x40 ADD MLOAD LT ISZERO PUSH2 0x704 JUMPI PUSH1 0x40 MLOAD PUSH3 0x461BCD PUSH1 0xE5 SHL DUP2 MSTORE PUSH1 0x20 PUSH1 0x4 DUP3 ADD MSTORE PUSH1 0x1B PUSH1 0x24 DUP3 ADD MSTORE PUSH32 0x496E73756666696369656E742070726F76656E2062616C616E63650000000000 PUSH1 0x44 DUP3 ADD MSTORE PUSH1 0x64 ADD PUSH2 0x400 JUMP JUMPDEST PUSH1 0x40 DUP1 MLOAD PUSH1 0x60 DUP1 DUP3 MSTORE PUSH1 0x14 SWAP1 DUP3 ADD MSTORE PUSH20 0x18985B185B98D957D8DA1958DAD7DC185CDCD959 PUSH1 0x62 SHL PUSH1 0x80 DUP3 ADD MSTORE PUSH1 0x20 DUP2 ADD DUP13 SWAP1 MSTORE PUSH1 0x1 PUSH1 0x1 PUSH1 0x40 SHL SUB DUP10 AND DUP2 DUP4 ADD MSTORE SWAP1 MLOAD PUSH1 0x0 DUP1 MLOAD PUSH1 0x20 PUSH2 0x2914 DUP4 CODECOPY DUP2 MLOAD SWAP2 MSTORE SWAP2 DUP2 SWAP1 SUB PUSH1 0xA0 ADD SWAP1 LOG1 DUP8 PUSH1 0x1 PUSH1 0x1 PUSH1 0x40 SHL SUB AND DUP2 PUSH1 0x60 ADD MLOAD PUSH1 0x1 PUSH1 0x1 PUSH1 0x40 SHL SUB AND EQ PUSH2 0x7B5 JUMPI PUSH1 0x40 MLOAD PUSH3 0x461BCD PUSH1 0xE5 SHL DUP2 MSTORE PUSH1 0x20 PUSH1 0x4 DUP3 ADD MSTORE PUSH1 0xE PUSH1 0x24 DUP3 ADD MSTORE PUSH14 0x82E6E6CAE840DAD2E6DAC2E8C6D PUSH1 0x93 SHL PUSH1 0x44 DUP3 ADD MSTORE PUSH1 0x64 ADD PUSH2 0x400 JUMP JUMPDEST PUSH1 0x40 DUP1 MLOAD PUSH1 0x60 DUP1 DUP3 MSTORE PUSH1 0x12 SWAP1 DUP3 ADD MSTORE PUSH18 0x185CDCD95D17D8DA1958DAD7DC185CDCD959 PUSH1 0x72 SHL PUSH1 0x80 DUP3 ADD MSTORE PUSH1 0x20 DUP2 ADD DUP13 SWAP1 MSTORE PUSH1 0x1 PUSH1 0x1 PUSH1 0x40 SHL SUB DUP10 AND DUP2 DUP4 ADD MSTORE SWAP1 MLOAD PUSH1 0x0 DUP1 MLOAD PUSH1 0x20 PUSH2 0x2914 DUP4 CODECOPY DUP2 MLOAD SWAP2 MSTORE SWAP2 DUP2 SWAP1 SUB PUSH1 0xA0 ADD SWAP1 LOG1 PUSH1 0x40 MLOAD PUSH4 0x20A49E3 PUSH1 0xE5 SHL DUP2 MSTORE PUSH1 0x1 PUSH1 0x1 PUSH1 0xA0 SHL SUB PUSH32 0x0 AND SWAP1 PUSH4 0x41493C60 SWAP1 PUSH2 0x881 SWAP1 PUSH31 0x9C22B4F95FB710070DC80CFCE7526C4CC7780834AB328BD769FF58934E6D05 SWAP1 DUP9 SWAP1 DUP9 SWAP1 DUP13 SWAP1 DUP13 SWAP1 PUSH1 0x4 ADD PUSH2 0x25E7 JUMP JUMPDEST PUSH1 0x0 PUSH1 0x40 MLOAD DUP1 DUP4 SUB DUP2 DUP7 DUP1 EXTCODESIZE ISZERO DUP1 ISZERO PUSH2 0x899 JUMPI PUSH1 0x0 DUP1 REVERT JUMPDEST POP GAS STATICCALL ISZERO DUP1 ISZERO PUSH2 0x8AD JUMPI RETURNDATASIZE PUSH1 0x0 DUP1 RETURNDATACOPY RETURNDATASIZE PUSH1 0x0 REVERT JUMPDEST POP POP POP POP PUSH1 0x0 DUP1 MLOAD PUSH1 0x20 PUSH2 0x2914 DUP4 CODECOPY DUP2 MLOAD SWAP2 MSTORE DUP11 DUP9 PUSH1 0x40 MLOAD PUSH2 0x918 SWAP3 SWAP2 SWAP1 PUSH1 0x60 DUP1 DUP3 MSTORE PUSH1 0x19 SWAP1 DUP3 ADD MSTORE PUSH32 0x70726F6F665F766572696669636174696F6E5F70617373656400000000000000 PUSH1 0x80 DUP3 ADD MSTORE PUSH1 0x20 DUP2 ADD SWAP3 SWAP1 SWAP3 MSTORE PUSH1 0x1 PUSH1 0x1 PUSH1 0x40 SHL SUB AND PUSH1 0x40 DUP3 ADD MSTORE PUSH1 0xA0 ADD SWAP1 JUMP JUMPDEST PUSH1 0x40 MLOAD DUP1 SWAP2 SUB SWAP1 LOG1 PUSH1 0x0 DUP11 DUP2 MSTORE PUSH1 0x2 PUSH1 0x20 MSTORE PUSH1 0x40 SWAP1 DUP2 SWAP1 KECCAK256 DUP1 SLOAD PUSH1 0xFF NOT AND PUSH1 0x1 OR SWAP1 SSTORE MLOAD PUSH1 0x0 DUP1 MLOAD PUSH1 0x20 PUSH2 0x2914 DUP4 CODECOPY DUP2 MLOAD SWAP2 MSTORE SWAP1 PUSH2 0x999 SWAP1 DUP13 SWAP1 DUP11 SWAP1 PUSH1 0x60 DUP1 DUP3 MSTORE PUSH1 0x15 SWAP1 DUP3 ADD MSTORE PUSH21 0x1B9D5B1B1A599A595C97DB585C9AD95917DD5CD959 PUSH1 0x5A SHL PUSH1 0x80 DUP3 ADD MSTORE PUSH1 0x20 DUP2 ADD SWAP3 SWAP1 SWAP3 MSTORE PUSH1 0x1 PUSH1 0x1 PUSH1 0x40 SHL SUB AND PUSH1 0x40 DUP3 ADD MSTORE PUSH1 0xA0 ADD SWAP1 JUMP JUMPDEST PUSH1 0x40 MLOAD DUP1 SWAP2 SUB SWAP1 LOG1 DUP2 PUSH2 0xAB7 JUMPI PUSH32 0x8444BF1C29A1AC42DEF92A78A66796F5BBF8F605A08B82F43D9D8C8D8973ABB7 DUP10 DUP10 DUP10 PUSH1 0x40 MLOAD PUSH2 0x9D9 SWAP4 SWAP3 SWAP2 SWAP1 PUSH2 0x2512 JUMP JUMPDEST PUSH1 0x40 MLOAD DUP1 SWAP2 SUB SWAP1 LOG1 PUSH1 0x40 MLOAD PUSH4 0xB0AC0AB PUSH1 0xE0 SHL DUP2 MSTORE PUSH20 0x3333333333333333333333333333333333333333 SWAP1 PUSH4 0xB0AC0AB SWAP1 PUSH2 0xA1C SWAP1 DUP13 SWAP1 DUP13 SWAP1 DUP13 SWAP1 PUSH1 0x4 ADD PUSH2 0x2512 JUMP JUMPDEST PUSH1 0x0 PUSH1 0x40 MLOAD DUP1 DUP4 SUB DUP2 PUSH1 0x0 DUP8 DUP1 EXTCODESIZE ISZERO DUP1 ISZERO PUSH2 0xA36 JUMPI PUSH1 0x0 DUP1 REVERT JUMPDEST POP GAS CALL ISZERO DUP1 ISZERO PUSH2 0xA4A JUMPI RETURNDATASIZE PUSH1 0x0 DUP1 RETURNDATACOPY RETURNDATASIZE PUSH1 0x0 REVERT JUMPDEST POP POP POP POP PUSH1 0x0 DUP1 MLOAD PUSH1 0x20 PUSH2 0x2914 DUP4 CODECOPY DUP2 MLOAD SWAP2 MSTORE DUP11 DUP9 PUSH1 0x40 MLOAD PUSH2 0xAAA SWAP3 SWAP2 SWAP1 PUSH1 0x60 DUP1 DUP3 MSTORE PUSH1 0x12 SWAP1 DUP3 ADD MSTORE PUSH18 0x1CD95B991CDC1BDD17D8DBDB5C1B195D1959 PUSH1 0x72 SHL PUSH1 0x80 DUP3 ADD MSTORE PUSH1 0x20 DUP2 ADD SWAP3 SWAP1 SWAP3 MSTORE PUSH1 0x1 PUSH1 0x1 PUSH1 0x40 SHL SUB AND PUSH1 0x40 DUP3 ADD MSTORE PUSH1 0xA0 ADD SWAP1 JUMP JUMPDEST PUSH1 0x40 MLOAD DUP1 SWAP2 SUB SWAP1 LOG1 PUSH2 0xB0F JUMP JUMPDEST PUSH1 0x40 DUP1 MLOAD PUSH1 0x60 DUP1 DUP3 MSTORE PUSH1 0x10 SWAP1 DUP3 ADD MSTORE PUSH16 0x1CD95B991CDC1BDD17DCDADA5C1C1959 PUSH1 0x82 SHL PUSH1 0x80 DUP3 ADD MSTORE PUSH1 0x20 DUP2 ADD DUP13 SWAP1 MSTORE PUSH1 0x1 PUSH1 0x1 PUSH1 0x40 SHL SUB DUP10 AND DUP2 DUP4 ADD MSTORE SWAP1 MLOAD PUSH1 0x0 DUP1 MLOAD PUSH1 0x20 PUSH2 0x2914 DUP4 CODECOPY DUP2 MLOAD SWAP2 MSTORE SWAP2 DUP2 SWAP1 SUB PUSH1 0xA0 ADD SWAP1 LOG1 JUMPDEST DUP10 PUSH32 0xCC9580996E4C53AC7E73439F181E208AB15831EA2D2429DD12EE742C1C475B6F TIMESTAMP PUSH1 0x40 MLOAD PUSH2 0xB41 SWAP2 DUP2 MSTORE PUSH1 0x20 ADD SWAP1 JUMP JUMPDEST PUSH1 0x40 MLOAD DUP1 SWAP2 SUB SWAP1 LOG2 PUSH1 0x40 DUP1 MLOAD PUSH1 0x60 DUP1 DUP3 MSTORE PUSH1 0x9 SWAP1 DUP3 ADD MSTORE PUSH9 0x18DBDB5C1B195D1959 PUSH1 0xBA SHL PUSH1 0x80 DUP3 ADD MSTORE PUSH1 0x20 DUP2 ADD DUP13 SWAP1 MSTORE PUSH1 0x1 PUSH1 0x1 PUSH1 0x40 SHL SUB DUP10 AND DUP2 DUP4 ADD MSTORE SWAP1 MLOAD PUSH1 0x0 DUP1 MLOAD PUSH1 0x20 PUSH2 0x2914 DUP4 CODECOPY DUP2 MLOAD SWAP2 MSTORE SWAP2 DUP2 SWAP1 SUB PUSH1 0xA0 ADD SWAP1 LOG1 POP POP POP POP POP POP POP POP POP POP JUMP JUMPDEST PUSH1 0x4 SLOAD PUSH1 0x0 SWAP1 DUP2 SUB PUSH2 0xBB7 JUMPI POP PUSH1 0x0 SWAP1 JUMP JUMPDEST PUSH1 0x0 PUSH1 0x4 PUSH1 0x0 DUP2 SLOAD DUP2 LT PUSH2 0xBCD JUMPI PUSH2 0xBCD PUSH2 0x2620 JUMP JUMPDEST PUSH1 0x0 SWAP2 DUP3 MSTORE PUSH1 0x20 SWAP1 SWAP2 KECCAK256 ADD SLOAD SWAP1 POP PUSH1 0x1 JUMPDEST PUSH1 0x4 SLOAD DUP2 LT ISZERO PUSH2 0xC4C JUMPI DUP2 PUSH1 0x4 DUP3 DUP2 SLOAD DUP2 LT PUSH2 0xBFC JUMPI PUSH2 0xBFC PUSH2 0x2620 JUMP JUMPDEST SWAP1 PUSH1 0x0 MSTORE PUSH1 0x20 PUSH1 0x0 KECCAK256 ADD SLOAD PUSH1 0x40 MLOAD PUSH1 0x20 ADD PUSH2 0xC21 SWAP3 SWAP2 SWAP1 SWAP2 DUP3 MSTORE PUSH1 0x20 DUP3 ADD MSTORE PUSH1 0x40 ADD SWAP1 JUMP JUMPDEST PUSH1 0x40 MLOAD PUSH1 0x20 DUP2 DUP4 SUB SUB DUP2 MSTORE SWAP1 PUSH1 0x40 MSTORE DUP1 MLOAD SWAP1 PUSH1 0x20 ADD KECCAK256 SWAP2 POP DUP1 DUP1 PUSH2 0xC44 SWAP1 PUSH2 0x264C JUMP JUMPDEST SWAP2 POP POP PUSH2 0xBDE JUMP JUMPDEST POP SWAP2 SWAP1 POP JUMP JUMPDEST PUSH1 0x0 DUP2 PUSH1 0x1 PUSH1 0x1 PUSH1 0x40 SHL SUB AND GT PUSH2 0xCAB JUMPI PUSH1 0x40 MLOAD PUSH3 0x461BCD PUSH1 0xE5 SHL DUP2 MSTORE PUSH1 0x20 PUSH1 0x4 DUP3 ADD MSTORE PUSH1 0x1D PUSH1 0x24 DUP3 ADD MSTORE PUSH32 0x416D6F756E74206D7573742062652067726561746572207468616E2030000000 PUSH1 0x44 DUP3 ADD MSTORE PUSH1 0x64 ADD PUSH2 0x400 JUMP JUMPDEST PUSH1 0x0 PUSH2 0xCB7 CALLER DUP5 PUSH2 0x1F3C JUMP JUMPDEST SWAP1 POP DUP2 PUSH1 0x1 PUSH1 0x1 PUSH1 0x40 SHL SUB AND DUP2 PUSH1 0x1 PUSH1 0x1 PUSH1 0x40 SHL SUB AND LT ISZERO PUSH2 0xD1B JUMPI PUSH1 0x40 MLOAD PUSH3 0x461BCD PUSH1 0xE5 SHL DUP2 MSTORE PUSH1 0x20 PUSH1 0x4 DUP3 ADD MSTORE PUSH1 0x19 PUSH1 0x24 DUP3 ADD MSTORE PUSH32 0x496E73756666696369656E742073706F742062616C616E636500000000000000 PUSH1 0x44 DUP3 ADD MSTORE PUSH1 0x64 ADD PUSH2 0x400 JUMP JUMPDEST PUSH1 0x0 PUSH2 0xD27 ADDRESS DUP6 PUSH2 0x1F3C JUMP JUMPDEST PUSH1 0x40 DUP1 MLOAD PUSH1 0xA0 DUP2 ADD DUP3 MSTORE PUSH1 0x1 PUSH1 0x1 PUSH1 0x40 SHL SUB DUP8 DUP2 AND DUP1 DUP4 MSTORE DUP8 DUP3 AND PUSH1 0x20 DUP1 DUP6 ADD DUP3 DUP2 MSTORE DUP8 DUP6 AND DUP7 DUP9 ADD SWAP1 DUP2 MSTORE TIMESTAMP PUSH1 0x60 DUP9 ADD SWAP1 DUP2 MSTORE PUSH1 0x0 PUSH1 0x80 DUP10 ADD DUP2 DUP2 MSTORE CALLER DUP1 DUP4 MSTORE PUSH1 0x6 DUP8 MSTORE SWAP2 DUP12 SWAP1 KECCAK256 SWAP10 MLOAD DUP11 SLOAD SWAP6 MLOAD SWAP5 MLOAD DUP11 AND PUSH1 0x1 PUSH1 0x80 SHL MUL PUSH8 0xFFFFFFFFFFFFFFFF PUSH1 0x80 SHL NOT SWAP6 DUP12 AND PUSH1 0x1 PUSH1 0x40 SHL MUL PUSH16 0xFFFFFFFFFFFFFFFFFFFFFFFFFFFFFFFF NOT SWAP1 SWAP8 AND SWAP2 SWAP1 SWAP11 AND OR SWAP5 SWAP1 SWAP5 OR SWAP3 SWAP1 SWAP3 AND SWAP7 SWAP1 SWAP7 OR DUP8 SSTORE SWAP5 MLOAD PUSH1 0x1 DUP8 ADD SSTORE MLOAD PUSH1 0x2 SWAP1 SWAP6 ADD DUP1 SLOAD SWAP6 ISZERO ISZERO PUSH1 0xFF NOT SWAP1 SWAP7 AND SWAP6 SWAP1 SWAP6 OR SWAP1 SWAP5 SSTORE DUP5 MLOAD SWAP2 DUP3 MSTORE SWAP3 DUP2 ADD SWAP3 SWAP1 SWAP3 MSTORE SWAP3 SWAP4 POP PUSH32 0xAC44786729A70FD941B7584083B7454CFC1720DB49DD28841B8CAEC86F6ADB25 SWAP2 ADD PUSH1 0x40 MLOAD DUP1 SWAP2 SUB SWAP1 LOG2 POP POP POP POP JUMP JUMPDEST PUSH1 0x0 PUSH2 0xE2B DUP7 DUP9 ADD DUP9 PUSH2 0x2665 JUMP JUMPDEST DUP1 MLOAD SWAP1 SWAP2 POP DUP11 EQ PUSH2 0xE74 JUMPI PUSH1 0x40 MLOAD PUSH3 0x461BCD PUSH1 0xE5 SHL DUP2 MSTORE PUSH1 0x20 PUSH1 0x4 DUP3 ADD MSTORE PUSH1 0x13 PUSH1 0x24 DUP3 ADD MSTORE PUSH19 0x86DEDADAD2E8DACADCE840DAD2E6DAC2E8C6D PUSH1 0x6B SHL PUSH1 0x44 DUP3 ADD MSTORE PUSH1 0x64 ADD PUSH2 0x400 JUMP JUMPDEST PUSH1 0x0 DUP11 DUP2 MSTORE PUSH1 0x20 DUP2 SWAP1 MSTORE PUSH1 0x40 SWAP1 KECCAK256 PUSH1 0x2 ADD SLOAD PUSH1 0xFF AND PUSH2 0xECC JUMPI PUSH1 0x40 MLOAD PUSH3 0x461BCD PUSH1 0xE5 SHL DUP2 MSTORE PUSH1 0x20 PUSH1 0x4 DUP3 ADD MSTORE PUSH1 0x14 PUSH1 0x24 DUP3 ADD MSTORE PUSH20 0x15985D5B1D08191BD95CC81B9BDD08195E1A5CDD PUSH1 0x62 SHL PUSH1 0x44 DUP3 ADD MSTORE PUSH1 0x64 ADD PUSH2 0x400 JUMP JUMPDEST PUSH1 0x40 MLOAD PUSH4 0x20A49E3 PUSH1 0xE5 SHL DUP2 MSTORE PUSH1 0x1 PUSH1 0x1 PUSH1 0xA0 SHL SUB PUSH32 0x0 AND SWAP1 PUSH4 0x41493C60 SWAP1 PUSH2 0xF3F SWAP1 PUSH31 0x6BF06179A19E1575731CBB10C5B9CC955CAE6F0A5DE98CF8BAF3C7C416131A SWAP1 DUP12 SWAP1 DUP12 SWAP1 DUP16 SWAP1 DUP16 SWAP1 PUSH1 0x4 ADD PUSH2 0x25E7 JUMP JUMPDEST PUSH1 0x0 PUSH1 0x40 MLOAD DUP1 DUP4 SUB DUP2 DUP7 DUP1 EXTCODESIZE ISZERO DUP1 ISZERO PUSH2 0xF57 JUMPI PUSH1 0x0 DUP1 REVERT JUMPDEST POP GAS STATICCALL ISZERO DUP1 ISZERO PUSH2 0xF6B JUMPI RETURNDATASIZE PUSH1 0x0 DUP1 RETURNDATACOPY RETURNDATASIZE PUSH1 0x0 REVERT JUMPDEST POP POP PUSH1 0x40 MLOAD PUSH4 0x4E4719AB PUSH1 0xE0 SHL DUP2 MSTORE PUSH4 0xFFFFFFFF DUP9 AND PUSH1 0x4 DUP3 ADD MSTORE DUP7 ISZERO ISZERO PUSH1 0x24 DUP3 ADD MSTORE PUSH1 0x1 PUSH1 0x1 PUSH1 0x40 SHL SUB DUP1 DUP8 AND PUSH1 0x44 DUP4 ADD MSTORE DUP6 AND PUSH1 0x64 DUP3 ADD MSTORE PUSH20 0x3333333333333333333333333333333333333333 SWAP3 POP PUSH4 0x4E4719AB SWAP2 POP PUSH1 0x84 ADD PUSH1 0x0 PUSH1 0x40 MLOAD DUP1 DUP4 SUB DUP2 PUSH1 0x0 DUP8 DUP1 EXTCODESIZE ISZERO DUP1 ISZERO PUSH2 0xFE0 JUMPI PUSH1 0x0 DUP1 REVERT JUMPDEST POP GAS CALL ISZERO DUP1 ISZERO PUSH2 0xFF4 JUMPI RETURNDATASIZE PUSH1 0x0 DUP1 RETURNDATACOPY RETURNDATASIZE PUSH1 0x0 REVERT JUMPDEST POP POP POP POP DUP4 ISZERO PUSH2 0x105D JUMPI PUSH1 0x0 DUP11 DUP2 MSTORE PUSH1 0x20 DUP2 DUP2 MSTORE PUSH1 0x40 DUP1 DUP4 KECCAK256 PUSH4 0xFFFFFFFF DUP10 AND DUP5 MSTORE PUSH1 0x1 ADD SWAP1 SWAP2 MSTORE DUP2 KECCAK256 DUP1 SLOAD DUP5 SWAP3 SWAP1 PUSH2 0x1031 SWAP1 DUP5 SWAP1 PUSH1 0x7 SIGNEXTEND PUSH2 0x26C1 JUMP JUMPDEST SWAP3 POP PUSH2 0x100 EXP DUP2 SLOAD DUP2 PUSH1 0x1 PUSH1 0x1 PUSH1 0x40 SHL SUB MUL NOT AND SWAP1 DUP4 PUSH1 0x7 SIGNEXTEND PUSH1 0x1 PUSH1 0x1 PUSH1 0x40 SHL SUB AND MUL OR SWAP1 SSTORE POP PUSH2 0x10B8 JUMP JUMPDEST PUSH1 0x0 DUP11 DUP2 MSTORE PUSH1 0x20 DUP2 DUP2 MSTORE PUSH1 0x40 DUP1 DUP4 KECCAK256 PUSH4 0xFFFFFFFF DUP10 AND DUP5 MSTORE PUSH1 0x1 ADD SWAP1 SWAP2 MSTORE DUP2 KECCAK256 DUP1 SLOAD DUP5 SWAP3 SWAP1 PUSH2 0x1090 SWAP1 DUP5 SWAP1 PUSH1 0x7 SIGNEXTEND PUSH2 0x26F0 JUMP JUMPDEST SWAP3 POP PUSH2 0x100 EXP DUP2 SLOAD DUP2 PUSH1 0x1 PUSH1 0x1 PUSH1 0x40 SHL SUB MUL NOT AND SWAP1 DUP4 PUSH1 0x7 SIGNEXTEND PUSH1 0x1 PUSH1 0x1 PUSH1 0x40 SHL SUB AND MUL OR SWAP1 SSTORE POP JUMPDEST DUP10 PUSH32 0x8F3DBA1073F4B750E9392983CBBDD0D9B7E8380008BDDA0E7683E3C3AA5C5189 TIMESTAMP PUSH1 0x40 MLOAD PUSH2 0x10EA SWAP2 DUP2 MSTORE PUSH1 0x20 ADD SWAP1 JUMP JUMPDEST PUSH1 0x40 MLOAD DUP1 SWAP2 SUB SWAP1 LOG2 POP POP POP POP POP POP POP POP POP POP JUMP JUMPDEST PUSH1 0x40 MLOAD PUSH4 0xB0AC0AB PUSH1 0xE0 SHL DUP2 MSTORE PUSH20 0x3333333333333333333333333333333333333333 SWAP1 PUSH4 0xB0AC0AB SWAP1 PUSH2 0x1139 SWAP1 ADDRESS SWAP1 DUP7 SWAP1 DUP7 SWAP1 PUSH1 0x4 ADD PUSH2 0x2512 JUMP JUMPDEST PUSH1 0x0 PUSH1 0x40 MLOAD DUP1 DUP4 SUB DUP2 PUSH1 0x0 DUP8 DUP1 EXTCODESIZE ISZERO DUP1 ISZERO PUSH2 0x1153 JUMPI PUSH1 0x0 DUP1 REVERT JUMPDEST POP GAS CALL ISZERO DUP1 ISZERO PUSH2 0x1167 JUMPI RETURNDATASIZE PUSH1 0x0 DUP1 RETURNDATACOPY RETURNDATASIZE PUSH1 0x0 REVERT JUMPDEST POP POP POP POP POP POP JUMP JUMPDEST PUSH1 0x1 PUSH1 0x1 PUSH1 0xA0 SHL SUB DUP2 AND PUSH1 0x0 SWAP1 DUP2 MSTORE PUSH1 0x6 PUSH1 0x20 SWAP1 DUP2 MSTORE PUSH1 0x40 DUP1 DUP4 KECCAK256 DUP2 MLOAD PUSH1 0xA0 DUP2 ADD DUP4 MSTORE DUP2 SLOAD PUSH1 0x1 PUSH1 0x1 PUSH1 0x40 SHL SUB DUP1 DUP3 AND DUP4 MSTORE PUSH1 0x1 PUSH1 0x40 SHL DUP3 DIV DUP2 AND SWAP6 DUP4 ADD DUP7 SWAP1 MSTORE PUSH1 0x1 PUSH1 0x80 SHL SWAP1 SWAP2 DIV AND SWAP3 DUP2 ADD SWAP3 SWAP1 SWAP3 MSTORE PUSH1 0x1 DUP2 ADD SLOAD PUSH1 0x60 DUP4 ADD MSTORE PUSH1 0x2 ADD SLOAD PUSH1 0xFF AND ISZERO ISZERO PUSH1 0x80 DUP3 ADD MSTORE SWAP1 ISZERO DUP1 PUSH2 0x11E6 JUMPI POP DUP1 PUSH1 0x80 ADD MLOAD JUMPDEST ISZERO PUSH2 0x11F4 JUMPI POP PUSH1 0x0 SWAP3 SWAP2 POP POP JUMP JUMPDEST PUSH1 0x60 DUP2 ADD MLOAD PUSH2 0x1205 SWAP1 PUSH2 0xE10 PUSH2 0x271F JUMP JUMPDEST TIMESTAMP GT ISZERO PUSH2 0x1215 JUMPI POP PUSH1 0x0 SWAP3 SWAP2 POP POP JUMP JUMPDEST PUSH1 0x0 PUSH2 0x1225 ADDRESS DUP4 PUSH1 0x0 ADD MLOAD PUSH2 0x1F3C JUMP JUMPDEST SWAP1 POP PUSH1 0x0 DUP3 PUSH1 0x40 ADD MLOAD DUP3 PUSH2 0x1239 SWAP2 SWAP1 PUSH2 0x2732 JUMP JUMPDEST SWAP1 POP DUP3 PUSH1 0x20 ADD MLOAD PUSH1 0x1 PUSH1 0x1 PUSH1 0x40 SHL SUB AND DUP2 PUSH1 0x1 PUSH1 0x1 PUSH1 0x40 SHL SUB AND LT ISZERO SWAP4 POP POP POP POP SWAP2 SWAP1 POP JUMP JUMPDEST PUSH1 0x0 PUSH2 0x126D DUP3 DUP5 ADD DUP5 PUSH2 0x2759 JUMP JUMPDEST DUP1 MLOAD PUSH1 0x0 SWAP1 DUP2 MSTORE PUSH1 0x20 DUP2 SWAP1 MSTORE PUSH1 0x40 SWAP1 KECCAK256 PUSH1 0x2 ADD SLOAD SWAP1 SWAP2 POP PUSH1 0xFF AND PUSH2 0x12CA JUMPI PUSH1 0x40 MLOAD PUSH3 0x461BCD PUSH1 0xE5 SHL DUP2 MSTORE PUSH1 0x20 PUSH1 0x4 DUP3 ADD MSTORE PUSH1 0x14 PUSH1 0x24 DUP3 ADD MSTORE PUSH20 0x15985D5B1D08191BD95CC81B9BDD08195E1A5CDD PUSH1 0x62 SHL PUSH1 0x44 DUP3 ADD MSTORE PUSH1 0x64 ADD PUSH2 0x400 JUMP JUMPDEST PUSH1 0x60 DUP2 ADD MLOAD DUP2 MLOAD PUSH1 0x0 SWAP1 DUP2 MSTORE PUSH1 0x20 DUP2 DUP2 MSTORE PUSH1 0x40 DUP1 DUP4 KECCAK256 DUP3 DUP7 ADD MLOAD PUSH1 0x1 PUSH1 0x1 PUSH1 0x40 SHL SUB SWAP1 DUP2 AND DUP6 MSTORE SWAP3 MSTORE SWAP1 SWAP2 KECCAK256 SLOAD AND LT ISZERO PUSH2 0x133D JUMPI PUSH1 0x40 MLOAD PUSH3 0x461BCD PUSH1 0xE5 SHL DUP2 MSTORE PUSH1 0x20 PUSH1 0x4 DUP3 ADD MSTORE PUSH1 0x14 PUSH1 0x24 DUP3 ADD MSTORE PUSH20 0x496E73756666696369656E742062616C616E6365 PUSH1 0x60 SHL PUSH1 0x44 DUP3 ADD MSTORE PUSH1 0x64 ADD PUSH2 0x400 JUMP JUMPDEST PUSH1 0x40 MLOAD PUSH4 0x20A49E3 PUSH1 0xE5 SHL DUP2 MSTORE PUSH1 0x1 PUSH1 0x1 PUSH1 0xA0 SHL SUB PUSH32 0x0 AND SWAP1 PUSH4 0x41493C60 SWAP1 PUSH2 0x13B0 SWAP1 PUSH31 0x8484840D42565B9589F5C37253789D3731407964B1537FB5CF9D6064226B1C SWAP1 DUP8 SWAP1 DUP8 SWAP1 DUP12 SWAP1 DUP12 SWAP1 PUSH1 0x4 ADD PUSH2 0x25E7 JUMP JUMPDEST PUSH1 0x0 PUSH1 0x40 MLOAD DUP1 DUP4 SUB DUP2 DUP7 DUP1 EXTCODESIZE ISZERO DUP1 ISZERO PUSH2 0x13C8 JUMPI PUSH1 0x0 DUP1 REVERT JUMPDEST POP GAS STATICCALL ISZERO DUP1 ISZERO PUSH2 0x13DC JUMPI RETURNDATASIZE PUSH1 0x0 DUP1 RETURNDATACOPY RETURNDATASIZE PUSH1 0x0 REVERT JUMPDEST POP POP POP PUSH1 0x60 DUP3 ADD MLOAD DUP3 MLOAD PUSH1 0x0 SWAP1 DUP2 MSTORE PUSH1 0x20 DUP2 DUP2 MSTORE PUSH1 0x40 DUP1 DUP4 KECCAK256 DUP3 DUP8 ADD MLOAD PUSH1 0x1 PUSH1 0x1 PUSH1 0x40 SHL SUB SWAP1 DUP2 AND DUP6 MSTORE SWAP3 MSTORE DUP3 KECCAK256 DUP1 SLOAD SWAP4 SWAP5 POP SWAP3 PUSH2 0x141C SWAP2 DUP6 SWAP2 AND PUSH2 0x2732 JUMP JUMPDEST DUP3 SLOAD PUSH2 0x100 SWAP3 SWAP1 SWAP3 EXP PUSH1 0x1 PUSH1 0x1 PUSH1 0x40 SHL SUB DUP2 DUP2 MUL NOT SWAP1 SWAP4 AND SWAP2 DUP4 AND MUL OR SWAP1 SWAP2 SSTORE PUSH1 0x80 DUP4 ADD MLOAD DUP4 MLOAD PUSH1 0x0 SWAP1 DUP2 MSTORE PUSH1 0x20 DUP2 DUP2 MSTORE PUSH1 0x40 DUP1 DUP4 KECCAK256 DUP2 DUP9 ADD MLOAD DUP7 AND DUP5 MSTORE SWAP1 SWAP2 MSTORE DUP2 KECCAK256 DUP1 SLOAD SWAP3 SWAP5 POP SWAP3 SWAP1 SWAP2 PUSH2 0x1473 SWAP2 DUP6 SWAP2 AND PUSH2 0x27E5 JUMP JUMPDEST SWAP3 POP PUSH2 0x100 EXP DUP2 SLOAD DUP2 PUSH1 0x1 PUSH1 0x1 PUSH1 0x40 SHL SUB MUL NOT AND SWAP1 DUP4 PUSH1 0x1 PUSH1 0x1 PUSH1 0x40 SHL SUB AND MUL OR SWAP1 SSTORE POP DUP1 PUSH1 0x0 ADD MLOAD PUSH32 0x8F3DBA1073F4B750E9392983CBBDD0D9B7E8380008BDDA0E7683E3C3AA5C5189 TIMESTAMP PUSH1 0x40 MLOAD PUSH2 0x14CD SWAP2 DUP2 MSTORE PUSH1 0x20 ADD SWAP1 JUMP JUMPDEST PUSH1 0x40 MLOAD DUP1 SWAP2 SUB SWAP1 LOG2 POP POP POP POP POP JUMP JUMPDEST PUSH1 0x0 DUP8 DUP2 MSTORE PUSH1 0x1 PUSH1 0x20 MSTORE PUSH1 0x40 SWAP1 KECCAK256 SLOAD PUSH1 0xFF AND ISZERO PUSH2 0x1535 JUMPI PUSH1 0x40 MLOAD PUSH3 0x461BCD PUSH1 0xE5 SHL DUP2 MSTORE PUSH1 0x20 PUSH1 0x4 DUP3 ADD MSTORE PUSH1 0x17 PUSH1 0x24 DUP3 ADD MSTORE PUSH23 0x10DBDB5B5A5D1B595B9D08185B1C9958591E481D5CD959 PUSH1 0x4A SHL PUSH1 0x44 DUP3 ADD MSTORE PUSH1 0x64 ADD PUSH2 0x400 JUMP JUMPDEST PUSH1 0x40 MLOAD PUSH4 0xB0AC0AB PUSH1 0xE0 SHL DUP2 MSTORE PUSH20 0x3333333333333333333333333333333333333333 SWAP1 PUSH4 0xB0AC0AB SWAP1 PUSH2 0x1570 SWAP1 ADDRESS SWAP1 DUP11 SWAP1 DUP11 SWAP1 PUSH1 0x4 ADD PUSH2 0x2512 JUMP JUMPDEST PUSH1 0x0 PUSH1 0x40 MLOAD DUP1 DUP4 SUB DUP2 PUSH1 0x0 DUP8 DUP1 EXTCODESIZE ISZERO DUP1 ISZERO PUSH2 0x158A JUMPI PUSH1 0x0 DUP1 REVERT JUMPDEST POP GAS CALL ISZERO DUP1 ISZERO PUSH2 0x159E JUMPI RETURNDATASIZE PUSH1 0x0 DUP1 RETURNDATACOPY RETURNDATASIZE PUSH1 0x0 REVERT JUMPDEST POP POP POP PUSH1 0x0 DUP9 DUP2 MSTORE PUSH1 0x1 PUSH1 0x20 DUP2 DUP2 MSTORE PUSH1 0x40 DUP1 DUP5 KECCAK256 DUP1 SLOAD PUSH1 0xFF NOT AND SWAP1 SWAP4 OR SWAP1 SWAP3 SSTORE DUP3 DUP2 MSTORE DUP2 DUP4 KECCAK256 PUSH1 0x1 PUSH1 0x1 PUSH1 0x40 SHL SUB DUP1 DUP13 AND DUP6 MSTORE SWAP2 MSTORE SWAP1 DUP3 KECCAK256 DUP1 SLOAD DUP10 SWAP5 POP SWAP1 SWAP3 SWAP2 PUSH2 0x15EA SWAP2 DUP6 SWAP2 AND PUSH2 0x27E5 JUMP JUMPDEST DUP3 SLOAD PUSH1 0x1 PUSH1 0x1 PUSH1 0x40 SHL SUB SWAP2 DUP3 AND PUSH2 0x100 SWAP4 SWAP1 SWAP4 EXP SWAP3 DUP4 MUL SWAP2 SWAP1 SWAP3 MUL NOT SWAP1 SWAP2 AND OR SWAP1 SSTORE POP PUSH1 0x0 DUP8 DUP2 MSTORE PUSH1 0x20 DUP2 SWAP1 MSTORE PUSH1 0x40 DUP2 KECCAK256 PUSH1 0x2 ADD DUP1 SLOAD PUSH1 0xFF NOT AND PUSH1 0x1 SWAP1 DUP2 OR SWAP1 SWAP2 SSTORE PUSH1 0x4 DUP1 SLOAD DUP1 DUP4 ADD DUP3 SSTORE SWAP3 DUP2 SWAP1 MSTORE PUSH32 0x8A35ACFBC15FF81A39AE7D344FD709F28E8600B4AA8C65C6B64BFE7FE36BD19B SWAP1 SWAP3 ADD DUP10 SWAP1 SSTORE SWAP1 SLOAD PUSH2 0x166C SWAP2 SWAP1 PUSH2 0x2805 JUMP JUMPDEST PUSH1 0x0 DUP9 DUP2 MSTORE PUSH1 0x5 PUSH1 0x20 SWAP1 DUP2 MSTORE PUSH1 0x40 SWAP2 DUP3 SWAP1 KECCAK256 SWAP3 SWAP1 SWAP3 SSTORE MLOAD TIMESTAMP DUP2 MSTORE DUP9 SWAP2 PUSH32 0x2D0BEB141922199E99106AA1E9E523ADD96E905BAF9299BFB1042ACD145BF5C SWAP2 ADD PUSH1 0x40 MLOAD DUP1 SWAP2 SUB SWAP1 LOG2 POP POP POP POP POP POP POP JUMP JUMPDEST PUSH1 0x0 DUP6 DUP2 MSTORE PUSH1 0x1 PUSH1 0x20 MSTORE PUSH1 0x40 SWAP1 KECCAK256 SLOAD PUSH1 0xFF AND ISZERO PUSH2 0x1715 JUMPI PUSH1 0x40 MLOAD PUSH3 0x461BCD PUSH1 0xE5 SHL DUP2 MSTORE PUSH1 0x20 PUSH1 0x4 DUP3 ADD MSTORE PUSH1 0x17 PUSH1 0x24 DUP3 ADD MSTORE PUSH23 0x10DBDB5B5A5D1B595B9D08185B1C9958591E481D5CD959 PUSH1 0x4A SHL PUSH1 0x44 DUP3 ADD MSTORE PUSH1 0x64 ADD PUSH2 0x400 JUMP JUMPDEST CALLER PUSH1 0x0 SWAP1 DUP2 MSTORE PUSH1 0x6 PUSH1 0x20 SWAP1 DUP2 MSTORE PUSH1 0x40 SWAP2 DUP3 SWAP1 KECCAK256 DUP3 MLOAD PUSH1 0xA0 DUP2 ADD DUP5 MSTORE DUP2 SLOAD PUSH1 0x1 PUSH1 0x1 PUSH1 0x40 SHL SUB DUP1 DUP3 AND DUP4 MSTORE PUSH1 0x1 PUSH1 0x40 SHL DUP3 DIV DUP2 AND SWAP5 DUP4 ADD DUP6 SWAP1 MSTORE PUSH1 0x1 PUSH1 0x80 SHL SWAP1 SWAP2 DIV AND SWAP4 DUP2 ADD SWAP4 SWAP1 SWAP4 MSTORE PUSH1 0x1 DUP2 ADD SLOAD PUSH1 0x60 DUP5 ADD MSTORE PUSH1 0x2 ADD SLOAD PUSH1 0xFF AND ISZERO ISZERO PUSH1 0x80 DUP4 ADD MSTORE PUSH2 0x17B7 JUMPI PUSH1 0x40 MLOAD PUSH3 0x461BCD PUSH1 0xE5 SHL DUP2 MSTORE PUSH1 0x20 PUSH1 0x4 DUP3 ADD MSTORE PUSH1 0x12 PUSH1 0x24 DUP3 ADD MSTORE PUSH18 0x139BC81C195B991A5B99C819195C1BDCDA5D PUSH1 0x72 SHL PUSH1 0x44 DUP3 ADD MSTORE PUSH1 0x64 ADD PUSH2 0x400 JUMP JUMPDEST DUP1 PUSH1 0x80 ADD MLOAD ISZERO PUSH2 0x1809 JUMPI PUSH1 0x40 MLOAD PUSH3 0x461BCD PUSH1 0xE5 SHL DUP2 MSTORE PUSH1 0x20 PUSH1 0x4 DUP3 ADD MSTORE PUSH1 0x19 PUSH1 0x24 DUP3 ADD MSTORE PUSH32 0x4465706F73697420616C726561647920636F6D706C6574656400000000000000 PUSH1 0x44 DUP3 ADD MSTORE PUSH1 0x64 ADD PUSH2 0x400 JUMP JUMPDEST PUSH1 0x60 DUP2 ADD MLOAD PUSH2 0x181A SWAP1 PUSH2 0xE10 PUSH2 0x271F JUMP JUMPDEST TIMESTAMP GT ISZERO PUSH2 0x185B JUMPI PUSH1 0x40 MLOAD PUSH3 0x461BCD PUSH1 0xE5 SHL DUP2 MSTORE PUSH1 0x20 PUSH1 0x4 DUP3 ADD MSTORE PUSH1 0xF PUSH1 0x24 DUP3 ADD MSTORE PUSH15 0x11195C1BDCDA5D08195E1C1A5C9959 PUSH1 0x8A SHL PUSH1 0x44 DUP3 ADD MSTORE PUSH1 0x64 ADD PUSH2 0x400 JUMP JUMPDEST PUSH1 0x0 PUSH2 0x186B ADDRESS DUP4 PUSH1 0x0 ADD MLOAD PUSH2 0x1F3C JUMP JUMPDEST SWAP1 POP PUSH1 0x0 DUP3 PUSH1 0x40 ADD MLOAD DUP3 PUSH2 0x187F SWAP2 SWAP1 PUSH2 0x2732 JUMP JUMPDEST SWAP1 POP DUP3 PUSH1 0x20 ADD MLOAD PUSH1 0x1 PUSH1 0x1 PUSH1 0x40 SHL SUB AND DUP2 PUSH1 0x1 PUSH1 0x1 PUSH1 0x40 SHL SUB AND LT ISZERO PUSH2 0x18E0 JUMPI PUSH1 0x40 MLOAD PUSH3 0x461BCD PUSH1 0xE5 SHL DUP2 MSTORE PUSH1 0x20 PUSH1 0x4 DUP3 ADD MSTORE PUSH1 0x16 PUSH1 0x24 DUP3 ADD MSTORE PUSH22 0x151BDAD95B9CC81B9BDD081D1C985B9CD9995C9C9959 PUSH1 0x52 SHL PUSH1 0x44 DUP3 ADD MSTORE PUSH1 0x64 ADD PUSH2 0x400 JUMP JUMPDEST PUSH1 0x0 PUSH2 0x18EE DUP6 DUP8 ADD DUP8 PUSH2 0x2818 JUMP JUMPDEST DUP1 MLOAD SWAP1 SWAP2 POP DUP10 EQ PUSH2 0x1937 JUMPI PUSH1 0x40 MLOAD PUSH3 0x461BCD PUSH1 0xE5 SHL DUP2 MSTORE PUSH1 0x20 PUSH1 0x4 DUP3 ADD MSTORE PUSH1 0x13 PUSH1 0x24 DUP3 ADD MSTORE PUSH19 0x86DEDADAD2E8DACADCE840DAD2E6DAC2E8C6D PUSH1 0x6B SHL PUSH1 0x44 DUP3 ADD MSTORE PUSH1 0x64 ADD PUSH2 0x400 JUMP JUMPDEST PUSH1 0x3 SLOAD PUSH1 0x20 DUP3 ADD MLOAD PUSH1 0x1 PUSH1 0x1 PUSH1 0xA0 SHL SUB SWAP1 DUP2 AND SWAP2 AND EQ PUSH2 0x198D JUMPI PUSH1 0x40 MLOAD PUSH3 0x461BCD PUSH1 0xE5 SHL DUP2 MSTORE PUSH1 0x20 PUSH1 0x4 DUP3 ADD MSTORE PUSH1 0x11 PUSH1 0x24 DUP3 ADD MSTORE PUSH17 0x496E76616C696420617574686F72697479 PUSH1 0x78 SHL PUSH1 0x44 DUP3 ADD MSTORE PUSH1 0x64 ADD PUSH2 0x400 JUMP JUMPDEST TIMESTAMP DUP2 PUSH1 0x40 ADD MLOAD LT ISZERO PUSH2 0x19D7 JUMPI PUSH1 0x40 MLOAD PUSH3 0x461BCD PUSH1 0xE5 SHL DUP2 MSTORE PUSH1 0x20 PUSH1 0x4 DUP3 ADD MSTORE PUSH1 0x13 PUSH1 0x24 DUP3 ADD MSTORE PUSH19 0x10D95C9D1A599A58D85D1948195E1C1A5C9959 PUSH1 0x6A SHL PUSH1 0x44 DUP3 ADD MSTORE PUSH1 0x64 ADD PUSH2 0x400 JUMP JUMPDEST PUSH1 0x40 MLOAD PUSH4 0x20A49E3 PUSH1 0xE5 SHL DUP2 MSTORE PUSH1 0x1 PUSH1 0x1 PUSH1 0xA0 SHL SUB PUSH32 0x0 AND SWAP1 PUSH4 0x41493C60 SWAP1 PUSH2 0x1A4A SWAP1 PUSH31 0xED1611619B8F2866DE7BE17D81A9D42A869B4C5959629708F125AE34A2F9EE SWAP1 DUP11 SWAP1 DUP11 SWAP1 DUP15 SWAP1 DUP15 SWAP1 PUSH1 0x4 ADD PUSH2 0x25E7 JUMP JUMPDEST PUSH1 0x0 PUSH1 0x40 MLOAD DUP1 DUP4 SUB DUP2 DUP7 DUP1 EXTCODESIZE ISZERO DUP1 ISZERO PUSH2 0x1A62 JUMPI PUSH1 0x0 DUP1 REVERT JUMPDEST POP GAS STATICCALL ISZERO DUP1 ISZERO PUSH2 0x1A76 JUMPI RETURNDATASIZE PUSH1 0x0 DUP1 RETURNDATACOPY RETURNDATASIZE PUSH1 0x0 REVERT JUMPDEST POP POP CALLER PUSH1 0x0 SWAP1 DUP2 MSTORE PUSH1 0x6 PUSH1 0x20 SWAP1 DUP2 MSTORE PUSH1 0x40 DUP1 DUP4 KECCAK256 PUSH1 0x2 ADD DUP1 SLOAD PUSH1 0x1 PUSH1 0xFF NOT SWAP2 DUP3 AND DUP2 OR SWAP1 SWAP3 SSTORE DUP16 DUP6 MSTORE DUP2 DUP5 MSTORE DUP3 DUP6 KECCAK256 DUP1 SLOAD SWAP1 SWAP2 AND SWAP1 SWAP2 OR SWAP1 SSTORE DUP9 DUP3 ADD MLOAD DUP4 DUP4 MSTORE DUP2 DUP5 KECCAK256 DUP11 MLOAD PUSH1 0x1 PUSH1 0x1 PUSH1 0x40 SHL SUB SWAP1 DUP2 AND DUP7 MSTORE SWAP4 MSTORE SWAP1 DUP4 KECCAK256 DUP1 SLOAD SWAP2 SWAP6 POP SWAP4 POP PUSH2 0x1AE0 SWAP2 DUP6 SWAP2 AND PUSH2 0x27E5 JUMP JUMPDEST DUP3 SLOAD PUSH1 0x1 PUSH1 0x1 PUSH1 0x40 SHL SUB SWAP2 DUP3 AND PUSH2 0x100 SWAP4 SWAP1 SWAP4 EXP SWAP3 DUP4 MUL SWAP2 SWAP1 SWAP3 MUL NOT SWAP1 SWAP2 AND OR SWAP1 SSTORE POP PUSH1 0x0 DUP10 DUP2 MSTORE PUSH1 0x20 DUP2 SWAP1 MSTORE PUSH1 0x40 DUP2 KECCAK256 PUSH1 0x2 ADD DUP1 SLOAD PUSH1 0xFF NOT AND PUSH1 0x1 SWAP1 DUP2 OR SWAP1 SWAP2 SSTORE PUSH1 0x4 DUP1 SLOAD DUP1 DUP4 ADD DUP3 SSTORE SWAP3 DUP2 SWAP1 MSTORE PUSH32 0x8A35ACFBC15FF81A39AE7D344FD709F28E8600B4AA8C65C6B64BFE7FE36BD19B SWAP1 SWAP3 ADD DUP12 SWAP1 SSTORE SWAP1 SLOAD PUSH2 0x1B62 SWAP2 SWAP1 PUSH2 0x2805 JUMP JUMPDEST PUSH1 0x0 DUP11 DUP2 MSTORE PUSH1 0x5 PUSH1 0x20 SWAP1 DUP2 MSTORE PUSH1 0x40 SWAP2 DUP3 SWAP1 KECCAK256 SWAP3 SWAP1 SWAP3 SSTORE MLOAD TIMESTAMP DUP2 MSTORE DUP11 SWAP2 PUSH32 0x2D0BEB141922199E99106AA1E9E523ADD96E905BAF9299BFB1042ACD145BF5C SWAP2 ADD JUMPDEST PUSH1 0x40 MLOAD DUP1 SWAP2 SUB SWAP1 LOG2 POP POP POP POP POP POP POP POP POP JUMP JUMPDEST PUSH1 0x4 DUP2 DUP2 SLOAD DUP2 LT PUSH2 0x1BC5 JUMPI PUSH1 0x0 DUP1 REVERT JUMPDEST PUSH1 0x0 SWAP2 DUP3 MSTORE PUSH1 0x20 SWAP1 SWAP2 KECCAK256 ADD SLOAD SWAP1 POP DUP2 JUMP JUMPDEST PUSH1 0x0 DUP9 DUP2 MSTORE PUSH1 0x2 PUSH1 0x20 MSTORE PUSH1 0x40 SWAP1 KECCAK256 SLOAD PUSH1 0xFF AND ISZERO PUSH2 0x1C2E JUMPI PUSH1 0x40 MLOAD PUSH3 0x461BCD PUSH1 0xE5 SHL DUP2 MSTORE PUSH1 0x20 PUSH1 0x4 DUP3 ADD MSTORE PUSH1 0x16 PUSH1 0x24 DUP3 ADD MSTORE PUSH22 0x139D5B1B1A599A595C88185B1C9958591E481D5CD959 PUSH1 0x52 SHL PUSH1 0x44 DUP3 ADD MSTORE PUSH1 0x64 ADD PUSH2 0x400 JUMP JUMPDEST PUSH1 0x0 PUSH2 0x1C3C DUP3 DUP5 ADD DUP5 PUSH2 0x2572 JUMP JUMPDEST SWAP1 POP PUSH2 0x1C46 PUSH2 0xBA5 JUMP JUMPDEST DUP2 PUSH1 0x20 ADD MLOAD EQ PUSH2 0x1C8E JUMPI PUSH1 0x40 MLOAD PUSH3 0x461BCD PUSH1 0xE5 SHL DUP2 MSTORE PUSH1 0x20 PUSH1 0x4 DUP3 ADD MSTORE PUSH1 0x13 PUSH1 0x24 DUP3 ADD MSTORE PUSH19 0x125B9D985B1A59081B595C9ADB19481C9BDBDD PUSH1 0x6A SHL PUSH1 0x44 DUP3 ADD MSTORE PUSH1 0x64 ADD PUSH2 0x400 JUMP JUMPDEST DUP6 PUSH1 0x1 PUSH1 0x1 PUSH1 0x40 SHL SUB AND DUP2 PUSH1 0x40 ADD MLOAD LT ISZERO PUSH2 0x1CEB JUMPI PUSH1 0x40 MLOAD PUSH3 0x461BCD PUSH1 0xE5 SHL DUP2 MSTORE PUSH1 0x20 PUSH1 0x4 DUP3 ADD MSTORE PUSH1 0x1B PUSH1 0x24 DUP3 ADD MSTORE PUSH32 0x496E73756666696369656E742070726F76656E2062616C616E63650000000000 PUSH1 0x44 DUP3 ADD MSTORE PUSH1 0x64 ADD PUSH2 0x400 JUMP JUMPDEST DUP7 PUSH1 0x1 PUSH1 0x1 PUSH1 0x40 SHL SUB AND DUP2 PUSH1 0x60 ADD MLOAD PUSH1 0x1 PUSH1 0x1 PUSH1 0x40 SHL SUB AND EQ PUSH2 0x1D41 JUMPI PUSH1 0x40 MLOAD PUSH3 0x461BCD PUSH1 0xE5 SHL DUP2 MSTORE PUSH1 0x20 PUSH1 0x4 DUP3 ADD MSTORE PUSH1 0xE PUSH1 0x24 DUP3 ADD MSTORE PUSH14 0x82E6E6CAE840DAD2E6DAC2E8C6D PUSH1 0x93 SHL PUSH1 0x44 DUP3 ADD MSTORE PUSH1 0x64 ADD PUSH2 0x400 JUMP JUMPDEST PUSH1 0x40 MLOAD PUSH4 0x20A49E3 PUSH1 0xE5 SHL DUP2 MSTORE PUSH1 0x1 PUSH1 0x1 PUSH1 0xA0 SHL SUB PUSH32 0x0 AND SWAP1 PUSH4 0x41493C60 SWAP1 PUSH2 0x1DB4 SWAP1 PUSH31 0x9C22B4F95FB710070DC80CFCE7526C4CC7780834AB328BD769FF58934E6D05 SWAP1 DUP8 SWAP1 DUP8 SWAP1 DUP12 SWAP1 DUP12 SWAP1 PUSH1 0x4 ADD PUSH2 0x25E7 JUMP JUMPDEST PUSH1 0x0 PUSH1 0x40 MLOAD DUP1 DUP4 SUB DUP2 DUP7 DUP1 EXTCODESIZE ISZERO DUP1 ISZERO PUSH2 0x1DCC JUMPI PUSH1 0x0 DUP1 REVERT JUMPDEST POP GAS STATICCALL ISZERO DUP1 ISZERO PUSH2 0x1DE0 JUMPI RETURNDATASIZE PUSH1 0x0 DUP1 RETURNDATACOPY RETURNDATASIZE PUSH1 0x0 REVERT JUMPDEST POP POP POP PUSH1 0x0 DUP11 DUP2 MSTORE PUSH1 0x2 PUSH1 0x20 MSTORE PUSH1 0x40 SWAP1 DUP2 SWAP1 KECCAK256 DUP1 SLOAD PUSH1 0xFF NOT AND PUSH1 0x1 OR SWAP1 SSTORE MLOAD PUSH4 0xB0AC0AB PUSH1 0xE0 SHL DUP2 MSTORE PUSH20 0x3333333333333333333333333333333333333333 SWAP2 POP PUSH4 0xB0AC0AB SWAP1 PUSH2 0x1E38 SWAP1 DUP12 SWAP1 DUP12 SWAP1 DUP12 SWAP1 PUSH1 0x4 ADD PUSH2 0x2512 JUMP JUMPDEST PUSH1 0x0 PUSH1 0x40 MLOAD DUP1 DUP4 SUB DUP2 PUSH1 0x0 DUP8 DUP1 EXTCODESIZE ISZERO DUP1 ISZERO PUSH2 0x1E52 JUMPI PUSH1 0x0 DUP1 REVERT JUMPDEST POP GAS CALL ISZERO DUP1 ISZERO PUSH2 0x1E66 JUMPI RETURNDATASIZE PUSH1 0x0 DUP1 RETURNDATACOPY RETURNDATASIZE PUSH1 0x0 REVERT JUMPDEST POP POP POP POP DUP9 PUSH32 0xCC9580996E4C53AC7E73439F181E208AB15831EA2D2429DD12EE742C1C475B6F TIMESTAMP PUSH1 0x40 MLOAD PUSH2 0x1BA2 SWAP2 DUP2 MSTORE PUSH1 0x20 ADD SWAP1 JUMP JUMPDEST PUSH1 0x3 SLOAD PUSH1 0x1 PUSH1 0x1 PUSH1 0xA0 SHL SUB AND CALLER EQ PUSH2 0x1EF2 JUMPI PUSH1 0x40 MLOAD PUSH3 0x461BCD PUSH1 0xE5 SHL DUP2 MSTORE PUSH1 0x20 PUSH1 0x4 DUP3 ADD MSTORE PUSH1 0x19 PUSH1 0x24 DUP3 ADD MSTORE PUSH25 0x4F6E6C7920636F6D706C69616E636520617574686F72697479 PUSH1 0x38 SHL PUSH1 0x44 DUP3 ADD MSTORE PUSH1 0x64 ADD PUSH2 0x400 JUMP JUMPDEST PUSH1 0x3 DUP1 SLOAD PUSH1 0x1 PUSH1 0x1 PUSH1 0xA0 SHL SUB NOT AND PUSH1 0x1 PUSH1 0x1 PUSH1 0xA0 SHL SUB DUP4 AND SWAP1 DUP2 OR SWAP1 SWAP2 SSTORE PUSH1 0x40 MLOAD PUSH32 0x829C4EF70A1FB0EDB9DAA0DB5C77D61190E746DB94BCE7DC78FEE99D04FB4099 SWAP1 PUSH1 0x0 SWAP1 LOG2 POP JUMP JUMPDEST PUSH1 0x40 DUP1 MLOAD PUSH1 0x1 PUSH1 0x1 PUSH1 0xA0 SHL SUB DUP5 AND PUSH1 0x20 DUP3 ADD MSTORE PUSH1 0x1 PUSH1 0x1 PUSH1 0x40 SHL SUB DUP4 AND DUP2 DUP4 ADD MSTORE DUP2 MLOAD DUP1 DUP3 SUB DUP4 ADD DUP2 MSTORE PUSH1 0x60 SWAP1 SWAP2 ADD SWAP2 DUP3 SWAP1 MSTORE PUSH1 0x0 SWAP2 DUP3 SWAP1 DUP2 SWAP1 PUSH2 0x801 SWAP1 PUSH2 0x1F85 SWAP1 DUP6 SWAP1 PUSH2 0x2865 JUMP JUMPDEST PUSH1 0x0 PUSH1 0x40 MLOAD DUP1 DUP4 SUB DUP2 DUP6 GAS STATICCALL SWAP2 POP POP RETURNDATASIZE DUP1 PUSH1 0x0 DUP2 EQ PUSH2 0x1FC0 JUMPI PUSH1 0x40 MLOAD SWAP2 POP PUSH1 0x1F NOT PUSH1 0x3F RETURNDATASIZE ADD AND DUP3 ADD PUSH1 0x40 MSTORE RETURNDATASIZE DUP3 MSTORE RETURNDATASIZE PUSH1 0x0 PUSH1 0x20 DUP5 ADD RETURNDATACOPY PUSH2 0x1FC5 JUMP JUMPDEST PUSH1 0x60 SWAP2 POP JUMPDEST POP SWAP2 POP SWAP2 POP DUP2 PUSH2 0x1FDB JUMPI PUSH1 0x0 SWAP4 POP POP POP POP PUSH2 0x1FF9 JUMP JUMPDEST PUSH1 0x0 DUP2 DUP1 PUSH1 0x20 ADD SWAP1 MLOAD DUP2 ADD SWAP1 PUSH2 0x1FF1 SWAP2 SWAP1 PUSH2 0x2894 JUMP JUMPDEST MLOAD SWAP5 POP POP POP POP POP JUMPDEST SWAP3 SWAP2 POP POP JUMP JUMPDEST PUSH1 0x0 PUSH1 0x20 DUP3 DUP5 SUB SLT ISZERO PUSH2 0x2011 JUMPI PUSH1 0x0 DUP1 REVERT JUMPDEST POP CALLDATALOAD SWAP2 SWAP1 POP JUMP JUMPDEST PUSH1 0x1 PUSH1 0x1 PUSH1 0x40 SHL SUB DUP2 AND DUP2 EQ PUSH2 0x202D JUMPI PUSH1 0x0 DUP1 REVERT JUMPDEST POP JUMP JUMPDEST DUP1 CALLDATALOAD PUSH2 0x203B DUP2 PUSH2 0x2018 JUMP JUMPDEST SWAP2 SWAP1 POP JUMP JUMPDEST DUP1 CALLDATALOAD PUSH1 0x1 PUSH1 0x1 PUSH1 0xA0 SHL SUB DUP2 AND DUP2 EQ PUSH2 0x203B JUMPI PUSH1 0x0 DUP1 REVERT JUMPDEST PUSH1 0x0 DUP1 PUSH1 0x0 PUSH1 0x60 DUP5 DUP7 SUB SLT ISZERO PUSH2 0x206C JUMPI PUSH1 0x0 DUP1 REVERT JUMPDEST DUP4 CALLDATALOAD PUSH2 0x2077 DUP2 PUSH2 0x2018 JUMP JUMPDEST SWAP3 POP PUSH1 0x20 DUP5 ADD CALLDATALOAD PUSH2 0x2087 DUP2 PUSH2 0x2018 JUMP JUMPDEST SWAP2 POP PUSH2 0x2095 PUSH1 0x40 DUP6 ADD PUSH2 0x2040 JUMP JUMPDEST SWAP1 POP SWAP3 POP SWAP3 POP SWAP3 JUMP JUMPDEST PUSH1 0x0 DUP1 DUP4 PUSH1 0x1F DUP5 ADD SLT PUSH2 0x20B0 JUMPI PUSH1 0x0 DUP1 REVERT JUMPDEST POP DUP2 CALLDATALOAD PUSH1 0x1 PUSH1 0x1 PUSH1 0x40 SHL SUB DUP2 GT ISZERO PUSH2 0x20C7 JUMPI PUSH1 0x0 DUP1 REVERT JUMPDEST PUSH1 0x20 DUP4 ADD SWAP2 POP DUP4 PUSH1 0x20 DUP3 DUP6 ADD ADD GT ISZERO PUSH2 0x20DF JUMPI PUSH1 0x0 DUP1 REVERT JUMPDEST SWAP3 POP SWAP3 SWAP1 POP JUMP JUMPDEST DUP1 CALLDATALOAD DUP1 ISZERO ISZERO DUP2 EQ PUSH2 0x203B JUMPI PUSH1 0x0 DUP1 REVERT JUMPDEST PUSH1 0x0 DUP1 PUSH1 0x0 DUP1 PUSH1 0x0 DUP1 PUSH1 0x0 DUP1 PUSH1 0x0 PUSH1 0xE0 DUP11 DUP13 SUB SLT ISZERO PUSH2 0x2114 JUMPI PUSH1 0x0 DUP1 REVERT JUMPDEST DUP10 CALLDATALOAD SWAP9 POP PUSH2 0x2124 PUSH1 0x20 DUP12 ADD PUSH2 0x2040 JUMP JUMPDEST SWAP8 POP PUSH1 0x40 DUP11 ADD CALLDATALOAD PUSH2 0x2134 DUP2 PUSH2 0x2018 JUMP JUMPDEST SWAP7 POP PUSH1 0x60 DUP11 ADD CALLDATALOAD PUSH2 0x2144 DUP2 PUSH2 0x2018 JUMP JUMPDEST SWAP6 POP PUSH1 0x80 DUP11 ADD CALLDATALOAD PUSH1 0x1 PUSH1 0x1 PUSH1 0x40 SHL SUB DUP1 DUP3 GT ISZERO PUSH2 0x2160 JUMPI PUSH1 0x0 DUP1 REVERT JUMPDEST PUSH2 0x216C DUP14 DUP4 DUP15 ADD PUSH2 0x209E JUMP JUMPDEST SWAP1 SWAP8 POP SWAP6 POP PUSH1 0xA0 DUP13 ADD CALLDATALOAD SWAP2 POP DUP1 DUP3 GT ISZERO PUSH2 0x2185 JUMPI PUSH1 0x0 DUP1 REVERT JUMPDEST POP PUSH2 0x2192 DUP13 DUP3 DUP14 ADD PUSH2 0x209E JUMP JUMPDEST SWAP1 SWAP5 POP SWAP3 POP PUSH2 0x21A5 SWAP1 POP PUSH1 0xC0 DUP12 ADD PUSH2 0x20E6 JUMP JUMPDEST SWAP1 POP SWAP3 SWAP6 SWAP9 POP SWAP3 SWAP6 SWAP9 POP SWAP3 SWAP6 SWAP9 JUMP JUMPDEST PUSH1 0x0 DUP1 PUSH1 0x40 DUP4 DUP6 SUB SLT ISZERO PUSH2 0x21C7 JUMPI PUSH1 0x0 DUP1 REVERT JUMPDEST DUP3 CALLDATALOAD PUSH2 0x21D2 DUP2 PUSH2 0x2018 JUMP JUMPDEST SWAP2 POP PUSH1 0x20 DUP4 ADD CALLDATALOAD PUSH2 0x21E2 DUP2 PUSH2 0x2018 JUMP JUMPDEST DUP1 SWAP2 POP POP SWAP3 POP SWAP3 SWAP1 POP JUMP JUMPDEST PUSH1 0x0 DUP1 PUSH1 0x0 DUP1 PUSH1 0x0 DUP1 PUSH1 0x0 DUP1 PUSH1 0x0 PUSH1 0xE0 DUP11 DUP13 SUB SLT ISZERO PUSH2 0x220B JUMPI PUSH1 0x0 DUP1 REVERT JUMPDEST DUP10 CALLDATALOAD SWAP9 POP PUSH1 0x20 DUP11 ADD CALLDATALOAD PUSH1 0x1 PUSH1 0x1 PUSH1 0x40 SHL SUB DUP1 DUP3 GT ISZERO PUSH2 0x2229 JUMPI PUSH1 0x0 DUP1 REVERT JUMPDEST PUSH2 0x2235 DUP14 DUP4 DUP15 ADD PUSH2 0x209E JUMP JUMPDEST SWAP1 SWAP11 POP SWAP9 POP PUSH1 0x40 DUP13 ADD CALLDATALOAD SWAP2 POP DUP1 DUP3 GT ISZERO PUSH2 0x224E JUMPI PUSH1 0x0 DUP1 REVERT JUMPDEST POP PUSH2 0x225B DUP13 DUP3 DUP14 ADD PUSH2 0x209E JUMP JUMPDEST SWAP1 SWAP8 POP SWAP6 POP POP PUSH1 0x60 DUP11 ADD CALLDATALOAD PUSH4 0xFFFFFFFF DUP2 AND DUP2 EQ PUSH2 0x2278 JUMPI PUSH1 0x0 DUP1 REVERT JUMPDEST SWAP4 POP PUSH2 0x2286 PUSH1 0x80 DUP12 ADD PUSH2 0x20E6 JUMP JUMPDEST SWAP3 POP PUSH1 0xA0 DUP11 ADD CALLDATALOAD PUSH2 0x2296 DUP2 PUSH2 0x2018 JUMP JUMPDEST SWAP2 POP PUSH2 0x21A5 PUSH1 0xC0 DUP12 ADD PUSH2 0x2030 JUMP JUMPDEST PUSH1 0x0 PUSH1 0x20 DUP3 DUP5 SUB SLT ISZERO PUSH2 0x22B6 JUMPI PUSH1 0x0 DUP1 REVERT JUMPDEST PUSH2 0x22BF DUP3 PUSH2 0x2040 JUMP JUMPDEST SWAP4 SWAP3 POP POP POP JUMP JUMPDEST PUSH1 0x0 DUP1 PUSH1 0x0 DUP1 PUSH1 0x40 DUP6 DUP8 SUB SLT ISZERO PUSH2 0x22DC JUMPI PUSH1 0x0 DUP1 REVERT JUMPDEST DUP5 CALLDATALOAD PUSH1 0x1 PUSH1 0x1 PUSH1 0x40 SHL SUB DUP1 DUP3 GT ISZERO PUSH2 0x22F3 JUMPI PUSH1 0x0 DUP1 REVERT JUMPDEST PUSH2 0x22FF DUP9 DUP4 DUP10 ADD PUSH2 0x209E JUMP JUMPDEST SWAP1 SWAP7 POP SWAP5 POP PUSH1 0x20 DUP8 ADD CALLDATALOAD SWAP2 POP DUP1 DUP3 GT ISZERO PUSH2 0x2318 JUMPI PUSH1 0x0 DUP1 REVERT JUMPDEST POP PUSH2 0x2325 DUP8 DUP3 DUP9 ADD PUSH2 0x209E JUMP JUMPDEST SWAP6 SWAP9 SWAP5 SWAP8 POP SWAP6 POP POP POP POP JUMP JUMPDEST PUSH1 0x0 DUP1 PUSH1 0x0 DUP1 PUSH1 0x0 DUP1 PUSH1 0x0 PUSH1 0xA0 DUP9 DUP11 SUB SLT ISZERO PUSH2 0x234C JUMPI PUSH1 0x0 DUP1 REVERT JUMPDEST DUP8 CALLDATALOAD SWAP7 POP PUSH1 0x20 DUP9 ADD CALLDATALOAD PUSH2 0x235E DUP2 PUSH2 0x2018 JUMP JUMPDEST SWAP6 POP PUSH1 0x40 DUP9 ADD CALLDATALOAD PUSH2 0x236E DUP2 PUSH2 0x2018 JUMP JUMPDEST SWAP5 POP PUSH1 0x60 DUP9 ADD CALLDATALOAD PUSH1 0x1 PUSH1 0x1 PUSH1 0x40 SHL SUB DUP1 DUP3 GT ISZERO PUSH2 0x238A JUMPI PUSH1 0x0 DUP1 REVERT JUMPDEST PUSH2 0x2396 DUP12 DUP4 DUP13 ADD PUSH2 0x209E JUMP JUMPDEST SWAP1 SWAP7 POP SWAP5 POP PUSH1 0x80 DUP11 ADD CALLDATALOAD SWAP2 POP DUP1 DUP3 GT ISZERO PUSH2 0x23AF JUMPI PUSH1 0x0 DUP1 REVERT JUMPDEST POP PUSH2 0x23BC DUP11 DUP3 DUP12 ADD PUSH2 0x209E JUMP JUMPDEST SWAP9 SWAP12 SWAP8 SWAP11 POP SWAP6 SWAP9 POP SWAP4 SWAP7 SWAP3 SWAP6 SWAP3 SWAP4 POP POP POP JUMP JUMPDEST PUSH1 0x0 DUP1 PUSH1 0x0 DUP1 PUSH1 0x0 PUSH1 0x60 DUP7 DUP9 SUB SLT ISZERO PUSH2 0x23E7 JUMPI PUSH1 0x0 DUP1 REVERT JUMPDEST DUP6 CALLDATALOAD SWAP5 POP PUSH1 0x20 DUP7 ADD CALLDATALOAD PUSH1 0x1 PUSH1 0x1 PUSH1 0x40 SHL SUB DUP1 DUP3 GT ISZERO PUSH2 0x2405 JUMPI PUSH1 0x0 DUP1 REVERT JUMPDEST PUSH2 0x2411 DUP10 DUP4 DUP11 ADD PUSH2 0x209E JUMP JUMPDEST SWAP1 SWAP7 POP SWAP5 POP PUSH1 0x40 DUP9 ADD CALLDATALOAD SWAP2 POP DUP1 DUP3 GT ISZERO PUSH2 0x242A JUMPI PUSH1 0x0 DUP1 REVERT JUMPDEST POP PUSH2 0x2437 DUP9 DUP3 DUP10 ADD PUSH2 0x209E JUMP JUMPDEST SWAP7 SWAP10 SWAP6 SWAP9 POP SWAP4 SWAP7 POP SWAP3 SWAP5 SWAP4 SWAP3 POP POP POP JUMP JUMPDEST PUSH1 0x0 DUP1 PUSH1 0x0 DUP1 PUSH1 0x0 DUP1 PUSH1 0x0 DUP1 PUSH1 0xC0 DUP10 DUP12 SUB SLT ISZERO PUSH2 0x2464 JUMPI PUSH1 0x0 DUP1 REVERT JUMPDEST DUP9 CALLDATALOAD SWAP8 POP PUSH2 0x2474 PUSH1 0x20 DUP11 ADD PUSH2 0x2040 JUMP JUMPDEST SWAP7 POP PUSH1 0x40 DUP10 ADD CALLDATALOAD PUSH2 0x2484 DUP2 PUSH2 0x2018 JUMP JUMPDEST SWAP6 POP PUSH1 0x60 DUP10 ADD CALLDATALOAD PUSH2 0x2494 DUP2 PUSH2 0x2018 JUMP JUMPDEST SWAP5 POP PUSH1 0x80 DUP10 ADD CALLDATALOAD PUSH1 0x1 PUSH1 0x1 PUSH1 0x40 SHL SUB DUP1 DUP3 GT ISZERO PUSH2 0x24B0 JUMPI PUSH1 0x0 DUP1 REVERT JUMPDEST PUSH2 0x24BC DUP13 DUP4 DUP14 ADD PUSH2 0x209E JUMP JUMPDEST SWAP1 SWAP7 POP SWAP5 POP PUSH1 0xA0 DUP12 ADD CALLDATALOAD SWAP2 POP DUP1 DUP3 GT ISZERO PUSH2 0x24D5 JUMPI PUSH1 0x0 DUP1 REVERT JUMPDEST POP PUSH2 0x24E2 DUP12 DUP3 DUP13 ADD PUSH2 0x209E JUMP JUMPDEST SWAP10 SWAP13 SWAP9 SWAP12 POP SWAP7 SWAP10 POP SWAP5 SWAP8 SWAP4 SWAP7 SWAP3 SWAP6 SWAP5 POP POP POP JUMP JUMPDEST PUSH1 0x0 DUP1 PUSH1 0x40 DUP4 DUP6 SUB SLT ISZERO PUSH2 0x2509 JUMPI PUSH1 0x0 DUP1 REVERT JUMPDEST PUSH2 0x21D2 DUP4 PUSH2 0x2040 JUMP JUMPDEST PUSH1 0x1 PUSH1 0x1 PUSH1 0xA0 SHL SUB SWAP4 SWAP1 SWAP4 AND DUP4 MSTORE PUSH1 0x1 PUSH1 0x1 PUSH1 0x40 SHL SUB SWAP2 DUP3 AND PUSH1 0x20 DUP5 ADD MSTORE AND PUSH1 0x40 DUP3 ADD MSTORE PUSH1 0x60 ADD SWAP1 JUMP JUMPDEST PUSH1 0x40 MLOAD PUSH1 0x80 DUP2 ADD PUSH1 0x1 PUSH1 0x1 PUSH1 0x40 SHL SUB DUP2 GT DUP3 DUP3 LT OR ISZERO PUSH2 0x256C JUMPI PUSH4 0x4E487B71 PUSH1 0xE0 SHL PUSH1 0x0 MSTORE PUSH1 0x41 PUSH1 0x4 MSTORE PUSH1 0x24 PUSH1 0x0 REVERT JUMPDEST PUSH1 0x40 MSTORE SWAP1 JUMP JUMPDEST PUSH1 0x0 PUSH1 0x80 DUP3 DUP5 SUB SLT ISZERO PUSH2 0x2584 JUMPI PUSH1 0x0 DUP1 REVERT JUMPDEST PUSH2 0x258C PUSH2 0x253C JUMP JUMPDEST DUP3 CALLDATALOAD DUP2 MSTORE PUSH1 0x20 DUP4 ADD CALLDATALOAD PUSH1 0x20 DUP3 ADD MSTORE PUSH1 0x40 DUP4 ADD CALLDATALOAD PUSH1 0x40 DUP3 ADD MSTORE PUSH1 0x60 DUP4 ADD CALLDATALOAD PUSH2 0x25B2 DUP2 PUSH2 0x2018 JUMP JUMPDEST PUSH1 0x60 DUP3 ADD MSTORE SWAP4 SWAP3 POP POP POP JUMP JUMPDEST DUP2 DUP4 MSTORE DUP2 DUP2 PUSH1 0x20 DUP6 ADD CALLDATACOPY POP PUSH1 0x0 DUP3 DUP3 ADD PUSH1 0x20 SWAP1 DUP2 ADD SWAP2 SWAP1 SWAP2 MSTORE PUSH1 0x1F SWAP1 SWAP2 ADD PUSH1 0x1F NOT AND SWAP1 SWAP2 ADD ADD SWAP1 JUMP JUMPDEST DUP6 DUP2 MSTORE PUSH1 0x60 PUSH1 0x20 DUP3 ADD MSTORE PUSH1 0x0 PUSH2 0x2601 PUSH1 0x60 DUP4 ADD DUP7 DUP9 PUSH2 0x25BE JUMP JUMPDEST DUP3 DUP2 SUB PUSH1 0x40 DUP5 ADD MSTORE PUSH2 0x2614 DUP2 DUP6 DUP8 PUSH2 0x25BE JUMP JUMPDEST SWAP9 SWAP8 POP POP POP POP POP POP POP POP JUMP JUMPDEST PUSH4 0x4E487B71 PUSH1 0xE0 SHL PUSH1 0x0 MSTORE PUSH1 0x32 PUSH1 0x4 MSTORE PUSH1 0x24 PUSH1 0x0 REVERT JUMPDEST PUSH4 0x4E487B71 PUSH1 0xE0 SHL PUSH1 0x0 MSTORE PUSH1 0x11 PUSH1 0x4 MSTORE PUSH1 0x24 PUSH1 0x0 REVERT JUMPDEST PUSH1 0x0 PUSH1 0x1 DUP3 ADD PUSH2 0x265E JUMPI PUSH2 0x265E PUSH2 0x2636 JUMP JUMPDEST POP PUSH1 0x1 ADD SWAP1 JUMP JUMPDEST PUSH1 0x0 PUSH1 0x40 DUP3 DUP5 SUB SLT ISZERO PUSH2 0x2677 JUMPI PUSH1 0x0 DUP1 REVERT JUMPDEST PUSH1 0x40 MLOAD PUSH1 0x40 DUP2 ADD DUP2 DUP2 LT PUSH1 0x1 PUSH1 0x1 PUSH1 0x40 SHL SUB DUP3 GT OR ISZERO PUSH2 0x26A7 JUMPI PUSH4 0x4E487B71 PUSH1 0xE0 SHL PUSH1 0x0 MSTORE PUSH1 0x41 PUSH1 0x4 MSTORE PUSH1 0x24 PUSH1 0x0 REVERT JUMPDEST PUSH1 0x40 MSTORE DUP3 CALLDATALOAD DUP2 MSTORE PUSH1 0x20 SWAP3 DUP4 ADD CALLDATALOAD SWAP3 DUP2 ADD SWAP3 SWAP1 SWAP3 MSTORE POP SWAP2 SWAP1 POP JUMP JUMPDEST PUSH1 0x7 DUP2 DUP2 SIGNEXTEND SWAP1 DUP4 SWAP1 SIGNEXTEND ADD PUSH8 0x7FFFFFFFFFFFFFFF DUP2 SGT PUSH8 0x7FFFFFFFFFFFFFFF NOT DUP3 SLT OR ISZERO PUSH2 0x1FF9 JUMPI PUSH2 0x1FF9 PUSH2 0x2636 JUMP JUMPDEST PUSH1 0x7 DUP3 DUP2 SIGNEXTEND SWAP1 DUP3 SWAP1 SIGNEXTEND SUB PUSH8 0x7FFFFFFFFFFFFFFF NOT DUP2 SLT PUSH8 0x7FFFFFFFFFFFFFFF DUP3 SGT OR ISZERO PUSH2 0x1FF9 JUMPI PUSH2 0x1FF9 PUSH2 0x2636 JUMP JUMPDEST DUP1 DUP3 ADD DUP1 DUP3 GT ISZERO PUSH2 0x1FF9 JUMPI PUSH2 0x1FF9 PUSH2 0x2636 JUMP JUMPDEST PUSH1 0x1 PUSH1 0x1 PUSH1 0x40 SHL SUB DUP3 DUP2 AND DUP3 DUP3 AND SUB SWAP1 DUP1 DUP3 GT ISZERO PUSH2 0x2752 JUMPI PUSH2 0x2752 PUSH2 0x2636 JUMP JUMPDEST POP SWAP3 SWAP2 POP POP JUMP JUMPDEST PUSH1 0x0 PUSH1 0xA0 DUP3 DUP5 SUB SLT ISZERO PUSH2 0x276B JUMPI PUSH1 0x0 DUP1 REVERT JUMPDEST PUSH1 0x40 MLOAD PUSH1 0xA0 DUP2 ADD DUP2 DUP2 LT PUSH1 0x1 PUSH1 0x1 PUSH1 0x40 SHL SUB DUP3 GT OR ISZERO PUSH2 0x279B JUMPI PUSH4 0x4E487B71 PUSH1 0xE0 SHL PUSH1 0x0 MSTORE PUSH1 0x41 PUSH1 0x4 MSTORE PUSH1 0x24 PUSH1 0x0 REVERT JUMPDEST PUSH1 0x40 MSTORE DUP3 CALLDATALOAD DUP2 MSTORE PUSH1 0x20 DUP4 ADD CALLDATALOAD PUSH2 0x27B0 DUP2 PUSH2 0x2018 JUMP JUMPDEST PUSH1 0x20 DUP3 ADD MSTORE PUSH1 0x40 DUP4 ADD CALLDATALOAD PUSH2 0x27C3 DUP2 PUSH2 0x2018 JUMP JUMPDEST PUSH1 0x40 DUP3 ADD MSTORE PUSH1 0x60 DUP4 DUP2 ADD CALLDATALOAD SWAP1 DUP3 ADD MSTORE PUSH1 0x80 SWAP3 DUP4 ADD CALLDATALOAD SWAP3 DUP2 ADD SWAP3 SWAP1 SWAP3 MSTORE POP SWAP2 SWAP1 POP JUMP JUMPDEST PUSH1 0x1 PUSH1 0x1 PUSH1 0x40 SHL SUB DUP2 DUP2 AND DUP4 DUP3 AND ADD SWAP1 DUP1 DUP3 GT ISZERO PUSH2 0x2752 JUMPI PUSH2 0x2752 PUSH2 0x2636 JUMP JUMPDEST DUP2 DUP2 SUB DUP2 DUP2 GT ISZERO PUSH2 0x1FF9 JUMPI PUSH2 0x1FF9 PUSH2 0x2636 JUMP JUMPDEST PUSH1 0x0 PUSH1 0x80 DUP3 DUP5 SUB SLT ISZERO PUSH2 0x282A JUMPI PUSH1 0x0 DUP1 REVERT JUMPDEST PUSH2 0x2832 PUSH2 0x253C JUMP JUMPDEST DUP3 CALLDATALOAD DUP2 MSTORE PUSH2 0x2842 PUSH1 0x20 DUP5 ADD PUSH2 0x2040 JUMP JUMPDEST PUSH1 0x20 DUP3 ADD MSTORE PUSH1 0x40 DUP4 ADD CALLDATALOAD PUSH1 0x40 DUP3 ADD MSTORE PUSH1 0x60 DUP4 ADD CALLDATALOAD PUSH1 0x60 DUP3 ADD MSTORE DUP1 SWAP2 POP POP SWAP3 SWAP2 POP POP JUMP JUMPDEST PUSH1 0x0 DUP3 MLOAD PUSH1 0x0 JUMPDEST DUP2 DUP2 LT ISZERO PUSH2 0x2886 JUMPI PUSH1 0x20 DUP2 DUP7 ADD DUP2 ADD MLOAD DUP6 DUP4 ADD MSTORE ADD PUSH2 0x286C JUMP JUMPDEST POP PUSH1 0x0 SWAP3 ADD SWAP2 DUP3 MSTORE POP SWAP2 SWAP1 POP JUMP JUMPDEST PUSH1 0x0 PUSH1 0x60 DUP3 DUP5 SUB SLT ISZERO PUSH2 0x28A6 JUMPI PUSH1 0x0 DUP1 REVERT JUMPDEST PUSH1 0x40 MLOAD PUSH1 0x60 DUP2 ADD DUP2 DUP2 LT PUSH1 0x1 PUSH1 0x1 PUSH1 0x40 SHL SUB DUP3 GT OR ISZERO PUSH2 0x28D6 JUMPI PUSH4 0x4E487B71 PUSH1 0xE0 SHL PUSH1 0x0 MSTORE PUSH1 0x41 PUSH1 0x4 MSTORE PUSH1 0x24 PUSH1 0x0 REVERT JUMPDEST PUSH1 0x40 MSTORE DUP3 MLOAD PUSH2 0x28E4 DUP2 PUSH2 0x2018 JUMP JUMPDEST DUP2 MSTORE PUSH1 0x20 DUP4 ADD MLOAD PUSH2 0x28F4 DUP2 PUSH2 0x2018 JUMP JUMPDEST PUSH1 0x20 DUP3 ADD MSTORE PUSH1 0x40 DUP4 ADD MLOAD PUSH2 0x2907 DUP2 PUSH2 0x2018 JUMP JUMPDEST PUSH1 0x40 DUP3 ADD MSTORE SWAP4 SWAP3 POP POP POP JUMP INVALID 0xCE CODECOPY 0x5E PUSH15 0xAD50D4EC0BCE014ACC26DD95B62FC9 0xD9 0xC9 ADDMOD EXTCODEHASH 0x2E ADDMOD LOG2 0xCD LOG4 0x5C CALLER SHR 0xD8 LOG2 PUSH5 0x6970667358 0x22 SLT KECCAK256 0x1F DUP2 0xAF PUSH18 0x87F8DD7330C9EDE96A7C2F1D343C7ECFEE7 INVALID SWAP5 0x21 0x4E 0xCF 0xD 0xC8 PUSH30 0xB664736F6C634300081300330000000000000000000000000000000000 "},"methodIdentifiers":{"canCompleteDeposit(address)":"94137c90","commitmentIndex(bytes32)":"012d09b5","commitmentMerkleTree(uint256)":"d4a82dc5","commitments(bytes32)":"839df945","completeDeposit(bytes32,bytes,bytes)":"d43ffa2f","complianceAuthority()":"309f477a","debugWithdraw(bytes32,address,uint64,uint64,bytes,bytes,bool)":"27868e38","deposit(bytes32,uint64,uint64,bytes,bytes)":"ca29a405","emergencyWithdraw(uint64,uint64,address)":"18afae2c","getMerkleRoot()":"49590657","getUserSpotBalance(address,uint64)":"fdb87ec7","nullifiers(bytes32)":"2997e86b","pendingDeposits(address)":"eb3349b9","prepareDeposit(uint64,uint64)":"5eda69b1","privatePerpsPosition(bytes32,bytes,bytes,uint32,bool,uint64,uint64)":"6f3bcf67","privateSpotTrade(bytes,bytes)":"b54fcff9","sp1Verifier()":"52a07fa3","transferToContract(uint64,uint64)":"7318754d","updateComplianceAuthority(address)":"e5ea7be2","withdraw(bytes32,address,uint64,uint64,bytes,bytes)":"dac90aeb"}}}}}