{"contracts/PrivateDEXExtensionSimple.sol":{"PrivateDEXExtensionSimple":{"abi":[{"inputs":[{"internalType":"address","name":"_privacySystem","type":"address"}],"stateMutability":"nonpayable","type":"constructor"},{"inputs":[{"internalType":"address","name":"token","type":"address"}],"name":"SafeERC20FailedOperation","type":"error"},{"anonymous":false,"inputs":[{"indexed":true,"internalType":"bytes32","name":"nullifier","type":"bytes32"},{"indexed":true,"internalType":"bytes32","name":"commitment","type":"bytes32"},{"indexed":false,"internalType":"uint64","name":"tokenIn","type":"uint64"},{"indexed":false,"internalType":"uint64","name":"tokenOut","type":"uint64"},{"indexed":false,"internalType":"uint256","name":"amountIn","type":"uint256"},{"indexed":false,"internalType":"uint256","name":"amountOut","type":"uint256"}],"name":"PrivateSwap","type":"event"},{"inputs":[{"internalType":"address","name":"_whype","type":"address"},{"internalType":"address","name":"_ubtc","type":"address"},{"internalType":"address","name":"_ueth","type":"address"},{"internalType":"address","name":"_usde","type":"address"}],"name":"configureTokens","outputs":[],"stateMutability":"nonpayable","type":"function"},{"inputs":[],"name":"owner","outputs":[{"internalType":"address","name":"","type":"address"}],"stateMutability":"view","type":"function"},{"inputs":[],"name":"privacySystem","outputs":[{"internalType":"contract IPrivacySystem","name":"","type":"address"}],"stateMutability":"view","type":"function"},{"inputs":[{"internalType":"bytes32","name":"nullifier","type":"bytes32"},{"internalType":"bytes","name":"proof","type":"bytes"},{"internalType":"bytes","name":"publicValues","type":"bytes"},{"internalType":"uint24","name":"fee","type":"uint24"}],"name":"privateSwap","outputs":[{"internalType":"uint256","name":"amountOut","type":"uint256"}],"stateMutability":"nonpayable","type":"function"},{"inputs":[{"internalType":"address","name":"_swapRouter","type":"address"}],"name":"setSwapRouter","outputs":[],"stateMutability":"nonpayable","type":"function"},{"inputs":[{"internalType":"bytes32","name":"","type":"bytes32"}],"name":"swapNullifiers","outputs":[{"internalType":"bool","name":"","type":"bool"}],"stateMutability":"view","type":"function"},{"inputs":[],"name":"swapRouter","outputs":[{"internalType":"contract ISwapRouter","name":"","type":"address"}],"stateMutability":"view","type":"function"},{"inputs":[{"internalType":"uint64","name":"","type":"uint64"}],"name":"tokenAddresses","outputs":[{"internalType":"address","name":"","type":"address"}],"stateMutability":"view","type":"function"},{"inputs":[{"internalType":"bytes32","name":"","type":"bytes32"},{"internalType":"uint64","name":"","type":"uint64"}],"name":"totalSwapped","outputs":[{"internalType":"uint256","name":"","type":"uint256"}],"stateMutability":"view","type":"function"}],"evm":{"bytecode":{"linkReferences":{},"object":"60a060405234801561001057600080fd5b506040516110b13803806110b183398101604081905261002f91610052565b6001600160a01b0316608052600180546001600160a01b03191633179055610082565b60006020828403121561006457600080fd5b81516001600160a01b038116811461007b57600080fd5b9392505050565b608051610ff16100c06000396000818161013601528181610437015281816104f2015281816106490152818161084b01526109a30152610ff16000f3fe608060405234801561001057600080fd5b50600436106100935760003560e01c806351a259f31161006657806351a259f3146101315780638da5cb5b14610170578063a8ebbae614610183578063c31c9c0714610196578063ffc21d5e146101a957600080fd5b80630945fd701461009857806341273657146100ad5780634727f606146100c057806349feedd0146100f8575b600080fd5b6100ab6100a6366004610c5a565b6101d2565b005b6100ab6100bb366004610cb6565b6102f4565b6100e36100ce366004610cda565b60036020526000908152604090205460ff1681565b60405190151581526020015b60405180910390f35b610123610106366004610d10565b600460209081526000928352604080842090915290825290205481565b6040519081526020016100ef565b6101587f000000000000000000000000000000000000000000000000000000000000000081565b6040516001600160a01b0390911681526020016100ef565b600154610158906001600160a01b031681565b610123610191366004610d85565b61035d565b600054610158906001600160a01b031681565b6101586101b7366004610e19565b6002602052600090815260409020546001600160a01b031681565b6001546001600160a01b0316331461021e5760405162461bcd60e51b815260206004820152600a60248201526927b7363c9037bbb732b960b11b60448201526064015b60405180910390fd5b60026020527fac33ff75c19e70fe83507db0d683fd3465c996598dc972688b7ace676c89077b80546001600160a01b039586166001600160a01b0319918216179091557fe90b7bceb6e7df5418fb78d8ee546e97c83a08bbccc01a0644d599ccd2a7c2e08054948616948216949094179093557f679795a0195a1b76cdebb7c51d74e058aee92919b8c3389af86ef24535e8a28c80549285169284169290921790915560036000527f88601476d11616a71c5be67555bd1dff4b1cbf21533d2669b768b61518cfe1c38054919093169116179055565b6001546001600160a01b0316331461033b5760405162461bcd60e51b815260206004820152600a60248201526927b7363c9037bbb732b960b11b6044820152606401610215565b600080546001600160a01b0319166001600160a01b0392909216919091179055565b600080546001600160a01b03166103ae5760405162461bcd60e51b8152602060048201526015602482015274149bdd5d195c881b9bdd0818dbdb999a59dd5c9959605a1b6044820152606401610215565b60008781526003602052604090205460ff161561040d5760405162461bcd60e51b815260206004820152601b60248201527f53776170206e756c6c696669657220616c7265616479207573656400000000006044820152606401610215565b600061041b84860186610e34565b805160405163839df94560e01b81529192506001600160a01b037f0000000000000000000000000000000000000000000000000000000000000000169163839df9459161046e9160040190815260200190565b602060405180830381865afa15801561048b573d6000803e3d6000fd5b505050506040513d601f19601f820116820180604052508101906104af9190610ee0565b6104f05760405162461bcd60e51b8152602060048201526012602482015271125b9d985b1a590818dbdb5b5a5d1b595b9d60721b6044820152606401610215565b7f00000000000000000000000000000000000000000000000000000000000000006001600160a01b031663495906576040518163ffffffff1660e01b8152600401602060405180830381865afa15801561054e573d6000803e3d6000fd5b505050506040513d601f19601f820116820180604052508101906105729190610f02565b8160e00151146105ba5760405162461bcd60e51b8152602060048201526013602482015272125b9d985b1a59081b595c9adb19481c9bdbdd606a1b6044820152606401610215565b805160009081526004602090815260408083208185015167ffffffffffffffff16845290915290205460c082015160808301516105f79083610f1b565b11156106455760405162461bcd60e51b815260206004820152601860248201527f45786365656473206465706f736974656420616d6f756e7400000000000000006044820152606401610215565b60007f00000000000000000000000000000000000000000000000000000000000000006001600160a01b03166352a07fa36040518163ffffffff1660e01b8152600401602060405180830381865afa1580156106a5573d6000803e3d6000fd5b505050506040513d601f19601f820116820180604052508101906106c99190610f3c565b60405163020a49e360e51b81529091506001600160a01b038216906341493c609061071f907e8484840d42565b9589f5c37253789d3731407964b1537fb5cf9d6064226b1c908b908b908f908f90600401610f82565b60006040518083038186803b15801561073757600080fd5b505afa15801561074b573d6000803e3d6000fd5b50505060008b8152600360209081526040808320805460ff19166001179055608087015187518452600483528184208883015167ffffffffffffffff1685529092528220805491935091906107a1908490610f1b565b909155505060408084015167ffffffffffffffff90811660009081526002602052828120546060870151909216815291909120546001600160a01b03918216911681158015906107f957506001600160a01b03811615155b6108355760405162461bcd60e51b815260206004820152600d60248201526c24b73b30b634b2103a37b5b2b760991b6044820152606401610215565b6080850151610872906001600160a01b038416907f0000000000000000000000000000000000000000000000000000000000000000903090610a4d565b60005460808601516108919184916001600160a01b0390911690610aba565b60408051610100810182526001600160a01b0384811682528381166020830190815262ffffff8b811684860190815230606086019081524260808088019182528d015160a08089019182528e015160c08901908152600060e08a0181815281549b5163414bf38960e01b81528b518b16600482015298518a1660248a015295519096166044880152925187166064870152905160848601525160a48501525160c484015251831660e483015292939091169063414bf3899083906101040160206040518083038185885af115801561096d573d6000803e3d6000fd5b50505050506040513d601f19601f820116820180604052508101906109929190610f02565b97506109c86001600160a01b0384167f00000000000000000000000000000000000000000000000000000000000000008a610b4a565b86600001518e7f0f4d8f4a9d01f7fbfdec4da17e052db5780ba4be9d71e52e9b80461e36177c4c89604001518a606001518b608001518d604051610a34949392919067ffffffffffffffff94851681529290931660208301526040820152606081019190915260800190565b60405180910390a3505050505050509695505050505050565b6040516001600160a01b038481166024830152838116604483015260648201839052610ab49186918216906323b872dd906084015b604051602081830303815290604052915060e01b6020820180516001600160e01b038381831617835250505050610b80565b50505050565b604080516001600160a01b038416602482015260448082018490528251808303909101815260649091019091526020810180516001600160e01b031663095ea7b360e01b179052610b0b8482610bf1565b610ab4576040516001600160a01b03848116602483015260006044830152610b4091869182169063095ea7b390606401610a82565b610ab48482610b80565b6040516001600160a01b03838116602483015260448201839052610b7b91859182169063a9059cbb90606401610a82565b505050565b600080602060008451602086016000885af180610ba3576040513d6000823e3d81fd5b50506000513d91508115610bbb578060011415610bc8565b6001600160a01b0384163b155b15610ab457604051635274afe760e01b81526001600160a01b0385166004820152602401610215565b6000806000806020600086516020880160008a5af192503d91506000519050828015610c3657508115610c275780600114610c36565b6000866001600160a01b03163b115b93505050505b92915050565b6001600160a01b0381168114610c5757600080fd5b50565b60008060008060808587031215610c7057600080fd5b8435610c7b81610c42565b93506020850135610c8b81610c42565b92506040850135610c9b81610c42565b91506060850135610cab81610c42565b939692955090935050565b600060208284031215610cc857600080fd5b8135610cd381610c42565b9392505050565b600060208284031215610cec57600080fd5b5035919050565b803567ffffffffffffffff81168114610d0b57600080fd5b919050565b60008060408385031215610d2357600080fd5b82359150610d3360208401610cf3565b90509250929050565b60008083601f840112610d4e57600080fd5b50813567ffffffffffffffff811115610d6657600080fd5b602083019150836020828501011115610d7e57600080fd5b9250929050565b60008060008060008060808789031215610d9e57600080fd5b86359550602087013567ffffffffffffffff80821115610dbd57600080fd5b610dc98a838b01610d3c565b90975095506040890135915080821115610de257600080fd5b50610def89828a01610d3c565b909450925050606087013562ffffff81168114610e0b57600080fd5b809150509295509295509295565b600060208284031215610e2b57600080fd5b610cd382610cf3565b6000610100808385031215610e4857600080fd5b6040519081019067ffffffffffffffff82118183101715610e7957634e487b7160e01b600052604160045260246000fd5b816040528335815260208401356020820152610e9760408501610cf3565b6040820152610ea860608501610cf3565b60608201526080840135608082015260a084013560a082015260c084013560c082015260e084013560e0820152809250505092915050565b600060208284031215610ef257600080fd5b81518015158114610cd357600080fd5b600060208284031215610f1457600080fd5b5051919050565b80820180821115610c3c57634e487b7160e01b600052601160045260246000fd5b600060208284031215610f4e57600080fd5b8151610cd381610c42565b81835281816020850137506000828201602090810191909152601f909101601f19169091010190565b858152606060208201526000610f9c606083018688610f59565b8281036040840152610faf818587610f59565b9897505050505050505056fea2646970667358221220932a6b986d24e820f23c076dde5d8239441a2f298438715d2b65f6e89a4828e764736f6c63430008140033","opcodes":"PUSH1 0xA0 PUSH1 0x40 MSTORE CALLVALUE DUP1 ISZERO PUSH2 0x10 JUMPI PUSH1 0x0 DUP1 REVERT JUMPDEST POP PUSH1 0x40 MLOAD PUSH2 0x10B1 CODESIZE SUB DUP1 PUSH2 0x10B1 DUP4 CODECOPY DUP2 ADD PUSH1 0x40 DUP2 SWAP1 MSTORE PUSH2 0x2F SWAP2 PUSH2 0x52 JUMP JUMPDEST PUSH1 0x1 PUSH1 0x1 PUSH1 0xA0 SHL SUB AND PUSH1 0x80 MSTORE PUSH1 0x1 DUP1 SLOAD PUSH1 0x1 PUSH1 0x1 PUSH1 0xA0 SHL SUB NOT AND CALLER OR SWAP1 SSTORE PUSH2 0x82 JUMP JUMPDEST PUSH1 0x0 PUSH1 0x20 DUP3 DUP5 SUB SLT ISZERO PUSH2 0x64 JUMPI PUSH1 0x0 DUP1 REVERT JUMPDEST DUP2 MLOAD PUSH1 0x1 PUSH1 0x1 PUSH1 0xA0 SHL SUB DUP2 AND DUP2 EQ PUSH2 0x7B JUMPI PUSH1 0x0 DUP1 REVERT JUMPDEST SWAP4 SWAP3 POP POP POP JUMP JUMPDEST PUSH1 0x80 MLOAD PUSH2 0xFF1 PUSH2 0xC0 PUSH1 0x0 CODECOPY PUSH1 0x0 DUP2 DUP2 PUSH2 0x136 ADD MSTORE DUP2 DUP2 PUSH2 0x437 ADD MSTORE DUP2 DUP2 PUSH2 0x4F2 ADD MSTORE DUP2 DUP2 PUSH2 0x649 ADD MSTORE DUP2 DUP2 PUSH2 0x84B ADD MSTORE PUSH2 0x9A3 ADD MSTORE PUSH2 0xFF1 PUSH1 0x0 RETURN INVALID PUSH1 0x80 PUSH1 0x40 MSTORE CALLVALUE DUP1 ISZERO PUSH2 0x10 JUMPI PUSH1 0x0 DUP1 REVERT JUMPDEST POP PUSH1 0x4 CALLDATASIZE LT PUSH2 0x93 JUMPI PUSH1 0x0 CALLDATALOAD PUSH1 0xE0 SHR DUP1 PUSH4 0x51A259F3 GT PUSH2 0x66 JUMPI DUP1 PUSH4 0x51A259F3 EQ PUSH2 0x131 JUMPI DUP1 PUSH4 0x8DA5CB5B EQ PUSH2 0x170 JUMPI DUP1 PUSH4 0xA8EBBAE6 EQ PUSH2 0x183 JUMPI DUP1 PUSH4 0xC31C9C07 EQ PUSH2 0x196 JUMPI DUP1 PUSH4 0xFFC21D5E EQ PUSH2 0x1A9 JUMPI PUSH1 0x0 DUP1 REVERT JUMPDEST DUP1 PUSH4 0x945FD70 EQ PUSH2 0x98 JUMPI DUP1 PUSH4 0x41273657 EQ PUSH2 0xAD JUMPI DUP1 PUSH4 0x4727F606 EQ PUSH2 0xC0 JUMPI DUP1 PUSH4 0x49FEEDD0 EQ PUSH2 0xF8 JUMPI JUMPDEST PUSH1 0x0 DUP1 REVERT JUMPDEST PUSH2 0xAB PUSH2 0xA6 CALLDATASIZE PUSH1 0x4 PUSH2 0xC5A JUMP JUMPDEST PUSH2 0x1D2 JUMP JUMPDEST STOP JUMPDEST PUSH2 0xAB PUSH2 0xBB CALLDATASIZE PUSH1 0x4 PUSH2 0xCB6 JUMP JUMPDEST PUSH2 0x2F4 JUMP JUMPDEST PUSH2 0xE3 PUSH2 0xCE CALLDATASIZE PUSH1 0x4 PUSH2 0xCDA JUMP JUMPDEST PUSH1 0x3 PUSH1 0x20 MSTORE PUSH1 0x0 SWAP1 DUP2 MSTORE PUSH1 0x40 SWAP1 KECCAK256 SLOAD PUSH1 0xFF AND DUP2 JUMP JUMPDEST PUSH1 0x40 MLOAD SWAP1 ISZERO ISZERO DUP2 MSTORE PUSH1 0x20 ADD JUMPDEST PUSH1 0x40 MLOAD DUP1 SWAP2 SUB SWAP1 RETURN JUMPDEST PUSH2 0x123 PUSH2 0x106 CALLDATASIZE PUSH1 0x4 PUSH2 0xD10 JUMP JUMPDEST PUSH1 0x4 PUSH1 0x20 SWAP1 DUP2 MSTORE PUSH1 0x0 SWAP3 DUP4 MSTORE PUSH1 0x40 DUP1 DUP5 KECCAK256 SWAP1 SWAP2 MSTORE SWAP1 DUP3 MSTORE SWAP1 KECCAK256 SLOAD DUP2 JUMP JUMPDEST PUSH1 0x40 MLOAD SWAP1 DUP2 MSTORE PUSH1 0x20 ADD PUSH2 0xEF JUMP JUMPDEST PUSH2 0x158 PUSH32 0x0 DUP2 JUMP JUMPDEST PUSH1 0x40 MLOAD PUSH1 0x1 PUSH1 0x1 PUSH1 0xA0 SHL SUB SWAP1 SWAP2 AND DUP2 MSTORE PUSH1 0x20 ADD PUSH2 0xEF JUMP JUMPDEST PUSH1 0x1 SLOAD PUSH2 0x158 SWAP1 PUSH1 0x1 PUSH1 0x1 PUSH1 0xA0 SHL SUB AND DUP2 JUMP JUMPDEST PUSH2 0x123 PUSH2 0x191 CALLDATASIZE PUSH1 0x4 PUSH2 0xD85 JUMP JUMPDEST PUSH2 0x35D JUMP JUMPDEST PUSH1 0x0 SLOAD PUSH2 0x158 SWAP1 PUSH1 0x1 PUSH1 0x1 PUSH1 0xA0 SHL SUB AND DUP2 JUMP JUMPDEST PUSH2 0x158 PUSH2 0x1B7 CALLDATASIZE PUSH1 0x4 PUSH2 0xE19 JUMP JUMPDEST PUSH1 0x2 PUSH1 0x20 MSTORE PUSH1 0x0 SWAP1 DUP2 MSTORE PUSH1 0x40 SWAP1 KECCAK256 SLOAD PUSH1 0x1 PUSH1 0x1 PUSH1 0xA0 SHL SUB AND DUP2 JUMP JUMPDEST PUSH1 0x1 SLOAD PUSH1 0x1 PUSH1 0x1 PUSH1 0xA0 SHL SUB AND CALLER EQ PUSH2 0x21E JUMPI PUSH1 0x40 MLOAD PUSH3 0x461BCD PUSH1 0xE5 SHL DUP2 MSTORE PUSH1 0x20 PUSH1 0x4 DUP3 ADD MSTORE PUSH1 0xA PUSH1 0x24 DUP3 ADD MSTORE PUSH10 0x27B7363C9037BBB732B9 PUSH1 0xB1 SHL PUSH1 0x44 DUP3 ADD MSTORE PUSH1 0x64 ADD JUMPDEST PUSH1 0x40 MLOAD DUP1 SWAP2 SUB SWAP1 REVERT JUMPDEST PUSH1 0x2 PUSH1 0x20 MSTORE PUSH32 0xAC33FF75C19E70FE83507DB0D683FD3465C996598DC972688B7ACE676C89077B DUP1 SLOAD PUSH1 0x1 PUSH1 0x1 PUSH1 0xA0 SHL SUB SWAP6 DUP7 AND PUSH1 0x1 PUSH1 0x1 PUSH1 0xA0 SHL SUB NOT SWAP2 DUP3 AND OR SWAP1 SWAP2 SSTORE PUSH32 0xE90B7BCEB6E7DF5418FB78D8EE546E97C83A08BBCCC01A0644D599CCD2A7C2E0 DUP1 SLOAD SWAP5 DUP7 AND SWAP5 DUP3 AND SWAP5 SWAP1 SWAP5 OR SWAP1 SWAP4 SSTORE PUSH32 0x679795A0195A1B76CDEBB7C51D74E058AEE92919B8C3389AF86EF24535E8A28C DUP1 SLOAD SWAP3 DUP6 AND SWAP3 DUP5 AND SWAP3 SWAP1 SWAP3 OR SWAP1 SWAP2 SSTORE PUSH1 0x3 PUSH1 0x0 MSTORE PUSH32 0x88601476D11616A71C5BE67555BD1DFF4B1CBF21533D2669B768B61518CFE1C3 DUP1 SLOAD SWAP2 SWAP1 SWAP4 AND SWAP2 AND OR SWAP1 SSTORE JUMP JUMPDEST PUSH1 0x1 SLOAD PUSH1 0x1 PUSH1 0x1 PUSH1 0xA0 SHL SUB AND CALLER EQ PUSH2 0x33B JUMPI PUSH1 0x40 MLOAD PUSH3 0x461BCD PUSH1 0xE5 SHL DUP2 MSTORE PUSH1 0x20 PUSH1 0x4 DUP3 ADD MSTORE PUSH1 0xA PUSH1 0x24 DUP3 ADD MSTORE PUSH10 0x27B7363C9037BBB732B9 PUSH1 0xB1 SHL PUSH1 0x44 DUP3 ADD MSTORE PUSH1 0x64 ADD PUSH2 0x215 JUMP JUMPDEST PUSH1 0x0 DUP1 SLOAD PUSH1 0x1 PUSH1 0x1 PUSH1 0xA0 SHL SUB NOT AND PUSH1 0x1 PUSH1 0x1 PUSH1 0xA0 SHL SUB SWAP3 SWAP1 SWAP3 AND SWAP2 SWAP1 SWAP2 OR SWAP1 SSTORE JUMP JUMPDEST PUSH1 0x0 DUP1 SLOAD PUSH1 0x1 PUSH1 0x1 PUSH1 0xA0 SHL SUB AND PUSH2 0x3AE JUMPI PUSH1 0x40 MLOAD PUSH3 0x461BCD PUSH1 0xE5 SHL DUP2 MSTORE PUSH1 0x20 PUSH1 0x4 DUP3 ADD MSTORE PUSH1 0x15 PUSH1 0x24 DUP3 ADD MSTORE PUSH21 0x149BDD5D195C881B9BDD0818DBDB999A59DD5C9959 PUSH1 0x5A SHL PUSH1 0x44 DUP3 ADD MSTORE PUSH1 0x64 ADD PUSH2 0x215 JUMP JUMPDEST PUSH1 0x0 DUP8 DUP2 MSTORE PUSH1 0x3 PUSH1 0x20 MSTORE PUSH1 0x40 SWAP1 KECCAK256 SLOAD PUSH1 0xFF AND ISZERO PUSH2 0x40D JUMPI PUSH1 0x40 MLOAD PUSH3 0x461BCD PUSH1 0xE5 SHL DUP2 MSTORE PUSH1 0x20 PUSH1 0x4 DUP3 ADD MSTORE PUSH1 0x1B PUSH1 0x24 DUP3 ADD MSTORE PUSH32 0x53776170206E756C6C696669657220616C726561647920757365640000000000 PUSH1 0x44 DUP3 ADD MSTORE PUSH1 0x64 ADD PUSH2 0x215 JUMP JUMPDEST PUSH1 0x0 PUSH2 0x41B DUP5 DUP7 ADD DUP7 PUSH2 0xE34 JUMP JUMPDEST DUP1 MLOAD PUSH1 0x40 MLOAD PUSH4 0x839DF945 PUSH1 0xE0 SHL DUP2 MSTORE SWAP2 SWAP3 POP PUSH1 0x1 PUSH1 0x1 PUSH1 0xA0 SHL SUB PUSH32 0x0 AND SWAP2 PUSH4 0x839DF945 SWAP2 PUSH2 0x46E SWAP2 PUSH1 0x4 ADD SWAP1 DUP2 MSTORE PUSH1 0x20 ADD SWAP1 JUMP JUMPDEST PUSH1 0x20 PUSH1 0x40 MLOAD DUP1 DUP4 SUB DUP2 DUP7 GAS STATICCALL ISZERO DUP1 ISZERO PUSH2 0x48B JUMPI RETURNDATASIZE PUSH1 0x0 DUP1 RETURNDATACOPY RETURNDATASIZE PUSH1 0x0 REVERT JUMPDEST POP POP POP POP PUSH1 0x40 MLOAD RETURNDATASIZE PUSH1 0x1F NOT PUSH1 0x1F DUP3 ADD AND DUP3 ADD DUP1 PUSH1 0x40 MSTORE POP DUP2 ADD SWAP1 PUSH2 0x4AF SWAP2 SWAP1 PUSH2 0xEE0 JUMP JUMPDEST PUSH2 0x4F0 JUMPI PUSH1 0x40 MLOAD PUSH3 0x461BCD PUSH1 0xE5 SHL DUP2 MSTORE PUSH1 0x20 PUSH1 0x4 DUP3 ADD MSTORE PUSH1 0x12 PUSH1 0x24 DUP3 ADD MSTORE PUSH18 0x125B9D985B1A590818DBDB5B5A5D1B595B9D PUSH1 0x72 SHL PUSH1 0x44 DUP3 ADD MSTORE PUSH1 0x64 ADD PUSH2 0x215 JUMP JUMPDEST PUSH32 0x0 PUSH1 0x1 PUSH1 0x1 PUSH1 0xA0 SHL SUB AND PUSH4 0x49590657 PUSH1 0x40 MLOAD DUP2 PUSH4 0xFFFFFFFF AND PUSH1 0xE0 SHL DUP2 MSTORE PUSH1 0x4 ADD PUSH1 0x20 PUSH1 0x40 MLOAD DUP1 DUP4 SUB DUP2 DUP7 GAS STATICCALL ISZERO DUP1 ISZERO PUSH2 0x54E JUMPI RETURNDATASIZE PUSH1 0x0 DUP1 RETURNDATACOPY RETURNDATASIZE PUSH1 0x0 REVERT JUMPDEST POP POP POP POP PUSH1 0x40 MLOAD RETURNDATASIZE PUSH1 0x1F NOT PUSH1 0x1F DUP3 ADD AND DUP3 ADD DUP1 PUSH1 0x40 MSTORE POP DUP2 ADD SWAP1 PUSH2 0x572 SWAP2 SWAP1 PUSH2 0xF02 JUMP JUMPDEST DUP2 PUSH1 0xE0 ADD MLOAD EQ PUSH2 0x5BA JUMPI PUSH1 0x40 MLOAD PUSH3 0x461BCD PUSH1 0xE5 SHL DUP2 MSTORE PUSH1 0x20 PUSH1 0x4 DUP3 ADD MSTORE PUSH1 0x13 PUSH1 0x24 DUP3 ADD MSTORE PUSH19 0x125B9D985B1A59081B595C9ADB19481C9BDBDD PUSH1 0x6A SHL PUSH1 0x44 DUP3 ADD MSTORE PUSH1 0x64 ADD PUSH2 0x215 JUMP JUMPDEST DUP1 MLOAD PUSH1 0x0 SWAP1 DUP2 MSTORE PUSH1 0x4 PUSH1 0x20 SWAP1 DUP2 MSTORE PUSH1 0x40 DUP1 DUP4 KECCAK256 DUP2 DUP6 ADD MLOAD PUSH8 0xFFFFFFFFFFFFFFFF AND DUP5 MSTORE SWAP1 SWAP2 MSTORE SWAP1 KECCAK256 SLOAD PUSH1 0xC0 DUP3 ADD MLOAD PUSH1 0x80 DUP4 ADD MLOAD PUSH2 0x5F7 SWAP1 DUP4 PUSH2 0xF1B JUMP JUMPDEST GT ISZERO PUSH2 0x645 JUMPI PUSH1 0x40 MLOAD PUSH3 0x461BCD PUSH1 0xE5 SHL DUP2 MSTORE PUSH1 0x20 PUSH1 0x4 DUP3 ADD MSTORE PUSH1 0x18 PUSH1 0x24 DUP3 ADD MSTORE PUSH32 0x45786365656473206465706F736974656420616D6F756E740000000000000000 PUSH1 0x44 DUP3 ADD MSTORE PUSH1 0x64 ADD PUSH2 0x215 JUMP JUMPDEST PUSH1 0x0 PUSH32 0x0 PUSH1 0x1 PUSH1 0x1 PUSH1 0xA0 SHL SUB AND PUSH4 0x52A07FA3 PUSH1 0x40 MLOAD DUP2 PUSH4 0xFFFFFFFF AND PUSH1 0xE0 SHL DUP2 MSTORE PUSH1 0x4 ADD PUSH1 0x20 PUSH1 0x40 MLOAD DUP1 DUP4 SUB DUP2 DUP7 GAS STATICCALL ISZERO DUP1 ISZERO PUSH2 0x6A5 JUMPI RETURNDATASIZE PUSH1 0x0 DUP1 RETURNDATACOPY RETURNDATASIZE PUSH1 0x0 REVERT JUMPDEST POP POP POP POP PUSH1 0x40 MLOAD RETURNDATASIZE PUSH1 0x1F NOT PUSH1 0x1F DUP3 ADD AND DUP3 ADD DUP1 PUSH1 0x40 MSTORE POP DUP2 ADD SWAP1 PUSH2 0x6C9 SWAP2 SWAP1 PUSH2 0xF3C JUMP JUMPDEST PUSH1 0x40 MLOAD PUSH4 0x20A49E3 PUSH1 0xE5 SHL DUP2 MSTORE SWAP1 SWAP2 POP PUSH1 0x1 PUSH1 0x1 PUSH1 0xA0 SHL SUB DUP3 AND SWAP1 PUSH4 0x41493C60 SWAP1 PUSH2 0x71F SWAP1 PUSH31 0x8484840D42565B9589F5C37253789D3731407964B1537FB5CF9D6064226B1C SWAP1 DUP12 SWAP1 DUP12 SWAP1 DUP16 SWAP1 DUP16 SWAP1 PUSH1 0x4 ADD PUSH2 0xF82 JUMP JUMPDEST PUSH1 0x0 PUSH1 0x40 MLOAD DUP1 DUP4 SUB DUP2 DUP7 DUP1 EXTCODESIZE ISZERO DUP1 ISZERO PUSH2 0x737 JUMPI PUSH1 0x0 DUP1 REVERT JUMPDEST POP GAS STATICCALL ISZERO DUP1 ISZERO PUSH2 0x74B JUMPI RETURNDATASIZE PUSH1 0x0 DUP1 RETURNDATACOPY RETURNDATASIZE PUSH1 0x0 REVERT JUMPDEST POP POP POP PUSH1 0x0 DUP12 DUP2 MSTORE PUSH1 0x3 PUSH1 0x20 SWAP1 DUP2 MSTORE PUSH1 0x40 DUP1 DUP4 KECCAK256 DUP1 SLOAD PUSH1 0xFF NOT AND PUSH1 0x1 OR SWAP1 SSTORE PUSH1 0x80 DUP8 ADD MLOAD DUP8 MLOAD DUP5 MSTORE PUSH1 0x4 DUP4 MSTORE DUP2 DUP5 KECCAK256 DUP9 DUP4 ADD MLOAD PUSH8 0xFFFFFFFFFFFFFFFF AND DUP6 MSTORE SWAP1 SWAP3 MSTORE DUP3 KECCAK256 DUP1 SLOAD SWAP2 SWAP4 POP SWAP2 SWAP1 PUSH2 0x7A1 SWAP1 DUP5 SWAP1 PUSH2 0xF1B JUMP JUMPDEST SWAP1 SWAP2 SSTORE POP POP PUSH1 0x40 DUP1 DUP5 ADD MLOAD PUSH8 0xFFFFFFFFFFFFFFFF SWAP1 DUP2 AND PUSH1 0x0 SWAP1 DUP2 MSTORE PUSH1 0x2 PUSH1 0x20 MSTORE DUP3 DUP2 KECCAK256 SLOAD PUSH1 0x60 DUP8 ADD MLOAD SWAP1 SWAP3 AND DUP2 MSTORE SWAP2 SWAP1 SWAP2 KECCAK256 SLOAD PUSH1 0x1 PUSH1 0x1 PUSH1 0xA0 SHL SUB SWAP2 DUP3 AND SWAP2 AND DUP2 ISZERO DUP1 ISZERO SWAP1 PUSH2 0x7F9 JUMPI POP PUSH1 0x1 PUSH1 0x1 PUSH1 0xA0 SHL SUB DUP2 AND ISZERO ISZERO JUMPDEST PUSH2 0x835 JUMPI PUSH1 0x40 MLOAD PUSH3 0x461BCD PUSH1 0xE5 SHL DUP2 MSTORE PUSH1 0x20 PUSH1 0x4 DUP3 ADD MSTORE PUSH1 0xD PUSH1 0x24 DUP3 ADD MSTORE PUSH13 0x24B73B30B634B2103A37B5B2B7 PUSH1 0x99 SHL PUSH1 0x44 DUP3 ADD MSTORE PUSH1 0x64 ADD PUSH2 0x215 JUMP JUMPDEST PUSH1 0x80 DUP6 ADD MLOAD PUSH2 0x872 SWAP1 PUSH1 0x1 PUSH1 0x1 PUSH1 0xA0 SHL SUB DUP5 AND SWAP1 PUSH32 0x0 SWAP1 ADDRESS SWAP1 PUSH2 0xA4D JUMP JUMPDEST PUSH1 0x0 SLOAD PUSH1 0x80 DUP7 ADD MLOAD PUSH2 0x891 SWAP2 DUP5 SWAP2 PUSH1 0x1 PUSH1 0x1 PUSH1 0xA0 SHL SUB SWAP1 SWAP2 AND SWAP1 PUSH2 0xABA JUMP JUMPDEST PUSH1 0x40 DUP1 MLOAD PUSH2 0x100 DUP2 ADD DUP3 MSTORE PUSH1 0x1 PUSH1 0x1 PUSH1 0xA0 SHL SUB DUP5 DUP2 AND DUP3 MSTORE DUP4 DUP2 AND PUSH1 0x20 DUP4 ADD SWAP1 DUP2 MSTORE PUSH3 0xFFFFFF DUP12 DUP2 AND DUP5 DUP7 ADD SWAP1 DUP2 MSTORE ADDRESS PUSH1 0x60 DUP7 ADD SWAP1 DUP2 MSTORE TIMESTAMP PUSH1 0x80 DUP1 DUP9 ADD SWAP2 DUP3 MSTORE DUP14 ADD MLOAD PUSH1 0xA0 DUP1 DUP10 ADD SWAP2 DUP3 MSTORE DUP15 ADD MLOAD PUSH1 0xC0 DUP10 ADD SWAP1 DUP2 MSTORE PUSH1 0x0 PUSH1 0xE0 DUP11 ADD DUP2 DUP2 MSTORE DUP2 SLOAD SWAP12 MLOAD PUSH4 0x414BF389 PUSH1 0xE0 SHL DUP2 MSTORE DUP12 MLOAD DUP12 AND PUSH1 0x4 DUP3 ADD MSTORE SWAP9 MLOAD DUP11 AND PUSH1 0x24 DUP11 ADD MSTORE SWAP6 MLOAD SWAP1 SWAP7 AND PUSH1 0x44 DUP9 ADD MSTORE SWAP3 MLOAD DUP8 AND PUSH1 0x64 DUP8 ADD MSTORE SWAP1 MLOAD PUSH1 0x84 DUP7 ADD MSTORE MLOAD PUSH1 0xA4 DUP6 ADD MSTORE MLOAD PUSH1 0xC4 DUP5 ADD MSTORE MLOAD DUP4 AND PUSH1 0xE4 DUP4 ADD MSTORE SWAP3 SWAP4 SWAP1 SWAP2 AND SWAP1 PUSH4 0x414BF389 SWAP1 DUP4 SWAP1 PUSH2 0x104 ADD PUSH1 0x20 PUSH1 0x40 MLOAD DUP1 DUP4 SUB DUP2 DUP6 DUP9 GAS CALL ISZERO DUP1 ISZERO PUSH2 0x96D JUMPI RETURNDATASIZE PUSH1 0x0 DUP1 RETURNDATACOPY RETURNDATASIZE PUSH1 0x0 REVERT JUMPDEST POP POP POP POP POP PUSH1 0x40 MLOAD RETURNDATASIZE PUSH1 0x1F NOT PUSH1 0x1F DUP3 ADD AND DUP3 ADD DUP1 PUSH1 0x40 MSTORE POP DUP2 ADD SWAP1 PUSH2 0x992 SWAP2 SWAP1 PUSH2 0xF02 JUMP JUMPDEST SWAP8 POP PUSH2 0x9C8 PUSH1 0x1 PUSH1 0x1 PUSH1 0xA0 SHL SUB DUP5 AND PUSH32 0x0 DUP11 PUSH2 0xB4A JUMP JUMPDEST DUP7 PUSH1 0x0 ADD MLOAD DUP15 PUSH32 0xF4D8F4A9D01F7FBFDEC4DA17E052DB5780BA4BE9D71E52E9B80461E36177C4C DUP10 PUSH1 0x40 ADD MLOAD DUP11 PUSH1 0x60 ADD MLOAD DUP12 PUSH1 0x80 ADD MLOAD DUP14 PUSH1 0x40 MLOAD PUSH2 0xA34 SWAP5 SWAP4 SWAP3 SWAP2 SWAP1 PUSH8 0xFFFFFFFFFFFFFFFF SWAP5 DUP6 AND DUP2 MSTORE SWAP3 SWAP1 SWAP4 AND PUSH1 0x20 DUP4 ADD MSTORE PUSH1 0x40 DUP3 ADD MSTORE PUSH1 0x60 DUP2 ADD SWAP2 SWAP1 SWAP2 MSTORE PUSH1 0x80 ADD SWAP1 JUMP JUMPDEST PUSH1 0x40 MLOAD DUP1 SWAP2 SUB SWAP1 LOG3 POP POP POP POP POP POP POP SWAP7 SWAP6 POP POP POP POP POP POP JUMP JUMPDEST PUSH1 0x40 MLOAD PUSH1 0x1 PUSH1 0x1 PUSH1 0xA0 SHL SUB DUP5 DUP2 AND PUSH1 0x24 DUP4 ADD MSTORE DUP4 DUP2 AND PUSH1 0x44 DUP4 ADD MSTORE PUSH1 0x64 DUP3 ADD DUP4 SWAP1 MSTORE PUSH2 0xAB4 SWAP2 DUP7 SWAP2 DUP3 AND SWAP1 PUSH4 0x23B872DD SWAP1 PUSH1 0x84 ADD JUMPDEST PUSH1 0x40 MLOAD PUSH1 0x20 DUP2 DUP4 SUB SUB DUP2 MSTORE SWAP1 PUSH1 0x40 MSTORE SWAP2 POP PUSH1 0xE0 SHL PUSH1 0x20 DUP3 ADD DUP1 MLOAD PUSH1 0x1 PUSH1 0x1 PUSH1 0xE0 SHL SUB DUP4 DUP2 DUP4 AND OR DUP4 MSTORE POP POP POP POP PUSH2 0xB80 JUMP JUMPDEST POP POP POP POP JUMP JUMPDEST PUSH1 0x40 DUP1 MLOAD PUSH1 0x1 PUSH1 0x1 PUSH1 0xA0 SHL SUB DUP5 AND PUSH1 0x24 DUP3 ADD MSTORE PUSH1 0x44 DUP1 DUP3 ADD DUP5 SWAP1 MSTORE DUP3 MLOAD DUP1 DUP4 SUB SWAP1 SWAP2 ADD DUP2 MSTORE PUSH1 0x64 SWAP1 SWAP2 ADD SWAP1 SWAP2 MSTORE PUSH1 0x20 DUP2 ADD DUP1 MLOAD PUSH1 0x1 PUSH1 0x1 PUSH1 0xE0 SHL SUB AND PUSH4 0x95EA7B3 PUSH1 0xE0 SHL OR SWAP1 MSTORE PUSH2 0xB0B DUP5 DUP3 PUSH2 0xBF1 JUMP JUMPDEST PUSH2 0xAB4 JUMPI PUSH1 0x40 MLOAD PUSH1 0x1 PUSH1 0x1 PUSH1 0xA0 SHL SUB DUP5 DUP2 AND PUSH1 0x24 DUP4 ADD MSTORE PUSH1 0x0 PUSH1 0x44 DUP4 ADD MSTORE PUSH2 0xB40 SWAP2 DUP7 SWAP2 DUP3 AND SWAP1 PUSH4 0x95EA7B3 SWAP1 PUSH1 0x64 ADD PUSH2 0xA82 JUMP JUMPDEST PUSH2 0xAB4 DUP5 DUP3 PUSH2 0xB80 JUMP JUMPDEST PUSH1 0x40 MLOAD PUSH1 0x1 PUSH1 0x1 PUSH1 0xA0 SHL SUB DUP4 DUP2 AND PUSH1 0x24 DUP4 ADD MSTORE PUSH1 0x44 DUP3 ADD DUP4 SWAP1 MSTORE PUSH2 0xB7B SWAP2 DUP6 SWAP2 DUP3 AND SWAP1 PUSH4 0xA9059CBB SWAP1 PUSH1 0x64 ADD PUSH2 0xA82 JUMP JUMPDEST POP POP POP JUMP JUMPDEST PUSH1 0x0 DUP1 PUSH1 0x20 PUSH1 0x0 DUP5 MLOAD PUSH1 0x20 DUP7 ADD PUSH1 0x0 DUP9 GAS CALL DUP1 PUSH2 0xBA3 JUMPI PUSH1 0x40 MLOAD RETURNDATASIZE PUSH1 0x0 DUP3 RETURNDATACOPY RETURNDATASIZE DUP2 REVERT JUMPDEST POP POP PUSH1 0x0 MLOAD RETURNDATASIZE SWAP2 POP DUP2 ISZERO PUSH2 0xBBB JUMPI DUP1 PUSH1 0x1 EQ ISZERO PUSH2 0xBC8 JUMP JUMPDEST PUSH1 0x1 PUSH1 0x1 PUSH1 0xA0 SHL SUB DUP5 AND EXTCODESIZE ISZERO JUMPDEST ISZERO PUSH2 0xAB4 JUMPI PUSH1 0x40 MLOAD PUSH4 0x5274AFE7 PUSH1 0xE0 SHL DUP2 MSTORE PUSH1 0x1 PUSH1 0x1 PUSH1 0xA0 SHL SUB DUP6 AND PUSH1 0x4 DUP3 ADD MSTORE PUSH1 0x24 ADD PUSH2 0x215 JUMP JUMPDEST PUSH1 0x0 DUP1 PUSH1 0x0 DUP1 PUSH1 0x20 PUSH1 0x0 DUP7 MLOAD PUSH1 0x20 DUP9 ADD PUSH1 0x0 DUP11 GAS CALL SWAP3 POP RETURNDATASIZE SWAP2 POP PUSH1 0x0 MLOAD SWAP1 POP DUP3 DUP1 ISZERO PUSH2 0xC36 JUMPI POP DUP2 ISZERO PUSH2 0xC27 JUMPI DUP1 PUSH1 0x1 EQ PUSH2 0xC36 JUMP JUMPDEST PUSH1 0x0 DUP7 PUSH1 0x1 PUSH1 0x1 PUSH1 0xA0 SHL SUB AND EXTCODESIZE GT JUMPDEST SWAP4 POP POP POP POP JUMPDEST SWAP3 SWAP2 POP POP JUMP JUMPDEST PUSH1 0x1 PUSH1 0x1 PUSH1 0xA0 SHL SUB DUP2 AND DUP2 EQ PUSH2 0xC57 JUMPI PUSH1 0x0 DUP1 REVERT JUMPDEST POP JUMP JUMPDEST PUSH1 0x0 DUP1 PUSH1 0x0 DUP1 PUSH1 0x80 DUP6 DUP8 SUB SLT ISZERO PUSH2 0xC70 JUMPI PUSH1 0x0 DUP1 REVERT JUMPDEST DUP5 CALLDATALOAD PUSH2 0xC7B DUP2 PUSH2 0xC42 JUMP JUMPDEST SWAP4 POP PUSH1 0x20 DUP6 ADD CALLDATALOAD PUSH2 0xC8B DUP2 PUSH2 0xC42 JUMP JUMPDEST SWAP3 POP PUSH1 0x40 DUP6 ADD CALLDATALOAD PUSH2 0xC9B DUP2 PUSH2 0xC42 JUMP JUMPDEST SWAP2 POP PUSH1 0x60 DUP6 ADD CALLDATALOAD PUSH2 0xCAB DUP2 PUSH2 0xC42 JUMP JUMPDEST SWAP4 SWAP7 SWAP3 SWAP6 POP SWAP1 SWAP4 POP POP JUMP JUMPDEST PUSH1 0x0 PUSH1 0x20 DUP3 DUP5 SUB SLT ISZERO PUSH2 0xCC8 JUMPI PUSH1 0x0 DUP1 REVERT JUMPDEST DUP2 CALLDATALOAD PUSH2 0xCD3 DUP2 PUSH2 0xC42 JUMP JUMPDEST SWAP4 SWAP3 POP POP POP JUMP JUMPDEST PUSH1 0x0 PUSH1 0x20 DUP3 DUP5 SUB SLT ISZERO PUSH2 0xCEC JUMPI PUSH1 0x0 DUP1 REVERT JUMPDEST POP CALLDATALOAD SWAP2 SWAP1 POP JUMP JUMPDEST DUP1 CALLDATALOAD PUSH8 0xFFFFFFFFFFFFFFFF DUP2 AND DUP2 EQ PUSH2 0xD0B JUMPI PUSH1 0x0 DUP1 REVERT JUMPDEST SWAP2 SWAP1 POP JUMP JUMPDEST PUSH1 0x0 DUP1 PUSH1 0x40 DUP4 DUP6 SUB SLT ISZERO PUSH2 0xD23 JUMPI PUSH1 0x0 DUP1 REVERT JUMPDEST DUP3 CALLDATALOAD SWAP2 POP PUSH2 0xD33 PUSH1 0x20 DUP5 ADD PUSH2 0xCF3 JUMP JUMPDEST SWAP1 POP SWAP3 POP SWAP3 SWAP1 POP JUMP JUMPDEST PUSH1 0x0 DUP1 DUP4 PUSH1 0x1F DUP5 ADD SLT PUSH2 0xD4E JUMPI PUSH1 0x0 DUP1 REVERT JUMPDEST POP DUP2 CALLDATALOAD PUSH8 0xFFFFFFFFFFFFFFFF DUP2 GT ISZERO PUSH2 0xD66 JUMPI PUSH1 0x0 DUP1 REVERT JUMPDEST PUSH1 0x20 DUP4 ADD SWAP2 POP DUP4 PUSH1 0x20 DUP3 DUP6 ADD ADD GT ISZERO PUSH2 0xD7E JUMPI PUSH1 0x0 DUP1 REVERT JUMPDEST SWAP3 POP SWAP3 SWAP1 POP JUMP JUMPDEST PUSH1 0x0 DUP1 PUSH1 0x0 DUP1 PUSH1 0x0 DUP1 PUSH1 0x80 DUP8 DUP10 SUB SLT ISZERO PUSH2 0xD9E JUMPI PUSH1 0x0 DUP1 REVERT JUMPDEST DUP7 CALLDATALOAD SWAP6 POP PUSH1 0x20 DUP8 ADD CALLDATALOAD PUSH8 0xFFFFFFFFFFFFFFFF DUP1 DUP3 GT ISZERO PUSH2 0xDBD JUMPI PUSH1 0x0 DUP1 REVERT JUMPDEST PUSH2 0xDC9 DUP11 DUP4 DUP12 ADD PUSH2 0xD3C JUMP JUMPDEST SWAP1 SWAP8 POP SWAP6 POP PUSH1 0x40 DUP10 ADD CALLDATALOAD SWAP2 POP DUP1 DUP3 GT ISZERO PUSH2 0xDE2 JUMPI PUSH1 0x0 DUP1 REVERT JUMPDEST POP PUSH2 0xDEF DUP10 DUP3 DUP11 ADD PUSH2 0xD3C JUMP JUMPDEST SWAP1 SWAP5 POP SWAP3 POP POP PUSH1 0x60 DUP8 ADD CALLDATALOAD PUSH3 0xFFFFFF DUP2 AND DUP2 EQ PUSH2 0xE0B JUMPI PUSH1 0x0 DUP1 REVERT JUMPDEST DUP1 SWAP2 POP POP SWAP3 SWAP6 POP SWAP3 SWAP6 POP SWAP3 SWAP6 JUMP JUMPDEST PUSH1 0x0 PUSH1 0x20 DUP3 DUP5 SUB SLT ISZERO PUSH2 0xE2B JUMPI PUSH1 0x0 DUP1 REVERT JUMPDEST PUSH2 0xCD3 DUP3 PUSH2 0xCF3 JUMP JUMPDEST PUSH1 0x0 PUSH2 0x100 DUP1 DUP4 DUP6 SUB SLT ISZERO PUSH2 0xE48 JUMPI PUSH1 0x0 DUP1 REVERT JUMPDEST PUSH1 0x40 MLOAD SWAP1 DUP2 ADD SWAP1 PUSH8 0xFFFFFFFFFFFFFFFF DUP3 GT DUP2 DUP4 LT OR ISZERO PUSH2 0xE79 JUMPI PUSH4 0x4E487B71 PUSH1 0xE0 SHL PUSH1 0x0 MSTORE PUSH1 0x41 PUSH1 0x4 MSTORE PUSH1 0x24 PUSH1 0x0 REVERT JUMPDEST DUP2 PUSH1 0x40 MSTORE DUP4 CALLDATALOAD DUP2 MSTORE PUSH1 0x20 DUP5 ADD CALLDATALOAD PUSH1 0x20 DUP3 ADD MSTORE PUSH2 0xE97 PUSH1 0x40 DUP6 ADD PUSH2 0xCF3 JUMP JUMPDEST PUSH1 0x40 DUP3 ADD MSTORE PUSH2 0xEA8 PUSH1 0x60 DUP6 ADD PUSH2 0xCF3 JUMP JUMPDEST PUSH1 0x60 DUP3 ADD MSTORE PUSH1 0x80 DUP5 ADD CALLDATALOAD PUSH1 0x80 DUP3 ADD MSTORE PUSH1 0xA0 DUP5 ADD CALLDATALOAD PUSH1 0xA0 DUP3 ADD MSTORE PUSH1 0xC0 DUP5 ADD CALLDATALOAD PUSH1 0xC0 DUP3 ADD MSTORE PUSH1 0xE0 DUP5 ADD CALLDATALOAD PUSH1 0xE0 DUP3 ADD MSTORE DUP1 SWAP3 POP POP POP SWAP3 SWAP2 POP POP JUMP JUMPDEST PUSH1 0x0 PUSH1 0x20 DUP3 DUP5 SUB SLT ISZERO PUSH2 0xEF2 JUMPI PUSH1 0x0 DUP1 REVERT JUMPDEST DUP2 MLOAD DUP1 ISZERO ISZERO DUP2 EQ PUSH2 0xCD3 JUMPI PUSH1 0x0 DUP1 REVERT JUMPDEST PUSH1 0x0 PUSH1 0x20 DUP3 DUP5 SUB SLT ISZERO PUSH2 0xF14 JUMPI PUSH1 0x0 DUP1 REVERT JUMPDEST POP MLOAD SWAP2 SWAP1 POP JUMP JUMPDEST DUP1 DUP3 ADD DUP1 DUP3 GT ISZERO PUSH2 0xC3C JUMPI PUSH4 0x4E487B71 PUSH1 0xE0 SHL PUSH1 0x0 MSTORE PUSH1 0x11 PUSH1 0x4 MSTORE PUSH1 0x24 PUSH1 0x0 REVERT JUMPDEST PUSH1 0x0 PUSH1 0x20 DUP3 DUP5 SUB SLT ISZERO PUSH2 0xF4E JUMPI PUSH1 0x0 DUP1 REVERT JUMPDEST DUP2 MLOAD PUSH2 0xCD3 DUP2 PUSH2 0xC42 JUMP JUMPDEST DUP2 DUP4 MSTORE DUP2 DUP2 PUSH1 0x20 DUP6 ADD CALLDATACOPY POP PUSH1 0x0 DUP3 DUP3 ADD PUSH1 0x20 SWAP1 DUP2 ADD SWAP2 SWAP1 SWAP2 MSTORE PUSH1 0x1F SWAP1 SWAP2 ADD PUSH1 0x1F NOT AND SWAP1 SWAP2 ADD ADD SWAP1 JUMP JUMPDEST DUP6 DUP2 MSTORE PUSH1 0x60 PUSH1 0x20 DUP3 ADD MSTORE PUSH1 0x0 PUSH2 0xF9C PUSH1 0x60 DUP4 ADD DUP7 DUP9 PUSH2 0xF59 JUMP JUMPDEST DUP3 DUP2 SUB PUSH1 0x40 DUP5 ADD MSTORE PUSH2 0xFAF DUP2 DUP6 DUP8 PUSH2 0xF59 JUMP JUMPDEST SWAP9 SWAP8 POP POP POP POP POP POP POP POP JUMP INVALID LOG2 PUSH5 0x6970667358 0x22 SLT KECCAK256 SWAP4 0x2A PUSH12 0x986D24E820F23C076DDE5D82 CODECOPY PREVRANDAO BYTE 0x2F 0x29 DUP5 CODESIZE PUSH18 0x5D2B65F6E89A4828E764736F6C6343000814 STOP CALLER "},"methodIdentifiers":{"configureTokens(address,address,address,address)":"0945fd70","owner()":"8da5cb5b","privacySystem()":"51a259f3","privateSwap(bytes32,bytes,bytes,uint24)":"a8ebbae6","setSwapRouter(address)":"41273657","swapNullifiers(bytes32)":"4727f606","swapRouter()":"c31c9c07","tokenAddresses(uint64)":"ffc21d5e","totalSwapped(bytes32,uint64)":"49feedd0"}}}}}