{"contracts/HyperliquidPrivacySystemEVM.sol":{"HyperliquidPrivacySystemEVM":{"abi":[{"inputs":[{"internalType":"address","name":"_sp1Verifier","type":"address"},{"internalType":"address","name":"_complianceAuthority","type":"address"}],"stateMutability":"nonpayable","type":"constructor"},{"anonymous":false,"inputs":[{"indexed":true,"internalType":"bytes32","name":"commitment","type":"bytes32"},{"indexed":false,"internalType":"uint256","name":"timestamp","type":"uint256"}],"name":"PrivateDeposit","type":"event"},{"anonymous":false,"inputs":[{"indexed":true,"internalType":"bytes32","name":"nullifier","type":"bytes32"},{"indexed":false,"internalType":"uint256","name":"timestamp","type":"uint256"}],"name":"PrivateWithdraw","type":"event"},{"anonymous":false,"inputs":[{"indexed":true,"internalType":"uint64","name":"tokenId","type":"uint64"},{"indexed":false,"internalType":"address","name":"tokenAddress","type":"address"}],"name":"TokenAdded","type":"event"},{"stateMutability":"payable","type":"fallback"},{"inputs":[{"internalType":"uint64","name":"tokenId","type":"uint64"},{"internalType":"address","name":"tokenAddress","type":"address"}],"name":"addToken","outputs":[],"stateMutability":"nonpayable","type":"function"},{"inputs":[{"internalType":"address","name":"user","type":"address"}],"name":"canCompleteDeposit","outputs":[{"internalType":"bool","name":"","type":"bool"}],"stateMutability":"view","type":"function"},{"inputs":[{"internalType":"uint256","name":"","type":"uint256"}],"name":"commitmentMerkleTree","outputs":[{"internalType":"bytes32","name":"","type":"bytes32"}],"stateMutability":"view","type":"function"},{"inputs":[{"internalType":"bytes32","name":"","type":"bytes32"}],"name":"commitments","outputs":[{"internalType":"bool","name":"","type":"bool"}],"stateMutability":"view","type":"function"},{"inputs":[{"internalType":"bytes32","name":"commitment","type":"bytes32"},{"internalType":"bytes","name":"complianceProof","type":"bytes"},{"internalType":"bytes","name":"publicValues","type":"bytes"}],"name":"completeDeposit","outputs":[],"stateMutability":"nonpayable","type":"function"},{"inputs":[],"name":"complianceAuthority","outputs":[{"internalType":"address","name":"","type":"address"}],"stateMutability":"view","type":"function"},{"inputs":[],"name":"getMerkleRoot","outputs":[{"internalType":"bytes32","name":"","type":"bytes32"}],"stateMutability":"view","type":"function"},{"inputs":[{"internalType":"address","name":"user","type":"address"}],"name":"getPendingDeposit","outputs":[{"components":[{"internalType":"uint64","name":"token","type":"uint64"},{"internalType":"uint256","name":"amount","type":"uint256"},{"internalType":"uint256","name":"contractBalanceBefore","type":"uint256"},{"internalType":"uint256","name":"timestamp","type":"uint256"},{"internalType":"bool","name":"completed","type":"bool"}],"internalType":"struct HyperliquidPrivacySystemEVM.PendingDeposit","name":"","type":"tuple"}],"stateMutability":"view","type":"function"},{"inputs":[{"internalType":"bytes32","name":"","type":"bytes32"}],"name":"nullifiers","outputs":[{"internalType":"bool","name":"","type":"bool"}],"stateMutability":"view","type":"function"},{"inputs":[{"internalType":"address","name":"","type":"address"}],"name":"pendingDeposits","outputs":[{"internalType":"uint64","name":"token","type":"uint64"},{"internalType":"uint256","name":"amount","type":"uint256"},{"internalType":"uint256","name":"contractBalanceBefore","type":"uint256"},{"internalType":"uint256","name":"timestamp","type":"uint256"},{"internalType":"bool","name":"completed","type":"bool"}],"stateMutability":"view","type":"function"},{"inputs":[{"internalType":"uint64","name":"token","type":"uint64"},{"internalType":"uint256","name":"amount","type":"uint256"}],"name":"prepareDeposit","outputs":[],"stateMutability":"nonpayable","type":"function"},{"inputs":[],"name":"sp1Verifier","outputs":[{"internalType":"contract ISP1Verifier","name":"","type":"address"}],"stateMutability":"view","type":"function"},{"inputs":[{"internalType":"uint64","name":"","type":"uint64"}],"name":"tokenAddresses","outputs":[{"internalType":"address","name":"","type":"address"}],"stateMutability":"view","type":"function"},{"inputs":[{"internalType":"bytes32","name":"nullifier","type":"bytes32"},{"internalType":"address","name":"recipient","type":"address"},{"internalType":"uint64","name":"token","type":"uint64"},{"internalType":"uint256","name":"amount","type":"uint256"},{"internalType":"bytes","name":"balanceProof","type":"bytes"},{"internalType":"bytes","name":"publicValues","type":"bytes"}],"name":"withdraw","outputs":[],"stateMutability":"nonpayable","type":"function"},{"stateMutability":"payable","type":"receive"}],"evm":{"bytecode":{"linkReferences":{},"object":"608060405234801561001057600080fd5b506040516115f33803806115f383398101604081905261002f916100af565b600080546001600160a01b03199081166001600160a01b03948516178255600180548216939094169290921790925590805260026020527fac33ff75c19e70fe83507db0d683fd3465c996598dc972688b7ace676c89077b805490911690556100e2565b80516001600160a01b03811681146100aa57600080fd5b919050565b600080604083850312156100c257600080fd5b6100cb83610093565b91506100d960208401610093565b90509250929050565b611502806100f16000396000f3fe6080604052600436106100d55760003560e01c806398ffd55011610079578063d4a82dc511610056578063d4a82dc5146102bb578063eb3349b9146102db578063f382affa14610366578063ffc21d5e1461038657005b806398ffd5501461020e578063b70773c01461022e578063d43ffa2f1461029b57005b806352a07fa3116100b257806352a07fa31461017e578063839df9451461019e578063929f9a38146101ce57806394137c90146101ee57005b80632997e86b146100de578063309f477a14610123578063495906571461015b57005b366100dc57005b005b3480156100ea57600080fd5b5061010e6100f9366004611069565b60046020526000908152604090205460ff1681565b60405190151581526020015b60405180910390f35b34801561012f57600080fd5b50600154610143906001600160a01b031681565b6040516001600160a01b03909116815260200161011a565b34801561016757600080fd5b506101706103bc565b60405190815260200161011a565b34801561018a57600080fd5b50600054610143906001600160a01b031681565b3480156101aa57600080fd5b5061010e6101b9366004611069565b60036020526000908152604090205460ff1681565b3480156101da57600080fd5b506100dc6101e93660046110f8565b610469565b3480156101fa57600080fd5b5061010e61020936600461119b565b610712565b34801561021a57600080fd5b506100dc6102293660046111bd565b610723565b34801561023a57600080fd5b5061024e61024936600461119b565b6107e9565b60405161011a9190600060a0820190506001600160401b03835116825260208301516020830152604083015160408301526060830151606083015260808301511515608083015292915050565b3480156102a757600080fd5b506100dc6102b63660046111f0565b61088c565b3480156102c757600080fd5b506101706102d6366004611069565b610b5d565b3480156102e757600080fd5b506103326102f636600461119b565b600660205260009081526040902080546001820154600283015460038401546004909401546001600160401b0390931693919290919060ff1685565b604080516001600160401b03909616865260208601949094529284019190915260608301521515608082015260a00161011a565b34801561037257600080fd5b506100dc610381366004611269565b610b7e565b34801561039257600080fd5b506101436103a1366004611293565b6002602052600090815260409020546001600160a01b031681565b60055460009081036103ce5750600090565b600060056000815481106103e4576103e46112ae565b600091825260209091200154905060015b600554811015610463578160058281548110610413576104136112ae565b9060005260206000200154604051602001610438929190918252602082015260400190565b604051602081830303815290604052805190602001209150808061045b906112da565b9150506103f5565b50919050565b60008881526004602052604090205460ff16156104c65760405162461bcd60e51b8152602060048201526016602482015275139d5b1b1a599a595c88185b1c9958591e481d5cd95960521b60448201526064015b60405180910390fd5b6001600160401b0386166000908152600260205260409020546001600160a01b03161515806104fc57506001600160401b038616155b6105185760405162461bcd60e51b81526004016104bd906112f3565b600061052682840184611356565b90506105306103bc565b8160200151146105785760405162461bcd60e51b8152602060048201526013602482015272125b9d985b1a59081b595c9adb19481c9bdbdd606a1b60448201526064016104bd565b85816040015110156105cc5760405162461bcd60e51b815260206004820152601b60248201527f496e73756666696369656e742070726f76656e2062616c616e6365000000000060448201526064016104bd565b866001600160401b031681606001516001600160401b0316146106225760405162461bcd60e51b815260206004820152600e60248201526d082e6e6cae840dad2e6dac2e8c6d60931b60448201526064016104bd565b60005460405163020a49e360e51b81526001600160a01b03909116906341493c6090610679907e9c22b4f95fb710070dc80cfce7526c4cc7780834ab328bd769ff58934e6d0590879087908b908b906004016113c9565b60006040518083038186803b15801561069157600080fd5b505afa1580156106a5573d6000803e3d6000fd5b50505060008a8152600460205260409020805460ff19166001179055506106cd878988610cb1565b887fcc9580996e4c53ac7e73439f181e208ab15831ea2d2429dd12ee742c1c475b6f426040516106ff91815260200190565b60405180910390a2505050505050505050565b600061071d82610e78565b92915050565b6001546001600160a01b0316331461077d5760405162461bcd60e51b815260206004820152601960248201527f4f6e6c7920636f6d706c69616e636520617574686f726974790000000000000060448201526064016104bd565b6001600160401b03821660008181526002602090815260409182902080546001600160a01b0319166001600160a01b03861690811790915591519182527f4c033c7cff3d5550ac33240c2f1c3e0956d087b14191141d9eb5ff40beb54722910160405180910390a25050565b6108266040518060a0016040528060006001600160401b031681526020016000815260200160008152602001600081526020016000151581525090565b506001600160a01b0316600090815260066020908152604091829020825160a08101845281546001600160401b031681526001820154928101929092526002810154928201929092526003820154606082015260049091015460ff161515608082015290565b61089533610e78565b6108e15760405162461bcd60e51b815260206004820152601860248201527f4e6f2076616c69642070656e64696e67206465706f736974000000000000000060448201526064016104bd565b60008581526003602052604090205460ff16156109405760405162461bcd60e51b815260206004820152601760248201527f436f6d6d69746d656e7420616c7265616479207573656400000000000000000060448201526064016104bd565b600061094e82840184611402565b805190915086146109975760405162461bcd60e51b8152602060048201526013602482015272086dedadad2e8dacadce840dad2e6dac2e8c6d606b1b60448201526064016104bd565b60015460208201516001600160a01b039081169116146109ed5760405162461bcd60e51b8152602060048201526011602482015270496e76616c696420617574686f7269747960781b60448201526064016104bd565b42816040015111610a365760405162461bcd60e51b815260206004820152601360248201527210d95c9d1a599a58d85d1948195e1c1a5c9959606a1b60448201526064016104bd565b60005460405163020a49e360e51b81526001600160a01b03909116906341493c6090610a8d907eed1611619b8f2866de7be17d81a9d42a869b4c5959629708f125ae34a2f9ee90879087908b908b906004016113c9565b60006040518083038186803b158015610aa557600080fd5b505afa158015610ab9573d6000803e3d6000fd5b50505060008781526003602090815260408083208054600160ff199182168117909255600580548084019091557f036b6384b5eca791c62761152d0c79bb0604c104a5fb6f4eb0703f3154bb3db0018c9055338552600684529382902060040180549094161790925590514281528892507f02d0beb141922199e99106aa1e9e523add96e905baf9299bfb1042acd145bf5c910160405180910390a2505050505050565b60058181548110610b6d57600080fd5b600091825260209091200154905081565b6001600160401b0382166000908152600260205260409020546001600160a01b0316151580610bb457506001600160401b038216155b610bd05760405162461bcd60e51b81526004016104bd906112f3565b60008111610c205760405162461bcd60e51b815260206004820152601760248201527f416d6f756e74206d75737420626520706f73697469766500000000000000000060448201526064016104bd565b6000610c2b83610f48565b6040805160a0810182526001600160401b039586168152602080820195865281830193845242606083019081526000608084018181523382526006909352939093209151825467ffffffffffffffff1916971696909617815593516001850155905160028401555160038301555090516004909101805460ff1916911515919091179055565b826001600160401b0316600003610d4e5780471015610d125760405162461bcd60e51b815260206004820152601860248201527f496e73756666696369656e74204554482062616c616e6365000000000000000060448201526064016104bd565b6040516001600160a01b0383169082156108fc029083906000818181858888f19350505050158015610d48573d6000803e3d6000fd5b50505050565b6001600160401b0383166000908152600260205260409020546001600160a01b031680610d8d5760405162461bcd60e51b81526004016104bd906112f3565b6040516001600160a01b038481166024830152604482018490526000919083169060640160408051601f198184030181529181526020820180516001600160e01b031663a9059cbb60e01b17905251610de6919061144f565b6000604051808303816000865af19150503d8060008114610e23576040519150601f19603f3d011682016040523d82523d6000602084013e610e28565b606091505b5050905080610e715760405162461bcd60e51b8152602060048201526015602482015274151bdad95b881d1c985b9cd9995c8819985a5b1959605a1b60448201526064016104bd565b5050505050565b6001600160a01b0381166000908152600660209081526040808320815160a08101835281546001600160401b03168152600182015493810193909352600281015491830191909152600381015460608301526004015460ff1615156080820181905280610ee757506060810151155b15610ef55750600092915050565b6000610f048260000151610f48565b6020830151604084015191925090600090610f1f908461147e565b90506000610f2e606484611491565b9050610f3a818461147e565b909110159695505050505050565b6000816001600160401b0316600003610f62575047919050565b6001600160401b0382166000908152600260205260409020546001600160a01b031680610f925750600092915050565b60405130602482015260009081906001600160a01b0384169060440160408051601f198184030181529181526020820180516001600160e01b03166370a0823160e01b17905251610fe3919061144f565b600060405180830381855afa9150503d806000811461101e576040519150601f19603f3d011682016040523d82523d6000602084013e611023565b606091505b509150915081801561103757506020815110155b15611059578080602001905181019061105091906114b3565b95945050505050565b506000949350505050565b919050565b60006020828403121561107b57600080fd5b5035919050565b80356001600160a01b038116811461106457600080fd5b80356001600160401b038116811461106457600080fd5b60008083601f8401126110c257600080fd5b5081356001600160401b038111156110d957600080fd5b6020830191508360208285010111156110f157600080fd5b9250929050565b60008060008060008060008060c0898b03121561111457600080fd5b8835975061112460208a01611082565b965061113260408a01611099565b95506060890135945060808901356001600160401b038082111561115557600080fd5b6111618c838d016110b0565b909650945060a08b013591508082111561117a57600080fd5b506111878b828c016110b0565b999c989b5096995094979396929594505050565b6000602082840312156111ad57600080fd5b6111b682611082565b9392505050565b600080604083850312156111d057600080fd5b6111d983611099565b91506111e760208401611082565b90509250929050565b60008060008060006060868803121561120857600080fd5b8535945060208601356001600160401b038082111561122657600080fd5b61123289838a016110b0565b9096509450604088013591508082111561124b57600080fd5b50611258888289016110b0565b969995985093965092949392505050565b6000806040838503121561127c57600080fd5b61128583611099565b946020939093013593505050565b6000602082840312156112a557600080fd5b6111b682611099565b634e487b7160e01b600052603260045260246000fd5b634e487b7160e01b600052601160045260246000fd5b6000600182016112ec576112ec6112c4565b5060010190565b602080825260139082015272151bdad95b881b9bdd081cdd5c1c1bdc9d1959606a1b604082015260600190565b604051608081016001600160401b038111828210171561135057634e487b7160e01b600052604160045260246000fd5b60405290565b60006080828403121561136857600080fd5b611370611320565b82358152602083013560208201526040830135604082015261139460608401611099565b60608201529392505050565b81835281816020850137506000828201602090810191909152601f909101601f19169091010190565b8581526060602082015260006113e36060830186886113a0565b82810360408401526113f68185876113a0565b98975050505050505050565b60006080828403121561141457600080fd5b61141c611320565b8235815261142c60208401611082565b602082015260408301356040820152606083013560608201528091505092915050565b6000825160005b818110156114705760208186018101518583015201611456565b506000920191825250919050565b8181038181111561071d5761071d6112c4565b6000826114ae57634e487b7160e01b600052601260045260246000fd5b500490565b6000602082840312156114c557600080fd5b505191905056fea26469706673582212207cfb47dee4e664eea6c7a466083c999744c7698a62b79a5b66d8d53c60f8273664736f6c63430008130033","opcodes":"PUSH1 0x80 PUSH1 0x40 MSTORE CALLVALUE DUP1 ISZERO PUSH2 0x10 JUMPI PUSH1 0x0 DUP1 REVERT JUMPDEST POP PUSH1 0x40 MLOAD PUSH2 0x15F3 CODESIZE SUB DUP1 PUSH2 0x15F3 DUP4 CODECOPY DUP2 ADD PUSH1 0x40 DUP2 SWAP1 MSTORE PUSH2 0x2F SWAP2 PUSH2 0xAF JUMP JUMPDEST PUSH1 0x0 DUP1 SLOAD PUSH1 0x1 PUSH1 0x1 PUSH1 0xA0 SHL SUB NOT SWAP1 DUP2 AND PUSH1 0x1 PUSH1 0x1 PUSH1 0xA0 SHL SUB SWAP5 DUP6 AND OR DUP3 SSTORE PUSH1 0x1 DUP1 SLOAD DUP3 AND SWAP4 SWAP1 SWAP5 AND SWAP3 SWAP1 SWAP3 OR SWAP1 SWAP3 SSTORE SWAP1 DUP1 MSTORE PUSH1 0x2 PUSH1 0x20 MSTORE PUSH32 0xAC33FF75C19E70FE83507DB0D683FD3465C996598DC972688B7ACE676C89077B DUP1 SLOAD SWAP1 SWAP2 AND SWAP1 SSTORE PUSH2 0xE2 JUMP JUMPDEST DUP1 MLOAD PUSH1 0x1 PUSH1 0x1 PUSH1 0xA0 SHL SUB DUP2 AND DUP2 EQ PUSH2 0xAA JUMPI PUSH1 0x0 DUP1 REVERT JUMPDEST SWAP2 SWAP1 POP JUMP JUMPDEST PUSH1 0x0 DUP1 PUSH1 0x40 DUP4 DUP6 SUB SLT ISZERO PUSH2 0xC2 JUMPI PUSH1 0x0 DUP1 REVERT JUMPDEST PUSH2 0xCB DUP4 PUSH2 0x93 JUMP JUMPDEST SWAP2 POP PUSH2 0xD9 PUSH1 0x20 DUP5 ADD PUSH2 0x93 JUMP JUMPDEST SWAP1 POP SWAP3 POP SWAP3 SWAP1 POP JUMP JUMPDEST PUSH2 0x1502 DUP1 PUSH2 0xF1 PUSH1 0x0 CODECOPY PUSH1 0x0 RETURN INVALID PUSH1 0x80 PUSH1 0x40 MSTORE PUSH1 0x4 CALLDATASIZE LT PUSH2 0xD5 JUMPI PUSH1 0x0 CALLDATALOAD PUSH1 0xE0 SHR DUP1 PUSH4 0x98FFD550 GT PUSH2 0x79 JUMPI DUP1 PUSH4 0xD4A82DC5 GT PUSH2 0x56 JUMPI DUP1 PUSH4 0xD4A82DC5 EQ PUSH2 0x2BB JUMPI DUP1 PUSH4 0xEB3349B9 EQ PUSH2 0x2DB JUMPI DUP1 PUSH4 0xF382AFFA EQ PUSH2 0x366 JUMPI DUP1 PUSH4 0xFFC21D5E EQ PUSH2 0x386 JUMPI STOP JUMPDEST DUP1 PUSH4 0x98FFD550 EQ PUSH2 0x20E JUMPI DUP1 PUSH4 0xB70773C0 EQ PUSH2 0x22E JUMPI DUP1 PUSH4 0xD43FFA2F EQ PUSH2 0x29B JUMPI STOP JUMPDEST DUP1 PUSH4 0x52A07FA3 GT PUSH2 0xB2 JUMPI DUP1 PUSH4 0x52A07FA3 EQ PUSH2 0x17E JUMPI DUP1 PUSH4 0x839DF945 EQ PUSH2 0x19E JUMPI DUP1 PUSH4 0x929F9A38 EQ PUSH2 0x1CE JUMPI DUP1 PUSH4 0x94137C90 EQ PUSH2 0x1EE JUMPI STOP JUMPDEST DUP1 PUSH4 0x2997E86B EQ PUSH2 0xDE JUMPI DUP1 PUSH4 0x309F477A EQ PUSH2 0x123 JUMPI DUP1 PUSH4 0x49590657 EQ PUSH2 0x15B JUMPI STOP JUMPDEST CALLDATASIZE PUSH2 0xDC JUMPI STOP JUMPDEST STOP JUMPDEST CALLVALUE DUP1 ISZERO PUSH2 0xEA JUMPI PUSH1 0x0 DUP1 REVERT JUMPDEST POP PUSH2 0x10E PUSH2 0xF9 CALLDATASIZE PUSH1 0x4 PUSH2 0x1069 JUMP JUMPDEST PUSH1 0x4 PUSH1 0x20 MSTORE PUSH1 0x0 SWAP1 DUP2 MSTORE PUSH1 0x40 SWAP1 KECCAK256 SLOAD PUSH1 0xFF AND DUP2 JUMP JUMPDEST PUSH1 0x40 MLOAD SWAP1 ISZERO ISZERO DUP2 MSTORE PUSH1 0x20 ADD JUMPDEST PUSH1 0x40 MLOAD DUP1 SWAP2 SUB SWAP1 RETURN JUMPDEST CALLVALUE DUP1 ISZERO PUSH2 0x12F JUMPI PUSH1 0x0 DUP1 REVERT JUMPDEST POP PUSH1 0x1 SLOAD PUSH2 0x143 SWAP1 PUSH1 0x1 PUSH1 0x1 PUSH1 0xA0 SHL SUB AND DUP2 JUMP JUMPDEST PUSH1 0x40 MLOAD PUSH1 0x1 PUSH1 0x1 PUSH1 0xA0 SHL SUB SWAP1 SWAP2 AND DUP2 MSTORE PUSH1 0x20 ADD PUSH2 0x11A JUMP JUMPDEST CALLVALUE DUP1 ISZERO PUSH2 0x167 JUMPI PUSH1 0x0 DUP1 REVERT JUMPDEST POP PUSH2 0x170 PUSH2 0x3BC JUMP JUMPDEST PUSH1 0x40 MLOAD SWAP1 DUP2 MSTORE PUSH1 0x20 ADD PUSH2 0x11A JUMP JUMPDEST CALLVALUE DUP1 ISZERO PUSH2 0x18A JUMPI PUSH1 0x0 DUP1 REVERT JUMPDEST POP PUSH1 0x0 SLOAD PUSH2 0x143 SWAP1 PUSH1 0x1 PUSH1 0x1 PUSH1 0xA0 SHL SUB AND DUP2 JUMP JUMPDEST CALLVALUE DUP1 ISZERO PUSH2 0x1AA JUMPI PUSH1 0x0 DUP1 REVERT JUMPDEST POP PUSH2 0x10E PUSH2 0x1B9 CALLDATASIZE PUSH1 0x4 PUSH2 0x1069 JUMP JUMPDEST PUSH1 0x3 PUSH1 0x20 MSTORE PUSH1 0x0 SWAP1 DUP2 MSTORE PUSH1 0x40 SWAP1 KECCAK256 SLOAD PUSH1 0xFF AND DUP2 JUMP JUMPDEST CALLVALUE DUP1 ISZERO PUSH2 0x1DA JUMPI PUSH1 0x0 DUP1 REVERT JUMPDEST POP PUSH2 0xDC PUSH2 0x1E9 CALLDATASIZE PUSH1 0x4 PUSH2 0x10F8 JUMP JUMPDEST PUSH2 0x469 JUMP JUMPDEST CALLVALUE DUP1 ISZERO PUSH2 0x1FA JUMPI PUSH1 0x0 DUP1 REVERT JUMPDEST POP PUSH2 0x10E PUSH2 0x209 CALLDATASIZE PUSH1 0x4 PUSH2 0x119B JUMP JUMPDEST PUSH2 0x712 JUMP JUMPDEST CALLVALUE DUP1 ISZERO PUSH2 0x21A JUMPI PUSH1 0x0 DUP1 REVERT JUMPDEST POP PUSH2 0xDC PUSH2 0x229 CALLDATASIZE PUSH1 0x4 PUSH2 0x11BD JUMP JUMPDEST PUSH2 0x723 JUMP JUMPDEST CALLVALUE DUP1 ISZERO PUSH2 0x23A JUMPI PUSH1 0x0 DUP1 REVERT JUMPDEST POP PUSH2 0x24E PUSH2 0x249 CALLDATASIZE PUSH1 0x4 PUSH2 0x119B JUMP JUMPDEST PUSH2 0x7E9 JUMP JUMPDEST PUSH1 0x40 MLOAD PUSH2 0x11A SWAP2 SWAP1 PUSH1 0x0 PUSH1 0xA0 DUP3 ADD SWAP1 POP PUSH1 0x1 PUSH1 0x1 PUSH1 0x40 SHL SUB DUP4 MLOAD AND DUP3 MSTORE PUSH1 0x20 DUP4 ADD MLOAD PUSH1 0x20 DUP4 ADD MSTORE PUSH1 0x40 DUP4 ADD MLOAD PUSH1 0x40 DUP4 ADD MSTORE PUSH1 0x60 DUP4 ADD MLOAD PUSH1 0x60 DUP4 ADD MSTORE PUSH1 0x80 DUP4 ADD MLOAD ISZERO ISZERO PUSH1 0x80 DUP4 ADD MSTORE SWAP3 SWAP2 POP POP JUMP JUMPDEST CALLVALUE DUP1 ISZERO PUSH2 0x2A7 JUMPI PUSH1 0x0 DUP1 REVERT JUMPDEST POP PUSH2 0xDC PUSH2 0x2B6 CALLDATASIZE PUSH1 0x4 PUSH2 0x11F0 JUMP JUMPDEST PUSH2 0x88C JUMP JUMPDEST CALLVALUE DUP1 ISZERO PUSH2 0x2C7 JUMPI PUSH1 0x0 DUP1 REVERT JUMPDEST POP PUSH2 0x170 PUSH2 0x2D6 CALLDATASIZE PUSH1 0x4 PUSH2 0x1069 JUMP JUMPDEST PUSH2 0xB5D JUMP JUMPDEST CALLVALUE DUP1 ISZERO PUSH2 0x2E7 JUMPI PUSH1 0x0 DUP1 REVERT JUMPDEST POP PUSH2 0x332 PUSH2 0x2F6 CALLDATASIZE PUSH1 0x4 PUSH2 0x119B JUMP JUMPDEST PUSH1 0x6 PUSH1 0x20 MSTORE PUSH1 0x0 SWAP1 DUP2 MSTORE PUSH1 0x40 SWAP1 KECCAK256 DUP1 SLOAD PUSH1 0x1 DUP3 ADD SLOAD PUSH1 0x2 DUP4 ADD SLOAD PUSH1 0x3 DUP5 ADD SLOAD PUSH1 0x4 SWAP1 SWAP5 ADD SLOAD PUSH1 0x1 PUSH1 0x1 PUSH1 0x40 SHL SUB SWAP1 SWAP4 AND SWAP4 SWAP2 SWAP3 SWAP1 SWAP2 SWAP1 PUSH1 0xFF AND DUP6 JUMP JUMPDEST PUSH1 0x40 DUP1 MLOAD PUSH1 0x1 PUSH1 0x1 PUSH1 0x40 SHL SUB SWAP1 SWAP7 AND DUP7 MSTORE PUSH1 0x20 DUP7 ADD SWAP5 SWAP1 SWAP5 MSTORE SWAP3 DUP5 ADD SWAP2 SWAP1 SWAP2 MSTORE PUSH1 0x60 DUP4 ADD MSTORE ISZERO ISZERO PUSH1 0x80 DUP3 ADD MSTORE PUSH1 0xA0 ADD PUSH2 0x11A JUMP JUMPDEST CALLVALUE DUP1 ISZERO PUSH2 0x372 JUMPI PUSH1 0x0 DUP1 REVERT JUMPDEST POP PUSH2 0xDC PUSH2 0x381 CALLDATASIZE PUSH1 0x4 PUSH2 0x1269 JUMP JUMPDEST PUSH2 0xB7E JUMP JUMPDEST CALLVALUE DUP1 ISZERO PUSH2 0x392 JUMPI PUSH1 0x0 DUP1 REVERT JUMPDEST POP PUSH2 0x143 PUSH2 0x3A1 CALLDATASIZE PUSH1 0x4 PUSH2 0x1293 JUMP JUMPDEST PUSH1 0x2 PUSH1 0x20 MSTORE PUSH1 0x0 SWAP1 DUP2 MSTORE PUSH1 0x40 SWAP1 KECCAK256 SLOAD PUSH1 0x1 PUSH1 0x1 PUSH1 0xA0 SHL SUB AND DUP2 JUMP JUMPDEST PUSH1 0x5 SLOAD PUSH1 0x0 SWAP1 DUP2 SUB PUSH2 0x3CE JUMPI POP PUSH1 0x0 SWAP1 JUMP JUMPDEST PUSH1 0x0 PUSH1 0x5 PUSH1 0x0 DUP2 SLOAD DUP2 LT PUSH2 0x3E4 JUMPI PUSH2 0x3E4 PUSH2 0x12AE JUMP JUMPDEST PUSH1 0x0 SWAP2 DUP3 MSTORE PUSH1 0x20 SWAP1 SWAP2 KECCAK256 ADD SLOAD SWAP1 POP PUSH1 0x1 JUMPDEST PUSH1 0x5 SLOAD DUP2 LT ISZERO PUSH2 0x463 JUMPI DUP2 PUSH1 0x5 DUP3 DUP2 SLOAD DUP2 LT PUSH2 0x413 JUMPI PUSH2 0x413 PUSH2 0x12AE JUMP JUMPDEST SWAP1 PUSH1 0x0 MSTORE PUSH1 0x20 PUSH1 0x0 KECCAK256 ADD SLOAD PUSH1 0x40 MLOAD PUSH1 0x20 ADD PUSH2 0x438 SWAP3 SWAP2 SWAP1 SWAP2 DUP3 MSTORE PUSH1 0x20 DUP3 ADD MSTORE PUSH1 0x40 ADD SWAP1 JUMP JUMPDEST PUSH1 0x40 MLOAD PUSH1 0x20 DUP2 DUP4 SUB SUB DUP2 MSTORE SWAP1 PUSH1 0x40 MSTORE DUP1 MLOAD SWAP1 PUSH1 0x20 ADD KECCAK256 SWAP2 POP DUP1 DUP1 PUSH2 0x45B SWAP1 PUSH2 0x12DA JUMP JUMPDEST SWAP2 POP POP PUSH2 0x3F5 JUMP JUMPDEST POP SWAP2 SWAP1 POP JUMP JUMPDEST PUSH1 0x0 DUP9 DUP2 MSTORE PUSH1 0x4 PUSH1 0x20 MSTORE PUSH1 0x40 SWAP1 KECCAK256 SLOAD PUSH1 0xFF AND ISZERO PUSH2 0x4C6 JUMPI PUSH1 0x40 MLOAD PUSH3 0x461BCD PUSH1 0xE5 SHL DUP2 MSTORE PUSH1 0x20 PUSH1 0x4 DUP3 ADD MSTORE PUSH1 0x16 PUSH1 0x24 DUP3 ADD MSTORE PUSH22 0x139D5B1B1A599A595C88185B1C9958591E481D5CD959 PUSH1 0x52 SHL PUSH1 0x44 DUP3 ADD MSTORE PUSH1 0x64 ADD JUMPDEST PUSH1 0x40 MLOAD DUP1 SWAP2 SUB SWAP1 REVERT JUMPDEST PUSH1 0x1 PUSH1 0x1 PUSH1 0x40 SHL SUB DUP7 AND PUSH1 0x0 SWAP1 DUP2 MSTORE PUSH1 0x2 PUSH1 0x20 MSTORE PUSH1 0x40 SWAP1 KECCAK256 SLOAD PUSH1 0x1 PUSH1 0x1 PUSH1 0xA0 SHL SUB AND ISZERO ISZERO DUP1 PUSH2 0x4FC JUMPI POP PUSH1 0x1 PUSH1 0x1 PUSH1 0x40 SHL SUB DUP7 AND ISZERO JUMPDEST PUSH2 0x518 JUMPI PUSH1 0x40 MLOAD PUSH3 0x461BCD PUSH1 0xE5 SHL DUP2 MSTORE PUSH1 0x4 ADD PUSH2 0x4BD SWAP1 PUSH2 0x12F3 JUMP JUMPDEST PUSH1 0x0 PUSH2 0x526 DUP3 DUP5 ADD DUP5 PUSH2 0x1356 JUMP JUMPDEST SWAP1 POP PUSH2 0x530 PUSH2 0x3BC JUMP JUMPDEST DUP2 PUSH1 0x20 ADD MLOAD EQ PUSH2 0x578 JUMPI PUSH1 0x40 MLOAD PUSH3 0x461BCD PUSH1 0xE5 SHL DUP2 MSTORE PUSH1 0x20 PUSH1 0x4 DUP3 ADD MSTORE PUSH1 0x13 PUSH1 0x24 DUP3 ADD MSTORE PUSH19 0x125B9D985B1A59081B595C9ADB19481C9BDBDD PUSH1 0x6A SHL PUSH1 0x44 DUP3 ADD MSTORE PUSH1 0x64 ADD PUSH2 0x4BD JUMP JUMPDEST DUP6 DUP2 PUSH1 0x40 ADD MLOAD LT ISZERO PUSH2 0x5CC JUMPI PUSH1 0x40 MLOAD PUSH3 0x461BCD PUSH1 0xE5 SHL DUP2 MSTORE PUSH1 0x20 PUSH1 0x4 DUP3 ADD MSTORE PUSH1 0x1B PUSH1 0x24 DUP3 ADD MSTORE PUSH32 0x496E73756666696369656E742070726F76656E2062616C616E63650000000000 PUSH1 0x44 DUP3 ADD MSTORE PUSH1 0x64 ADD PUSH2 0x4BD JUMP JUMPDEST DUP7 PUSH1 0x1 PUSH1 0x1 PUSH1 0x40 SHL SUB AND DUP2 PUSH1 0x60 ADD MLOAD PUSH1 0x1 PUSH1 0x1 PUSH1 0x40 SHL SUB AND EQ PUSH2 0x622 JUMPI PUSH1 0x40 MLOAD PUSH3 0x461BCD PUSH1 0xE5 SHL DUP2 MSTORE PUSH1 0x20 PUSH1 0x4 DUP3 ADD MSTORE PUSH1 0xE PUSH1 0x24 DUP3 ADD MSTORE PUSH14 0x82E6E6CAE840DAD2E6DAC2E8C6D PUSH1 0x93 SHL PUSH1 0x44 DUP3 ADD MSTORE PUSH1 0x64 ADD PUSH2 0x4BD JUMP JUMPDEST PUSH1 0x0 SLOAD PUSH1 0x40 MLOAD PUSH4 0x20A49E3 PUSH1 0xE5 SHL DUP2 MSTORE PUSH1 0x1 PUSH1 0x1 PUSH1 0xA0 SHL SUB SWAP1 SWAP2 AND SWAP1 PUSH4 0x41493C60 SWAP1 PUSH2 0x679 SWAP1 PUSH31 0x9C22B4F95FB710070DC80CFCE7526C4CC7780834AB328BD769FF58934E6D05 SWAP1 DUP8 SWAP1 DUP8 SWAP1 DUP12 SWAP1 DUP12 SWAP1 PUSH1 0x4 ADD PUSH2 0x13C9 JUMP JUMPDEST PUSH1 0x0 PUSH1 0x40 MLOAD DUP1 DUP4 SUB DUP2 DUP7 DUP1 EXTCODESIZE ISZERO DUP1 ISZERO PUSH2 0x691 JUMPI PUSH1 0x0 DUP1 REVERT JUMPDEST POP GAS STATICCALL ISZERO DUP1 ISZERO PUSH2 0x6A5 JUMPI RETURNDATASIZE PUSH1 0x0 DUP1 RETURNDATACOPY RETURNDATASIZE PUSH1 0x0 REVERT JUMPDEST POP POP POP PUSH1 0x0 DUP11 DUP2 MSTORE PUSH1 0x4 PUSH1 0x20 MSTORE PUSH1 0x40 SWAP1 KECCAK256 DUP1 SLOAD PUSH1 0xFF NOT AND PUSH1 0x1 OR SWAP1 SSTORE POP PUSH2 0x6CD DUP8 DUP10 DUP9 PUSH2 0xCB1 JUMP JUMPDEST DUP9 PUSH32 0xCC9580996E4C53AC7E73439F181E208AB15831EA2D2429DD12EE742C1C475B6F TIMESTAMP PUSH1 0x40 MLOAD PUSH2 0x6FF SWAP2 DUP2 MSTORE PUSH1 0x20 ADD SWAP1 JUMP JUMPDEST PUSH1 0x40 MLOAD DUP1 SWAP2 SUB SWAP1 LOG2 POP POP POP POP POP POP POP POP POP JUMP JUMPDEST PUSH1 0x0 PUSH2 0x71D DUP3 PUSH2 0xE78 JUMP JUMPDEST SWAP3 SWAP2 POP POP JUMP JUMPDEST PUSH1 0x1 SLOAD PUSH1 0x1 PUSH1 0x1 PUSH1 0xA0 SHL SUB AND CALLER EQ PUSH2 0x77D JUMPI PUSH1 0x40 MLOAD PUSH3 0x461BCD PUSH1 0xE5 SHL DUP2 MSTORE PUSH1 0x20 PUSH1 0x4 DUP3 ADD MSTORE PUSH1 0x19 PUSH1 0x24 DUP3 ADD MSTORE PUSH32 0x4F6E6C7920636F6D706C69616E636520617574686F7269747900000000000000 PUSH1 0x44 DUP3 ADD MSTORE PUSH1 0x64 ADD PUSH2 0x4BD JUMP JUMPDEST PUSH1 0x1 PUSH1 0x1 PUSH1 0x40 SHL SUB DUP3 AND PUSH1 0x0 DUP2 DUP2 MSTORE PUSH1 0x2 PUSH1 0x20 SWAP1 DUP2 MSTORE PUSH1 0x40 SWAP2 DUP3 SWAP1 KECCAK256 DUP1 SLOAD PUSH1 0x1 PUSH1 0x1 PUSH1 0xA0 SHL SUB NOT AND PUSH1 0x1 PUSH1 0x1 PUSH1 0xA0 SHL SUB DUP7 AND SWAP1 DUP2 OR SWAP1 SWAP2 SSTORE SWAP2 MLOAD SWAP2 DUP3 MSTORE PUSH32 0x4C033C7CFF3D5550AC33240C2F1C3E0956D087B14191141D9EB5FF40BEB54722 SWAP2 ADD PUSH1 0x40 MLOAD DUP1 SWAP2 SUB SWAP1 LOG2 POP POP JUMP JUMPDEST PUSH2 0x826 PUSH1 0x40 MLOAD DUP1 PUSH1 0xA0 ADD PUSH1 0x40 MSTORE DUP1 PUSH1 0x0 PUSH1 0x1 PUSH1 0x1 PUSH1 0x40 SHL SUB AND DUP2 MSTORE PUSH1 0x20 ADD PUSH1 0x0 DUP2 MSTORE PUSH1 0x20 ADD PUSH1 0x0 DUP2 MSTORE PUSH1 0x20 ADD PUSH1 0x0 DUP2 MSTORE PUSH1 0x20 ADD PUSH1 0x0 ISZERO ISZERO DUP2 MSTORE POP SWAP1 JUMP JUMPDEST POP PUSH1 0x1 PUSH1 0x1 PUSH1 0xA0 SHL SUB AND PUSH1 0x0 SWAP1 DUP2 MSTORE PUSH1 0x6 PUSH1 0x20 SWAP1 DUP2 MSTORE PUSH1 0x40 SWAP2 DUP3 SWAP1 KECCAK256 DUP3 MLOAD PUSH1 0xA0 DUP2 ADD DUP5 MSTORE DUP2 SLOAD PUSH1 0x1 PUSH1 0x1 PUSH1 0x40 SHL SUB AND DUP2 MSTORE PUSH1 0x1 DUP3 ADD SLOAD SWAP3 DUP2 ADD SWAP3 SWAP1 SWAP3 MSTORE PUSH1 0x2 DUP2 ADD SLOAD SWAP3 DUP3 ADD SWAP3 SWAP1 SWAP3 MSTORE PUSH1 0x3 DUP3 ADD SLOAD PUSH1 0x60 DUP3 ADD MSTORE PUSH1 0x4 SWAP1 SWAP2 ADD SLOAD PUSH1 0xFF AND ISZERO ISZERO PUSH1 0x80 DUP3 ADD MSTORE SWAP1 JUMP JUMPDEST PUSH2 0x895 CALLER PUSH2 0xE78 JUMP JUMPDEST PUSH2 0x8E1 JUMPI PUSH1 0x40 MLOAD PUSH3 0x461BCD PUSH1 0xE5 SHL DUP2 MSTORE PUSH1 0x20 PUSH1 0x4 DUP3 ADD MSTORE PUSH1 0x18 PUSH1 0x24 DUP3 ADD MSTORE PUSH32 0x4E6F2076616C69642070656E64696E67206465706F7369740000000000000000 PUSH1 0x44 DUP3 ADD MSTORE PUSH1 0x64 ADD PUSH2 0x4BD JUMP JUMPDEST PUSH1 0x0 DUP6 DUP2 MSTORE PUSH1 0x3 PUSH1 0x20 MSTORE PUSH1 0x40 SWAP1 KECCAK256 SLOAD PUSH1 0xFF AND ISZERO PUSH2 0x940 JUMPI PUSH1 0x40 MLOAD PUSH3 0x461BCD PUSH1 0xE5 SHL DUP2 MSTORE PUSH1 0x20 PUSH1 0x4 DUP3 ADD MSTORE PUSH1 0x17 PUSH1 0x24 DUP3 ADD MSTORE PUSH32 0x436F6D6D69746D656E7420616C72656164792075736564000000000000000000 PUSH1 0x44 DUP3 ADD MSTORE PUSH1 0x64 ADD PUSH2 0x4BD JUMP JUMPDEST PUSH1 0x0 PUSH2 0x94E DUP3 DUP5 ADD DUP5 PUSH2 0x1402 JUMP JUMPDEST DUP1 MLOAD SWAP1 SWAP2 POP DUP7 EQ PUSH2 0x997 JUMPI PUSH1 0x40 MLOAD PUSH3 0x461BCD PUSH1 0xE5 SHL DUP2 MSTORE PUSH1 0x20 PUSH1 0x4 DUP3 ADD MSTORE PUSH1 0x13 PUSH1 0x24 DUP3 ADD MSTORE PUSH19 0x86DEDADAD2E8DACADCE840DAD2E6DAC2E8C6D PUSH1 0x6B SHL PUSH1 0x44 DUP3 ADD MSTORE PUSH1 0x64 ADD PUSH2 0x4BD JUMP JUMPDEST PUSH1 0x1 SLOAD PUSH1 0x20 DUP3 ADD MLOAD PUSH1 0x1 PUSH1 0x1 PUSH1 0xA0 SHL SUB SWAP1 DUP2 AND SWAP2 AND EQ PUSH2 0x9ED JUMPI PUSH1 0x40 MLOAD PUSH3 0x461BCD PUSH1 0xE5 SHL DUP2 MSTORE PUSH1 0x20 PUSH1 0x4 DUP3 ADD MSTORE PUSH1 0x11 PUSH1 0x24 DUP3 ADD MSTORE PUSH17 0x496E76616C696420617574686F72697479 PUSH1 0x78 SHL PUSH1 0x44 DUP3 ADD MSTORE PUSH1 0x64 ADD PUSH2 0x4BD JUMP JUMPDEST TIMESTAMP DUP2 PUSH1 0x40 ADD MLOAD GT PUSH2 0xA36 JUMPI PUSH1 0x40 MLOAD PUSH3 0x461BCD PUSH1 0xE5 SHL DUP2 MSTORE PUSH1 0x20 PUSH1 0x4 DUP3 ADD MSTORE PUSH1 0x13 PUSH1 0x24 DUP3 ADD MSTORE PUSH19 0x10D95C9D1A599A58D85D1948195E1C1A5C9959 PUSH1 0x6A SHL PUSH1 0x44 DUP3 ADD MSTORE PUSH1 0x64 ADD PUSH2 0x4BD JUMP JUMPDEST PUSH1 0x0 SLOAD PUSH1 0x40 MLOAD PUSH4 0x20A49E3 PUSH1 0xE5 SHL DUP2 MSTORE PUSH1 0x1 PUSH1 0x1 PUSH1 0xA0 SHL SUB SWAP1 SWAP2 AND SWAP1 PUSH4 0x41493C60 SWAP1 PUSH2 0xA8D SWAP1 PUSH31 0xED1611619B8F2866DE7BE17D81A9D42A869B4C5959629708F125AE34A2F9EE SWAP1 DUP8 SWAP1 DUP8 SWAP1 DUP12 SWAP1 DUP12 SWAP1 PUSH1 0x4 ADD PUSH2 0x13C9 JUMP JUMPDEST PUSH1 0x0 PUSH1 0x40 MLOAD DUP1 DUP4 SUB DUP2 DUP7 DUP1 EXTCODESIZE ISZERO DUP1 ISZERO PUSH2 0xAA5 JUMPI PUSH1 0x0 DUP1 REVERT JUMPDEST POP GAS STATICCALL ISZERO DUP1 ISZERO PUSH2 0xAB9 JUMPI RETURNDATASIZE PUSH1 0x0 DUP1 RETURNDATACOPY RETURNDATASIZE PUSH1 0x0 REVERT JUMPDEST POP POP POP PUSH1 0x0 DUP8 DUP2 MSTORE PUSH1 0x3 PUSH1 0x20 SWAP1 DUP2 MSTORE PUSH1 0x40 DUP1 DUP4 KECCAK256 DUP1 SLOAD PUSH1 0x1 PUSH1 0xFF NOT SWAP2 DUP3 AND DUP2 OR SWAP1 SWAP3 SSTORE PUSH1 0x5 DUP1 SLOAD DUP1 DUP5 ADD SWAP1 SWAP2 SSTORE PUSH32 0x36B6384B5ECA791C62761152D0C79BB0604C104A5FB6F4EB0703F3154BB3DB0 ADD DUP13 SWAP1 SSTORE CALLER DUP6 MSTORE PUSH1 0x6 DUP5 MSTORE SWAP4 DUP3 SWAP1 KECCAK256 PUSH1 0x4 ADD DUP1 SLOAD SWAP1 SWAP5 AND OR SWAP1 SWAP3 SSTORE SWAP1 MLOAD TIMESTAMP DUP2 MSTORE DUP9 SWAP3 POP PUSH32 0x2D0BEB141922199E99106AA1E9E523ADD96E905BAF9299BFB1042ACD145BF5C SWAP2 ADD PUSH1 0x40 MLOAD DUP1 SWAP2 SUB SWAP1 LOG2 POP POP POP POP POP POP JUMP JUMPDEST PUSH1 0x5 DUP2 DUP2 SLOAD DUP2 LT PUSH2 0xB6D JUMPI PUSH1 0x0 DUP1 REVERT JUMPDEST PUSH1 0x0 SWAP2 DUP3 MSTORE PUSH1 0x20 SWAP1 SWAP2 KECCAK256 ADD SLOAD SWAP1 POP DUP2 JUMP JUMPDEST PUSH1 0x1 PUSH1 0x1 PUSH1 0x40 SHL SUB DUP3 AND PUSH1 0x0 SWAP1 DUP2 MSTORE PUSH1 0x2 PUSH1 0x20 MSTORE PUSH1 0x40 SWAP1 KECCAK256 SLOAD PUSH1 0x1 PUSH1 0x1 PUSH1 0xA0 SHL SUB AND ISZERO ISZERO DUP1 PUSH2 0xBB4 JUMPI POP PUSH1 0x1 PUSH1 0x1 PUSH1 0x40 SHL SUB DUP3 AND ISZERO JUMPDEST PUSH2 0xBD0 JUMPI PUSH1 0x40 MLOAD PUSH3 0x461BCD PUSH1 0xE5 SHL DUP2 MSTORE PUSH1 0x4 ADD PUSH2 0x4BD SWAP1 PUSH2 0x12F3 JUMP JUMPDEST PUSH1 0x0 DUP2 GT PUSH2 0xC20 JUMPI PUSH1 0x40 MLOAD PUSH3 0x461BCD PUSH1 0xE5 SHL DUP2 MSTORE PUSH1 0x20 PUSH1 0x4 DUP3 ADD MSTORE PUSH1 0x17 PUSH1 0x24 DUP3 ADD MSTORE PUSH32 0x416D6F756E74206D75737420626520706F736974697665000000000000000000 PUSH1 0x44 DUP3 ADD MSTORE PUSH1 0x64 ADD PUSH2 0x4BD JUMP JUMPDEST PUSH1 0x0 PUSH2 0xC2B DUP4 PUSH2 0xF48 JUMP JUMPDEST PUSH1 0x40 DUP1 MLOAD PUSH1 0xA0 DUP2 ADD DUP3 MSTORE PUSH1 0x1 PUSH1 0x1 PUSH1 0x40 SHL SUB SWAP6 DUP7 AND DUP2 MSTORE PUSH1 0x20 DUP1 DUP3 ADD SWAP6 DUP7 MSTORE DUP2 DUP4 ADD SWAP4 DUP5 MSTORE TIMESTAMP PUSH1 0x60 DUP4 ADD SWAP1 DUP2 MSTORE PUSH1 0x0 PUSH1 0x80 DUP5 ADD DUP2 DUP2 MSTORE CALLER DUP3 MSTORE PUSH1 0x6 SWAP1 SWAP4 MSTORE SWAP4 SWAP1 SWAP4 KECCAK256 SWAP2 MLOAD DUP3 SLOAD PUSH8 0xFFFFFFFFFFFFFFFF NOT AND SWAP8 AND SWAP7 SWAP1 SWAP7 OR DUP2 SSTORE SWAP4 MLOAD PUSH1 0x1 DUP6 ADD SSTORE SWAP1 MLOAD PUSH1 0x2 DUP5 ADD SSTORE MLOAD PUSH1 0x3 DUP4 ADD SSTORE POP SWAP1 MLOAD PUSH1 0x4 SWAP1 SWAP2 ADD DUP1 SLOAD PUSH1 0xFF NOT AND SWAP2 ISZERO ISZERO SWAP2 SWAP1 SWAP2 OR SWAP1 SSTORE JUMP JUMPDEST DUP3 PUSH1 0x1 PUSH1 0x1 PUSH1 0x40 SHL SUB AND PUSH1 0x0 SUB PUSH2 0xD4E JUMPI DUP1 SELFBALANCE LT ISZERO PUSH2 0xD12 JUMPI PUSH1 0x40 MLOAD PUSH3 0x461BCD PUSH1 0xE5 SHL DUP2 MSTORE PUSH1 0x20 PUSH1 0x4 DUP3 ADD MSTORE PUSH1 0x18 PUSH1 0x24 DUP3 ADD MSTORE PUSH32 0x496E73756666696369656E74204554482062616C616E63650000000000000000 PUSH1 0x44 DUP3 ADD MSTORE PUSH1 0x64 ADD PUSH2 0x4BD JUMP JUMPDEST PUSH1 0x40 MLOAD PUSH1 0x1 PUSH1 0x1 PUSH1 0xA0 SHL SUB DUP4 AND SWAP1 DUP3 ISZERO PUSH2 0x8FC MUL SWAP1 DUP4 SWAP1 PUSH1 0x0 DUP2 DUP2 DUP2 DUP6 DUP9 DUP9 CALL SWAP4 POP POP POP POP ISZERO DUP1 ISZERO PUSH2 0xD48 JUMPI RETURNDATASIZE PUSH1 0x0 DUP1 RETURNDATACOPY RETURNDATASIZE PUSH1 0x0 REVERT JUMPDEST POP POP POP POP JUMP JUMPDEST PUSH1 0x1 PUSH1 0x1 PUSH1 0x40 SHL SUB DUP4 AND PUSH1 0x0 SWAP1 DUP2 MSTORE PUSH1 0x2 PUSH1 0x20 MSTORE PUSH1 0x40 SWAP1 KECCAK256 SLOAD PUSH1 0x1 PUSH1 0x1 PUSH1 0xA0 SHL SUB AND DUP1 PUSH2 0xD8D JUMPI PUSH1 0x40 MLOAD PUSH3 0x461BCD PUSH1 0xE5 SHL DUP2 MSTORE PUSH1 0x4 ADD PUSH2 0x4BD SWAP1 PUSH2 0x12F3 JUMP JUMPDEST PUSH1 0x40 MLOAD PUSH1 0x1 PUSH1 0x1 PUSH1 0xA0 SHL SUB DUP5 DUP2 AND PUSH1 0x24 DUP4 ADD MSTORE PUSH1 0x44 DUP3 ADD DUP5 SWAP1 MSTORE PUSH1 0x0 SWAP2 SWAP1 DUP4 AND SWAP1 PUSH1 0x64 ADD PUSH1 0x40 DUP1 MLOAD PUSH1 0x1F NOT DUP2 DUP5 SUB ADD DUP2 MSTORE SWAP2 DUP2 MSTORE PUSH1 0x20 DUP3 ADD DUP1 MLOAD PUSH1 0x1 PUSH1 0x1 PUSH1 0xE0 SHL SUB AND PUSH4 0xA9059CBB PUSH1 0xE0 SHL OR SWAP1 MSTORE MLOAD PUSH2 0xDE6 SWAP2 SWAP1 PUSH2 0x144F JUMP JUMPDEST PUSH1 0x0 PUSH1 0x40 MLOAD DUP1 DUP4 SUB DUP2 PUSH1 0x0 DUP7 GAS CALL SWAP2 POP POP RETURNDATASIZE DUP1 PUSH1 0x0 DUP2 EQ PUSH2 0xE23 JUMPI PUSH1 0x40 MLOAD SWAP2 POP PUSH1 0x1F NOT PUSH1 0x3F RETURNDATASIZE ADD AND DUP3 ADD PUSH1 0x40 MSTORE RETURNDATASIZE DUP3 MSTORE RETURNDATASIZE PUSH1 0x0 PUSH1 0x20 DUP5 ADD RETURNDATACOPY PUSH2 0xE28 JUMP JUMPDEST PUSH1 0x60 SWAP2 POP JUMPDEST POP POP SWAP1 POP DUP1 PUSH2 0xE71 JUMPI PUSH1 0x40 MLOAD PUSH3 0x461BCD PUSH1 0xE5 SHL DUP2 MSTORE PUSH1 0x20 PUSH1 0x4 DUP3 ADD MSTORE PUSH1 0x15 PUSH1 0x24 DUP3 ADD MSTORE PUSH21 0x151BDAD95B881D1C985B9CD9995C8819985A5B1959 PUSH1 0x5A SHL PUSH1 0x44 DUP3 ADD MSTORE PUSH1 0x64 ADD PUSH2 0x4BD JUMP JUMPDEST POP POP POP POP POP JUMP JUMPDEST PUSH1 0x1 PUSH1 0x1 PUSH1 0xA0 SHL SUB DUP2 AND PUSH1 0x0 SWAP1 DUP2 MSTORE PUSH1 0x6 PUSH1 0x20 SWAP1 DUP2 MSTORE PUSH1 0x40 DUP1 DUP4 KECCAK256 DUP2 MLOAD PUSH1 0xA0 DUP2 ADD DUP4 MSTORE DUP2 SLOAD PUSH1 0x1 PUSH1 0x1 PUSH1 0x40 SHL SUB AND DUP2 MSTORE PUSH1 0x1 DUP3 ADD SLOAD SWAP4 DUP2 ADD SWAP4 SWAP1 SWAP4 MSTORE PUSH1 0x2 DUP2 ADD SLOAD SWAP2 DUP4 ADD SWAP2 SWAP1 SWAP2 MSTORE PUSH1 0x3 DUP2 ADD SLOAD PUSH1 0x60 DUP4 ADD MSTORE PUSH1 0x4 ADD SLOAD PUSH1 0xFF AND ISZERO ISZERO PUSH1 0x80 DUP3 ADD DUP2 SWAP1 MSTORE DUP1 PUSH2 0xEE7 JUMPI POP PUSH1 0x60 DUP2 ADD MLOAD ISZERO JUMPDEST ISZERO PUSH2 0xEF5 JUMPI POP PUSH1 0x0 SWAP3 SWAP2 POP POP JUMP JUMPDEST PUSH1 0x0 PUSH2 0xF04 DUP3 PUSH1 0x0 ADD MLOAD PUSH2 0xF48 JUMP JUMPDEST PUSH1 0x20 DUP4 ADD MLOAD PUSH1 0x40 DUP5 ADD MLOAD SWAP2 SWAP3 POP SWAP1 PUSH1 0x0 SWAP1 PUSH2 0xF1F SWAP1 DUP5 PUSH2 0x147E JUMP JUMPDEST SWAP1 POP PUSH1 0x0 PUSH2 0xF2E PUSH1 0x64 DUP5 PUSH2 0x1491 JUMP JUMPDEST SWAP1 POP PUSH2 0xF3A DUP2 DUP5 PUSH2 0x147E JUMP JUMPDEST SWAP1 SWAP2 LT ISZERO SWAP7 SWAP6 POP POP POP POP POP POP JUMP JUMPDEST PUSH1 0x0 DUP2 PUSH1 0x1 PUSH1 0x1 PUSH1 0x40 SHL SUB AND PUSH1 0x0 SUB PUSH2 0xF62 JUMPI POP SELFBALANCE SWAP2 SWAP1 POP JUMP JUMPDEST PUSH1 0x1 PUSH1 0x1 PUSH1 0x40 SHL SUB DUP3 AND PUSH1 0x0 SWAP1 DUP2 MSTORE PUSH1 0x2 PUSH1 0x20 MSTORE PUSH1 0x40 SWAP1 KECCAK256 SLOAD PUSH1 0x1 PUSH1 0x1 PUSH1 0xA0 SHL SUB AND DUP1 PUSH2 0xF92 JUMPI POP PUSH1 0x0 SWAP3 SWAP2 POP POP JUMP JUMPDEST PUSH1 0x40 MLOAD ADDRESS PUSH1 0x24 DUP3 ADD MSTORE PUSH1 0x0 SWAP1 DUP2 SWAP1 PUSH1 0x1 PUSH1 0x1 PUSH1 0xA0 SHL SUB DUP5 AND SWAP1 PUSH1 0x44 ADD PUSH1 0x40 DUP1 MLOAD PUSH1 0x1F NOT DUP2 DUP5 SUB ADD DUP2 MSTORE SWAP2 DUP2 MSTORE PUSH1 0x20 DUP3 ADD DUP1 MLOAD PUSH1 0x1 PUSH1 0x1 PUSH1 0xE0 SHL SUB AND PUSH4 0x70A08231 PUSH1 0xE0 SHL OR SWAP1 MSTORE MLOAD PUSH2 0xFE3 SWAP2 SWAP1 PUSH2 0x144F JUMP JUMPDEST PUSH1 0x0 PUSH1 0x40 MLOAD DUP1 DUP4 SUB DUP2 DUP6 GAS STATICCALL SWAP2 POP POP RETURNDATASIZE DUP1 PUSH1 0x0 DUP2 EQ PUSH2 0x101E JUMPI PUSH1 0x40 MLOAD SWAP2 POP PUSH1 0x1F NOT PUSH1 0x3F RETURNDATASIZE ADD AND DUP3 ADD PUSH1 0x40 MSTORE RETURNDATASIZE DUP3 MSTORE RETURNDATASIZE PUSH1 0x0 PUSH1 0x20 DUP5 ADD RETURNDATACOPY PUSH2 0x1023 JUMP JUMPDEST PUSH1 0x60 SWAP2 POP JUMPDEST POP SWAP2 POP SWAP2 POP DUP2 DUP1 ISZERO PUSH2 0x1037 JUMPI POP PUSH1 0x20 DUP2 MLOAD LT ISZERO JUMPDEST ISZERO PUSH2 0x1059 JUMPI DUP1 DUP1 PUSH1 0x20 ADD SWAP1 MLOAD DUP2 ADD SWAP1 PUSH2 0x1050 SWAP2 SWAP1 PUSH2 0x14B3 JUMP JUMPDEST SWAP6 SWAP5 POP POP POP POP POP JUMP JUMPDEST POP PUSH1 0x0 SWAP5 SWAP4 POP POP POP POP JUMP JUMPDEST SWAP2 SWAP1 POP JUMP JUMPDEST PUSH1 0x0 PUSH1 0x20 DUP3 DUP5 SUB SLT ISZERO PUSH2 0x107B JUMPI PUSH1 0x0 DUP1 REVERT JUMPDEST POP CALLDATALOAD SWAP2 SWAP1 POP JUMP JUMPDEST DUP1 CALLDATALOAD PUSH1 0x1 PUSH1 0x1 PUSH1 0xA0 SHL SUB DUP2 AND DUP2 EQ PUSH2 0x1064 JUMPI PUSH1 0x0 DUP1 REVERT JUMPDEST DUP1 CALLDATALOAD PUSH1 0x1 PUSH1 0x1 PUSH1 0x40 SHL SUB DUP2 AND DUP2 EQ PUSH2 0x1064 JUMPI PUSH1 0x0 DUP1 REVERT JUMPDEST PUSH1 0x0 DUP1 DUP4 PUSH1 0x1F DUP5 ADD SLT PUSH2 0x10C2 JUMPI PUSH1 0x0 DUP1 REVERT JUMPDEST POP DUP2 CALLDATALOAD PUSH1 0x1 PUSH1 0x1 PUSH1 0x40 SHL SUB DUP2 GT ISZERO PUSH2 0x10D9 JUMPI PUSH1 0x0 DUP1 REVERT JUMPDEST PUSH1 0x20 DUP4 ADD SWAP2 POP DUP4 PUSH1 0x20 DUP3 DUP6 ADD ADD GT ISZERO PUSH2 0x10F1 JUMPI PUSH1 0x0 DUP1 REVERT JUMPDEST SWAP3 POP SWAP3 SWAP1 POP JUMP JUMPDEST PUSH1 0x0 DUP1 PUSH1 0x0 DUP1 PUSH1 0x0 DUP1 PUSH1 0x0 DUP1 PUSH1 0xC0 DUP10 DUP12 SUB SLT ISZERO PUSH2 0x1114 JUMPI PUSH1 0x0 DUP1 REVERT JUMPDEST DUP9 CALLDATALOAD SWAP8 POP PUSH2 0x1124 PUSH1 0x20 DUP11 ADD PUSH2 0x1082 JUMP JUMPDEST SWAP7 POP PUSH2 0x1132 PUSH1 0x40 DUP11 ADD PUSH2 0x1099 JUMP JUMPDEST SWAP6 POP PUSH1 0x60 DUP10 ADD CALLDATALOAD SWAP5 POP PUSH1 0x80 DUP10 ADD CALLDATALOAD PUSH1 0x1 PUSH1 0x1 PUSH1 0x40 SHL SUB DUP1 DUP3 GT ISZERO PUSH2 0x1155 JUMPI PUSH1 0x0 DUP1 REVERT JUMPDEST PUSH2 0x1161 DUP13 DUP4 DUP14 ADD PUSH2 0x10B0 JUMP JUMPDEST SWAP1 SWAP7 POP SWAP5 POP PUSH1 0xA0 DUP12 ADD CALLDATALOAD SWAP2 POP DUP1 DUP3 GT ISZERO PUSH2 0x117A JUMPI PUSH1 0x0 DUP1 REVERT JUMPDEST POP PUSH2 0x1187 DUP12 DUP3 DUP13 ADD PUSH2 0x10B0 JUMP JUMPDEST SWAP10 SWAP13 SWAP9 SWAP12 POP SWAP7 SWAP10 POP SWAP5 SWAP8 SWAP4 SWAP7 SWAP3 SWAP6 SWAP5 POP POP POP JUMP JUMPDEST PUSH1 0x0 PUSH1 0x20 DUP3 DUP5 SUB SLT ISZERO PUSH2 0x11AD JUMPI PUSH1 0x0 DUP1 REVERT JUMPDEST PUSH2 0x11B6 DUP3 PUSH2 0x1082 JUMP JUMPDEST SWAP4 SWAP3 POP POP POP JUMP JUMPDEST PUSH1 0x0 DUP1 PUSH1 0x40 DUP4 DUP6 SUB SLT ISZERO PUSH2 0x11D0 JUMPI PUSH1 0x0 DUP1 REVERT JUMPDEST PUSH2 0x11D9 DUP4 PUSH2 0x1099 JUMP JUMPDEST SWAP2 POP PUSH2 0x11E7 PUSH1 0x20 DUP5 ADD PUSH2 0x1082 JUMP JUMPDEST SWAP1 POP SWAP3 POP SWAP3 SWAP1 POP JUMP JUMPDEST PUSH1 0x0 DUP1 PUSH1 0x0 DUP1 PUSH1 0x0 PUSH1 0x60 DUP7 DUP9 SUB SLT ISZERO PUSH2 0x1208 JUMPI PUSH1 0x0 DUP1 REVERT JUMPDEST DUP6 CALLDATALOAD SWAP5 POP PUSH1 0x20 DUP7 ADD CALLDATALOAD PUSH1 0x1 PUSH1 0x1 PUSH1 0x40 SHL SUB DUP1 DUP3 GT ISZERO PUSH2 0x1226 JUMPI PUSH1 0x0 DUP1 REVERT JUMPDEST PUSH2 0x1232 DUP10 DUP4 DUP11 ADD PUSH2 0x10B0 JUMP JUMPDEST SWAP1 SWAP7 POP SWAP5 POP PUSH1 0x40 DUP9 ADD CALLDATALOAD SWAP2 POP DUP1 DUP3 GT ISZERO PUSH2 0x124B JUMPI PUSH1 0x0 DUP1 REVERT JUMPDEST POP PUSH2 0x1258 DUP9 DUP3 DUP10 ADD PUSH2 0x10B0 JUMP JUMPDEST SWAP7 SWAP10 SWAP6 SWAP9 POP SWAP4 SWAP7 POP SWAP3 SWAP5 SWAP4 SWAP3 POP POP POP JUMP JUMPDEST PUSH1 0x0 DUP1 PUSH1 0x40 DUP4 DUP6 SUB SLT ISZERO PUSH2 0x127C JUMPI PUSH1 0x0 DUP1 REVERT JUMPDEST PUSH2 0x1285 DUP4 PUSH2 0x1099 JUMP JUMPDEST SWAP5 PUSH1 0x20 SWAP4 SWAP1 SWAP4 ADD CALLDATALOAD SWAP4 POP POP POP JUMP JUMPDEST PUSH1 0x0 PUSH1 0x20 DUP3 DUP5 SUB SLT ISZERO PUSH2 0x12A5 JUMPI PUSH1 0x0 DUP1 REVERT JUMPDEST PUSH2 0x11B6 DUP3 PUSH2 0x1099 JUMP JUMPDEST PUSH4 0x4E487B71 PUSH1 0xE0 SHL PUSH1 0x0 MSTORE PUSH1 0x32 PUSH1 0x4 MSTORE PUSH1 0x24 PUSH1 0x0 REVERT JUMPDEST PUSH4 0x4E487B71 PUSH1 0xE0 SHL PUSH1 0x0 MSTORE PUSH1 0x11 PUSH1 0x4 MSTORE PUSH1 0x24 PUSH1 0x0 REVERT JUMPDEST PUSH1 0x0 PUSH1 0x1 DUP3 ADD PUSH2 0x12EC JUMPI PUSH2 0x12EC PUSH2 0x12C4 JUMP JUMPDEST POP PUSH1 0x1 ADD SWAP1 JUMP JUMPDEST PUSH1 0x20 DUP1 DUP3 MSTORE PUSH1 0x13 SWAP1 DUP3 ADD MSTORE PUSH19 0x151BDAD95B881B9BDD081CDD5C1C1BDC9D1959 PUSH1 0x6A SHL PUSH1 0x40 DUP3 ADD MSTORE PUSH1 0x60 ADD SWAP1 JUMP JUMPDEST PUSH1 0x40 MLOAD PUSH1 0x80 DUP2 ADD PUSH1 0x1 PUSH1 0x1 PUSH1 0x40 SHL SUB DUP2 GT DUP3 DUP3 LT OR ISZERO PUSH2 0x1350 JUMPI PUSH4 0x4E487B71 PUSH1 0xE0 SHL PUSH1 0x0 MSTORE PUSH1 0x41 PUSH1 0x4 MSTORE PUSH1 0x24 PUSH1 0x0 REVERT JUMPDEST PUSH1 0x40 MSTORE SWAP1 JUMP JUMPDEST PUSH1 0x0 PUSH1 0x80 DUP3 DUP5 SUB SLT ISZERO PUSH2 0x1368 JUMPI PUSH1 0x0 DUP1 REVERT JUMPDEST PUSH2 0x1370 PUSH2 0x1320 JUMP JUMPDEST DUP3 CALLDATALOAD DUP2 MSTORE PUSH1 0x20 DUP4 ADD CALLDATALOAD PUSH1 0x20 DUP3 ADD MSTORE PUSH1 0x40 DUP4 ADD CALLDATALOAD PUSH1 0x40 DUP3 ADD MSTORE PUSH2 0x1394 PUSH1 0x60 DUP5 ADD PUSH2 0x1099 JUMP JUMPDEST PUSH1 0x60 DUP3 ADD MSTORE SWAP4 SWAP3 POP POP POP JUMP JUMPDEST DUP2 DUP4 MSTORE DUP2 DUP2 PUSH1 0x20 DUP6 ADD CALLDATACOPY POP PUSH1 0x0 DUP3 DUP3 ADD PUSH1 0x20 SWAP1 DUP2 ADD SWAP2 SWAP1 SWAP2 MSTORE PUSH1 0x1F SWAP1 SWAP2 ADD PUSH1 0x1F NOT AND SWAP1 SWAP2 ADD ADD SWAP1 JUMP JUMPDEST DUP6 DUP2 MSTORE PUSH1 0x60 PUSH1 0x20 DUP3 ADD MSTORE PUSH1 0x0 PUSH2 0x13E3 PUSH1 0x60 DUP4 ADD DUP7 DUP9 PUSH2 0x13A0 JUMP JUMPDEST DUP3 DUP2 SUB PUSH1 0x40 DUP5 ADD MSTORE PUSH2 0x13F6 DUP2 DUP6 DUP8 PUSH2 0x13A0 JUMP JUMPDEST SWAP9 SWAP8 POP POP POP POP POP POP POP POP JUMP JUMPDEST PUSH1 0x0 PUSH1 0x80 DUP3 DUP5 SUB SLT ISZERO PUSH2 0x1414 JUMPI PUSH1 0x0 DUP1 REVERT JUMPDEST PUSH2 0x141C PUSH2 0x1320 JUMP JUMPDEST DUP3 CALLDATALOAD DUP2 MSTORE PUSH2 0x142C PUSH1 0x20 DUP5 ADD PUSH2 0x1082 JUMP JUMPDEST PUSH1 0x20 DUP3 ADD MSTORE PUSH1 0x40 DUP4 ADD CALLDATALOAD PUSH1 0x40 DUP3 ADD MSTORE PUSH1 0x60 DUP4 ADD CALLDATALOAD PUSH1 0x60 DUP3 ADD MSTORE DUP1 SWAP2 POP POP SWAP3 SWAP2 POP POP JUMP JUMPDEST PUSH1 0x0 DUP3 MLOAD PUSH1 0x0 JUMPDEST DUP2 DUP2 LT ISZERO PUSH2 0x1470 JUMPI PUSH1 0x20 DUP2 DUP7 ADD DUP2 ADD MLOAD DUP6 DUP4 ADD MSTORE ADD PUSH2 0x1456 JUMP JUMPDEST POP PUSH1 0x0 SWAP3 ADD SWAP2 DUP3 MSTORE POP SWAP2 SWAP1 POP JUMP JUMPDEST DUP2 DUP2 SUB DUP2 DUP2 GT ISZERO PUSH2 0x71D JUMPI PUSH2 0x71D PUSH2 0x12C4 JUMP JUMPDEST PUSH1 0x0 DUP3 PUSH2 0x14AE JUMPI PUSH4 0x4E487B71 PUSH1 0xE0 SHL PUSH1 0x0 MSTORE PUSH1 0x12 PUSH1 0x4 MSTORE PUSH1 0x24 PUSH1 0x0 REVERT JUMPDEST POP DIV SWAP1 JUMP JUMPDEST PUSH1 0x0 PUSH1 0x20 DUP3 DUP5 SUB SLT ISZERO PUSH2 0x14C5 JUMPI PUSH1 0x0 DUP1 REVERT JUMPDEST POP MLOAD SWAP2 SWAP1 POP JUMP INVALID LOG2 PUSH5 0x6970667358 0x22 SLT KECCAK256 PUSH29 0xFB47DEE4E664EEA6C7A466083C999744C7698A62B79A5B66D8D53C60F8 0x27 CALLDATASIZE PUSH5 0x736F6C6343 STOP ADDMOD SGT STOP CALLER "},"methodIdentifiers":{"addToken(uint64,address)":"98ffd550","canCompleteDeposit(address)":"94137c90","commitmentMerkleTree(uint256)":"d4a82dc5","commitments(bytes32)":"839df945","completeDeposit(bytes32,bytes,bytes)":"d43ffa2f","complianceAuthority()":"309f477a","getMerkleRoot()":"49590657","getPendingDeposit(address)":"b70773c0","nullifiers(bytes32)":"2997e86b","pendingDeposits(address)":"eb3349b9","prepareDeposit(uint64,uint256)":"f382affa","sp1Verifier()":"52a07fa3","tokenAddresses(uint64)":"ffc21d5e","withdraw(bytes32,address,uint64,uint256,bytes,bytes)":"929f9a38"}}}}}