{"contracts/MockHyperCore.sol":{"MockHyperCoreWrite":{"abi":[{"anonymous":false,"inputs":[{"indexed":false,"internalType":"uint256","name":"asset","type":"uint256"},{"indexed":false,"internalType":"int256","name":"size","type":"int256"},{"indexed":false,"internalType":"bool","name":"isBuy","type":"bool"},{"indexed":false,"internalType":"uint256","name":"maxSlippage","type":"uint256"}],"name":"MockIOCOrder","type":"event"},{"anonymous":false,"inputs":[{"indexed":false,"internalType":"uint256","name":"asset","type":"uint256"},{"indexed":false,"internalType":"uint256","name":"amount","type":"uint256"},{"indexed":false,"internalType":"address","name":"recipient","type":"address"}],"name":"MockSpotTransfer","type":"event"},{"anonymous":false,"inputs":[{"indexed":false,"internalType":"address","name":"vault","type":"address"},{"indexed":false,"internalType":"uint256","name":"asset","type":"uint256"},{"indexed":false,"internalType":"uint256","name":"amount","type":"uint256"},{"indexed":false,"internalType":"bool","name":"isDeposit","type":"bool"}],"name":"MockVaultTransfer","type":"event"},{"inputs":[{"internalType":"uint256","name":"asset","type":"uint256"},{"internalType":"int256","name":"size","type":"int256"},{"internalType":"bool","name":"isBuy","type":"bool"},{"internalType":"uint256","name":"maxSlippage","type":"uint256"}],"name":"sendIOCOrder","outputs":[],"stateMutability":"nonpayable","type":"function"},{"inputs":[{"internalType":"uint256","name":"asset","type":"uint256"},{"internalType":"uint256","name":"amount","type":"uint256"},{"internalType":"address","name":"recipient","type":"address"}],"name":"sendSpot","outputs":[],"stateMutability":"nonpayable","type":"function"},{"inputs":[{"internalType":"address","name":"vault","type":"address"},{"internalType":"uint256","name":"asset","type":"uint256"},{"internalType":"uint256","name":"amount","type":"uint256"},{"internalType":"bool","name":"isDeposit","type":"bool"}],"name":"vaultTransfer","outputs":[],"stateMutability":"nonpayable","type":"function"}],"evm":{"bytecode":{"linkReferences":{},"object":"608060405234801561001057600080fd5b5061028a806100206000396000f3fe608060405234801561001057600080fd5b50600436106100415760003560e01c8063212a676d14610046578063488b27be1461005b578063cdb011631461006e575b600080fd5b610059610054366004610185565b610081565b005b6100596100693660046101d9565b6100d4565b61005961007c36600461021f565b610123565b604080518581526020810185905283151591810191909152606081018290527f027d85d4de16d73c9db86e7bb4e0be678706419d8f3fccbc5864ee83c1fba188906080015b60405180910390a150505050565b604080516001600160a01b03861681526020810185905290810183905281151560608201527f89684021e6043832e41909128d7d78070a6cc96acab8531c64f6ab5e5e7e7562906080016100c6565b60408051848152602081018490526001600160a01b0383168183015290517f3c4044a9ea9022055c424b0a2d65b0359f156ab927d2b2103619189cb9fb89119181900360600190a1505050565b8035801515811461018057600080fd5b919050565b6000806000806080858703121561019b57600080fd5b84359350602085013592506101b260408601610170565b9396929550929360600135925050565b80356001600160a01b038116811461018057600080fd5b600080600080608085870312156101ef57600080fd5b6101f8856101c2565b9350602085013592506040850135915061021460608601610170565b905092959194509250565b60008060006060848603121561023457600080fd5b833592506020840135915061024b604085016101c2565b9050925092509256fea2646970667358221220ad90943f63025de5cf1ef27c1dde41a83e4d642d398ea02c6474d9ac5e74b03f64736f6c63430008130033","opcodes":"PUSH1 0x80 PUSH1 0x40 MSTORE CALLVALUE DUP1 ISZERO PUSH2 0x10 JUMPI PUSH1 0x0 DUP1 REVERT JUMPDEST POP PUSH2 0x28A DUP1 PUSH2 0x20 PUSH1 0x0 CODECOPY PUSH1 0x0 RETURN INVALID PUSH1 0x80 PUSH1 0x40 MSTORE CALLVALUE DUP1 ISZERO PUSH2 0x10 JUMPI PUSH1 0x0 DUP1 REVERT JUMPDEST POP PUSH1 0x4 CALLDATASIZE LT PUSH2 0x41 JUMPI PUSH1 0x0 CALLDATALOAD PUSH1 0xE0 SHR DUP1 PUSH4 0x212A676D EQ PUSH2 0x46 JUMPI DUP1 PUSH4 0x488B27BE EQ PUSH2 0x5B JUMPI DUP1 PUSH4 0xCDB01163 EQ PUSH2 0x6E JUMPI JUMPDEST PUSH1 0x0 DUP1 REVERT JUMPDEST PUSH2 0x59 PUSH2 0x54 CALLDATASIZE PUSH1 0x4 PUSH2 0x185 JUMP JUMPDEST PUSH2 0x81 JUMP JUMPDEST STOP JUMPDEST PUSH2 0x59 PUSH2 0x69 CALLDATASIZE PUSH1 0x4 PUSH2 0x1D9 JUMP JUMPDEST PUSH2 0xD4 JUMP JUMPDEST PUSH2 0x59 PUSH2 0x7C CALLDATASIZE PUSH1 0x4 PUSH2 0x21F JUMP JUMPDEST PUSH2 0x123 JUMP JUMPDEST PUSH1 0x40 DUP1 MLOAD DUP6 DUP2 MSTORE PUSH1 0x20 DUP2 ADD DUP6 SWAP1 MSTORE DUP4 ISZERO ISZERO SWAP2 DUP2 ADD SWAP2 SWAP1 SWAP2 MSTORE PUSH1 0x60 DUP2 ADD DUP3 SWAP1 MSTORE PUSH32 0x27D85D4DE16D73C9DB86E7BB4E0BE678706419D8F3FCCBC5864EE83C1FBA188 SWAP1 PUSH1 0x80 ADD JUMPDEST PUSH1 0x40 MLOAD DUP1 SWAP2 SUB SWAP1 LOG1 POP POP POP POP JUMP JUMPDEST PUSH1 0x40 DUP1 MLOAD PUSH1 0x1 PUSH1 0x1 PUSH1 0xA0 SHL SUB DUP7 AND DUP2 MSTORE PUSH1 0x20 DUP2 ADD DUP6 SWAP1 MSTORE SWAP1 DUP2 ADD DUP4 SWAP1 MSTORE DUP2 ISZERO ISZERO PUSH1 0x60 DUP3 ADD MSTORE PUSH32 0x89684021E6043832E41909128D7D78070A6CC96ACAB8531C64F6AB5E5E7E7562 SWAP1 PUSH1 0x80 ADD PUSH2 0xC6 JUMP JUMPDEST PUSH1 0x40 DUP1 MLOAD DUP5 DUP2 MSTORE PUSH1 0x20 DUP2 ADD DUP5 SWAP1 MSTORE PUSH1 0x1 PUSH1 0x1 PUSH1 0xA0 SHL SUB DUP4 AND DUP2 DUP4 ADD MSTORE SWAP1 MLOAD PUSH32 0x3C4044A9EA9022055C424B0A2D65B0359F156AB927D2B2103619189CB9FB8911 SWAP2 DUP2 SWAP1 SUB PUSH1 0x60 ADD SWAP1 LOG1 POP POP POP JUMP JUMPDEST DUP1 CALLDATALOAD DUP1 ISZERO ISZERO DUP2 EQ PUSH2 0x180 JUMPI PUSH1 0x0 DUP1 REVERT JUMPDEST SWAP2 SWAP1 POP JUMP JUMPDEST PUSH1 0x0 DUP1 PUSH1 0x0 DUP1 PUSH1 0x80 DUP6 DUP8 SUB SLT ISZERO PUSH2 0x19B JUMPI PUSH1 0x0 DUP1 REVERT JUMPDEST DUP5 CALLDATALOAD SWAP4 POP PUSH1 0x20 DUP6 ADD CALLDATALOAD SWAP3 POP PUSH2 0x1B2 PUSH1 0x40 DUP7 ADD PUSH2 0x170 JUMP JUMPDEST SWAP4 SWAP7 SWAP3 SWAP6 POP SWAP3 SWAP4 PUSH1 0x60 ADD CALLDATALOAD SWAP3 POP POP JUMP JUMPDEST DUP1 CALLDATALOAD PUSH1 0x1 PUSH1 0x1 PUSH1 0xA0 SHL SUB DUP2 AND DUP2 EQ PUSH2 0x180 JUMPI PUSH1 0x0 DUP1 REVERT JUMPDEST PUSH1 0x0 DUP1 PUSH1 0x0 DUP1 PUSH1 0x80 DUP6 DUP8 SUB SLT ISZERO PUSH2 0x1EF JUMPI PUSH1 0x0 DUP1 REVERT JUMPDEST PUSH2 0x1F8 DUP6 PUSH2 0x1C2 JUMP JUMPDEST SWAP4 POP PUSH1 0x20 DUP6 ADD CALLDATALOAD SWAP3 POP PUSH1 0x40 DUP6 ADD CALLDATALOAD SWAP2 POP PUSH2 0x214 PUSH1 0x60 DUP7 ADD PUSH2 0x170 JUMP JUMPDEST SWAP1 POP SWAP3 SWAP6 SWAP2 SWAP5 POP SWAP3 POP JUMP JUMPDEST PUSH1 0x0 DUP1 PUSH1 0x0 PUSH1 0x60 DUP5 DUP7 SUB SLT ISZERO PUSH2 0x234 JUMPI PUSH1 0x0 DUP1 REVERT JUMPDEST DUP4 CALLDATALOAD SWAP3 POP PUSH1 0x20 DUP5 ADD CALLDATALOAD SWAP2 POP PUSH2 0x24B PUSH1 0x40 DUP6 ADD PUSH2 0x1C2 JUMP JUMPDEST SWAP1 POP SWAP3 POP SWAP3 POP SWAP3 JUMP INVALID LOG2 PUSH5 0x6970667358 0x22 SLT KECCAK256 0xAD SWAP1 SWAP5 EXTCODEHASH PUSH4 0x25DE5CF 0x1E CALLCODE PUSH29 0x1DDE41A83E4D642D398EA02C6474D9AC5E74B03F64736F6C6343000813 STOP CALLER "},"methodIdentifiers":{"sendIOCOrder(uint256,int256,bool,uint256)":"212a676d","sendSpot(uint256,uint256,address)":"cdb01163","vaultTransfer(address,uint256,uint256,bool)":"488b27be"}}}}}