{"contracts/MockHyperCore.sol":{"MockHyperCoreRead":{"abi":[{"inputs":[],"stateMutability":"nonpayable","type":"constructor"},{"inputs":[{"internalType":"uint256","name":"asset","type":"uint256"}],"name":"getOraclePrice","outputs":[{"internalType":"uint256","name":"","type":"uint256"}],"stateMutability":"view","type":"function"},{"inputs":[{"internalType":"address","name":"user","type":"address"},{"internalType":"uint256","name":"asset","type":"uint256"}],"name":"getPerpsPosition","outputs":[{"internalType":"int256","name":"size","type":"int256"},{"internalType":"uint256","name":"entryPrice","type":"uint256"}],"stateMutability":"pure","type":"function"},{"inputs":[{"internalType":"address","name":"user","type":"address"},{"internalType":"uint256","name":"asset","type":"uint256"}],"name":"getSpotBalance","outputs":[{"internalType":"uint256","name":"","type":"uint256"}],"stateMutability":"pure","type":"function"},{"inputs":[{"internalType":"address","name":"vault","type":"address"}],"name":"getVaultEquity","outputs":[{"internalType":"uint256","name":"","type":"uint256"}],"stateMutability":"pure","type":"function"},{"inputs":[{"internalType":"uint256","name":"","type":"uint256"}],"name":"prices","outputs":[{"internalType":"uint256","name":"","type":"uint256"}],"stateMutability":"view","type":"function"}],"evm":{"bytecode":{"linkReferences":{},"object":"608060405234801561001057600080fd5b506000602081905265048c273950007fada5013122d395ba3c54772283fb069b10426056ef8ca54750cb9bb552a59e7d556445d964b8007fabbb5caa7dda850e60932de0934eb1f9d0f59695050f761dc64e443e5030a56955600390526402540be4007f101e368776582e57ab3d116ffe2517c0a585cd5b23174b01e275c2d8329c3d83556101e3806100a46000396000f3fe608060405234801561001057600080fd5b50600436106100575760003560e01c8063509758951461005c5780637687a4b01461008557806384a07dcb1461009957806391cc833c146100ac578063bc31c1c1146100d8575b600080fd5b61007261006a366004610148565b600092915050565b6040519081526020015b60405180910390f35b610072610093366004610172565b50600090565b6100726100a7366004610194565b6100f8565b6100c36100ba366004610148565b50600091829150565b6040805192835260208301919091520161007c565b6100726100e6366004610194565b60006020819052908152604090205481565b600081815260208190526040812054610116576402540be400610126565b6000828152602081905260409020545b92915050565b80356001600160a01b038116811461014357600080fd5b919050565b6000806040838503121561015b57600080fd5b6101648361012c565b946020939093013593505050565b60006020828403121561018457600080fd5b61018d8261012c565b9392505050565b6000602082840312156101a657600080fd5b503591905056fea264697066735822122047fca48872efcc9d0cb1dc3fce1a5f440cd9a1375686d6c63225fc23ebed6b6b64736f6c63430008130033","opcodes":"PUSH1 0x80 PUSH1 0x40 MSTORE CALLVALUE DUP1 ISZERO PUSH2 0x10 JUMPI PUSH1 0x0 DUP1 REVERT JUMPDEST POP PUSH1 0x0 PUSH1 0x20 DUP2 SWAP1 MSTORE PUSH6 0x48C27395000 PUSH32 0xADA5013122D395BA3C54772283FB069B10426056EF8CA54750CB9BB552A59E7D SSTORE PUSH5 0x45D964B800 PUSH32 0xABBB5CAA7DDA850E60932DE0934EB1F9D0F59695050F761DC64E443E5030A569 SSTORE PUSH1 0x3 SWAP1 MSTORE PUSH5 0x2540BE400 PUSH32 0x101E368776582E57AB3D116FFE2517C0A585CD5B23174B01E275C2D8329C3D83 SSTORE PUSH2 0x1E3 DUP1 PUSH2 0xA4 PUSH1 0x0 CODECOPY PUSH1 0x0 RETURN INVALID PUSH1 0x80 PUSH1 0x40 MSTORE CALLVALUE DUP1 ISZERO PUSH2 0x10 JUMPI PUSH1 0x0 DUP1 REVERT JUMPDEST POP PUSH1 0x4 CALLDATASIZE LT PUSH2 0x57 JUMPI PUSH1 0x0 CALLDATALOAD PUSH1 0xE0 SHR DUP1 PUSH4 0x50975895 EQ PUSH2 0x5C JUMPI DUP1 PUSH4 0x7687A4B0 EQ PUSH2 0x85 JUMPI DUP1 PUSH4 0x84A07DCB EQ PUSH2 0x99 JUMPI DUP1 PUSH4 0x91CC833C EQ PUSH2 0xAC JUMPI DUP1 PUSH4 0xBC31C1C1 EQ PUSH2 0xD8 JUMPI JUMPDEST PUSH1 0x0 DUP1 REVERT JUMPDEST PUSH2 0x72 PUSH2 0x6A CALLDATASIZE PUSH1 0x4 PUSH2 0x148 JUMP JUMPDEST PUSH1 0x0 SWAP3 SWAP2 POP POP JUMP JUMPDEST PUSH1 0x40 MLOAD SWAP1 DUP2 MSTORE PUSH1 0x20 ADD JUMPDEST PUSH1 0x40 MLOAD DUP1 SWAP2 SUB SWAP1 RETURN JUMPDEST PUSH2 0x72 PUSH2 0x93 CALLDATASIZE PUSH1 0x4 PUSH2 0x172 JUMP JUMPDEST POP PUSH1 0x0 SWAP1 JUMP JUMPDEST PUSH2 0x72 PUSH2 0xA7 CALLDATASIZE PUSH1 0x4 PUSH2 0x194 JUMP JUMPDEST PUSH2 0xF8 JUMP JUMPDEST PUSH2 0xC3 PUSH2 0xBA CALLDATASIZE PUSH1 0x4 PUSH2 0x148 JUMP JUMPDEST POP PUSH1 0x0 SWAP2 DUP3 SWAP2 POP JUMP JUMPDEST PUSH1 0x40 DUP1 MLOAD SWAP3 DUP4 MSTORE PUSH1 0x20 DUP4 ADD SWAP2 SWAP1 SWAP2 MSTORE ADD PUSH2 0x7C JUMP JUMPDEST PUSH2 0x72 PUSH2 0xE6 CALLDATASIZE PUSH1 0x4 PUSH2 0x194 JUMP JUMPDEST PUSH1 0x0 PUSH1 0x20 DUP2 SWAP1 MSTORE SWAP1 DUP2 MSTORE PUSH1 0x40 SWAP1 KECCAK256 SLOAD DUP2 JUMP JUMPDEST PUSH1 0x0 DUP2 DUP2 MSTORE PUSH1 0x20 DUP2 SWAP1 MSTORE PUSH1 0x40 DUP2 KECCAK256 SLOAD PUSH2 0x116 JUMPI PUSH5 0x2540BE400 PUSH2 0x126 JUMP JUMPDEST PUSH1 0x0 DUP3 DUP2 MSTORE PUSH1 0x20 DUP2 SWAP1 MSTORE PUSH1 0x40 SWAP1 KECCAK256 SLOAD JUMPDEST SWAP3 SWAP2 POP POP JUMP JUMPDEST DUP1 CALLDATALOAD PUSH1 0x1 PUSH1 0x1 PUSH1 0xA0 SHL SUB DUP2 AND DUP2 EQ PUSH2 0x143 JUMPI PUSH1 0x0 DUP1 REVERT JUMPDEST SWAP2 SWAP1 POP JUMP JUMPDEST PUSH1 0x0 DUP1 PUSH1 0x40 DUP4 DUP6 SUB SLT ISZERO PUSH2 0x15B JUMPI PUSH1 0x0 DUP1 REVERT JUMPDEST PUSH2 0x164 DUP4 PUSH2 0x12C JUMP JUMPDEST SWAP5 PUSH1 0x20 SWAP4 SWAP1 SWAP4 ADD CALLDATALOAD SWAP4 POP POP POP JUMP JUMPDEST PUSH1 0x0 PUSH1 0x20 DUP3 DUP5 SUB SLT ISZERO PUSH2 0x184 JUMPI PUSH1 0x0 DUP1 REVERT JUMPDEST PUSH2 0x18D DUP3 PUSH2 0x12C JUMP JUMPDEST SWAP4 SWAP3 POP POP POP JUMP JUMPDEST PUSH1 0x0 PUSH1 0x20 DUP3 DUP5 SUB SLT ISZERO PUSH2 0x1A6 JUMPI PUSH1 0x0 DUP1 REVERT JUMPDEST POP CALLDATALOAD SWAP2 SWAP1 POP JUMP INVALID LOG2 PUSH5 0x6970667358 0x22 SLT KECCAK256 SELFBALANCE 0xFC LOG4 DUP9 PUSH19 0xEFCC9D0CB1DC3FCE1A5F440CD9A1375686D6C6 ORIGIN 0x25 0xFC 0x23 0xEB 0xED PUSH12 0x6B64736F6C63430008130033 "},"methodIdentifiers":{"getOraclePrice(uint256)":"84a07dcb","getPerpsPosition(address,uint256)":"91cc833c","getSpotBalance(address,uint256)":"50975895","getVaultEquity(address)":"7687a4b0","prices(uint256)":"bc31c1c1"}}}}}