{"contracts/HyperliquidPrivacySystemV5.sol":{"HyperliquidPrivacySystemV5":{"abi":[{"inputs":[{"internalType":"address","name":"_sp1Verifier","type":"address"},{"internalType":"address","name":"_complianceAuthority","type":"address"}],"stateMutability":"nonpayable","type":"constructor"},{"anonymous":false,"inputs":[{"indexed":true,"internalType":"address","name":"newAuthority","type":"address"}],"name":"ComplianceAuthorityUpdated","type":"event"},{"anonymous":false,"inputs":[{"indexed":true,"internalType":"address","name":"user","type":"address"},{"indexed":false,"internalType":"uint64","name":"token","type":"uint64"},{"indexed":false,"internalType":"uint64","name":"amount","type":"uint64"}],"name":"DepositPrepared","type":"event"},{"anonymous":false,"inputs":[{"indexed":true,"internalType":"bytes32","name":"commitment","type":"bytes32"},{"indexed":false,"internalType":"uint256","name":"timestamp","type":"uint256"}],"name":"PrivateDeposit","type":"event"},{"anonymous":false,"inputs":[{"indexed":true,"internalType":"bytes32","name":"commitment","type":"bytes32"},{"indexed":false,"internalType":"uint256","name":"timestamp","type":"uint256"}],"name":"PrivateTrade","type":"event"},{"anonymous":false,"inputs":[{"indexed":true,"internalType":"bytes32","name":"nullifier","type":"bytes32"},{"indexed":false,"internalType":"uint256","name":"timestamp","type":"uint256"}],"name":"PrivateWithdraw","type":"event"},{"inputs":[{"internalType":"address","name":"user","type":"address"}],"name":"canCompleteDeposit","outputs":[{"internalType":"bool","name":"","type":"bool"}],"stateMutability":"view","type":"function"},{"inputs":[{"internalType":"bytes32","name":"","type":"bytes32"}],"name":"commitmentIndex","outputs":[{"internalType":"uint256","name":"","type":"uint256"}],"stateMutability":"view","type":"function"},{"inputs":[{"internalType":"uint256","name":"","type":"uint256"}],"name":"commitmentMerkleTree","outputs":[{"internalType":"bytes32","name":"","type":"bytes32"}],"stateMutability":"view","type":"function"},{"inputs":[{"internalType":"bytes32","name":"","type":"bytes32"}],"name":"commitments","outputs":[{"internalType":"bool","name":"","type":"bool"}],"stateMutability":"view","type":"function"},{"inputs":[{"internalType":"bytes32","name":"commitment","type":"bytes32"},{"internalType":"bytes","name":"complianceProof","type":"bytes"},{"internalType":"bytes","name":"publicValues","type":"bytes"}],"name":"completeDeposit","outputs":[],"stateMutability":"nonpayable","type":"function"},{"inputs":[],"name":"complianceAuthority","outputs":[{"internalType":"address","name":"","type":"address"}],"stateMutability":"view","type":"function"},{"inputs":[{"internalType":"bytes32","name":"commitment","type":"bytes32"},{"internalType":"uint64","name":"token","type":"uint64"},{"internalType":"uint64","name":"amount","type":"uint64"},{"internalType":"bytes","name":"complianceProof","type":"bytes"},{"internalType":"bytes","name":"publicValues","type":"bytes"}],"name":"deposit","outputs":[],"stateMutability":"nonpayable","type":"function"},{"inputs":[{"internalType":"uint64","name":"token","type":"uint64"},{"internalType":"uint64","name":"amount","type":"uint64"},{"internalType":"address","name":"recipient","type":"address"}],"name":"emergencyWithdraw","outputs":[],"stateMutability":"nonpayable","type":"function"},{"inputs":[],"name":"getMerkleRoot","outputs":[{"internalType":"bytes32","name":"","type":"bytes32"}],"stateMutability":"view","type":"function"},{"inputs":[{"internalType":"address","name":"user","type":"address"},{"internalType":"uint64","name":"token","type":"uint64"}],"name":"getUserSpotBalance","outputs":[{"internalType":"uint64","name":"","type":"uint64"}],"stateMutability":"view","type":"function"},{"inputs":[{"internalType":"bytes32","name":"","type":"bytes32"}],"name":"nullifiers","outputs":[{"internalType":"bool","name":"","type":"bool"}],"stateMutability":"view","type":"function"},{"inputs":[{"internalType":"address","name":"","type":"address"}],"name":"pendingDeposits","outputs":[{"internalType":"uint64","name":"token","type":"uint64"},{"internalType":"uint64","name":"amount","type":"uint64"},{"internalType":"uint64","name":"contractBalanceBefore","type":"uint64"},{"internalType":"uint256","name":"timestamp","type":"uint256"},{"internalType":"bool","name":"completed","type":"bool"}],"stateMutability":"view","type":"function"},{"inputs":[{"internalType":"uint64","name":"token","type":"uint64"},{"internalType":"uint64","name":"amount","type":"uint64"}],"name":"prepareDeposit","outputs":[],"stateMutability":"nonpayable","type":"function"},{"inputs":[{"internalType":"bytes32","name":"commitment","type":"bytes32"},{"internalType":"bytes","name":"ownershipProof","type":"bytes"},{"internalType":"bytes","name":"ownershipPublicValues","type":"bytes"},{"internalType":"uint32","name":"asset","type":"uint32"},{"internalType":"bool","name":"isBuy","type":"bool"},{"internalType":"uint64","name":"limitPx","type":"uint64"},{"internalType":"uint64","name":"sz","type":"uint64"}],"name":"privatePerpsPosition","outputs":[],"stateMutability":"nonpayable","type":"function"},{"inputs":[{"internalType":"bytes","name":"tradeProof","type":"bytes"},{"internalType":"bytes","name":"publicValues","type":"bytes"}],"name":"privateSpotTrade","outputs":[],"stateMutability":"nonpayable","type":"function"},{"inputs":[],"name":"sp1Verifier","outputs":[{"internalType":"contract ISP1Verifier","name":"","type":"address"}],"stateMutability":"view","type":"function"},{"inputs":[{"internalType":"uint64","name":"token","type":"uint64"},{"internalType":"uint64","name":"amount","type":"uint64"}],"name":"transferToContract","outputs":[],"stateMutability":"nonpayable","type":"function"},{"inputs":[{"internalType":"address","name":"newAuthority","type":"address"}],"name":"updateComplianceAuthority","outputs":[],"stateMutability":"nonpayable","type":"function"},{"inputs":[{"internalType":"bytes32","name":"nullifier","type":"bytes32"},{"internalType":"address","name":"recipient","type":"address"},{"internalType":"uint64","name":"token","type":"uint64"},{"internalType":"uint64","name":"amount","type":"uint64"},{"internalType":"bytes","name":"balanceProof","type":"bytes"},{"internalType":"bytes","name":"publicValues","type":"bytes"}],"name":"withdraw","outputs":[],"stateMutability":"nonpayable","type":"function"}],"evm":{"bytecode":{"linkReferences":{},"object":"60a06040523480156200001157600080fd5b50604051620022313803806200223183398101604081905262000034916200007a565b6001600160a01b03918216608052600380546001600160a01b03191691909216179055620000b2565b80516001600160a01b03811681146200007557600080fd5b919050565b600080604083850312156200008e57600080fd5b62000099836200005d565b9150620000a9602084016200005d565b90509250929050565b608051612147620000ea600039600081816101d90152818161079b01528181610c0c015281816112a6015261161001526121476000f3fe608060405234801561001057600080fd5b50600436106101215760003560e01c8063839df945116100ad578063d4a82dc511610071578063d4a82dc5146102a3578063dac90aeb146102b6578063e5ea7be2146102c9578063eb3349b9146102dc578063fdb87ec71461036557600080fd5b8063839df9451461023457806394137c9014610257578063b54fcff91461026a578063ca29a4051461027d578063d43ffa2f1461029057600080fd5b806349590657116100f457806349590657146101cc57806352a07fa3146101d45780635eda69b1146101fb5780636f3bcf671461020e5780637318754d1461022157600080fd5b8063012d09b51461012657806318afae2c146101595780632997e86b1461016e578063309f477a146101a1575b600080fd5b6101466101343660046118b7565b60056020526000908152604090205481565b6040519081526020015b60405180910390f35b61016c61016736600461190f565b610390565b005b61019161017c3660046118b7565b60026020526000908152604090205460ff1681565b6040519015158152602001610150565b6003546101b4906001600160a01b031681565b6040516001600160a01b039091168152602001610150565b61014661045d565b6101b47f000000000000000000000000000000000000000000000000000000000000000081565b61016c610209366004611956565b61050a565b61016c61021c3660046119d7565b6106d5565b61016c61022f366004611956565b6109b6565b6101916102423660046118b7565b60016020526000908152604090205460ff1681565b610191610265366004611aa2565b610a27565b61016c610278366004611ac4565b610b17565b61016c61028b366004611b2f565b610d94565b61016c61029e366004611bcd565b610f74565b6101466102b13660046118b7565b61146d565b61016c6102c4366004611c46565b61148e565b61016c6102d7366004611aa2565b611754565b61032c6102ea366004611aa2565b6006602052600090815260409020805460018201546002909201546001600160401b0380831693600160401b8404821693600160801b90049091169160ff1685565b604080516001600160401b039687168152948616602086015292909416918301919091526060820152901515608082015260a001610150565b610378610373366004611cf4565b6117f4565b6040516001600160401b039091168152602001610150565b6003546001600160a01b031633146103eb5760405162461bcd60e51b81526020600482015260196024820152784f6e6c7920636f6d706c69616e636520617574686f7269747960381b60448201526064015b60405180910390fd5b604051630b0ac0ab60e01b815273333333333333333333333333333333333333333390630b0ac0ab9061042690849087908790600401611d10565b600060405180830381600087803b15801561044057600080fd5b505af1158015610454573d6000803e3d6000fd5b50505050505050565b600454600090810361046f5750600090565b6000600460008154811061048557610485611d3a565b600091825260209091200154905060015b6004548110156105045781600482815481106104b4576104b4611d3a565b90600052602060002001546040516020016104d9929190918252602082015260400190565b60405160208183030381529060405280519060200120915080806104fc90611d66565b915050610496565b50919050565b6000816001600160401b0316116105635760405162461bcd60e51b815260206004820152601d60248201527f416d6f756e74206d7573742062652067726561746572207468616e203000000060448201526064016103e2565b600061056f33846117f4565b9050816001600160401b0316816001600160401b031610156105d35760405162461bcd60e51b815260206004820152601960248201527f496e73756666696369656e742073706f742062616c616e63650000000000000060448201526064016103e2565b60006105df30856117f4565b6040805160a0810182526001600160401b03878116808352878216602080850182815287851686880190815242606088019081526000608089018181523380835260068752918b902099518a54955194518a16600160801b0267ffffffffffffffff60801b19958b16600160401b026fffffffffffffffffffffffffffffffff1990971691909a1617949094179290921696909617875594516001870155516002909501805495151560ff19909616959095179094558451918252928101929092529293507fac44786729a70fd941b7584083b7454cfc1720db49dd28841b8caec86f6adb25910160405180910390a250505050565b60006106e386880188611db5565b80519091508a1461072c5760405162461bcd60e51b8152602060048201526013602482015272086dedadad2e8dacadce840dad2e6dac2e8c6d606b1b60448201526064016103e2565b60008a81526020819052604090206002015460ff166107845760405162461bcd60e51b815260206004820152601460248201527315985d5b1d08191bd95cc81b9bdd08195e1a5cdd60621b60448201526064016103e2565b60405163020a49e360e51b81526001600160a01b037f000000000000000000000000000000000000000000000000000000000000000016906341493c60906107f7907e6bf06179a19e1575731cbb10c5b9cc955cae6f0a5de98cf8baf3c7c416131a908b908b908f908f90600401611e3a565b60006040518083038186803b15801561080f57600080fd5b505afa158015610823573d6000803e3d6000fd5b5050604051634e4719ab60e01b815263ffffffff8816600482015286151560248201526001600160401b038087166044830152851660648201527333333333333333333333333333333333333333339250634e4719ab9150608401600060405180830381600087803b15801561089857600080fd5b505af11580156108ac573d6000803e3d6000fd5b5050505083156109155760008a81526020818152604080832063ffffffff89168452600101909152812080548492906108e990849060070b611e73565b92506101000a8154816001600160401b03021916908360070b6001600160401b03160217905550610970565b60008a81526020818152604080832063ffffffff891684526001019091528120805484929061094890849060070b611ea2565b92506101000a8154816001600160401b03021916908360070b6001600160401b031602179055505b897f8f3dba1073f4b750e9392983cbbdd0d9b7e8380008bdda0e7683e3c3aa5c5189426040516109a291815260200190565b60405180910390a250505050505050505050565b604051630b0ac0ab60e01b815273333333333333333333333333333333333333333390630b0ac0ab906109f190309086908690600401611d10565b600060405180830381600087803b158015610a0b57600080fd5b505af1158015610a1f573d6000803e3d6000fd5b505050505050565b6001600160a01b0381166000908152600660209081526040808320815160a08101835281546001600160401b038082168352600160401b82048116958301869052600160801b9091041692810192909252600181015460608301526002015460ff1615156080820152901580610a9e575080608001515b15610aac5750600092915050565b6060810151610abd90610e10611ed1565b421115610acd5750600092915050565b6000610add3083600001516117f4565b90506000826040015182610af19190611ee4565b905082602001516001600160401b0316816001600160401b031610159350505050919050565b6000610b2582840184611f0b565b805160009081526020819052604090206002015490915060ff16610b825760405162461bcd60e51b815260206004820152601460248201527315985d5b1d08191bd95cc81b9bdd08195e1a5cdd60621b60448201526064016103e2565b60608101518151600090815260208181526040808320828601516001600160401b039081168552925290912054161015610bf55760405162461bcd60e51b8152602060048201526014602482015273496e73756666696369656e742062616c616e636560601b60448201526064016103e2565b60405163020a49e360e51b81526001600160a01b037f000000000000000000000000000000000000000000000000000000000000000016906341493c6090610c68907e8484840d42565b9589f5c37253789d3731407964b1537fb5cf9d6064226b1c90879087908b908b90600401611e3a565b60006040518083038186803b158015610c8057600080fd5b505afa158015610c94573d6000803e3d6000fd5b50505060608201518251600090815260208181526040808320828701516001600160401b03908116855292528220805493945092610cd491859116611ee4565b82546101009290920a6001600160401b0381810219909316918316021790915560808301518351600090815260208181526040808320818801518616845290915281208054929450929091610d2b91859116611f97565b92506101000a8154816001600160401b0302191690836001600160401b0316021790555080600001517f8f3dba1073f4b750e9392983cbbdd0d9b7e8380008bdda0e7683e3c3aa5c518942604051610d8591815260200190565b60405180910390a25050505050565b60008781526001602052604090205460ff1615610ded5760405162461bcd60e51b815260206004820152601760248201527610dbdb5b5a5d1b595b9d08185b1c9958591e481d5cd959604a1b60448201526064016103e2565b604051630b0ac0ab60e01b815273333333333333333333333333333333333333333390630b0ac0ab90610e289030908a908a90600401611d10565b600060405180830381600087803b158015610e4257600080fd5b505af1158015610e56573d6000803e3d6000fd5b5050506000888152600160208181526040808420805460ff19169093179092558281528183206001600160401b03808c16855291529082208054899450909291610ea291859116611f97565b82546001600160401b039182166101009390930a9283029190920219909116179055506000878152602081905260408120600201805460ff19166001908117909155600480548083018255928190527f8a35acfbc15ff81a39ae7d344fd709f28e8600b4aa8c65c6b64bfe7fe36bd19b9092018990559054610f249190611fb7565b600088815260056020908152604091829020929092555142815288917f02d0beb141922199e99106aa1e9e523add96e905baf9299bfb1042acd145bf5c910160405180910390a250505050505050565b60008581526001602052604090205460ff1615610fcd5760405162461bcd60e51b815260206004820152601760248201527610dbdb5b5a5d1b595b9d08185b1c9958591e481d5cd959604a1b60448201526064016103e2565b33600090815260066020908152604091829020825160a08101845281546001600160401b038082168352600160401b82048116948301859052600160801b9091041693810193909352600181015460608401526002015460ff161515608083015261106f5760405162461bcd60e51b8152602060048201526012602482015271139bc81c195b991a5b99c819195c1bdcda5d60721b60448201526064016103e2565b8060800151156110c15760405162461bcd60e51b815260206004820152601960248201527f4465706f73697420616c726561647920636f6d706c657465640000000000000060448201526064016103e2565b60608101516110d290610e10611ed1565b4211156111135760405162461bcd60e51b815260206004820152600f60248201526e11195c1bdcda5d08195e1c1a5c9959608a1b60448201526064016103e2565b60006111233083600001516117f4565b905060008260400151826111379190611ee4565b905082602001516001600160401b0316816001600160401b031610156111985760405162461bcd60e51b8152602060048201526016602482015275151bdad95b9cc81b9bdd081d1c985b9cd9995c9c995960521b60448201526064016103e2565b60006111a685870187611fca565b805190915089146111ef5760405162461bcd60e51b8152602060048201526013602482015272086dedadad2e8dacadce840dad2e6dac2e8c6d606b1b60448201526064016103e2565b60035460208201516001600160a01b039081169116146112455760405162461bcd60e51b8152602060048201526011602482015270496e76616c696420617574686f7269747960781b60448201526064016103e2565b428160400151101561128f5760405162461bcd60e51b815260206004820152601360248201527210d95c9d1a599a58d85d1948195e1c1a5c9959606a1b60448201526064016103e2565b60405163020a49e360e51b81526001600160a01b037f000000000000000000000000000000000000000000000000000000000000000016906341493c6090611302907eed1611619b8f2866de7be17d81a9d42a869b4c5959629708f125ae34a2f9ee908a908a908e908e90600401611e3a565b60006040518083038186803b15801561131a57600080fd5b505afa15801561132e573d6000803e3d6000fd5b50503360009081526006602090815260408083206002018054600160ff1991821681179092558f855281845282852080549091169091179055888201518383528184208a516001600160401b03908116865293529083208054919550935061139891859116611f97565b82546001600160401b039182166101009390930a9283029190920219909116179055506000898152602081905260408120600201805460ff19166001908117909155600480548083018255928190527f8a35acfbc15ff81a39ae7d344fd709f28e8600b4aa8c65c6b64bfe7fe36bd19b9092018b9055905461141a9190611fb7565b60008a81526005602090815260409182902092909255514281528a917f02d0beb141922199e99106aa1e9e523add96e905baf9299bfb1042acd145bf5c91015b60405180910390a2505050505050505050565b6004818154811061147d57600080fd5b600091825260209091200154905081565b60008881526002602052604090205460ff16156114e65760405162461bcd60e51b8152602060048201526016602482015275139d5b1b1a599a595c88185b1c9958591e481d5cd95960521b60448201526064016103e2565b60006114f482840184612017565b90506114fe61045d565b8160200151146115465760405162461bcd60e51b8152602060048201526013602482015272125b9d985b1a59081b595c9adb19481c9bdbdd606a1b60448201526064016103e2565b856001600160401b0316816040015110156115a35760405162461bcd60e51b815260206004820152601b60248201527f496e73756666696369656e742070726f76656e2062616c616e6365000000000060448201526064016103e2565b866001600160401b031681606001516001600160401b0316146115f95760405162461bcd60e51b815260206004820152600e60248201526d082e6e6cae840dad2e6dac2e8c6d60931b60448201526064016103e2565b60405163020a49e360e51b81526001600160a01b037f000000000000000000000000000000000000000000000000000000000000000016906341493c609061166c907e9c22b4f95fb710070dc80cfce7526c4cc7780834ab328bd769ff58934e6d0590879087908b908b90600401611e3a565b60006040518083038186803b15801561168457600080fd5b505afa158015611698573d6000803e3d6000fd5b50505060008a81526002602052604090819020805460ff1916600117905551630b0ac0ab60e01b81527333333333333333333333333333333333333333339150630b0ac0ab906116f0908b908b908b90600401611d10565b600060405180830381600087803b15801561170a57600080fd5b505af115801561171e573d6000803e3d6000fd5b50505050887fcc9580996e4c53ac7e73439f181e208ab15831ea2d2429dd12ee742c1c475b6f4260405161145a91815260200190565b6003546001600160a01b031633146117aa5760405162461bcd60e51b81526020600482015260196024820152784f6e6c7920636f6d706c69616e636520617574686f7269747960381b60448201526064016103e2565b600380546001600160a01b0319166001600160a01b0383169081179091556040517f829c4ef70a1fb0edb9daa0db5c77d61190e746db94bce7dc78fee99d04fb409990600090a250565b604080516001600160a01b03841660208201526001600160401b03831681830152815180820383018152606090910191829052600091829081906108019061183d908590612063565b600060405180830381855afa9150503d8060008114611878576040519150601f19603f3d011682016040523d82523d6000602084013e61187d565b606091505b50915091508161189357600093505050506118b1565b6000818060200190518101906118a99190612092565b519450505050505b92915050565b6000602082840312156118c957600080fd5b5035919050565b6001600160401b03811681146118e557600080fd5b50565b80356118f3816118d0565b919050565b80356001600160a01b03811681146118f357600080fd5b60008060006060848603121561192457600080fd5b833561192f816118d0565b9250602084013561193f816118d0565b915061194d604085016118f8565b90509250925092565b6000806040838503121561196957600080fd5b8235611974816118d0565b91506020830135611984816118d0565b809150509250929050565b60008083601f8401126119a157600080fd5b5081356001600160401b038111156119b857600080fd5b6020830191508360208285010111156119d057600080fd5b9250929050565b600080600080600080600080600060e08a8c0312156119f557600080fd5b8935985060208a01356001600160401b0380821115611a1357600080fd5b611a1f8d838e0161198f565b909a50985060408c0135915080821115611a3857600080fd5b50611a458c828d0161198f565b90975095505060608a013563ffffffff81168114611a6257600080fd5b935060808a01358015158114611a7757600080fd5b9250611a8560a08b016118e8565b9150611a9360c08b016118e8565b90509295985092959850929598565b600060208284031215611ab457600080fd5b611abd826118f8565b9392505050565b60008060008060408587031215611ada57600080fd5b84356001600160401b0380821115611af157600080fd5b611afd8883890161198f565b90965094506020870135915080821115611b1657600080fd5b50611b238782880161198f565b95989497509550505050565b600080600080600080600060a0888a031215611b4a57600080fd5b873596506020880135611b5c816118d0565b95506040880135611b6c816118d0565b945060608801356001600160401b0380821115611b8857600080fd5b611b948b838c0161198f565b909650945060808a0135915080821115611bad57600080fd5b50611bba8a828b0161198f565b989b979a50959850939692959293505050565b600080600080600060608688031215611be557600080fd5b8535945060208601356001600160401b0380821115611c0357600080fd5b611c0f89838a0161198f565b90965094506040880135915080821115611c2857600080fd5b50611c358882890161198f565b969995985093965092949392505050565b60008060008060008060008060c0898b031215611c6257600080fd5b88359750611c7260208a016118f8565b96506040890135611c82816118d0565b95506060890135611c92816118d0565b945060808901356001600160401b0380821115611cae57600080fd5b611cba8c838d0161198f565b909650945060a08b0135915080821115611cd357600080fd5b50611ce08b828c0161198f565b999c989b5096995094979396929594505050565b60008060408385031215611d0757600080fd5b611974836118f8565b6001600160a01b039390931683526001600160401b03918216602084015216604082015260600190565b634e487b7160e01b600052603260045260246000fd5b634e487b7160e01b600052601160045260246000fd5b600060018201611d7857611d78611d50565b5060010190565b604051608081016001600160401b0381118282101715611daf57634e487b7160e01b600052604160045260246000fd5b60405290565b600060408284031215611dc757600080fd5b604051604081018181106001600160401b0382111715611df757634e487b7160e01b600052604160045260246000fd5b604052823581526020928301359281019290925250919050565b81835281816020850137506000828201602090810191909152601f909101601f19169091010190565b858152606060208201526000611e54606083018688611e11565b8281036040840152611e67818587611e11565b98975050505050505050565b600781810b9083900b01677fffffffffffffff8113677fffffffffffffff19821217156118b1576118b1611d50565b600782810b9082900b03677fffffffffffffff198112677fffffffffffffff821317156118b1576118b1611d50565b808201808211156118b1576118b1611d50565b6001600160401b03828116828216039080821115611f0457611f04611d50565b5092915050565b600060a08284031215611f1d57600080fd5b60405160a081018181106001600160401b0382111715611f4d57634e487b7160e01b600052604160045260246000fd5b604052823581526020830135611f62816118d0565b60208201526040830135611f75816118d0565b6040820152606083810135908201526080928301359281019290925250919050565b6001600160401b03818116838216019080821115611f0457611f04611d50565b818103818111156118b1576118b1611d50565b600060808284031215611fdc57600080fd5b611fe4611d7f565b82358152611ff4602084016118f8565b602082015260408301356040820152606083013560608201528091505092915050565b60006080828403121561202957600080fd5b612031611d7f565b8235815260208301356020820152604083013560408201526060830135612057816118d0565b60608201529392505050565b6000825160005b81811015612084576020818601810151858301520161206a565b506000920191825250919050565b6000606082840312156120a457600080fd5b604051606081018181106001600160401b03821117156120d457634e487b7160e01b600052604160045260246000fd5b60405282516120e2816118d0565b815260208301516120f2816118d0565b60208201526040830151612105816118d0565b6040820152939250505056fea26469706673582212204c41e79f9d85787c5fcc15b1b73afa6c82be79047feb73e4dad2b293fc27fc3964736f6c63430008130033","opcodes":"PUSH1 0xA0 PUSH1 0x40 MSTORE CALLVALUE DUP1 ISZERO PUSH3 0x11 JUMPI PUSH1 0x0 DUP1 REVERT JUMPDEST POP PUSH1 0x40 MLOAD PUSH3 0x2231 CODESIZE SUB DUP1 PUSH3 0x2231 DUP4 CODECOPY DUP2 ADD PUSH1 0x40 DUP2 SWAP1 MSTORE PUSH3 0x34 SWAP2 PUSH3 0x7A JUMP JUMPDEST PUSH1 0x1 PUSH1 0x1 PUSH1 0xA0 SHL SUB SWAP2 DUP3 AND PUSH1 0x80 MSTORE PUSH1 0x3 DUP1 SLOAD PUSH1 0x1 PUSH1 0x1 PUSH1 0xA0 SHL SUB NOT AND SWAP2 SWAP1 SWAP3 AND OR SWAP1 SSTORE PUSH3 0xB2 JUMP JUMPDEST DUP1 MLOAD PUSH1 0x1 PUSH1 0x1 PUSH1 0xA0 SHL SUB DUP2 AND DUP2 EQ PUSH3 0x75 JUMPI PUSH1 0x0 DUP1 REVERT JUMPDEST SWAP2 SWAP1 POP JUMP JUMPDEST PUSH1 0x0 DUP1 PUSH1 0x40 DUP4 DUP6 SUB SLT ISZERO PUSH3 0x8E JUMPI PUSH1 0x0 DUP1 REVERT JUMPDEST PUSH3 0x99 DUP4 PUSH3 0x5D JUMP JUMPDEST SWAP2 POP PUSH3 0xA9 PUSH1 0x20 DUP5 ADD PUSH3 0x5D JUMP JUMPDEST SWAP1 POP SWAP3 POP SWAP3 SWAP1 POP JUMP JUMPDEST PUSH1 0x80 MLOAD PUSH2 0x2147 PUSH3 0xEA PUSH1 0x0 CODECOPY PUSH1 0x0 DUP2 DUP2 PUSH2 0x1D9 ADD MSTORE DUP2 DUP2 PUSH2 0x79B ADD MSTORE DUP2 DUP2 PUSH2 0xC0C ADD MSTORE DUP2 DUP2 PUSH2 0x12A6 ADD MSTORE PUSH2 0x1610 ADD MSTORE PUSH2 0x2147 PUSH1 0x0 RETURN INVALID PUSH1 0x80 PUSH1 0x40 MSTORE CALLVALUE DUP1 ISZERO PUSH2 0x10 JUMPI PUSH1 0x0 DUP1 REVERT JUMPDEST POP PUSH1 0x4 CALLDATASIZE LT PUSH2 0x121 JUMPI PUSH1 0x0 CALLDATALOAD PUSH1 0xE0 SHR DUP1 PUSH4 0x839DF945 GT PUSH2 0xAD JUMPI DUP1 PUSH4 0xD4A82DC5 GT PUSH2 0x71 JUMPI DUP1 PUSH4 0xD4A82DC5 EQ PUSH2 0x2A3 JUMPI DUP1 PUSH4 0xDAC90AEB EQ PUSH2 0x2B6 JUMPI DUP1 PUSH4 0xE5EA7BE2 EQ PUSH2 0x2C9 JUMPI DUP1 PUSH4 0xEB3349B9 EQ PUSH2 0x2DC JUMPI DUP1 PUSH4 0xFDB87EC7 EQ PUSH2 0x365 JUMPI PUSH1 0x0 DUP1 REVERT JUMPDEST DUP1 PUSH4 0x839DF945 EQ PUSH2 0x234 JUMPI DUP1 PUSH4 0x94137C90 EQ PUSH2 0x257 JUMPI DUP1 PUSH4 0xB54FCFF9 EQ PUSH2 0x26A JUMPI DUP1 PUSH4 0xCA29A405 EQ PUSH2 0x27D JUMPI DUP1 PUSH4 0xD43FFA2F EQ PUSH2 0x290 JUMPI PUSH1 0x0 DUP1 REVERT JUMPDEST DUP1 PUSH4 0x49590657 GT PUSH2 0xF4 JUMPI DUP1 PUSH4 0x49590657 EQ PUSH2 0x1CC JUMPI DUP1 PUSH4 0x52A07FA3 EQ PUSH2 0x1D4 JUMPI DUP1 PUSH4 0x5EDA69B1 EQ PUSH2 0x1FB JUMPI DUP1 PUSH4 0x6F3BCF67 EQ PUSH2 0x20E JUMPI DUP1 PUSH4 0x7318754D EQ PUSH2 0x221 JUMPI PUSH1 0x0 DUP1 REVERT JUMPDEST DUP1 PUSH4 0x12D09B5 EQ PUSH2 0x126 JUMPI DUP1 PUSH4 0x18AFAE2C EQ PUSH2 0x159 JUMPI DUP1 PUSH4 0x2997E86B EQ PUSH2 0x16E JUMPI DUP1 PUSH4 0x309F477A EQ PUSH2 0x1A1 JUMPI JUMPDEST PUSH1 0x0 DUP1 REVERT JUMPDEST PUSH2 0x146 PUSH2 0x134 CALLDATASIZE PUSH1 0x4 PUSH2 0x18B7 JUMP JUMPDEST PUSH1 0x5 PUSH1 0x20 MSTORE PUSH1 0x0 SWAP1 DUP2 MSTORE PUSH1 0x40 SWAP1 KECCAK256 SLOAD DUP2 JUMP JUMPDEST PUSH1 0x40 MLOAD SWAP1 DUP2 MSTORE PUSH1 0x20 ADD JUMPDEST PUSH1 0x40 MLOAD DUP1 SWAP2 SUB SWAP1 RETURN JUMPDEST PUSH2 0x16C PUSH2 0x167 CALLDATASIZE PUSH1 0x4 PUSH2 0x190F JUMP JUMPDEST PUSH2 0x390 JUMP JUMPDEST STOP JUMPDEST PUSH2 0x191 PUSH2 0x17C CALLDATASIZE PUSH1 0x4 PUSH2 0x18B7 JUMP JUMPDEST PUSH1 0x2 PUSH1 0x20 MSTORE PUSH1 0x0 SWAP1 DUP2 MSTORE PUSH1 0x40 SWAP1 KECCAK256 SLOAD PUSH1 0xFF AND DUP2 JUMP JUMPDEST PUSH1 0x40 MLOAD SWAP1 ISZERO ISZERO DUP2 MSTORE PUSH1 0x20 ADD PUSH2 0x150 JUMP JUMPDEST PUSH1 0x3 SLOAD PUSH2 0x1B4 SWAP1 PUSH1 0x1 PUSH1 0x1 PUSH1 0xA0 SHL SUB AND DUP2 JUMP JUMPDEST PUSH1 0x40 MLOAD PUSH1 0x1 PUSH1 0x1 PUSH1 0xA0 SHL SUB SWAP1 SWAP2 AND DUP2 MSTORE PUSH1 0x20 ADD PUSH2 0x150 JUMP JUMPDEST PUSH2 0x146 PUSH2 0x45D JUMP JUMPDEST PUSH2 0x1B4 PUSH32 0x0 DUP2 JUMP JUMPDEST PUSH2 0x16C PUSH2 0x209 CALLDATASIZE PUSH1 0x4 PUSH2 0x1956 JUMP JUMPDEST PUSH2 0x50A JUMP JUMPDEST PUSH2 0x16C PUSH2 0x21C CALLDATASIZE PUSH1 0x4 PUSH2 0x19D7 JUMP JUMPDEST PUSH2 0x6D5 JUMP JUMPDEST PUSH2 0x16C PUSH2 0x22F CALLDATASIZE PUSH1 0x4 PUSH2 0x1956 JUMP JUMPDEST PUSH2 0x9B6 JUMP JUMPDEST PUSH2 0x191 PUSH2 0x242 CALLDATASIZE PUSH1 0x4 PUSH2 0x18B7 JUMP JUMPDEST PUSH1 0x1 PUSH1 0x20 MSTORE PUSH1 0x0 SWAP1 DUP2 MSTORE PUSH1 0x40 SWAP1 KECCAK256 SLOAD PUSH1 0xFF AND DUP2 JUMP JUMPDEST PUSH2 0x191 PUSH2 0x265 CALLDATASIZE PUSH1 0x4 PUSH2 0x1AA2 JUMP JUMPDEST PUSH2 0xA27 JUMP JUMPDEST PUSH2 0x16C PUSH2 0x278 CALLDATASIZE PUSH1 0x4 PUSH2 0x1AC4 JUMP JUMPDEST PUSH2 0xB17 JUMP JUMPDEST PUSH2 0x16C PUSH2 0x28B CALLDATASIZE PUSH1 0x4 PUSH2 0x1B2F JUMP JUMPDEST PUSH2 0xD94 JUMP JUMPDEST PUSH2 0x16C PUSH2 0x29E CALLDATASIZE PUSH1 0x4 PUSH2 0x1BCD JUMP JUMPDEST PUSH2 0xF74 JUMP JUMPDEST PUSH2 0x146 PUSH2 0x2B1 CALLDATASIZE PUSH1 0x4 PUSH2 0x18B7 JUMP JUMPDEST PUSH2 0x146D JUMP JUMPDEST PUSH2 0x16C PUSH2 0x2C4 CALLDATASIZE PUSH1 0x4 PUSH2 0x1C46 JUMP JUMPDEST PUSH2 0x148E JUMP JUMPDEST PUSH2 0x16C PUSH2 0x2D7 CALLDATASIZE PUSH1 0x4 PUSH2 0x1AA2 JUMP JUMPDEST PUSH2 0x1754 JUMP JUMPDEST PUSH2 0x32C PUSH2 0x2EA CALLDATASIZE PUSH1 0x4 PUSH2 0x1AA2 JUMP JUMPDEST PUSH1 0x6 PUSH1 0x20 MSTORE PUSH1 0x0 SWAP1 DUP2 MSTORE PUSH1 0x40 SWAP1 KECCAK256 DUP1 SLOAD PUSH1 0x1 DUP3 ADD SLOAD PUSH1 0x2 SWAP1 SWAP3 ADD SLOAD PUSH1 0x1 PUSH1 0x1 PUSH1 0x40 SHL SUB DUP1 DUP4 AND SWAP4 PUSH1 0x1 PUSH1 0x40 SHL DUP5 DIV DUP3 AND SWAP4 PUSH1 0x1 PUSH1 0x80 SHL SWAP1 DIV SWAP1 SWAP2 AND SWAP2 PUSH1 0xFF AND DUP6 JUMP JUMPDEST PUSH1 0x40 DUP1 MLOAD PUSH1 0x1 PUSH1 0x1 PUSH1 0x40 SHL SUB SWAP7 DUP8 AND DUP2 MSTORE SWAP5 DUP7 AND PUSH1 0x20 DUP7 ADD MSTORE SWAP3 SWAP1 SWAP5 AND SWAP2 DUP4 ADD SWAP2 SWAP1 SWAP2 MSTORE PUSH1 0x60 DUP3 ADD MSTORE SWAP1 ISZERO ISZERO PUSH1 0x80 DUP3 ADD MSTORE PUSH1 0xA0 ADD PUSH2 0x150 JUMP JUMPDEST PUSH2 0x378 PUSH2 0x373 CALLDATASIZE PUSH1 0x4 PUSH2 0x1CF4 JUMP JUMPDEST PUSH2 0x17F4 JUMP JUMPDEST PUSH1 0x40 MLOAD PUSH1 0x1 PUSH1 0x1 PUSH1 0x40 SHL SUB SWAP1 SWAP2 AND DUP2 MSTORE PUSH1 0x20 ADD PUSH2 0x150 JUMP JUMPDEST PUSH1 0x3 SLOAD PUSH1 0x1 PUSH1 0x1 PUSH1 0xA0 SHL SUB AND CALLER EQ PUSH2 0x3EB JUMPI PUSH1 0x40 MLOAD PUSH3 0x461BCD PUSH1 0xE5 SHL DUP2 MSTORE PUSH1 0x20 PUSH1 0x4 DUP3 ADD MSTORE PUSH1 0x19 PUSH1 0x24 DUP3 ADD MSTORE PUSH25 0x4F6E6C7920636F6D706C69616E636520617574686F72697479 PUSH1 0x38 SHL PUSH1 0x44 DUP3 ADD MSTORE PUSH1 0x64 ADD JUMPDEST PUSH1 0x40 MLOAD DUP1 SWAP2 SUB SWAP1 REVERT JUMPDEST PUSH1 0x40 MLOAD PUSH4 0xB0AC0AB PUSH1 0xE0 SHL DUP2 MSTORE PUSH20 0x3333333333333333333333333333333333333333 SWAP1 PUSH4 0xB0AC0AB SWAP1 PUSH2 0x426 SWAP1 DUP5 SWAP1 DUP8 SWAP1 DUP8 SWAP1 PUSH1 0x4 ADD PUSH2 0x1D10 JUMP JUMPDEST PUSH1 0x0 PUSH1 0x40 MLOAD DUP1 DUP4 SUB DUP2 PUSH1 0x0 DUP8 DUP1 EXTCODESIZE ISZERO DUP1 ISZERO PUSH2 0x440 JUMPI PUSH1 0x0 DUP1 REVERT JUMPDEST POP GAS CALL ISZERO DUP1 ISZERO PUSH2 0x454 JUMPI RETURNDATASIZE PUSH1 0x0 DUP1 RETURNDATACOPY RETURNDATASIZE PUSH1 0x0 REVERT JUMPDEST POP POP POP POP POP POP POP JUMP JUMPDEST PUSH1 0x4 SLOAD PUSH1 0x0 SWAP1 DUP2 SUB PUSH2 0x46F JUMPI POP PUSH1 0x0 SWAP1 JUMP JUMPDEST PUSH1 0x0 PUSH1 0x4 PUSH1 0x0 DUP2 SLOAD DUP2 LT PUSH2 0x485 JUMPI PUSH2 0x485 PUSH2 0x1D3A JUMP JUMPDEST PUSH1 0x0 SWAP2 DUP3 MSTORE PUSH1 0x20 SWAP1 SWAP2 KECCAK256 ADD SLOAD SWAP1 POP PUSH1 0x1 JUMPDEST PUSH1 0x4 SLOAD DUP2 LT ISZERO PUSH2 0x504 JUMPI DUP2 PUSH1 0x4 DUP3 DUP2 SLOAD DUP2 LT PUSH2 0x4B4 JUMPI PUSH2 0x4B4 PUSH2 0x1D3A JUMP JUMPDEST SWAP1 PUSH1 0x0 MSTORE PUSH1 0x20 PUSH1 0x0 KECCAK256 ADD SLOAD PUSH1 0x40 MLOAD PUSH1 0x20 ADD PUSH2 0x4D9 SWAP3 SWAP2 SWAP1 SWAP2 DUP3 MSTORE PUSH1 0x20 DUP3 ADD MSTORE PUSH1 0x40 ADD SWAP1 JUMP JUMPDEST PUSH1 0x40 MLOAD PUSH1 0x20 DUP2 DUP4 SUB SUB DUP2 MSTORE SWAP1 PUSH1 0x40 MSTORE DUP1 MLOAD SWAP1 PUSH1 0x20 ADD KECCAK256 SWAP2 POP DUP1 DUP1 PUSH2 0x4FC SWAP1 PUSH2 0x1D66 JUMP JUMPDEST SWAP2 POP POP PUSH2 0x496 JUMP JUMPDEST POP SWAP2 SWAP1 POP JUMP JUMPDEST PUSH1 0x0 DUP2 PUSH1 0x1 PUSH1 0x1 PUSH1 0x40 SHL SUB AND GT PUSH2 0x563 JUMPI PUSH1 0x40 MLOAD PUSH3 0x461BCD PUSH1 0xE5 SHL DUP2 MSTORE PUSH1 0x20 PUSH1 0x4 DUP3 ADD MSTORE PUSH1 0x1D PUSH1 0x24 DUP3 ADD MSTORE PUSH32 0x416D6F756E74206D7573742062652067726561746572207468616E2030000000 PUSH1 0x44 DUP3 ADD MSTORE PUSH1 0x64 ADD PUSH2 0x3E2 JUMP JUMPDEST PUSH1 0x0 PUSH2 0x56F CALLER DUP5 PUSH2 0x17F4 JUMP JUMPDEST SWAP1 POP DUP2 PUSH1 0x1 PUSH1 0x1 PUSH1 0x40 SHL SUB AND DUP2 PUSH1 0x1 PUSH1 0x1 PUSH1 0x40 SHL SUB AND LT ISZERO PUSH2 0x5D3 JUMPI PUSH1 0x40 MLOAD PUSH3 0x461BCD PUSH1 0xE5 SHL DUP2 MSTORE PUSH1 0x20 PUSH1 0x4 DUP3 ADD MSTORE PUSH1 0x19 PUSH1 0x24 DUP3 ADD MSTORE PUSH32 0x496E73756666696369656E742073706F742062616C616E636500000000000000 PUSH1 0x44 DUP3 ADD MSTORE PUSH1 0x64 ADD PUSH2 0x3E2 JUMP JUMPDEST PUSH1 0x0 PUSH2 0x5DF ADDRESS DUP6 PUSH2 0x17F4 JUMP JUMPDEST PUSH1 0x40 DUP1 MLOAD PUSH1 0xA0 DUP2 ADD DUP3 MSTORE PUSH1 0x1 PUSH1 0x1 PUSH1 0x40 SHL SUB DUP8 DUP2 AND DUP1 DUP4 MSTORE DUP8 DUP3 AND PUSH1 0x20 DUP1 DUP6 ADD DUP3 DUP2 MSTORE DUP8 DUP6 AND DUP7 DUP9 ADD SWAP1 DUP2 MSTORE TIMESTAMP PUSH1 0x60 DUP9 ADD SWAP1 DUP2 MSTORE PUSH1 0x0 PUSH1 0x80 DUP10 ADD DUP2 DUP2 MSTORE CALLER DUP1 DUP4 MSTORE PUSH1 0x6 DUP8 MSTORE SWAP2 DUP12 SWAP1 KECCAK256 SWAP10 MLOAD DUP11 SLOAD SWAP6 MLOAD SWAP5 MLOAD DUP11 AND PUSH1 0x1 PUSH1 0x80 SHL MUL PUSH8 0xFFFFFFFFFFFFFFFF PUSH1 0x80 SHL NOT SWAP6 DUP12 AND PUSH1 0x1 PUSH1 0x40 SHL MUL PUSH16 0xFFFFFFFFFFFFFFFFFFFFFFFFFFFFFFFF NOT SWAP1 SWAP8 AND SWAP2 SWAP1 SWAP11 AND OR SWAP5 SWAP1 SWAP5 OR SWAP3 SWAP1 SWAP3 AND SWAP7 SWAP1 SWAP7 OR DUP8 SSTORE SWAP5 MLOAD PUSH1 0x1 DUP8 ADD SSTORE MLOAD PUSH1 0x2 SWAP1 SWAP6 ADD DUP1 SLOAD SWAP6 ISZERO ISZERO PUSH1 0xFF NOT SWAP1 SWAP7 AND SWAP6 SWAP1 SWAP6 OR SWAP1 SWAP5 SSTORE DUP5 MLOAD SWAP2 DUP3 MSTORE SWAP3 DUP2 ADD SWAP3 SWAP1 SWAP3 MSTORE SWAP3 SWAP4 POP PUSH32 0xAC44786729A70FD941B7584083B7454CFC1720DB49DD28841B8CAEC86F6ADB25 SWAP2 ADD PUSH1 0x40 MLOAD DUP1 SWAP2 SUB SWAP1 LOG2 POP POP POP POP JUMP JUMPDEST PUSH1 0x0 PUSH2 0x6E3 DUP7 DUP9 ADD DUP9 PUSH2 0x1DB5 JUMP JUMPDEST DUP1 MLOAD SWAP1 SWAP2 POP DUP11 EQ PUSH2 0x72C JUMPI PUSH1 0x40 MLOAD PUSH3 0x461BCD PUSH1 0xE5 SHL DUP2 MSTORE PUSH1 0x20 PUSH1 0x4 DUP3 ADD MSTORE PUSH1 0x13 PUSH1 0x24 DUP3 ADD MSTORE PUSH19 0x86DEDADAD2E8DACADCE840DAD2E6DAC2E8C6D PUSH1 0x6B SHL PUSH1 0x44 DUP3 ADD MSTORE PUSH1 0x64 ADD PUSH2 0x3E2 JUMP JUMPDEST PUSH1 0x0 DUP11 DUP2 MSTORE PUSH1 0x20 DUP2 SWAP1 MSTORE PUSH1 0x40 SWAP1 KECCAK256 PUSH1 0x2 ADD SLOAD PUSH1 0xFF AND PUSH2 0x784 JUMPI PUSH1 0x40 MLOAD PUSH3 0x461BCD PUSH1 0xE5 SHL DUP2 MSTORE PUSH1 0x20 PUSH1 0x4 DUP3 ADD MSTORE PUSH1 0x14 PUSH1 0x24 DUP3 ADD MSTORE PUSH20 0x15985D5B1D08191BD95CC81B9BDD08195E1A5CDD PUSH1 0x62 SHL PUSH1 0x44 DUP3 ADD MSTORE PUSH1 0x64 ADD PUSH2 0x3E2 JUMP JUMPDEST PUSH1 0x40 MLOAD PUSH4 0x20A49E3 PUSH1 0xE5 SHL DUP2 MSTORE PUSH1 0x1 PUSH1 0x1 PUSH1 0xA0 SHL SUB PUSH32 0x0 AND SWAP1 PUSH4 0x41493C60 SWAP1 PUSH2 0x7F7 SWAP1 PUSH31 0x6BF06179A19E1575731CBB10C5B9CC955CAE6F0A5DE98CF8BAF3C7C416131A SWAP1 DUP12 SWAP1 DUP12 SWAP1 DUP16 SWAP1 DUP16 SWAP1 PUSH1 0x4 ADD PUSH2 0x1E3A JUMP JUMPDEST PUSH1 0x0 PUSH1 0x40 MLOAD DUP1 DUP4 SUB DUP2 DUP7 DUP1 EXTCODESIZE ISZERO DUP1 ISZERO PUSH2 0x80F JUMPI PUSH1 0x0 DUP1 REVERT JUMPDEST POP GAS STATICCALL ISZERO DUP1 ISZERO PUSH2 0x823 JUMPI RETURNDATASIZE PUSH1 0x0 DUP1 RETURNDATACOPY RETURNDATASIZE PUSH1 0x0 REVERT JUMPDEST POP POP PUSH1 0x40 MLOAD PUSH4 0x4E4719AB PUSH1 0xE0 SHL DUP2 MSTORE PUSH4 0xFFFFFFFF DUP9 AND PUSH1 0x4 DUP3 ADD MSTORE DUP7 ISZERO ISZERO PUSH1 0x24 DUP3 ADD MSTORE PUSH1 0x1 PUSH1 0x1 PUSH1 0x40 SHL SUB DUP1 DUP8 AND PUSH1 0x44 DUP4 ADD MSTORE DUP6 AND PUSH1 0x64 DUP3 ADD MSTORE PUSH20 0x3333333333333333333333333333333333333333 SWAP3 POP PUSH4 0x4E4719AB SWAP2 POP PUSH1 0x84 ADD PUSH1 0x0 PUSH1 0x40 MLOAD DUP1 DUP4 SUB DUP2 PUSH1 0x0 DUP8 DUP1 EXTCODESIZE ISZERO DUP1 ISZERO PUSH2 0x898 JUMPI PUSH1 0x0 DUP1 REVERT JUMPDEST POP GAS CALL ISZERO DUP1 ISZERO PUSH2 0x8AC JUMPI RETURNDATASIZE PUSH1 0x0 DUP1 RETURNDATACOPY RETURNDATASIZE PUSH1 0x0 REVERT JUMPDEST POP POP POP POP DUP4 ISZERO PUSH2 0x915 JUMPI PUSH1 0x0 DUP11 DUP2 MSTORE PUSH1 0x20 DUP2 DUP2 MSTORE PUSH1 0x40 DUP1 DUP4 KECCAK256 PUSH4 0xFFFFFFFF DUP10 AND DUP5 MSTORE PUSH1 0x1 ADD SWAP1 SWAP2 MSTORE DUP2 KECCAK256 DUP1 SLOAD DUP5 SWAP3 SWAP1 PUSH2 0x8E9 SWAP1 DUP5 SWAP1 PUSH1 0x7 SIGNEXTEND PUSH2 0x1E73 JUMP JUMPDEST SWAP3 POP PUSH2 0x100 EXP DUP2 SLOAD DUP2 PUSH1 0x1 PUSH1 0x1 PUSH1 0x40 SHL SUB MUL NOT AND SWAP1 DUP4 PUSH1 0x7 SIGNEXTEND PUSH1 0x1 PUSH1 0x1 PUSH1 0x40 SHL SUB AND MUL OR SWAP1 SSTORE POP PUSH2 0x970 JUMP JUMPDEST PUSH1 0x0 DUP11 DUP2 MSTORE PUSH1 0x20 DUP2 DUP2 MSTORE PUSH1 0x40 DUP1 DUP4 KECCAK256 PUSH4 0xFFFFFFFF DUP10 AND DUP5 MSTORE PUSH1 0x1 ADD SWAP1 SWAP2 MSTORE DUP2 KECCAK256 DUP1 SLOAD DUP5 SWAP3 SWAP1 PUSH2 0x948 SWAP1 DUP5 SWAP1 PUSH1 0x7 SIGNEXTEND PUSH2 0x1EA2 JUMP JUMPDEST SWAP3 POP PUSH2 0x100 EXP DUP2 SLOAD DUP2 PUSH1 0x1 PUSH1 0x1 PUSH1 0x40 SHL SUB MUL NOT AND SWAP1 DUP4 PUSH1 0x7 SIGNEXTEND PUSH1 0x1 PUSH1 0x1 PUSH1 0x40 SHL SUB AND MUL OR SWAP1 SSTORE POP JUMPDEST DUP10 PUSH32 0x8F3DBA1073F4B750E9392983CBBDD0D9B7E8380008BDDA0E7683E3C3AA5C5189 TIMESTAMP PUSH1 0x40 MLOAD PUSH2 0x9A2 SWAP2 DUP2 MSTORE PUSH1 0x20 ADD SWAP1 JUMP JUMPDEST PUSH1 0x40 MLOAD DUP1 SWAP2 SUB SWAP1 LOG2 POP POP POP POP POP POP POP POP POP POP JUMP JUMPDEST PUSH1 0x40 MLOAD PUSH4 0xB0AC0AB PUSH1 0xE0 SHL DUP2 MSTORE PUSH20 0x3333333333333333333333333333333333333333 SWAP1 PUSH4 0xB0AC0AB SWAP1 PUSH2 0x9F1 SWAP1 ADDRESS SWAP1 DUP7 SWAP1 DUP7 SWAP1 PUSH1 0x4 ADD PUSH2 0x1D10 JUMP JUMPDEST PUSH1 0x0 PUSH1 0x40 MLOAD DUP1 DUP4 SUB DUP2 PUSH1 0x0 DUP8 DUP1 EXTCODESIZE ISZERO DUP1 ISZERO PUSH2 0xA0B JUMPI PUSH1 0x0 DUP1 REVERT JUMPDEST POP GAS CALL ISZERO DUP1 ISZERO PUSH2 0xA1F JUMPI RETURNDATASIZE PUSH1 0x0 DUP1 RETURNDATACOPY RETURNDATASIZE PUSH1 0x0 REVERT JUMPDEST POP POP POP POP POP POP JUMP JUMPDEST PUSH1 0x1 PUSH1 0x1 PUSH1 0xA0 SHL SUB DUP2 AND PUSH1 0x0 SWAP1 DUP2 MSTORE PUSH1 0x6 PUSH1 0x20 SWAP1 DUP2 MSTORE PUSH1 0x40 DUP1 DUP4 KECCAK256 DUP2 MLOAD PUSH1 0xA0 DUP2 ADD DUP4 MSTORE DUP2 SLOAD PUSH1 0x1 PUSH1 0x1 PUSH1 0x40 SHL SUB DUP1 DUP3 AND DUP4 MSTORE PUSH1 0x1 PUSH1 0x40 SHL DUP3 DIV DUP2 AND SWAP6 DUP4 ADD DUP7 SWAP1 MSTORE PUSH1 0x1 PUSH1 0x80 SHL SWAP1 SWAP2 DIV AND SWAP3 DUP2 ADD SWAP3 SWAP1 SWAP3 MSTORE PUSH1 0x1 DUP2 ADD SLOAD PUSH1 0x60 DUP4 ADD MSTORE PUSH1 0x2 ADD SLOAD PUSH1 0xFF AND ISZERO ISZERO PUSH1 0x80 DUP3 ADD MSTORE SWAP1 ISZERO DUP1 PUSH2 0xA9E JUMPI POP DUP1 PUSH1 0x80 ADD MLOAD JUMPDEST ISZERO PUSH2 0xAAC JUMPI POP PUSH1 0x0 SWAP3 SWAP2 POP POP JUMP JUMPDEST PUSH1 0x60 DUP2 ADD MLOAD PUSH2 0xABD SWAP1 PUSH2 0xE10 PUSH2 0x1ED1 JUMP JUMPDEST TIMESTAMP GT ISZERO PUSH2 0xACD JUMPI POP PUSH1 0x0 SWAP3 SWAP2 POP POP JUMP JUMPDEST PUSH1 0x0 PUSH2 0xADD ADDRESS DUP4 PUSH1 0x0 ADD MLOAD PUSH2 0x17F4 JUMP JUMPDEST SWAP1 POP PUSH1 0x0 DUP3 PUSH1 0x40 ADD MLOAD DUP3 PUSH2 0xAF1 SWAP2 SWAP1 PUSH2 0x1EE4 JUMP JUMPDEST SWAP1 POP DUP3 PUSH1 0x20 ADD MLOAD PUSH1 0x1 PUSH1 0x1 PUSH1 0x40 SHL SUB AND DUP2 PUSH1 0x1 PUSH1 0x1 PUSH1 0x40 SHL SUB AND LT ISZERO SWAP4 POP POP POP POP SWAP2 SWAP1 POP JUMP JUMPDEST PUSH1 0x0 PUSH2 0xB25 DUP3 DUP5 ADD DUP5 PUSH2 0x1F0B JUMP JUMPDEST DUP1 MLOAD PUSH1 0x0 SWAP1 DUP2 MSTORE PUSH1 0x20 DUP2 SWAP1 MSTORE PUSH1 0x40 SWAP1 KECCAK256 PUSH1 0x2 ADD SLOAD SWAP1 SWAP2 POP PUSH1 0xFF AND PUSH2 0xB82 JUMPI PUSH1 0x40 MLOAD PUSH3 0x461BCD PUSH1 0xE5 SHL DUP2 MSTORE PUSH1 0x20 PUSH1 0x4 DUP3 ADD MSTORE PUSH1 0x14 PUSH1 0x24 DUP3 ADD MSTORE PUSH20 0x15985D5B1D08191BD95CC81B9BDD08195E1A5CDD PUSH1 0x62 SHL PUSH1 0x44 DUP3 ADD MSTORE PUSH1 0x64 ADD PUSH2 0x3E2 JUMP JUMPDEST PUSH1 0x60 DUP2 ADD MLOAD DUP2 MLOAD PUSH1 0x0 SWAP1 DUP2 MSTORE PUSH1 0x20 DUP2 DUP2 MSTORE PUSH1 0x40 DUP1 DUP4 KECCAK256 DUP3 DUP7 ADD MLOAD PUSH1 0x1 PUSH1 0x1 PUSH1 0x40 SHL SUB SWAP1 DUP2 AND DUP6 MSTORE SWAP3 MSTORE SWAP1 SWAP2 KECCAK256 SLOAD AND LT ISZERO PUSH2 0xBF5 JUMPI PUSH1 0x40 MLOAD PUSH3 0x461BCD PUSH1 0xE5 SHL DUP2 MSTORE PUSH1 0x20 PUSH1 0x4 DUP3 ADD MSTORE PUSH1 0x14 PUSH1 0x24 DUP3 ADD MSTORE PUSH20 0x496E73756666696369656E742062616C616E6365 PUSH1 0x60 SHL PUSH1 0x44 DUP3 ADD MSTORE PUSH1 0x64 ADD PUSH2 0x3E2 JUMP JUMPDEST PUSH1 0x40 MLOAD PUSH4 0x20A49E3 PUSH1 0xE5 SHL DUP2 MSTORE PUSH1 0x1 PUSH1 0x1 PUSH1 0xA0 SHL SUB PUSH32 0x0 AND SWAP1 PUSH4 0x41493C60 SWAP1 PUSH2 0xC68 SWAP1 PUSH31 0x8484840D42565B9589F5C37253789D3731407964B1537FB5CF9D6064226B1C SWAP1 DUP8 SWAP1 DUP8 SWAP1 DUP12 SWAP1 DUP12 SWAP1 PUSH1 0x4 ADD PUSH2 0x1E3A JUMP JUMPDEST PUSH1 0x0 PUSH1 0x40 MLOAD DUP1 DUP4 SUB DUP2 DUP7 DUP1 EXTCODESIZE ISZERO DUP1 ISZERO PUSH2 0xC80 JUMPI PUSH1 0x0 DUP1 REVERT JUMPDEST POP GAS STATICCALL ISZERO DUP1 ISZERO PUSH2 0xC94 JUMPI RETURNDATASIZE PUSH1 0x0 DUP1 RETURNDATACOPY RETURNDATASIZE PUSH1 0x0 REVERT JUMPDEST POP POP POP PUSH1 0x60 DUP3 ADD MLOAD DUP3 MLOAD PUSH1 0x0 SWAP1 DUP2 MSTORE PUSH1 0x20 DUP2 DUP2 MSTORE PUSH1 0x40 DUP1 DUP4 KECCAK256 DUP3 DUP8 ADD MLOAD PUSH1 0x1 PUSH1 0x1 PUSH1 0x40 SHL SUB SWAP1 DUP2 AND DUP6 MSTORE SWAP3 MSTORE DUP3 KECCAK256 DUP1 SLOAD SWAP4 SWAP5 POP SWAP3 PUSH2 0xCD4 SWAP2 DUP6 SWAP2 AND PUSH2 0x1EE4 JUMP JUMPDEST DUP3 SLOAD PUSH2 0x100 SWAP3 SWAP1 SWAP3 EXP PUSH1 0x1 PUSH1 0x1 PUSH1 0x40 SHL SUB DUP2 DUP2 MUL NOT SWAP1 SWAP4 AND SWAP2 DUP4 AND MUL OR SWAP1 SWAP2 SSTORE PUSH1 0x80 DUP4 ADD MLOAD DUP4 MLOAD PUSH1 0x0 SWAP1 DUP2 MSTORE PUSH1 0x20 DUP2 DUP2 MSTORE PUSH1 0x40 DUP1 DUP4 KECCAK256 DUP2 DUP9 ADD MLOAD DUP7 AND DUP5 MSTORE SWAP1 SWAP2 MSTORE DUP2 KECCAK256 DUP1 SLOAD SWAP3 SWAP5 POP SWAP3 SWAP1 SWAP2 PUSH2 0xD2B SWAP2 DUP6 SWAP2 AND PUSH2 0x1F97 JUMP JUMPDEST SWAP3 POP PUSH2 0x100 EXP DUP2 SLOAD DUP2 PUSH1 0x1 PUSH1 0x1 PUSH1 0x40 SHL SUB MUL NOT AND SWAP1 DUP4 PUSH1 0x1 PUSH1 0x1 PUSH1 0x40 SHL SUB AND MUL OR SWAP1 SSTORE POP DUP1 PUSH1 0x0 ADD MLOAD PUSH32 0x8F3DBA1073F4B750E9392983CBBDD0D9B7E8380008BDDA0E7683E3C3AA5C5189 TIMESTAMP PUSH1 0x40 MLOAD PUSH2 0xD85 SWAP2 DUP2 MSTORE PUSH1 0x20 ADD SWAP1 JUMP JUMPDEST PUSH1 0x40 MLOAD DUP1 SWAP2 SUB SWAP1 LOG2 POP POP POP POP POP JUMP JUMPDEST PUSH1 0x0 DUP8 DUP2 MSTORE PUSH1 0x1 PUSH1 0x20 MSTORE PUSH1 0x40 SWAP1 KECCAK256 SLOAD PUSH1 0xFF AND ISZERO PUSH2 0xDED JUMPI PUSH1 0x40 MLOAD PUSH3 0x461BCD PUSH1 0xE5 SHL DUP2 MSTORE PUSH1 0x20 PUSH1 0x4 DUP3 ADD MSTORE PUSH1 0x17 PUSH1 0x24 DUP3 ADD MSTORE PUSH23 0x10DBDB5B5A5D1B595B9D08185B1C9958591E481D5CD959 PUSH1 0x4A SHL PUSH1 0x44 DUP3 ADD MSTORE PUSH1 0x64 ADD PUSH2 0x3E2 JUMP JUMPDEST PUSH1 0x40 MLOAD PUSH4 0xB0AC0AB PUSH1 0xE0 SHL DUP2 MSTORE PUSH20 0x3333333333333333333333333333333333333333 SWAP1 PUSH4 0xB0AC0AB SWAP1 PUSH2 0xE28 SWAP1 ADDRESS SWAP1 DUP11 SWAP1 DUP11 SWAP1 PUSH1 0x4 ADD PUSH2 0x1D10 JUMP JUMPDEST PUSH1 0x0 PUSH1 0x40 MLOAD DUP1 DUP4 SUB DUP2 PUSH1 0x0 DUP8 DUP1 EXTCODESIZE ISZERO DUP1 ISZERO PUSH2 0xE42 JUMPI PUSH1 0x0 DUP1 REVERT JUMPDEST POP GAS CALL ISZERO DUP1 ISZERO PUSH2 0xE56 JUMPI RETURNDATASIZE PUSH1 0x0 DUP1 RETURNDATACOPY RETURNDATASIZE PUSH1 0x0 REVERT JUMPDEST POP POP POP PUSH1 0x0 DUP9 DUP2 MSTORE PUSH1 0x1 PUSH1 0x20 DUP2 DUP2 MSTORE PUSH1 0x40 DUP1 DUP5 KECCAK256 DUP1 SLOAD PUSH1 0xFF NOT AND SWAP1 SWAP4 OR SWAP1 SWAP3 SSTORE DUP3 DUP2 MSTORE DUP2 DUP4 KECCAK256 PUSH1 0x1 PUSH1 0x1 PUSH1 0x40 SHL SUB DUP1 DUP13 AND DUP6 MSTORE SWAP2 MSTORE SWAP1 DUP3 KECCAK256 DUP1 SLOAD DUP10 SWAP5 POP SWAP1 SWAP3 SWAP2 PUSH2 0xEA2 SWAP2 DUP6 SWAP2 AND PUSH2 0x1F97 JUMP JUMPDEST DUP3 SLOAD PUSH1 0x1 PUSH1 0x1 PUSH1 0x40 SHL SUB SWAP2 DUP3 AND PUSH2 0x100 SWAP4 SWAP1 SWAP4 EXP SWAP3 DUP4 MUL SWAP2 SWAP1 SWAP3 MUL NOT SWAP1 SWAP2 AND OR SWAP1 SSTORE POP PUSH1 0x0 DUP8 DUP2 MSTORE PUSH1 0x20 DUP2 SWAP1 MSTORE PUSH1 0x40 DUP2 KECCAK256 PUSH1 0x2 ADD DUP1 SLOAD PUSH1 0xFF NOT AND PUSH1 0x1 SWAP1 DUP2 OR SWAP1 SWAP2 SSTORE PUSH1 0x4 DUP1 SLOAD DUP1 DUP4 ADD DUP3 SSTORE SWAP3 DUP2 SWAP1 MSTORE PUSH32 0x8A35ACFBC15FF81A39AE7D344FD709F28E8600B4AA8C65C6B64BFE7FE36BD19B SWAP1 SWAP3 ADD DUP10 SWAP1 SSTORE SWAP1 SLOAD PUSH2 0xF24 SWAP2 SWAP1 PUSH2 0x1FB7 JUMP JUMPDEST PUSH1 0x0 DUP9 DUP2 MSTORE PUSH1 0x5 PUSH1 0x20 SWAP1 DUP2 MSTORE PUSH1 0x40 SWAP2 DUP3 SWAP1 KECCAK256 SWAP3 SWAP1 SWAP3 SSTORE MLOAD TIMESTAMP DUP2 MSTORE DUP9 SWAP2 PUSH32 0x2D0BEB141922199E99106AA1E9E523ADD96E905BAF9299BFB1042ACD145BF5C SWAP2 ADD PUSH1 0x40 MLOAD DUP1 SWAP2 SUB SWAP1 LOG2 POP POP POP POP POP POP POP JUMP JUMPDEST PUSH1 0x0 DUP6 DUP2 MSTORE PUSH1 0x1 PUSH1 0x20 MSTORE PUSH1 0x40 SWAP1 KECCAK256 SLOAD PUSH1 0xFF AND ISZERO PUSH2 0xFCD JUMPI PUSH1 0x40 MLOAD PUSH3 0x461BCD PUSH1 0xE5 SHL DUP2 MSTORE PUSH1 0x20 PUSH1 0x4 DUP3 ADD MSTORE PUSH1 0x17 PUSH1 0x24 DUP3 ADD MSTORE PUSH23 0x10DBDB5B5A5D1B595B9D08185B1C9958591E481D5CD959 PUSH1 0x4A SHL PUSH1 0x44 DUP3 ADD MSTORE PUSH1 0x64 ADD PUSH2 0x3E2 JUMP JUMPDEST CALLER PUSH1 0x0 SWAP1 DUP2 MSTORE PUSH1 0x6 PUSH1 0x20 SWAP1 DUP2 MSTORE PUSH1 0x40 SWAP2 DUP3 SWAP1 KECCAK256 DUP3 MLOAD PUSH1 0xA0 DUP2 ADD DUP5 MSTORE DUP2 SLOAD PUSH1 0x1 PUSH1 0x1 PUSH1 0x40 SHL SUB DUP1 DUP3 AND DUP4 MSTORE PUSH1 0x1 PUSH1 0x40 SHL DUP3 DIV DUP2 AND SWAP5 DUP4 ADD DUP6 SWAP1 MSTORE PUSH1 0x1 PUSH1 0x80 SHL SWAP1 SWAP2 DIV AND SWAP4 DUP2 ADD SWAP4 SWAP1 SWAP4 MSTORE PUSH1 0x1 DUP2 ADD SLOAD PUSH1 0x60 DUP5 ADD MSTORE PUSH1 0x2 ADD SLOAD PUSH1 0xFF AND ISZERO ISZERO PUSH1 0x80 DUP4 ADD MSTORE PUSH2 0x106F JUMPI PUSH1 0x40 MLOAD PUSH3 0x461BCD PUSH1 0xE5 SHL DUP2 MSTORE PUSH1 0x20 PUSH1 0x4 DUP3 ADD MSTORE PUSH1 0x12 PUSH1 0x24 DUP3 ADD MSTORE PUSH18 0x139BC81C195B991A5B99C819195C1BDCDA5D PUSH1 0x72 SHL PUSH1 0x44 DUP3 ADD MSTORE PUSH1 0x64 ADD PUSH2 0x3E2 JUMP JUMPDEST DUP1 PUSH1 0x80 ADD MLOAD ISZERO PUSH2 0x10C1 JUMPI PUSH1 0x40 MLOAD PUSH3 0x461BCD PUSH1 0xE5 SHL DUP2 MSTORE PUSH1 0x20 PUSH1 0x4 DUP3 ADD MSTORE PUSH1 0x19 PUSH1 0x24 DUP3 ADD MSTORE PUSH32 0x4465706F73697420616C726561647920636F6D706C6574656400000000000000 PUSH1 0x44 DUP3 ADD MSTORE PUSH1 0x64 ADD PUSH2 0x3E2 JUMP JUMPDEST PUSH1 0x60 DUP2 ADD MLOAD PUSH2 0x10D2 SWAP1 PUSH2 0xE10 PUSH2 0x1ED1 JUMP JUMPDEST TIMESTAMP GT ISZERO PUSH2 0x1113 JUMPI PUSH1 0x40 MLOAD PUSH3 0x461BCD PUSH1 0xE5 SHL DUP2 MSTORE PUSH1 0x20 PUSH1 0x4 DUP3 ADD MSTORE PUSH1 0xF PUSH1 0x24 DUP3 ADD MSTORE PUSH15 0x11195C1BDCDA5D08195E1C1A5C9959 PUSH1 0x8A SHL PUSH1 0x44 DUP3 ADD MSTORE PUSH1 0x64 ADD PUSH2 0x3E2 JUMP JUMPDEST PUSH1 0x0 PUSH2 0x1123 ADDRESS DUP4 PUSH1 0x0 ADD MLOAD PUSH2 0x17F4 JUMP JUMPDEST SWAP1 POP PUSH1 0x0 DUP3 PUSH1 0x40 ADD MLOAD DUP3 PUSH2 0x1137 SWAP2 SWAP1 PUSH2 0x1EE4 JUMP JUMPDEST SWAP1 POP DUP3 PUSH1 0x20 ADD MLOAD PUSH1 0x1 PUSH1 0x1 PUSH1 0x40 SHL SUB AND DUP2 PUSH1 0x1 PUSH1 0x1 PUSH1 0x40 SHL SUB AND LT ISZERO PUSH2 0x1198 JUMPI PUSH1 0x40 MLOAD PUSH3 0x461BCD PUSH1 0xE5 SHL DUP2 MSTORE PUSH1 0x20 PUSH1 0x4 DUP3 ADD MSTORE PUSH1 0x16 PUSH1 0x24 DUP3 ADD MSTORE PUSH22 0x151BDAD95B9CC81B9BDD081D1C985B9CD9995C9C9959 PUSH1 0x52 SHL PUSH1 0x44 DUP3 ADD MSTORE PUSH1 0x64 ADD PUSH2 0x3E2 JUMP JUMPDEST PUSH1 0x0 PUSH2 0x11A6 DUP6 DUP8 ADD DUP8 PUSH2 0x1FCA JUMP JUMPDEST DUP1 MLOAD SWAP1 SWAP2 POP DUP10 EQ PUSH2 0x11EF JUMPI PUSH1 0x40 MLOAD PUSH3 0x461BCD PUSH1 0xE5 SHL DUP2 MSTORE PUSH1 0x20 PUSH1 0x4 DUP3 ADD MSTORE PUSH1 0x13 PUSH1 0x24 DUP3 ADD MSTORE PUSH19 0x86DEDADAD2E8DACADCE840DAD2E6DAC2E8C6D PUSH1 0x6B SHL PUSH1 0x44 DUP3 ADD MSTORE PUSH1 0x64 ADD PUSH2 0x3E2 JUMP JUMPDEST PUSH1 0x3 SLOAD PUSH1 0x20 DUP3 ADD MLOAD PUSH1 0x1 PUSH1 0x1 PUSH1 0xA0 SHL SUB SWAP1 DUP2 AND SWAP2 AND EQ PUSH2 0x1245 JUMPI PUSH1 0x40 MLOAD PUSH3 0x461BCD PUSH1 0xE5 SHL DUP2 MSTORE PUSH1 0x20 PUSH1 0x4 DUP3 ADD MSTORE PUSH1 0x11 PUSH1 0x24 DUP3 ADD MSTORE PUSH17 0x496E76616C696420617574686F72697479 PUSH1 0x78 SHL PUSH1 0x44 DUP3 ADD MSTORE PUSH1 0x64 ADD PUSH2 0x3E2 JUMP JUMPDEST TIMESTAMP DUP2 PUSH1 0x40 ADD MLOAD LT ISZERO PUSH2 0x128F JUMPI PUSH1 0x40 MLOAD PUSH3 0x461BCD PUSH1 0xE5 SHL DUP2 MSTORE PUSH1 0x20 PUSH1 0x4 DUP3 ADD MSTORE PUSH1 0x13 PUSH1 0x24 DUP3 ADD MSTORE PUSH19 0x10D95C9D1A599A58D85D1948195E1C1A5C9959 PUSH1 0x6A SHL PUSH1 0x44 DUP3 ADD MSTORE PUSH1 0x64 ADD PUSH2 0x3E2 JUMP JUMPDEST PUSH1 0x40 MLOAD PUSH4 0x20A49E3 PUSH1 0xE5 SHL DUP2 MSTORE PUSH1 0x1 PUSH1 0x1 PUSH1 0xA0 SHL SUB PUSH32 0x0 AND SWAP1 PUSH4 0x41493C60 SWAP1 PUSH2 0x1302 SWAP1 PUSH31 0xED1611619B8F2866DE7BE17D81A9D42A869B4C5959629708F125AE34A2F9EE SWAP1 DUP11 SWAP1 DUP11 SWAP1 DUP15 SWAP1 DUP15 SWAP1 PUSH1 0x4 ADD PUSH2 0x1E3A JUMP JUMPDEST PUSH1 0x0 PUSH1 0x40 MLOAD DUP1 DUP4 SUB DUP2 DUP7 DUP1 EXTCODESIZE ISZERO DUP1 ISZERO PUSH2 0x131A JUMPI PUSH1 0x0 DUP1 REVERT JUMPDEST POP GAS STATICCALL ISZERO DUP1 ISZERO PUSH2 0x132E JUMPI RETURNDATASIZE PUSH1 0x0 DUP1 RETURNDATACOPY RETURNDATASIZE PUSH1 0x0 REVERT JUMPDEST POP POP CALLER PUSH1 0x0 SWAP1 DUP2 MSTORE PUSH1 0x6 PUSH1 0x20 SWAP1 DUP2 MSTORE PUSH1 0x40 DUP1 DUP4 KECCAK256 PUSH1 0x2 ADD DUP1 SLOAD PUSH1 0x1 PUSH1 0xFF NOT SWAP2 DUP3 AND DUP2 OR SWAP1 SWAP3 SSTORE DUP16 DUP6 MSTORE DUP2 DUP5 MSTORE DUP3 DUP6 KECCAK256 DUP1 SLOAD SWAP1 SWAP2 AND SWAP1 SWAP2 OR SWAP1 SSTORE DUP9 DUP3 ADD MLOAD DUP4 DUP4 MSTORE DUP2 DUP5 KECCAK256 DUP11 MLOAD PUSH1 0x1 PUSH1 0x1 PUSH1 0x40 SHL SUB SWAP1 DUP2 AND DUP7 MSTORE SWAP4 MSTORE SWAP1 DUP4 KECCAK256 DUP1 SLOAD SWAP2 SWAP6 POP SWAP4 POP PUSH2 0x1398 SWAP2 DUP6 SWAP2 AND PUSH2 0x1F97 JUMP JUMPDEST DUP3 SLOAD PUSH1 0x1 PUSH1 0x1 PUSH1 0x40 SHL SUB SWAP2 DUP3 AND PUSH2 0x100 SWAP4 SWAP1 SWAP4 EXP SWAP3 DUP4 MUL SWAP2 SWAP1 SWAP3 MUL NOT SWAP1 SWAP2 AND OR SWAP1 SSTORE POP PUSH1 0x0 DUP10 DUP2 MSTORE PUSH1 0x20 DUP2 SWAP1 MSTORE PUSH1 0x40 DUP2 KECCAK256 PUSH1 0x2 ADD DUP1 SLOAD PUSH1 0xFF NOT AND PUSH1 0x1 SWAP1 DUP2 OR SWAP1 SWAP2 SSTORE PUSH1 0x4 DUP1 SLOAD DUP1 DUP4 ADD DUP3 SSTORE SWAP3 DUP2 SWAP1 MSTORE PUSH32 0x8A35ACFBC15FF81A39AE7D344FD709F28E8600B4AA8C65C6B64BFE7FE36BD19B SWAP1 SWAP3 ADD DUP12 SWAP1 SSTORE SWAP1 SLOAD PUSH2 0x141A SWAP2 SWAP1 PUSH2 0x1FB7 JUMP JUMPDEST PUSH1 0x0 DUP11 DUP2 MSTORE PUSH1 0x5 PUSH1 0x20 SWAP1 DUP2 MSTORE PUSH1 0x40 SWAP2 DUP3 SWAP1 KECCAK256 SWAP3 SWAP1 SWAP3 SSTORE MLOAD TIMESTAMP DUP2 MSTORE DUP11 SWAP2 PUSH32 0x2D0BEB141922199E99106AA1E9E523ADD96E905BAF9299BFB1042ACD145BF5C SWAP2 ADD JUMPDEST PUSH1 0x40 MLOAD DUP1 SWAP2 SUB SWAP1 LOG2 POP POP POP POP POP POP POP POP POP JUMP JUMPDEST PUSH1 0x4 DUP2 DUP2 SLOAD DUP2 LT PUSH2 0x147D JUMPI PUSH1 0x0 DUP1 REVERT JUMPDEST PUSH1 0x0 SWAP2 DUP3 MSTORE PUSH1 0x20 SWAP1 SWAP2 KECCAK256 ADD SLOAD SWAP1 POP DUP2 JUMP JUMPDEST PUSH1 0x0 DUP9 DUP2 MSTORE PUSH1 0x2 PUSH1 0x20 MSTORE PUSH1 0x40 SWAP1 KECCAK256 SLOAD PUSH1 0xFF AND ISZERO PUSH2 0x14E6 JUMPI PUSH1 0x40 MLOAD PUSH3 0x461BCD PUSH1 0xE5 SHL DUP2 MSTORE PUSH1 0x20 PUSH1 0x4 DUP3 ADD MSTORE PUSH1 0x16 PUSH1 0x24 DUP3 ADD MSTORE PUSH22 0x139D5B1B1A599A595C88185B1C9958591E481D5CD959 PUSH1 0x52 SHL PUSH1 0x44 DUP3 ADD MSTORE PUSH1 0x64 ADD PUSH2 0x3E2 JUMP JUMPDEST PUSH1 0x0 PUSH2 0x14F4 DUP3 DUP5 ADD DUP5 PUSH2 0x2017 JUMP JUMPDEST SWAP1 POP PUSH2 0x14FE PUSH2 0x45D JUMP JUMPDEST DUP2 PUSH1 0x20 ADD MLOAD EQ PUSH2 0x1546 JUMPI PUSH1 0x40 MLOAD PUSH3 0x461BCD PUSH1 0xE5 SHL DUP2 MSTORE PUSH1 0x20 PUSH1 0x4 DUP3 ADD MSTORE PUSH1 0x13 PUSH1 0x24 DUP3 ADD MSTORE PUSH19 0x125B9D985B1A59081B595C9ADB19481C9BDBDD PUSH1 0x6A SHL PUSH1 0x44 DUP3 ADD MSTORE PUSH1 0x64 ADD PUSH2 0x3E2 JUMP JUMPDEST DUP6 PUSH1 0x1 PUSH1 0x1 PUSH1 0x40 SHL SUB AND DUP2 PUSH1 0x40 ADD MLOAD LT ISZERO PUSH2 0x15A3 JUMPI PUSH1 0x40 MLOAD PUSH3 0x461BCD PUSH1 0xE5 SHL DUP2 MSTORE PUSH1 0x20 PUSH1 0x4 DUP3 ADD MSTORE PUSH1 0x1B PUSH1 0x24 DUP3 ADD MSTORE PUSH32 0x496E73756666696369656E742070726F76656E2062616C616E63650000000000 PUSH1 0x44 DUP3 ADD MSTORE PUSH1 0x64 ADD PUSH2 0x3E2 JUMP JUMPDEST DUP7 PUSH1 0x1 PUSH1 0x1 PUSH1 0x40 SHL SUB AND DUP2 PUSH1 0x60 ADD MLOAD PUSH1 0x1 PUSH1 0x1 PUSH1 0x40 SHL SUB AND EQ PUSH2 0x15F9 JUMPI PUSH1 0x40 MLOAD PUSH3 0x461BCD PUSH1 0xE5 SHL DUP2 MSTORE PUSH1 0x20 PUSH1 0x4 DUP3 ADD MSTORE PUSH1 0xE PUSH1 0x24 DUP3 ADD MSTORE PUSH14 0x82E6E6CAE840DAD2E6DAC2E8C6D PUSH1 0x93 SHL PUSH1 0x44 DUP3 ADD MSTORE PUSH1 0x64 ADD PUSH2 0x3E2 JUMP JUMPDEST PUSH1 0x40 MLOAD PUSH4 0x20A49E3 PUSH1 0xE5 SHL DUP2 MSTORE PUSH1 0x1 PUSH1 0x1 PUSH1 0xA0 SHL SUB PUSH32 0x0 AND SWAP1 PUSH4 0x41493C60 SWAP1 PUSH2 0x166C SWAP1 PUSH31 0x9C22B4F95FB710070DC80CFCE7526C4CC7780834AB328BD769FF58934E6D05 SWAP1 DUP8 SWAP1 DUP8 SWAP1 DUP12 SWAP1 DUP12 SWAP1 PUSH1 0x4 ADD PUSH2 0x1E3A JUMP JUMPDEST PUSH1 0x0 PUSH1 0x40 MLOAD DUP1 DUP4 SUB DUP2 DUP7 DUP1 EXTCODESIZE ISZERO DUP1 ISZERO PUSH2 0x1684 JUMPI PUSH1 0x0 DUP1 REVERT JUMPDEST POP GAS STATICCALL ISZERO DUP1 ISZERO PUSH2 0x1698 JUMPI RETURNDATASIZE PUSH1 0x0 DUP1 RETURNDATACOPY RETURNDATASIZE PUSH1 0x0 REVERT JUMPDEST POP POP POP PUSH1 0x0 DUP11 DUP2 MSTORE PUSH1 0x2 PUSH1 0x20 MSTORE PUSH1 0x40 SWAP1 DUP2 SWAP1 KECCAK256 DUP1 SLOAD PUSH1 0xFF NOT AND PUSH1 0x1 OR SWAP1 SSTORE MLOAD PUSH4 0xB0AC0AB PUSH1 0xE0 SHL DUP2 MSTORE PUSH20 0x3333333333333333333333333333333333333333 SWAP2 POP PUSH4 0xB0AC0AB SWAP1 PUSH2 0x16F0 SWAP1 DUP12 SWAP1 DUP12 SWAP1 DUP12 SWAP1 PUSH1 0x4 ADD PUSH2 0x1D10 JUMP JUMPDEST PUSH1 0x0 PUSH1 0x40 MLOAD DUP1 DUP4 SUB DUP2 PUSH1 0x0 DUP8 DUP1 EXTCODESIZE ISZERO DUP1 ISZERO PUSH2 0x170A JUMPI PUSH1 0x0 DUP1 REVERT JUMPDEST POP GAS CALL ISZERO DUP1 ISZERO PUSH2 0x171E JUMPI RETURNDATASIZE PUSH1 0x0 DUP1 RETURNDATACOPY RETURNDATASIZE PUSH1 0x0 REVERT JUMPDEST POP POP POP POP DUP9 PUSH32 0xCC9580996E4C53AC7E73439F181E208AB15831EA2D2429DD12EE742C1C475B6F TIMESTAMP PUSH1 0x40 MLOAD PUSH2 0x145A SWAP2 DUP2 MSTORE PUSH1 0x20 ADD SWAP1 JUMP JUMPDEST PUSH1 0x3 SLOAD PUSH1 0x1 PUSH1 0x1 PUSH1 0xA0 SHL SUB AND CALLER EQ PUSH2 0x17AA JUMPI PUSH1 0x40 MLOAD PUSH3 0x461BCD PUSH1 0xE5 SHL DUP2 MSTORE PUSH1 0x20 PUSH1 0x4 DUP3 ADD MSTORE PUSH1 0x19 PUSH1 0x24 DUP3 ADD MSTORE PUSH25 0x4F6E6C7920636F6D706C69616E636520617574686F72697479 PUSH1 0x38 SHL PUSH1 0x44 DUP3 ADD MSTORE PUSH1 0x64 ADD PUSH2 0x3E2 JUMP JUMPDEST PUSH1 0x3 DUP1 SLOAD PUSH1 0x1 PUSH1 0x1 PUSH1 0xA0 SHL SUB NOT AND PUSH1 0x1 PUSH1 0x1 PUSH1 0xA0 SHL SUB DUP4 AND SWAP1 DUP2 OR SWAP1 SWAP2 SSTORE PUSH1 0x40 MLOAD PUSH32 0x829C4EF70A1FB0EDB9DAA0DB5C77D61190E746DB94BCE7DC78FEE99D04FB4099 SWAP1 PUSH1 0x0 SWAP1 LOG2 POP JUMP JUMPDEST PUSH1 0x40 DUP1 MLOAD PUSH1 0x1 PUSH1 0x1 PUSH1 0xA0 SHL SUB DUP5 AND PUSH1 0x20 DUP3 ADD MSTORE PUSH1 0x1 PUSH1 0x1 PUSH1 0x40 SHL SUB DUP4 AND DUP2 DUP4 ADD MSTORE DUP2 MLOAD DUP1 DUP3 SUB DUP4 ADD DUP2 MSTORE PUSH1 0x60 SWAP1 SWAP2 ADD SWAP2 DUP3 SWAP1 MSTORE PUSH1 0x0 SWAP2 DUP3 SWAP1 DUP2 SWAP1 PUSH2 0x801 SWAP1 PUSH2 0x183D SWAP1 DUP6 SWAP1 PUSH2 0x2063 JUMP JUMPDEST PUSH1 0x0 PUSH1 0x40 MLOAD DUP1 DUP4 SUB DUP2 DUP6 GAS STATICCALL SWAP2 POP POP RETURNDATASIZE DUP1 PUSH1 0x0 DUP2 EQ PUSH2 0x1878 JUMPI PUSH1 0x40 MLOAD SWAP2 POP PUSH1 0x1F NOT PUSH1 0x3F RETURNDATASIZE ADD AND DUP3 ADD PUSH1 0x40 MSTORE RETURNDATASIZE DUP3 MSTORE RETURNDATASIZE PUSH1 0x0 PUSH1 0x20 DUP5 ADD RETURNDATACOPY PUSH2 0x187D JUMP JUMPDEST PUSH1 0x60 SWAP2 POP JUMPDEST POP SWAP2 POP SWAP2 POP DUP2 PUSH2 0x1893 JUMPI PUSH1 0x0 SWAP4 POP POP POP POP PUSH2 0x18B1 JUMP JUMPDEST PUSH1 0x0 DUP2 DUP1 PUSH1 0x20 ADD SWAP1 MLOAD DUP2 ADD SWAP1 PUSH2 0x18A9 SWAP2 SWAP1 PUSH2 0x2092 JUMP JUMPDEST MLOAD SWAP5 POP POP POP POP POP JUMPDEST SWAP3 SWAP2 POP POP JUMP JUMPDEST PUSH1 0x0 PUSH1 0x20 DUP3 DUP5 SUB SLT ISZERO PUSH2 0x18C9 JUMPI PUSH1 0x0 DUP1 REVERT JUMPDEST POP CALLDATALOAD SWAP2 SWAP1 POP JUMP JUMPDEST PUSH1 0x1 PUSH1 0x1 PUSH1 0x40 SHL SUB DUP2 AND DUP2 EQ PUSH2 0x18E5 JUMPI PUSH1 0x0 DUP1 REVERT JUMPDEST POP JUMP JUMPDEST DUP1 CALLDATALOAD PUSH2 0x18F3 DUP2 PUSH2 0x18D0 JUMP JUMPDEST SWAP2 SWAP1 POP JUMP JUMPDEST DUP1 CALLDATALOAD PUSH1 0x1 PUSH1 0x1 PUSH1 0xA0 SHL SUB DUP2 AND DUP2 EQ PUSH2 0x18F3 JUMPI PUSH1 0x0 DUP1 REVERT JUMPDEST PUSH1 0x0 DUP1 PUSH1 0x0 PUSH1 0x60 DUP5 DUP7 SUB SLT ISZERO PUSH2 0x1924 JUMPI PUSH1 0x0 DUP1 REVERT JUMPDEST DUP4 CALLDATALOAD PUSH2 0x192F DUP2 PUSH2 0x18D0 JUMP JUMPDEST SWAP3 POP PUSH1 0x20 DUP5 ADD CALLDATALOAD PUSH2 0x193F DUP2 PUSH2 0x18D0 JUMP JUMPDEST SWAP2 POP PUSH2 0x194D PUSH1 0x40 DUP6 ADD PUSH2 0x18F8 JUMP JUMPDEST SWAP1 POP SWAP3 POP SWAP3 POP SWAP3 JUMP JUMPDEST PUSH1 0x0 DUP1 PUSH1 0x40 DUP4 DUP6 SUB SLT ISZERO PUSH2 0x1969 JUMPI PUSH1 0x0 DUP1 REVERT JUMPDEST DUP3 CALLDATALOAD PUSH2 0x1974 DUP2 PUSH2 0x18D0 JUMP JUMPDEST SWAP2 POP PUSH1 0x20 DUP4 ADD CALLDATALOAD PUSH2 0x1984 DUP2 PUSH2 0x18D0 JUMP JUMPDEST DUP1 SWAP2 POP POP SWAP3 POP SWAP3 SWAP1 POP JUMP JUMPDEST PUSH1 0x0 DUP1 DUP4 PUSH1 0x1F DUP5 ADD SLT PUSH2 0x19A1 JUMPI PUSH1 0x0 DUP1 REVERT JUMPDEST POP DUP2 CALLDATALOAD PUSH1 0x1 PUSH1 0x1 PUSH1 0x40 SHL SUB DUP2 GT ISZERO PUSH2 0x19B8 JUMPI PUSH1 0x0 DUP1 REVERT JUMPDEST PUSH1 0x20 DUP4 ADD SWAP2 POP DUP4 PUSH1 0x20 DUP3 DUP6 ADD ADD GT ISZERO PUSH2 0x19D0 JUMPI PUSH1 0x0 DUP1 REVERT JUMPDEST SWAP3 POP SWAP3 SWAP1 POP JUMP JUMPDEST PUSH1 0x0 DUP1 PUSH1 0x0 DUP1 PUSH1 0x0 DUP1 PUSH1 0x0 DUP1 PUSH1 0x0 PUSH1 0xE0 DUP11 DUP13 SUB SLT ISZERO PUSH2 0x19F5 JUMPI PUSH1 0x0 DUP1 REVERT JUMPDEST DUP10 CALLDATALOAD SWAP9 POP PUSH1 0x20 DUP11 ADD CALLDATALOAD PUSH1 0x1 PUSH1 0x1 PUSH1 0x40 SHL SUB DUP1 DUP3 GT ISZERO PUSH2 0x1A13 JUMPI PUSH1 0x0 DUP1 REVERT JUMPDEST PUSH2 0x1A1F DUP14 DUP4 DUP15 ADD PUSH2 0x198F JUMP JUMPDEST SWAP1 SWAP11 POP SWAP9 POP PUSH1 0x40 DUP13 ADD CALLDATALOAD SWAP2 POP DUP1 DUP3 GT ISZERO PUSH2 0x1A38 JUMPI PUSH1 0x0 DUP1 REVERT JUMPDEST POP PUSH2 0x1A45 DUP13 DUP3 DUP14 ADD PUSH2 0x198F JUMP JUMPDEST SWAP1 SWAP8 POP SWAP6 POP POP PUSH1 0x60 DUP11 ADD CALLDATALOAD PUSH4 0xFFFFFFFF DUP2 AND DUP2 EQ PUSH2 0x1A62 JUMPI PUSH1 0x0 DUP1 REVERT JUMPDEST SWAP4 POP PUSH1 0x80 DUP11 ADD CALLDATALOAD DUP1 ISZERO ISZERO DUP2 EQ PUSH2 0x1A77 JUMPI PUSH1 0x0 DUP1 REVERT JUMPDEST SWAP3 POP PUSH2 0x1A85 PUSH1 0xA0 DUP12 ADD PUSH2 0x18E8 JUMP JUMPDEST SWAP2 POP PUSH2 0x1A93 PUSH1 0xC0 DUP12 ADD PUSH2 0x18E8 JUMP JUMPDEST SWAP1 POP SWAP3 SWAP6 SWAP9 POP SWAP3 SWAP6 SWAP9 POP SWAP3 SWAP6 SWAP9 JUMP JUMPDEST PUSH1 0x0 PUSH1 0x20 DUP3 DUP5 SUB SLT ISZERO PUSH2 0x1AB4 JUMPI PUSH1 0x0 DUP1 REVERT JUMPDEST PUSH2 0x1ABD DUP3 PUSH2 0x18F8 JUMP JUMPDEST SWAP4 SWAP3 POP POP POP JUMP JUMPDEST PUSH1 0x0 DUP1 PUSH1 0x0 DUP1 PUSH1 0x40 DUP6 DUP8 SUB SLT ISZERO PUSH2 0x1ADA JUMPI PUSH1 0x0 DUP1 REVERT JUMPDEST DUP5 CALLDATALOAD PUSH1 0x1 PUSH1 0x1 PUSH1 0x40 SHL SUB DUP1 DUP3 GT ISZERO PUSH2 0x1AF1 JUMPI PUSH1 0x0 DUP1 REVERT JUMPDEST PUSH2 0x1AFD DUP9 DUP4 DUP10 ADD PUSH2 0x198F JUMP JUMPDEST SWAP1 SWAP7 POP SWAP5 POP PUSH1 0x20 DUP8 ADD CALLDATALOAD SWAP2 POP DUP1 DUP3 GT ISZERO PUSH2 0x1B16 JUMPI PUSH1 0x0 DUP1 REVERT JUMPDEST POP PUSH2 0x1B23 DUP8 DUP3 DUP9 ADD PUSH2 0x198F JUMP JUMPDEST SWAP6 SWAP9 SWAP5 SWAP8 POP SWAP6 POP POP POP POP JUMP JUMPDEST PUSH1 0x0 DUP1 PUSH1 0x0 DUP1 PUSH1 0x0 DUP1 PUSH1 0x0 PUSH1 0xA0 DUP9 DUP11 SUB SLT ISZERO PUSH2 0x1B4A JUMPI PUSH1 0x0 DUP1 REVERT JUMPDEST DUP8 CALLDATALOAD SWAP7 POP PUSH1 0x20 DUP9 ADD CALLDATALOAD PUSH2 0x1B5C DUP2 PUSH2 0x18D0 JUMP JUMPDEST SWAP6 POP PUSH1 0x40 DUP9 ADD CALLDATALOAD PUSH2 0x1B6C DUP2 PUSH2 0x18D0 JUMP JUMPDEST SWAP5 POP PUSH1 0x60 DUP9 ADD CALLDATALOAD PUSH1 0x1 PUSH1 0x1 PUSH1 0x40 SHL SUB DUP1 DUP3 GT ISZERO PUSH2 0x1B88 JUMPI PUSH1 0x0 DUP1 REVERT JUMPDEST PUSH2 0x1B94 DUP12 DUP4 DUP13 ADD PUSH2 0x198F JUMP JUMPDEST SWAP1 SWAP7 POP SWAP5 POP PUSH1 0x80 DUP11 ADD CALLDATALOAD SWAP2 POP DUP1 DUP3 GT ISZERO PUSH2 0x1BAD JUMPI PUSH1 0x0 DUP1 REVERT JUMPDEST POP PUSH2 0x1BBA DUP11 DUP3 DUP12 ADD PUSH2 0x198F JUMP JUMPDEST SWAP9 SWAP12 SWAP8 SWAP11 POP SWAP6 SWAP9 POP SWAP4 SWAP7 SWAP3 SWAP6 SWAP3 SWAP4 POP POP POP JUMP JUMPDEST PUSH1 0x0 DUP1 PUSH1 0x0 DUP1 PUSH1 0x0 PUSH1 0x60 DUP7 DUP9 SUB SLT ISZERO PUSH2 0x1BE5 JUMPI PUSH1 0x0 DUP1 REVERT JUMPDEST DUP6 CALLDATALOAD SWAP5 POP PUSH1 0x20 DUP7 ADD CALLDATALOAD PUSH1 0x1 PUSH1 0x1 PUSH1 0x40 SHL SUB DUP1 DUP3 GT ISZERO PUSH2 0x1C03 JUMPI PUSH1 0x0 DUP1 REVERT JUMPDEST PUSH2 0x1C0F DUP10 DUP4 DUP11 ADD PUSH2 0x198F JUMP JUMPDEST SWAP1 SWAP7 POP SWAP5 POP PUSH1 0x40 DUP9 ADD CALLDATALOAD SWAP2 POP DUP1 DUP3 GT ISZERO PUSH2 0x1C28 JUMPI PUSH1 0x0 DUP1 REVERT JUMPDEST POP PUSH2 0x1C35 DUP9 DUP3 DUP10 ADD PUSH2 0x198F JUMP JUMPDEST SWAP7 SWAP10 SWAP6 SWAP9 POP SWAP4 SWAP7 POP SWAP3 SWAP5 SWAP4 SWAP3 POP POP POP JUMP JUMPDEST PUSH1 0x0 DUP1 PUSH1 0x0 DUP1 PUSH1 0x0 DUP1 PUSH1 0x0 DUP1 PUSH1 0xC0 DUP10 DUP12 SUB SLT ISZERO PUSH2 0x1C62 JUMPI PUSH1 0x0 DUP1 REVERT JUMPDEST DUP9 CALLDATALOAD SWAP8 POP PUSH2 0x1C72 PUSH1 0x20 DUP11 ADD PUSH2 0x18F8 JUMP JUMPDEST SWAP7 POP PUSH1 0x40 DUP10 ADD CALLDATALOAD PUSH2 0x1C82 DUP2 PUSH2 0x18D0 JUMP JUMPDEST SWAP6 POP PUSH1 0x60 DUP10 ADD CALLDATALOAD PUSH2 0x1C92 DUP2 PUSH2 0x18D0 JUMP JUMPDEST SWAP5 POP PUSH1 0x80 DUP10 ADD CALLDATALOAD PUSH1 0x1 PUSH1 0x1 PUSH1 0x40 SHL SUB DUP1 DUP3 GT ISZERO PUSH2 0x1CAE JUMPI PUSH1 0x0 DUP1 REVERT JUMPDEST PUSH2 0x1CBA DUP13 DUP4 DUP14 ADD PUSH2 0x198F JUMP JUMPDEST SWAP1 SWAP7 POP SWAP5 POP PUSH1 0xA0 DUP12 ADD CALLDATALOAD SWAP2 POP DUP1 DUP3 GT ISZERO PUSH2 0x1CD3 JUMPI PUSH1 0x0 DUP1 REVERT JUMPDEST POP PUSH2 0x1CE0 DUP12 DUP3 DUP13 ADD PUSH2 0x198F JUMP JUMPDEST SWAP10 SWAP13 SWAP9 SWAP12 POP SWAP7 SWAP10 POP SWAP5 SWAP8 SWAP4 SWAP7 SWAP3 SWAP6 SWAP5 POP POP POP JUMP JUMPDEST PUSH1 0x0 DUP1 PUSH1 0x40 DUP4 DUP6 SUB SLT ISZERO PUSH2 0x1D07 JUMPI PUSH1 0x0 DUP1 REVERT JUMPDEST PUSH2 0x1974 DUP4 PUSH2 0x18F8 JUMP JUMPDEST PUSH1 0x1 PUSH1 0x1 PUSH1 0xA0 SHL SUB SWAP4 SWAP1 SWAP4 AND DUP4 MSTORE PUSH1 0x1 PUSH1 0x1 PUSH1 0x40 SHL SUB SWAP2 DUP3 AND PUSH1 0x20 DUP5 ADD MSTORE AND PUSH1 0x40 DUP3 ADD MSTORE PUSH1 0x60 ADD SWAP1 JUMP JUMPDEST PUSH4 0x4E487B71 PUSH1 0xE0 SHL PUSH1 0x0 MSTORE PUSH1 0x32 PUSH1 0x4 MSTORE PUSH1 0x24 PUSH1 0x0 REVERT JUMPDEST PUSH4 0x4E487B71 PUSH1 0xE0 SHL PUSH1 0x0 MSTORE PUSH1 0x11 PUSH1 0x4 MSTORE PUSH1 0x24 PUSH1 0x0 REVERT JUMPDEST PUSH1 0x0 PUSH1 0x1 DUP3 ADD PUSH2 0x1D78 JUMPI PUSH2 0x1D78 PUSH2 0x1D50 JUMP JUMPDEST POP PUSH1 0x1 ADD SWAP1 JUMP JUMPDEST PUSH1 0x40 MLOAD PUSH1 0x80 DUP2 ADD PUSH1 0x1 PUSH1 0x1 PUSH1 0x40 SHL SUB DUP2 GT DUP3 DUP3 LT OR ISZERO PUSH2 0x1DAF JUMPI PUSH4 0x4E487B71 PUSH1 0xE0 SHL PUSH1 0x0 MSTORE PUSH1 0x41 PUSH1 0x4 MSTORE PUSH1 0x24 PUSH1 0x0 REVERT JUMPDEST PUSH1 0x40 MSTORE SWAP1 JUMP JUMPDEST PUSH1 0x0 PUSH1 0x40 DUP3 DUP5 SUB SLT ISZERO PUSH2 0x1DC7 JUMPI PUSH1 0x0 DUP1 REVERT JUMPDEST PUSH1 0x40 MLOAD PUSH1 0x40 DUP2 ADD DUP2 DUP2 LT PUSH1 0x1 PUSH1 0x1 PUSH1 0x40 SHL SUB DUP3 GT OR ISZERO PUSH2 0x1DF7 JUMPI PUSH4 0x4E487B71 PUSH1 0xE0 SHL PUSH1 0x0 MSTORE PUSH1 0x41 PUSH1 0x4 MSTORE PUSH1 0x24 PUSH1 0x0 REVERT JUMPDEST PUSH1 0x40 MSTORE DUP3 CALLDATALOAD DUP2 MSTORE PUSH1 0x20 SWAP3 DUP4 ADD CALLDATALOAD SWAP3 DUP2 ADD SWAP3 SWAP1 SWAP3 MSTORE POP SWAP2 SWAP1 POP JUMP JUMPDEST DUP2 DUP4 MSTORE DUP2 DUP2 PUSH1 0x20 DUP6 ADD CALLDATACOPY POP PUSH1 0x0 DUP3 DUP3 ADD PUSH1 0x20 SWAP1 DUP2 ADD SWAP2 SWAP1 SWAP2 MSTORE PUSH1 0x1F SWAP1 SWAP2 ADD PUSH1 0x1F NOT AND SWAP1 SWAP2 ADD ADD SWAP1 JUMP JUMPDEST DUP6 DUP2 MSTORE PUSH1 0x60 PUSH1 0x20 DUP3 ADD MSTORE PUSH1 0x0 PUSH2 0x1E54 PUSH1 0x60 DUP4 ADD DUP7 DUP9 PUSH2 0x1E11 JUMP JUMPDEST DUP3 DUP2 SUB PUSH1 0x40 DUP5 ADD MSTORE PUSH2 0x1E67 DUP2 DUP6 DUP8 PUSH2 0x1E11 JUMP JUMPDEST SWAP9 SWAP8 POP POP POP POP POP POP POP POP JUMP JUMPDEST PUSH1 0x7 DUP2 DUP2 SIGNEXTEND SWAP1 DUP4 SWAP1 SIGNEXTEND ADD PUSH8 0x7FFFFFFFFFFFFFFF DUP2 SGT PUSH8 0x7FFFFFFFFFFFFFFF NOT DUP3 SLT OR ISZERO PUSH2 0x18B1 JUMPI PUSH2 0x18B1 PUSH2 0x1D50 JUMP JUMPDEST PUSH1 0x7 DUP3 DUP2 SIGNEXTEND SWAP1 DUP3 SWAP1 SIGNEXTEND SUB PUSH8 0x7FFFFFFFFFFFFFFF NOT DUP2 SLT PUSH8 0x7FFFFFFFFFFFFFFF DUP3 SGT OR ISZERO PUSH2 0x18B1 JUMPI PUSH2 0x18B1 PUSH2 0x1D50 JUMP JUMPDEST DUP1 DUP3 ADD DUP1 DUP3 GT ISZERO PUSH2 0x18B1 JUMPI PUSH2 0x18B1 PUSH2 0x1D50 JUMP JUMPDEST PUSH1 0x1 PUSH1 0x1 PUSH1 0x40 SHL SUB DUP3 DUP2 AND DUP3 DUP3 AND SUB SWAP1 DUP1 DUP3 GT ISZERO PUSH2 0x1F04 JUMPI PUSH2 0x1F04 PUSH2 0x1D50 JUMP JUMPDEST POP SWAP3 SWAP2 POP POP JUMP JUMPDEST PUSH1 0x0 PUSH1 0xA0 DUP3 DUP5 SUB SLT ISZERO PUSH2 0x1F1D JUMPI PUSH1 0x0 DUP1 REVERT JUMPDEST PUSH1 0x40 MLOAD PUSH1 0xA0 DUP2 ADD DUP2 DUP2 LT PUSH1 0x1 PUSH1 0x1 PUSH1 0x40 SHL SUB DUP3 GT OR ISZERO PUSH2 0x1F4D JUMPI PUSH4 0x4E487B71 PUSH1 0xE0 SHL PUSH1 0x0 MSTORE PUSH1 0x41 PUSH1 0x4 MSTORE PUSH1 0x24 PUSH1 0x0 REVERT JUMPDEST PUSH1 0x40 MSTORE DUP3 CALLDATALOAD DUP2 MSTORE PUSH1 0x20 DUP4 ADD CALLDATALOAD PUSH2 0x1F62 DUP2 PUSH2 0x18D0 JUMP JUMPDEST PUSH1 0x20 DUP3 ADD MSTORE PUSH1 0x40 DUP4 ADD CALLDATALOAD PUSH2 0x1F75 DUP2 PUSH2 0x18D0 JUMP JUMPDEST PUSH1 0x40 DUP3 ADD MSTORE PUSH1 0x60 DUP4 DUP2 ADD CALLDATALOAD SWAP1 DUP3 ADD MSTORE PUSH1 0x80 SWAP3 DUP4 ADD CALLDATALOAD SWAP3 DUP2 ADD SWAP3 SWAP1 SWAP3 MSTORE POP SWAP2 SWAP1 POP JUMP JUMPDEST PUSH1 0x1 PUSH1 0x1 PUSH1 0x40 SHL SUB DUP2 DUP2 AND DUP4 DUP3 AND ADD SWAP1 DUP1 DUP3 GT ISZERO PUSH2 0x1F04 JUMPI PUSH2 0x1F04 PUSH2 0x1D50 JUMP JUMPDEST DUP2 DUP2 SUB DUP2 DUP2 GT ISZERO PUSH2 0x18B1 JUMPI PUSH2 0x18B1 PUSH2 0x1D50 JUMP JUMPDEST PUSH1 0x0 PUSH1 0x80 DUP3 DUP5 SUB SLT ISZERO PUSH2 0x1FDC JUMPI PUSH1 0x0 DUP1 REVERT JUMPDEST PUSH2 0x1FE4 PUSH2 0x1D7F JUMP JUMPDEST DUP3 CALLDATALOAD DUP2 MSTORE PUSH2 0x1FF4 PUSH1 0x20 DUP5 ADD PUSH2 0x18F8 JUMP JUMPDEST PUSH1 0x20 DUP3 ADD MSTORE PUSH1 0x40 DUP4 ADD CALLDATALOAD PUSH1 0x40 DUP3 ADD MSTORE PUSH1 0x60 DUP4 ADD CALLDATALOAD PUSH1 0x60 DUP3 ADD MSTORE DUP1 SWAP2 POP POP SWAP3 SWAP2 POP POP JUMP JUMPDEST PUSH1 0x0 PUSH1 0x80 DUP3 DUP5 SUB SLT ISZERO PUSH2 0x2029 JUMPI PUSH1 0x0 DUP1 REVERT JUMPDEST PUSH2 0x2031 PUSH2 0x1D7F JUMP JUMPDEST DUP3 CALLDATALOAD DUP2 MSTORE PUSH1 0x20 DUP4 ADD CALLDATALOAD PUSH1 0x20 DUP3 ADD MSTORE PUSH1 0x40 DUP4 ADD CALLDATALOAD PUSH1 0x40 DUP3 ADD MSTORE PUSH1 0x60 DUP4 ADD CALLDATALOAD PUSH2 0x2057 DUP2 PUSH2 0x18D0 JUMP JUMPDEST PUSH1 0x60 DUP3 ADD MSTORE SWAP4 SWAP3 POP POP POP JUMP JUMPDEST PUSH1 0x0 DUP3 MLOAD PUSH1 0x0 JUMPDEST DUP2 DUP2 LT ISZERO PUSH2 0x2084 JUMPI PUSH1 0x20 DUP2 DUP7 ADD DUP2 ADD MLOAD DUP6 DUP4 ADD MSTORE ADD PUSH2 0x206A JUMP JUMPDEST POP PUSH1 0x0 SWAP3 ADD SWAP2 DUP3 MSTORE POP SWAP2 SWAP1 POP JUMP JUMPDEST PUSH1 0x0 PUSH1 0x60 DUP3 DUP5 SUB SLT ISZERO PUSH2 0x20A4 JUMPI PUSH1 0x0 DUP1 REVERT JUMPDEST PUSH1 0x40 MLOAD PUSH1 0x60 DUP2 ADD DUP2 DUP2 LT PUSH1 0x1 PUSH1 0x1 PUSH1 0x40 SHL SUB DUP3 GT OR ISZERO PUSH2 0x20D4 JUMPI PUSH4 0x4E487B71 PUSH1 0xE0 SHL PUSH1 0x0 MSTORE PUSH1 0x41 PUSH1 0x4 MSTORE PUSH1 0x24 PUSH1 0x0 REVERT JUMPDEST PUSH1 0x40 MSTORE DUP3 MLOAD PUSH2 0x20E2 DUP2 PUSH2 0x18D0 JUMP JUMPDEST DUP2 MSTORE PUSH1 0x20 DUP4 ADD MLOAD PUSH2 0x20F2 DUP2 PUSH2 0x18D0 JUMP JUMPDEST PUSH1 0x20 DUP3 ADD MSTORE PUSH1 0x40 DUP4 ADD MLOAD PUSH2 0x2105 DUP2 PUSH2 0x18D0 JUMP JUMPDEST PUSH1 0x40 DUP3 ADD MSTORE SWAP4 SWAP3 POP POP POP JUMP INVALID LOG2 PUSH5 0x6970667358 0x22 SLT KECCAK256 0x4C COINBASE 0xE7 SWAP16 SWAP14 DUP6 PUSH25 0x7C5FCC15B1B73AFA6C82BE79047FEB73E4DAD2B293FC27FC39 PUSH5 0x736F6C6343 STOP ADDMOD SGT STOP CALLER "},"methodIdentifiers":{"canCompleteDeposit(address)":"94137c90","commitmentIndex(bytes32)":"012d09b5","commitmentMerkleTree(uint256)":"d4a82dc5","commitments(bytes32)":"839df945","completeDeposit(bytes32,bytes,bytes)":"d43ffa2f","complianceAuthority()":"309f477a","deposit(bytes32,uint64,uint64,bytes,bytes)":"ca29a405","emergencyWithdraw(uint64,uint64,address)":"18afae2c","getMerkleRoot()":"49590657","getUserSpotBalance(address,uint64)":"fdb87ec7","nullifiers(bytes32)":"2997e86b","pendingDeposits(address)":"eb3349b9","prepareDeposit(uint64,uint64)":"5eda69b1","privatePerpsPosition(bytes32,bytes,bytes,uint32,bool,uint64,uint64)":"6f3bcf67","privateSpotTrade(bytes,bytes)":"b54fcff9","sp1Verifier()":"52a07fa3","transferToContract(uint64,uint64)":"7318754d","updateComplianceAuthority(address)":"e5ea7be2","withdraw(bytes32,address,uint64,uint64,bytes,bytes)":"dac90aeb"}}}}}