{"contracts/HyperliquidEVMTrading.sol":{"HyperliquidEVMTrading":{"abi":[{"inputs":[{"internalType":"address","name":"_sp1Verifier","type":"address"},{"internalType":"address","name":"_depositContract","type":"address"}],"stateMutability":"nonpayable","type":"constructor"},{"anonymous":false,"inputs":[{"indexed":true,"internalType":"bytes32","name":"commitment","type":"bytes32"},{"indexed":true,"internalType":"address","name":"user","type":"address"},{"indexed":false,"internalType":"uint32","name":"fromAsset","type":"uint32"},{"indexed":false,"internalType":"uint32","name":"toAsset","type":"uint32"},{"indexed":false,"internalType":"uint256","name":"fromAmount","type":"uint256"},{"indexed":false,"internalType":"uint256","name":"toAmount","type":"uint256"},{"indexed":false,"internalType":"uint256","name":"tradeId","type":"uint256"},{"indexed":false,"internalType":"uint256","name":"timestamp","type":"uint256"}],"name":"PrivateEVMTrade","type":"event"},{"inputs":[{"internalType":"bytes32","name":"","type":"bytes32"},{"internalType":"uint32","name":"","type":"uint32"}],"name":"commitmentBalances","outputs":[{"internalType":"uint256","name":"","type":"uint256"}],"stateMutability":"view","type":"function"},{"inputs":[],"name":"depositContract","outputs":[{"internalType":"contract IDepositContract","name":"","type":"address"}],"stateMutability":"view","type":"function"},{"inputs":[],"name":"emergencyWithdraw","outputs":[],"stateMutability":"nonpayable","type":"function"},{"inputs":[{"internalType":"bytes32","name":"commitment","type":"bytes32"},{"internalType":"uint32","name":"asset","type":"uint32"}],"name":"getCommitmentBalance","outputs":[{"internalType":"uint256","name":"balance","type":"uint256"}],"stateMutability":"view","type":"function"},{"inputs":[],"name":"getMerkleRoot","outputs":[{"internalType":"bytes32","name":"root","type":"bytes32"}],"stateMutability":"view","type":"function"},{"inputs":[{"internalType":"bytes32","name":"commitment","type":"bytes32"},{"internalType":"uint32","name":"asset","type":"uint32"},{"internalType":"uint256","name":"amount","type":"uint256"}],"name":"initializeCommitmentBalance","outputs":[],"stateMutability":"nonpayable","type":"function"},{"inputs":[{"internalType":"bytes32","name":"commitment","type":"bytes32"}],"name":"isCommitmentValid","outputs":[{"internalType":"bool","name":"valid","type":"bool"}],"stateMutability":"view","type":"function"},{"inputs":[],"name":"owner","outputs":[{"internalType":"address","name":"","type":"address"}],"stateMutability":"view","type":"function"},{"inputs":[{"internalType":"bytes","name":"tradeProof","type":"bytes"},{"internalType":"bytes","name":"publicValues","type":"bytes"}],"name":"privateEVMTrade","outputs":[{"internalType":"uint256","name":"tradeId","type":"uint256"}],"stateMutability":"nonpayable","type":"function"},{"inputs":[],"name":"sp1Verifier","outputs":[{"internalType":"contract ISP1Verifier","name":"","type":"address"}],"stateMutability":"view","type":"function"},{"inputs":[],"name":"tradeCounter","outputs":[{"internalType":"uint256","name":"","type":"uint256"}],"stateMutability":"view","type":"function"},{"inputs":[{"internalType":"address","name":"newOwner","type":"address"}],"name":"transferOwnership","outputs":[],"stateMutability":"nonpayable","type":"function"},{"inputs":[{"internalType":"bytes32","name":"","type":"bytes32"}],"name":"usedCommitments","outputs":[{"internalType":"bool","name":"","type":"bool"}],"stateMutability":"view","type":"function"}],"evm":{"bytecode":{"linkReferences":{},"object":"60c060405234801561001057600080fd5b50604051610f9c380380610f9c83398101604081905261002f91610079565b6001600160a01b039182166080521660a052600280546001600160a01b0319163317905560016003556100ac565b80516001600160a01b038116811461007457600080fd5b919050565b6000806040838503121561008c57600080fd5b6100958361005d565b91506100a36020840161005d565b90509250929050565b60805160a051610ea16100fb6000396000818161021e01528181610269015281816103bb015281816104380152818161053301526105e901526000818161012c01526106c80152610ea16000f3fe608060405234801561001057600080fd5b50600436106100cf5760003560e01c80636fea68cd1161008c5780639247a8b6116100665780639247a8b6146101fe578063db2e21bc14610211578063e94ad65b14610219578063f2fde38b1461024057600080fd5b80636fea68cd146101975780638da5cb5b146101c857806391402039146101db57600080fd5b806326c67d81146100d457806342ffdb99146100e9578063495906571461011157806352a07fa31461012757806359c55de414610166578063660d15b51461018e575b600080fd5b6100e76100e2366004610b3a565b610253565b005b6100fc6100f7366004610b6f565b6103a2565b60405190151581526020015b60405180910390f35b610119610434565b604051908152602001610108565b61014e7f000000000000000000000000000000000000000000000000000000000000000081565b6040516001600160a01b039091168152602001610108565b610119610174366004610b88565b600060208181529281526040808220909352908152205481565b61011960035481565b6101196101a5366004610b88565b60009182526020828152604080842063ffffffff93909316845291905290205490565b60025461014e906001600160a01b031681565b6100fc6101e9366004610b6f565b60016020526000908152604090205460ff1681565b61011961020c366004610bfd565b6104bd565b6100e7610960565b61014e7f000000000000000000000000000000000000000000000000000000000000000081565b6100e761024e366004610c80565b6109ee565b60405163839df94560e01b8152600481018490527f00000000000000000000000000000000000000000000000000000000000000006001600160a01b03169063839df94590602401602060405180830381865afa1580156102b8573d6000803e3d6000fd5b505050506040513d601f19601f820116820180604052508101906102dc9190610c9b565b6103225760405162461bcd60e51b8152602060048201526012602482015271125b9d985b1a590818dbdb5b5a5d1b595b9d60721b60448201526064015b60405180910390fd5b60008381526001602052604090205460ff16156103815760405162461bcd60e51b815260206004820152601760248201527f436f6d6d69746d656e7420616c726561647920757365640000000000000000006044820152606401610319565b60009283526020838152604080852063ffffffff9094168552929052912055565b60405163839df94560e01b8152600481018290526000907f00000000000000000000000000000000000000000000000000000000000000006001600160a01b03169063839df94590602401602060405180830381865afa15801561040a573d6000803e3d6000fd5b505050506040513d601f19601f8201168201806040525081019061042e9190610c9b565b92915050565b60007f00000000000000000000000000000000000000000000000000000000000000006001600160a01b031663495906576040518163ffffffff1660e01b8152600401602060405180830381865afa158015610494573d6000803e3d6000fd5b505050506040513d601f19601f820116820180604052508101906104b89190610cbd565b905090565b6000806104cc83850185610cd6565b60208101519091506001600160a01b0316331461051a5760405162461bcd60e51b815260206004820152600c60248201526b24b73b30b634b2103ab9b2b960a11b6044820152606401610319565b805160405163839df94560e01b815260048101919091527f00000000000000000000000000000000000000000000000000000000000000006001600160a01b03169063839df94590602401602060405180830381865afa158015610582573d6000803e3d6000fd5b505050506040513d601f19601f820116820180604052508101906105a69190610c9b565b6105e75760405162461bcd60e51b8152602060048201526012602482015271125b9d985b1a590818dbdb5b5a5d1b595b9d60721b6044820152606401610319565b7f00000000000000000000000000000000000000000000000000000000000000006001600160a01b031663495906576040518163ffffffff1660e01b8152600401602060405180830381865afa158015610645573d6000803e3d6000fd5b505050506040513d601f19601f820116820180604052508101906106699190610cbd565b8160c00151146106b15760405162461bcd60e51b8152602060048201526013602482015272125b9d985b1a59081b595c9adb19481c9bdbdd606a1b6044820152606401610319565b60405163020a49e360e51b81526001600160a01b037f000000000000000000000000000000000000000000000000000000000000000016906341493c6090610724907e8484840d42565b9589f5c37253789d3731407964b1537fb5cf9d6064226b1c90889088908c908c90600401610da4565b60006040518083038186803b15801561073c57600080fd5b505afa158015610750573d6000803e3d6000fd5b505082516000908152602081815260408083208187015163ffffffff168452909152902054608084015190925082101590506107ce5760405162461bcd60e51b815260206004820152601f60248201527f496e73756666696369656e7420636f6d6d69746d656e742062616c616e6365006044820152606401610319565b60006107e7836040015184606001518560800151610a9e565b90508260a0015181101561083d5760405162461bcd60e51b815260206004820152601a60248201527f496e73756666696369656e74206f757470757420616d6f756e740000000000006044820152606401610319565b608083015183516000908152602081815260408083208188015163ffffffff16845290915281208054909190610874908490610df3565b90915550508251600090815260208181526040808320606087015163ffffffff168452909152812080548392906108ac908490610e06565b9091555050600380549060006108c183610e19565b91905055935082602001516001600160a01b031683600001517f6601a363df1fe982c04bc27bb7ba9ef36b958bc96184b6e7d687c765844171f0856040015186606001518760800151868a4260405161094d9695949392919063ffffffff968716815294909516602085015260408401929092526060830152608082015260a081019190915260c00190565b60405180910390a3505050949350505050565b6002546001600160a01b031633146109a65760405162461bcd60e51b81526020600482015260096024820152682737ba1037bbb732b960b91b6044820152606401610319565b60405162461bcd60e51b815260206004820152601b60248201527f4e6f20656d657267656e637920616374696f6e20646566696e656400000000006044820152606401610319565b6002546001600160a01b03163314610a345760405162461bcd60e51b81526020600482015260096024820152682737ba1037bbb732b960b91b6044820152606401610319565b6001600160a01b038116610a7c5760405162461bcd60e51b815260206004820152600f60248201526e496e76616c6964206164647265737360881b6044820152606401610319565b600280546001600160a01b0319166001600160a01b0392909216919091179055565b60008263ffffffff168463ffffffff1603610aba575080610b1a565b8363ffffffff166001148015610ad4575063ffffffff8316155b15610aec57610ae582610bb8610e32565b9050610b1a565b63ffffffff8416158015610b0657508263ffffffff166001145b15610b1757610ae5610bb883610e49565b50805b9392505050565b803563ffffffff81168114610b3557600080fd5b919050565b600080600060608486031215610b4f57600080fd5b83359250610b5f60208501610b21565b9150604084013590509250925092565b600060208284031215610b8157600080fd5b5035919050565b60008060408385031215610b9b57600080fd5b82359150610bab60208401610b21565b90509250929050565b60008083601f840112610bc657600080fd5b50813567ffffffffffffffff811115610bde57600080fd5b602083019150836020828501011115610bf657600080fd5b9250929050565b60008060008060408587031215610c1357600080fd5b843567ffffffffffffffff80821115610c2b57600080fd5b610c3788838901610bb4565b90965094506020870135915080821115610c5057600080fd5b50610c5d87828801610bb4565b95989497509550505050565b80356001600160a01b0381168114610b3557600080fd5b600060208284031215610c9257600080fd5b610b1a82610c69565b600060208284031215610cad57600080fd5b81518015158114610b1a57600080fd5b600060208284031215610ccf57600080fd5b5051919050565b600060e08284031215610ce857600080fd5b60405160e0810181811067ffffffffffffffff82111715610d1957634e487b7160e01b600052604160045260246000fd5b60405282358152610d2c60208401610c69565b6020820152610d3d60408401610b21565b6040820152610d4e60608401610b21565b60608201526080830135608082015260a083013560a082015260c083013560c08201528091505092915050565b81835281816020850137506000828201602090810191909152601f909101601f19169091010190565b858152606060208201526000610dbe606083018688610d7b565b8281036040840152610dd1818587610d7b565b98975050505050505050565b634e487b7160e01b600052601160045260246000fd5b8181038181111561042e5761042e610ddd565b8082018082111561042e5761042e610ddd565b600060018201610e2b57610e2b610ddd565b5060010190565b808202811582820484141761042e5761042e610ddd565b600082610e6657634e487b7160e01b600052601260045260246000fd5b50049056fea2646970667358221220b32f998a5b90943d087a996e04832f853b4366c2f8547c4e236bbb8c0ebe05fe64736f6c63430008140033","opcodes":"PUSH1 0xC0 PUSH1 0x40 MSTORE CALLVALUE DUP1 ISZERO PUSH2 0x10 JUMPI PUSH1 0x0 DUP1 REVERT JUMPDEST POP PUSH1 0x40 MLOAD PUSH2 0xF9C CODESIZE SUB DUP1 PUSH2 0xF9C DUP4 CODECOPY DUP2 ADD PUSH1 0x40 DUP2 SWAP1 MSTORE PUSH2 0x2F SWAP2 PUSH2 0x79 JUMP JUMPDEST PUSH1 0x1 PUSH1 0x1 PUSH1 0xA0 SHL SUB SWAP2 DUP3 AND PUSH1 0x80 MSTORE AND PUSH1 0xA0 MSTORE PUSH1 0x2 DUP1 SLOAD PUSH1 0x1 PUSH1 0x1 PUSH1 0xA0 SHL SUB NOT AND CALLER OR SWAP1 SSTORE PUSH1 0x1 PUSH1 0x3 SSTORE PUSH2 0xAC JUMP JUMPDEST DUP1 MLOAD PUSH1 0x1 PUSH1 0x1 PUSH1 0xA0 SHL SUB DUP2 AND DUP2 EQ PUSH2 0x74 JUMPI PUSH1 0x0 DUP1 REVERT JUMPDEST SWAP2 SWAP1 POP JUMP JUMPDEST PUSH1 0x0 DUP1 PUSH1 0x40 DUP4 DUP6 SUB SLT ISZERO PUSH2 0x8C JUMPI PUSH1 0x0 DUP1 REVERT JUMPDEST PUSH2 0x95 DUP4 PUSH2 0x5D JUMP JUMPDEST SWAP2 POP PUSH2 0xA3 PUSH1 0x20 DUP5 ADD PUSH2 0x5D JUMP JUMPDEST SWAP1 POP SWAP3 POP SWAP3 SWAP1 POP JUMP JUMPDEST PUSH1 0x80 MLOAD PUSH1 0xA0 MLOAD PUSH2 0xEA1 PUSH2 0xFB PUSH1 0x0 CODECOPY PUSH1 0x0 DUP2 DUP2 PUSH2 0x21E ADD MSTORE DUP2 DUP2 PUSH2 0x269 ADD MSTORE DUP2 DUP2 PUSH2 0x3BB ADD MSTORE DUP2 DUP2 PUSH2 0x438 ADD MSTORE DUP2 DUP2 PUSH2 0x533 ADD MSTORE PUSH2 0x5E9 ADD MSTORE PUSH1 0x0 DUP2 DUP2 PUSH2 0x12C ADD MSTORE PUSH2 0x6C8 ADD MSTORE PUSH2 0xEA1 PUSH1 0x0 RETURN INVALID PUSH1 0x80 PUSH1 0x40 MSTORE CALLVALUE DUP1 ISZERO PUSH2 0x10 JUMPI PUSH1 0x0 DUP1 REVERT JUMPDEST POP PUSH1 0x4 CALLDATASIZE LT PUSH2 0xCF JUMPI PUSH1 0x0 CALLDATALOAD PUSH1 0xE0 SHR DUP1 PUSH4 0x6FEA68CD GT PUSH2 0x8C JUMPI DUP1 PUSH4 0x9247A8B6 GT PUSH2 0x66 JUMPI DUP1 PUSH4 0x9247A8B6 EQ PUSH2 0x1FE JUMPI DUP1 PUSH4 0xDB2E21BC EQ PUSH2 0x211 JUMPI DUP1 PUSH4 0xE94AD65B EQ PUSH2 0x219 JUMPI DUP1 PUSH4 0xF2FDE38B EQ PUSH2 0x240 JUMPI PUSH1 0x0 DUP1 REVERT JUMPDEST DUP1 PUSH4 0x6FEA68CD EQ PUSH2 0x197 JUMPI DUP1 PUSH4 0x8DA5CB5B EQ PUSH2 0x1C8 JUMPI DUP1 PUSH4 0x91402039 EQ PUSH2 0x1DB JUMPI PUSH1 0x0 DUP1 REVERT JUMPDEST DUP1 PUSH4 0x26C67D81 EQ PUSH2 0xD4 JUMPI DUP1 PUSH4 0x42FFDB99 EQ PUSH2 0xE9 JUMPI DUP1 PUSH4 0x49590657 EQ PUSH2 0x111 JUMPI DUP1 PUSH4 0x52A07FA3 EQ PUSH2 0x127 JUMPI DUP1 PUSH4 0x59C55DE4 EQ PUSH2 0x166 JUMPI DUP1 PUSH4 0x660D15B5 EQ PUSH2 0x18E JUMPI JUMPDEST PUSH1 0x0 DUP1 REVERT JUMPDEST PUSH2 0xE7 PUSH2 0xE2 CALLDATASIZE PUSH1 0x4 PUSH2 0xB3A JUMP JUMPDEST PUSH2 0x253 JUMP JUMPDEST STOP JUMPDEST PUSH2 0xFC PUSH2 0xF7 CALLDATASIZE PUSH1 0x4 PUSH2 0xB6F JUMP JUMPDEST PUSH2 0x3A2 JUMP JUMPDEST PUSH1 0x40 MLOAD SWAP1 ISZERO ISZERO DUP2 MSTORE PUSH1 0x20 ADD JUMPDEST PUSH1 0x40 MLOAD DUP1 SWAP2 SUB SWAP1 RETURN JUMPDEST PUSH2 0x119 PUSH2 0x434 JUMP JUMPDEST PUSH1 0x40 MLOAD SWAP1 DUP2 MSTORE PUSH1 0x20 ADD PUSH2 0x108 JUMP JUMPDEST PUSH2 0x14E PUSH32 0x0 DUP2 JUMP JUMPDEST PUSH1 0x40 MLOAD PUSH1 0x1 PUSH1 0x1 PUSH1 0xA0 SHL SUB SWAP1 SWAP2 AND DUP2 MSTORE PUSH1 0x20 ADD PUSH2 0x108 JUMP JUMPDEST PUSH2 0x119 PUSH2 0x174 CALLDATASIZE PUSH1 0x4 PUSH2 0xB88 JUMP JUMPDEST PUSH1 0x0 PUSH1 0x20 DUP2 DUP2 MSTORE SWAP3 DUP2 MSTORE PUSH1 0x40 DUP1 DUP3 KECCAK256 SWAP1 SWAP4 MSTORE SWAP1 DUP2 MSTORE KECCAK256 SLOAD DUP2 JUMP JUMPDEST PUSH2 0x119 PUSH1 0x3 SLOAD DUP2 JUMP JUMPDEST PUSH2 0x119 PUSH2 0x1A5 CALLDATASIZE PUSH1 0x4 PUSH2 0xB88 JUMP JUMPDEST PUSH1 0x0 SWAP2 DUP3 MSTORE PUSH1 0x20 DUP3 DUP2 MSTORE PUSH1 0x40 DUP1 DUP5 KECCAK256 PUSH4 0xFFFFFFFF SWAP4 SWAP1 SWAP4 AND DUP5 MSTORE SWAP2 SWAP1 MSTORE SWAP1 KECCAK256 SLOAD SWAP1 JUMP JUMPDEST PUSH1 0x2 SLOAD PUSH2 0x14E SWAP1 PUSH1 0x1 PUSH1 0x1 PUSH1 0xA0 SHL SUB AND DUP2 JUMP JUMPDEST PUSH2 0xFC PUSH2 0x1E9 CALLDATASIZE PUSH1 0x4 PUSH2 0xB6F JUMP JUMPDEST PUSH1 0x1 PUSH1 0x20 MSTORE PUSH1 0x0 SWAP1 DUP2 MSTORE PUSH1 0x40 SWAP1 KECCAK256 SLOAD PUSH1 0xFF AND DUP2 JUMP JUMPDEST PUSH2 0x119 PUSH2 0x20C CALLDATASIZE PUSH1 0x4 PUSH2 0xBFD JUMP JUMPDEST PUSH2 0x4BD JUMP JUMPDEST PUSH2 0xE7 PUSH2 0x960 JUMP JUMPDEST PUSH2 0x14E PUSH32 0x0 DUP2 JUMP JUMPDEST PUSH2 0xE7 PUSH2 0x24E CALLDATASIZE PUSH1 0x4 PUSH2 0xC80 JUMP JUMPDEST PUSH2 0x9EE JUMP JUMPDEST PUSH1 0x40 MLOAD PUSH4 0x839DF945 PUSH1 0xE0 SHL DUP2 MSTORE PUSH1 0x4 DUP2 ADD DUP5 SWAP1 MSTORE PUSH32 0x0 PUSH1 0x1 PUSH1 0x1 PUSH1 0xA0 SHL SUB AND SWAP1 PUSH4 0x839DF945 SWAP1 PUSH1 0x24 ADD PUSH1 0x20 PUSH1 0x40 MLOAD DUP1 DUP4 SUB DUP2 DUP7 GAS STATICCALL ISZERO DUP1 ISZERO PUSH2 0x2B8 JUMPI RETURNDATASIZE PUSH1 0x0 DUP1 RETURNDATACOPY RETURNDATASIZE PUSH1 0x0 REVERT JUMPDEST POP POP POP POP PUSH1 0x40 MLOAD RETURNDATASIZE PUSH1 0x1F NOT PUSH1 0x1F DUP3 ADD AND DUP3 ADD DUP1 PUSH1 0x40 MSTORE POP DUP2 ADD SWAP1 PUSH2 0x2DC SWAP2 SWAP1 PUSH2 0xC9B JUMP JUMPDEST PUSH2 0x322 JUMPI PUSH1 0x40 MLOAD PUSH3 0x461BCD PUSH1 0xE5 SHL DUP2 MSTORE PUSH1 0x20 PUSH1 0x4 DUP3 ADD MSTORE PUSH1 0x12 PUSH1 0x24 DUP3 ADD MSTORE PUSH18 0x125B9D985B1A590818DBDB5B5A5D1B595B9D PUSH1 0x72 SHL PUSH1 0x44 DUP3 ADD MSTORE PUSH1 0x64 ADD JUMPDEST PUSH1 0x40 MLOAD DUP1 SWAP2 SUB SWAP1 REVERT JUMPDEST PUSH1 0x0 DUP4 DUP2 MSTORE PUSH1 0x1 PUSH1 0x20 MSTORE PUSH1 0x40 SWAP1 KECCAK256 SLOAD PUSH1 0xFF AND ISZERO PUSH2 0x381 JUMPI PUSH1 0x40 MLOAD PUSH3 0x461BCD PUSH1 0xE5 SHL DUP2 MSTORE PUSH1 0x20 PUSH1 0x4 DUP3 ADD MSTORE PUSH1 0x17 PUSH1 0x24 DUP3 ADD MSTORE PUSH32 0x436F6D6D69746D656E7420616C72656164792075736564000000000000000000 PUSH1 0x44 DUP3 ADD MSTORE PUSH1 0x64 ADD PUSH2 0x319 JUMP JUMPDEST PUSH1 0x0 SWAP3 DUP4 MSTORE PUSH1 0x20 DUP4 DUP2 MSTORE PUSH1 0x40 DUP1 DUP6 KECCAK256 PUSH4 0xFFFFFFFF SWAP1 SWAP5 AND DUP6 MSTORE SWAP3 SWAP1 MSTORE SWAP2 KECCAK256 SSTORE JUMP JUMPDEST PUSH1 0x40 MLOAD PUSH4 0x839DF945 PUSH1 0xE0 SHL DUP2 MSTORE PUSH1 0x4 DUP2 ADD DUP3 SWAP1 MSTORE PUSH1 0x0 SWAP1 PUSH32 0x0 PUSH1 0x1 PUSH1 0x1 PUSH1 0xA0 SHL SUB AND SWAP1 PUSH4 0x839DF945 SWAP1 PUSH1 0x24 ADD PUSH1 0x20 PUSH1 0x40 MLOAD DUP1 DUP4 SUB DUP2 DUP7 GAS STATICCALL ISZERO DUP1 ISZERO PUSH2 0x40A JUMPI RETURNDATASIZE PUSH1 0x0 DUP1 RETURNDATACOPY RETURNDATASIZE PUSH1 0x0 REVERT JUMPDEST POP POP POP POP PUSH1 0x40 MLOAD RETURNDATASIZE PUSH1 0x1F NOT PUSH1 0x1F DUP3 ADD AND DUP3 ADD DUP1 PUSH1 0x40 MSTORE POP DUP2 ADD SWAP1 PUSH2 0x42E SWAP2 SWAP1 PUSH2 0xC9B JUMP JUMPDEST SWAP3 SWAP2 POP POP JUMP JUMPDEST PUSH1 0x0 PUSH32 0x0 PUSH1 0x1 PUSH1 0x1 PUSH1 0xA0 SHL SUB AND PUSH4 0x49590657 PUSH1 0x40 MLOAD DUP2 PUSH4 0xFFFFFFFF AND PUSH1 0xE0 SHL DUP2 MSTORE PUSH1 0x4 ADD PUSH1 0x20 PUSH1 0x40 MLOAD DUP1 DUP4 SUB DUP2 DUP7 GAS STATICCALL ISZERO DUP1 ISZERO PUSH2 0x494 JUMPI RETURNDATASIZE PUSH1 0x0 DUP1 RETURNDATACOPY RETURNDATASIZE PUSH1 0x0 REVERT JUMPDEST POP POP POP POP PUSH1 0x40 MLOAD RETURNDATASIZE PUSH1 0x1F NOT PUSH1 0x1F DUP3 ADD AND DUP3 ADD DUP1 PUSH1 0x40 MSTORE POP DUP2 ADD SWAP1 PUSH2 0x4B8 SWAP2 SWAP1 PUSH2 0xCBD JUMP JUMPDEST SWAP1 POP SWAP1 JUMP JUMPDEST PUSH1 0x0 DUP1 PUSH2 0x4CC DUP4 DUP6 ADD DUP6 PUSH2 0xCD6 JUMP JUMPDEST PUSH1 0x20 DUP2 ADD MLOAD SWAP1 SWAP2 POP PUSH1 0x1 PUSH1 0x1 PUSH1 0xA0 SHL SUB AND CALLER EQ PUSH2 0x51A JUMPI PUSH1 0x40 MLOAD PUSH3 0x461BCD PUSH1 0xE5 SHL DUP2 MSTORE PUSH1 0x20 PUSH1 0x4 DUP3 ADD MSTORE PUSH1 0xC PUSH1 0x24 DUP3 ADD MSTORE PUSH12 0x24B73B30B634B2103AB9B2B9 PUSH1 0xA1 SHL PUSH1 0x44 DUP3 ADD MSTORE PUSH1 0x64 ADD PUSH2 0x319 JUMP JUMPDEST DUP1 MLOAD PUSH1 0x40 MLOAD PUSH4 0x839DF945 PUSH1 0xE0 SHL DUP2 MSTORE PUSH1 0x4 DUP2 ADD SWAP2 SWAP1 SWAP2 MSTORE PUSH32 0x0 PUSH1 0x1 PUSH1 0x1 PUSH1 0xA0 SHL SUB AND SWAP1 PUSH4 0x839DF945 SWAP1 PUSH1 0x24 ADD PUSH1 0x20 PUSH1 0x40 MLOAD DUP1 DUP4 SUB DUP2 DUP7 GAS STATICCALL ISZERO DUP1 ISZERO PUSH2 0x582 JUMPI RETURNDATASIZE PUSH1 0x0 DUP1 RETURNDATACOPY RETURNDATASIZE PUSH1 0x0 REVERT JUMPDEST POP POP POP POP PUSH1 0x40 MLOAD RETURNDATASIZE PUSH1 0x1F NOT PUSH1 0x1F DUP3 ADD AND DUP3 ADD DUP1 PUSH1 0x40 MSTORE POP DUP2 ADD SWAP1 PUSH2 0x5A6 SWAP2 SWAP1 PUSH2 0xC9B JUMP JUMPDEST PUSH2 0x5E7 JUMPI PUSH1 0x40 MLOAD PUSH3 0x461BCD PUSH1 0xE5 SHL DUP2 MSTORE PUSH1 0x20 PUSH1 0x4 DUP3 ADD MSTORE PUSH1 0x12 PUSH1 0x24 DUP3 ADD MSTORE PUSH18 0x125B9D985B1A590818DBDB5B5A5D1B595B9D PUSH1 0x72 SHL PUSH1 0x44 DUP3 ADD MSTORE PUSH1 0x64 ADD PUSH2 0x319 JUMP JUMPDEST PUSH32 0x0 PUSH1 0x1 PUSH1 0x1 PUSH1 0xA0 SHL SUB AND PUSH4 0x49590657 PUSH1 0x40 MLOAD DUP2 PUSH4 0xFFFFFFFF AND PUSH1 0xE0 SHL DUP2 MSTORE PUSH1 0x4 ADD PUSH1 0x20 PUSH1 0x40 MLOAD DUP1 DUP4 SUB DUP2 DUP7 GAS STATICCALL ISZERO DUP1 ISZERO PUSH2 0x645 JUMPI RETURNDATASIZE PUSH1 0x0 DUP1 RETURNDATACOPY RETURNDATASIZE PUSH1 0x0 REVERT JUMPDEST POP POP POP POP PUSH1 0x40 MLOAD RETURNDATASIZE PUSH1 0x1F NOT PUSH1 0x1F DUP3 ADD AND DUP3 ADD DUP1 PUSH1 0x40 MSTORE POP DUP2 ADD SWAP1 PUSH2 0x669 SWAP2 SWAP1 PUSH2 0xCBD JUMP JUMPDEST DUP2 PUSH1 0xC0 ADD MLOAD EQ PUSH2 0x6B1 JUMPI PUSH1 0x40 MLOAD PUSH3 0x461BCD PUSH1 0xE5 SHL DUP2 MSTORE PUSH1 0x20 PUSH1 0x4 DUP3 ADD MSTORE PUSH1 0x13 PUSH1 0x24 DUP3 ADD MSTORE PUSH19 0x125B9D985B1A59081B595C9ADB19481C9BDBDD PUSH1 0x6A SHL PUSH1 0x44 DUP3 ADD MSTORE PUSH1 0x64 ADD PUSH2 0x319 JUMP JUMPDEST PUSH1 0x40 MLOAD PUSH4 0x20A49E3 PUSH1 0xE5 SHL DUP2 MSTORE PUSH1 0x1 PUSH1 0x1 PUSH1 0xA0 SHL SUB PUSH32 0x0 AND SWAP1 PUSH4 0x41493C60 SWAP1 PUSH2 0x724 SWAP1 PUSH31 0x8484840D42565B9589F5C37253789D3731407964B1537FB5CF9D6064226B1C SWAP1 DUP9 SWAP1 DUP9 SWAP1 DUP13 SWAP1 DUP13 SWAP1 PUSH1 0x4 ADD PUSH2 0xDA4 JUMP JUMPDEST PUSH1 0x0 PUSH1 0x40 MLOAD DUP1 DUP4 SUB DUP2 DUP7 DUP1 EXTCODESIZE ISZERO DUP1 ISZERO PUSH2 0x73C JUMPI PUSH1 0x0 DUP1 REVERT JUMPDEST POP GAS STATICCALL ISZERO DUP1 ISZERO PUSH2 0x750 JUMPI RETURNDATASIZE PUSH1 0x0 DUP1 RETURNDATACOPY RETURNDATASIZE PUSH1 0x0 REVERT JUMPDEST POP POP DUP3 MLOAD PUSH1 0x0 SWAP1 DUP2 MSTORE PUSH1 0x20 DUP2 DUP2 MSTORE PUSH1 0x40 DUP1 DUP4 KECCAK256 DUP2 DUP8 ADD MLOAD PUSH4 0xFFFFFFFF AND DUP5 MSTORE SWAP1 SWAP2 MSTORE SWAP1 KECCAK256 SLOAD PUSH1 0x80 DUP5 ADD MLOAD SWAP1 SWAP3 POP DUP3 LT ISZERO SWAP1 POP PUSH2 0x7CE JUMPI PUSH1 0x40 MLOAD PUSH3 0x461BCD PUSH1 0xE5 SHL DUP2 MSTORE PUSH1 0x20 PUSH1 0x4 DUP3 ADD MSTORE PUSH1 0x1F PUSH1 0x24 DUP3 ADD MSTORE PUSH32 0x496E73756666696369656E7420636F6D6D69746D656E742062616C616E636500 PUSH1 0x44 DUP3 ADD MSTORE PUSH1 0x64 ADD PUSH2 0x319 JUMP JUMPDEST PUSH1 0x0 PUSH2 0x7E7 DUP4 PUSH1 0x40 ADD MLOAD DUP5 PUSH1 0x60 ADD MLOAD DUP6 PUSH1 0x80 ADD MLOAD PUSH2 0xA9E JUMP JUMPDEST SWAP1 POP DUP3 PUSH1 0xA0 ADD MLOAD DUP2 LT ISZERO PUSH2 0x83D JUMPI PUSH1 0x40 MLOAD PUSH3 0x461BCD PUSH1 0xE5 SHL DUP2 MSTORE PUSH1 0x20 PUSH1 0x4 DUP3 ADD MSTORE PUSH1 0x1A PUSH1 0x24 DUP3 ADD MSTORE PUSH32 0x496E73756666696369656E74206F757470757420616D6F756E74000000000000 PUSH1 0x44 DUP3 ADD MSTORE PUSH1 0x64 ADD PUSH2 0x319 JUMP JUMPDEST PUSH1 0x80 DUP4 ADD MLOAD DUP4 MLOAD PUSH1 0x0 SWAP1 DUP2 MSTORE PUSH1 0x20 DUP2 DUP2 MSTORE PUSH1 0x40 DUP1 DUP4 KECCAK256 DUP2 DUP9 ADD MLOAD PUSH4 0xFFFFFFFF AND DUP5 MSTORE SWAP1 SWAP2 MSTORE DUP2 KECCAK256 DUP1 SLOAD SWAP1 SWAP2 SWAP1 PUSH2 0x874 SWAP1 DUP5 SWAP1 PUSH2 0xDF3 JUMP JUMPDEST SWAP1 SWAP2 SSTORE POP POP DUP3 MLOAD PUSH1 0x0 SWAP1 DUP2 MSTORE PUSH1 0x20 DUP2 DUP2 MSTORE PUSH1 0x40 DUP1 DUP4 KECCAK256 PUSH1 0x60 DUP8 ADD MLOAD PUSH4 0xFFFFFFFF AND DUP5 MSTORE SWAP1 SWAP2 MSTORE DUP2 KECCAK256 DUP1 SLOAD DUP4 SWAP3 SWAP1 PUSH2 0x8AC SWAP1 DUP5 SWAP1 PUSH2 0xE06 JUMP JUMPDEST SWAP1 SWAP2 SSTORE POP POP PUSH1 0x3 DUP1 SLOAD SWAP1 PUSH1 0x0 PUSH2 0x8C1 DUP4 PUSH2 0xE19 JUMP JUMPDEST SWAP2 SWAP1 POP SSTORE SWAP4 POP DUP3 PUSH1 0x20 ADD MLOAD PUSH1 0x1 PUSH1 0x1 PUSH1 0xA0 SHL SUB AND DUP4 PUSH1 0x0 ADD MLOAD PUSH32 0x6601A363DF1FE982C04BC27BB7BA9EF36B958BC96184B6E7D687C765844171F0 DUP6 PUSH1 0x40 ADD MLOAD DUP7 PUSH1 0x60 ADD MLOAD DUP8 PUSH1 0x80 ADD MLOAD DUP7 DUP11 TIMESTAMP PUSH1 0x40 MLOAD PUSH2 0x94D SWAP7 SWAP6 SWAP5 SWAP4 SWAP3 SWAP2 SWAP1 PUSH4 0xFFFFFFFF SWAP7 DUP8 AND DUP2 MSTORE SWAP5 SWAP1 SWAP6 AND PUSH1 0x20 DUP6 ADD MSTORE PUSH1 0x40 DUP5 ADD SWAP3 SWAP1 SWAP3 MSTORE PUSH1 0x60 DUP4 ADD MSTORE PUSH1 0x80 DUP3 ADD MSTORE PUSH1 0xA0 DUP2 ADD SWAP2 SWAP1 SWAP2 MSTORE PUSH1 0xC0 ADD SWAP1 JUMP JUMPDEST PUSH1 0x40 MLOAD DUP1 SWAP2 SUB SWAP1 LOG3 POP POP POP SWAP5 SWAP4 POP POP POP POP JUMP JUMPDEST PUSH1 0x2 SLOAD PUSH1 0x1 PUSH1 0x1 PUSH1 0xA0 SHL SUB AND CALLER EQ PUSH2 0x9A6 JUMPI PUSH1 0x40 MLOAD PUSH3 0x461BCD PUSH1 0xE5 SHL DUP2 MSTORE PUSH1 0x20 PUSH1 0x4 DUP3 ADD MSTORE PUSH1 0x9 PUSH1 0x24 DUP3 ADD MSTORE PUSH9 0x2737BA1037BBB732B9 PUSH1 0xB9 SHL PUSH1 0x44 DUP3 ADD MSTORE PUSH1 0x64 ADD PUSH2 0x319 JUMP JUMPDEST PUSH1 0x40 MLOAD PUSH3 0x461BCD PUSH1 0xE5 SHL DUP2 MSTORE PUSH1 0x20 PUSH1 0x4 DUP3 ADD MSTORE PUSH1 0x1B PUSH1 0x24 DUP3 ADD MSTORE PUSH32 0x4E6F20656D657267656E637920616374696F6E20646566696E65640000000000 PUSH1 0x44 DUP3 ADD MSTORE PUSH1 0x64 ADD PUSH2 0x319 JUMP JUMPDEST PUSH1 0x2 SLOAD PUSH1 0x1 PUSH1 0x1 PUSH1 0xA0 SHL SUB AND CALLER EQ PUSH2 0xA34 JUMPI PUSH1 0x40 MLOAD PUSH3 0x461BCD PUSH1 0xE5 SHL DUP2 MSTORE PUSH1 0x20 PUSH1 0x4 DUP3 ADD MSTORE PUSH1 0x9 PUSH1 0x24 DUP3 ADD MSTORE PUSH9 0x2737BA1037BBB732B9 PUSH1 0xB9 SHL PUSH1 0x44 DUP3 ADD MSTORE PUSH1 0x64 ADD PUSH2 0x319 JUMP JUMPDEST PUSH1 0x1 PUSH1 0x1 PUSH1 0xA0 SHL SUB DUP2 AND PUSH2 0xA7C JUMPI PUSH1 0x40 MLOAD PUSH3 0x461BCD PUSH1 0xE5 SHL DUP2 MSTORE PUSH1 0x20 PUSH1 0x4 DUP3 ADD MSTORE PUSH1 0xF PUSH1 0x24 DUP3 ADD MSTORE PUSH15 0x496E76616C69642061646472657373 PUSH1 0x88 SHL PUSH1 0x44 DUP3 ADD MSTORE PUSH1 0x64 ADD PUSH2 0x319 JUMP JUMPDEST PUSH1 0x2 DUP1 SLOAD PUSH1 0x1 PUSH1 0x1 PUSH1 0xA0 SHL SUB NOT AND PUSH1 0x1 PUSH1 0x1 PUSH1 0xA0 SHL SUB SWAP3 SWAP1 SWAP3 AND SWAP2 SWAP1 SWAP2 OR SWAP1 SSTORE JUMP JUMPDEST PUSH1 0x0 DUP3 PUSH4 0xFFFFFFFF AND DUP5 PUSH4 0xFFFFFFFF AND SUB PUSH2 0xABA JUMPI POP DUP1 PUSH2 0xB1A JUMP JUMPDEST DUP4 PUSH4 0xFFFFFFFF AND PUSH1 0x1 EQ DUP1 ISZERO PUSH2 0xAD4 JUMPI POP PUSH4 0xFFFFFFFF DUP4 AND ISZERO JUMPDEST ISZERO PUSH2 0xAEC JUMPI PUSH2 0xAE5 DUP3 PUSH2 0xBB8 PUSH2 0xE32 JUMP JUMPDEST SWAP1 POP PUSH2 0xB1A JUMP JUMPDEST PUSH4 0xFFFFFFFF DUP5 AND ISZERO DUP1 ISZERO PUSH2 0xB06 JUMPI POP DUP3 PUSH4 0xFFFFFFFF AND PUSH1 0x1 EQ JUMPDEST ISZERO PUSH2 0xB17 JUMPI PUSH2 0xAE5 PUSH2 0xBB8 DUP4 PUSH2 0xE49 JUMP JUMPDEST POP DUP1 JUMPDEST SWAP4 SWAP3 POP POP POP JUMP JUMPDEST DUP1 CALLDATALOAD PUSH4 0xFFFFFFFF DUP2 AND DUP2 EQ PUSH2 0xB35 JUMPI PUSH1 0x0 DUP1 REVERT JUMPDEST SWAP2 SWAP1 POP JUMP JUMPDEST PUSH1 0x0 DUP1 PUSH1 0x0 PUSH1 0x60 DUP5 DUP7 SUB SLT ISZERO PUSH2 0xB4F JUMPI PUSH1 0x0 DUP1 REVERT JUMPDEST DUP4 CALLDATALOAD SWAP3 POP PUSH2 0xB5F PUSH1 0x20 DUP6 ADD PUSH2 0xB21 JUMP JUMPDEST SWAP2 POP PUSH1 0x40 DUP5 ADD CALLDATALOAD SWAP1 POP SWAP3 POP SWAP3 POP SWAP3 JUMP JUMPDEST PUSH1 0x0 PUSH1 0x20 DUP3 DUP5 SUB SLT ISZERO PUSH2 0xB81 JUMPI PUSH1 0x0 DUP1 REVERT JUMPDEST POP CALLDATALOAD SWAP2 SWAP1 POP JUMP JUMPDEST PUSH1 0x0 DUP1 PUSH1 0x40 DUP4 DUP6 SUB SLT ISZERO PUSH2 0xB9B JUMPI PUSH1 0x0 DUP1 REVERT JUMPDEST DUP3 CALLDATALOAD SWAP2 POP PUSH2 0xBAB PUSH1 0x20 DUP5 ADD PUSH2 0xB21 JUMP JUMPDEST SWAP1 POP SWAP3 POP SWAP3 SWAP1 POP JUMP JUMPDEST PUSH1 0x0 DUP1 DUP4 PUSH1 0x1F DUP5 ADD SLT PUSH2 0xBC6 JUMPI PUSH1 0x0 DUP1 REVERT JUMPDEST POP DUP2 CALLDATALOAD PUSH8 0xFFFFFFFFFFFFFFFF DUP2 GT ISZERO PUSH2 0xBDE JUMPI PUSH1 0x0 DUP1 REVERT JUMPDEST PUSH1 0x20 DUP4 ADD SWAP2 POP DUP4 PUSH1 0x20 DUP3 DUP6 ADD ADD GT ISZERO PUSH2 0xBF6 JUMPI PUSH1 0x0 DUP1 REVERT JUMPDEST SWAP3 POP SWAP3 SWAP1 POP JUMP JUMPDEST PUSH1 0x0 DUP1 PUSH1 0x0 DUP1 PUSH1 0x40 DUP6 DUP8 SUB SLT ISZERO PUSH2 0xC13 JUMPI PUSH1 0x0 DUP1 REVERT JUMPDEST DUP5 CALLDATALOAD PUSH8 0xFFFFFFFFFFFFFFFF DUP1 DUP3 GT ISZERO PUSH2 0xC2B JUMPI PUSH1 0x0 DUP1 REVERT JUMPDEST PUSH2 0xC37 DUP9 DUP4 DUP10 ADD PUSH2 0xBB4 JUMP JUMPDEST SWAP1 SWAP7 POP SWAP5 POP PUSH1 0x20 DUP8 ADD CALLDATALOAD SWAP2 POP DUP1 DUP3 GT ISZERO PUSH2 0xC50 JUMPI PUSH1 0x0 DUP1 REVERT JUMPDEST POP PUSH2 0xC5D DUP8 DUP3 DUP9 ADD PUSH2 0xBB4 JUMP JUMPDEST SWAP6 SWAP9 SWAP5 SWAP8 POP SWAP6 POP POP POP POP JUMP JUMPDEST DUP1 CALLDATALOAD PUSH1 0x1 PUSH1 0x1 PUSH1 0xA0 SHL SUB DUP2 AND DUP2 EQ PUSH2 0xB35 JUMPI PUSH1 0x0 DUP1 REVERT JUMPDEST PUSH1 0x0 PUSH1 0x20 DUP3 DUP5 SUB SLT ISZERO PUSH2 0xC92 JUMPI PUSH1 0x0 DUP1 REVERT JUMPDEST PUSH2 0xB1A DUP3 PUSH2 0xC69 JUMP JUMPDEST PUSH1 0x0 PUSH1 0x20 DUP3 DUP5 SUB SLT ISZERO PUSH2 0xCAD JUMPI PUSH1 0x0 DUP1 REVERT JUMPDEST DUP2 MLOAD DUP1 ISZERO ISZERO DUP2 EQ PUSH2 0xB1A JUMPI PUSH1 0x0 DUP1 REVERT JUMPDEST PUSH1 0x0 PUSH1 0x20 DUP3 DUP5 SUB SLT ISZERO PUSH2 0xCCF JUMPI PUSH1 0x0 DUP1 REVERT JUMPDEST POP MLOAD SWAP2 SWAP1 POP JUMP JUMPDEST PUSH1 0x0 PUSH1 0xE0 DUP3 DUP5 SUB SLT ISZERO PUSH2 0xCE8 JUMPI PUSH1 0x0 DUP1 REVERT JUMPDEST PUSH1 0x40 MLOAD PUSH1 0xE0 DUP2 ADD DUP2 DUP2 LT PUSH8 0xFFFFFFFFFFFFFFFF DUP3 GT OR ISZERO PUSH2 0xD19 JUMPI PUSH4 0x4E487B71 PUSH1 0xE0 SHL PUSH1 0x0 MSTORE PUSH1 0x41 PUSH1 0x4 MSTORE PUSH1 0x24 PUSH1 0x0 REVERT JUMPDEST PUSH1 0x40 MSTORE DUP3 CALLDATALOAD DUP2 MSTORE PUSH2 0xD2C PUSH1 0x20 DUP5 ADD PUSH2 0xC69 JUMP JUMPDEST PUSH1 0x20 DUP3 ADD MSTORE PUSH2 0xD3D PUSH1 0x40 DUP5 ADD PUSH2 0xB21 JUMP JUMPDEST PUSH1 0x40 DUP3 ADD MSTORE PUSH2 0xD4E PUSH1 0x60 DUP5 ADD PUSH2 0xB21 JUMP JUMPDEST PUSH1 0x60 DUP3 ADD MSTORE PUSH1 0x80 DUP4 ADD CALLDATALOAD PUSH1 0x80 DUP3 ADD MSTORE PUSH1 0xA0 DUP4 ADD CALLDATALOAD PUSH1 0xA0 DUP3 ADD MSTORE PUSH1 0xC0 DUP4 ADD CALLDATALOAD PUSH1 0xC0 DUP3 ADD MSTORE DUP1 SWAP2 POP POP SWAP3 SWAP2 POP POP JUMP JUMPDEST DUP2 DUP4 MSTORE DUP2 DUP2 PUSH1 0x20 DUP6 ADD CALLDATACOPY POP PUSH1 0x0 DUP3 DUP3 ADD PUSH1 0x20 SWAP1 DUP2 ADD SWAP2 SWAP1 SWAP2 MSTORE PUSH1 0x1F SWAP1 SWAP2 ADD PUSH1 0x1F NOT AND SWAP1 SWAP2 ADD ADD SWAP1 JUMP JUMPDEST DUP6 DUP2 MSTORE PUSH1 0x60 PUSH1 0x20 DUP3 ADD MSTORE PUSH1 0x0 PUSH2 0xDBE PUSH1 0x60 DUP4 ADD DUP7 DUP9 PUSH2 0xD7B JUMP JUMPDEST DUP3 DUP2 SUB PUSH1 0x40 DUP5 ADD MSTORE PUSH2 0xDD1 DUP2 DUP6 DUP8 PUSH2 0xD7B JUMP JUMPDEST SWAP9 SWAP8 POP POP POP POP POP POP POP POP JUMP JUMPDEST PUSH4 0x4E487B71 PUSH1 0xE0 SHL PUSH1 0x0 MSTORE PUSH1 0x11 PUSH1 0x4 MSTORE PUSH1 0x24 PUSH1 0x0 REVERT JUMPDEST DUP2 DUP2 SUB DUP2 DUP2 GT ISZERO PUSH2 0x42E JUMPI PUSH2 0x42E PUSH2 0xDDD JUMP JUMPDEST DUP1 DUP3 ADD DUP1 DUP3 GT ISZERO PUSH2 0x42E JUMPI PUSH2 0x42E PUSH2 0xDDD JUMP JUMPDEST PUSH1 0x0 PUSH1 0x1 DUP3 ADD PUSH2 0xE2B JUMPI PUSH2 0xE2B PUSH2 0xDDD JUMP JUMPDEST POP PUSH1 0x1 ADD SWAP1 JUMP JUMPDEST DUP1 DUP3 MUL DUP2 ISZERO DUP3 DUP3 DIV DUP5 EQ OR PUSH2 0x42E JUMPI PUSH2 0x42E PUSH2 0xDDD JUMP JUMPDEST PUSH1 0x0 DUP3 PUSH2 0xE66 JUMPI PUSH4 0x4E487B71 PUSH1 0xE0 SHL PUSH1 0x0 MSTORE PUSH1 0x12 PUSH1 0x4 MSTORE PUSH1 0x24 PUSH1 0x0 REVERT JUMPDEST POP DIV SWAP1 JUMP INVALID LOG2 PUSH5 0x6970667358 0x22 SLT KECCAK256 0xB3 0x2F SWAP10 DUP11 JUMPDEST SWAP1 SWAP5 RETURNDATASIZE ADDMOD PUSH27 0x996E04832F853B4366C2F8547C4E236BBB8C0EBE05FE64736F6C63 NUMBER STOP ADDMOD EQ STOP CALLER "},"methodIdentifiers":{"commitmentBalances(bytes32,uint32)":"59c55de4","depositContract()":"e94ad65b","emergencyWithdraw()":"db2e21bc","getCommitmentBalance(bytes32,uint32)":"6fea68cd","getMerkleRoot()":"49590657","initializeCommitmentBalance(bytes32,uint32,uint256)":"26c67d81","isCommitmentValid(bytes32)":"42ffdb99","owner()":"8da5cb5b","privateEVMTrade(bytes,bytes)":"9247a8b6","sp1Verifier()":"52a07fa3","tradeCounter()":"660d15b5","transferOwnership(address)":"f2fde38b","usedCommitments(bytes32)":"91402039"}}}}}