{
  "_format": "hh-sol-artifact-1",
  "contractName": "HyperliquidPrivacySystemV4",
  "sourceName": "contracts/HyperliquidPrivacySystemV4.sol",
  "abi": [
    {
      "inputs": [
        {
          "internalType": "address",
          "name": "_sp1Verifier",
          "type": "address"
        },
        {
          "internalType": "address",
          "name": "_complianceAuthority",
          "type": "address"
        }
      ],
      "stateMutability": "nonpayable",
      "type": "constructor"
    },
    {
      "anonymous": false,
      "inputs": [
        {
          "indexed": true,
          "internalType": "address",
          "name": "newAuthority",
          "type": "address"
        }
      ],
      "name": "ComplianceAuthorityUpdated",
      "type": "event"
    },
    {
      "anonymous": false,
      "inputs": [
        {
          "indexed": true,
          "internalType": "bytes32",
          "name": "commitment",
          "type": "bytes32"
        },
        {
          "indexed": false,
          "internalType": "uint256",
          "name": "timestamp",
          "type": "uint256"
        }
      ],
      "name": "PrivateDeposit",
      "type": "event"
    },
    {
      "anonymous": false,
      "inputs": [
        {
          "indexed": true,
          "internalType": "bytes32",
          "name": "commitment",
          "type": "bytes32"
        },
        {
          "indexed": false,
          "internalType": "uint256",
          "name": "timestamp",
          "type": "uint256"
        }
      ],
      "name": "PrivateTrade",
      "type": "event"
    },
    {
      "anonymous": false,
      "inputs": [
        {
          "indexed": true,
          "internalType": "bytes32",
          "name": "nullifier",
          "type": "bytes32"
        },
        {
          "indexed": false,
          "internalType": "uint256",
          "name": "timestamp",
          "type": "uint256"
        }
      ],
      "name": "PrivateWithdraw",
      "type": "event"
    },
    {
      "inputs": [
        {
          "internalType": "bytes32",
          "name": "",
          "type": "bytes32"
        }
      ],
      "name": "commitmentIndex",
      "outputs": [
        {
          "internalType": "uint256",
          "name": "",
          "type": "uint256"
        }
      ],
      "stateMutability": "view",
      "type": "function"
    },
    {
      "inputs": [
        {
          "internalType": "uint256",
          "name": "",
          "type": "uint256"
        }
      ],
      "name": "commitmentMerkleTree",
      "outputs": [
        {
          "internalType": "bytes32",
          "name": "",
          "type": "bytes32"
        }
      ],
      "stateMutability": "view",
      "type": "function"
    },
    {
      "inputs": [
        {
          "internalType": "bytes32",
          "name": "",
          "type": "bytes32"
        }
      ],
      "name": "commitments",
      "outputs": [
        {
          "internalType": "bool",
          "name": "",
          "type": "bool"
        }
      ],
      "stateMutability": "view",
      "type": "function"
    },
    {
      "inputs": [],
      "name": "complianceAuthority",
      "outputs": [
        {
          "internalType": "address",
          "name": "",
          "type": "address"
        }
      ],
      "stateMutability": "view",
      "type": "function"
    },
    {
      "inputs": [
        {
          "internalType": "bytes32",
          "name": "commitment",
          "type": "bytes32"
        },
        {
          "internalType": "uint64",
          "name": "token",
          "type": "uint64"
        },
        {
          "internalType": "uint64",
          "name": "amount",
          "type": "uint64"
        },
        {
          "internalType": "bytes",
          "name": "complianceProof",
          "type": "bytes"
        },
        {
          "internalType": "bytes",
          "name": "publicValues",
          "type": "bytes"
        }
      ],
      "name": "deposit",
      "outputs": [],
      "stateMutability": "nonpayable",
      "type": "function"
    },
    {
      "inputs": [
        {
          "internalType": "uint64",
          "name": "token",
          "type": "uint64"
        },
        {
          "internalType": "uint64",
          "name": "amount",
          "type": "uint64"
        },
        {
          "internalType": "address",
          "name": "recipient",
          "type": "address"
        }
      ],
      "name": "emergencyWithdraw",
      "outputs": [],
      "stateMutability": "nonpayable",
      "type": "function"
    },
    {
      "inputs": [],
      "name": "getMerkleRoot",
      "outputs": [
        {
          "internalType": "bytes32",
          "name": "",
          "type": "bytes32"
        }
      ],
      "stateMutability": "view",
      "type": "function"
    },
    {
      "inputs": [
        {
          "internalType": "bytes32",
          "name": "",
          "type": "bytes32"
        }
      ],
      "name": "nullifiers",
      "outputs": [
        {
          "internalType": "bool",
          "name": "",
          "type": "bool"
        }
      ],
      "stateMutability": "view",
      "type": "function"
    },
    {
      "inputs": [
        {
          "internalType": "bytes32",
          "name": "commitment",
          "type": "bytes32"
        },
        {
          "internalType": "bytes",
          "name": "ownershipProof",
          "type": "bytes"
        },
        {
          "internalType": "bytes",
          "name": "ownershipPublicValues",
          "type": "bytes"
        },
        {
          "internalType": "uint32",
          "name": "asset",
          "type": "uint32"
        },
        {
          "internalType": "bool",
          "name": "isBuy",
          "type": "bool"
        },
        {
          "internalType": "uint64",
          "name": "limitPx",
          "type": "uint64"
        },
        {
          "internalType": "uint64",
          "name": "sz",
          "type": "uint64"
        }
      ],
      "name": "privatePerpsPosition",
      "outputs": [],
      "stateMutability": "nonpayable",
      "type": "function"
    },
    {
      "inputs": [
        {
          "internalType": "bytes",
          "name": "tradeProof",
          "type": "bytes"
        },
        {
          "internalType": "bytes",
          "name": "publicValues",
          "type": "bytes"
        }
      ],
      "name": "privateSpotTrade",
      "outputs": [],
      "stateMutability": "nonpayable",
      "type": "function"
    },
    {
      "inputs": [],
      "name": "sp1Verifier",
      "outputs": [
        {
          "internalType": "contract ISP1Verifier",
          "name": "",
          "type": "address"
        }
      ],
      "stateMutability": "view",
      "type": "function"
    },
    {
      "inputs": [
        {
          "internalType": "address",
          "name": "newAuthority",
          "type": "address"
        }
      ],
      "name": "updateComplianceAuthority",
      "outputs": [],
      "stateMutability": "nonpayable",
      "type": "function"
    },
    {
      "inputs": [
        {
          "internalType": "bytes32",
          "name": "nullifier",
          "type": "bytes32"
        },
        {
          "internalType": "address",
          "name": "recipient",
          "type": "address"
        },
        {
          "internalType": "uint64",
          "name": "token",
          "type": "uint64"
        },
        {
          "internalType": "uint64",
          "name": "amount",
          "type": "uint64"
        },
        {
          "internalType": "bytes",
          "name": "balanceProof",
          "type": "bytes"
        },
        {
          "internalType": "bytes",
          "name": "publicValues",
          "type": "bytes"
        }
      ],
      "name": "withdraw",
      "outputs": [],
      "stateMutability": "nonpayable",
      "type": "function"
    }
  ],
  "bytecode": "0x60a060405234801561001057600080fd5b50604051620017fb380380620017fb83398101604081905261003191610075565b6001600160a01b03918216608052600380546001600160a01b031916919092161790556100a8565b80516001600160a01b038116811461007057600080fd5b919050565b6000806040838503121561008857600080fd5b61009183610059565b915061009f60208401610059565b90509250929050565b60805161171b620000e0600039600081816101870152818161047e0152818161078e01528181610a830152610e3a015261171b6000f3fe608060405234801561001057600080fd5b50600436106100cf5760003560e01c80636f3bcf671161008c578063ca29a40511610066578063ca29a405146101f2578063d4a82dc514610205578063dac90aeb14610218578063e5ea7be21461022b57600080fd5b80636f3bcf67146101a9578063839df945146101bc578063b54fcff9146101df57600080fd5b8063012d09b5146100d457806318afae2c146101075780632997e86b1461011c578063309f477a1461014f578063495906571461017a57806352a07fa314610182575b600080fd5b6100f46100e2366004611031565b60056020526000908152604090205481565b6040519081526020015b60405180910390f35b61011a61011536600461107d565b61023e565b005b61013f61012a366004611031565b60026020526000908152604090205460ff1681565b60405190151581526020016100fe565b600354610162906001600160a01b031681565b6040516001600160a01b0390911681526020016100fe565b6100f461030b565b6101627f000000000000000000000000000000000000000000000000000000000000000081565b61011a6101b7366004611108565b6103b8565b61013f6101ca366004611031565b60016020526000908152604090205460ff1681565b61011a6101ed3660046111d3565b610699565b61011a61020036600461123e565b610916565b6100f4610213366004611031565b610c97565b61011a6102263660046112d8565b610cb8565b61011a610239366004611382565b610f91565b6003546001600160a01b031633146102995760405162461bcd60e51b81526020600482015260196024820152784f6e6c7920636f6d706c69616e636520617574686f7269747960381b60448201526064015b60405180910390fd5b604051630b0ac0ab60e01b815273333333333333333333333333333333333333333390630b0ac0ab906102d4908490879087906004016113a4565b600060405180830381600087803b1580156102ee57600080fd5b505af1158015610302573d6000803e3d6000fd5b50505050505050565b600454600090810361031d5750600090565b60006004600081548110610333576103336113ce565b600091825260209091200154905060015b6004548110156103b2578160048281548110610362576103626113ce565b9060005260206000200154604051602001610387929190918252602082015260400190565b60405160208183030381529060405280519060200120915080806103aa906113fa565b915050610344565b50919050565b60006103c686880188611449565b80519091508a1461040f5760405162461bcd60e51b8152602060048201526013602482015272086dedadad2e8dacadce840dad2e6dac2e8c6d606b1b6044820152606401610290565b60008a81526020819052604090206002015460ff166104675760405162461bcd60e51b815260206004820152601460248201527315985d5b1d08191bd95cc81b9bdd08195e1a5cdd60621b6044820152606401610290565b60405163020a49e360e51b81526001600160a01b037f000000000000000000000000000000000000000000000000000000000000000016906341493c60906104da907e6bf06179a19e1575731cbb10c5b9cc955cae6f0a5de98cf8baf3c7c416131a908b908b908f908f906004016114ce565b60006040518083038186803b1580156104f257600080fd5b505afa158015610506573d6000803e3d6000fd5b5050604051634e4719ab60e01b815263ffffffff8816600482015286151560248201526001600160401b038087166044830152851660648201527333333333333333333333333333333333333333339250634e4719ab9150608401600060405180830381600087803b15801561057b57600080fd5b505af115801561058f573d6000803e3d6000fd5b5050505083156105f85760008a81526020818152604080832063ffffffff89168452600101909152812080548492906105cc90849060070b611507565b92506101000a8154816001600160401b03021916908360070b6001600160401b03160217905550610653565b60008a81526020818152604080832063ffffffff891684526001019091528120805484929061062b90849060070b61153c565b92506101000a8154816001600160401b03021916908360070b6001600160401b031602179055505b897f8f3dba1073f4b750e9392983cbbdd0d9b7e8380008bdda0e7683e3c3aa5c51894260405161068591815260200190565b60405180910390a250505050505050505050565b60006106a78284018461156b565b805160009081526020819052604090206002015490915060ff166107045760405162461bcd60e51b815260206004820152601460248201527315985d5b1d08191bd95cc81b9bdd08195e1a5cdd60621b6044820152606401610290565b60608101518151600090815260208181526040808320828601516001600160401b0390811685529252909120541610156107775760405162461bcd60e51b8152602060048201526014602482015273496e73756666696369656e742062616c616e636560601b6044820152606401610290565b60405163020a49e360e51b81526001600160a01b037f000000000000000000000000000000000000000000000000000000000000000016906341493c60906107ea907e8484840d42565b9589f5c37253789d3731407964b1537fb5cf9d6064226b1c90879087908b908b906004016114ce565b60006040518083038186803b15801561080257600080fd5b505afa158015610816573d6000803e3d6000fd5b50505060608201518251600090815260208181526040808320828701516001600160401b03908116855292528220805493945092610856918591166115f4565b82546101009290920a6001600160401b03818102199093169183160217909155608083015183516000908152602081815260408083208188015186168452909152812080549294509290916108ad9185911661161b565b92506101000a8154816001600160401b0302191690836001600160401b0316021790555080600001517f8f3dba1073f4b750e9392983cbbdd0d9b7e8380008bdda0e7683e3c3aa5c51894260405161090791815260200190565b60405180910390a25050505050565b60008781526001602052604090205460ff16156109755760405162461bcd60e51b815260206004820152601760248201527f436f6d6d69746d656e7420616c726561647920757365640000000000000000006044820152606401610290565b60006109838284018461163b565b805190915088146109cc5760405162461bcd60e51b8152602060048201526013602482015272086dedadad2e8dacadce840dad2e6dac2e8c6d606b1b6044820152606401610290565b60035460208201516001600160a01b03908116911614610a225760405162461bcd60e51b8152602060048201526011602482015270496e76616c696420617574686f7269747960781b6044820152606401610290565b4281604001511015610a6c5760405162461bcd60e51b815260206004820152601360248201527210d95c9d1a599a58d85d1948195e1c1a5c9959606a1b6044820152606401610290565b60405163020a49e360e51b81526001600160a01b037f000000000000000000000000000000000000000000000000000000000000000016906341493c6090610adf907eed1611619b8f2866de7be17d81a9d42a869b4c5959629708f125ae34a2f9ee90879087908b908b906004016114ce565b60006040518083038186803b158015610af757600080fd5b505afa158015610b0b573d6000803e3d6000fd5b5050604051630b0ac0ab60e01b81527333333333333333333333333333333333333333339250630b0ac0ab9150610b4a9030908b908b906004016113a4565b600060405180830381600087803b158015610b6457600080fd5b505af1158015610b78573d6000803e3d6000fd5b5050506000898152600160208181526040808420805460ff19169093179092558281528183206001600160401b03808d168552915290822080548a9450909291610bc49185911661161b565b82546001600160401b039182166101009390930a9283029190920219909116179055506000888152602081905260408120600201805460ff19166001908117909155600480548083018255928190527f8a35acfbc15ff81a39ae7d344fd709f28e8600b4aa8c65c6b64bfe7fe36bd19b9092018a90559054610c469190611688565b600089815260056020908152604091829020929092555142815289917f02d0beb141922199e99106aa1e9e523add96e905baf9299bfb1042acd145bf5c910160405180910390a25050505050505050565b60048181548110610ca757600080fd5b600091825260209091200154905081565b60008881526002602052604090205460ff1615610d105760405162461bcd60e51b8152602060048201526016602482015275139d5b1b1a599a595c88185b1c9958591e481d5cd95960521b6044820152606401610290565b6000610d1e8284018461169b565b9050610d2861030b565b816020015114610d705760405162461bcd60e51b8152602060048201526013602482015272125b9d985b1a59081b595c9adb19481c9bdbdd606a1b6044820152606401610290565b856001600160401b031681604001511015610dcd5760405162461bcd60e51b815260206004820152601b60248201527f496e73756666696369656e742070726f76656e2062616c616e636500000000006044820152606401610290565b866001600160401b031681606001516001600160401b031614610e235760405162461bcd60e51b815260206004820152600e60248201526d082e6e6cae840dad2e6dac2e8c6d60931b6044820152606401610290565b60405163020a49e360e51b81526001600160a01b037f000000000000000000000000000000000000000000000000000000000000000016906341493c6090610e96907e9c22b4f95fb710070dc80cfce7526c4cc7780834ab328bd769ff58934e6d0590879087908b908b906004016114ce565b60006040518083038186803b158015610eae57600080fd5b505afa158015610ec2573d6000803e3d6000fd5b50505060008a81526002602052604090819020805460ff1916600117905551630b0ac0ab60e01b81527333333333333333333333333333333333333333339150630b0ac0ab90610f1a908b908b908b906004016113a4565b600060405180830381600087803b158015610f3457600080fd5b505af1158015610f48573d6000803e3d6000fd5b50505050887fcc9580996e4c53ac7e73439f181e208ab15831ea2d2429dd12ee742c1c475b6f42604051610f7e91815260200190565b60405180910390a2505050505050505050565b6003546001600160a01b03163314610fe75760405162461bcd60e51b81526020600482015260196024820152784f6e6c7920636f6d706c69616e636520617574686f7269747960381b6044820152606401610290565b600380546001600160a01b0319166001600160a01b0383169081179091556040517f829c4ef70a1fb0edb9daa0db5c77d61190e746db94bce7dc78fee99d04fb409990600090a250565b60006020828403121561104357600080fd5b5035919050565b80356001600160401b038116811461106157600080fd5b919050565b80356001600160a01b038116811461106157600080fd5b60008060006060848603121561109257600080fd5b61109b8461104a565b92506110a96020850161104a565b91506110b760408501611066565b90509250925092565b60008083601f8401126110d257600080fd5b5081356001600160401b038111156110e957600080fd5b60208301915083602082850101111561110157600080fd5b9250929050565b600080600080600080600080600060e08a8c03121561112657600080fd5b8935985060208a01356001600160401b038082111561114457600080fd5b6111508d838e016110c0565b909a50985060408c013591508082111561116957600080fd5b506111768c828d016110c0565b90975095505060608a013563ffffffff8116811461119357600080fd5b935060808a013580151581146111a857600080fd5b92506111b660a08b0161104a565b91506111c460c08b0161104a565b90509295985092959850929598565b600080600080604085870312156111e957600080fd5b84356001600160401b038082111561120057600080fd5b61120c888389016110c0565b9096509450602087013591508082111561122557600080fd5b50611232878288016110c0565b95989497509550505050565b600080600080600080600060a0888a03121561125957600080fd5b873596506112696020890161104a565b95506112776040890161104a565b945060608801356001600160401b038082111561129357600080fd5b61129f8b838c016110c0565b909650945060808a01359150808211156112b857600080fd5b506112c58a828b016110c0565b989b979a50959850939692959293505050565b60008060008060008060008060c0898b0312156112f457600080fd5b8835975061130460208a01611066565b965061131260408a0161104a565b955061132060608a0161104a565b945060808901356001600160401b038082111561133c57600080fd5b6113488c838d016110c0565b909650945060a08b013591508082111561136157600080fd5b5061136e8b828c016110c0565b999c989b5096995094979396929594505050565b60006020828403121561139457600080fd5b61139d82611066565b9392505050565b6001600160a01b039390931683526001600160401b03918216602084015216604082015260600190565b634e487b7160e01b600052603260045260246000fd5b634e487b7160e01b600052601160045260246000fd5b60006001820161140c5761140c6113e4565b5060010190565b604051608081016001600160401b038111828210171561144357634e487b7160e01b600052604160045260246000fd5b60405290565b60006040828403121561145b57600080fd5b604051604081018181106001600160401b038211171561148b57634e487b7160e01b600052604160045260246000fd5b604052823581526020928301359281019290925250919050565b81835281816020850137506000828201602090810191909152601f909101601f19169091010190565b8581526060602082015260006114e86060830186886114a5565b82810360408401526114fb8185876114a5565b98975050505050505050565b600781810b9083900b01677fffffffffffffff8113677fffffffffffffff1982121715611536576115366113e4565b92915050565b600782810b9082900b03677fffffffffffffff198112677fffffffffffffff82131715611536576115366113e4565b600060a0828403121561157d57600080fd5b60405160a081018181106001600160401b03821117156115ad57634e487b7160e01b600052604160045260246000fd5b604052823581526115c06020840161104a565b60208201526115d16040840161104a565b604082015260608301356060820152608083013560808201528091505092915050565b6001600160401b03828116828216039080821115611614576116146113e4565b5092915050565b6001600160401b03818116838216019080821115611614576116146113e4565b60006080828403121561164d57600080fd5b611655611413565b8235815261166560208401611066565b602082015260408301356040820152606083013560608201528091505092915050565b81810381811115611536576115366113e4565b6000608082840312156116ad57600080fd5b6116b5611413565b8235815260208301356020820152604083013560408201526116d96060840161104a565b6060820152939250505056fea264697066735822122030692fdba08930d917a2ed26322593fe5e27af70a3c7164a126c73b1473f822f64736f6c63430008130033",
  "linkReferences": {},
  "deployedLinkReferences": {}
}