{
  "_format": "hh-sol-artifact-1",
  "contractName": "HyperliquidPrivacySystemV5",
  "sourceName": "contracts/HyperliquidPrivacySystemV5.sol",
  "abi": [
    {
      "inputs": [
        {
          "internalType": "address",
          "name": "_sp1Verifier",
          "type": "address"
        },
        {
          "internalType": "address",
          "name": "_complianceAuthority",
          "type": "address"
        }
      ],
      "stateMutability": "nonpayable",
      "type": "constructor"
    },
    {
      "anonymous": false,
      "inputs": [
        {
          "indexed": true,
          "internalType": "address",
          "name": "newAuthority",
          "type": "address"
        }
      ],
      "name": "ComplianceAuthorityUpdated",
      "type": "event"
    },
    {
      "anonymous": false,
      "inputs": [
        {
          "indexed": true,
          "internalType": "address",
          "name": "user",
          "type": "address"
        },
        {
          "indexed": false,
          "internalType": "uint64",
          "name": "token",
          "type": "uint64"
        },
        {
          "indexed": false,
          "internalType": "uint64",
          "name": "amount",
          "type": "uint64"
        }
      ],
      "name": "DepositPrepared",
      "type": "event"
    },
    {
      "anonymous": false,
      "inputs": [
        {
          "indexed": true,
          "internalType": "bytes32",
          "name": "commitment",
          "type": "bytes32"
        },
        {
          "indexed": false,
          "internalType": "uint256",
          "name": "timestamp",
          "type": "uint256"
        }
      ],
      "name": "PrivateDeposit",
      "type": "event"
    },
    {
      "anonymous": false,
      "inputs": [
        {
          "indexed": true,
          "internalType": "bytes32",
          "name": "commitment",
          "type": "bytes32"
        },
        {
          "indexed": false,
          "internalType": "uint256",
          "name": "timestamp",
          "type": "uint256"
        }
      ],
      "name": "PrivateTrade",
      "type": "event"
    },
    {
      "anonymous": false,
      "inputs": [
        {
          "indexed": true,
          "internalType": "bytes32",
          "name": "nullifier",
          "type": "bytes32"
        },
        {
          "indexed": false,
          "internalType": "uint256",
          "name": "timestamp",
          "type": "uint256"
        }
      ],
      "name": "PrivateWithdraw",
      "type": "event"
    },
    {
      "inputs": [
        {
          "internalType": "address",
          "name": "user",
          "type": "address"
        }
      ],
      "name": "canCompleteDeposit",
      "outputs": [
        {
          "internalType": "bool",
          "name": "",
          "type": "bool"
        }
      ],
      "stateMutability": "view",
      "type": "function"
    },
    {
      "inputs": [
        {
          "internalType": "bytes32",
          "name": "",
          "type": "bytes32"
        }
      ],
      "name": "commitmentIndex",
      "outputs": [
        {
          "internalType": "uint256",
          "name": "",
          "type": "uint256"
        }
      ],
      "stateMutability": "view",
      "type": "function"
    },
    {
      "inputs": [
        {
          "internalType": "uint256",
          "name": "",
          "type": "uint256"
        }
      ],
      "name": "commitmentMerkleTree",
      "outputs": [
        {
          "internalType": "bytes32",
          "name": "",
          "type": "bytes32"
        }
      ],
      "stateMutability": "view",
      "type": "function"
    },
    {
      "inputs": [
        {
          "internalType": "bytes32",
          "name": "",
          "type": "bytes32"
        }
      ],
      "name": "commitments",
      "outputs": [
        {
          "internalType": "bool",
          "name": "",
          "type": "bool"
        }
      ],
      "stateMutability": "view",
      "type": "function"
    },
    {
      "inputs": [
        {
          "internalType": "bytes32",
          "name": "commitment",
          "type": "bytes32"
        },
        {
          "internalType": "bytes",
          "name": "complianceProof",
          "type": "bytes"
        },
        {
          "internalType": "bytes",
          "name": "publicValues",
          "type": "bytes"
        }
      ],
      "name": "completeDeposit",
      "outputs": [],
      "stateMutability": "nonpayable",
      "type": "function"
    },
    {
      "inputs": [],
      "name": "complianceAuthority",
      "outputs": [
        {
          "internalType": "address",
          "name": "",
          "type": "address"
        }
      ],
      "stateMutability": "view",
      "type": "function"
    },
    {
      "inputs": [
        {
          "internalType": "bytes32",
          "name": "commitment",
          "type": "bytes32"
        },
        {
          "internalType": "uint64",
          "name": "token",
          "type": "uint64"
        },
        {
          "internalType": "uint64",
          "name": "amount",
          "type": "uint64"
        },
        {
          "internalType": "bytes",
          "name": "complianceProof",
          "type": "bytes"
        },
        {
          "internalType": "bytes",
          "name": "publicValues",
          "type": "bytes"
        }
      ],
      "name": "deposit",
      "outputs": [],
      "stateMutability": "nonpayable",
      "type": "function"
    },
    {
      "inputs": [
        {
          "internalType": "uint64",
          "name": "token",
          "type": "uint64"
        },
        {
          "internalType": "uint64",
          "name": "amount",
          "type": "uint64"
        },
        {
          "internalType": "address",
          "name": "recipient",
          "type": "address"
        }
      ],
      "name": "emergencyWithdraw",
      "outputs": [],
      "stateMutability": "nonpayable",
      "type": "function"
    },
    {
      "inputs": [],
      "name": "getMerkleRoot",
      "outputs": [
        {
          "internalType": "bytes32",
          "name": "",
          "type": "bytes32"
        }
      ],
      "stateMutability": "view",
      "type": "function"
    },
    {
      "inputs": [
        {
          "internalType": "address",
          "name": "user",
          "type": "address"
        },
        {
          "internalType": "uint64",
          "name": "token",
          "type": "uint64"
        }
      ],
      "name": "getUserSpotBalance",
      "outputs": [
        {
          "internalType": "uint64",
          "name": "",
          "type": "uint64"
        }
      ],
      "stateMutability": "view",
      "type": "function"
    },
    {
      "inputs": [
        {
          "internalType": "bytes32",
          "name": "",
          "type": "bytes32"
        }
      ],
      "name": "nullifiers",
      "outputs": [
        {
          "internalType": "bool",
          "name": "",
          "type": "bool"
        }
      ],
      "stateMutability": "view",
      "type": "function"
    },
    {
      "inputs": [
        {
          "internalType": "address",
          "name": "",
          "type": "address"
        }
      ],
      "name": "pendingDeposits",
      "outputs": [
        {
          "internalType": "uint64",
          "name": "token",
          "type": "uint64"
        },
        {
          "internalType": "uint64",
          "name": "amount",
          "type": "uint64"
        },
        {
          "internalType": "uint64",
          "name": "contractBalanceBefore",
          "type": "uint64"
        },
        {
          "internalType": "uint256",
          "name": "timestamp",
          "type": "uint256"
        },
        {
          "internalType": "bool",
          "name": "completed",
          "type": "bool"
        }
      ],
      "stateMutability": "view",
      "type": "function"
    },
    {
      "inputs": [
        {
          "internalType": "uint64",
          "name": "token",
          "type": "uint64"
        },
        {
          "internalType": "uint64",
          "name": "amount",
          "type": "uint64"
        }
      ],
      "name": "prepareDeposit",
      "outputs": [],
      "stateMutability": "nonpayable",
      "type": "function"
    },
    {
      "inputs": [
        {
          "internalType": "bytes32",
          "name": "commitment",
          "type": "bytes32"
        },
        {
          "internalType": "bytes",
          "name": "ownershipProof",
          "type": "bytes"
        },
        {
          "internalType": "bytes",
          "name": "ownershipPublicValues",
          "type": "bytes"
        },
        {
          "internalType": "uint32",
          "name": "asset",
          "type": "uint32"
        },
        {
          "internalType": "bool",
          "name": "isBuy",
          "type": "bool"
        },
        {
          "internalType": "uint64",
          "name": "limitPx",
          "type": "uint64"
        },
        {
          "internalType": "uint64",
          "name": "sz",
          "type": "uint64"
        }
      ],
      "name": "privatePerpsPosition",
      "outputs": [],
      "stateMutability": "nonpayable",
      "type": "function"
    },
    {
      "inputs": [
        {
          "internalType": "bytes",
          "name": "tradeProof",
          "type": "bytes"
        },
        {
          "internalType": "bytes",
          "name": "publicValues",
          "type": "bytes"
        }
      ],
      "name": "privateSpotTrade",
      "outputs": [],
      "stateMutability": "nonpayable",
      "type": "function"
    },
    {
      "inputs": [],
      "name": "sp1Verifier",
      "outputs": [
        {
          "internalType": "contract ISP1Verifier",
          "name": "",
          "type": "address"
        }
      ],
      "stateMutability": "view",
      "type": "function"
    },
    {
      "inputs": [
        {
          "internalType": "uint64",
          "name": "token",
          "type": "uint64"
        },
        {
          "internalType": "uint64",
          "name": "amount",
          "type": "uint64"
        }
      ],
      "name": "transferToContract",
      "outputs": [],
      "stateMutability": "nonpayable",
      "type": "function"
    },
    {
      "inputs": [
        {
          "internalType": "address",
          "name": "newAuthority",
          "type": "address"
        }
      ],
      "name": "updateComplianceAuthority",
      "outputs": [],
      "stateMutability": "nonpayable",
      "type": "function"
    },
    {
      "inputs": [
        {
          "internalType": "bytes32",
          "name": "nullifier",
          "type": "bytes32"
        },
        {
          "internalType": "address",
          "name": "recipient",
          "type": "address"
        },
        {
          "internalType": "uint64",
          "name": "token",
          "type": "uint64"
        },
        {
          "internalType": "uint64",
          "name": "amount",
          "type": "uint64"
        },
        {
          "internalType": "bytes",
          "name": "balanceProof",
          "type": "bytes"
        },
        {
          "internalType": "bytes",
          "name": "publicValues",
          "type": "bytes"
        }
      ],
      "name": "withdraw",
      "outputs": [],
      "stateMutability": "nonpayable",
      "type": "function"
    }
  ],
  "bytecode": "0x60a06040523480156200001157600080fd5b50604051620022313803806200223183398101604081905262000034916200007a565b6001600160a01b03918216608052600380546001600160a01b03191691909216179055620000b2565b80516001600160a01b03811681146200007557600080fd5b919050565b600080604083850312156200008e57600080fd5b62000099836200005d565b9150620000a9602084016200005d565b90509250929050565b608051612147620000ea600039600081816101d90152818161079b01528181610c0c015281816112a6015261161001526121476000f3fe608060405234801561001057600080fd5b50600436106101215760003560e01c8063839df945116100ad578063d4a82dc511610071578063d4a82dc5146102a3578063dac90aeb146102b6578063e5ea7be2146102c9578063eb3349b9146102dc578063fdb87ec71461036557600080fd5b8063839df9451461023457806394137c9014610257578063b54fcff91461026a578063ca29a4051461027d578063d43ffa2f1461029057600080fd5b806349590657116100f457806349590657146101cc57806352a07fa3146101d45780635eda69b1146101fb5780636f3bcf671461020e5780637318754d1461022157600080fd5b8063012d09b51461012657806318afae2c146101595780632997e86b1461016e578063309f477a146101a1575b600080fd5b6101466101343660046118b7565b60056020526000908152604090205481565b6040519081526020015b60405180910390f35b61016c61016736600461190f565b610390565b005b61019161017c3660046118b7565b60026020526000908152604090205460ff1681565b6040519015158152602001610150565b6003546101b4906001600160a01b031681565b6040516001600160a01b039091168152602001610150565b61014661045d565b6101b47f000000000000000000000000000000000000000000000000000000000000000081565b61016c610209366004611956565b61050a565b61016c61021c3660046119d7565b6106d5565b61016c61022f366004611956565b6109b6565b6101916102423660046118b7565b60016020526000908152604090205460ff1681565b610191610265366004611aa2565b610a27565b61016c610278366004611ac4565b610b17565b61016c61028b366004611b2f565b610d94565b61016c61029e366004611bcd565b610f74565b6101466102b13660046118b7565b61146d565b61016c6102c4366004611c46565b61148e565b61016c6102d7366004611aa2565b611754565b61032c6102ea366004611aa2565b6006602052600090815260409020805460018201546002909201546001600160401b0380831693600160401b8404821693600160801b90049091169160ff1685565b604080516001600160401b039687168152948616602086015292909416918301919091526060820152901515608082015260a001610150565b610378610373366004611cf4565b6117f4565b6040516001600160401b039091168152602001610150565b6003546001600160a01b031633146103eb5760405162461bcd60e51b81526020600482015260196024820152784f6e6c7920636f6d706c69616e636520617574686f7269747960381b60448201526064015b60405180910390fd5b604051630b0ac0ab60e01b815273333333333333333333333333333333333333333390630b0ac0ab9061042690849087908790600401611d10565b600060405180830381600087803b15801561044057600080fd5b505af1158015610454573d6000803e3d6000fd5b50505050505050565b600454600090810361046f5750600090565b6000600460008154811061048557610485611d3a565b600091825260209091200154905060015b6004548110156105045781600482815481106104b4576104b4611d3a565b90600052602060002001546040516020016104d9929190918252602082015260400190565b60405160208183030381529060405280519060200120915080806104fc90611d66565b915050610496565b50919050565b6000816001600160401b0316116105635760405162461bcd60e51b815260206004820152601d60248201527f416d6f756e74206d7573742062652067726561746572207468616e203000000060448201526064016103e2565b600061056f33846117f4565b9050816001600160401b0316816001600160401b031610156105d35760405162461bcd60e51b815260206004820152601960248201527f496e73756666696369656e742073706f742062616c616e63650000000000000060448201526064016103e2565b60006105df30856117f4565b6040805160a0810182526001600160401b03878116808352878216602080850182815287851686880190815242606088019081526000608089018181523380835260068752918b902099518a54955194518a16600160801b0267ffffffffffffffff60801b19958b16600160401b026fffffffffffffffffffffffffffffffff1990971691909a1617949094179290921696909617875594516001870155516002909501805495151560ff19909616959095179094558451918252928101929092529293507fac44786729a70fd941b7584083b7454cfc1720db49dd28841b8caec86f6adb25910160405180910390a250505050565b60006106e386880188611db5565b80519091508a1461072c5760405162461bcd60e51b8152602060048201526013602482015272086dedadad2e8dacadce840dad2e6dac2e8c6d606b1b60448201526064016103e2565b60008a81526020819052604090206002015460ff166107845760405162461bcd60e51b815260206004820152601460248201527315985d5b1d08191bd95cc81b9bdd08195e1a5cdd60621b60448201526064016103e2565b60405163020a49e360e51b81526001600160a01b037f000000000000000000000000000000000000000000000000000000000000000016906341493c60906107f7907e6bf06179a19e1575731cbb10c5b9cc955cae6f0a5de98cf8baf3c7c416131a908b908b908f908f90600401611e3a565b60006040518083038186803b15801561080f57600080fd5b505afa158015610823573d6000803e3d6000fd5b5050604051634e4719ab60e01b815263ffffffff8816600482015286151560248201526001600160401b038087166044830152851660648201527333333333333333333333333333333333333333339250634e4719ab9150608401600060405180830381600087803b15801561089857600080fd5b505af11580156108ac573d6000803e3d6000fd5b5050505083156109155760008a81526020818152604080832063ffffffff89168452600101909152812080548492906108e990849060070b611e73565b92506101000a8154816001600160401b03021916908360070b6001600160401b03160217905550610970565b60008a81526020818152604080832063ffffffff891684526001019091528120805484929061094890849060070b611ea2565b92506101000a8154816001600160401b03021916908360070b6001600160401b031602179055505b897f8f3dba1073f4b750e9392983cbbdd0d9b7e8380008bdda0e7683e3c3aa5c5189426040516109a291815260200190565b60405180910390a250505050505050505050565b604051630b0ac0ab60e01b815273333333333333333333333333333333333333333390630b0ac0ab906109f190309086908690600401611d10565b600060405180830381600087803b158015610a0b57600080fd5b505af1158015610a1f573d6000803e3d6000fd5b505050505050565b6001600160a01b0381166000908152600660209081526040808320815160a08101835281546001600160401b038082168352600160401b82048116958301869052600160801b9091041692810192909252600181015460608301526002015460ff1615156080820152901580610a9e575080608001515b15610aac5750600092915050565b6060810151610abd90610e10611ed1565b421115610acd5750600092915050565b6000610add3083600001516117f4565b90506000826040015182610af19190611ee4565b905082602001516001600160401b0316816001600160401b031610159350505050919050565b6000610b2582840184611f0b565b805160009081526020819052604090206002015490915060ff16610b825760405162461bcd60e51b815260206004820152601460248201527315985d5b1d08191bd95cc81b9bdd08195e1a5cdd60621b60448201526064016103e2565b60608101518151600090815260208181526040808320828601516001600160401b039081168552925290912054161015610bf55760405162461bcd60e51b8152602060048201526014602482015273496e73756666696369656e742062616c616e636560601b60448201526064016103e2565b60405163020a49e360e51b81526001600160a01b037f000000000000000000000000000000000000000000000000000000000000000016906341493c6090610c68907e8484840d42565b9589f5c37253789d3731407964b1537fb5cf9d6064226b1c90879087908b908b90600401611e3a565b60006040518083038186803b158015610c8057600080fd5b505afa158015610c94573d6000803e3d6000fd5b50505060608201518251600090815260208181526040808320828701516001600160401b03908116855292528220805493945092610cd491859116611ee4565b82546101009290920a6001600160401b0381810219909316918316021790915560808301518351600090815260208181526040808320818801518616845290915281208054929450929091610d2b91859116611f97565b92506101000a8154816001600160401b0302191690836001600160401b0316021790555080600001517f8f3dba1073f4b750e9392983cbbdd0d9b7e8380008bdda0e7683e3c3aa5c518942604051610d8591815260200190565b60405180910390a25050505050565b60008781526001602052604090205460ff1615610ded5760405162461bcd60e51b815260206004820152601760248201527610dbdb5b5a5d1b595b9d08185b1c9958591e481d5cd959604a1b60448201526064016103e2565b604051630b0ac0ab60e01b815273333333333333333333333333333333333333333390630b0ac0ab90610e289030908a908a90600401611d10565b600060405180830381600087803b158015610e4257600080fd5b505af1158015610e56573d6000803e3d6000fd5b5050506000888152600160208181526040808420805460ff19169093179092558281528183206001600160401b03808c16855291529082208054899450909291610ea291859116611f97565b82546001600160401b039182166101009390930a9283029190920219909116179055506000878152602081905260408120600201805460ff19166001908117909155600480548083018255928190527f8a35acfbc15ff81a39ae7d344fd709f28e8600b4aa8c65c6b64bfe7fe36bd19b9092018990559054610f249190611fb7565b600088815260056020908152604091829020929092555142815288917f02d0beb141922199e99106aa1e9e523add96e905baf9299bfb1042acd145bf5c910160405180910390a250505050505050565b60008581526001602052604090205460ff1615610fcd5760405162461bcd60e51b815260206004820152601760248201527610dbdb5b5a5d1b595b9d08185b1c9958591e481d5cd959604a1b60448201526064016103e2565b33600090815260066020908152604091829020825160a08101845281546001600160401b038082168352600160401b82048116948301859052600160801b9091041693810193909352600181015460608401526002015460ff161515608083015261106f5760405162461bcd60e51b8152602060048201526012602482015271139bc81c195b991a5b99c819195c1bdcda5d60721b60448201526064016103e2565b8060800151156110c15760405162461bcd60e51b815260206004820152601960248201527f4465706f73697420616c726561647920636f6d706c657465640000000000000060448201526064016103e2565b60608101516110d290610e10611ed1565b4211156111135760405162461bcd60e51b815260206004820152600f60248201526e11195c1bdcda5d08195e1c1a5c9959608a1b60448201526064016103e2565b60006111233083600001516117f4565b905060008260400151826111379190611ee4565b905082602001516001600160401b0316816001600160401b031610156111985760405162461bcd60e51b8152602060048201526016602482015275151bdad95b9cc81b9bdd081d1c985b9cd9995c9c995960521b60448201526064016103e2565b60006111a685870187611fca565b805190915089146111ef5760405162461bcd60e51b8152602060048201526013602482015272086dedadad2e8dacadce840dad2e6dac2e8c6d606b1b60448201526064016103e2565b60035460208201516001600160a01b039081169116146112455760405162461bcd60e51b8152602060048201526011602482015270496e76616c696420617574686f7269747960781b60448201526064016103e2565b428160400151101561128f5760405162461bcd60e51b815260206004820152601360248201527210d95c9d1a599a58d85d1948195e1c1a5c9959606a1b60448201526064016103e2565b60405163020a49e360e51b81526001600160a01b037f000000000000000000000000000000000000000000000000000000000000000016906341493c6090611302907eed1611619b8f2866de7be17d81a9d42a869b4c5959629708f125ae34a2f9ee908a908a908e908e90600401611e3a565b60006040518083038186803b15801561131a57600080fd5b505afa15801561132e573d6000803e3d6000fd5b50503360009081526006602090815260408083206002018054600160ff1991821681179092558f855281845282852080549091169091179055888201518383528184208a516001600160401b03908116865293529083208054919550935061139891859116611f97565b82546001600160401b039182166101009390930a9283029190920219909116179055506000898152602081905260408120600201805460ff19166001908117909155600480548083018255928190527f8a35acfbc15ff81a39ae7d344fd709f28e8600b4aa8c65c6b64bfe7fe36bd19b9092018b9055905461141a9190611fb7565b60008a81526005602090815260409182902092909255514281528a917f02d0beb141922199e99106aa1e9e523add96e905baf9299bfb1042acd145bf5c91015b60405180910390a2505050505050505050565b6004818154811061147d57600080fd5b600091825260209091200154905081565b60008881526002602052604090205460ff16156114e65760405162461bcd60e51b8152602060048201526016602482015275139d5b1b1a599a595c88185b1c9958591e481d5cd95960521b60448201526064016103e2565b60006114f482840184612017565b90506114fe61045d565b8160200151146115465760405162461bcd60e51b8152602060048201526013602482015272125b9d985b1a59081b595c9adb19481c9bdbdd606a1b60448201526064016103e2565b856001600160401b0316816040015110156115a35760405162461bcd60e51b815260206004820152601b60248201527f496e73756666696369656e742070726f76656e2062616c616e6365000000000060448201526064016103e2565b866001600160401b031681606001516001600160401b0316146115f95760405162461bcd60e51b815260206004820152600e60248201526d082e6e6cae840dad2e6dac2e8c6d60931b60448201526064016103e2565b60405163020a49e360e51b81526001600160a01b037f000000000000000000000000000000000000000000000000000000000000000016906341493c609061166c907e9c22b4f95fb710070dc80cfce7526c4cc7780834ab328bd769ff58934e6d0590879087908b908b90600401611e3a565b60006040518083038186803b15801561168457600080fd5b505afa158015611698573d6000803e3d6000fd5b50505060008a81526002602052604090819020805460ff1916600117905551630b0ac0ab60e01b81527333333333333333333333333333333333333333339150630b0ac0ab906116f0908b908b908b90600401611d10565b600060405180830381600087803b15801561170a57600080fd5b505af115801561171e573d6000803e3d6000fd5b50505050887fcc9580996e4c53ac7e73439f181e208ab15831ea2d2429dd12ee742c1c475b6f4260405161145a91815260200190565b6003546001600160a01b031633146117aa5760405162461bcd60e51b81526020600482015260196024820152784f6e6c7920636f6d706c69616e636520617574686f7269747960381b60448201526064016103e2565b600380546001600160a01b0319166001600160a01b0383169081179091556040517f829c4ef70a1fb0edb9daa0db5c77d61190e746db94bce7dc78fee99d04fb409990600090a250565b604080516001600160a01b03841660208201526001600160401b03831681830152815180820383018152606090910191829052600091829081906108019061183d908590612063565b600060405180830381855afa9150503d8060008114611878576040519150601f19603f3d011682016040523d82523d6000602084013e61187d565b606091505b50915091508161189357600093505050506118b1565b6000818060200190518101906118a99190612092565b519450505050505b92915050565b6000602082840312156118c957600080fd5b5035919050565b6001600160401b03811681146118e557600080fd5b50565b80356118f3816118d0565b919050565b80356001600160a01b03811681146118f357600080fd5b60008060006060848603121561192457600080fd5b833561192f816118d0565b9250602084013561193f816118d0565b915061194d604085016118f8565b90509250925092565b6000806040838503121561196957600080fd5b8235611974816118d0565b91506020830135611984816118d0565b809150509250929050565b60008083601f8401126119a157600080fd5b5081356001600160401b038111156119b857600080fd5b6020830191508360208285010111156119d057600080fd5b9250929050565b600080600080600080600080600060e08a8c0312156119f557600080fd5b8935985060208a01356001600160401b0380821115611a1357600080fd5b611a1f8d838e0161198f565b909a50985060408c0135915080821115611a3857600080fd5b50611a458c828d0161198f565b90975095505060608a013563ffffffff81168114611a6257600080fd5b935060808a01358015158114611a7757600080fd5b9250611a8560a08b016118e8565b9150611a9360c08b016118e8565b90509295985092959850929598565b600060208284031215611ab457600080fd5b611abd826118f8565b9392505050565b60008060008060408587031215611ada57600080fd5b84356001600160401b0380821115611af157600080fd5b611afd8883890161198f565b90965094506020870135915080821115611b1657600080fd5b50611b238782880161198f565b95989497509550505050565b600080600080600080600060a0888a031215611b4a57600080fd5b873596506020880135611b5c816118d0565b95506040880135611b6c816118d0565b945060608801356001600160401b0380821115611b8857600080fd5b611b948b838c0161198f565b909650945060808a0135915080821115611bad57600080fd5b50611bba8a828b0161198f565b989b979a50959850939692959293505050565b600080600080600060608688031215611be557600080fd5b8535945060208601356001600160401b0380821115611c0357600080fd5b611c0f89838a0161198f565b90965094506040880135915080821115611c2857600080fd5b50611c358882890161198f565b969995985093965092949392505050565b60008060008060008060008060c0898b031215611c6257600080fd5b88359750611c7260208a016118f8565b96506040890135611c82816118d0565b95506060890135611c92816118d0565b945060808901356001600160401b0380821115611cae57600080fd5b611cba8c838d0161198f565b909650945060a08b0135915080821115611cd357600080fd5b50611ce08b828c0161198f565b999c989b5096995094979396929594505050565b60008060408385031215611d0757600080fd5b611974836118f8565b6001600160a01b039390931683526001600160401b03918216602084015216604082015260600190565b634e487b7160e01b600052603260045260246000fd5b634e487b7160e01b600052601160045260246000fd5b600060018201611d7857611d78611d50565b5060010190565b604051608081016001600160401b0381118282101715611daf57634e487b7160e01b600052604160045260246000fd5b60405290565b600060408284031215611dc757600080fd5b604051604081018181106001600160401b0382111715611df757634e487b7160e01b600052604160045260246000fd5b604052823581526020928301359281019290925250919050565b81835281816020850137506000828201602090810191909152601f909101601f19169091010190565b858152606060208201526000611e54606083018688611e11565b8281036040840152611e67818587611e11565b98975050505050505050565b600781810b9083900b01677fffffffffffffff8113677fffffffffffffff19821217156118b1576118b1611d50565b600782810b9082900b03677fffffffffffffff198112677fffffffffffffff821317156118b1576118b1611d50565b808201808211156118b1576118b1611d50565b6001600160401b03828116828216039080821115611f0457611f04611d50565b5092915050565b600060a08284031215611f1d57600080fd5b60405160a081018181106001600160401b0382111715611f4d57634e487b7160e01b600052604160045260246000fd5b604052823581526020830135611f62816118d0565b60208201526040830135611f75816118d0565b6040820152606083810135908201526080928301359281019290925250919050565b6001600160401b03818116838216019080821115611f0457611f04611d50565b818103818111156118b1576118b1611d50565b600060808284031215611fdc57600080fd5b611fe4611d7f565b82358152611ff4602084016118f8565b602082015260408301356040820152606083013560608201528091505092915050565b60006080828403121561202957600080fd5b612031611d7f565b8235815260208301356020820152604083013560408201526060830135612057816118d0565b60608201529392505050565b6000825160005b81811015612084576020818601810151858301520161206a565b506000920191825250919050565b6000606082840312156120a457600080fd5b604051606081018181106001600160401b03821117156120d457634e487b7160e01b600052604160045260246000fd5b60405282516120e2816118d0565b815260208301516120f2816118d0565b60208201526040830151612105816118d0565b6040820152939250505056fea26469706673582212204c41e79f9d85787c5fcc15b1b73afa6c82be79047feb73e4dad2b293fc27fc3964736f6c63430008130033",
  "linkReferences": {},
  "deployedLinkReferences": {}
}