{
  "_format": "hh-sol-artifact-1",
  "contractName": "HyperliquidPrivacySystem",
  "sourceName": "contracts/HyperliquidPrivacySystem.sol",
  "abi": [
    {
      "inputs": [
        {
          "internalType": "address",
          "name": "_complianceAuthority",
          "type": "address"
        }
      ],
      "stateMutability": "nonpayable",
      "type": "constructor"
    },
    {
      "anonymous": false,
      "inputs": [
        {
          "indexed": true,
          "internalType": "address",
          "name": "user",
          "type": "address"
        },
        {
          "indexed": false,
          "internalType": "bool",
          "name": "isValid",
          "type": "bool"
        }
      ],
      "name": "CertificateValidated",
      "type": "event"
    },
    {
      "anonymous": false,
      "inputs": [
        {
          "indexed": true,
          "internalType": "address",
          "name": "newAuthority",
          "type": "address"
        }
      ],
      "name": "ComplianceAuthorityUpdated",
      "type": "event"
    },
    {
      "anonymous": false,
      "inputs": [
        {
          "indexed": true,
          "internalType": "bytes32",
          "name": "commitment",
          "type": "bytes32"
        },
        {
          "indexed": false,
          "internalType": "uint256",
          "name": "timestamp",
          "type": "uint256"
        }
      ],
      "name": "PrivateDeposit",
      "type": "event"
    },
    {
      "anonymous": false,
      "inputs": [
        {
          "indexed": true,
          "internalType": "bytes32",
          "name": "commitment",
          "type": "bytes32"
        },
        {
          "indexed": false,
          "internalType": "uint256",
          "name": "timestamp",
          "type": "uint256"
        }
      ],
      "name": "PrivateTrade",
      "type": "event"
    },
    {
      "anonymous": false,
      "inputs": [
        {
          "indexed": true,
          "internalType": "bytes32",
          "name": "nullifier",
          "type": "bytes32"
        },
        {
          "indexed": false,
          "internalType": "uint256",
          "name": "timestamp",
          "type": "uint256"
        }
      ],
      "name": "PrivateWithdraw",
      "type": "event"
    },
    {
      "inputs": [
        {
          "internalType": "bytes32",
          "name": "",
          "type": "bytes32"
        }
      ],
      "name": "commitmentIndex",
      "outputs": [
        {
          "internalType": "uint256",
          "name": "",
          "type": "uint256"
        }
      ],
      "stateMutability": "view",
      "type": "function"
    },
    {
      "inputs": [
        {
          "internalType": "uint256",
          "name": "",
          "type": "uint256"
        }
      ],
      "name": "commitmentMerkleTree",
      "outputs": [
        {
          "internalType": "bytes32",
          "name": "",
          "type": "bytes32"
        }
      ],
      "stateMutability": "view",
      "type": "function"
    },
    {
      "inputs": [
        {
          "internalType": "bytes32",
          "name": "",
          "type": "bytes32"
        }
      ],
      "name": "commitments",
      "outputs": [
        {
          "internalType": "bool",
          "name": "",
          "type": "bool"
        }
      ],
      "stateMutability": "view",
      "type": "function"
    },
    {
      "inputs": [],
      "name": "complianceAuthority",
      "outputs": [
        {
          "internalType": "address",
          "name": "",
          "type": "address"
        }
      ],
      "stateMutability": "view",
      "type": "function"
    },
    {
      "inputs": [
        {
          "internalType": "bytes32",
          "name": "commitment",
          "type": "bytes32"
        },
        {
          "internalType": "uint256",
          "name": "asset",
          "type": "uint256"
        },
        {
          "internalType": "uint256",
          "name": "amount",
          "type": "uint256"
        },
        {
          "internalType": "bytes",
          "name": "certificate",
          "type": "bytes"
        },
        {
          "internalType": "bytes",
          "name": "signature",
          "type": "bytes"
        }
      ],
      "name": "deposit",
      "outputs": [],
      "stateMutability": "nonpayable",
      "type": "function"
    },
    {
      "inputs": [
        {
          "internalType": "uint256",
          "name": "asset",
          "type": "uint256"
        },
        {
          "internalType": "uint256",
          "name": "amount",
          "type": "uint256"
        },
        {
          "internalType": "address",
          "name": "recipient",
          "type": "address"
        }
      ],
      "name": "emergencyWithdraw",
      "outputs": [],
      "stateMutability": "nonpayable",
      "type": "function"
    },
    {
      "inputs": [],
      "name": "getMerkleRoot",
      "outputs": [
        {
          "internalType": "bytes32",
          "name": "",
          "type": "bytes32"
        }
      ],
      "stateMutability": "view",
      "type": "function"
    },
    {
      "inputs": [
        {
          "internalType": "bytes32",
          "name": "commitment",
          "type": "bytes32"
        }
      ],
      "name": "getPrivatePortfolioHealth",
      "outputs": [
        {
          "internalType": "uint256",
          "name": "",
          "type": "uint256"
        }
      ],
      "stateMutability": "view",
      "type": "function"
    },
    {
      "inputs": [
        {
          "internalType": "bytes32",
          "name": "",
          "type": "bytes32"
        }
      ],
      "name": "nullifiers",
      "outputs": [
        {
          "internalType": "bool",
          "name": "",
          "type": "bool"
        }
      ],
      "stateMutability": "view",
      "type": "function"
    },
    {
      "inputs": [
        {
          "internalType": "bytes32",
          "name": "commitment",
          "type": "bytes32"
        },
        {
          "internalType": "bytes",
          "name": "proof",
          "type": "bytes"
        },
        {
          "internalType": "uint256",
          "name": "asset",
          "type": "uint256"
        },
        {
          "internalType": "int256",
          "name": "sizeChange",
          "type": "int256"
        },
        {
          "internalType": "uint256",
          "name": "maxSlippage",
          "type": "uint256"
        }
      ],
      "name": "privatePerpsPosition",
      "outputs": [],
      "stateMutability": "nonpayable",
      "type": "function"
    },
    {
      "inputs": [
        {
          "internalType": "bytes32",
          "name": "commitment",
          "type": "bytes32"
        },
        {
          "internalType": "bytes",
          "name": "proof",
          "type": "bytes"
        },
        {
          "internalType": "uint256",
          "name": "fromAsset",
          "type": "uint256"
        },
        {
          "internalType": "uint256",
          "name": "toAsset",
          "type": "uint256"
        },
        {
          "internalType": "uint256",
          "name": "amount",
          "type": "uint256"
        },
        {
          "internalType": "uint256",
          "name": "minReceived",
          "type": "uint256"
        }
      ],
      "name": "privateSpotTrade",
      "outputs": [],
      "stateMutability": "nonpayable",
      "type": "function"
    },
    {
      "inputs": [
        {
          "internalType": "address",
          "name": "newAuthority",
          "type": "address"
        }
      ],
      "name": "updateComplianceAuthority",
      "outputs": [],
      "stateMutability": "nonpayable",
      "type": "function"
    },
    {
      "inputs": [
        {
          "internalType": "address",
          "name": "",
          "type": "address"
        }
      ],
      "name": "validCertificates",
      "outputs": [
        {
          "internalType": "bool",
          "name": "",
          "type": "bool"
        }
      ],
      "stateMutability": "view",
      "type": "function"
    },
    {
      "inputs": [
        {
          "internalType": "address",
          "name": "user",
          "type": "address"
        },
        {
          "internalType": "bytes",
          "name": "certificate",
          "type": "bytes"
        },
        {
          "internalType": "bytes",
          "name": "signature",
          "type": "bytes"
        }
      ],
      "name": "validateCertificate",
      "outputs": [],
      "stateMutability": "nonpayable",
      "type": "function"
    },
    {
      "inputs": [
        {
          "internalType": "bytes32",
          "name": "nullifier",
          "type": "bytes32"
        },
        {
          "internalType": "address",
          "name": "recipient",
          "type": "address"
        },
        {
          "internalType": "uint256",
          "name": "asset",
          "type": "uint256"
        },
        {
          "internalType": "uint256",
          "name": "amount",
          "type": "uint256"
        },
        {
          "internalType": "bytes",
          "name": "proof",
          "type": "bytes"
        }
      ],
      "name": "withdraw",
      "outputs": [],
      "stateMutability": "nonpayable",
      "type": "function"
    }
  ],
  "bytecode": "0x608060405234801561001057600080fd5b5060405161138f38038061138f83398101604081905261002f91610054565b600480546001600160a01b0319166001600160a01b0392909216919091179055610084565b60006020828403121561006657600080fd5b81516001600160a01b038116811461007d57600080fd5b9392505050565b6112fc806100936000396000f3fe608060405234801561001057600080fd5b50600436106100f55760003560e01c8063839df94511610097578063a474542f11610066578063a474542f1461023a578063d4a82dc51461024d578063e5ea7be214610260578063f72b2a4c1461027357600080fd5b8063839df945146101ce5780638f0ca81a146101f1578063984c3e5614610204578063a3278f791461021757600080fd5b80632997e86b116100d35780632997e86b14610155578063309f477a146101885780633382c1b2146101b357806349590657146101c657600080fd5b8063012d09b5146100fa5780631409f3121461012d57806328fa0a2514610142575b600080fd5b61011a610108366004610e19565b60066020526000908152604090205481565b6040519081526020015b60405180910390f35b61014061013b366004610ed5565b610286565b005b610140610150366004610f37565b6103ec565b610178610163366004610e19565b60026020526000908152604090205460ff1681565b6040519015158152602001610124565b60045461019b906001600160a01b031681565b6040516001600160a01b039091168152602001610124565b6101406101c1366004610fbd565b610789565b61011a6108ff565b6101786101dc366004610e19565b60016020526000908152604090205460ff1681565b61011a6101ff366004610e19565b6109ac565b610140610212366004611028565b6109e6565b61017861022536600461109c565b60036020526000908152604090205460ff1681565b6101406102483660046110b7565b610a6f565b61011a61025b366004610e19565b610c8e565b61014061026e36600461109c565b610caf565b61014061028136600461112b565b610d23565b6102908486610dcd565b6102d15760405162461bcd60e51b815260206004820152600d60248201526c24b73b30b634b210383937b7b360991b60448201526064015b60405180910390fd5b60008581526020819052604090206002015460ff166103025760405162461bcd60e51b81526004016102c890611160565b60405163212a676d60e01b81526004810184905260248101839052600083136044820152606481018290527333333333333333333333333333333333333333339063212a676d90608401600060405180830381600087803b15801561036657600080fd5b505af115801561037a573d6000803e3d6000fd5b505050600086815260208181526040808320878452600101909152812080548593509091906103aa9084906111a4565b909155505060405142815285907f8f3dba1073f4b750e9392983cbbdd0d9b7e8380008bdda0e7683e3c3aa5c5189906020015b60405180910390a25050505050565b6103f68587610dcd565b6104325760405162461bcd60e51b815260206004820152600d60248201526c24b73b30b634b210383937b7b360991b60448201526064016102c8565b60008681526020819052604090206002015460ff166104635760405162461bcd60e51b81526004016102c890611160565b6000868152602081815260408083208784529091529020548211156104c15760405162461bcd60e51b8152602060048201526014602482015273496e73756666696369656e742062616c616e636560601b60448201526064016102c8565b6040516384a07dcb60e01b815260048101859052600090610800906384a07dcb90602401602060405180830381865afa158015610502573d6000803e3d6000fd5b505050506040513d601f19601f8201168201806040525081019061052691906111cc565b6040516384a07dcb60e01b815260048101869052909150600090610800906384a07dcb90602401602060405180830381865afa15801561056a573d6000803e3d6000fd5b505050506040513d601f19601f8201168201806040525081019061058e91906111cc565b905060008161059d84876111e5565b6105a791906111fc565b9050838110156105ed5760405162461bcd60e51b81526020600482015260116024820152700a6d8d2e0e0c2ceca40e8dede40d0d2ced607b1b60448201526064016102c8565b73333333333333333333333333333333333333333363212a676d886106118861121e565b6040516001600160e01b031960e085901b168152600481019290925260248201526000604482018190526064820152608401600060405180830381600087803b15801561065d57600080fd5b505af1158015610671573d6000803e3d6000fd5b505060405163212a676d60e01b815260048101899052602481018490526001604482015260006064820152733333333333333333333333333333333333333333925063212a676d9150608401600060405180830381600087803b1580156106d757600080fd5b505af11580156106eb573d6000803e3d6000fd5b50505060008a8152602081815260408083208b84529091528120805488935090919061071890849061123a565b90915550506000898152602081815260408083208984529091528120805483929061074490849061124d565b909155505060405142815289907f8f3dba1073f4b750e9392983cbbdd0d9b7e8380008bdda0e7683e3c3aa5c51899060200160405180910390a2505050505050505050565b60008581526002602052604090205460ff16156107e15760405162461bcd60e51b8152602060048201526016602482015275139d5b1b1a599a595c88185b1c9958591e481d5cd95960521b60448201526064016102c8565b6107ed81868585610de7565b6108395760405162461bcd60e51b815260206004820152601860248201527f496e76616c6964207769746864726177616c2070726f6f66000000000000000060448201526064016102c8565b60008581526002602052604090819020805460ff191660011790555163cdb0116360e01b815260048101849052602481018390526001600160a01b03851660448201527333333333333333333333333333333333333333339063cdb0116390606401600060405180830381600087803b1580156108b557600080fd5b505af11580156108c9573d6000803e3d6000fd5b50505050847fcc9580996e4c53ac7e73439f181e208ab15831ea2d2429dd12ee742c1c475b6f426040516103dd91815260200190565b60055460009081036109115750600090565b6000600560008154811061092757610927611260565b600091825260209091200154905060015b6005548110156109a657816005828154811061095657610956611260565b906000526020600020015460405160200161097b929190918252602082015260400190565b604051602081830303815290604052805190602001209150808061099e90611276565b915050610938565b50919050565b60008181526020819052604081206002015460ff166109dd5760405162461bcd60e51b81526004016102c890611160565b506103e8919050565b6004546001600160a01b03163314610a105760405162461bcd60e51b81526004016102c89061128f565b6001600160a01b038316600081815260036020908152604091829020805460ff1916600190811790915591519182527f0c1dcc7403a9d518716ddd7c0d97e08e0ce57a8600970f46d6f8500d83b6c5ea910160405180910390a2505050565b3360008181526003602052604090205460ff16610ace5760405162461bcd60e51b815260206004820152601e60248201527f496e76616c696420636f6d706c69616e6365206365727469666963617465000060448201526064016102c8565b60008681526001602052604090205460ff1615610b2d5760405162461bcd60e51b815260206004820152601760248201527f436f6d6d69746d656e7420616c7265616479207573656400000000000000000060448201526064016102c8565b60405163cdb0116360e01b815260048101869052602481018590523060448201527333333333333333333333333333333333333333339063cdb0116390606401600060405180830381600087803b158015610b8757600080fd5b505af1158015610b9b573d6000803e3d6000fd5b5050506000878152600160208181526040808420805460ff1916909317909255828152818320898452905281208054879350909190610bdb90849061124d565b90915550506000868152602081905260408120600201805460ff19166001908117909155600580548083018255928190527f036b6384b5eca791c62761152d0c79bb0604c104a5fb6f4eb0703f3154bb3db09092018890559054610c3f919061123a565b600087815260066020908152604091829020929092555142815287917f02d0beb141922199e99106aa1e9e523add96e905baf9299bfb1042acd145bf5c910160405180910390a2505050505050565b60058181548110610c9e57600080fd5b600091825260209091200154905081565b6004546001600160a01b03163314610cd95760405162461bcd60e51b81526004016102c89061128f565b600480546001600160a01b0319166001600160a01b0383169081179091556040517f829c4ef70a1fb0edb9daa0db5c77d61190e746db94bce7dc78fee99d04fb409990600090a250565b6004546001600160a01b03163314610d4d5760405162461bcd60e51b81526004016102c89061128f565b60405163cdb0116360e01b815260048101849052602481018390526001600160a01b03821660448201527333333333333333333333333333333333333333339063cdb0116390606401600060405180830381600087803b158015610db057600080fd5b505af1158015610dc4573d6000803e3d6000fd5b50505050505050565b6000808351118015610dde57508115155b90505b92915050565b6000808551118015610df857508315155b8015610e045750600083115b8015610e105750600082115b95945050505050565b600060208284031215610e2b57600080fd5b5035919050565b634e487b7160e01b600052604160045260246000fd5b600082601f830112610e5957600080fd5b813567ffffffffffffffff80821115610e7457610e74610e32565b604051601f8301601f19908116603f01168101908282118183101715610e9c57610e9c610e32565b81604052838152866020858801011115610eb557600080fd5b836020870160208301376000602085830101528094505050505092915050565b600080600080600060a08688031215610eed57600080fd5b85359450602086013567ffffffffffffffff811115610f0b57600080fd5b610f1788828901610e48565b959895975050505060408401359360608101359360809091013592509050565b60008060008060008060c08789031215610f5057600080fd5b86359550602087013567ffffffffffffffff811115610f6e57600080fd5b610f7a89828a01610e48565b96999698505050506040850135946060810135946080820135945060a09091013592509050565b80356001600160a01b0381168114610fb857600080fd5b919050565b600080600080600060a08688031215610fd557600080fd5b85359450610fe560208701610fa1565b93506040860135925060608601359150608086013567ffffffffffffffff81111561100f57600080fd5b61101b88828901610e48565b9150509295509295909350565b60008060006060848603121561103d57600080fd5b61104684610fa1565b9250602084013567ffffffffffffffff8082111561106357600080fd5b61106f87838801610e48565b9350604086013591508082111561108557600080fd5b5061109286828701610e48565b9150509250925092565b6000602082840312156110ae57600080fd5b610dde82610fa1565b600080600080600060a086880312156110cf57600080fd5b853594506020860135935060408601359250606086013567ffffffffffffffff808211156110fc57600080fd5b61110889838a01610e48565b9350608088013591508082111561111e57600080fd5b5061101b88828901610e48565b60008060006060848603121561114057600080fd5b833592506020840135915061115760408501610fa1565b90509250925092565b60208082526014908201527315985d5b1d08191bd95cc81b9bdd08195e1a5cdd60621b604082015260600190565b634e487b7160e01b600052601160045260246000fd5b80820182811260008312801582168215821617156111c4576111c461118e565b505092915050565b6000602082840312156111de57600080fd5b5051919050565b8082028115828204841417610de157610de161118e565b60008261121957634e487b7160e01b600052601260045260246000fd5b500490565b6000600160ff1b82016112335761123361118e565b5060000390565b81810381811115610de157610de161118e565b80820180821115610de157610de161118e565b634e487b7160e01b600052603260045260246000fd5b6000600182016112885761128861118e565b5060010190565b60208082526019908201527f4f6e6c7920636f6d706c69616e636520617574686f726974790000000000000060408201526060019056fea2646970667358221220a867fac9fe89b478632804970b1c5f2f119d6aaff62b1ce8623f4ca6d1f288c364736f6c63430008130033",
  "linkReferences": {},
  "deployedLinkReferences": {}
}