{
  "_format": "hh-sol-artifact-1",
  "contractName": "PrivateDEXExtensionSimple",
  "sourceName": "contracts/PrivateDEXExtensionSimple.sol",
  "abi": [
    {
      "inputs": [
        {
          "internalType": "address",
          "name": "_privacySystem",
          "type": "address"
        }
      ],
      "stateMutability": "nonpayable",
      "type": "constructor"
    },
    {
      "inputs": [
        {
          "internalType": "address",
          "name": "token",
          "type": "address"
        }
      ],
      "name": "SafeERC20FailedOperation",
      "type": "error"
    },
    {
      "anonymous": false,
      "inputs": [
        {
          "indexed": true,
          "internalType": "bytes32",
          "name": "nullifier",
          "type": "bytes32"
        },
        {
          "indexed": true,
          "internalType": "bytes32",
          "name": "commitment",
          "type": "bytes32"
        },
        {
          "indexed": false,
          "internalType": "uint64",
          "name": "tokenIn",
          "type": "uint64"
        },
        {
          "indexed": false,
          "internalType": "uint64",
          "name": "tokenOut",
          "type": "uint64"
        },
        {
          "indexed": false,
          "internalType": "uint256",
          "name": "amountIn",
          "type": "uint256"
        },
        {
          "indexed": false,
          "internalType": "uint256",
          "name": "amountOut",
          "type": "uint256"
        }
      ],
      "name": "PrivateSwap",
      "type": "event"
    },
    {
      "inputs": [
        {
          "internalType": "address",
          "name": "_whype",
          "type": "address"
        },
        {
          "internalType": "address",
          "name": "_ubtc",
          "type": "address"
        },
        {
          "internalType": "address",
          "name": "_ueth",
          "type": "address"
        },
        {
          "internalType": "address",
          "name": "_usde",
          "type": "address"
        }
      ],
      "name": "configureTokens",
      "outputs": [],
      "stateMutability": "nonpayable",
      "type": "function"
    },
    {
      "inputs": [],
      "name": "owner",
      "outputs": [
        {
          "internalType": "address",
          "name": "",
          "type": "address"
        }
      ],
      "stateMutability": "view",
      "type": "function"
    },
    {
      "inputs": [],
      "name": "privacySystem",
      "outputs": [
        {
          "internalType": "contract IPrivacySystem",
          "name": "",
          "type": "address"
        }
      ],
      "stateMutability": "view",
      "type": "function"
    },
    {
      "inputs": [
        {
          "internalType": "bytes32",
          "name": "nullifier",
          "type": "bytes32"
        },
        {
          "internalType": "bytes",
          "name": "proof",
          "type": "bytes"
        },
        {
          "internalType": "bytes",
          "name": "publicValues",
          "type": "bytes"
        },
        {
          "internalType": "uint24",
          "name": "fee",
          "type": "uint24"
        }
      ],
      "name": "privateSwap",
      "outputs": [
        {
          "internalType": "uint256",
          "name": "amountOut",
          "type": "uint256"
        }
      ],
      "stateMutability": "nonpayable",
      "type": "function"
    },
    {
      "inputs": [
        {
          "internalType": "address",
          "name": "_swapRouter",
          "type": "address"
        }
      ],
      "name": "setSwapRouter",
      "outputs": [],
      "stateMutability": "nonpayable",
      "type": "function"
    },
    {
      "inputs": [
        {
          "internalType": "bytes32",
          "name": "",
          "type": "bytes32"
        }
      ],
      "name": "swapNullifiers",
      "outputs": [
        {
          "internalType": "bool",
          "name": "",
          "type": "bool"
        }
      ],
      "stateMutability": "view",
      "type": "function"
    },
    {
      "inputs": [],
      "name": "swapRouter",
      "outputs": [
        {
          "internalType": "contract ISwapRouter",
          "name": "",
          "type": "address"
        }
      ],
      "stateMutability": "view",
      "type": "function"
    },
    {
      "inputs": [
        {
          "internalType": "uint64",
          "name": "",
          "type": "uint64"
        }
      ],
      "name": "tokenAddresses",
      "outputs": [
        {
          "internalType": "address",
          "name": "",
          "type": "address"
        }
      ],
      "stateMutability": "view",
      "type": "function"
    },
    {
      "inputs": [
        {
          "internalType": "bytes32",
          "name": "",
          "type": "bytes32"
        },
        {
          "internalType": "uint64",
          "name": "",
          "type": "uint64"
        }
      ],
      "name": "totalSwapped",
      "outputs": [
        {
          "internalType": "uint256",
          "name": "",
          "type": "uint256"
        }
      ],
      "stateMutability": "view",
      "type": "function"
    }
  ],
  "bytecode": "0x60a060405234801561001057600080fd5b506040516110b13803806110b183398101604081905261002f91610052565b6001600160a01b0316608052600180546001600160a01b03191633179055610082565b60006020828403121561006457600080fd5b81516001600160a01b038116811461007b57600080fd5b9392505050565b608051610ff16100c06000396000818161013601528181610437015281816104f2015281816106490152818161084b01526109a30152610ff16000f3fe608060405234801561001057600080fd5b50600436106100935760003560e01c806351a259f31161006657806351a259f3146101315780638da5cb5b14610170578063a8ebbae614610183578063c31c9c0714610196578063ffc21d5e146101a957600080fd5b80630945fd701461009857806341273657146100ad5780634727f606146100c057806349feedd0146100f8575b600080fd5b6100ab6100a6366004610c5a565b6101d2565b005b6100ab6100bb366004610cb6565b6102f4565b6100e36100ce366004610cda565b60036020526000908152604090205460ff1681565b60405190151581526020015b60405180910390f35b610123610106366004610d10565b600460209081526000928352604080842090915290825290205481565b6040519081526020016100ef565b6101587f000000000000000000000000000000000000000000000000000000000000000081565b6040516001600160a01b0390911681526020016100ef565b600154610158906001600160a01b031681565b610123610191366004610d85565b61035d565b600054610158906001600160a01b031681565b6101586101b7366004610e19565b6002602052600090815260409020546001600160a01b031681565b6001546001600160a01b0316331461021e5760405162461bcd60e51b815260206004820152600a60248201526927b7363c9037bbb732b960b11b60448201526064015b60405180910390fd5b60026020527fac33ff75c19e70fe83507db0d683fd3465c996598dc972688b7ace676c89077b80546001600160a01b039586166001600160a01b0319918216179091557fe90b7bceb6e7df5418fb78d8ee546e97c83a08bbccc01a0644d599ccd2a7c2e08054948616948216949094179093557f679795a0195a1b76cdebb7c51d74e058aee92919b8c3389af86ef24535e8a28c80549285169284169290921790915560036000527f88601476d11616a71c5be67555bd1dff4b1cbf21533d2669b768b61518cfe1c38054919093169116179055565b6001546001600160a01b0316331461033b5760405162461bcd60e51b815260206004820152600a60248201526927b7363c9037bbb732b960b11b6044820152606401610215565b600080546001600160a01b0319166001600160a01b0392909216919091179055565b600080546001600160a01b03166103ae5760405162461bcd60e51b8152602060048201526015602482015274149bdd5d195c881b9bdd0818dbdb999a59dd5c9959605a1b6044820152606401610215565b60008781526003602052604090205460ff161561040d5760405162461bcd60e51b815260206004820152601b60248201527f53776170206e756c6c696669657220616c7265616479207573656400000000006044820152606401610215565b600061041b84860186610e34565b805160405163839df94560e01b81529192506001600160a01b037f0000000000000000000000000000000000000000000000000000000000000000169163839df9459161046e9160040190815260200190565b602060405180830381865afa15801561048b573d6000803e3d6000fd5b505050506040513d601f19601f820116820180604052508101906104af9190610ee0565b6104f05760405162461bcd60e51b8152602060048201526012602482015271125b9d985b1a590818dbdb5b5a5d1b595b9d60721b6044820152606401610215565b7f00000000000000000000000000000000000000000000000000000000000000006001600160a01b031663495906576040518163ffffffff1660e01b8152600401602060405180830381865afa15801561054e573d6000803e3d6000fd5b505050506040513d601f19601f820116820180604052508101906105729190610f02565b8160e00151146105ba5760405162461bcd60e51b8152602060048201526013602482015272125b9d985b1a59081b595c9adb19481c9bdbdd606a1b6044820152606401610215565b805160009081526004602090815260408083208185015167ffffffffffffffff16845290915290205460c082015160808301516105f79083610f1b565b11156106455760405162461bcd60e51b815260206004820152601860248201527f45786365656473206465706f736974656420616d6f756e7400000000000000006044820152606401610215565b60007f00000000000000000000000000000000000000000000000000000000000000006001600160a01b03166352a07fa36040518163ffffffff1660e01b8152600401602060405180830381865afa1580156106a5573d6000803e3d6000fd5b505050506040513d601f19601f820116820180604052508101906106c99190610f3c565b60405163020a49e360e51b81529091506001600160a01b038216906341493c609061071f907e8484840d42565b9589f5c37253789d3731407964b1537fb5cf9d6064226b1c908b908b908f908f90600401610f82565b60006040518083038186803b15801561073757600080fd5b505afa15801561074b573d6000803e3d6000fd5b50505060008b8152600360209081526040808320805460ff19166001179055608087015187518452600483528184208883015167ffffffffffffffff1685529092528220805491935091906107a1908490610f1b565b909155505060408084015167ffffffffffffffff90811660009081526002602052828120546060870151909216815291909120546001600160a01b03918216911681158015906107f957506001600160a01b03811615155b6108355760405162461bcd60e51b815260206004820152600d60248201526c24b73b30b634b2103a37b5b2b760991b6044820152606401610215565b6080850151610872906001600160a01b038416907f0000000000000000000000000000000000000000000000000000000000000000903090610a4d565b60005460808601516108919184916001600160a01b0390911690610aba565b60408051610100810182526001600160a01b0384811682528381166020830190815262ffffff8b811684860190815230606086019081524260808088019182528d015160a08089019182528e015160c08901908152600060e08a0181815281549b5163414bf38960e01b81528b518b16600482015298518a1660248a015295519096166044880152925187166064870152905160848601525160a48501525160c484015251831660e483015292939091169063414bf3899083906101040160206040518083038185885af115801561096d573d6000803e3d6000fd5b50505050506040513d601f19601f820116820180604052508101906109929190610f02565b97506109c86001600160a01b0384167f00000000000000000000000000000000000000000000000000000000000000008a610b4a565b86600001518e7f0f4d8f4a9d01f7fbfdec4da17e052db5780ba4be9d71e52e9b80461e36177c4c89604001518a606001518b608001518d604051610a34949392919067ffffffffffffffff94851681529290931660208301526040820152606081019190915260800190565b60405180910390a3505050505050509695505050505050565b6040516001600160a01b038481166024830152838116604483015260648201839052610ab49186918216906323b872dd906084015b604051602081830303815290604052915060e01b6020820180516001600160e01b038381831617835250505050610b80565b50505050565b604080516001600160a01b038416602482015260448082018490528251808303909101815260649091019091526020810180516001600160e01b031663095ea7b360e01b179052610b0b8482610bf1565b610ab4576040516001600160a01b03848116602483015260006044830152610b4091869182169063095ea7b390606401610a82565b610ab48482610b80565b6040516001600160a01b03838116602483015260448201839052610b7b91859182169063a9059cbb90606401610a82565b505050565b600080602060008451602086016000885af180610ba3576040513d6000823e3d81fd5b50506000513d91508115610bbb578060011415610bc8565b6001600160a01b0384163b155b15610ab457604051635274afe760e01b81526001600160a01b0385166004820152602401610215565b6000806000806020600086516020880160008a5af192503d91506000519050828015610c3657508115610c275780600114610c36565b6000866001600160a01b03163b115b93505050505b92915050565b6001600160a01b0381168114610c5757600080fd5b50565b60008060008060808587031215610c7057600080fd5b8435610c7b81610c42565b93506020850135610c8b81610c42565b92506040850135610c9b81610c42565b91506060850135610cab81610c42565b939692955090935050565b600060208284031215610cc857600080fd5b8135610cd381610c42565b9392505050565b600060208284031215610cec57600080fd5b5035919050565b803567ffffffffffffffff81168114610d0b57600080fd5b919050565b60008060408385031215610d2357600080fd5b82359150610d3360208401610cf3565b90509250929050565b60008083601f840112610d4e57600080fd5b50813567ffffffffffffffff811115610d6657600080fd5b602083019150836020828501011115610d7e57600080fd5b9250929050565b60008060008060008060808789031215610d9e57600080fd5b86359550602087013567ffffffffffffffff80821115610dbd57600080fd5b610dc98a838b01610d3c565b90975095506040890135915080821115610de257600080fd5b50610def89828a01610d3c565b909450925050606087013562ffffff81168114610e0b57600080fd5b809150509295509295509295565b600060208284031215610e2b57600080fd5b610cd382610cf3565b6000610100808385031215610e4857600080fd5b6040519081019067ffffffffffffffff82118183101715610e7957634e487b7160e01b600052604160045260246000fd5b816040528335815260208401356020820152610e9760408501610cf3565b6040820152610ea860608501610cf3565b60608201526080840135608082015260a084013560a082015260c084013560c082015260e084013560e0820152809250505092915050565b600060208284031215610ef257600080fd5b81518015158114610cd357600080fd5b600060208284031215610f1457600080fd5b5051919050565b80820180821115610c3c57634e487b7160e01b600052601160045260246000fd5b600060208284031215610f4e57600080fd5b8151610cd381610c42565b81835281816020850137506000828201602090810191909152601f909101601f19169091010190565b858152606060208201526000610f9c606083018688610f59565b8281036040840152610faf818587610f59565b9897505050505050505056fea2646970667358221220932a6b986d24e820f23c076dde5d8239441a2f298438715d2b65f6e89a4828e764736f6c63430008140033",
  "linkReferences": {},
  "deployedLinkReferences": {}
}