{
  "_format": "hh-sol-artifact-1",
  "contractName": "HyperliquidPrivacySystemTest",
  "sourceName": "contracts/HyperliquidPrivacySystemTest.sol",
  "abi": [
    {
      "inputs": [
        {
          "internalType": "address",
          "name": "_sp1Verifier",
          "type": "address"
        },
        {
          "internalType": "address",
          "name": "_complianceAuthority",
          "type": "address"
        }
      ],
      "stateMutability": "nonpayable",
      "type": "constructor"
    },
    {
      "anonymous": false,
      "inputs": [
        {
          "indexed": true,
          "internalType": "address",
          "name": "newAuthority",
          "type": "address"
        }
      ],
      "name": "ComplianceAuthorityUpdated",
      "type": "event"
    },
    {
      "anonymous": false,
      "inputs": [
        {
          "indexed": true,
          "internalType": "address",
          "name": "user",
          "type": "address"
        },
        {
          "indexed": false,
          "internalType": "uint64",
          "name": "token",
          "type": "uint64"
        },
        {
          "indexed": false,
          "internalType": "uint64",
          "name": "amount",
          "type": "uint64"
        }
      ],
      "name": "DepositPrepared",
      "type": "event"
    },
    {
      "anonymous": false,
      "inputs": [
        {
          "indexed": true,
          "internalType": "bytes32",
          "name": "commitment",
          "type": "bytes32"
        },
        {
          "indexed": false,
          "internalType": "uint256",
          "name": "timestamp",
          "type": "uint256"
        }
      ],
      "name": "PrivateDeposit",
      "type": "event"
    },
    {
      "anonymous": false,
      "inputs": [
        {
          "indexed": true,
          "internalType": "bytes32",
          "name": "commitment",
          "type": "bytes32"
        },
        {
          "indexed": false,
          "internalType": "uint256",
          "name": "timestamp",
          "type": "uint256"
        }
      ],
      "name": "PrivateTrade",
      "type": "event"
    },
    {
      "anonymous": false,
      "inputs": [
        {
          "indexed": true,
          "internalType": "bytes32",
          "name": "nullifier",
          "type": "bytes32"
        },
        {
          "indexed": false,
          "internalType": "uint256",
          "name": "timestamp",
          "type": "uint256"
        }
      ],
      "name": "PrivateWithdraw",
      "type": "event"
    },
    {
      "anonymous": false,
      "inputs": [
        {
          "indexed": true,
          "internalType": "bytes32",
          "name": "nullifier",
          "type": "bytes32"
        },
        {
          "indexed": false,
          "internalType": "address",
          "name": "recipient",
          "type": "address"
        },
        {
          "indexed": false,
          "internalType": "uint64",
          "name": "token",
          "type": "uint64"
        },
        {
          "indexed": false,
          "internalType": "uint64",
          "name": "amount",
          "type": "uint64"
        },
        {
          "indexed": false,
          "internalType": "uint256",
          "name": "timestamp",
          "type": "uint256"
        }
      ],
      "name": "TestWithdraw",
      "type": "event"
    },
    {
      "inputs": [
        {
          "internalType": "address",
          "name": "user",
          "type": "address"
        }
      ],
      "name": "canCompleteDeposit",
      "outputs": [
        {
          "internalType": "bool",
          "name": "",
          "type": "bool"
        }
      ],
      "stateMutability": "view",
      "type": "function"
    },
    {
      "inputs": [
        {
          "internalType": "bytes32",
          "name": "",
          "type": "bytes32"
        }
      ],
      "name": "commitmentIndex",
      "outputs": [
        {
          "internalType": "uint256",
          "name": "",
          "type": "uint256"
        }
      ],
      "stateMutability": "view",
      "type": "function"
    },
    {
      "inputs": [
        {
          "internalType": "uint256",
          "name": "",
          "type": "uint256"
        }
      ],
      "name": "commitmentMerkleTree",
      "outputs": [
        {
          "internalType": "bytes32",
          "name": "",
          "type": "bytes32"
        }
      ],
      "stateMutability": "view",
      "type": "function"
    },
    {
      "inputs": [
        {
          "internalType": "bytes32",
          "name": "",
          "type": "bytes32"
        }
      ],
      "name": "commitments",
      "outputs": [
        {
          "internalType": "bool",
          "name": "",
          "type": "bool"
        }
      ],
      "stateMutability": "view",
      "type": "function"
    },
    {
      "inputs": [
        {
          "internalType": "bytes32",
          "name": "commitment",
          "type": "bytes32"
        },
        {
          "internalType": "bytes",
          "name": "complianceProof",
          "type": "bytes"
        },
        {
          "internalType": "bytes",
          "name": "publicValues",
          "type": "bytes"
        }
      ],
      "name": "completeDeposit",
      "outputs": [],
      "stateMutability": "nonpayable",
      "type": "function"
    },
    {
      "inputs": [],
      "name": "complianceAuthority",
      "outputs": [
        {
          "internalType": "address",
          "name": "",
          "type": "address"
        }
      ],
      "stateMutability": "view",
      "type": "function"
    },
    {
      "inputs": [
        {
          "internalType": "bytes32",
          "name": "commitment",
          "type": "bytes32"
        },
        {
          "internalType": "uint64",
          "name": "token",
          "type": "uint64"
        },
        {
          "internalType": "uint64",
          "name": "amount",
          "type": "uint64"
        },
        {
          "internalType": "bytes",
          "name": "complianceProof",
          "type": "bytes"
        },
        {
          "internalType": "bytes",
          "name": "publicValues",
          "type": "bytes"
        }
      ],
      "name": "deposit",
      "outputs": [],
      "stateMutability": "nonpayable",
      "type": "function"
    },
    {
      "inputs": [
        {
          "internalType": "uint64",
          "name": "token",
          "type": "uint64"
        },
        {
          "internalType": "uint64",
          "name": "amount",
          "type": "uint64"
        },
        {
          "internalType": "address",
          "name": "recipient",
          "type": "address"
        }
      ],
      "name": "emergencyWithdraw",
      "outputs": [],
      "stateMutability": "nonpayable",
      "type": "function"
    },
    {
      "inputs": [],
      "name": "getMerkleRoot",
      "outputs": [
        {
          "internalType": "bytes32",
          "name": "",
          "type": "bytes32"
        }
      ],
      "stateMutability": "view",
      "type": "function"
    },
    {
      "inputs": [
        {
          "internalType": "address",
          "name": "user",
          "type": "address"
        },
        {
          "internalType": "uint64",
          "name": "token",
          "type": "uint64"
        }
      ],
      "name": "getUserSpotBalance",
      "outputs": [
        {
          "internalType": "uint64",
          "name": "",
          "type": "uint64"
        }
      ],
      "stateMutability": "view",
      "type": "function"
    },
    {
      "inputs": [
        {
          "internalType": "bytes32",
          "name": "",
          "type": "bytes32"
        }
      ],
      "name": "nullifiers",
      "outputs": [
        {
          "internalType": "bool",
          "name": "",
          "type": "bool"
        }
      ],
      "stateMutability": "view",
      "type": "function"
    },
    {
      "inputs": [
        {
          "internalType": "address",
          "name": "",
          "type": "address"
        }
      ],
      "name": "pendingDeposits",
      "outputs": [
        {
          "internalType": "uint64",
          "name": "token",
          "type": "uint64"
        },
        {
          "internalType": "uint64",
          "name": "amount",
          "type": "uint64"
        },
        {
          "internalType": "uint64",
          "name": "contractBalanceBefore",
          "type": "uint64"
        },
        {
          "internalType": "uint256",
          "name": "timestamp",
          "type": "uint256"
        },
        {
          "internalType": "bool",
          "name": "completed",
          "type": "bool"
        }
      ],
      "stateMutability": "view",
      "type": "function"
    },
    {
      "inputs": [
        {
          "internalType": "uint64",
          "name": "token",
          "type": "uint64"
        },
        {
          "internalType": "uint64",
          "name": "amount",
          "type": "uint64"
        }
      ],
      "name": "prepareDeposit",
      "outputs": [],
      "stateMutability": "nonpayable",
      "type": "function"
    },
    {
      "inputs": [
        {
          "internalType": "bytes32",
          "name": "commitment",
          "type": "bytes32"
        },
        {
          "internalType": "bytes",
          "name": "ownershipProof",
          "type": "bytes"
        },
        {
          "internalType": "bytes",
          "name": "ownershipPublicValues",
          "type": "bytes"
        },
        {
          "internalType": "uint32",
          "name": "asset",
          "type": "uint32"
        },
        {
          "internalType": "bool",
          "name": "isBuy",
          "type": "bool"
        },
        {
          "internalType": "uint64",
          "name": "limitPx",
          "type": "uint64"
        },
        {
          "internalType": "uint64",
          "name": "sz",
          "type": "uint64"
        }
      ],
      "name": "privatePerpsPosition",
      "outputs": [],
      "stateMutability": "nonpayable",
      "type": "function"
    },
    {
      "inputs": [
        {
          "internalType": "bytes",
          "name": "tradeProof",
          "type": "bytes"
        },
        {
          "internalType": "bytes",
          "name": "publicValues",
          "type": "bytes"
        }
      ],
      "name": "privateSpotTrade",
      "outputs": [],
      "stateMutability": "nonpayable",
      "type": "function"
    },
    {
      "inputs": [],
      "name": "sp1Verifier",
      "outputs": [
        {
          "internalType": "contract ISP1Verifier",
          "name": "",
          "type": "address"
        }
      ],
      "stateMutability": "view",
      "type": "function"
    },
    {
      "inputs": [
        {
          "internalType": "bytes32",
          "name": "nullifier",
          "type": "bytes32"
        },
        {
          "internalType": "address",
          "name": "recipient",
          "type": "address"
        },
        {
          "internalType": "uint64",
          "name": "token",
          "type": "uint64"
        },
        {
          "internalType": "uint64",
          "name": "amount",
          "type": "uint64"
        },
        {
          "internalType": "bytes",
          "name": "balanceProof",
          "type": "bytes"
        },
        {
          "internalType": "bytes",
          "name": "publicValues",
          "type": "bytes"
        }
      ],
      "name": "testWithdraw",
      "outputs": [],
      "stateMutability": "nonpayable",
      "type": "function"
    },
    {
      "inputs": [
        {
          "internalType": "uint64",
          "name": "token",
          "type": "uint64"
        },
        {
          "internalType": "uint64",
          "name": "amount",
          "type": "uint64"
        }
      ],
      "name": "transferToContract",
      "outputs": [],
      "stateMutability": "nonpayable",
      "type": "function"
    },
    {
      "inputs": [
        {
          "internalType": "address",
          "name": "newAuthority",
          "type": "address"
        }
      ],
      "name": "updateComplianceAuthority",
      "outputs": [],
      "stateMutability": "nonpayable",
      "type": "function"
    },
    {
      "inputs": [
        {
          "internalType": "bytes32",
          "name": "nullifier",
          "type": "bytes32"
        },
        {
          "internalType": "address",
          "name": "recipient",
          "type": "address"
        },
        {
          "internalType": "uint64",
          "name": "token",
          "type": "uint64"
        },
        {
          "internalType": "uint64",
          "name": "amount",
          "type": "uint64"
        },
        {
          "internalType": "bytes",
          "name": "balanceProof",
          "type": "bytes"
        },
        {
          "internalType": "bytes",
          "name": "publicValues",
          "type": "bytes"
        }
      ],
      "name": "withdraw",
      "outputs": [],
      "stateMutability": "nonpayable",
      "type": "function"
    }
  ],
  "bytecode": "0x60a06040523480156200001157600080fd5b50604051620024e4380380620024e483398101604081905262000034916200007a565b6001600160a01b03918216608052600380546001600160a01b03191691909216179055620000b2565b80516001600160a01b03811681146200007557600080fd5b919050565b600080604083850312156200008e57600080fd5b62000099836200005d565b9150620000a9602084016200005d565b90509250929050565b6080516123f3620000f1600039600081816101f7015281816105fd01528181610a5601528181610ec70152818161156101526118bc01526123f36000f3fe608060405234801561001057600080fd5b506004361061012c5760003560e01c8063839df945116100ad578063d4a82dc511610071578063d4a82dc5146102c1578063dac90aeb146102d4578063e5ea7be2146102e7578063eb3349b9146102fa578063fdb87ec71461038357600080fd5b8063839df9451461025257806394137c9014610275578063b54fcff914610288578063ca29a4051461029b578063d43ffa2f146102ae57600080fd5b806349590657116100f457806349590657146101ea57806352a07fa3146101f25780635eda69b1146102195780636f3bcf671461022c5780637318754d1461023f57600080fd5b8063012d09b51461013157806318afae2c146101645780631f5d7829146101795780632997e86b1461018c578063309f477a146101bf575b600080fd5b61015161013f366004611b63565b60056020526000908152604090205481565b6040519081526020015b60405180910390f35b610177610172366004611bbb565b6103ae565b005b610177610187366004611c4a565b61047b565b6101af61019a366004611b63565b60026020526000908152604090205460ff1681565b604051901515815260200161015b565b6003546101d2906001600160a01b031681565b6040516001600160a01b03909116815260200161015b565b610151610718565b6101d27f000000000000000000000000000000000000000000000000000000000000000081565b610177610227366004611cf8565b6107c5565b61017761023a366004611d31565b610990565b61017761024d366004611cf8565b610c71565b6101af610260366004611b63565b60016020526000908152604090205460ff1681565b6101af610283366004611dfc565b610ce2565b610177610296366004611e1e565b610dd2565b6101776102a9366004611e89565b61104f565b6101776102bc366004611f27565b61122f565b6101516102cf366004611b63565b611719565b6101776102e2366004611c4a565b61173a565b6101776102f5366004611dfc565b611a00565b61034a610308366004611dfc565b6006602052600090815260409020805460018201546002909201546001600160401b0380831693600160401b8404821693600160801b90049091169160ff1685565b604080516001600160401b039687168152948616602086015292909416918301919091526060820152901515608082015260a00161015b565b610396610391366004611fa0565b611aa0565b6040516001600160401b03909116815260200161015b565b6003546001600160a01b031633146104095760405162461bcd60e51b81526020600482015260196024820152784f6e6c7920636f6d706c69616e636520617574686f7269747960381b60448201526064015b60405180910390fd5b604051630b0ac0ab60e01b815273333333333333333333333333333333333333333390630b0ac0ab9061044490849087908790600401611fbc565b600060405180830381600087803b15801561045e57600080fd5b505af1158015610472573d6000803e3d6000fd5b50505050505050565b60008881526002602052604090205460ff16156104d35760405162461bcd60e51b8152602060048201526016602482015275139d5b1b1a599a595c88185b1c9958591e481d5cd95960521b6044820152606401610400565b60006104e18284018461201c565b90506104eb610718565b8160200151146105335760405162461bcd60e51b8152602060048201526013602482015272125b9d985b1a59081b595c9adb19481c9bdbdd606a1b6044820152606401610400565b856001600160401b0316816040015110156105905760405162461bcd60e51b815260206004820152601b60248201527f496e73756666696369656e742070726f76656e2062616c616e636500000000006044820152606401610400565b866001600160401b031681606001516001600160401b0316146105e65760405162461bcd60e51b815260206004820152600e60248201526d082e6e6cae840dad2e6dac2e8c6d60931b6044820152606401610400565b60405163020a49e360e51b81526001600160a01b037f000000000000000000000000000000000000000000000000000000000000000016906341493c6090610659907e9c22b4f95fb710070dc80cfce7526c4cc7780834ab328bd769ff58934e6d0590879087908b908b90600401612091565b60006040518083038186803b15801561067157600080fd5b505afa158015610685573d6000803e3d6000fd5b50505060008a81526002602052604090819020805460ff19166001179055518a91507f9f3ea13c662329b10d1dd43ea475cd574694121aa372f11bc87280050a86721290610705908b908b908b9042906001600160a01b039490941684526001600160401b03928316602085015291166040830152606082015260800190565b60405180910390a2505050505050505050565b600454600090810361072a5750600090565b60006004600081548110610740576107406120ca565b600091825260209091200154905060015b6004548110156107bf57816004828154811061076f5761076f6120ca565b9060005260206000200154604051602001610794929190918252602082015260400190565b60405160208183030381529060405280519060200120915080806107b7906120f6565b915050610751565b50919050565b6000816001600160401b03161161081e5760405162461bcd60e51b815260206004820152601d60248201527f416d6f756e74206d7573742062652067726561746572207468616e20300000006044820152606401610400565b600061082a3384611aa0565b9050816001600160401b0316816001600160401b0316101561088e5760405162461bcd60e51b815260206004820152601960248201527f496e73756666696369656e742073706f742062616c616e6365000000000000006044820152606401610400565b600061089a3085611aa0565b6040805160a0810182526001600160401b03878116808352878216602080850182815287851686880190815242606088019081526000608089018181523380835260068752918b902099518a54955194518a16600160801b0267ffffffffffffffff60801b19958b16600160401b026fffffffffffffffffffffffffffffffff1990971691909a1617949094179290921696909617875594516001870155516002909501805495151560ff19909616959095179094558451918252928101929092529293507fac44786729a70fd941b7584083b7454cfc1720db49dd28841b8caec86f6adb25910160405180910390a250505050565b600061099e8688018861210f565b80519091508a146109e75760405162461bcd60e51b8152602060048201526013602482015272086dedadad2e8dacadce840dad2e6dac2e8c6d606b1b6044820152606401610400565b60008a81526020819052604090206002015460ff16610a3f5760405162461bcd60e51b815260206004820152601460248201527315985d5b1d08191bd95cc81b9bdd08195e1a5cdd60621b6044820152606401610400565b60405163020a49e360e51b81526001600160a01b037f000000000000000000000000000000000000000000000000000000000000000016906341493c6090610ab2907e6bf06179a19e1575731cbb10c5b9cc955cae6f0a5de98cf8baf3c7c416131a908b908b908f908f90600401612091565b60006040518083038186803b158015610aca57600080fd5b505afa158015610ade573d6000803e3d6000fd5b5050604051634e4719ab60e01b815263ffffffff8816600482015286151560248201526001600160401b038087166044830152851660648201527333333333333333333333333333333333333333339250634e4719ab9150608401600060405180830381600087803b158015610b5357600080fd5b505af1158015610b67573d6000803e3d6000fd5b505050508315610bd05760008a81526020818152604080832063ffffffff8916845260010190915281208054849290610ba490849060070b61216b565b92506101000a8154816001600160401b03021916908360070b6001600160401b03160217905550610c2b565b60008a81526020818152604080832063ffffffff8916845260010190915281208054849290610c0390849060070b61219a565b92506101000a8154816001600160401b03021916908360070b6001600160401b031602179055505b897f8f3dba1073f4b750e9392983cbbdd0d9b7e8380008bdda0e7683e3c3aa5c518942604051610c5d91815260200190565b60405180910390a250505050505050505050565b604051630b0ac0ab60e01b815273333333333333333333333333333333333333333390630b0ac0ab90610cac90309086908690600401611fbc565b600060405180830381600087803b158015610cc657600080fd5b505af1158015610cda573d6000803e3d6000fd5b505050505050565b6001600160a01b0381166000908152600660209081526040808320815160a08101835281546001600160401b038082168352600160401b82048116958301869052600160801b9091041692810192909252600181015460608301526002015460ff1615156080820152901580610d59575080608001515b15610d675750600092915050565b6060810151610d7890610e106121c9565b421115610d885750600092915050565b6000610d98308360000151611aa0565b90506000826040015182610dac91906121dc565b905082602001516001600160401b0316816001600160401b031610159350505050919050565b6000610de082840184612203565b805160009081526020819052604090206002015490915060ff16610e3d5760405162461bcd60e51b815260206004820152601460248201527315985d5b1d08191bd95cc81b9bdd08195e1a5cdd60621b6044820152606401610400565b60608101518151600090815260208181526040808320828601516001600160401b039081168552925290912054161015610eb05760405162461bcd60e51b8152602060048201526014602482015273496e73756666696369656e742062616c616e636560601b6044820152606401610400565b60405163020a49e360e51b81526001600160a01b037f000000000000000000000000000000000000000000000000000000000000000016906341493c6090610f23907e8484840d42565b9589f5c37253789d3731407964b1537fb5cf9d6064226b1c90879087908b908b90600401612091565b60006040518083038186803b158015610f3b57600080fd5b505afa158015610f4f573d6000803e3d6000fd5b50505060608201518251600090815260208181526040808320828701516001600160401b03908116855292528220805493945092610f8f918591166121dc565b82546101009290920a6001600160401b0381810219909316918316021790915560808301518351600090815260208181526040808320818801518616845290915281208054929450929091610fe69185911661228f565b92506101000a8154816001600160401b0302191690836001600160401b0316021790555080600001517f8f3dba1073f4b750e9392983cbbdd0d9b7e8380008bdda0e7683e3c3aa5c51894260405161104091815260200190565b60405180910390a25050505050565b60008781526001602052604090205460ff16156110a85760405162461bcd60e51b815260206004820152601760248201527610dbdb5b5a5d1b595b9d08185b1c9958591e481d5cd959604a1b6044820152606401610400565b604051630b0ac0ab60e01b815273333333333333333333333333333333333333333390630b0ac0ab906110e39030908a908a90600401611fbc565b600060405180830381600087803b1580156110fd57600080fd5b505af1158015611111573d6000803e3d6000fd5b5050506000888152600160208181526040808420805460ff19169093179092558281528183206001600160401b03808c1685529152908220805489945090929161115d9185911661228f565b82546001600160401b039182166101009390930a9283029190920219909116179055506000878152602081905260408120600201805460ff19166001908117909155600480548083018255928190527f8a35acfbc15ff81a39ae7d344fd709f28e8600b4aa8c65c6b64bfe7fe36bd19b90920189905590546111df91906122af565b600088815260056020908152604091829020929092555142815288917f02d0beb141922199e99106aa1e9e523add96e905baf9299bfb1042acd145bf5c910160405180910390a250505050505050565b60008581526001602052604090205460ff16156112885760405162461bcd60e51b815260206004820152601760248201527610dbdb5b5a5d1b595b9d08185b1c9958591e481d5cd959604a1b6044820152606401610400565b33600090815260066020908152604091829020825160a08101845281546001600160401b038082168352600160401b82048116948301859052600160801b9091041693810193909352600181015460608401526002015460ff161515608083015261132a5760405162461bcd60e51b8152602060048201526012602482015271139bc81c195b991a5b99c819195c1bdcda5d60721b6044820152606401610400565b80608001511561137c5760405162461bcd60e51b815260206004820152601960248201527f4465706f73697420616c726561647920636f6d706c65746564000000000000006044820152606401610400565b606081015161138d90610e106121c9565b4211156113ce5760405162461bcd60e51b815260206004820152600f60248201526e11195c1bdcda5d08195e1c1a5c9959608a1b6044820152606401610400565b60006113de308360000151611aa0565b905060008260400151826113f291906121dc565b905082602001516001600160401b0316816001600160401b031610156114535760405162461bcd60e51b8152602060048201526016602482015275151bdad95b9cc81b9bdd081d1c985b9cd9995c9c995960521b6044820152606401610400565b6000611461858701876122c2565b805190915089146114aa5760405162461bcd60e51b8152602060048201526013602482015272086dedadad2e8dacadce840dad2e6dac2e8c6d606b1b6044820152606401610400565b60035460208201516001600160a01b039081169116146115005760405162461bcd60e51b8152602060048201526011602482015270496e76616c696420617574686f7269747960781b6044820152606401610400565b428160400151101561154a5760405162461bcd60e51b815260206004820152601360248201527210d95c9d1a599a58d85d1948195e1c1a5c9959606a1b6044820152606401610400565b60405163020a49e360e51b81526001600160a01b037f000000000000000000000000000000000000000000000000000000000000000016906341493c60906115bd907eed1611619b8f2866de7be17d81a9d42a869b4c5959629708f125ae34a2f9ee908a908a908e908e90600401612091565b60006040518083038186803b1580156115d557600080fd5b505afa1580156115e9573d6000803e3d6000fd5b50503360009081526006602090815260408083206002018054600160ff1991821681179092558f855281845282852080549091169091179055888201518383528184208a516001600160401b0390811686529352908320805491955093506116539185911661228f565b82546001600160401b039182166101009390930a9283029190920219909116179055506000898152602081905260408120600201805460ff19166001908117909155600480548083018255928190527f8a35acfbc15ff81a39ae7d344fd709f28e8600b4aa8c65c6b64bfe7fe36bd19b9092018b905590546116d591906122af565b60008a81526005602090815260409182902092909255514281528a917f02d0beb141922199e99106aa1e9e523add96e905baf9299bfb1042acd145bf5c9101610705565b6004818154811061172957600080fd5b600091825260209091200154905081565b60008881526002602052604090205460ff16156117925760405162461bcd60e51b8152602060048201526016602482015275139d5b1b1a599a595c88185b1c9958591e481d5cd95960521b6044820152606401610400565b60006117a08284018461201c565b90506117aa610718565b8160200151146117f25760405162461bcd60e51b8152602060048201526013602482015272125b9d985b1a59081b595c9adb19481c9bdbdd606a1b6044820152606401610400565b856001600160401b03168160400151101561184f5760405162461bcd60e51b815260206004820152601b60248201527f496e73756666696369656e742070726f76656e2062616c616e636500000000006044820152606401610400565b866001600160401b031681606001516001600160401b0316146118a55760405162461bcd60e51b815260206004820152600e60248201526d082e6e6cae840dad2e6dac2e8c6d60931b6044820152606401610400565b60405163020a49e360e51b81526001600160a01b037f000000000000000000000000000000000000000000000000000000000000000016906341493c6090611918907e9c22b4f95fb710070dc80cfce7526c4cc7780834ab328bd769ff58934e6d0590879087908b908b90600401612091565b60006040518083038186803b15801561193057600080fd5b505afa158015611944573d6000803e3d6000fd5b50505060008a81526002602052604090819020805460ff1916600117905551630b0ac0ab60e01b81527333333333333333333333333333333333333333339150630b0ac0ab9061199c908b908b908b90600401611fbc565b600060405180830381600087803b1580156119b657600080fd5b505af11580156119ca573d6000803e3d6000fd5b50505050887fcc9580996e4c53ac7e73439f181e208ab15831ea2d2429dd12ee742c1c475b6f4260405161070591815260200190565b6003546001600160a01b03163314611a565760405162461bcd60e51b81526020600482015260196024820152784f6e6c7920636f6d706c69616e636520617574686f7269747960381b6044820152606401610400565b600380546001600160a01b0319166001600160a01b0383169081179091556040517f829c4ef70a1fb0edb9daa0db5c77d61190e746db94bce7dc78fee99d04fb409990600090a250565b604080516001600160a01b03841660208201526001600160401b038316818301528151808203830181526060909101918290526000918290819061080190611ae990859061230f565b600060405180830381855afa9150503d8060008114611b24576040519150601f19603f3d011682016040523d82523d6000602084013e611b29565b606091505b509150915081611b3f5760009350505050611b5d565b600081806020019051810190611b55919061233e565b519450505050505b92915050565b600060208284031215611b7557600080fd5b5035919050565b6001600160401b0381168114611b9157600080fd5b50565b8035611b9f81611b7c565b919050565b80356001600160a01b0381168114611b9f57600080fd5b600080600060608486031215611bd057600080fd5b8335611bdb81611b7c565b92506020840135611beb81611b7c565b9150611bf960408501611ba4565b90509250925092565b60008083601f840112611c1457600080fd5b5081356001600160401b03811115611c2b57600080fd5b602083019150836020828501011115611c4357600080fd5b9250929050565b60008060008060008060008060c0898b031215611c6657600080fd5b88359750611c7660208a01611ba4565b96506040890135611c8681611b7c565b95506060890135611c9681611b7c565b945060808901356001600160401b0380821115611cb257600080fd5b611cbe8c838d01611c02565b909650945060a08b0135915080821115611cd757600080fd5b50611ce48b828c01611c02565b999c989b5096995094979396929594505050565b60008060408385031215611d0b57600080fd5b8235611d1681611b7c565b91506020830135611d2681611b7c565b809150509250929050565b600080600080600080600080600060e08a8c031215611d4f57600080fd5b8935985060208a01356001600160401b0380821115611d6d57600080fd5b611d798d838e01611c02565b909a50985060408c0135915080821115611d9257600080fd5b50611d9f8c828d01611c02565b90975095505060608a013563ffffffff81168114611dbc57600080fd5b935060808a01358015158114611dd157600080fd5b9250611ddf60a08b01611b94565b9150611ded60c08b01611b94565b90509295985092959850929598565b600060208284031215611e0e57600080fd5b611e1782611ba4565b9392505050565b60008060008060408587031215611e3457600080fd5b84356001600160401b0380821115611e4b57600080fd5b611e5788838901611c02565b90965094506020870135915080821115611e7057600080fd5b50611e7d87828801611c02565b95989497509550505050565b600080600080600080600060a0888a031215611ea457600080fd5b873596506020880135611eb681611b7c565b95506040880135611ec681611b7c565b945060608801356001600160401b0380821115611ee257600080fd5b611eee8b838c01611c02565b909650945060808a0135915080821115611f0757600080fd5b50611f148a828b01611c02565b989b979a50959850939692959293505050565b600080600080600060608688031215611f3f57600080fd5b8535945060208601356001600160401b0380821115611f5d57600080fd5b611f6989838a01611c02565b90965094506040880135915080821115611f8257600080fd5b50611f8f88828901611c02565b969995985093965092949392505050565b60008060408385031215611fb357600080fd5b611d1683611ba4565b6001600160a01b039390931683526001600160401b03918216602084015216604082015260600190565b604051608081016001600160401b038111828210171561201657634e487b7160e01b600052604160045260246000fd5b60405290565b60006080828403121561202e57600080fd5b612036611fe6565b823581526020830135602082015260408301356040820152606083013561205c81611b7c565b60608201529392505050565b81835281816020850137506000828201602090810191909152601f909101601f19169091010190565b8581526060602082015260006120ab606083018688612068565b82810360408401526120be818587612068565b98975050505050505050565b634e487b7160e01b600052603260045260246000fd5b634e487b7160e01b600052601160045260246000fd5b600060018201612108576121086120e0565b5060010190565b60006040828403121561212157600080fd5b604051604081018181106001600160401b038211171561215157634e487b7160e01b600052604160045260246000fd5b604052823581526020928301359281019290925250919050565b600781810b9083900b01677fffffffffffffff8113677fffffffffffffff1982121715611b5d57611b5d6120e0565b600782810b9082900b03677fffffffffffffff198112677fffffffffffffff82131715611b5d57611b5d6120e0565b80820180821115611b5d57611b5d6120e0565b6001600160401b038281168282160390808211156121fc576121fc6120e0565b5092915050565b600060a0828403121561221557600080fd5b60405160a081018181106001600160401b038211171561224557634e487b7160e01b600052604160045260246000fd5b60405282358152602083013561225a81611b7c565b6020820152604083013561226d81611b7c565b6040820152606083810135908201526080928301359281019290925250919050565b6001600160401b038181168382160190808211156121fc576121fc6120e0565b81810381811115611b5d57611b5d6120e0565b6000608082840312156122d457600080fd5b6122dc611fe6565b823581526122ec60208401611ba4565b602082015260408301356040820152606083013560608201528091505092915050565b6000825160005b818110156123305760208186018101518583015201612316565b506000920191825250919050565b60006060828403121561235057600080fd5b604051606081018181106001600160401b038211171561238057634e487b7160e01b600052604160045260246000fd5b604052825161238e81611b7c565b8152602083015161239e81611b7c565b602082015260408301516123b181611b7c565b6040820152939250505056fea264697066735822122013e9e94b3d28a36b7dc1b6fa05c5662eee0ed39aaf7baebbea01adea0054bf6c64736f6c63430008130033",
  "linkReferences": {},
  "deployedLinkReferences": {}
}