{
  "_format": "hh-sol-artifact-1",
  "contractName": "PrivateDEXExtensionTestnet",
  "sourceName": "contracts/PrivateDEXExtensionTestnet.sol",
  "abi": [
    {
      "inputs": [
        {
          "internalType": "address",
          "name": "_privacySystem",
          "type": "address"
        }
      ],
      "stateMutability": "nonpayable",
      "type": "constructor"
    },
    {
      "inputs": [
        {
          "internalType": "address",
          "name": "token",
          "type": "address"
        }
      ],
      "name": "SafeERC20FailedOperation",
      "type": "error"
    },
    {
      "anonymous": false,
      "inputs": [
        {
          "indexed": true,
          "internalType": "bytes32",
          "name": "nullifier",
          "type": "bytes32"
        },
        {
          "indexed": true,
          "internalType": "bytes32",
          "name": "commitment",
          "type": "bytes32"
        },
        {
          "indexed": false,
          "internalType": "uint64",
          "name": "tokenIn",
          "type": "uint64"
        },
        {
          "indexed": false,
          "internalType": "uint64",
          "name": "tokenOut",
          "type": "uint64"
        },
        {
          "indexed": false,
          "internalType": "uint256",
          "name": "amountIn",
          "type": "uint256"
        },
        {
          "indexed": false,
          "internalType": "uint256",
          "name": "amountOut",
          "type": "uint256"
        }
      ],
      "name": "PrivateSwap",
      "type": "event"
    },
    {
      "anonymous": false,
      "inputs": [
        {
          "indexed": false,
          "internalType": "address",
          "name": "newRouter",
          "type": "address"
        }
      ],
      "name": "RouterUpdated",
      "type": "event"
    },
    {
      "anonymous": false,
      "inputs": [
        {
          "indexed": false,
          "internalType": "address",
          "name": "whype",
          "type": "address"
        },
        {
          "indexed": false,
          "internalType": "address",
          "name": "ubtc",
          "type": "address"
        },
        {
          "indexed": false,
          "internalType": "address",
          "name": "ueth",
          "type": "address"
        },
        {
          "indexed": false,
          "internalType": "address",
          "name": "usde",
          "type": "address"
        }
      ],
      "name": "TokensConfigured",
      "type": "event"
    },
    {
      "inputs": [],
      "name": "UBTC",
      "outputs": [
        {
          "internalType": "address",
          "name": "",
          "type": "address"
        }
      ],
      "stateMutability": "view",
      "type": "function"
    },
    {
      "inputs": [],
      "name": "UETH",
      "outputs": [
        {
          "internalType": "address",
          "name": "",
          "type": "address"
        }
      ],
      "stateMutability": "view",
      "type": "function"
    },
    {
      "inputs": [],
      "name": "USDE",
      "outputs": [
        {
          "internalType": "address",
          "name": "",
          "type": "address"
        }
      ],
      "stateMutability": "view",
      "type": "function"
    },
    {
      "inputs": [],
      "name": "WHYPE",
      "outputs": [
        {
          "internalType": "address",
          "name": "",
          "type": "address"
        }
      ],
      "stateMutability": "view",
      "type": "function"
    },
    {
      "inputs": [
        {
          "internalType": "bytes32",
          "name": "",
          "type": "bytes32"
        },
        {
          "internalType": "uint64",
          "name": "",
          "type": "uint64"
        }
      ],
      "name": "commitmentBalances",
      "outputs": [
        {
          "internalType": "uint256",
          "name": "",
          "type": "uint256"
        }
      ],
      "stateMutability": "view",
      "type": "function"
    },
    {
      "inputs": [
        {
          "internalType": "address",
          "name": "_whype",
          "type": "address"
        },
        {
          "internalType": "address",
          "name": "_ubtc",
          "type": "address"
        },
        {
          "internalType": "address",
          "name": "_ueth",
          "type": "address"
        },
        {
          "internalType": "address",
          "name": "_usde",
          "type": "address"
        }
      ],
      "name": "configureTokens",
      "outputs": [],
      "stateMutability": "nonpayable",
      "type": "function"
    },
    {
      "inputs": [
        {
          "internalType": "bytes32",
          "name": "commitment",
          "type": "bytes32"
        }
      ],
      "name": "getBalances",
      "outputs": [
        {
          "internalType": "uint64[]",
          "name": "tokenIds",
          "type": "uint64[]"
        },
        {
          "internalType": "uint256[]",
          "name": "balances",
          "type": "uint256[]"
        }
      ],
      "stateMutability": "view",
      "type": "function"
    },
    {
      "inputs": [
        {
          "internalType": "bytes32",
          "name": "commitment",
          "type": "bytes32"
        },
        {
          "internalType": "uint64",
          "name": "tokenId",
          "type": "uint64"
        },
        {
          "internalType": "uint256",
          "name": "amount",
          "type": "uint256"
        }
      ],
      "name": "initializeBalance",
      "outputs": [],
      "stateMutability": "nonpayable",
      "type": "function"
    },
    {
      "inputs": [],
      "name": "owner",
      "outputs": [
        {
          "internalType": "address",
          "name": "",
          "type": "address"
        }
      ],
      "stateMutability": "view",
      "type": "function"
    },
    {
      "inputs": [],
      "name": "privacySystem",
      "outputs": [
        {
          "internalType": "contract IPrivacySystem",
          "name": "",
          "type": "address"
        }
      ],
      "stateMutability": "view",
      "type": "function"
    },
    {
      "inputs": [
        {
          "internalType": "bytes32",
          "name": "nullifier",
          "type": "bytes32"
        },
        {
          "internalType": "bytes",
          "name": "proof",
          "type": "bytes"
        },
        {
          "internalType": "bytes",
          "name": "publicValues",
          "type": "bytes"
        },
        {
          "internalType": "uint24",
          "name": "fee",
          "type": "uint24"
        }
      ],
      "name": "privateSwap",
      "outputs": [
        {
          "internalType": "uint256",
          "name": "amountOut",
          "type": "uint256"
        }
      ],
      "stateMutability": "nonpayable",
      "type": "function"
    },
    {
      "inputs": [
        {
          "internalType": "address",
          "name": "_swapRouter",
          "type": "address"
        }
      ],
      "name": "setSwapRouter",
      "outputs": [],
      "stateMutability": "nonpayable",
      "type": "function"
    },
    {
      "inputs": [
        {
          "internalType": "bytes32",
          "name": "",
          "type": "bytes32"
        }
      ],
      "name": "swapNullifiers",
      "outputs": [
        {
          "internalType": "bool",
          "name": "",
          "type": "bool"
        }
      ],
      "stateMutability": "view",
      "type": "function"
    },
    {
      "inputs": [],
      "name": "swapRouter",
      "outputs": [
        {
          "internalType": "contract ISwapRouter",
          "name": "",
          "type": "address"
        }
      ],
      "stateMutability": "view",
      "type": "function"
    },
    {
      "inputs": [
        {
          "internalType": "uint64",
          "name": "",
          "type": "uint64"
        }
      ],
      "name": "tokenAddresses",
      "outputs": [
        {
          "internalType": "address",
          "name": "",
          "type": "address"
        }
      ],
      "stateMutability": "view",
      "type": "function"
    },
    {
      "inputs": [
        {
          "internalType": "address",
          "name": "newOwner",
          "type": "address"
        }
      ],
      "name": "transferOwnership",
      "outputs": [],
      "stateMutability": "nonpayable",
      "type": "function"
    },
    {
      "inputs": [
        {
          "internalType": "bytes32",
          "name": "commitment",
          "type": "bytes32"
        },
        {
          "internalType": "uint64",
          "name": "tokenId",
          "type": "uint64"
        },
        {
          "internalType": "uint256",
          "name": "amount",
          "type": "uint256"
        },
        {
          "internalType": "address",
          "name": "recipient",
          "type": "address"
        }
      ],
      "name": "withdrawFromSwap",
      "outputs": [],
      "stateMutability": "nonpayable",
      "type": "function"
    },
    {
      "stateMutability": "payable",
      "type": "receive"
    }
  ],
  "bytecode": "0x60a060405234801561001057600080fd5b5060405161180a38038061180a83398101604081905261002f91610052565b6001600160a01b0316608052600180546001600160a01b03191633179055610082565b60006020828403121561006457600080fd5b81516001600160a01b038116811461007b57600080fd5b9392505050565b60805161174a6100c0600039600081816102450152818161055001528181610670015281816109e101528181610a9c0152610bda015261174a6000f3fe6080604052600436106101025760003560e01c806361a9231d116100955780638da5cb5b116100645780638da5cb5b14610315578063a8ebbae614610335578063c31c9c0714610355578063f2fde38b14610375578063ffc21d5e1461039557600080fd5b806361a9231d1461028757806382d2dcfb146102a757806386d4c423146102c75780638743de81146102e757600080fd5b806342de081b116100d157806342de081b146101bb5780634727f606146101f357806351a259f31461023357806359f613a41461026757600080fd5b80630945fd701461010e57806322af7c24146101305780632b96f7db14610150578063412736571461019b57600080fd5b3661010957005b600080fd5b34801561011a57600080fd5b5061012e610129366004611252565b6103cb565b005b34801561013c57600080fd5b5061012e61014b3660046112ca565b610545565b34801561015c57600080fd5b5061018861016b3660046112ff565b600760209081526000928352604080842090915290825290205481565b6040519081526020015b60405180910390f35b3480156101a757600080fd5b5061012e6101b636600461132b565b6105e7565b3480156101c757600080fd5b506005546101db906001600160a01b031681565b6040516001600160a01b039091168152602001610192565b3480156101ff57600080fd5b5061022361020e36600461134f565b60086020526000908152604090205460ff1681565b6040519015158152602001610192565b34801561023f57600080fd5b506101db7f000000000000000000000000000000000000000000000000000000000000000081565b34801561027357600080fd5b506002546101db906001600160a01b031681565b34801561029357600080fd5b5061012e6102a2366004611368565b610665565b3480156102b357600080fd5b506004546101db906001600160a01b031681565b3480156102d357600080fd5b506003546101db906001600160a01b031681565b3480156102f357600080fd5b5061030761030236600461134f565b61081a565b6040516101929291906113a5565b34801561032157600080fd5b506001546101db906001600160a01b031681565b34801561034157600080fd5b50610188610350366004611471565b610907565b34801561036157600080fd5b506000546101db906001600160a01b031681565b34801561038157600080fd5b5061012e61039036600461132b565b610fec565b3480156103a157600080fd5b506101db6103b0366004611504565b6006602052600090815260409020546001600160a01b031681565b6001546001600160a01b031633146103fe5760405162461bcd60e51b81526004016103f59061151f565b60405180910390fd5b600280546001600160a01b038681166001600160a01b0319928316811790935560038054878316908416811782556004805488851690861681179091556005805494881694861685179055600660209081527f54cdd369e4e8a8515e52ca72ec816c2101831ad1f18bf44102ed171459c9b4f880548716881790557f3e5fec24aa4dc4e5aee2e025e51e1392c72a2500577559fae9665c6d52bd6a3180548716841790557f8819ef417987f8ae7a81f42cdfb18815282fe989326fbff903d13cf0e03ace2980548716831790556000939093527f75f96ab15d697e93042dc45b5c896c4b27e89bb6eaf39475c5c371cb2513f7d280549095168417909455604080519586529185015283019190915260608201527f57c7f8449b931c2bb74f981d811ea9e292362fe3fcc9f3b1e8daf310186bb90e9060800160405180910390a150505050565b336001600160a01b037f000000000000000000000000000000000000000000000000000000000000000016148061058657506001546001600160a01b031633145b6105c15760405162461bcd60e51b815260206004820152600c60248201526b155b985d5d1a1bdc9a5e995960a21b60448201526064016103f5565b60009283526007602090815260408085206001600160401b039094168552929052912055565b6001546001600160a01b031633146106115760405162461bcd60e51b81526004016103f59061151f565b600080546001600160a01b0319166001600160a01b0383169081179091556040519081527f7aed1d3e8155a07ccf395e44ea3109a0e2d6c9b29bbbe9f142d9790596f4dc809060200160405180910390a150565b336001600160a01b037f00000000000000000000000000000000000000000000000000000000000000001614806106a657506001546001600160a01b031633145b6106e15760405162461bcd60e51b815260206004820152600c60248201526b155b985d5d1a1bdc9a5e995960a21b60448201526064016103f5565b60008481526007602090815260408083206001600160401b038716845290915290205482111561074a5760405162461bcd60e51b8152602060048201526014602482015273496e73756666696369656e742062616c616e636560601b60448201526064016103f5565b60008481526007602090815260408083206001600160401b03871684529091528120805484929061077c908490611559565b90915550506001600160401b0383166000908152600660205260409020546002546001600160a01b0391821691168114806107be57506001600160a01b038116155b156107ff576040516001600160a01b0383169084156108fc029085906000818181858888f193505050501580156107f9573d6000803e3d6000fd5b50610813565b6108136001600160a01b038216838561107e565b5050505050565b60408051600480825260a08201909252606091829160009160208201608080368337505060408051600480825260a0820190925292935060009291506020820160808036833701905050905060005b6004816001600160401b031610156108fc578083826001600160401b0316815181106108975761089761156c565b6001600160401b03928316602091820292909201810191909152600088815260078252604080822093851680835293909252205483519091849181106108df576108df61156c565b6020908102919091010152806108f481611582565b915050610869565b509094909350915050565b600080546001600160a01b03166109585760405162461bcd60e51b8152602060048201526015602482015274149bdd5d195c881b9bdd0818dbdb999a59dd5c9959605a1b60448201526064016103f5565b60008781526008602052604090205460ff16156109b75760405162461bcd60e51b815260206004820152601b60248201527f53776170206e756c6c696669657220616c72656164792075736564000000000060448201526064016103f5565b60006109c5848601866115a8565b805160405163839df94560e01b81529192506001600160a01b037f0000000000000000000000000000000000000000000000000000000000000000169163839df94591610a189160040190815260200190565b602060405180830381865afa158015610a35573d6000803e3d6000fd5b505050506040513d601f19601f82011682018060405250810190610a599190611647565b610a9a5760405162461bcd60e51b8152602060048201526012602482015271125b9d985b1a590818dbdb5b5a5d1b595b9d60721b60448201526064016103f5565b7f00000000000000000000000000000000000000000000000000000000000000006001600160a01b031663495906576040518163ffffffff1660e01b8152600401602060405180830381865afa158015610af8573d6000803e3d6000fd5b505050506040513d601f19601f82011682018060405250810190610b1c9190611669565b8160c0015114610b645760405162461bcd60e51b8152602060048201526013602482015272125b9d985b1a59081b595c9adb19481c9bdbdd606a1b60448201526064016103f5565b608081015181516000908152600760209081526040808320818601516001600160401b031684529091529020541015610bd65760405162461bcd60e51b8152602060048201526014602482015273496e73756666696369656e742062616c616e636560601b60448201526064016103f5565b60007f00000000000000000000000000000000000000000000000000000000000000006001600160a01b03166352a07fa36040518163ffffffff1660e01b8152600401602060405180830381865afa158015610c36573d6000803e3d6000fd5b505050506040513d601f19601f82011682018060405250810190610c5a9190611682565b60405163020a49e360e51b81529091506001600160a01b038216906341493c6090610cb0907e8484840d42565b9589f5c37253789d3731407964b1537fb5cf9d6064226b1c908a908a908e908e906004016116c8565b60006040518083038186803b158015610cc857600080fd5b505afa158015610cdc573d6000803e3d6000fd5b50505060008a8152600860209081526040808320805460ff1916600117905560808601518651845260078352818420878301516001600160401b03168552909252822080549193509190610d31908490611559565b90915550506040808301516001600160401b0390811660009081526006602052828120546060860151909216815291909120546001600160a01b0391821691168115801590610d8857506001600160a01b03811615155b610dc45760405162461bcd60e51b815260206004820152600d60248201526c24b73b30b634b2103a37b5b2b760991b60448201526064016103f5565b6000546080850151610de39184916001600160a01b03909116906110e2565b60408051610100810182526001600160a01b03808516808352848216602084015262ffffff8a16938301939093523060608301524260808084019190915287015160a08084019190915287015160c0830152600060e0830181905260025492939092909116148015610e60575060408601516001600160401b0316155b610e6b576000610e71565b85608001515b6000546040805163414bf38960e01b815285516001600160a01b0390811660048301526020870151811660248301529186015162ffffff1660448201526060860151821660648201526080860151608482015260a086015160a482015260c086015160c482015260e0860151821660e4820152929350169063414bf3899083906101040160206040518083038185885af1158015610f13573d6000803e3d6000fd5b50505050506040513d601f19601f82011682018060405250810190610f389190611669565b8651600090815260076020908152604080832060608b01516001600160401b03168452909152812080549299508992909190610f75908490611701565b909155505085516040808801516060808a01516080808c015185516001600160401b0395861681529490921660208501529383015281018a90528f917f0f4d8f4a9d01f7fbfdec4da17e052db5780ba4be9d71e52e9b80461e36177c4c910160405180910390a35050505050509695505050505050565b6001546001600160a01b031633146110165760405162461bcd60e51b81526004016103f59061151f565b6001600160a01b03811661105c5760405162461bcd60e51b815260206004820152600d60248201526c24b73b30b634b21037bbb732b960991b60448201526064016103f5565b600180546001600160a01b0319166001600160a01b0392909216919091179055565b6040516001600160a01b038381166024830152604482018390526110dd91859182169063a9059cbb906064015b604051602081830303815290604052915060e01b6020820180516001600160e01b038381831617835250505050611178565b505050565b604080516001600160a01b038416602482015260448082018490528251808303909101815260649091019091526020810180516001600160e01b031663095ea7b360e01b17905261113384826111e9565b611172576040516001600160a01b0384811660248301526000604483015261116891869182169063095ea7b3906064016110ab565b6111728482611178565b50505050565b600080602060008451602086016000885af18061119b576040513d6000823e3d81fd5b50506000513d915081156111b35780600114156111c0565b6001600160a01b0384163b155b1561117257604051635274afe760e01b81526001600160a01b03851660048201526024016103f5565b6000806000806020600086516020880160008a5af192503d9150600051905082801561122e5750811561121f578060011461122e565b6000866001600160a01b03163b115b93505050505b92915050565b6001600160a01b038116811461124f57600080fd5b50565b6000806000806080858703121561126857600080fd5b84356112738161123a565b935060208501356112838161123a565b925060408501356112938161123a565b915060608501356112a38161123a565b939692955090935050565b80356001600160401b03811681146112c557600080fd5b919050565b6000806000606084860312156112df57600080fd5b833592506112ef602085016112ae565b9150604084013590509250925092565b6000806040838503121561131257600080fd5b82359150611322602084016112ae565b90509250929050565b60006020828403121561133d57600080fd5b81356113488161123a565b9392505050565b60006020828403121561136157600080fd5b5035919050565b6000806000806080858703121561137e57600080fd5b8435935061138e602086016112ae565b92506040850135915060608501356112a38161123a565b604080825283519082018190526000906020906060840190828701845b828110156113e75781516001600160401b0316845292840192908401906001016113c2565b5050508381038285015284518082528583019183019060005b8181101561141c57835183529284019291840191600101611400565b5090979650505050505050565b60008083601f84011261143b57600080fd5b5081356001600160401b0381111561145257600080fd5b60208301915083602082850101111561146a57600080fd5b9250929050565b6000806000806000806080878903121561148a57600080fd5b8635955060208701356001600160401b03808211156114a857600080fd5b6114b48a838b01611429565b909750955060408901359150808211156114cd57600080fd5b506114da89828a01611429565b909450925050606087013562ffffff811681146114f657600080fd5b809150509295509295509295565b60006020828403121561151657600080fd5b611348826112ae565b6020808252600a908201526927b7363c9037bbb732b960b11b604082015260600190565b634e487b7160e01b600052601160045260246000fd5b8181038181111561123457611234611543565b634e487b7160e01b600052603260045260246000fd5b60006001600160401b0380831681810361159e5761159e611543565b6001019392505050565b600060e082840312156115ba57600080fd5b60405160e081018181106001600160401b03821117156115ea57634e487b7160e01b600052604160045260246000fd5b80604052508235815260208301356020820152611609604084016112ae565b604082015261161a606084016112ae565b60608201526080830135608082015260a083013560a082015260c083013560c08201528091505092915050565b60006020828403121561165957600080fd5b8151801515811461134857600080fd5b60006020828403121561167b57600080fd5b5051919050565b60006020828403121561169457600080fd5b81516113488161123a565b81835281816020850137506000828201602090810191909152601f909101601f19169091010190565b8581526060602082015260006116e260608301868861169f565b82810360408401526116f581858761169f565b98975050505050505050565b808201808211156112345761123461154356fea26469706673582212202d8e21940f2622ae3b25e77bf9b8542d37e3ac3df65e7226aa952197247dd71464736f6c63430008140033",
  "linkReferences": {},
  "deployedLinkReferences": {}
}